{"abi":[{"inputs":[{"internalType":"address","name":"owner","type":"address"}],"stateMutability":"nonpayable","type":"constructor"},{"inputs":[{"internalType":"string","name":"","type":"string"}],"name":"approvalMap","outputs":[{"internalType":"string","name":"docHash","type":"string"}],"stateMutability":"view","type":"function"},{"inputs":[{"internalType":"string","name":"_hash","type":"string"}],"name":"approveTransaction","outputs":[{"internalType":"uint256","name":"","type":"uint256"}],"stateMutability":"nonpayable","type":"function"},{"inputs":[],"name":"authCreator","outputs":[{"internalType":"bool","name":"","type":"bool"}],"stateMutability":"view","type":"function"},{"inputs":[],"name":"authMember","outputs":[{"internalType":"bool","name":"","type":"bool"}],"stateMutability":"view","type":"function"},{"inputs":[{"internalType":"string","name":"_role","type":"string"},{"internalType":"string","name":"_name","type":"string"},{"internalType":"uint256","name":"_maxAmount","type":"uint256"},{"internalType":"uint256","name":"_minAmount","type":"uint256"}],"name":"createRole","outputs":[],"stateMutability":"nonpayable","type":"function"},{"inputs":[{"internalType":"string","name":"_id","type":"string"},{"internalType":"string","name":"_hash","type":"string"},{"internalType":"string","name":"_url","type":"string"},{"internalType":"string","name":"_comment","type":"string"},{"internalType":"uint256","name":"_amount","type":"uint256"}],"name":"createTransaction","outputs":[],"stateMutability":"nonpayable","type":"function"},{"inputs":[{"internalType":"string","name":"_role","type":"string"},{"internalType":"address","name":"_id","type":"address"},{"internalType":"string","name":"_name","type":"string"}],"name":"createUser","outputs":[],"stateMutability":"nonpayable","type":"function"},{"inputs":[],"name":"creator","outputs":[{"internalType":"address","name":"","type":"address"}],"stateMutability":"view","type":"function"},{"inputs":[{"internalType":"string","name":"_hash","type":"string"}],"name":"declineTransaction","outputs":[{"internalType":"uint256","name":"","type":"uint256"}],"stateMutability":"nonpayable","type":"function"},{"inputs":[{"internalType":"uint256","name":"number","type":"uint256"}],"name":"deleteUser","outputs":[],"stateMutability":"nonpayable","type":"function"},{"inputs":[{"internalType":"string","name":"_hash","type":"string"}],"name":"listApprovals","outputs":[{"components":[{"internalType":"string","name":"docHash","type":"string"},{"components":[{"internalType":"string","name":"name","type":"string"},{"internalType":"string","name":"role","type":"string"},{"internalType":"address","name":"id","type":"address"},{"internalType":"uint256","name":"number","type":"uint256"},{"internalType":"uint256","name":"approveCount","type":"uint256"},{"internalType":"uint256","name":"declineCount","type":"uint256"},{"internalType":"uint256","name":"slipCount","type":"uint256"}],"internalType":"struct BatuFi.User[]","name":"approvalList","type":"tuple[]"}],"internalType":"struct BatuFi.Approval","name":"","type":"tuple"}],"stateMutability":"view","type":"function"},{"inputs":[],"name":"listNotification","outputs":[{"components":[{"internalType":"string","name":"title","type":"string"},{"internalType":"string","name":"message","type":"string"},{"internalType":"string","name":"docHash","type":"string"},{"internalType":"string","name":"status","type":"string"}],"internalType":"struct BatuFi.Notification[]","name":"","type":"tuple[]"}],"stateMutability":"view","type":"function"},{"inputs":[],"name":"listRoles","outputs":[{"components":[{"internalType":"uint256","name":"number","type":"uint256"},{"internalType":"string","name":"role","type":"string"},{"internalType":"string","name":"name","type":"string"},{"internalType":"uint256","name":"maxAmount","type":"uint256"},{"internalType":"uint256","name":"minAmount","type":"uint256"}],"internalType":"struct BatuFi.Role[]","name":"","type":"tuple[]"}],"stateMutability":"view","type":"function"},{"inputs":[],"name":"listTransaction","outputs":[{"components":[{"internalType":"string","name":"id","type":"string"},{"internalType":"string","name":"docHash","type":"string"},{"internalType":"string","name":"url","type":"string"},{"internalType":"string","name":"comment","type":"string"},{"internalType":"uint256","name":"number","type":"uint256"},{"internalType":"string","name":"status","type":"string"},{"internalType":"address","name":"creator","type":"address"},{"internalType":"uint256","name":"amount","type":"uint256"},{"internalType":"string","name":"currentApprovalRole","type":"string"},{"internalType":"string","name":"uptoApprovalRole","type":"string"},{"internalType":"uint256","name":"timestamp","type":"uint256"}],"internalType":"struct BatuFi.Transaction[]","name":"","type":"tuple[]"}],"stateMutability":"view","type":"function"},{"inputs":[],"name":"listUsers","outputs":[{"internalType":"address[]","name":"","type":"address[]"}],"stateMutability":"view","type":"function"},{"inputs":[{"internalType":"uint256","name":"","type":"uint256"}],"name":"notificationList","outputs":[{"internalType":"string","name":"title","type":"string"},{"internalType":"string","name":"message","type":"string"},{"internalType":"string","name":"docHash","type":"string"},{"internalType":"string","name":"status","type":"string"}],"stateMutability":"view","type":"function"},{"inputs":[{"internalType":"string","name":"","type":"string"}],"name":"notificationMap","outputs":[{"internalType":"string","name":"title","type":"string"},{"internalType":"string","name":"message","type":"string"},{"internalType":"string","name":"docHash","type":"string"},{"internalType":"string","name":"status","type":"string"}],"stateMutability":"view","type":"function"},{"inputs":[{"internalType":"uint256","name":"","type":"uint256"}],"name":"roleList","outputs":[{"internalType":"uint256","name":"number","type":"uint256"},{"internalType":"string","name":"role","type":"string"},{"internalType":"string","name":"name","type":"string"},{"internalType":"uint256","name":"maxAmount","type":"uint256"},{"internalType":"uint256","name":"minAmount","type":"uint256"}],"stateMutability":"view","type":"function"},{"inputs":[{"internalType":"string","name":"","type":"string"}],"name":"roleMap","outputs":[{"internalType":"uint256","name":"number","type":"uint256"},{"internalType":"string","name":"role","type":"string"},{"internalType":"string","name":"name","type":"string"},{"internalType":"uint256","name":"maxAmount","type":"uint256"},{"internalType":"uint256","name":"minAmount","type":"uint256"}],"stateMutability":"view","type":"function"},{"inputs":[],"name":"transaction","outputs":[{"internalType":"address","name":"","type":"address"}],"stateMutability":"view","type":"function"},{"inputs":[{"internalType":"uint256","name":"","type":"uint256"}],"name":"transactionList","outputs":[{"internalType":"string","name":"id","type":"string"},{"internalType":"string","name":"docHash","type":"string"},{"internalType":"string","name":"url","type":"string"},{"internalType":"string","name":"comment","type":"string"},{"internalType":"uint256","name":"number","type":"uint256"},{"internalType":"string","name":"status","type":"string"},{"internalType":"address","name":"creator","type":"address"},{"internalType":"uint256","name":"amount","type":"uint256"},{"internalType":"string","name":"currentApprovalRole","type":"string"},{"internalType":"string","name":"uptoApprovalRole","type":"string"},{"internalType":"uint256","name":"timestamp","type":"uint256"}],"stateMutability":"view","type":"function"},{"inputs":[{"internalType":"string","name":"","type":"string"}],"name":"transactionMap","outputs":[{"internalType":"string","name":"id","type":"string"},{"internalType":"string","name":"docHash","type":"string"},{"internalType":"string","name":"url","type":"string"},{"internalType":"string","name":"comment","type":"string"},{"internalType":"uint256","name":"number","type":"uint256"},{"internalType":"string","name":"status","type":"string"},{"internalType":"address","name":"creator","type":"address"},{"internalType":"uint256","name":"amount","type":"uint256"},{"internalType":"string","name":"currentApprovalRole","type":"string"},{"internalType":"string","name":"uptoApprovalRole","type":"string"},{"internalType":"uint256","name":"timestamp","type":"uint256"}],"stateMutability":"view","type":"function"},{"inputs":[{"internalType":"uint256","name":"","type":"uint256"}],"name":"userList","outputs":[{"internalType":"address","name":"","type":"address"}],"stateMutability":"view","type":"function"},{"inputs":[{"internalType":"address","name":"","type":"address"}],"name":"userMap","outputs":[{"internalType":"string","name":"name","type":"string"},{"internalType":"string","name":"role","type":"string"},{"internalType":"address","name":"id","type":"address"},{"internalType":"uint256","name":"number","type":"uint256"},{"internalType":"uint256","name":"approveCount","type":"uint256"},{"internalType":"uint256","name":"declineCount","type":"uint256"},{"internalType":"uint256","name":"slipCount","type":"uint256"}],"stateMutability":"view","type":"function"},{"inputs":[{"internalType":"string","name":"_docHash","type":"string"}],"name":"validateTxDuration","outputs":[{"internalType":"uint256","name":"","type":"uint256"}],"stateMutability":"nonpayable","type":"function"}],"evm":{"assembly":"    /* \"BatuFi.sol\":70:12613  contract BatuFi {... */\n  mstore(0x40, 0x80)\n    /* \"BatuFi.sol\":1101:1106  86400 */\n  0x015180\n    /* \"BatuFi.sol\":1087:1106  uint256 day = 86400 */\n  0x05\n  sstore\n    /* \"BatuFi.sol\":1748:1852  constructor(address owner) {... */\n  callvalue\n  dup1\n  iszero\n  tag_1\n  jumpi\n  0x00\n  dup1\n  revert\ntag_1:\n  pop\n  mload(0x40)\n  sub(codesize, bytecodeSize)\n  dup1\n  bytecodeSize\n  dup4\n  codecopy\n  dup2\n  dup2\n  add\n  0x40\n  mstore\n  dup2\n  add\n  swap1\n  tag_2\n  swap2\n  swap1\n  tag_3\n  jump\t// in\ntag_2:\n    /* \"BatuFi.sol\":1795:1800  owner */\n  dup1\n    /* \"BatuFi.sol\":1785:1792  creator */\n  0x00\n  dup1\n    /* \"BatuFi.sol\":1785:1800  creator = owner */\n  0x0100\n  exp\n  dup2\n  sload\n  dup2\n  0xffffffffffffffffffffffffffffffffffffffff\n  mul\n  not\n  and\n  swap1\n  dup4\n  0xffffffffffffffffffffffffffffffffffffffff\n  and\n  mul\n  or\n  swap1\n  sstore\n  pop\n    /* \"BatuFi.sol\":1810:1845  createUser(\"Owner\", owner, \"Admin\") */\n  tag_6\n  mload(0x40)\n  dup1\n  0x40\n  add\n  0x40\n  mstore\n  dup1\n  0x05\n  dup2\n  mstore\n  0x20\n  add\n  0x4f776e6572000000000000000000000000000000000000000000000000000000\n  dup2\n  mstore\n  pop\n    /* \"BatuFi.sol\":1830:1835  owner */\n  dup3\n    /* \"BatuFi.sol\":1810:1845  createUser(\"Owner\", owner, \"Admin\") */\n  mload(0x40)\n  dup1\n  0x40\n  add\n  0x40\n  mstore\n  dup1\n  0x05\n  dup2\n  mstore\n  0x20\n  add\n  0x41646d696e000000000000000000000000000000000000000000000000000000\n  dup2\n  mstore\n  pop\n    /* \"BatuFi.sol\":1810:1820  createUser */\n  shl(0x20, tag_7)\n    /* \"BatuFi.sol\":1810:1845  createUser(\"Owner\", owner, \"Admin\") */\n  0x20\n  shr\n  jump\t// in\ntag_6:\n    /* \"BatuFi.sol\":1748:1852  constructor(address owner) {... */\n  pop\n    /* \"BatuFi.sol\":70:12613  contract BatuFi {... */\n  jump(tag_8)\n    /* \"BatuFi.sol\":2480:2736  function createUser(string memory _role, address _id, string memory _name) public {... */\ntag_7:\n    /* \"BatuFi.sol\":2572:2586  User storage u */\n  0x00\n    /* \"BatuFi.sol\":2589:2596  userMap */\n  0x0b\n    /* \"BatuFi.sol\":2589:2601  userMap[_id] */\n  0x00\n    /* \"BatuFi.sol\":2597:2600  _id */\n  dup5\n    /* \"BatuFi.sol\":2589:2601  userMap[_id] */\n  0xffffffffffffffffffffffffffffffffffffffff\n  and\n  0xffffffffffffffffffffffffffffffffffffffff\n  and\n  dup2\n  mstore\n  0x20\n  add\n  swap1\n  dup2\n  mstore\n  0x20\n  add\n  0x00\n  keccak256\n    /* \"BatuFi.sol\":2572:2601  User storage u = userMap[_id] */\n  swap1\n  pop\n    /* \"BatuFi.sol\":2620:2625  _role */\n  dup4\n    /* \"BatuFi.sol\":2611:2612  u */\n  dup2\n    /* \"BatuFi.sol\":2611:2617  u.role */\n  0x01\n  add\n    /* \"BatuFi.sol\":2611:2625  u.role = _role */\n  swap1\n  dup2\n  tag_10\n  swap2\n  swap1\n  tag_11\n  jump\t// in\ntag_10:\n  pop\n    /* \"BatuFi.sol\":2642:2645  _id */\n  dup3\n    /* \"BatuFi.sol\":2635:2636  u */\n  dup2\n    /* \"BatuFi.sol\":2635:2639  u.id */\n  0x02\n  add\n  0x00\n    /* \"BatuFi.sol\":2635:2645  u.id = _id */\n  0x0100\n  exp\n  dup2\n  sload\n  dup2\n  0xffffffffffffffffffffffffffffffffffffffff\n  mul\n  not\n  and\n  swap1\n  dup4\n  0xffffffffffffffffffffffffffffffffffffffff\n  and\n  mul\n  or\n  swap1\n  sstore\n  pop\n    /* \"BatuFi.sol\":2664:2669  _name */\n  dup2\n    /* \"BatuFi.sol\":2655:2656  u */\n  dup2\n    /* \"BatuFi.sol\":2655:2661  u.name */\n  0x00\n  add\n    /* \"BatuFi.sol\":2655:2669  u.name = _name */\n  swap1\n  dup2\n  tag_12\n  swap2\n  swap1\n  tag_11\n  jump\t// in\ntag_12:\n  pop\n    /* \"BatuFi.sol\":2690:2699  userCount */\n  0x02\n  0x00\n    /* \"BatuFi.sol\":2690:2701  userCount++ */\n  dup2\n  sload\n  dup1\n  swap3\n  swap2\n  swap1\n  tag_13\n  swap1\n  tag_14\n  jump\t// in\ntag_13:\n  swap2\n  swap1\n  pop\n  sstore\n    /* \"BatuFi.sol\":2679:2680  u */\n  dup2\n    /* \"BatuFi.sol\":2679:2687  u.number */\n  0x03\n  add\n    /* \"BatuFi.sol\":2679:2701  u.number = userCount++ */\n  dup2\n  swap1\n  sstore\n  pop\n    /* \"BatuFi.sol\":2711:2719  userList */\n  0x09\n    /* \"BatuFi.sol\":2725:2728  _id */\n  dup4\n    /* \"BatuFi.sol\":2711:2729  userList.push(_id) */\n  swap1\n  dup1\n  0x01\n  dup2\n  sload\n  add\n  dup1\n  dup3\n  sstore\n  dup1\n  swap2\n  pop\n  pop\n  0x01\n  swap1\n  sub\n  swap1\n  0x00\n  mstore\n  keccak256(0x00, 0x20)\n  add\n  0x00\n  swap1\n  swap2\n  swap1\n  swap2\n  swap1\n  swap2\n  0x0100\n  exp\n  dup2\n  sload\n  dup2\n  0xffffffffffffffffffffffffffffffffffffffff\n  mul\n  not\n  and\n  swap1\n  dup4\n  0xffffffffffffffffffffffffffffffffffffffff\n  and\n  mul\n  or\n  swap1\n  sstore\n  pop\n    /* \"BatuFi.sol\":2562:2736  {... */\n  pop\n    /* \"BatuFi.sol\":2480:2736  function createUser(string memory _role, address _id, string memory _name) public {... */\n  pop\n  pop\n  pop\n  jump\t// out\n    /* \"#utility.yul\":88:205   */\ntag_17:\n    /* \"#utility.yul\":197:198   */\n  0x00\n    /* \"#utility.yul\":194:195   */\n  dup1\n    /* \"#utility.yul\":187:199   */\n  revert\n    /* \"#utility.yul\":334:460   */\ntag_19:\n    /* \"#utility.yul\":371:378   */\n  0x00\n    /* \"#utility.yul\":411:453   */\n  0xffffffffffffffffffffffffffffffffffffffff\n    /* \"#utility.yul\":404:409   */\n  dup3\n    /* \"#utility.yul\":400:454   */\n  and\n    /* \"#utility.yul\":389:454   */\n  swap1\n  pop\n    /* \"#utility.yul\":334:460   */\n  swap2\n  swap1\n  pop\n  jump\t// out\n    /* \"#utility.yul\":466:562   */\ntag_20:\n    /* \"#utility.yul\":503:510   */\n  0x00\n    /* \"#utility.yul\":532:556   */\n  tag_50\n    /* \"#utility.yul\":550:555   */\n  dup3\n    /* \"#utility.yul\":532:556   */\n  tag_19\n  jump\t// in\ntag_50:\n    /* \"#utility.yul\":521:556   */\n  swap1\n  pop\n    /* \"#utility.yul\":466:562   */\n  swap2\n  swap1\n  pop\n  jump\t// out\n    /* \"#utility.yul\":568:690   */\ntag_21:\n    /* \"#utility.yul\":641:665   */\n  tag_52\n    /* \"#utility.yul\":659:664   */\n  dup2\n    /* \"#utility.yul\":641:665   */\n  tag_20\n  jump\t// in\ntag_52:\n    /* \"#utility.yul\":634:639   */\n  dup2\n    /* \"#utility.yul\":631:666   */\n  eq\n    /* \"#utility.yul\":621:684   */\n  tag_53\n  jumpi\n    /* \"#utility.yul\":680:681   */\n  0x00\n    /* \"#utility.yul\":677:678   */\n  dup1\n    /* \"#utility.yul\":670:682   */\n  revert\n    /* \"#utility.yul\":621:684   */\ntag_53:\n    /* \"#utility.yul\":568:690   */\n  pop\n  jump\t// out\n    /* \"#utility.yul\":696:839   */\ntag_22:\n    /* \"#utility.yul\":753:758   */\n  0x00\n    /* \"#utility.yul\":784:790   */\n  dup2\n    /* \"#utility.yul\":778:791   */\n  mload\n    /* \"#utility.yul\":769:791   */\n  swap1\n  pop\n    /* \"#utility.yul\":800:833   */\n  tag_55\n    /* \"#utility.yul\":827:832   */\n  dup2\n    /* \"#utility.yul\":800:833   */\n  tag_21\n  jump\t// in\ntag_55:\n    /* \"#utility.yul\":696:839   */\n  swap3\n  swap2\n  pop\n  pop\n  jump\t// out\n    /* \"#utility.yul\":845:1196   */\ntag_3:\n    /* \"#utility.yul\":915:921   */\n  0x00\n    /* \"#utility.yul\":964:966   */\n  0x20\n    /* \"#utility.yul\":952:961   */\n  dup3\n    /* \"#utility.yul\":943:950   */\n  dup5\n    /* \"#utility.yul\":939:962   */\n  sub\n    /* \"#utility.yul\":935:967   */\n  slt\n    /* \"#utility.yul\":932:1051   */\n  iszero\n  tag_57\n  jumpi\n    /* \"#utility.yul\":970:1049   */\n  tag_58\n  tag_17\n  jump\t// in\ntag_58:\n    /* \"#utility.yul\":932:1051   */\ntag_57:\n    /* \"#utility.yul\":1090:1091   */\n  0x00\n    /* \"#utility.yul\":1115:1179   */\n  tag_59\n    /* \"#utility.yul\":1171:1178   */\n  dup5\n    /* \"#utility.yul\":1162:1168   */\n  dup3\n    /* \"#utility.yul\":1151:1160   */\n  dup6\n    /* \"#utility.yul\":1147:1169   */\n  add\n    /* \"#utility.yul\":1115:1179   */\n  tag_22\n  jump\t// in\ntag_59:\n    /* \"#utility.yul\":1105:1179   */\n  swap2\n  pop\n    /* \"#utility.yul\":1061:1189   */\n  pop\n    /* \"#utility.yul\":845:1196   */\n  swap3\n  swap2\n  pop\n  pop\n  jump\t// out\n    /* \"#utility.yul\":1202:1301   */\ntag_23:\n    /* \"#utility.yul\":1254:1260   */\n  0x00\n    /* \"#utility.yul\":1288:1293   */\n  dup2\n    /* \"#utility.yul\":1282:1294   */\n  mload\n    /* \"#utility.yul\":1272:1294   */\n  swap1\n  pop\n    /* \"#utility.yul\":1202:1301   */\n  swap2\n  swap1\n  pop\n  jump\t// out\n    /* \"#utility.yul\":1307:1487   */\ntag_24:\n    /* \"#utility.yul\":1355:1432   */\n  0x4e487b7100000000000000000000000000000000000000000000000000000000\n    /* \"#utility.yul\":1352:1353   */\n  0x00\n    /* \"#utility.yul\":1345:1433   */\n  mstore\n    /* \"#utility.yul\":1452:1456   */\n  0x41\n    /* \"#utility.yul\":1449:1450   */\n  0x04\n    /* \"#utility.yul\":1442:1457   */\n  mstore\n    /* \"#utility.yul\":1476:1480   */\n  0x24\n    /* \"#utility.yul\":1473:1474   */\n  0x00\n    /* \"#utility.yul\":1466:1481   */\n  revert\n    /* \"#utility.yul\":1493:1673   */\ntag_25:\n    /* \"#utility.yul\":1541:1618   */\n  0x4e487b7100000000000000000000000000000000000000000000000000000000\n    /* \"#utility.yul\":1538:1539   */\n  0x00\n    /* \"#utility.yul\":1531:1619   */\n  mstore\n    /* \"#utility.yul\":1638:1642   */\n  0x22\n    /* \"#utility.yul\":1635:1636   */\n  0x04\n    /* \"#utility.yul\":1628:1643   */\n  mstore\n    /* \"#utility.yul\":1662:1666   */\n  0x24\n    /* \"#utility.yul\":1659:1660   */\n  0x00\n    /* \"#utility.yul\":1652:1667   */\n  revert\n    /* \"#utility.yul\":1679:1999   */\ntag_26:\n    /* \"#utility.yul\":1723:1729   */\n  0x00\n    /* \"#utility.yul\":1760:1761   */\n  0x02\n    /* \"#utility.yul\":1754:1758   */\n  dup3\n    /* \"#utility.yul\":1750:1762   */\n  div\n    /* \"#utility.yul\":1740:1762   */\n  swap1\n  pop\n    /* \"#utility.yul\":1807:1808   */\n  0x01\n    /* \"#utility.yul\":1801:1805   */\n  dup3\n    /* \"#utility.yul\":1797:1809   */\n  and\n    /* \"#utility.yul\":1828:1846   */\n  dup1\n    /* \"#utility.yul\":1818:1899   */\n  tag_64\n  jumpi\n    /* \"#utility.yul\":1884:1888   */\n  0x7f\n    /* \"#utility.yul\":1876:1882   */\n  dup3\n    /* \"#utility.yul\":1872:1889   */\n  and\n    /* \"#utility.yul\":1862:1889   */\n  swap2\n  pop\n    /* \"#utility.yul\":1818:1899   */\ntag_64:\n    /* \"#utility.yul\":1946:1948   */\n  0x20\n    /* \"#utility.yul\":1938:1944   */\n  dup3\n    /* \"#utility.yul\":1935:1949   */\n  lt\n    /* \"#utility.yul\":1915:1933   */\n  dup2\n    /* \"#utility.yul\":1912:1950   */\n  sub\n    /* \"#utility.yul\":1909:1993   */\n  tag_65\n  jumpi\n    /* \"#utility.yul\":1965:1983   */\n  tag_66\n  tag_25\n  jump\t// in\ntag_66:\n    /* \"#utility.yul\":1909:1993   */\ntag_65:\n    /* \"#utility.yul\":1730:1999   */\n  pop\n    /* \"#utility.yul\":1679:1999   */\n  swap2\n  swap1\n  pop\n  jump\t// out\n    /* \"#utility.yul\":2005:2146   */\ntag_27:\n    /* \"#utility.yul\":2054:2058   */\n  0x00\n    /* \"#utility.yul\":2077:2080   */\n  dup2\n    /* \"#utility.yul\":2069:2080   */\n  swap1\n  pop\n    /* \"#utility.yul\":2100:2103   */\n  dup2\n    /* \"#utility.yul\":2097:2098   */\n  0x00\n    /* \"#utility.yul\":2090:2104   */\n  mstore\n    /* \"#utility.yul\":2134:2138   */\n  0x20\n    /* \"#utility.yul\":2131:2132   */\n  0x00\n    /* \"#utility.yul\":2121:2139   */\n  keccak256\n    /* \"#utility.yul\":2113:2139   */\n  swap1\n  pop\n    /* \"#utility.yul\":2005:2146   */\n  swap2\n  swap1\n  pop\n  jump\t// out\n    /* \"#utility.yul\":2152:2245   */\ntag_28:\n    /* \"#utility.yul\":2189:2195   */\n  0x00\n    /* \"#utility.yul\":2236:2238   */\n  0x20\n    /* \"#utility.yul\":2231:2233   */\n  0x1f\n    /* \"#utility.yul\":2224:2229   */\n  dup4\n    /* \"#utility.yul\":2220:2234   */\n  add\n    /* \"#utility.yul\":2216:2239   */\n  div\n    /* \"#utility.yul\":2206:2239   */\n  swap1\n  pop\n    /* \"#utility.yul\":2152:2245   */\n  swap2\n  swap1\n  pop\n  jump\t// out\n    /* \"#utility.yul\":2251:2358   */\ntag_29:\n    /* \"#utility.yul\":2295:2303   */\n  0x00\n    /* \"#utility.yul\":2345:2350   */\n  dup3\n    /* \"#utility.yul\":2339:2343   */\n  dup3\n    /* \"#utility.yul\":2335:2351   */\n  shl\n    /* \"#utility.yul\":2314:2351   */\n  swap1\n  pop\n    /* \"#utility.yul\":2251:2358   */\n  swap3\n  swap2\n  pop\n  pop\n  jump\t// out\n    /* \"#utility.yul\":2364:2757   */\ntag_30:\n    /* \"#utility.yul\":2433:2439   */\n  0x00\n    /* \"#utility.yul\":2483:2484   */\n  0x08\n    /* \"#utility.yul\":2471:2481   */\n  dup4\n    /* \"#utility.yul\":2467:2485   */\n  mul\n    /* \"#utility.yul\":2506:2603   */\n  tag_71\n    /* \"#utility.yul\":2536:2602   */\n  0xffffffffffffffffffffffffffffffffffffffffffffffffffffffffffffffff\n    /* \"#utility.yul\":2525:2534   */\n  dup3\n    /* \"#utility.yul\":2506:2603   */\n  tag_29\n  jump\t// in\ntag_71:\n    /* \"#utility.yul\":2624:2663   */\n  tag_72\n    /* \"#utility.yul\":2654:2662   */\n  dup7\n    /* \"#utility.yul\":2643:2652   */\n  dup4\n    /* \"#utility.yul\":2624:2663   */\n  tag_29\n  jump\t// in\ntag_72:\n    /* \"#utility.yul\":2612:2663   */\n  swap6\n  pop\n    /* \"#utility.yul\":2696:2700   */\n  dup1\n    /* \"#utility.yul\":2692:2701   */\n  not\n    /* \"#utility.yul\":2685:2690   */\n  dup5\n    /* \"#utility.yul\":2681:2702   */\n  and\n    /* \"#utility.yul\":2672:2702   */\n  swap4\n  pop\n    /* \"#utility.yul\":2745:2749   */\n  dup1\n    /* \"#utility.yul\":2735:2743   */\n  dup7\n    /* \"#utility.yul\":2731:2750   */\n  and\n    /* \"#utility.yul\":2724:2729   */\n  dup5\n    /* \"#utility.yul\":2721:2751   */\n  or\n    /* \"#utility.yul\":2711:2751   */\n  swap3\n  pop\n    /* \"#utility.yul\":2440:2757   */\n  pop\n  pop\n    /* \"#utility.yul\":2364:2757   */\n  swap4\n  swap3\n  pop\n  pop\n  pop\n  jump\t// out\n    /* \"#utility.yul\":2763:2840   */\ntag_31:\n    /* \"#utility.yul\":2800:2807   */\n  0x00\n    /* \"#utility.yul\":2829:2834   */\n  dup2\n    /* \"#utility.yul\":2818:2834   */\n  swap1\n  pop\n    /* \"#utility.yul\":2763:2840   */\n  swap2\n  swap1\n  pop\n  jump\t// out\n    /* \"#utility.yul\":2846:2906   */\ntag_32:\n    /* \"#utility.yul\":2874:2877   */\n  0x00\n    /* \"#utility.yul\":2895:2900   */\n  dup2\n    /* \"#utility.yul\":2888:2900   */\n  swap1\n  pop\n    /* \"#utility.yul\":2846:2906   */\n  swap2\n  swap1\n  pop\n  jump\t// out\n    /* \"#utility.yul\":2912:3054   */\ntag_33:\n    /* \"#utility.yul\":2962:2971   */\n  0x00\n    /* \"#utility.yul\":2995:3048   */\n  tag_76\n    /* \"#utility.yul\":3013:3047   */\n  tag_77\n    /* \"#utility.yul\":3022:3046   */\n  tag_78\n    /* \"#utility.yul\":3040:3045   */\n  dup5\n    /* \"#utility.yul\":3022:3046   */\n  tag_31\n  jump\t// in\ntag_78:\n    /* \"#utility.yul\":3013:3047   */\n  tag_32\n  jump\t// in\ntag_77:\n    /* \"#utility.yul\":2995:3048   */\n  tag_31\n  jump\t// in\ntag_76:\n    /* \"#utility.yul\":2982:3048   */\n  swap1\n  pop\n    /* \"#utility.yul\":2912:3054   */\n  swap2\n  swap1\n  pop\n  jump\t// out\n    /* \"#utility.yul\":3060:3135   */\ntag_34:\n    /* \"#utility.yul\":3103:3106   */\n  0x00\n    /* \"#utility.yul\":3124:3129   */\n  dup2\n    /* \"#utility.yul\":3117:3129   */\n  swap1\n  pop\n    /* \"#utility.yul\":3060:3135   */\n  swap2\n  swap1\n  pop\n  jump\t// out\n    /* \"#utility.yul\":3141:3410   */\ntag_35:\n    /* \"#utility.yul\":3251:3290   */\n  tag_81\n    /* \"#utility.yul\":3282:3289   */\n  dup4\n    /* \"#utility.yul\":3251:3290   */\n  tag_33\n  jump\t// in\ntag_81:\n    /* \"#utility.yul\":3312:3403   */\n  tag_82\n    /* \"#utility.yul\":3361:3402   */\n  tag_83\n    /* \"#utility.yul\":3385:3401   */\n  dup3\n    /* \"#utility.yul\":3361:3402   */\n  tag_34\n  jump\t// in\ntag_83:\n    /* \"#utility.yul\":3353:3359   */\n  dup5\n    /* \"#utility.yul\":3346:3350   */\n  dup5\n    /* \"#utility.yul\":3340:3351   */\n  sload\n    /* \"#utility.yul\":3312:3403   */\n  tag_30\n  jump\t// in\ntag_82:\n    /* \"#utility.yul\":3306:3310   */\n  dup3\n    /* \"#utility.yul\":3299:3404   */\n  sstore\n    /* \"#utility.yul\":3217:3410   */\n  pop\n    /* \"#utility.yul\":3141:3410   */\n  pop\n  pop\n  pop\n  jump\t// out\n    /* \"#utility.yul\":3416:3489   */\ntag_36:\n    /* \"#utility.yul\":3461:3464   */\n  0x00\n    /* \"#utility.yul\":3416:3489   */\n  swap1\n  jump\t// out\n    /* \"#utility.yul\":3495:3684   */\ntag_37:\n    /* \"#utility.yul\":3572:3604   */\n  tag_86\n  tag_36\n  jump\t// in\ntag_86:\n    /* \"#utility.yul\":3613:3678   */\n  tag_87\n    /* \"#utility.yul\":3671:3677   */\n  dup2\n    /* \"#utility.yul\":3663:3669   */\n  dup5\n    /* \"#utility.yul\":3657:3661   */\n  dup5\n    /* \"#utility.yul\":3613:3678   */\n  tag_35\n  jump\t// in\ntag_87:\n    /* \"#utility.yul\":3548:3684   */\n  pop\n    /* \"#utility.yul\":3495:3684   */\n  pop\n  pop\n  jump\t// out\n    /* \"#utility.yul\":3690:3876   */\ntag_38:\n    /* \"#utility.yul\":3750:3870   */\ntag_89:\n    /* \"#utility.yul\":3767:3770   */\n  dup2\n    /* \"#utility.yul\":3760:3765   */\n  dup2\n    /* \"#utility.yul\":3757:3771   */\n  lt\n    /* \"#utility.yul\":3750:3870   */\n  iszero\n  tag_91\n  jumpi\n    /* \"#utility.yul\":3821:3860   */\n  tag_92\n    /* \"#utility.yul\":3858:3859   */\n  0x00\n    /* \"#utility.yul\":3851:3856   */\n  dup3\n    /* \"#utility.yul\":3821:3860   */\n  tag_37\n  jump\t// in\ntag_92:\n    /* \"#utility.yul\":3794:3795   */\n  0x01\n    /* \"#utility.yul\":3787:3792   */\n  dup2\n    /* \"#utility.yul\":3783:3796   */\n  add\n    /* \"#utility.yul\":3774:3796   */\n  swap1\n  pop\n    /* \"#utility.yul\":3750:3870   */\n  jump(tag_89)\ntag_91:\n    /* \"#utility.yul\":3690:3876   */\n  pop\n  pop\n  jump\t// out\n    /* \"#utility.yul\":3882:4425   */\ntag_39:\n    /* \"#utility.yul\":3983:3985   */\n  0x1f\n    /* \"#utility.yul\":3978:3981   */\n  dup3\n    /* \"#utility.yul\":3975:3986   */\n  gt\n    /* \"#utility.yul\":3972:4418   */\n  iszero\n  tag_94\n  jumpi\n    /* \"#utility.yul\":4017:4055   */\n  tag_95\n    /* \"#utility.yul\":4049:4054   */\n  dup2\n    /* \"#utility.yul\":4017:4055   */\n  tag_27\n  jump\t// in\ntag_95:\n    /* \"#utility.yul\":4101:4130   */\n  tag_96\n    /* \"#utility.yul\":4119:4129   */\n  dup5\n    /* \"#utility.yul\":4101:4130   */\n  tag_28\n  jump\t// in\ntag_96:\n    /* \"#utility.yul\":4091:4099   */\n  dup2\n    /* \"#utility.yul\":4087:4131   */\n  add\n    /* \"#utility.yul\":4284:4286   */\n  0x20\n    /* \"#utility.yul\":4272:4282   */\n  dup6\n    /* \"#utility.yul\":4269:4287   */\n  lt\n    /* \"#utility.yul\":4266:4315   */\n  iszero\n  tag_97\n  jumpi\n    /* \"#utility.yul\":4305:4313   */\n  dup2\n    /* \"#utility.yul\":4290:4313   */\n  swap1\n  pop\n    /* \"#utility.yul\":4266:4315   */\ntag_97:\n    /* \"#utility.yul\":4328:4408   */\n  tag_98\n    /* \"#utility.yul\":4384:4406   */\n  tag_99\n    /* \"#utility.yul\":4402:4405   */\n  dup6\n    /* \"#utility.yul\":4384:4406   */\n  tag_28\n  jump\t// in\ntag_99:\n    /* \"#utility.yul\":4374:4382   */\n  dup4\n    /* \"#utility.yul\":4370:4407   */\n  add\n    /* \"#utility.yul\":4357:4368   */\n  dup3\n    /* \"#utility.yul\":4328:4408   */\n  tag_38\n  jump\t// in\ntag_98:\n    /* \"#utility.yul\":3987:4418   */\n  pop\n  pop\n    /* \"#utility.yul\":3972:4418   */\ntag_94:\n    /* \"#utility.yul\":3882:4425   */\n  pop\n  pop\n  pop\n  jump\t// out\n    /* \"#utility.yul\":4431:4548   */\ntag_40:\n    /* \"#utility.yul\":4485:4493   */\n  0x00\n    /* \"#utility.yul\":4535:4540   */\n  dup3\n    /* \"#utility.yul\":4529:4533   */\n  dup3\n    /* \"#utility.yul\":4525:4541   */\n  shr\n    /* \"#utility.yul\":4504:4541   */\n  swap1\n  pop\n    /* \"#utility.yul\":4431:4548   */\n  swap3\n  swap2\n  pop\n  pop\n  jump\t// out\n    /* \"#utility.yul\":4554:4723   */\ntag_41:\n    /* \"#utility.yul\":4598:4604   */\n  0x00\n    /* \"#utility.yul\":4631:4682   */\n  tag_102\n    /* \"#utility.yul\":4679:4680   */\n  0x00\n    /* \"#utility.yul\":4675:4681   */\n  not\n    /* \"#utility.yul\":4667:4672   */\n  dup5\n    /* \"#utility.yul\":4664:4665   */\n  0x08\n    /* \"#utility.yul\":4660:4673   */\n  mul\n    /* \"#utility.yul\":4631:4682   */\n  tag_40\n  jump\t// in\ntag_102:\n    /* \"#utility.yul\":4627:4683   */\n  not\n    /* \"#utility.yul\":4712:4716   */\n  dup1\n    /* \"#utility.yul\":4706:4710   */\n  dup4\n    /* \"#utility.yul\":4702:4717   */\n  and\n    /* \"#utility.yul\":4692:4717   */\n  swap2\n  pop\n    /* \"#utility.yul\":4605:4723   */\n  pop\n    /* \"#utility.yul\":4554:4723   */\n  swap3\n  swap2\n  pop\n  pop\n  jump\t// out\n    /* \"#utility.yul\":4728:5023   */\ntag_42:\n    /* \"#utility.yul\":4804:4808   */\n  0x00\n    /* \"#utility.yul\":4950:4979   */\n  tag_104\n    /* \"#utility.yul\":4975:4978   */\n  dup4\n    /* \"#utility.yul\":4969:4973   */\n  dup4\n    /* \"#utility.yul\":4950:4979   */\n  tag_41\n  jump\t// in\ntag_104:\n    /* \"#utility.yul\":4942:4979   */\n  swap2\n  pop\n    /* \"#utility.yul\":5012:5015   */\n  dup3\n    /* \"#utility.yul\":5009:5010   */\n  0x02\n    /* \"#utility.yul\":5005:5016   */\n  mul\n    /* \"#utility.yul\":4999:5003   */\n  dup3\n    /* \"#utility.yul\":4996:5017   */\n  or\n    /* \"#utility.yul\":4988:5017   */\n  swap1\n  pop\n    /* \"#utility.yul\":4728:5023   */\n  swap3\n  swap2\n  pop\n  pop\n  jump\t// out\n    /* \"#utility.yul\":5028:6423   */\ntag_11:\n    /* \"#utility.yul\":5145:5182   */\n  tag_106\n    /* \"#utility.yul\":5178:5181   */\n  dup3\n    /* \"#utility.yul\":5145:5182   */\n  tag_23\n  jump\t// in\ntag_106:\n    /* \"#utility.yul\":5247:5265   */\n  0xffffffffffffffff\n    /* \"#utility.yul\":5239:5245   */\n  dup2\n    /* \"#utility.yul\":5236:5266   */\n  gt\n    /* \"#utility.yul\":5233:5289   */\n  iszero\n  tag_107\n  jumpi\n    /* \"#utility.yul\":5269:5287   */\n  tag_108\n  tag_24\n  jump\t// in\ntag_108:\n    /* \"#utility.yul\":5233:5289   */\ntag_107:\n    /* \"#utility.yul\":5313:5351   */\n  tag_109\n    /* \"#utility.yul\":5345:5349   */\n  dup3\n    /* \"#utility.yul\":5339:5350   */\n  sload\n    /* \"#utility.yul\":5313:5351   */\n  tag_26\n  jump\t// in\ntag_109:\n    /* \"#utility.yul\":5398:5465   */\n  tag_110\n    /* \"#utility.yul\":5458:5464   */\n  dup3\n    /* \"#utility.yul\":5450:5456   */\n  dup3\n    /* \"#utility.yul\":5444:5448   */\n  dup6\n    /* \"#utility.yul\":5398:5465   */\n  tag_39\n  jump\t// in\ntag_110:\n    /* \"#utility.yul\":5492:5493   */\n  0x00\n    /* \"#utility.yul\":5516:5520   */\n  0x20\n    /* \"#utility.yul\":5503:5520   */\n  swap1\n  pop\n    /* \"#utility.yul\":5548:5550   */\n  0x1f\n    /* \"#utility.yul\":5540:5546   */\n  dup4\n    /* \"#utility.yul\":5537:5551   */\n  gt\n    /* \"#utility.yul\":5565:5566   */\n  0x01\n    /* \"#utility.yul\":5560:6178   */\n  dup2\n  eq\n  tag_112\n  jumpi\n    /* \"#utility.yul\":6222:6223   */\n  0x00\n    /* \"#utility.yul\":6239:6245   */\n  dup5\n    /* \"#utility.yul\":6236:6313   */\n  iszero\n  tag_113\n  jumpi\n    /* \"#utility.yul\":6288:6297   */\n  dup3\n    /* \"#utility.yul\":6283:6286   */\n  dup8\n    /* \"#utility.yul\":6279:6298   */\n  add\n    /* \"#utility.yul\":6273:6299   */\n  mload\n    /* \"#utility.yul\":6264:6299   */\n  swap1\n  pop\n    /* \"#utility.yul\":6236:6313   */\ntag_113:\n    /* \"#utility.yul\":6339:6406   */\n  tag_114\n    /* \"#utility.yul\":6399:6405   */\n  dup6\n    /* \"#utility.yul\":6392:6397   */\n  dup3\n    /* \"#utility.yul\":6339:6406   */\n  tag_42\n  jump\t// in\ntag_114:\n    /* \"#utility.yul\":6333:6337   */\n  dup7\n    /* \"#utility.yul\":6326:6407   */\n  sstore\n    /* \"#utility.yul\":6195:6417   */\n  pop\n    /* \"#utility.yul\":5530:6417   */\n  jump(tag_111)\n    /* \"#utility.yul\":5560:6178   */\ntag_112:\n    /* \"#utility.yul\":5612:5616   */\n  0x1f\n    /* \"#utility.yul\":5608:5617   */\n  not\n    /* \"#utility.yul\":5600:5606   */\n  dup5\n    /* \"#utility.yul\":5596:5618   */\n  and\n    /* \"#utility.yul\":5646:5683   */\n  tag_115\n    /* \"#utility.yul\":5678:5682   */\n  dup7\n    /* \"#utility.yul\":5646:5683   */\n  tag_27\n  jump\t// in\ntag_115:\n    /* \"#utility.yul\":5705:5706   */\n  0x00\n    /* \"#utility.yul\":5719:5927   */\ntag_116:\n    /* \"#utility.yul\":5733:5740   */\n  dup3\n    /* \"#utility.yul\":5730:5731   */\n  dup2\n    /* \"#utility.yul\":5727:5741   */\n  lt\n    /* \"#utility.yul\":5719:5927   */\n  iszero\n  tag_118\n  jumpi\n    /* \"#utility.yul\":5812:5821   */\n  dup5\n    /* \"#utility.yul\":5807:5810   */\n  dup10\n    /* \"#utility.yul\":5803:5822   */\n  add\n    /* \"#utility.yul\":5797:5823   */\n  mload\n    /* \"#utility.yul\":5789:5795   */\n  dup3\n    /* \"#utility.yul\":5782:5824   */\n  sstore\n    /* \"#utility.yul\":5863:5864   */\n  0x01\n    /* \"#utility.yul\":5855:5861   */\n  dup3\n    /* \"#utility.yul\":5851:5865   */\n  add\n    /* \"#utility.yul\":5841:5865   */\n  swap2\n  pop\n    /* \"#utility.yul\":5910:5912   */\n  0x20\n    /* \"#utility.yul\":5899:5908   */\n  dup6\n    /* \"#utility.yul\":5895:5913   */\n  add\n    /* \"#utility.yul\":5882:5913   */\n  swap5\n  pop\n    /* \"#utility.yul\":5756:5760   */\n  0x20\n    /* \"#utility.yul\":5753:5754   */\n  dup2\n    /* \"#utility.yul\":5749:5761   */\n  add\n    /* \"#utility.yul\":5744:5761   */\n  swap1\n  pop\n    /* \"#utility.yul\":5719:5927   */\n  jump(tag_116)\ntag_118:\n    /* \"#utility.yul\":5955:5961   */\n  dup7\n    /* \"#utility.yul\":5946:5953   */\n  dup4\n    /* \"#utility.yul\":5943:5962   */\n  lt\n    /* \"#utility.yul\":5940:6119   */\n  iszero\n  tag_119\n  jumpi\n    /* \"#utility.yul\":6013:6022   */\n  dup5\n    /* \"#utility.yul\":6008:6011   */\n  dup10\n    /* \"#utility.yul\":6004:6023   */\n  add\n    /* \"#utility.yul\":5998:6024   */\n  mload\n    /* \"#utility.yul\":6056:6104   */\n  tag_120\n    /* \"#utility.yul\":6098:6102   */\n  0x1f\n    /* \"#utility.yul\":6090:6096   */\n  dup10\n    /* \"#utility.yul\":6086:6103   */\n  and\n    /* \"#utility.yul\":6075:6084   */\n  dup3\n    /* \"#utility.yul\":6056:6104   */\n  tag_41\n  jump\t// in\ntag_120:\n    /* \"#utility.yul\":6048:6054   */\n  dup4\n    /* \"#utility.yul\":6041:6105   */\n  sstore\n    /* \"#utility.yul\":5963:6119   */\n  pop\n    /* \"#utility.yul\":5940:6119   */\ntag_119:\n    /* \"#utility.yul\":6165:6166   */\n  0x01\n    /* \"#utility.yul\":6161:6162   */\n  0x02\n    /* \"#utility.yul\":6153:6159   */\n  dup9\n    /* \"#utility.yul\":6149:6163   */\n  mul\n    /* \"#utility.yul\":6145:6167   */\n  add\n    /* \"#utility.yul\":6139:6143   */\n  dup9\n    /* \"#utility.yul\":6132:6168   */\n  sstore\n    /* \"#utility.yul\":5567:6178   */\n  pop\n  pop\n  pop\n    /* \"#utility.yul\":5530:6417   */\ntag_111:\n  pop\n    /* \"#utility.yul\":5120:6423   */\n  pop\n  pop\n  pop\n    /* \"#utility.yul\":5028:6423   */\n  pop\n  pop\n  jump\t// out\n    /* \"#utility.yul\":6429:6609   */\ntag_43:\n    /* \"#utility.yul\":6477:6554   */\n  0x4e487b7100000000000000000000000000000000000000000000000000000000\n    /* \"#utility.yul\":6474:6475   */\n  0x00\n    /* \"#utility.yul\":6467:6555   */\n  mstore\n    /* \"#utility.yul\":6574:6578   */\n  0x11\n    /* \"#utility.yul\":6571:6572   */\n  0x04\n    /* \"#utility.yul\":6564:6579   */\n  mstore\n    /* \"#utility.yul\":6598:6602   */\n  0x24\n    /* \"#utility.yul\":6595:6596   */\n  0x00\n    /* \"#utility.yul\":6588:6603   */\n  revert\n    /* \"#utility.yul\":6615:6848   */\ntag_14:\n    /* \"#utility.yul\":6654:6657   */\n  0x00\n    /* \"#utility.yul\":6677:6701   */\n  tag_123\n    /* \"#utility.yul\":6695:6700   */\n  dup3\n    /* \"#utility.yul\":6677:6701   */\n  tag_31\n  jump\t// in\ntag_123:\n    /* \"#utility.yul\":6668:6701   */\n  swap2\n  pop\n    /* \"#utility.yul\":6723:6789   */\n  0xffffffffffffffffffffffffffffffffffffffffffffffffffffffffffffffff\n    /* \"#utility.yul\":6716:6721   */\n  dup3\n    /* \"#utility.yul\":6713:6790   */\n  sub\n    /* \"#utility.yul\":6710:6813   */\n  tag_124\n  jumpi\n    /* \"#utility.yul\":6793:6811   */\n  tag_125\n  tag_43\n  jump\t// in\ntag_125:\n    /* \"#utility.yul\":6710:6813   */\ntag_124:\n    /* \"#utility.yul\":6840:6841   */\n  0x01\n    /* \"#utility.yul\":6833:6838   */\n  dup3\n    /* \"#utility.yul\":6829:6842   */\n  add\n    /* \"#utility.yul\":6822:6842   */\n  swap1\n  pop\n    /* \"#utility.yul\":6615:6848   */\n  swap2\n  swap1\n  pop\n  jump\t// out\n    /* \"BatuFi.sol\":70:12613  contract BatuFi {... */\ntag_8:\n  dataSize(sub_0)\n  dup1\n  dataOffset(sub_0)\n  0x00\n  codecopy\n  0x00\n  return\nstop\n\nsub_0: assembly {\n        /* \"BatuFi.sol\":70:12613  contract BatuFi {... */\n      mstore(0x40, 0x80)\n      callvalue\n      dup1\n      iszero\n      tag_1\n      jumpi\n      0x00\n      dup1\n      revert\n    tag_1:\n      pop\n      jumpi(tag_2, lt(calldatasize, 0x04))\n      shr(0xe0, calldataload(0x00))\n      dup1\n      0x89d7c784\n      gt\n      tag_28\n      jumpi\n      dup1\n      0xc99de57e\n      gt\n      tag_29\n      jumpi\n      dup1\n      0xe08491cd\n      gt\n      tag_30\n      jumpi\n      dup1\n      0xe08491cd\n      eq\n      tag_24\n      jumpi\n      dup1\n      0xf2cf5ec7\n      eq\n      tag_25\n      jumpi\n      dup1\n      0xf4558ef9\n      eq\n      tag_26\n      jumpi\n      dup1\n      0xf59badad\n      eq\n      tag_27\n      jumpi\n      jump(tag_2)\n    tag_30:\n      dup1\n      0xc99de57e\n      eq\n      tag_21\n      jumpi\n      dup1\n      0xccc590f2\n      eq\n      tag_22\n      jumpi\n      dup1\n      0xe0528b7c\n      eq\n      tag_23\n      jumpi\n      jump(tag_2)\n    tag_29:\n      dup1\n      0x89d7c784\n      eq\n      tag_15\n      jumpi\n      dup1\n      0x8ad257b7\n      eq\n      tag_16\n      jumpi\n      dup1\n      0x9f4216e8\n      eq\n      tag_17\n      jumpi\n      dup1\n      0xa1cb091f\n      eq\n      tag_18\n      jumpi\n      dup1\n      0xa848bf8b\n      eq\n      tag_19\n      jumpi\n      dup1\n      0xb17e8964\n      eq\n      tag_20\n      jumpi\n      jump(tag_2)\n    tag_28:\n      dup1\n      0x2c040681\n      gt\n      tag_31\n      jumpi\n      dup1\n      0x2c040681\n      eq\n      tag_9\n      jumpi\n      dup1\n      0x2cddaa86\n      eq\n      tag_10\n      jumpi\n      dup1\n      0x2e69619c\n      eq\n      tag_11\n      jumpi\n      dup1\n      0x35b9ea5b\n      eq\n      tag_12\n      jumpi\n      dup1\n      0x38f14845\n      eq\n      tag_13\n      jumpi\n      dup1\n      0x8406830a\n      eq\n      tag_14\n      jumpi\n      jump(tag_2)\n    tag_31:\n      dup1\n      0xa032f0\n      eq\n      tag_3\n      jumpi\n      dup1\n      0x02d05d3f\n      eq\n      tag_4\n      jumpi\n      dup1\n      0x04ef5b21\n      eq\n      tag_5\n      jumpi\n      dup1\n      0x0f44f0b8\n      eq\n      tag_6\n      jumpi\n      dup1\n      0x220fd618\n      eq\n      tag_7\n      jumpi\n      dup1\n      0x2bcc23f8\n      eq\n      tag_8\n      jumpi\n    tag_2:\n      0x00\n      dup1\n      revert\n        /* \"BatuFi.sol\":1404:1458  mapping(string => Notification) public notificationMap */\n    tag_3:\n      tag_32\n      0x04\n      dup1\n      calldatasize\n      sub\n      dup2\n      add\n      swap1\n      tag_33\n      swap2\n      swap1\n      tag_34\n      jump\t// in\n    tag_33:\n      tag_35\n      jump\t// in\n    tag_32:\n      mload(0x40)\n      tag_36\n      swap5\n      swap4\n      swap3\n      swap2\n      swap1\n      tag_37\n      jump\t// in\n    tag_36:\n      mload(0x40)\n      dup1\n      swap2\n      sub\n      swap1\n      return\n        /* \"BatuFi.sol\":951:973  address public creator */\n    tag_4:\n      tag_38\n      tag_39\n      jump\t// in\n    tag_38:\n      mload(0x40)\n      tag_40\n      swap2\n      swap1\n      tag_41\n      jump\t// in\n    tag_40:\n      mload(0x40)\n      dup1\n      swap2\n      sub\n      swap1\n      return\n        /* \"BatuFi.sol\":1112:1148  Transaction[] public transactionList */\n    tag_5:\n      tag_42\n      0x04\n      dup1\n      calldatasize\n      sub\n      dup2\n      add\n      swap1\n      tag_43\n      swap2\n      swap1\n      tag_44\n      jump\t// in\n    tag_43:\n      tag_45\n      jump\t// in\n    tag_42:\n      mload(0x40)\n      tag_46\n      swap12\n      swap11\n      swap10\n      swap9\n      swap8\n      swap7\n      swap6\n      swap5\n      swap4\n      swap3\n      swap2\n      swap1\n      tag_47\n      jump\t// in\n    tag_46:\n      mload(0x40)\n      dup1\n      swap2\n      sub\n      swap1\n      return\n        /* \"BatuFi.sol\":1257:1295  mapping(string => Role) public roleMap */\n    tag_6:\n      tag_48\n      0x04\n      dup1\n      calldatasize\n      sub\n      dup2\n      add\n      swap1\n      tag_49\n      swap2\n      swap1\n      tag_34\n      jump\t// in\n    tag_49:\n      tag_50\n      jump\t// in\n    tag_48:\n      mload(0x40)\n      tag_51\n      swap6\n      swap5\n      swap4\n      swap3\n      swap2\n      swap1\n      tag_52\n      jump\t// in\n    tag_51:\n      mload(0x40)\n      dup1\n      swap2\n      sub\n      swap1\n      return\n        /* \"BatuFi.sol\":12182:12290  function listTransaction() public view returns(Transaction[] memory) {... */\n    tag_7:\n      tag_53\n      tag_54\n      jump\t// in\n    tag_53:\n      mload(0x40)\n      tag_55\n      swap2\n      swap1\n      tag_56\n      jump\t// in\n    tag_55:\n      mload(0x40)\n      dup1\n      swap2\n      sub\n      swap1\n      return\n        /* \"BatuFi.sol\":1301:1340  mapping(address => User) public userMap */\n    tag_8:\n      tag_57\n      0x04\n      dup1\n      calldatasize\n      sub\n      dup2\n      add\n      swap1\n      tag_58\n      swap2\n      swap1\n      tag_59\n      jump\t// in\n    tag_58:\n      tag_60\n      jump\t// in\n    tag_57:\n      mload(0x40)\n      tag_61\n      swap8\n      swap7\n      swap6\n      swap5\n      swap4\n      swap3\n      swap2\n      swap1\n      tag_62\n      jump\t// in\n    tag_61:\n      mload(0x40)\n      dup1\n      swap2\n      sub\n      swap1\n      return\n        /* \"BatuFi.sol\":12017:12172  function listApprovals(string memory _hash) public view returns(Approval memory) {... */\n    tag_9:\n      tag_63\n      0x04\n      dup1\n      calldatasize\n      sub\n      dup2\n      add\n      swap1\n      tag_64\n      swap2\n      swap1\n      tag_34\n      jump\t// in\n    tag_64:\n      tag_65\n      jump\t// in\n    tag_63:\n      mload(0x40)\n      tag_66\n      swap2\n      swap1\n      tag_67\n      jump\t// in\n    tag_66:\n      mload(0x40)\n      dup1\n      swap2\n      sub\n      swap1\n      return\n        /* \"BatuFi.sol\":2343:2433  function authCreator() public view creatorOnly returns (bool) {... */\n    tag_10:\n      tag_68\n      tag_69\n      jump\t// in\n    tag_68:\n      mload(0x40)\n      tag_70\n      swap2\n      swap1\n      tag_71\n      jump\t// in\n    tag_70:\n      mload(0x40)\n      dup1\n      swap2\n      sub\n      swap1\n      return\n        /* \"BatuFi.sol\":9647:11691  function approveTransaction(string memory _hash) public returns(uint) {... */\n    tag_11:\n      tag_72\n      0x04\n      dup1\n      calldatasize\n      sub\n      dup2\n      add\n      swap1\n      tag_73\n      swap2\n      swap1\n      tag_34\n      jump\t// in\n    tag_73:\n      tag_74\n      jump\t// in\n    tag_72:\n      mload(0x40)\n      tag_75\n      swap2\n      swap1\n      tag_76\n      jump\t// in\n    tag_75:\n      mload(0x40)\n      dup1\n      swap2\n      sub\n      swap1\n      return\n        /* \"BatuFi.sol\":1154:1192  Notification[] public notificationList */\n    tag_12:\n      tag_77\n      0x04\n      dup1\n      calldatasize\n      sub\n      dup2\n      add\n      swap1\n      tag_78\n      swap2\n      swap1\n      tag_44\n      jump\t// in\n    tag_78:\n      tag_79\n      jump\t// in\n    tag_77:\n      mload(0x40)\n      tag_80\n      swap5\n      swap4\n      swap3\n      swap2\n      swap1\n      tag_37\n      jump\t// in\n    tag_80:\n      mload(0x40)\n      dup1\n      swap2\n      sub\n      swap1\n      return\n        /* \"BatuFi.sol\":5920:6003  function deleteUser(uint256 number) public {... */\n    tag_13:\n      tag_81\n      0x04\n      dup1\n      calldatasize\n      sub\n      dup2\n      add\n      swap1\n      tag_82\n      swap2\n      swap1\n      tag_44\n      jump\t// in\n    tag_82:\n      tag_83\n      jump\t// in\n    tag_81:\n      stop\n        /* \"BatuFi.sol\":11697:12007  function declineTransaction(string memory _hash) public returns(uint) {... */\n    tag_14:\n      tag_84\n      0x04\n      dup1\n      calldatasize\n      sub\n      dup2\n      add\n      swap1\n      tag_85\n      swap2\n      swap1\n      tag_34\n      jump\t// in\n    tag_85:\n      tag_86\n      jump\t// in\n    tag_84:\n      mload(0x40)\n      tag_87\n      swap2\n      swap1\n      tag_76\n      jump\t// in\n    tag_87:\n      mload(0x40)\n      dup1\n      swap2\n      sub\n      swap1\n      return\n        /* \"BatuFi.sol\":2245:2333  function authMember() public view memberOnly returns (bool) {... */\n    tag_15:\n      tag_88\n      tag_89\n      jump\t// in\n    tag_88:\n      mload(0x40)\n      tag_90\n      swap2\n      swap1\n      tag_71\n      jump\t// in\n    tag_90:\n      mload(0x40)\n      dup1\n      swap2\n      sub\n      swap1\n      return\n        /* \"BatuFi.sol\":12417:12508  function listUsers() public view returns(address[] memory) {... */\n    tag_16:\n      tag_91\n      tag_92\n      jump\t// in\n    tag_91:\n      mload(0x40)\n      tag_93\n      swap2\n      swap1\n      tag_94\n      jump\t// in\n    tag_93:\n      mload(0x40)\n      dup1\n      swap2\n      sub\n      swap1\n      return\n        /* \"BatuFi.sol\":1226:1251  address[] public userList */\n    tag_17:\n      tag_95\n      0x04\n      dup1\n      calldatasize\n      sub\n      dup2\n      add\n      swap1\n      tag_96\n      swap2\n      swap1\n      tag_44\n      jump\t// in\n    tag_96:\n      tag_97\n      jump\t// in\n    tag_95:\n      mload(0x40)\n      tag_98\n      swap2\n      swap1\n      tag_41\n      jump\t// in\n    tag_98:\n      mload(0x40)\n      dup1\n      swap2\n      sub\n      swap1\n      return\n        /* \"BatuFi.sol\":2818:3149  function createRole(string memory _role, string memory _name, uint256 _maxAmount, uint256 _minAmount) public {... */\n    tag_18:\n      tag_99\n      0x04\n      dup1\n      calldatasize\n      sub\n      dup2\n      add\n      swap1\n      tag_100\n      swap2\n      swap1\n      tag_101\n      jump\t// in\n    tag_100:\n      tag_102\n      jump\t// in\n    tag_99:\n      stop\n        /* \"BatuFi.sol\":1464:1510  mapping(string => Approval) public approvalMap */\n    tag_19:\n      tag_103\n      0x04\n      dup1\n      calldatasize\n      sub\n      dup2\n      add\n      swap1\n      tag_104\n      swap2\n      swap1\n      tag_34\n      jump\t// in\n    tag_104:\n      tag_105\n      jump\t// in\n    tag_103:\n      mload(0x40)\n      tag_106\n      swap2\n      swap1\n      tag_107\n      jump\t// in\n    tag_106:\n      mload(0x40)\n      dup1\n      swap2\n      sub\n      swap1\n      return\n        /* \"BatuFi.sol\":2480:2736  function createUser(string memory _role, address _id, string memory _name) public {... */\n    tag_20:\n      tag_108\n      0x04\n      dup1\n      calldatasize\n      sub\n      dup2\n      add\n      swap1\n      tag_109\n      swap2\n      swap1\n      tag_110\n      jump\t// in\n    tag_109:\n      tag_111\n      jump\t// in\n    tag_108:\n      stop\n        /* \"BatuFi.sol\":979:1005  address public transaction */\n    tag_21:\n      tag_112\n      tag_113\n      jump\t// in\n    tag_112:\n      mload(0x40)\n      tag_114\n      swap2\n      swap1\n      tag_41\n      jump\t// in\n    tag_114:\n      mload(0x40)\n      dup1\n      swap2\n      sub\n      swap1\n      return\n        /* \"BatuFi.sol\":1346:1398  mapping(string => Transaction) public transactionMap */\n    tag_22:\n      tag_115\n      0x04\n      dup1\n      calldatasize\n      sub\n      dup2\n      add\n      swap1\n      tag_116\n      swap2\n      swap1\n      tag_34\n      jump\t// in\n    tag_116:\n      tag_117\n      jump\t// in\n    tag_115:\n      mload(0x40)\n      tag_118\n      swap12\n      swap11\n      swap10\n      swap9\n      swap8\n      swap7\n      swap6\n      swap5\n      swap4\n      swap3\n      swap2\n      swap1\n      tag_47\n      jump\t// in\n    tag_118:\n      mload(0x40)\n      dup1\n      swap2\n      sub\n      swap1\n      return\n        /* \"BatuFi.sol\":12296:12407  function listNotification() public view returns(Notification[] memory) {... */\n    tag_23:\n      tag_119\n      tag_120\n      jump\t// in\n    tag_119:\n      mload(0x40)\n      tag_121\n      swap2\n      swap1\n      tag_122\n      jump\t// in\n    tag_121:\n      mload(0x40)\n      dup1\n      swap2\n      sub\n      swap1\n      return\n        /* \"BatuFi.sol\":3218:5875  function validateTxDuration(string memory _docHash) public returns(uint) {... */\n    tag_24:\n      tag_123\n      0x04\n      dup1\n      calldatasize\n      sub\n      dup2\n      add\n      swap1\n      tag_124\n      swap2\n      swap1\n      tag_34\n      jump\t// in\n    tag_124:\n      tag_125\n      jump\t// in\n    tag_123:\n      mload(0x40)\n      tag_126\n      swap2\n      swap1\n      tag_76\n      jump\t// in\n    tag_126:\n      mload(0x40)\n      dup1\n      swap2\n      sub\n      swap1\n      return\n        /* \"BatuFi.sol\":8199:9598  function createTransaction(string memory _id, string memory _hash, string memory _url, string memory _comment, uint256 _amount) public memberOnly {... */\n    tag_25:\n      tag_127\n      0x04\n      dup1\n      calldatasize\n      sub\n      dup2\n      add\n      swap1\n      tag_128\n      swap2\n      swap1\n      tag_129\n      jump\t// in\n    tag_128:\n      tag_130\n      jump\t// in\n    tag_127:\n      stop\n        /* \"BatuFi.sol\":1198:1220  Role[] public roleList */\n    tag_26:\n      tag_131\n      0x04\n      dup1\n      calldatasize\n      sub\n      dup2\n      add\n      swap1\n      tag_132\n      swap2\n      swap1\n      tag_44\n      jump\t// in\n    tag_132:\n      tag_133\n      jump\t// in\n    tag_131:\n      mload(0x40)\n      tag_134\n      swap6\n      swap5\n      swap4\n      swap3\n      swap2\n      swap1\n      tag_52\n      jump\t// in\n    tag_134:\n      mload(0x40)\n      dup1\n      swap2\n      sub\n      swap1\n      return\n        /* \"BatuFi.sol\":12518:12606  function listRoles() public view returns(Role[] memory) {... */\n    tag_27:\n      tag_135\n      tag_136\n      jump\t// in\n    tag_135:\n      mload(0x40)\n      tag_137\n      swap2\n      swap1\n      tag_138\n      jump\t// in\n    tag_137:\n      mload(0x40)\n      dup1\n      swap2\n      sub\n      swap1\n      return\n        /* \"BatuFi.sol\":1404:1458  mapping(string => Notification) public notificationMap */\n    tag_35:\n      0x0d\n      dup2\n      dup1\n      mload\n      0x20\n      dup2\n      add\n      dup3\n      add\n      dup1\n      mload\n      dup5\n      dup3\n      mstore\n      0x20\n      dup4\n      add\n      0x20\n      dup6\n      add\n      keccak256\n      dup2\n      dup4\n      mstore\n      dup1\n      swap6\n      pop\n      pop\n      pop\n      pop\n      pop\n      pop\n      0x00\n      swap2\n      pop\n      swap1\n      pop\n      dup1\n      0x00\n      add\n      dup1\n      sload\n      tag_139\n      swap1\n      tag_140\n      jump\t// in\n    tag_139:\n      dup1\n      0x1f\n      add\n      0x20\n      dup1\n      swap2\n      div\n      mul\n      0x20\n      add\n      mload(0x40)\n      swap1\n      dup2\n      add\n      0x40\n      mstore\n      dup1\n      swap3\n      swap2\n      swap1\n      dup2\n      dup2\n      mstore\n      0x20\n      add\n      dup3\n      dup1\n      sload\n      tag_141\n      swap1\n      tag_140\n      jump\t// in\n    tag_141:\n      dup1\n      iszero\n      tag_142\n      jumpi\n      dup1\n      0x1f\n      lt\n      tag_143\n      jumpi\n      0x0100\n      dup1\n      dup4\n      sload\n      div\n      mul\n      dup4\n      mstore\n      swap2\n      0x20\n      add\n      swap2\n      jump(tag_142)\n    tag_143:\n      dup3\n      add\n      swap2\n      swap1\n      0x00\n      mstore\n      keccak256(0x00, 0x20)\n      swap1\n    tag_144:\n      dup2\n      sload\n      dup2\n      mstore\n      swap1\n      0x01\n      add\n      swap1\n      0x20\n      add\n      dup1\n      dup4\n      gt\n      tag_144\n      jumpi\n      dup3\n      swap1\n      sub\n      0x1f\n      and\n      dup3\n      add\n      swap2\n    tag_142:\n      pop\n      pop\n      pop\n      pop\n      pop\n      swap1\n      dup1\n      0x01\n      add\n      dup1\n      sload\n      tag_145\n      swap1\n      tag_140\n      jump\t// in\n    tag_145:\n      dup1\n      0x1f\n      add\n      0x20\n      dup1\n      swap2\n      div\n      mul\n      0x20\n      add\n      mload(0x40)\n      swap1\n      dup2\n      add\n      0x40\n      mstore\n      dup1\n      swap3\n      swap2\n      swap1\n      dup2\n      dup2\n      mstore\n      0x20\n      add\n      dup3\n      dup1\n      sload\n      tag_146\n      swap1\n      tag_140\n      jump\t// in\n    tag_146:\n      dup1\n      iszero\n      tag_147\n      jumpi\n      dup1\n      0x1f\n      lt\n      tag_148\n      jumpi\n      0x0100\n      dup1\n      dup4\n      sload\n      div\n      mul\n      dup4\n      mstore\n      swap2\n      0x20\n      add\n      swap2\n      jump(tag_147)\n    tag_148:\n      dup3\n      add\n      swap2\n      swap1\n      0x00\n      mstore\n      keccak256(0x00, 0x20)\n      swap1\n    tag_149:\n      dup2\n      sload\n      dup2\n      mstore\n      swap1\n      0x01\n      add\n      swap1\n      0x20\n      add\n      dup1\n      dup4\n      gt\n      tag_149\n      jumpi\n      dup3\n      swap1\n      sub\n      0x1f\n      and\n      dup3\n      add\n      swap2\n    tag_147:\n      pop\n      pop\n      pop\n      pop\n      pop\n      swap1\n      dup1\n      0x02\n      add\n      dup1\n      sload\n      tag_150\n      swap1\n      tag_140\n      jump\t// in\n    tag_150:\n      dup1\n      0x1f\n      add\n      0x20\n      dup1\n      swap2\n      div\n      mul\n      0x20\n      add\n      mload(0x40)\n      swap1\n      dup2\n      add\n      0x40\n      mstore\n      dup1\n      swap3\n      swap2\n      swap1\n      dup2\n      dup2\n      mstore\n      0x20\n      add\n      dup3\n      dup1\n      sload\n      tag_151\n      swap1\n      tag_140\n      jump\t// in\n    tag_151:\n      dup1\n      iszero\n      tag_152\n      jumpi\n      dup1\n      0x1f\n      lt\n      tag_153\n      jumpi\n      0x0100\n      dup1\n      dup4\n      sload\n      div\n      mul\n      dup4\n      mstore\n      swap2\n      0x20\n      add\n      swap2\n      jump(tag_152)\n    tag_153:\n      dup3\n      add\n      swap2\n      swap1\n      0x00\n      mstore\n      keccak256(0x00, 0x20)\n      swap1\n    tag_154:\n      dup2\n      sload\n      dup2\n      mstore\n      swap1\n      0x01\n      add\n      swap1\n      0x20\n      add\n      dup1\n      dup4\n      gt\n      tag_154\n      jumpi\n      dup3\n      swap1\n      sub\n      0x1f\n      and\n      dup3\n      add\n      swap2\n    tag_152:\n      pop\n      pop\n      pop\n      pop\n      pop\n      swap1\n      dup1\n      0x03\n      add\n      dup1\n      sload\n      tag_155\n      swap1\n      tag_140\n      jump\t// in\n    tag_155:\n      dup1\n      0x1f\n      add\n      0x20\n      dup1\n      swap2\n      div\n      mul\n      0x20\n      add\n      mload(0x40)\n      swap1\n      dup2\n      add\n      0x40\n      mstore\n      dup1\n      swap3\n      swap2\n      swap1\n      dup2\n      dup2\n      mstore\n      0x20\n      add\n      dup3\n      dup1\n      sload\n      tag_156\n      swap1\n      tag_140\n      jump\t// in\n    tag_156:\n      dup1\n      iszero\n      tag_157\n      jumpi\n      dup1\n      0x1f\n      lt\n      tag_158\n      jumpi\n      0x0100\n      dup1\n      dup4\n      sload\n      div\n      mul\n      dup4\n      mstore\n      swap2\n      0x20\n      add\n      swap2\n      jump(tag_157)\n    tag_158:\n      dup3\n      add\n      swap2\n      swap1\n      0x00\n      mstore\n      keccak256(0x00, 0x20)\n      swap1\n    tag_159:\n      dup2\n      sload\n      dup2\n      mstore\n      swap1\n      0x01\n      add\n      swap1\n      0x20\n      add\n      dup1\n      dup4\n      gt\n      tag_159\n      jumpi\n      dup3\n      swap1\n      sub\n      0x1f\n      and\n      dup3\n      add\n      swap2\n    tag_157:\n      pop\n      pop\n      pop\n      pop\n      pop\n      swap1\n      pop\n      dup5\n      jump\t// out\n        /* \"BatuFi.sol\":951:973  address public creator */\n    tag_39:\n      0x00\n      dup1\n      sload\n      swap1\n      0x0100\n      exp\n      swap1\n      div\n      0xffffffffffffffffffffffffffffffffffffffff\n      and\n      dup2\n      jump\t// out\n        /* \"BatuFi.sol\":1112:1148  Transaction[] public transactionList */\n    tag_45:\n      0x06\n      dup2\n      dup2\n      sload\n      dup2\n      lt\n      tag_160\n      jumpi\n      0x00\n      dup1\n      revert\n    tag_160:\n      swap1\n      0x00\n      mstore\n      keccak256(0x00, 0x20)\n      swap1\n      0x0b\n      mul\n      add\n      0x00\n      swap2\n      pop\n      swap1\n      pop\n      dup1\n      0x00\n      add\n      dup1\n      sload\n      tag_162\n      swap1\n      tag_140\n      jump\t// in\n    tag_162:\n      dup1\n      0x1f\n      add\n      0x20\n      dup1\n      swap2\n      div\n      mul\n      0x20\n      add\n      mload(0x40)\n      swap1\n      dup2\n      add\n      0x40\n      mstore\n      dup1\n      swap3\n      swap2\n      swap1\n      dup2\n      dup2\n      mstore\n      0x20\n      add\n      dup3\n      dup1\n      sload\n      tag_163\n      swap1\n      tag_140\n      jump\t// in\n    tag_163:\n      dup1\n      iszero\n      tag_164\n      jumpi\n      dup1\n      0x1f\n      lt\n      tag_165\n      jumpi\n      0x0100\n      dup1\n      dup4\n      sload\n      div\n      mul\n      dup4\n      mstore\n      swap2\n      0x20\n      add\n      swap2\n      jump(tag_164)\n    tag_165:\n      dup3\n      add\n      swap2\n      swap1\n      0x00\n      mstore\n      keccak256(0x00, 0x20)\n      swap1\n    tag_166:\n      dup2\n      sload\n      dup2\n      mstore\n      swap1\n      0x01\n      add\n      swap1\n      0x20\n      add\n      dup1\n      dup4\n      gt\n      tag_166\n      jumpi\n      dup3\n      swap1\n      sub\n      0x1f\n      and\n      dup3\n      add\n      swap2\n    tag_164:\n      pop\n      pop\n      pop\n      pop\n      pop\n      swap1\n      dup1\n      0x01\n      add\n      dup1\n      sload\n      tag_167\n      swap1\n      tag_140\n      jump\t// in\n    tag_167:\n      dup1\n      0x1f\n      add\n      0x20\n      dup1\n      swap2\n      div\n      mul\n      0x20\n      add\n      mload(0x40)\n      swap1\n      dup2\n      add\n      0x40\n      mstore\n      dup1\n      swap3\n      swap2\n      swap1\n      dup2\n      dup2\n      mstore\n      0x20\n      add\n      dup3\n      dup1\n      sload\n      tag_168\n      swap1\n      tag_140\n      jump\t// in\n    tag_168:\n      dup1\n      iszero\n      tag_169\n      jumpi\n      dup1\n      0x1f\n      lt\n      tag_170\n      jumpi\n      0x0100\n      dup1\n      dup4\n      sload\n      div\n      mul\n      dup4\n      mstore\n      swap2\n      0x20\n      add\n      swap2\n      jump(tag_169)\n    tag_170:\n      dup3\n      add\n      swap2\n      swap1\n      0x00\n      mstore\n      keccak256(0x00, 0x20)\n      swap1\n    tag_171:\n      dup2\n      sload\n      dup2\n      mstore\n      swap1\n      0x01\n      add\n      swap1\n      0x20\n      add\n      dup1\n      dup4\n      gt\n      tag_171\n      jumpi\n      dup3\n      swap1\n      sub\n      0x1f\n      and\n      dup3\n      add\n      swap2\n    tag_169:\n      pop\n      pop\n      pop\n      pop\n      pop\n      swap1\n      dup1\n      0x02\n      add\n      dup1\n      sload\n      tag_172\n      swap1\n      tag_140\n      jump\t// in\n    tag_172:\n      dup1\n      0x1f\n      add\n      0x20\n      dup1\n      swap2\n      div\n      mul\n      0x20\n      add\n      mload(0x40)\n      swap1\n      dup2\n      add\n      0x40\n      mstore\n      dup1\n      swap3\n      swap2\n      swap1\n      dup2\n      dup2\n      mstore\n      0x20\n      add\n      dup3\n      dup1\n      sload\n      tag_173\n      swap1\n      tag_140\n      jump\t// in\n    tag_173:\n      dup1\n      iszero\n      tag_174\n      jumpi\n      dup1\n      0x1f\n      lt\n      tag_175\n      jumpi\n      0x0100\n      dup1\n      dup4\n      sload\n      div\n      mul\n      dup4\n      mstore\n      swap2\n      0x20\n      add\n      swap2\n      jump(tag_174)\n    tag_175:\n      dup3\n      add\n      swap2\n      swap1\n      0x00\n      mstore\n      keccak256(0x00, 0x20)\n      swap1\n    tag_176:\n      dup2\n      sload\n      dup2\n      mstore\n      swap1\n      0x01\n      add\n      swap1\n      0x20\n      add\n      dup1\n      dup4\n      gt\n      tag_176\n      jumpi\n      dup3\n      swap1\n      sub\n      0x1f\n      and\n      dup3\n      add\n      swap2\n    tag_174:\n      pop\n      pop\n      pop\n      pop\n      pop\n      swap1\n      dup1\n      0x03\n      add\n      dup1\n      sload\n      tag_177\n      swap1\n      tag_140\n      jump\t// in\n    tag_177:\n      dup1\n      0x1f\n      add\n      0x20\n      dup1\n      swap2\n      div\n      mul\n      0x20\n      add\n      mload(0x40)\n      swap1\n      dup2\n      add\n      0x40\n      mstore\n      dup1\n      swap3\n      swap2\n      swap1\n      dup2\n      dup2\n      mstore\n      0x20\n      add\n      dup3\n      dup1\n      sload\n      tag_178\n      swap1\n      tag_140\n      jump\t// in\n    tag_178:\n      dup1\n      iszero\n      tag_179\n      jumpi\n      dup1\n      0x1f\n      lt\n      tag_180\n      jumpi\n      0x0100\n      dup1\n      dup4\n      sload\n      div\n      mul\n      dup4\n      mstore\n      swap2\n      0x20\n      add\n      swap2\n      jump(tag_179)\n    tag_180:\n      dup3\n      add\n      swap2\n      swap1\n      0x00\n      mstore\n      keccak256(0x00, 0x20)\n      swap1\n    tag_181:\n      dup2\n      sload\n      dup2\n      mstore\n      swap1\n      0x01\n      add\n      swap1\n      0x20\n      add\n      dup1\n      dup4\n      gt\n      tag_181\n      jumpi\n      dup3\n      swap1\n      sub\n      0x1f\n      and\n      dup3\n      add\n      swap2\n    tag_179:\n      pop\n      pop\n      pop\n      pop\n      pop\n      swap1\n      dup1\n      0x04\n      add\n      sload\n      swap1\n      dup1\n      0x05\n      add\n      dup1\n      sload\n      tag_182\n      swap1\n      tag_140\n      jump\t// in\n    tag_182:\n      dup1\n      0x1f\n      add\n      0x20\n      dup1\n      swap2\n      div\n      mul\n      0x20\n      add\n      mload(0x40)\n      swap1\n      dup2\n      add\n      0x40\n      mstore\n      dup1\n      swap3\n      swap2\n      swap1\n      dup2\n      dup2\n      mstore\n      0x20\n      add\n      dup3\n      dup1\n      sload\n      tag_183\n      swap1\n      tag_140\n      jump\t// in\n    tag_183:\n      dup1\n      iszero\n      tag_184\n      jumpi\n      dup1\n      0x1f\n      lt\n      tag_185\n      jumpi\n      0x0100\n      dup1\n      dup4\n      sload\n      div\n      mul\n      dup4\n      mstore\n      swap2\n      0x20\n      add\n      swap2\n      jump(tag_184)\n    tag_185:\n      dup3\n      add\n      swap2\n      swap1\n      0x00\n      mstore\n      keccak256(0x00, 0x20)\n      swap1\n    tag_186:\n      dup2\n      sload\n      dup2\n      mstore\n      swap1\n      0x01\n      add\n      swap1\n      0x20\n      add\n      dup1\n      dup4\n      gt\n      tag_186\n      jumpi\n      dup3\n      swap1\n      sub\n      0x1f\n      and\n      dup3\n      add\n      swap2\n    tag_184:\n      pop\n      pop\n      pop\n      pop\n      pop\n      swap1\n      dup1\n      0x06\n      add\n      0x00\n      swap1\n      sload\n      swap1\n      0x0100\n      exp\n      swap1\n      div\n      0xffffffffffffffffffffffffffffffffffffffff\n      and\n      swap1\n      dup1\n      0x07\n      add\n      sload\n      swap1\n      dup1\n      0x08\n      add\n      dup1\n      sload\n      tag_187\n      swap1\n      tag_140\n      jump\t// in\n    tag_187:\n      dup1\n      0x1f\n      add\n      0x20\n      dup1\n      swap2\n      div\n      mul\n      0x20\n      add\n      mload(0x40)\n      swap1\n      dup2\n      add\n      0x40\n      mstore\n      dup1\n      swap3\n      swap2\n      swap1\n      dup2\n      dup2\n      mstore\n      0x20\n      add\n      dup3\n      dup1\n      sload\n      tag_188\n      swap1\n      tag_140\n      jump\t// in\n    tag_188:\n      dup1\n      iszero\n      tag_189\n      jumpi\n      dup1\n      0x1f\n      lt\n      tag_190\n      jumpi\n      0x0100\n      dup1\n      dup4\n      sload\n      div\n      mul\n      dup4\n      mstore\n      swap2\n      0x20\n      add\n      swap2\n      jump(tag_189)\n    tag_190:\n      dup3\n      add\n      swap2\n      swap1\n      0x00\n      mstore\n      keccak256(0x00, 0x20)\n      swap1\n    tag_191:\n      dup2\n      sload\n      dup2\n      mstore\n      swap1\n      0x01\n      add\n      swap1\n      0x20\n      add\n      dup1\n      dup4\n      gt\n      tag_191\n      jumpi\n      dup3\n      swap1\n      sub\n      0x1f\n      and\n      dup3\n      add\n      swap2\n    tag_189:\n      pop\n      pop\n      pop\n      pop\n      pop\n      swap1\n      dup1\n      0x09\n      add\n      dup1\n      sload\n      tag_192\n      swap1\n      tag_140\n      jump\t// in\n    tag_192:\n      dup1\n      0x1f\n      add\n      0x20\n      dup1\n      swap2\n      div\n      mul\n      0x20\n      add\n      mload(0x40)\n      swap1\n      dup2\n      add\n      0x40\n      mstore\n      dup1\n      swap3\n      swap2\n      swap1\n      dup2\n      dup2\n      mstore\n      0x20\n      add\n      dup3\n      dup1\n      sload\n      tag_193\n      swap1\n      tag_140\n      jump\t// in\n    tag_193:\n      dup1\n      iszero\n      tag_194\n      jumpi\n      dup1\n      0x1f\n      lt\n      tag_195\n      jumpi\n      0x0100\n      dup1\n      dup4\n      sload\n      div\n      mul\n      dup4\n      mstore\n      swap2\n      0x20\n      add\n      swap2\n      jump(tag_194)\n    tag_195:\n      dup3\n      add\n      swap2\n      swap1\n      0x00\n      mstore\n      keccak256(0x00, 0x20)\n      swap1\n    tag_196:\n      dup2\n      sload\n      dup2\n      mstore\n      swap1\n      0x01\n      add\n      swap1\n      0x20\n      add\n      dup1\n      dup4\n      gt\n      tag_196\n      jumpi\n      dup3\n      swap1\n      sub\n      0x1f\n      and\n      dup3\n      add\n      swap2\n    tag_194:\n      pop\n      pop\n      pop\n      pop\n      pop\n      swap1\n      dup1\n      0x0a\n      add\n      sload\n      swap1\n      pop\n      dup12\n      jump\t// out\n        /* \"BatuFi.sol\":1257:1295  mapping(string => Role) public roleMap */\n    tag_50:\n      0x0a\n      dup2\n      dup1\n      mload\n      0x20\n      dup2\n      add\n      dup3\n      add\n      dup1\n      mload\n      dup5\n      dup3\n      mstore\n      0x20\n      dup4\n      add\n      0x20\n      dup6\n      add\n      keccak256\n      dup2\n      dup4\n      mstore\n      dup1\n      swap6\n      pop\n      pop\n      pop\n      pop\n      pop\n      pop\n      0x00\n      swap2\n      pop\n      swap1\n      pop\n      dup1\n      0x00\n      add\n      sload\n      swap1\n      dup1\n      0x01\n      add\n      dup1\n      sload\n      tag_197\n      swap1\n      tag_140\n      jump\t// in\n    tag_197:\n      dup1\n      0x1f\n      add\n      0x20\n      dup1\n      swap2\n      div\n      mul\n      0x20\n      add\n      mload(0x40)\n      swap1\n      dup2\n      add\n      0x40\n      mstore\n      dup1\n      swap3\n      swap2\n      swap1\n      dup2\n      dup2\n      mstore\n      0x20\n      add\n      dup3\n      dup1\n      sload\n      tag_198\n      swap1\n      tag_140\n      jump\t// in\n    tag_198:\n      dup1\n      iszero\n      tag_199\n      jumpi\n      dup1\n      0x1f\n      lt\n      tag_200\n      jumpi\n      0x0100\n      dup1\n      dup4\n      sload\n      div\n      mul\n      dup4\n      mstore\n      swap2\n      0x20\n      add\n      swap2\n      jump(tag_199)\n    tag_200:\n      dup3\n      add\n      swap2\n      swap1\n      0x00\n      mstore\n      keccak256(0x00, 0x20)\n      swap1\n    tag_201:\n      dup2\n      sload\n      dup2\n      mstore\n      swap1\n      0x01\n      add\n      swap1\n      0x20\n      add\n      dup1\n      dup4\n      gt\n      tag_201\n      jumpi\n      dup3\n      swap1\n      sub\n      0x1f\n      and\n      dup3\n      add\n      swap2\n    tag_199:\n      pop\n      pop\n      pop\n      pop\n      pop\n      swap1\n      dup1\n      0x02\n      add\n      dup1\n      sload\n      tag_202\n      swap1\n      tag_140\n      jump\t// in\n    tag_202:\n      dup1\n      0x1f\n      add\n      0x20\n      dup1\n      swap2\n      div\n      mul\n      0x20\n      add\n      mload(0x40)\n      swap1\n      dup2\n      add\n      0x40\n      mstore\n      dup1\n      swap3\n      swap2\n      swap1\n      dup2\n      dup2\n      mstore\n      0x20\n      add\n      dup3\n      dup1\n      sload\n      tag_203\n      swap1\n      tag_140\n      jump\t// in\n    tag_203:\n      dup1\n      iszero\n      tag_204\n      jumpi\n      dup1\n      0x1f\n      lt\n      tag_205\n      jumpi\n      0x0100\n      dup1\n      dup4\n      sload\n      div\n      mul\n      dup4\n      mstore\n      swap2\n      0x20\n      add\n      swap2\n      jump(tag_204)\n    tag_205:\n      dup3\n      add\n      swap2\n      swap1\n      0x00\n      mstore\n      keccak256(0x00, 0x20)\n      swap1\n    tag_206:\n      dup2\n      sload\n      dup2\n      mstore\n      swap1\n      0x01\n      add\n      swap1\n      0x20\n      add\n      dup1\n      dup4\n      gt\n      tag_206\n      jumpi\n      dup3\n      swap1\n      sub\n      0x1f\n      and\n      dup3\n      add\n      swap2\n    tag_204:\n      pop\n      pop\n      pop\n      pop\n      pop\n      swap1\n      dup1\n      0x03\n      add\n      sload\n      swap1\n      dup1\n      0x04\n      add\n      sload\n      swap1\n      pop\n      dup6\n      jump\t// out\n        /* \"BatuFi.sol\":12182:12290  function listTransaction() public view returns(Transaction[] memory) {... */\n    tag_54:\n        /* \"BatuFi.sol\":12229:12249  Transaction[] memory */\n      0x60\n        /* \"BatuFi.sol\":12268:12283  transactionList */\n      0x06\n        /* \"BatuFi.sol\":12261:12283  return transactionList */\n      dup1\n      sload\n      dup1\n      0x20\n      mul\n      0x20\n      add\n      mload(0x40)\n      swap1\n      dup2\n      add\n      0x40\n      mstore\n      dup1\n      swap3\n      swap2\n      swap1\n      dup2\n      dup2\n      mstore\n      0x20\n      add\n      0x00\n      swap1\n    tag_208:\n      dup3\n      dup3\n      lt\n      iszero\n      tag_209\n      jumpi\n      dup4\n      dup3\n      swap1\n      0x00\n      mstore\n      keccak256(0x00, 0x20)\n      swap1\n      0x0b\n      mul\n      add\n      mload(0x40)\n      dup1\n      0x0160\n      add\n      0x40\n      mstore\n      swap1\n      dup2\n      0x00\n      dup3\n      add\n      dup1\n      sload\n      tag_211\n      swap1\n      tag_140\n      jump\t// in\n    tag_211:\n      dup1\n      0x1f\n      add\n      0x20\n      dup1\n      swap2\n      div\n      mul\n      0x20\n      add\n      mload(0x40)\n      swap1\n      dup2\n      add\n      0x40\n      mstore\n      dup1\n      swap3\n      swap2\n      swap1\n      dup2\n      dup2\n      mstore\n      0x20\n      add\n      dup3\n      dup1\n      sload\n      tag_212\n      swap1\n      tag_140\n      jump\t// in\n    tag_212:\n      dup1\n      iszero\n      tag_213\n      jumpi\n      dup1\n      0x1f\n      lt\n      tag_214\n      jumpi\n      0x0100\n      dup1\n      dup4\n      sload\n      div\n      mul\n      dup4\n      mstore\n      swap2\n      0x20\n      add\n      swap2\n      jump(tag_213)\n    tag_214:\n      dup3\n      add\n      swap2\n      swap1\n      0x00\n      mstore\n      keccak256(0x00, 0x20)\n      swap1\n    tag_215:\n      dup2\n      sload\n      dup2\n      mstore\n      swap1\n      0x01\n      add\n      swap1\n      0x20\n      add\n      dup1\n      dup4\n      gt\n      tag_215\n      jumpi\n      dup3\n      swap1\n      sub\n      0x1f\n      and\n      dup3\n      add\n      swap2\n    tag_213:\n      pop\n      pop\n      pop\n      pop\n      pop\n      dup2\n      mstore\n      0x20\n      add\n      0x01\n      dup3\n      add\n      dup1\n      sload\n      tag_216\n      swap1\n      tag_140\n      jump\t// in\n    tag_216:\n      dup1\n      0x1f\n      add\n      0x20\n      dup1\n      swap2\n      div\n      mul\n      0x20\n      add\n      mload(0x40)\n      swap1\n      dup2\n      add\n      0x40\n      mstore\n      dup1\n      swap3\n      swap2\n      swap1\n      dup2\n      dup2\n      mstore\n      0x20\n      add\n      dup3\n      dup1\n      sload\n      tag_217\n      swap1\n      tag_140\n      jump\t// in\n    tag_217:\n      dup1\n      iszero\n      tag_218\n      jumpi\n      dup1\n      0x1f\n      lt\n      tag_219\n      jumpi\n      0x0100\n      dup1\n      dup4\n      sload\n      div\n      mul\n      dup4\n      mstore\n      swap2\n      0x20\n      add\n      swap2\n      jump(tag_218)\n    tag_219:\n      dup3\n      add\n      swap2\n      swap1\n      0x00\n      mstore\n      keccak256(0x00, 0x20)\n      swap1\n    tag_220:\n      dup2\n      sload\n      dup2\n      mstore\n      swap1\n      0x01\n      add\n      swap1\n      0x20\n      add\n      dup1\n      dup4\n      gt\n      tag_220\n      jumpi\n      dup3\n      swap1\n      sub\n      0x1f\n      and\n      dup3\n      add\n      swap2\n    tag_218:\n      pop\n      pop\n      pop\n      pop\n      pop\n      dup2\n      mstore\n      0x20\n      add\n      0x02\n      dup3\n      add\n      dup1\n      sload\n      tag_221\n      swap1\n      tag_140\n      jump\t// in\n    tag_221:\n      dup1\n      0x1f\n      add\n      0x20\n      dup1\n      swap2\n      div\n      mul\n      0x20\n      add\n      mload(0x40)\n      swap1\n      dup2\n      add\n      0x40\n      mstore\n      dup1\n      swap3\n      swap2\n      swap1\n      dup2\n      dup2\n      mstore\n      0x20\n      add\n      dup3\n      dup1\n      sload\n      tag_222\n      swap1\n      tag_140\n      jump\t// in\n    tag_222:\n      dup1\n      iszero\n      tag_223\n      jumpi\n      dup1\n      0x1f\n      lt\n      tag_224\n      jumpi\n      0x0100\n      dup1\n      dup4\n      sload\n      div\n      mul\n      dup4\n      mstore\n      swap2\n      0x20\n      add\n      swap2\n      jump(tag_223)\n    tag_224:\n      dup3\n      add\n      swap2\n      swap1\n      0x00\n      mstore\n      keccak256(0x00, 0x20)\n      swap1\n    tag_225:\n      dup2\n      sload\n      dup2\n      mstore\n      swap1\n      0x01\n      add\n      swap1\n      0x20\n      add\n      dup1\n      dup4\n      gt\n      tag_225\n      jumpi\n      dup3\n      swap1\n      sub\n      0x1f\n      and\n      dup3\n      add\n      swap2\n    tag_223:\n      pop\n      pop\n      pop\n      pop\n      pop\n      dup2\n      mstore\n      0x20\n      add\n      0x03\n      dup3\n      add\n      dup1\n      sload\n      tag_226\n      swap1\n      tag_140\n      jump\t// in\n    tag_226:\n      dup1\n      0x1f\n      add\n      0x20\n      dup1\n      swap2\n      div\n      mul\n      0x20\n      add\n      mload(0x40)\n      swap1\n      dup2\n      add\n      0x40\n      mstore\n      dup1\n      swap3\n      swap2\n      swap1\n      dup2\n      dup2\n      mstore\n      0x20\n      add\n      dup3\n      dup1\n      sload\n      tag_227\n      swap1\n      tag_140\n      jump\t// in\n    tag_227:\n      dup1\n      iszero\n      tag_228\n      jumpi\n      dup1\n      0x1f\n      lt\n      tag_229\n      jumpi\n      0x0100\n      dup1\n      dup4\n      sload\n      div\n      mul\n      dup4\n      mstore\n      swap2\n      0x20\n      add\n      swap2\n      jump(tag_228)\n    tag_229:\n      dup3\n      add\n      swap2\n      swap1\n      0x00\n      mstore\n      keccak256(0x00, 0x20)\n      swap1\n    tag_230:\n      dup2\n      sload\n      dup2\n      mstore\n      swap1\n      0x01\n      add\n      swap1\n      0x20\n      add\n      dup1\n      dup4\n      gt\n      tag_230\n      jumpi\n      dup3\n      swap1\n      sub\n      0x1f\n      and\n      dup3\n      add\n      swap2\n    tag_228:\n      pop\n      pop\n      pop\n      pop\n      pop\n      dup2\n      mstore\n      0x20\n      add\n      0x04\n      dup3\n      add\n      sload\n      dup2\n      mstore\n      0x20\n      add\n      0x05\n      dup3\n      add\n      dup1\n      sload\n      tag_231\n      swap1\n      tag_140\n      jump\t// in\n    tag_231:\n      dup1\n      0x1f\n      add\n      0x20\n      dup1\n      swap2\n      div\n      mul\n      0x20\n      add\n      mload(0x40)\n      swap1\n      dup2\n      add\n      0x40\n      mstore\n      dup1\n      swap3\n      swap2\n      swap1\n      dup2\n      dup2\n      mstore\n      0x20\n      add\n      dup3\n      dup1\n      sload\n      tag_232\n      swap1\n      tag_140\n      jump\t// in\n    tag_232:\n      dup1\n      iszero\n      tag_233\n      jumpi\n      dup1\n      0x1f\n      lt\n      tag_234\n      jumpi\n      0x0100\n      dup1\n      dup4\n      sload\n      div\n      mul\n      dup4\n      mstore\n      swap2\n      0x20\n      add\n      swap2\n      jump(tag_233)\n    tag_234:\n      dup3\n      add\n      swap2\n      swap1\n      0x00\n      mstore\n      keccak256(0x00, 0x20)\n      swap1\n    tag_235:\n      dup2\n      sload\n      dup2\n      mstore\n      swap1\n      0x01\n      add\n      swap1\n      0x20\n      add\n      dup1\n      dup4\n      gt\n      tag_235\n      jumpi\n      dup3\n      swap1\n      sub\n      0x1f\n      and\n      dup3\n      add\n      swap2\n    tag_233:\n      pop\n      pop\n      pop\n      pop\n      pop\n      dup2\n      mstore\n      0x20\n      add\n      0x06\n      dup3\n      add\n      0x00\n      swap1\n      sload\n      swap1\n      0x0100\n      exp\n      swap1\n      div\n      0xffffffffffffffffffffffffffffffffffffffff\n      and\n      0xffffffffffffffffffffffffffffffffffffffff\n      and\n      0xffffffffffffffffffffffffffffffffffffffff\n      and\n      dup2\n      mstore\n      0x20\n      add\n      0x07\n      dup3\n      add\n      sload\n      dup2\n      mstore\n      0x20\n      add\n      0x08\n      dup3\n      add\n      dup1\n      sload\n      tag_236\n      swap1\n      tag_140\n      jump\t// in\n    tag_236:\n      dup1\n      0x1f\n      add\n      0x20\n      dup1\n      swap2\n      div\n      mul\n      0x20\n      add\n      mload(0x40)\n      swap1\n      dup2\n      add\n      0x40\n      mstore\n      dup1\n      swap3\n      swap2\n      swap1\n      dup2\n      dup2\n      mstore\n      0x20\n      add\n      dup3\n      dup1\n      sload\n      tag_237\n      swap1\n      tag_140\n      jump\t// in\n    tag_237:\n      dup1\n      iszero\n      tag_238\n      jumpi\n      dup1\n      0x1f\n      lt\n      tag_239\n      jumpi\n      0x0100\n      dup1\n      dup4\n      sload\n      div\n      mul\n      dup4\n      mstore\n      swap2\n      0x20\n      add\n      swap2\n      jump(tag_238)\n    tag_239:\n      dup3\n      add\n      swap2\n      swap1\n      0x00\n      mstore\n      keccak256(0x00, 0x20)\n      swap1\n    tag_240:\n      dup2\n      sload\n      dup2\n      mstore\n      swap1\n      0x01\n      add\n      swap1\n      0x20\n      add\n      dup1\n      dup4\n      gt\n      tag_240\n      jumpi\n      dup3\n      swap1\n      sub\n      0x1f\n      and\n      dup3\n      add\n      swap2\n    tag_238:\n      pop\n      pop\n      pop\n      pop\n      pop\n      dup2\n      mstore\n      0x20\n      add\n      0x09\n      dup3\n      add\n      dup1\n      sload\n      tag_241\n      swap1\n      tag_140\n      jump\t// in\n    tag_241:\n      dup1\n      0x1f\n      add\n      0x20\n      dup1\n      swap2\n      div\n      mul\n      0x20\n      add\n      mload(0x40)\n      swap1\n      dup2\n      add\n      0x40\n      mstore\n      dup1\n      swap3\n      swap2\n      swap1\n      dup2\n      dup2\n      mstore\n      0x20\n      add\n      dup3\n      dup1\n      sload\n      tag_242\n      swap1\n      tag_140\n      jump\t// in\n    tag_242:\n      dup1\n      iszero\n      tag_243\n      jumpi\n      dup1\n      0x1f\n      lt\n      tag_244\n      jumpi\n      0x0100\n      dup1\n      dup4\n      sload\n      div\n      mul\n      dup4\n      mstore\n      swap2\n      0x20\n      add\n      swap2\n      jump(tag_243)\n    tag_244:\n      dup3\n      add\n      swap2\n      swap1\n      0x00\n      mstore\n      keccak256(0x00, 0x20)\n      swap1\n    tag_245:\n      dup2\n      sload\n      dup2\n      mstore\n      swap1\n      0x01\n      add\n      swap1\n      0x20\n      add\n      dup1\n      dup4\n      gt\n      tag_245\n      jumpi\n      dup3\n      swap1\n      sub\n      0x1f\n      and\n      dup3\n      add\n      swap2\n    tag_243:\n      pop\n      pop\n      pop\n      pop\n      pop\n      dup2\n      mstore\n      0x20\n      add\n      0x0a\n      dup3\n      add\n      sload\n      dup2\n      mstore\n      pop\n      pop\n      dup2\n      mstore\n      0x20\n      add\n      swap1\n      0x01\n      add\n      swap1\n      jump(tag_208)\n    tag_209:\n      pop\n      pop\n      pop\n      pop\n      swap1\n      pop\n        /* \"BatuFi.sol\":12182:12290  function listTransaction() public view returns(Transaction[] memory) {... */\n      swap1\n      jump\t// out\n        /* \"BatuFi.sol\":1301:1340  mapping(address => User) public userMap */\n    tag_60:\n      mstore(0x20, 0x0b)\n      dup1\n      0x00\n      mstore\n      keccak256(0x00, 0x40)\n      0x00\n      swap2\n      pop\n      swap1\n      pop\n      dup1\n      0x00\n      add\n      dup1\n      sload\n      tag_246\n      swap1\n      tag_140\n      jump\t// in\n    tag_246:\n      dup1\n      0x1f\n      add\n      0x20\n      dup1\n      swap2\n      div\n      mul\n      0x20\n      add\n      mload(0x40)\n      swap1\n      dup2\n      add\n      0x40\n      mstore\n      dup1\n      swap3\n      swap2\n      swap1\n      dup2\n      dup2\n      mstore\n      0x20\n      add\n      dup3\n      dup1\n      sload\n      tag_247\n      swap1\n      tag_140\n      jump\t// in\n    tag_247:\n      dup1\n      iszero\n      tag_248\n      jumpi\n      dup1\n      0x1f\n      lt\n      tag_249\n      jumpi\n      0x0100\n      dup1\n      dup4\n      sload\n      div\n      mul\n      dup4\n      mstore\n      swap2\n      0x20\n      add\n      swap2\n      jump(tag_248)\n    tag_249:\n      dup3\n      add\n      swap2\n      swap1\n      0x00\n      mstore\n      keccak256(0x00, 0x20)\n      swap1\n    tag_250:\n      dup2\n      sload\n      dup2\n      mstore\n      swap1\n      0x01\n      add\n      swap1\n      0x20\n      add\n      dup1\n      dup4\n      gt\n      tag_250\n      jumpi\n      dup3\n      swap1\n      sub\n      0x1f\n      and\n      dup3\n      add\n      swap2\n    tag_248:\n      pop\n      pop\n      pop\n      pop\n      pop\n      swap1\n      dup1\n      0x01\n      add\n      dup1\n      sload\n      tag_251\n      swap1\n      tag_140\n      jump\t// in\n    tag_251:\n      dup1\n      0x1f\n      add\n      0x20\n      dup1\n      swap2\n      div\n      mul\n      0x20\n      add\n      mload(0x40)\n      swap1\n      dup2\n      add\n      0x40\n      mstore\n      dup1\n      swap3\n      swap2\n      swap1\n      dup2\n      dup2\n      mstore\n      0x20\n      add\n      dup3\n      dup1\n      sload\n      tag_252\n      swap1\n      tag_140\n      jump\t// in\n    tag_252:\n      dup1\n      iszero\n      tag_253\n      jumpi\n      dup1\n      0x1f\n      lt\n      tag_254\n      jumpi\n      0x0100\n      dup1\n      dup4\n      sload\n      div\n      mul\n      dup4\n      mstore\n      swap2\n      0x20\n      add\n      swap2\n      jump(tag_253)\n    tag_254:\n      dup3\n      add\n      swap2\n      swap1\n      0x00\n      mstore\n      keccak256(0x00, 0x20)\n      swap1\n    tag_255:\n      dup2\n      sload\n      dup2\n      mstore\n      swap1\n      0x01\n      add\n      swap1\n      0x20\n      add\n      dup1\n      dup4\n      gt\n      tag_255\n      jumpi\n      dup3\n      swap1\n      sub\n      0x1f\n      and\n      dup3\n      add\n      swap2\n    tag_253:\n      pop\n      pop\n      pop\n      pop\n      pop\n      swap1\n      dup1\n      0x02\n      add\n      0x00\n      swap1\n      sload\n      swap1\n      0x0100\n      exp\n      swap1\n      div\n      0xffffffffffffffffffffffffffffffffffffffff\n      and\n      swap1\n      dup1\n      0x03\n      add\n      sload\n      swap1\n      dup1\n      0x04\n      add\n      sload\n      swap1\n      dup1\n      0x05\n      add\n      sload\n      swap1\n      dup1\n      0x06\n      add\n      sload\n      swap1\n      pop\n      dup8\n      jump\t// out\n        /* \"BatuFi.sol\":12017:12172  function listApprovals(string memory _hash) public view returns(Approval memory) {... */\n    tag_65:\n        /* \"BatuFi.sol\":12081:12096  Approval memory */\n      tag_256\n      tag_257\n      jump\t// in\n    tag_256:\n        /* \"BatuFi.sol\":12108:12126  Approval storage a */\n      0x00\n        /* \"BatuFi.sol\":12129:12140  approvalMap */\n      0x0e\n        /* \"BatuFi.sol\":12141:12146  _hash */\n      dup4\n        /* \"BatuFi.sol\":12129:12147  approvalMap[_hash] */\n      mload(0x40)\n      tag_259\n      swap2\n      swap1\n      tag_260\n      jump\t// in\n    tag_259:\n      swap1\n      dup2\n      mstore\n      0x20\n      add\n      mload(0x40)\n      dup1\n      swap2\n      sub\n      swap1\n      keccak256\n        /* \"BatuFi.sol\":12108:12147  Approval storage a = approvalMap[_hash] */\n      swap1\n      pop\n        /* \"BatuFi.sol\":12164:12165  a */\n      dup1\n        /* \"BatuFi.sol\":12157:12165  return a */\n      mload(0x40)\n      dup1\n      0x40\n      add\n      0x40\n      mstore\n      swap1\n      dup2\n      0x00\n      dup3\n      add\n      dup1\n      sload\n      tag_261\n      swap1\n      tag_140\n      jump\t// in\n    tag_261:\n      dup1\n      0x1f\n      add\n      0x20\n      dup1\n      swap2\n      div\n      mul\n      0x20\n      add\n      mload(0x40)\n      swap1\n      dup2\n      add\n      0x40\n      mstore\n      dup1\n      swap3\n      swap2\n      swap1\n      dup2\n      dup2\n      mstore\n      0x20\n      add\n      dup3\n      dup1\n      sload\n      tag_262\n      swap1\n      tag_140\n      jump\t// in\n    tag_262:\n      dup1\n      iszero\n      tag_263\n      jumpi\n      dup1\n      0x1f\n      lt\n      tag_264\n      jumpi\n      0x0100\n      dup1\n      dup4\n      sload\n      div\n      mul\n      dup4\n      mstore\n      swap2\n      0x20\n      add\n      swap2\n      jump(tag_263)\n    tag_264:\n      dup3\n      add\n      swap2\n      swap1\n      0x00\n      mstore\n      keccak256(0x00, 0x20)\n      swap1\n    tag_265:\n      dup2\n      sload\n      dup2\n      mstore\n      swap1\n      0x01\n      add\n      swap1\n      0x20\n      add\n      dup1\n      dup4\n      gt\n      tag_265\n      jumpi\n      dup3\n      swap1\n      sub\n      0x1f\n      and\n      dup3\n      add\n      swap2\n    tag_263:\n      pop\n      pop\n      pop\n      pop\n      pop\n      dup2\n      mstore\n      0x20\n      add\n      0x01\n      dup3\n      add\n      dup1\n      sload\n      dup1\n      0x20\n      mul\n      0x20\n      add\n      mload(0x40)\n      swap1\n      dup2\n      add\n      0x40\n      mstore\n      dup1\n      swap3\n      swap2\n      swap1\n      dup2\n      dup2\n      mstore\n      0x20\n      add\n      0x00\n      swap1\n    tag_266:\n      dup3\n      dup3\n      lt\n      iszero\n      tag_267\n      jumpi\n      dup4\n      dup3\n      swap1\n      0x00\n      mstore\n      keccak256(0x00, 0x20)\n      swap1\n      0x07\n      mul\n      add\n      mload(0x40)\n      dup1\n      0xe0\n      add\n      0x40\n      mstore\n      swap1\n      dup2\n      0x00\n      dup3\n      add\n      dup1\n      sload\n      tag_269\n      swap1\n      tag_140\n      jump\t// in\n    tag_269:\n      dup1\n      0x1f\n      add\n      0x20\n      dup1\n      swap2\n      div\n      mul\n      0x20\n      add\n      mload(0x40)\n      swap1\n      dup2\n      add\n      0x40\n      mstore\n      dup1\n      swap3\n      swap2\n      swap1\n      dup2\n      dup2\n      mstore\n      0x20\n      add\n      dup3\n      dup1\n      sload\n      tag_270\n      swap1\n      tag_140\n      jump\t// in\n    tag_270:\n      dup1\n      iszero\n      tag_271\n      jumpi\n      dup1\n      0x1f\n      lt\n      tag_272\n      jumpi\n      0x0100\n      dup1\n      dup4\n      sload\n      div\n      mul\n      dup4\n      mstore\n      swap2\n      0x20\n      add\n      swap2\n      jump(tag_271)\n    tag_272:\n      dup3\n      add\n      swap2\n      swap1\n      0x00\n      mstore\n      keccak256(0x00, 0x20)\n      swap1\n    tag_273:\n      dup2\n      sload\n      dup2\n      mstore\n      swap1\n      0x01\n      add\n      swap1\n      0x20\n      add\n      dup1\n      dup4\n      gt\n      tag_273\n      jumpi\n      dup3\n      swap1\n      sub\n      0x1f\n      and\n      dup3\n      add\n      swap2\n    tag_271:\n      pop\n      pop\n      pop\n      pop\n      pop\n      dup2\n      mstore\n      0x20\n      add\n      0x01\n      dup3\n      add\n      dup1\n      sload\n      tag_274\n      swap1\n      tag_140\n      jump\t// in\n    tag_274:\n      dup1\n      0x1f\n      add\n      0x20\n      dup1\n      swap2\n      div\n      mul\n      0x20\n      add\n      mload(0x40)\n      swap1\n      dup2\n      add\n      0x40\n      mstore\n      dup1\n      swap3\n      swap2\n      swap1\n      dup2\n      dup2\n      mstore\n      0x20\n      add\n      dup3\n      dup1\n      sload\n      tag_275\n      swap1\n      tag_140\n      jump\t// in\n    tag_275:\n      dup1\n      iszero\n      tag_276\n      jumpi\n      dup1\n      0x1f\n      lt\n      tag_277\n      jumpi\n      0x0100\n      dup1\n      dup4\n      sload\n      div\n      mul\n      dup4\n      mstore\n      swap2\n      0x20\n      add\n      swap2\n      jump(tag_276)\n    tag_277:\n      dup3\n      add\n      swap2\n      swap1\n      0x00\n      mstore\n      keccak256(0x00, 0x20)\n      swap1\n    tag_278:\n      dup2\n      sload\n      dup2\n      mstore\n      swap1\n      0x01\n      add\n      swap1\n      0x20\n      add\n      dup1\n      dup4\n      gt\n      tag_278\n      jumpi\n      dup3\n      swap1\n      sub\n      0x1f\n      and\n      dup3\n      add\n      swap2\n    tag_276:\n      pop\n      pop\n      pop\n      pop\n      pop\n      dup2\n      mstore\n      0x20\n      add\n      0x02\n      dup3\n      add\n      0x00\n      swap1\n      sload\n      swap1\n      0x0100\n      exp\n      swap1\n      div\n      0xffffffffffffffffffffffffffffffffffffffff\n      and\n      0xffffffffffffffffffffffffffffffffffffffff\n      and\n      0xffffffffffffffffffffffffffffffffffffffff\n      and\n      dup2\n      mstore\n      0x20\n      add\n      0x03\n      dup3\n      add\n      sload\n      dup2\n      mstore\n      0x20\n      add\n      0x04\n      dup3\n      add\n      sload\n      dup2\n      mstore\n      0x20\n      add\n      0x05\n      dup3\n      add\n      sload\n      dup2\n      mstore\n      0x20\n      add\n      0x06\n      dup3\n      add\n      sload\n      dup2\n      mstore\n      pop\n      pop\n      dup2\n      mstore\n      0x20\n      add\n      swap1\n      0x01\n      add\n      swap1\n      jump(tag_266)\n    tag_267:\n      pop\n      pop\n      pop\n      pop\n      dup2\n      mstore\n      pop\n      pop\n      swap2\n      pop\n      pop\n        /* \"BatuFi.sol\":12017:12172  function listApprovals(string memory _hash) public view returns(Approval memory) {... */\n      swap2\n      swap1\n      pop\n      jump\t// out\n        /* \"BatuFi.sol\":2343:2433  function authCreator() public view creatorOnly returns (bool) {... */\n    tag_69:\n        /* \"BatuFi.sol\":2399:2403  bool */\n      0x00\n        /* \"BatuFi.sol\":1917:1924  creator */\n      dup1\n      0x00\n      swap1\n      sload\n      swap1\n      0x0100\n      exp\n      swap1\n      div\n      0xffffffffffffffffffffffffffffffffffffffff\n      and\n        /* \"BatuFi.sol\":1903:1924  msg.sender == creator */\n      0xffffffffffffffffffffffffffffffffffffffff\n      and\n        /* \"BatuFi.sol\":1903:1913  msg.sender */\n      caller\n        /* \"BatuFi.sol\":1903:1924  msg.sender == creator */\n      0xffffffffffffffffffffffffffffffffffffffff\n      and\n      eq\n        /* \"BatuFi.sol\":1895:1925  require(msg.sender == creator) */\n      tag_280\n      jumpi\n      0x00\n      dup1\n      revert\n    tag_280:\n        /* \"BatuFi.sol\":2422:2426  true */\n      0x01\n        /* \"BatuFi.sol\":2415:2426  return true */\n      swap1\n      pop\n        /* \"BatuFi.sol\":2343:2433  function authCreator() public view creatorOnly returns (bool) {... */\n      swap1\n      jump\t// out\n        /* \"BatuFi.sol\":9647:11691  function approveTransaction(string memory _hash) public returns(uint) {... */\n    tag_74:\n        /* \"BatuFi.sol\":9711:9715  uint */\n      0x00\n        /* \"BatuFi.sol\":9727:9748  Transaction storage t */\n      dup1\n        /* \"BatuFi.sol\":9751:9765  transactionMap */\n      0x0c\n        /* \"BatuFi.sol\":9766:9771  _hash */\n      dup4\n        /* \"BatuFi.sol\":9751:9772  transactionMap[_hash] */\n      mload(0x40)\n      tag_283\n      swap2\n      swap1\n      tag_260\n      jump\t// in\n    tag_283:\n      swap1\n      dup2\n      mstore\n      0x20\n      add\n      mload(0x40)\n      dup1\n      swap2\n      sub\n      swap1\n      keccak256\n        /* \"BatuFi.sol\":9727:9772  Transaction storage t = transactionMap[_hash] */\n      swap1\n      pop\n        /* \"BatuFi.sol\":9782:9812  string storage currentApproval */\n      0x00\n        /* \"BatuFi.sol\":9815:9816  t */\n      dup2\n        /* \"BatuFi.sol\":9815:9836  t.currentApprovalRole */\n      0x08\n      add\n        /* \"BatuFi.sol\":9782:9836  string storage currentApproval = t.currentApprovalRole */\n      swap1\n      pop\n        /* \"BatuFi.sol\":9846:9873  string storage uptoApproval */\n      0x00\n        /* \"BatuFi.sol\":9876:9877  t */\n      dup3\n        /* \"BatuFi.sol\":9876:9894  t.uptoApprovalRole */\n      0x09\n      add\n        /* \"BatuFi.sol\":9846:9894  string storage uptoApproval = t.uptoApprovalRole */\n      swap1\n      pop\n        /* \"BatuFi.sol\":9904:9923  uint validationCode */\n      0x00\n        /* \"BatuFi.sol\":9926:9951  validateTxDuration(_hash) */\n      tag_284\n        /* \"BatuFi.sol\":9945:9950  _hash */\n      dup7\n        /* \"BatuFi.sol\":9926:9944  validateTxDuration */\n      tag_125\n        /* \"BatuFi.sol\":9926:9951  validateTxDuration(_hash) */\n      jump\t// in\n    tag_284:\n        /* \"BatuFi.sol\":9904:9951  uint validationCode = validateTxDuration(_hash) */\n      swap1\n      pop\n        /* \"BatuFi.sol\":9983:9984  1 */\n      0x01\n        /* \"BatuFi.sol\":9965:9979  validationCode */\n      dup2\n        /* \"BatuFi.sol\":9965:9984  validationCode == 1 */\n      sub\n        /* \"BatuFi.sol\":9962:11685  if(validationCode == 1) {... */\n      tag_285\n      jumpi\n        /* \"BatuFi.sol\":10126:10144  Approval storage a */\n      0x00\n        /* \"BatuFi.sol\":10147:10158  approvalMap */\n      0x0e\n        /* \"BatuFi.sol\":10159:10164  _hash */\n      dup8\n        /* \"BatuFi.sol\":10147:10165  approvalMap[_hash] */\n      mload(0x40)\n      tag_286\n      swap2\n      swap1\n      tag_260\n      jump\t// in\n    tag_286:\n      swap1\n      dup2\n      mstore\n      0x20\n      add\n      mload(0x40)\n      dup1\n      swap2\n      sub\n      swap1\n      keccak256\n        /* \"BatuFi.sol\":10126:10165  Approval storage a = approvalMap[_hash] */\n      swap1\n      pop\n        /* \"BatuFi.sol\":10179:10193  User storage u */\n      0x00\n        /* \"BatuFi.sol\":10196:10203  userMap */\n      0x0b\n        /* \"BatuFi.sol\":10196:10215  userMap[msg.sender] */\n      0x00\n        /* \"BatuFi.sol\":10204:10214  msg.sender */\n      caller\n        /* \"BatuFi.sol\":10196:10215  userMap[msg.sender] */\n      0xffffffffffffffffffffffffffffffffffffffff\n      and\n      0xffffffffffffffffffffffffffffffffffffffff\n      and\n      dup2\n      mstore\n      0x20\n      add\n      swap1\n      dup2\n      mstore\n      0x20\n      add\n      0x00\n      keccak256\n        /* \"BatuFi.sol\":10179:10215  User storage u = userMap[msg.sender] */\n      swap1\n      pop\n        /* \"BatuFi.sol\":10229:10230  a */\n      dup2\n        /* \"BatuFi.sol\":10229:10243  a.approvalList */\n      0x01\n      add\n        /* \"BatuFi.sol\":10249:10250  u */\n      dup2\n        /* \"BatuFi.sol\":10229:10251  a.approvalList.push(u) */\n      swap1\n      dup1\n      0x01\n      dup2\n      sload\n      add\n      dup1\n      dup3\n      sstore\n      dup1\n      swap2\n      pop\n      pop\n      0x01\n      swap1\n      sub\n      swap1\n      0x00\n      mstore\n      keccak256(0x00, 0x20)\n      swap1\n      0x07\n      mul\n      add\n      0x00\n      swap1\n      swap2\n      swap1\n      swap2\n      swap1\n      swap2\n      pop\n      0x00\n      dup3\n      add\n      dup2\n      0x00\n      add\n      swap1\n      dup2\n      tag_288\n      swap2\n      swap1\n      tag_289\n      jump\t// in\n    tag_288:\n      pop\n      0x01\n      dup3\n      add\n      dup2\n      0x01\n      add\n      swap1\n      dup2\n      tag_290\n      swap2\n      swap1\n      tag_289\n      jump\t// in\n    tag_290:\n      pop\n      0x02\n      dup3\n      add\n      0x00\n      swap1\n      sload\n      swap1\n      0x0100\n      exp\n      swap1\n      div\n      0xffffffffffffffffffffffffffffffffffffffff\n      and\n      dup2\n      0x02\n      add\n      exp(0x0100, 0x00)\n      dup2\n      sload\n      dup2\n      0xffffffffffffffffffffffffffffffffffffffff\n      mul\n      not\n      and\n      swap1\n      dup4\n      0xffffffffffffffffffffffffffffffffffffffff\n      and\n      mul\n      or\n      swap1\n      sstore\n      pop\n      0x03\n      dup3\n      add\n      sload\n      dup2\n      0x03\n      add\n      sstore\n      0x04\n      dup3\n      add\n      sload\n      dup2\n      0x04\n      add\n      sstore\n      0x05\n      dup3\n      add\n      sload\n      dup2\n      0x05\n      add\n      sstore\n      0x06\n      dup3\n      add\n      sload\n      dup2\n      0x06\n      add\n      sstore\n      pop\n      pop\n        /* \"BatuFi.sol\":10342:10343  1 */\n      0x01\n        /* \"BatuFi.sol\":10327:10328  u */\n      dup2\n        /* \"BatuFi.sol\":10327:10341  u.approveCount */\n      0x04\n      add\n      sload\n        /* \"BatuFi.sol\":10327:10343  u.approveCount+1 */\n      tag_291\n      swap2\n      swap1\n      tag_292\n      jump\t// in\n    tag_291:\n        /* \"BatuFi.sol\":10310:10311  u */\n      dup2\n        /* \"BatuFi.sol\":10310:10324  u.approveCount */\n      0x04\n      add\n        /* \"BatuFi.sol\":10310:10343  u.approveCount = u.approveCount+1 */\n      dup2\n      swap1\n      sstore\n      pop\n        /* \"BatuFi.sol\":10358:10381  Notification storage n1 */\n      0x00\n        /* \"BatuFi.sol\":10384:10399  notificationMap */\n      0x0d\n        /* \"BatuFi.sol\":10400:10405  _hash */\n      dup10\n        /* \"BatuFi.sol\":10384:10406  notificationMap[_hash] */\n      mload(0x40)\n      tag_293\n      swap2\n      swap1\n      tag_260\n      jump\t// in\n    tag_293:\n      swap1\n      dup2\n      mstore\n      0x20\n      add\n      mload(0x40)\n      dup1\n      swap2\n      sub\n      swap1\n      keccak256\n        /* \"BatuFi.sol\":10358:10406  Notification storage n1 = notificationMap[_hash] */\n      swap1\n      pop\n        /* \"BatuFi.sol\":10423:10468  compareStrings(currentApproval, uptoApproval) */\n      tag_294\n        /* \"BatuFi.sol\":10438:10453  currentApproval */\n      dup7\n        /* \"BatuFi.sol\":10423:10468  compareStrings(currentApproval, uptoApproval) */\n      dup1\n      sload\n      tag_295\n      swap1\n      tag_140\n      jump\t// in\n    tag_295:\n      dup1\n      0x1f\n      add\n      0x20\n      dup1\n      swap2\n      div\n      mul\n      0x20\n      add\n      mload(0x40)\n      swap1\n      dup2\n      add\n      0x40\n      mstore\n      dup1\n      swap3\n      swap2\n      swap1\n      dup2\n      dup2\n      mstore\n      0x20\n      add\n      dup3\n      dup1\n      sload\n      tag_296\n      swap1\n      tag_140\n      jump\t// in\n    tag_296:\n      dup1\n      iszero\n      tag_297\n      jumpi\n      dup1\n      0x1f\n      lt\n      tag_298\n      jumpi\n      0x0100\n      dup1\n      dup4\n      sload\n      div\n      mul\n      dup4\n      mstore\n      swap2\n      0x20\n      add\n      swap2\n      jump(tag_297)\n    tag_298:\n      dup3\n      add\n      swap2\n      swap1\n      0x00\n      mstore\n      keccak256(0x00, 0x20)\n      swap1\n    tag_299:\n      dup2\n      sload\n      dup2\n      mstore\n      swap1\n      0x01\n      add\n      swap1\n      0x20\n      add\n      dup1\n      dup4\n      gt\n      tag_299\n      jumpi\n      dup3\n      swap1\n      sub\n      0x1f\n      and\n      dup3\n      add\n      swap2\n    tag_297:\n      pop\n      pop\n      pop\n      pop\n      pop\n        /* \"BatuFi.sol\":10455:10467  uptoApproval */\n      dup7\n        /* \"BatuFi.sol\":10423:10468  compareStrings(currentApproval, uptoApproval) */\n      dup1\n      sload\n      tag_300\n      swap1\n      tag_140\n      jump\t// in\n    tag_300:\n      dup1\n      0x1f\n      add\n      0x20\n      dup1\n      swap2\n      div\n      mul\n      0x20\n      add\n      mload(0x40)\n      swap1\n      dup2\n      add\n      0x40\n      mstore\n      dup1\n      swap3\n      swap2\n      swap1\n      dup2\n      dup2\n      mstore\n      0x20\n      add\n      dup3\n      dup1\n      sload\n      tag_301\n      swap1\n      tag_140\n      jump\t// in\n    tag_301:\n      dup1\n      iszero\n      tag_302\n      jumpi\n      dup1\n      0x1f\n      lt\n      tag_303\n      jumpi\n      0x0100\n      dup1\n      dup4\n      sload\n      div\n      mul\n      dup4\n      mstore\n      swap2\n      0x20\n      add\n      swap2\n      jump(tag_302)\n    tag_303:\n      dup3\n      add\n      swap2\n      swap1\n      0x00\n      mstore\n      keccak256(0x00, 0x20)\n      swap1\n    tag_304:\n      dup2\n      sload\n      dup2\n      mstore\n      swap1\n      0x01\n      add\n      swap1\n      0x20\n      add\n      dup1\n      dup4\n      gt\n      tag_304\n      jumpi\n      dup3\n      swap1\n      sub\n      0x1f\n      and\n      dup3\n      add\n      swap2\n    tag_302:\n      pop\n      pop\n      pop\n      pop\n      pop\n        /* \"BatuFi.sol\":10423:10437  compareStrings */\n      tag_305\n        /* \"BatuFi.sol\":10423:10468  compareStrings(currentApproval, uptoApproval) */\n      jump\t// in\n    tag_294:\n        /* \"BatuFi.sol\":10420:11589  if(compareStrings(currentApproval, uptoApproval)) {... */\n      iszero\n      tag_306\n      jumpi\n        /* \"BatuFi.sol\":10635:10656  t.status = \"APPROVED\" */\n      mload(0x40)\n      dup1\n      0x40\n      add\n      0x40\n      mstore\n      dup1\n      0x08\n      dup2\n      mstore\n      0x20\n      add\n      0x415050524f564544000000000000000000000000000000000000000000000000\n      dup2\n      mstore\n      pop\n        /* \"BatuFi.sol\":10635:10636  t */\n      dup8\n        /* \"BatuFi.sol\":10635:10643  t.status */\n      0x05\n      add\n        /* \"BatuFi.sol\":10635:10656  t.status = \"APPROVED\" */\n      swap1\n      dup2\n      tag_307\n      swap2\n      swap1\n      tag_308\n      jump\t// in\n    tag_307:\n      pop\n        /* \"BatuFi.sol\":10675:10709  n1.title = \"Transaction Completed\" */\n      mload(0x40)\n      dup1\n      0x40\n      add\n      0x40\n      mstore\n      dup1\n      0x15\n      dup2\n      mstore\n      0x20\n      add\n      0x5472616e73616374696f6e20436f6d706c657465640000000000000000000000\n      dup2\n      mstore\n      pop\n        /* \"BatuFi.sol\":10675:10677  n1 */\n      dup2\n        /* \"BatuFi.sol\":10675:10683  n1.title */\n      0x00\n      add\n        /* \"BatuFi.sol\":10675:10709  n1.title = \"Transaction Completed\" */\n      swap1\n      dup2\n      tag_309\n      swap2\n      swap1\n      tag_308\n      jump\t// in\n    tag_309:\n      pop\n        /* \"BatuFi.sol\":10802:10807  _hash */\n      dup9\n        /* \"BatuFi.sol\":10747:10861  abi.encodePacked(\"Transaction with transaction hash \", _hash, \" is completed and approved by all the authorities\") */\n      add(0x20, mload(0x40))\n      tag_310\n      swap2\n      swap1\n      tag_311\n      jump\t// in\n    tag_310:\n      mload(0x40)\n      0x20\n      dup2\n      dup4\n      sub\n      sub\n      dup2\n      mstore\n      swap1\n      0x40\n      mstore\n        /* \"BatuFi.sol\":10727:10729  n1 */\n      dup2\n        /* \"BatuFi.sol\":10727:10737  n1.message */\n      0x01\n      add\n        /* \"BatuFi.sol\":10727:10862  n1.message = string(abi.encodePacked(\"Transaction with transaction hash \", _hash, \" is completed and approved by all the authorities\")) */\n      swap1\n      dup2\n      tag_312\n      swap2\n      swap1\n      tag_308\n      jump\t// in\n    tag_312:\n      pop\n        /* \"BatuFi.sol\":10893:10898  _hash */\n      dup9\n        /* \"BatuFi.sol\":10880:10882  n1 */\n      dup2\n        /* \"BatuFi.sol\":10880:10890  n1.docHash */\n      0x02\n      add\n        /* \"BatuFi.sol\":10880:10898  n1.docHash = _hash */\n      swap1\n      dup2\n      tag_313\n      swap2\n      swap1\n      tag_308\n      jump\t// in\n    tag_313:\n      pop\n        /* \"BatuFi.sol\":10916:10938  n1.status = \"APPROVED\" */\n      mload(0x40)\n      dup1\n      0x40\n      add\n      0x40\n      mstore\n      dup1\n      0x08\n      dup2\n      mstore\n      0x20\n      add\n      0x415050524f564544000000000000000000000000000000000000000000000000\n      dup2\n      mstore\n      pop\n        /* \"BatuFi.sol\":10916:10918  n1 */\n      dup2\n        /* \"BatuFi.sol\":10916:10925  n1.status */\n      0x03\n      add\n        /* \"BatuFi.sol\":10916:10938  n1.status = \"APPROVED\" */\n      swap1\n      dup2\n      tag_314\n      swap2\n      swap1\n      tag_308\n      jump\t// in\n    tag_314:\n      pop\n        /* \"BatuFi.sol\":10956:10972  notificationList */\n      0x07\n        /* \"BatuFi.sol\":10978:10980  n1 */\n      dup2\n        /* \"BatuFi.sol\":10956:10981  notificationList.push(n1) */\n      swap1\n      dup1\n      0x01\n      dup2\n      sload\n      add\n      dup1\n      dup3\n      sstore\n      dup1\n      swap2\n      pop\n      pop\n      0x01\n      swap1\n      sub\n      swap1\n      0x00\n      mstore\n      keccak256(0x00, 0x20)\n      swap1\n      0x04\n      mul\n      add\n      0x00\n      swap1\n      swap2\n      swap1\n      swap2\n      swap1\n      swap2\n      pop\n      0x00\n      dup3\n      add\n      dup2\n      0x00\n      add\n      swap1\n      dup2\n      tag_316\n      swap2\n      swap1\n      tag_289\n      jump\t// in\n    tag_316:\n      pop\n      0x01\n      dup3\n      add\n      dup2\n      0x01\n      add\n      swap1\n      dup2\n      tag_317\n      swap2\n      swap1\n      tag_289\n      jump\t// in\n    tag_317:\n      pop\n      0x02\n      dup3\n      add\n      dup2\n      0x02\n      add\n      swap1\n      dup2\n      tag_318\n      swap2\n      swap1\n      tag_289\n      jump\t// in\n    tag_318:\n      pop\n      0x03\n      dup3\n      add\n      dup2\n      0x03\n      add\n      swap1\n      dup2\n      tag_319\n      swap2\n      swap1\n      tag_289\n      jump\t// in\n    tag_319:\n      pop\n      pop\n      pop\n        /* \"BatuFi.sol\":10420:11589  if(compareStrings(currentApproval, uptoApproval)) {... */\n      jump(tag_320)\n    tag_306:\n        /* \"BatuFi.sol\":11104:11118  Role storage r */\n      0x00\n        /* \"BatuFi.sol\":11121:11128  roleMap */\n      0x0a\n        /* \"BatuFi.sol\":11129:11144  currentApproval */\n      dup8\n        /* \"BatuFi.sol\":11121:11145  roleMap[currentApproval] */\n      mload(0x40)\n      tag_321\n      swap2\n      swap1\n      tag_322\n      jump\t// in\n    tag_321:\n      swap1\n      dup2\n      mstore\n      0x20\n      add\n      mload(0x40)\n      dup1\n      swap2\n      sub\n      swap1\n      keccak256\n        /* \"BatuFi.sol\":11104:11145  Role storage r = roleMap[currentApproval] */\n      swap1\n      pop\n        /* \"BatuFi.sol\":11163:11190  string storage approvalName */\n      0x00\n        /* \"BatuFi.sol\":11193:11194  r */\n      dup2\n        /* \"BatuFi.sol\":11193:11199  r.name */\n      0x02\n      add\n        /* \"BatuFi.sol\":11163:11199  string storage approvalName = r.name */\n      swap1\n      pop\n        /* \"BatuFi.sol\":11241:11269  getNextRole(currentApproval) */\n      tag_323\n        /* \"BatuFi.sol\":11253:11268  currentApproval */\n      dup9\n        /* \"BatuFi.sol\":11241:11269  getNextRole(currentApproval) */\n      dup1\n      sload\n      tag_324\n      swap1\n      tag_140\n      jump\t// in\n    tag_324:\n      dup1\n      0x1f\n      add\n      0x20\n      dup1\n      swap2\n      div\n      mul\n      0x20\n      add\n      mload(0x40)\n      swap1\n      dup2\n      add\n      0x40\n      mstore\n      dup1\n      swap3\n      swap2\n      swap1\n      dup2\n      dup2\n      mstore\n      0x20\n      add\n      dup3\n      dup1\n      sload\n      tag_325\n      swap1\n      tag_140\n      jump\t// in\n    tag_325:\n      dup1\n      iszero\n      tag_326\n      jumpi\n      dup1\n      0x1f\n      lt\n      tag_327\n      jumpi\n      0x0100\n      dup1\n      dup4\n      sload\n      div\n      mul\n      dup4\n      mstore\n      swap2\n      0x20\n      add\n      swap2\n      jump(tag_326)\n    tag_327:\n      dup3\n      add\n      swap2\n      swap1\n      0x00\n      mstore\n      keccak256(0x00, 0x20)\n      swap1\n    tag_328:\n      dup2\n      sload\n      dup2\n      mstore\n      swap1\n      0x01\n      add\n      swap1\n      0x20\n      add\n      dup1\n      dup4\n      gt\n      tag_328\n      jumpi\n      dup3\n      swap1\n      sub\n      0x1f\n      and\n      dup3\n      add\n      swap2\n    tag_326:\n      pop\n      pop\n      pop\n      pop\n      pop\n        /* \"BatuFi.sol\":11241:11252  getNextRole */\n      tag_329\n        /* \"BatuFi.sol\":11241:11269  getNextRole(currentApproval) */\n      jump\t// in\n    tag_323:\n        /* \"BatuFi.sol\":11217:11218  t */\n      dup10\n        /* \"BatuFi.sol\":11217:11238  t.currentApprovalRole */\n      0x08\n      add\n        /* \"BatuFi.sol\":11217:11269  t.currentApprovalRole = getNextRole(currentApproval) */\n      swap1\n      dup2\n      tag_330\n      swap2\n      swap1\n      tag_308\n      jump\t// in\n    tag_330:\n      pop\n        /* \"BatuFi.sol\":11288:11321  n1.title = \"Transaction Approved\" */\n      mload(0x40)\n      dup1\n      0x40\n      add\n      0x40\n      mstore\n      dup1\n      0x14\n      dup2\n      mstore\n      0x20\n      add\n      0x5472616e73616374696f6e20417070726f766564000000000000000000000000\n      dup2\n      mstore\n      pop\n        /* \"BatuFi.sol\":11288:11290  n1 */\n      dup4\n        /* \"BatuFi.sol\":11288:11296  n1.title */\n      0x00\n      add\n        /* \"BatuFi.sol\":11288:11321  n1.title = \"Transaction Approved\" */\n      swap1\n      dup2\n      tag_331\n      swap2\n      swap1\n      tag_308\n      jump\t// in\n    tag_331:\n      pop\n        /* \"BatuFi.sol\":11414:11419  _hash */\n      dup11\n        /* \"BatuFi.sol\":11441:11453  approvalName */\n      dup2\n        /* \"BatuFi.sol\":11359:11454  abi.encodePacked(\"Transaction with transaction hash \", _hash, \" is approved by \", approvalName) */\n      add(0x20, mload(0x40))\n      tag_332\n      swap3\n      swap2\n      swap1\n      tag_333\n      jump\t// in\n    tag_332:\n      mload(0x40)\n      0x20\n      dup2\n      dup4\n      sub\n      sub\n      dup2\n      mstore\n      swap1\n      0x40\n      mstore\n        /* \"BatuFi.sol\":11339:11341  n1 */\n      dup4\n        /* \"BatuFi.sol\":11339:11349  n1.message */\n      0x01\n      add\n        /* \"BatuFi.sol\":11339:11455  n1.message = string(abi.encodePacked(\"Transaction with transaction hash \", _hash, \" is approved by \", approvalName)) */\n      swap1\n      dup2\n      tag_334\n      swap2\n      swap1\n      tag_308\n      jump\t// in\n    tag_334:\n      pop\n        /* \"BatuFi.sol\":11486:11491  _hash */\n      dup11\n        /* \"BatuFi.sol\":11473:11475  n1 */\n      dup4\n        /* \"BatuFi.sol\":11473:11483  n1.docHash */\n      0x02\n      add\n        /* \"BatuFi.sol\":11473:11491  n1.docHash = _hash */\n      swap1\n      dup2\n      tag_335\n      swap2\n      swap1\n      tag_308\n      jump\t// in\n    tag_335:\n      pop\n        /* \"BatuFi.sol\":11509:11531  n1.status = \"APPROVED\" */\n      mload(0x40)\n      dup1\n      0x40\n      add\n      0x40\n      mstore\n      dup1\n      0x08\n      dup2\n      mstore\n      0x20\n      add\n      0x415050524f564544000000000000000000000000000000000000000000000000\n      dup2\n      mstore\n      pop\n        /* \"BatuFi.sol\":11509:11511  n1 */\n      dup4\n        /* \"BatuFi.sol\":11509:11518  n1.status */\n      0x03\n      add\n        /* \"BatuFi.sol\":11509:11531  n1.status = \"APPROVED\" */\n      swap1\n      dup2\n      tag_336\n      swap2\n      swap1\n      tag_308\n      jump\t// in\n    tag_336:\n      pop\n        /* \"BatuFi.sol\":11549:11565  notificationList */\n      0x07\n        /* \"BatuFi.sol\":11571:11573  n1 */\n      dup4\n        /* \"BatuFi.sol\":11549:11574  notificationList.push(n1) */\n      swap1\n      dup1\n      0x01\n      dup2\n      sload\n      add\n      dup1\n      dup3\n      sstore\n      dup1\n      swap2\n      pop\n      pop\n      0x01\n      swap1\n      sub\n      swap1\n      0x00\n      mstore\n      keccak256(0x00, 0x20)\n      swap1\n      0x04\n      mul\n      add\n      0x00\n      swap1\n      swap2\n      swap1\n      swap2\n      swap1\n      swap2\n      pop\n      0x00\n      dup3\n      add\n      dup2\n      0x00\n      add\n      swap1\n      dup2\n      tag_338\n      swap2\n      swap1\n      tag_289\n      jump\t// in\n    tag_338:\n      pop\n      0x01\n      dup3\n      add\n      dup2\n      0x01\n      add\n      swap1\n      dup2\n      tag_339\n      swap2\n      swap1\n      tag_289\n      jump\t// in\n    tag_339:\n      pop\n      0x02\n      dup3\n      add\n      dup2\n      0x02\n      add\n      swap1\n      dup2\n      tag_340\n      swap2\n      swap1\n      tag_289\n      jump\t// in\n    tag_340:\n      pop\n      0x03\n      dup3\n      add\n      dup2\n      0x03\n      add\n      swap1\n      dup2\n      tag_341\n      swap2\n      swap1\n      tag_289\n      jump\t// in\n    tag_341:\n      pop\n      pop\n      pop\n        /* \"BatuFi.sol\":11001:11589  {... */\n      pop\n      pop\n        /* \"BatuFi.sol\":10420:11589  if(compareStrings(currentApproval, uptoApproval)) {... */\n    tag_320:\n        /* \"BatuFi.sol\":11609:11623  validationCode */\n      dup4\n        /* \"BatuFi.sol\":11602:11623  return validationCode */\n      swap8\n      pop\n      pop\n      pop\n      pop\n      pop\n      pop\n      pop\n      pop\n      jump(tag_282)\n        /* \"BatuFi.sol\":9962:11685  if(validationCode == 1) {... */\n    tag_285:\n        /* \"BatuFi.sol\":11660:11674  validationCode */\n      dup1\n        /* \"BatuFi.sol\":11653:11674  return validationCode */\n      swap5\n      pop\n      pop\n      pop\n      pop\n      pop\n        /* \"BatuFi.sol\":9647:11691  function approveTransaction(string memory _hash) public returns(uint) {... */\n    tag_282:\n      swap2\n      swap1\n      pop\n      jump\t// out\n        /* \"BatuFi.sol\":1154:1192  Notification[] public notificationList */\n    tag_79:\n      0x07\n      dup2\n      dup2\n      sload\n      dup2\n      lt\n      tag_343\n      jumpi\n      0x00\n      dup1\n      revert\n    tag_343:\n      swap1\n      0x00\n      mstore\n      keccak256(0x00, 0x20)\n      swap1\n      0x04\n      mul\n      add\n      0x00\n      swap2\n      pop\n      swap1\n      pop\n      dup1\n      0x00\n      add\n      dup1\n      sload\n      tag_345\n      swap1\n      tag_140\n      jump\t// in\n    tag_345:\n      dup1\n      0x1f\n      add\n      0x20\n      dup1\n      swap2\n      div\n      mul\n      0x20\n      add\n      mload(0x40)\n      swap1\n      dup2\n      add\n      0x40\n      mstore\n      dup1\n      swap3\n      swap2\n      swap1\n      dup2\n      dup2\n      mstore\n      0x20\n      add\n      dup3\n      dup1\n      sload\n      tag_346\n      swap1\n      tag_140\n      jump\t// in\n    tag_346:\n      dup1\n      iszero\n      tag_347\n      jumpi\n      dup1\n      0x1f\n      lt\n      tag_348\n      jumpi\n      0x0100\n      dup1\n      dup4\n      sload\n      div\n      mul\n      dup4\n      mstore\n      swap2\n      0x20\n      add\n      swap2\n      jump(tag_347)\n    tag_348:\n      dup3\n      add\n      swap2\n      swap1\n      0x00\n      mstore\n      keccak256(0x00, 0x20)\n      swap1\n    tag_349:\n      dup2\n      sload\n      dup2\n      mstore\n      swap1\n      0x01\n      add\n      swap1\n      0x20\n      add\n      dup1\n      dup4\n      gt\n      tag_349\n      jumpi\n      dup3\n      swap1\n      sub\n      0x1f\n      and\n      dup3\n      add\n      swap2\n    tag_347:\n      pop\n      pop\n      pop\n      pop\n      pop\n      swap1\n      dup1\n      0x01\n      add\n      dup1\n      sload\n      tag_350\n      swap1\n      tag_140\n      jump\t// in\n    tag_350:\n      dup1\n      0x1f\n      add\n      0x20\n      dup1\n      swap2\n      div\n      mul\n      0x20\n      add\n      mload(0x40)\n      swap1\n      dup2\n      add\n      0x40\n      mstore\n      dup1\n      swap3\n      swap2\n      swap1\n      dup2\n      dup2\n      mstore\n      0x20\n      add\n      dup3\n      dup1\n      sload\n      tag_351\n      swap1\n      tag_140\n      jump\t// in\n    tag_351:\n      dup1\n      iszero\n      tag_352\n      jumpi\n      dup1\n      0x1f\n      lt\n      tag_353\n      jumpi\n      0x0100\n      dup1\n      dup4\n      sload\n      div\n      mul\n      dup4\n      mstore\n      swap2\n      0x20\n      add\n      swap2\n      jump(tag_352)\n    tag_353:\n      dup3\n      add\n      swap2\n      swap1\n      0x00\n      mstore\n      keccak256(0x00, 0x20)\n      swap1\n    tag_354:\n      dup2\n      sload\n      dup2\n      mstore\n      swap1\n      0x01\n      add\n      swap1\n      0x20\n      add\n      dup1\n      dup4\n      gt\n      tag_354\n      jumpi\n      dup3\n      swap1\n      sub\n      0x1f\n      and\n      dup3\n      add\n      swap2\n    tag_352:\n      pop\n      pop\n      pop\n      pop\n      pop\n      swap1\n      dup1\n      0x02\n      add\n      dup1\n      sload\n      tag_355\n      swap1\n      tag_140\n      jump\t// in\n    tag_355:\n      dup1\n      0x1f\n      add\n      0x20\n      dup1\n      swap2\n      div\n      mul\n      0x20\n      add\n      mload(0x40)\n      swap1\n      dup2\n      add\n      0x40\n      mstore\n      dup1\n      swap3\n      swap2\n      swap1\n      dup2\n      dup2\n      mstore\n      0x20\n      add\n      dup3\n      dup1\n      sload\n      tag_356\n      swap1\n      tag_140\n      jump\t// in\n    tag_356:\n      dup1\n      iszero\n      tag_357\n      jumpi\n      dup1\n      0x1f\n      lt\n      tag_358\n      jumpi\n      0x0100\n      dup1\n      dup4\n      sload\n      div\n      mul\n      dup4\n      mstore\n      swap2\n      0x20\n      add\n      swap2\n      jump(tag_357)\n    tag_358:\n      dup3\n      add\n      swap2\n      swap1\n      0x00\n      mstore\n      keccak256(0x00, 0x20)\n      swap1\n    tag_359:\n      dup2\n      sload\n      dup2\n      mstore\n      swap1\n      0x01\n      add\n      swap1\n      0x20\n      add\n      dup1\n      dup4\n      gt\n      tag_359\n      jumpi\n      dup3\n      swap1\n      sub\n      0x1f\n      and\n      dup3\n      add\n      swap2\n    tag_357:\n      pop\n      pop\n      pop\n      pop\n      pop\n      swap1\n      dup1\n      0x03\n      add\n      dup1\n      sload\n      tag_360\n      swap1\n      tag_140\n      jump\t// in\n    tag_360:\n      dup1\n      0x1f\n      add\n      0x20\n      dup1\n      swap2\n      div\n      mul\n      0x20\n      add\n      mload(0x40)\n      swap1\n      dup2\n      add\n      0x40\n      mstore\n      dup1\n      swap3\n      swap2\n      swap1\n      dup2\n      dup2\n      mstore\n      0x20\n      add\n      dup3\n      dup1\n      sload\n      tag_361\n      swap1\n      tag_140\n      jump\t// in\n    tag_361:\n      dup1\n      iszero\n      tag_362\n      jumpi\n      dup1\n      0x1f\n      lt\n      tag_363\n      jumpi\n      0x0100\n      dup1\n      dup4\n      sload\n      div\n      mul\n      dup4\n      mstore\n      swap2\n      0x20\n      add\n      swap2\n      jump(tag_362)\n    tag_363:\n      dup3\n      add\n      swap2\n      swap1\n      0x00\n      mstore\n      keccak256(0x00, 0x20)\n      swap1\n    tag_364:\n      dup2\n      sload\n      dup2\n      mstore\n      swap1\n      0x01\n      add\n      swap1\n      0x20\n      add\n      dup1\n      dup4\n      gt\n      tag_364\n      jumpi\n      dup3\n      swap1\n      sub\n      0x1f\n      and\n      dup3\n      add\n      swap2\n    tag_362:\n      pop\n      pop\n      pop\n      pop\n      pop\n      swap1\n      pop\n      dup5\n      jump\t// out\n        /* \"BatuFi.sol\":5920:6003  function deleteUser(uint256 number) public {... */\n    tag_83:\n        /* \"BatuFi.sol\":5980:5988  userList */\n      0x09\n        /* \"BatuFi.sol\":5989:5995  number */\n      dup2\n        /* \"BatuFi.sol\":5980:5996  userList[number] */\n      dup2\n      sload\n      dup2\n      lt\n      tag_366\n      jumpi\n      tag_367\n      tag_368\n      jump\t// in\n    tag_367:\n    tag_366:\n      swap1\n      0x00\n      mstore\n      keccak256(0x00, 0x20)\n      add\n      0x00\n        /* \"BatuFi.sol\":5973:5996  delete userList[number] */\n      0x0100\n      exp\n      dup2\n      sload\n      swap1\n      0xffffffffffffffffffffffffffffffffffffffff\n      mul\n      not\n      and\n      swap1\n      sstore\n        /* \"BatuFi.sol\":5920:6003  function deleteUser(uint256 number) public {... */\n      pop\n      jump\t// out\n        /* \"BatuFi.sol\":11697:12007  function declineTransaction(string memory _hash) public returns(uint) {... */\n    tag_86:\n        /* \"BatuFi.sol\":11761:11765  uint */\n      0x00\n        /* \"BatuFi.sol\":11777:11791  User storage u */\n      dup1\n        /* \"BatuFi.sol\":11794:11801  userMap */\n      0x0b\n        /* \"BatuFi.sol\":11794:11813  userMap[msg.sender] */\n      0x00\n        /* \"BatuFi.sol\":11802:11812  msg.sender */\n      caller\n        /* \"BatuFi.sol\":11794:11813  userMap[msg.sender] */\n      0xffffffffffffffffffffffffffffffffffffffff\n      and\n      0xffffffffffffffffffffffffffffffffffffffff\n      and\n      dup2\n      mstore\n      0x20\n      add\n      swap1\n      dup2\n      mstore\n      0x20\n      add\n      0x00\n      keccak256\n        /* \"BatuFi.sol\":11777:11813  User storage u = userMap[msg.sender] */\n      swap1\n      pop\n        /* \"BatuFi.sol\":11895:11896  1 */\n      0x01\n        /* \"BatuFi.sol\":11880:11881  u */\n      dup2\n        /* \"BatuFi.sol\":11880:11894  u.declineCount */\n      0x05\n      add\n      sload\n        /* \"BatuFi.sol\":11880:11896  u.declineCount+1 */\n      tag_371\n      swap2\n      swap1\n      tag_292\n      jump\t// in\n    tag_371:\n        /* \"BatuFi.sol\":11863:11864  u */\n      dup2\n        /* \"BatuFi.sol\":11863:11877  u.declineCount */\n      0x05\n      add\n        /* \"BatuFi.sol\":11863:11896  u.declineCount = u.declineCount+1 */\n      dup2\n      swap1\n      sstore\n      pop\n        /* \"BatuFi.sol\":11906:11927  Transaction storage t */\n      0x00\n        /* \"BatuFi.sol\":11930:11944  transactionMap */\n      0x0c\n        /* \"BatuFi.sol\":11945:11950  _hash */\n      dup5\n        /* \"BatuFi.sol\":11930:11951  transactionMap[_hash] */\n      mload(0x40)\n      tag_372\n      swap2\n      swap1\n      tag_260\n      jump\t// in\n    tag_372:\n      swap1\n      dup2\n      mstore\n      0x20\n      add\n      mload(0x40)\n      dup1\n      swap2\n      sub\n      swap1\n      keccak256\n        /* \"BatuFi.sol\":11906:11951  Transaction storage t = transactionMap[_hash] */\n      swap1\n      pop\n        /* \"BatuFi.sol\":11961:11982  t.status = \"DECLINED\" */\n      mload(0x40)\n      dup1\n      0x40\n      add\n      0x40\n      mstore\n      dup1\n      0x08\n      dup2\n      mstore\n      0x20\n      add\n      0x4445434c494e4544000000000000000000000000000000000000000000000000\n      dup2\n      mstore\n      pop\n        /* \"BatuFi.sol\":11961:11962  t */\n      dup2\n        /* \"BatuFi.sol\":11961:11969  t.status */\n      0x05\n      add\n        /* \"BatuFi.sol\":11961:11982  t.status = \"DECLINED\" */\n      swap1\n      dup2\n      tag_373\n      swap2\n      swap1\n      tag_308\n      jump\t// in\n    tag_373:\n      pop\n        /* \"BatuFi.sol\":11999:12000  1 */\n      0x01\n        /* \"BatuFi.sol\":11992:12000  return 1 */\n      swap3\n      pop\n      pop\n      pop\n        /* \"BatuFi.sol\":11697:12007  function declineTransaction(string memory _hash) public returns(uint) {... */\n      swap2\n      swap1\n      pop\n      jump\t// out\n        /* \"BatuFi.sol\":2245:2333  function authMember() public view memberOnly returns (bool) {... */\n    tag_89:\n        /* \"BatuFi.sol\":2299:2303  bool */\n      0x00\n        /* \"BatuFi.sol\":2007:2014  userMap */\n      0x0b\n        /* \"BatuFi.sol\":2007:2026  userMap[msg.sender] */\n      0x00\n        /* \"BatuFi.sol\":2015:2025  msg.sender */\n      caller\n        /* \"BatuFi.sol\":2007:2026  userMap[msg.sender] */\n      0xffffffffffffffffffffffffffffffffffffffff\n      and\n      0xffffffffffffffffffffffffffffffffffffffff\n      and\n      dup2\n      mstore\n      0x20\n      add\n      swap1\n      dup2\n      mstore\n      0x20\n      add\n      0x00\n      keccak256\n        /* \"BatuFi.sol\":2007:2029  userMap[msg.sender].id */\n      0x02\n      add\n      0x00\n      swap1\n      sload\n      swap1\n      0x0100\n      exp\n      swap1\n      div\n      0xffffffffffffffffffffffffffffffffffffffff\n      and\n        /* \"BatuFi.sol\":1993:2029  msg.sender == userMap[msg.sender].id */\n      0xffffffffffffffffffffffffffffffffffffffff\n      and\n        /* \"BatuFi.sol\":1993:2003  msg.sender */\n      caller\n        /* \"BatuFi.sol\":1993:2029  msg.sender == userMap[msg.sender].id */\n      0xffffffffffffffffffffffffffffffffffffffff\n      and\n      eq\n        /* \"BatuFi.sol\":1985:2030  require(msg.sender == userMap[msg.sender].id) */\n      tag_375\n      jumpi\n      0x00\n      dup1\n      revert\n    tag_375:\n        /* \"BatuFi.sol\":2322:2326  true */\n      0x01\n        /* \"BatuFi.sol\":2315:2326  return true */\n      swap1\n      pop\n        /* \"BatuFi.sol\":2245:2333  function authMember() public view memberOnly returns (bool) {... */\n      swap1\n      jump\t// out\n        /* \"BatuFi.sol\":12417:12508  function listUsers() public view returns(address[] memory) {... */\n    tag_92:\n        /* \"BatuFi.sol\":12458:12474  address[] memory */\n      0x60\n        /* \"BatuFi.sol\":12493:12501  userList */\n      0x09\n        /* \"BatuFi.sol\":12486:12501  return userList */\n      dup1\n      sload\n      dup1\n      0x20\n      mul\n      0x20\n      add\n      mload(0x40)\n      swap1\n      dup2\n      add\n      0x40\n      mstore\n      dup1\n      swap3\n      swap2\n      swap1\n      dup2\n      dup2\n      mstore\n      0x20\n      add\n      dup3\n      dup1\n      sload\n      dup1\n      iszero\n      tag_378\n      jumpi\n      0x20\n      mul\n      dup3\n      add\n      swap2\n      swap1\n      0x00\n      mstore\n      keccak256(0x00, 0x20)\n      swap1\n    tag_379:\n      dup2\n      0x00\n      swap1\n      sload\n      swap1\n      0x0100\n      exp\n      swap1\n      div\n      0xffffffffffffffffffffffffffffffffffffffff\n      and\n      0xffffffffffffffffffffffffffffffffffffffff\n      and\n      dup2\n      mstore\n      0x20\n      add\n      swap1\n      0x01\n      add\n      swap1\n      dup1\n      dup4\n      gt\n      tag_379\n      jumpi\n    tag_378:\n      pop\n      pop\n      pop\n      pop\n      pop\n      swap1\n      pop\n        /* \"BatuFi.sol\":12417:12508  function listUsers() public view returns(address[] memory) {... */\n      swap1\n      jump\t// out\n        /* \"BatuFi.sol\":1226:1251  address[] public userList */\n    tag_97:\n      0x09\n      dup2\n      dup2\n      sload\n      dup2\n      lt\n      tag_380\n      jumpi\n      0x00\n      dup1\n      revert\n    tag_380:\n      swap1\n      0x00\n      mstore\n      keccak256(0x00, 0x20)\n      add\n      0x00\n      swap2\n      pop\n      sload\n      swap1\n      0x0100\n      exp\n      swap1\n      div\n      0xffffffffffffffffffffffffffffffffffffffff\n      and\n      dup2\n      jump\t// out\n        /* \"BatuFi.sol\":2818:3149  function createRole(string memory _role, string memory _name, uint256 _maxAmount, uint256 _minAmount) public {... */\n    tag_102:\n        /* \"BatuFi.sol\":2937:2951  Role storage r */\n      0x00\n        /* \"BatuFi.sol\":2954:2961  roleMap */\n      0x0a\n        /* \"BatuFi.sol\":2962:2967  _role */\n      dup6\n        /* \"BatuFi.sol\":2954:2968  roleMap[_role] */\n      mload(0x40)\n      tag_383\n      swap2\n      swap1\n      tag_260\n      jump\t// in\n    tag_383:\n      swap1\n      dup2\n      mstore\n      0x20\n      add\n      mload(0x40)\n      dup1\n      swap2\n      sub\n      swap1\n      keccak256\n        /* \"BatuFi.sol\":2937:2968  Role storage r = roleMap[_role] */\n      swap1\n      pop\n        /* \"BatuFi.sol\":2989:2998  roleCount */\n      0x04\n      0x00\n        /* \"BatuFi.sol\":2989:3000  roleCount++ */\n      dup2\n      sload\n      dup1\n      swap3\n      swap2\n      swap1\n      tag_384\n      swap1\n      tag_385\n      jump\t// in\n    tag_384:\n      swap2\n      swap1\n      pop\n      sstore\n        /* \"BatuFi.sol\":2978:2979  r */\n      dup2\n        /* \"BatuFi.sol\":2978:2986  r.number */\n      0x00\n      add\n        /* \"BatuFi.sol\":2978:3000  r.number = roleCount++ */\n      dup2\n      swap1\n      sstore\n      pop\n        /* \"BatuFi.sol\":3019:3024  _role */\n      dup5\n        /* \"BatuFi.sol\":3010:3011  r */\n      dup2\n        /* \"BatuFi.sol\":3010:3016  r.role */\n      0x01\n      add\n        /* \"BatuFi.sol\":3010:3024  r.role = _role */\n      swap1\n      dup2\n      tag_386\n      swap2\n      swap1\n      tag_308\n      jump\t// in\n    tag_386:\n      pop\n        /* \"BatuFi.sol\":3043:3048  _name */\n      dup4\n        /* \"BatuFi.sol\":3034:3035  r */\n      dup2\n        /* \"BatuFi.sol\":3034:3040  r.name */\n      0x02\n      add\n        /* \"BatuFi.sol\":3034:3048  r.name = _name */\n      swap1\n      dup2\n      tag_387\n      swap2\n      swap1\n      tag_308\n      jump\t// in\n    tag_387:\n      pop\n        /* \"BatuFi.sol\":3072:3082  _maxAmount */\n      dup3\n        /* \"BatuFi.sol\":3058:3059  r */\n      dup2\n        /* \"BatuFi.sol\":3058:3069  r.maxAmount */\n      0x03\n      add\n        /* \"BatuFi.sol\":3058:3082  r.maxAmount = _maxAmount */\n      dup2\n      swap1\n      sstore\n      pop\n        /* \"BatuFi.sol\":3106:3116  _minAmount */\n      dup2\n        /* \"BatuFi.sol\":3092:3093  r */\n      dup2\n        /* \"BatuFi.sol\":3092:3103  r.minAmount */\n      0x04\n      add\n        /* \"BatuFi.sol\":3092:3116  r.minAmount = _minAmount */\n      dup2\n      swap1\n      sstore\n      pop\n        /* \"BatuFi.sol\":3126:3134  roleList */\n      0x08\n        /* \"BatuFi.sol\":3140:3141  r */\n      dup2\n        /* \"BatuFi.sol\":3126:3142  roleList.push(r) */\n      swap1\n      dup1\n      0x01\n      dup2\n      sload\n      add\n      dup1\n      dup3\n      sstore\n      dup1\n      swap2\n      pop\n      pop\n      0x01\n      swap1\n      sub\n      swap1\n      0x00\n      mstore\n      keccak256(0x00, 0x20)\n      swap1\n      0x05\n      mul\n      add\n      0x00\n      swap1\n      swap2\n      swap1\n      swap2\n      swap1\n      swap2\n      pop\n      0x00\n      dup3\n      add\n      sload\n      dup2\n      0x00\n      add\n      sstore\n      0x01\n      dup3\n      add\n      dup2\n      0x01\n      add\n      swap1\n      dup2\n      tag_389\n      swap2\n      swap1\n      tag_289\n      jump\t// in\n    tag_389:\n      pop\n      0x02\n      dup3\n      add\n      dup2\n      0x02\n      add\n      swap1\n      dup2\n      tag_390\n      swap2\n      swap1\n      tag_289\n      jump\t// in\n    tag_390:\n      pop\n      0x03\n      dup3\n      add\n      sload\n      dup2\n      0x03\n      add\n      sstore\n      0x04\n      dup3\n      add\n      sload\n      dup2\n      0x04\n      add\n      sstore\n      pop\n      pop\n        /* \"BatuFi.sol\":2927:3149  {... */\n      pop\n        /* \"BatuFi.sol\":2818:3149  function createRole(string memory _role, string memory _name, uint256 _maxAmount, uint256 _minAmount) public {... */\n      pop\n      pop\n      pop\n      pop\n      jump\t// out\n        /* \"BatuFi.sol\":1464:1510  mapping(string => Approval) public approvalMap */\n    tag_105:\n      0x0e\n      dup2\n      dup1\n      mload\n      0x20\n      dup2\n      add\n      dup3\n      add\n      dup1\n      mload\n      dup5\n      dup3\n      mstore\n      0x20\n      dup4\n      add\n      0x20\n      dup6\n      add\n      keccak256\n      dup2\n      dup4\n      mstore\n      dup1\n      swap6\n      pop\n      pop\n      pop\n      pop\n      pop\n      pop\n      0x00\n      swap2\n      pop\n      swap1\n      pop\n      dup1\n      0x00\n      add\n      dup1\n      sload\n      tag_391\n      swap1\n      tag_140\n      jump\t// in\n    tag_391:\n      dup1\n      0x1f\n      add\n      0x20\n      dup1\n      swap2\n      div\n      mul\n      0x20\n      add\n      mload(0x40)\n      swap1\n      dup2\n      add\n      0x40\n      mstore\n      dup1\n      swap3\n      swap2\n      swap1\n      dup2\n      dup2\n      mstore\n      0x20\n      add\n      dup3\n      dup1\n      sload\n      tag_392\n      swap1\n      tag_140\n      jump\t// in\n    tag_392:\n      dup1\n      iszero\n      tag_393\n      jumpi\n      dup1\n      0x1f\n      lt\n      tag_394\n      jumpi\n      0x0100\n      dup1\n      dup4\n      sload\n      div\n      mul\n      dup4\n      mstore\n      swap2\n      0x20\n      add\n      swap2\n      jump(tag_393)\n    tag_394:\n      dup3\n      add\n      swap2\n      swap1\n      0x00\n      mstore\n      keccak256(0x00, 0x20)\n      swap1\n    tag_395:\n      dup2\n      sload\n      dup2\n      mstore\n      swap1\n      0x01\n      add\n      swap1\n      0x20\n      add\n      dup1\n      dup4\n      gt\n      tag_395\n      jumpi\n      dup3\n      swap1\n      sub\n      0x1f\n      and\n      dup3\n      add\n      swap2\n    tag_393:\n      pop\n      pop\n      pop\n      pop\n      pop\n      swap1\n      pop\n      dup2\n      jump\t// out\n        /* \"BatuFi.sol\":2480:2736  function createUser(string memory _role, address _id, string memory _name) public {... */\n    tag_111:\n        /* \"BatuFi.sol\":2572:2586  User storage u */\n      0x00\n        /* \"BatuFi.sol\":2589:2596  userMap */\n      0x0b\n        /* \"BatuFi.sol\":2589:2601  userMap[_id] */\n      0x00\n        /* \"BatuFi.sol\":2597:2600  _id */\n      dup5\n        /* \"BatuFi.sol\":2589:2601  userMap[_id] */\n      0xffffffffffffffffffffffffffffffffffffffff\n      and\n      0xffffffffffffffffffffffffffffffffffffffff\n      and\n      dup2\n      mstore\n      0x20\n      add\n      swap1\n      dup2\n      mstore\n      0x20\n      add\n      0x00\n      keccak256\n        /* \"BatuFi.sol\":2572:2601  User storage u = userMap[_id] */\n      swap1\n      pop\n        /* \"BatuFi.sol\":2620:2625  _role */\n      dup4\n        /* \"BatuFi.sol\":2611:2612  u */\n      dup2\n        /* \"BatuFi.sol\":2611:2617  u.role */\n      0x01\n      add\n        /* \"BatuFi.sol\":2611:2625  u.role = _role */\n      swap1\n      dup2\n      tag_397\n      swap2\n      swap1\n      tag_308\n      jump\t// in\n    tag_397:\n      pop\n        /* \"BatuFi.sol\":2642:2645  _id */\n      dup3\n        /* \"BatuFi.sol\":2635:2636  u */\n      dup2\n        /* \"BatuFi.sol\":2635:2639  u.id */\n      0x02\n      add\n      0x00\n        /* \"BatuFi.sol\":2635:2645  u.id = _id */\n      0x0100\n      exp\n      dup2\n      sload\n      dup2\n      0xffffffffffffffffffffffffffffffffffffffff\n      mul\n      not\n      and\n      swap1\n      dup4\n      0xffffffffffffffffffffffffffffffffffffffff\n      and\n      mul\n      or\n      swap1\n      sstore\n      pop\n        /* \"BatuFi.sol\":2664:2669  _name */\n      dup2\n        /* \"BatuFi.sol\":2655:2656  u */\n      dup2\n        /* \"BatuFi.sol\":2655:2661  u.name */\n      0x00\n      add\n        /* \"BatuFi.sol\":2655:2669  u.name = _name */\n      swap1\n      dup2\n      tag_398\n      swap2\n      swap1\n      tag_308\n      jump\t// in\n    tag_398:\n      pop\n        /* \"BatuFi.sol\":2690:2699  userCount */\n      0x02\n      0x00\n        /* \"BatuFi.sol\":2690:2701  userCount++ */\n      dup2\n      sload\n      dup1\n      swap3\n      swap2\n      swap1\n      tag_399\n      swap1\n      tag_385\n      jump\t// in\n    tag_399:\n      swap2\n      swap1\n      pop\n      sstore\n        /* \"BatuFi.sol\":2679:2680  u */\n      dup2\n        /* \"BatuFi.sol\":2679:2687  u.number */\n      0x03\n      add\n        /* \"BatuFi.sol\":2679:2701  u.number = userCount++ */\n      dup2\n      swap1\n      sstore\n      pop\n        /* \"BatuFi.sol\":2711:2719  userList */\n      0x09\n        /* \"BatuFi.sol\":2725:2728  _id */\n      dup4\n        /* \"BatuFi.sol\":2711:2729  userList.push(_id) */\n      swap1\n      dup1\n      0x01\n      dup2\n      sload\n      add\n      dup1\n      dup3\n      sstore\n      dup1\n      swap2\n      pop\n      pop\n      0x01\n      swap1\n      sub\n      swap1\n      0x00\n      mstore\n      keccak256(0x00, 0x20)\n      add\n      0x00\n      swap1\n      swap2\n      swap1\n      swap2\n      swap1\n      swap2\n      0x0100\n      exp\n      dup2\n      sload\n      dup2\n      0xffffffffffffffffffffffffffffffffffffffff\n      mul\n      not\n      and\n      swap1\n      dup4\n      0xffffffffffffffffffffffffffffffffffffffff\n      and\n      mul\n      or\n      swap1\n      sstore\n      pop\n        /* \"BatuFi.sol\":2562:2736  {... */\n      pop\n        /* \"BatuFi.sol\":2480:2736  function createUser(string memory _role, address _id, string memory _name) public {... */\n      pop\n      pop\n      pop\n      jump\t// out\n        /* \"BatuFi.sol\":979:1005  address public transaction */\n    tag_113:\n      0x01\n      0x00\n      swap1\n      sload\n      swap1\n      0x0100\n      exp\n      swap1\n      div\n      0xffffffffffffffffffffffffffffffffffffffff\n      and\n      dup2\n      jump\t// out\n        /* \"BatuFi.sol\":1346:1398  mapping(string => Transaction) public transactionMap */\n    tag_117:\n      0x0c\n      dup2\n      dup1\n      mload\n      0x20\n      dup2\n      add\n      dup3\n      add\n      dup1\n      mload\n      dup5\n      dup3\n      mstore\n      0x20\n      dup4\n      add\n      0x20\n      dup6\n      add\n      keccak256\n      dup2\n      dup4\n      mstore\n      dup1\n      swap6\n      pop\n      pop\n      pop\n      pop\n      pop\n      pop\n      0x00\n      swap2\n      pop\n      swap1\n      pop\n      dup1\n      0x00\n      add\n      dup1\n      sload\n      tag_401\n      swap1\n      tag_140\n      jump\t// in\n    tag_401:\n      dup1\n      0x1f\n      add\n      0x20\n      dup1\n      swap2\n      div\n      mul\n      0x20\n      add\n      mload(0x40)\n      swap1\n      dup2\n      add\n      0x40\n      mstore\n      dup1\n      swap3\n      swap2\n      swap1\n      dup2\n      dup2\n      mstore\n      0x20\n      add\n      dup3\n      dup1\n      sload\n      tag_402\n      swap1\n      tag_140\n      jump\t// in\n    tag_402:\n      dup1\n      iszero\n      tag_403\n      jumpi\n      dup1\n      0x1f\n      lt\n      tag_404\n      jumpi\n      0x0100\n      dup1\n      dup4\n      sload\n      div\n      mul\n      dup4\n      mstore\n      swap2\n      0x20\n      add\n      swap2\n      jump(tag_403)\n    tag_404:\n      dup3\n      add\n      swap2\n      swap1\n      0x00\n      mstore\n      keccak256(0x00, 0x20)\n      swap1\n    tag_405:\n      dup2\n      sload\n      dup2\n      mstore\n      swap1\n      0x01\n      add\n      swap1\n      0x20\n      add\n      dup1\n      dup4\n      gt\n      tag_405\n      jumpi\n      dup3\n      swap1\n      sub\n      0x1f\n      and\n      dup3\n      add\n      swap2\n    tag_403:\n      pop\n      pop\n      pop\n      pop\n      pop\n      swap1\n      dup1\n      0x01\n      add\n      dup1\n      sload\n      tag_406\n      swap1\n      tag_140\n      jump\t// in\n    tag_406:\n      dup1\n      0x1f\n      add\n      0x20\n      dup1\n      swap2\n      div\n      mul\n      0x20\n      add\n      mload(0x40)\n      swap1\n      dup2\n      add\n      0x40\n      mstore\n      dup1\n      swap3\n      swap2\n      swap1\n      dup2\n      dup2\n      mstore\n      0x20\n      add\n      dup3\n      dup1\n      sload\n      tag_407\n      swap1\n      tag_140\n      jump\t// in\n    tag_407:\n      dup1\n      iszero\n      tag_408\n      jumpi\n      dup1\n      0x1f\n      lt\n      tag_409\n      jumpi\n      0x0100\n      dup1\n      dup4\n      sload\n      div\n      mul\n      dup4\n      mstore\n      swap2\n      0x20\n      add\n      swap2\n      jump(tag_408)\n    tag_409:\n      dup3\n      add\n      swap2\n      swap1\n      0x00\n      mstore\n      keccak256(0x00, 0x20)\n      swap1\n    tag_410:\n      dup2\n      sload\n      dup2\n      mstore\n      swap1\n      0x01\n      add\n      swap1\n      0x20\n      add\n      dup1\n      dup4\n      gt\n      tag_410\n      jumpi\n      dup3\n      swap1\n      sub\n      0x1f\n      and\n      dup3\n      add\n      swap2\n    tag_408:\n      pop\n      pop\n      pop\n      pop\n      pop\n      swap1\n      dup1\n      0x02\n      add\n      dup1\n      sload\n      tag_411\n      swap1\n      tag_140\n      jump\t// in\n    tag_411:\n      dup1\n      0x1f\n      add\n      0x20\n      dup1\n      swap2\n      div\n      mul\n      0x20\n      add\n      mload(0x40)\n      swap1\n      dup2\n      add\n      0x40\n      mstore\n      dup1\n      swap3\n      swap2\n      swap1\n      dup2\n      dup2\n      mstore\n      0x20\n      add\n      dup3\n      dup1\n      sload\n      tag_412\n      swap1\n      tag_140\n      jump\t// in\n    tag_412:\n      dup1\n      iszero\n      tag_413\n      jumpi\n      dup1\n      0x1f\n      lt\n      tag_414\n      jumpi\n      0x0100\n      dup1\n      dup4\n      sload\n      div\n      mul\n      dup4\n      mstore\n      swap2\n      0x20\n      add\n      swap2\n      jump(tag_413)\n    tag_414:\n      dup3\n      add\n      swap2\n      swap1\n      0x00\n      mstore\n      keccak256(0x00, 0x20)\n      swap1\n    tag_415:\n      dup2\n      sload\n      dup2\n      mstore\n      swap1\n      0x01\n      add\n      swap1\n      0x20\n      add\n      dup1\n      dup4\n      gt\n      tag_415\n      jumpi\n      dup3\n      swap1\n      sub\n      0x1f\n      and\n      dup3\n      add\n      swap2\n    tag_413:\n      pop\n      pop\n      pop\n      pop\n      pop\n      swap1\n      dup1\n      0x03\n      add\n      dup1\n      sload\n      tag_416\n      swap1\n      tag_140\n      jump\t// in\n    tag_416:\n      dup1\n      0x1f\n      add\n      0x20\n      dup1\n      swap2\n      div\n      mul\n      0x20\n      add\n      mload(0x40)\n      swap1\n      dup2\n      add\n      0x40\n      mstore\n      dup1\n      swap3\n      swap2\n      swap1\n      dup2\n      dup2\n      mstore\n      0x20\n      add\n      dup3\n      dup1\n      sload\n      tag_417\n      swap1\n      tag_140\n      jump\t// in\n    tag_417:\n      dup1\n      iszero\n      tag_418\n      jumpi\n      dup1\n      0x1f\n      lt\n      tag_419\n      jumpi\n      0x0100\n      dup1\n      dup4\n      sload\n      div\n      mul\n      dup4\n      mstore\n      swap2\n      0x20\n      add\n      swap2\n      jump(tag_418)\n    tag_419:\n      dup3\n      add\n      swap2\n      swap1\n      0x00\n      mstore\n      keccak256(0x00, 0x20)\n      swap1\n    tag_420:\n      dup2\n      sload\n      dup2\n      mstore\n      swap1\n      0x01\n      add\n      swap1\n      0x20\n      add\n      dup1\n      dup4\n      gt\n      tag_420\n      jumpi\n      dup3\n      swap1\n      sub\n      0x1f\n      and\n      dup3\n      add\n      swap2\n    tag_418:\n      pop\n      pop\n      pop\n      pop\n      pop\n      swap1\n      dup1\n      0x04\n      add\n      sload\n      swap1\n      dup1\n      0x05\n      add\n      dup1\n      sload\n      tag_421\n      swap1\n      tag_140\n      jump\t// in\n    tag_421:\n      dup1\n      0x1f\n      add\n      0x20\n      dup1\n      swap2\n      div\n      mul\n      0x20\n      add\n      mload(0x40)\n      swap1\n      dup2\n      add\n      0x40\n      mstore\n      dup1\n      swap3\n      swap2\n      swap1\n      dup2\n      dup2\n      mstore\n      0x20\n      add\n      dup3\n      dup1\n      sload\n      tag_422\n      swap1\n      tag_140\n      jump\t// in\n    tag_422:\n      dup1\n      iszero\n      tag_423\n      jumpi\n      dup1\n      0x1f\n      lt\n      tag_424\n      jumpi\n      0x0100\n      dup1\n      dup4\n      sload\n      div\n      mul\n      dup4\n      mstore\n      swap2\n      0x20\n      add\n      swap2\n      jump(tag_423)\n    tag_424:\n      dup3\n      add\n      swap2\n      swap1\n      0x00\n      mstore\n      keccak256(0x00, 0x20)\n      swap1\n    tag_425:\n      dup2\n      sload\n      dup2\n      mstore\n      swap1\n      0x01\n      add\n      swap1\n      0x20\n      add\n      dup1\n      dup4\n      gt\n      tag_425\n      jumpi\n      dup3\n      swap1\n      sub\n      0x1f\n      and\n      dup3\n      add\n      swap2\n    tag_423:\n      pop\n      pop\n      pop\n      pop\n      pop\n      swap1\n      dup1\n      0x06\n      add\n      0x00\n      swap1\n      sload\n      swap1\n      0x0100\n      exp\n      swap1\n      div\n      0xffffffffffffffffffffffffffffffffffffffff\n      and\n      swap1\n      dup1\n      0x07\n      add\n      sload\n      swap1\n      dup1\n      0x08\n      add\n      dup1\n      sload\n      tag_426\n      swap1\n      tag_140\n      jump\t// in\n    tag_426:\n      dup1\n      0x1f\n      add\n      0x20\n      dup1\n      swap2\n      div\n      mul\n      0x20\n      add\n      mload(0x40)\n      swap1\n      dup2\n      add\n      0x40\n      mstore\n      dup1\n      swap3\n      swap2\n      swap1\n      dup2\n      dup2\n      mstore\n      0x20\n      add\n      dup3\n      dup1\n      sload\n      tag_427\n      swap1\n      tag_140\n      jump\t// in\n    tag_427:\n      dup1\n      iszero\n      tag_428\n      jumpi\n      dup1\n      0x1f\n      lt\n      tag_429\n      jumpi\n      0x0100\n      dup1\n      dup4\n      sload\n      div\n      mul\n      dup4\n      mstore\n      swap2\n      0x20\n      add\n      swap2\n      jump(tag_428)\n    tag_429:\n      dup3\n      add\n      swap2\n      swap1\n      0x00\n      mstore\n      keccak256(0x00, 0x20)\n      swap1\n    tag_430:\n      dup2\n      sload\n      dup2\n      mstore\n      swap1\n      0x01\n      add\n      swap1\n      0x20\n      add\n      dup1\n      dup4\n      gt\n      tag_430\n      jumpi\n      dup3\n      swap1\n      sub\n      0x1f\n      and\n      dup3\n      add\n      swap2\n    tag_428:\n      pop\n      pop\n      pop\n      pop\n      pop\n      swap1\n      dup1\n      0x09\n      add\n      dup1\n      sload\n      tag_431\n      swap1\n      tag_140\n      jump\t// in\n    tag_431:\n      dup1\n      0x1f\n      add\n      0x20\n      dup1\n      swap2\n      div\n      mul\n      0x20\n      add\n      mload(0x40)\n      swap1\n      dup2\n      add\n      0x40\n      mstore\n      dup1\n      swap3\n      swap2\n      swap1\n      dup2\n      dup2\n      mstore\n      0x20\n      add\n      dup3\n      dup1\n      sload\n      tag_432\n      swap1\n      tag_140\n      jump\t// in\n    tag_432:\n      dup1\n      iszero\n      tag_433\n      jumpi\n      dup1\n      0x1f\n      lt\n      tag_434\n      jumpi\n      0x0100\n      dup1\n      dup4\n      sload\n      div\n      mul\n      dup4\n      mstore\n      swap2\n      0x20\n      add\n      swap2\n      jump(tag_433)\n    tag_434:\n      dup3\n      add\n      swap2\n      swap1\n      0x00\n      mstore\n      keccak256(0x00, 0x20)\n      swap1\n    tag_435:\n      dup2\n      sload\n      dup2\n      mstore\n      swap1\n      0x01\n      add\n      swap1\n      0x20\n      add\n      dup1\n      dup4\n      gt\n      tag_435\n      jumpi\n      dup3\n      swap1\n      sub\n      0x1f\n      and\n      dup3\n      add\n      swap2\n    tag_433:\n      pop\n      pop\n      pop\n      pop\n      pop\n      swap1\n      dup1\n      0x0a\n      add\n      sload\n      swap1\n      pop\n      dup12\n      jump\t// out\n        /* \"BatuFi.sol\":12296:12407  function listNotification() public view returns(Notification[] memory) {... */\n    tag_120:\n        /* \"BatuFi.sol\":12344:12365  Notification[] memory */\n      0x60\n        /* \"BatuFi.sol\":12384:12400  notificationList */\n      0x07\n        /* \"BatuFi.sol\":12377:12400  return notificationList */\n      dup1\n      sload\n      dup1\n      0x20\n      mul\n      0x20\n      add\n      mload(0x40)\n      swap1\n      dup2\n      add\n      0x40\n      mstore\n      dup1\n      swap3\n      swap2\n      swap1\n      dup2\n      dup2\n      mstore\n      0x20\n      add\n      0x00\n      swap1\n    tag_437:\n      dup3\n      dup3\n      lt\n      iszero\n      tag_438\n      jumpi\n      dup4\n      dup3\n      swap1\n      0x00\n      mstore\n      keccak256(0x00, 0x20)\n      swap1\n      0x04\n      mul\n      add\n      mload(0x40)\n      dup1\n      0x80\n      add\n      0x40\n      mstore\n      swap1\n      dup2\n      0x00\n      dup3\n      add\n      dup1\n      sload\n      tag_440\n      swap1\n      tag_140\n      jump\t// in\n    tag_440:\n      dup1\n      0x1f\n      add\n      0x20\n      dup1\n      swap2\n      div\n      mul\n      0x20\n      add\n      mload(0x40)\n      swap1\n      dup2\n      add\n      0x40\n      mstore\n      dup1\n      swap3\n      swap2\n      swap1\n      dup2\n      dup2\n      mstore\n      0x20\n      add\n      dup3\n      dup1\n      sload\n      tag_441\n      swap1\n      tag_140\n      jump\t// in\n    tag_441:\n      dup1\n      iszero\n      tag_442\n      jumpi\n      dup1\n      0x1f\n      lt\n      tag_443\n      jumpi\n      0x0100\n      dup1\n      dup4\n      sload\n      div\n      mul\n      dup4\n      mstore\n      swap2\n      0x20\n      add\n      swap2\n      jump(tag_442)\n    tag_443:\n      dup3\n      add\n      swap2\n      swap1\n      0x00\n      mstore\n      keccak256(0x00, 0x20)\n      swap1\n    tag_444:\n      dup2\n      sload\n      dup2\n      mstore\n      swap1\n      0x01\n      add\n      swap1\n      0x20\n      add\n      dup1\n      dup4\n      gt\n      tag_444\n      jumpi\n      dup3\n      swap1\n      sub\n      0x1f\n      and\n      dup3\n      add\n      swap2\n    tag_442:\n      pop\n      pop\n      pop\n      pop\n      pop\n      dup2\n      mstore\n      0x20\n      add\n      0x01\n      dup3\n      add\n      dup1\n      sload\n      tag_445\n      swap1\n      tag_140\n      jump\t// in\n    tag_445:\n      dup1\n      0x1f\n      add\n      0x20\n      dup1\n      swap2\n      div\n      mul\n      0x20\n      add\n      mload(0x40)\n      swap1\n      dup2\n      add\n      0x40\n      mstore\n      dup1\n      swap3\n      swap2\n      swap1\n      dup2\n      dup2\n      mstore\n      0x20\n      add\n      dup3\n      dup1\n      sload\n      tag_446\n      swap1\n      tag_140\n      jump\t// in\n    tag_446:\n      dup1\n      iszero\n      tag_447\n      jumpi\n      dup1\n      0x1f\n      lt\n      tag_448\n      jumpi\n      0x0100\n      dup1\n      dup4\n      sload\n      div\n      mul\n      dup4\n      mstore\n      swap2\n      0x20\n      add\n      swap2\n      jump(tag_447)\n    tag_448:\n      dup3\n      add\n      swap2\n      swap1\n      0x00\n      mstore\n      keccak256(0x00, 0x20)\n      swap1\n    tag_449:\n      dup2\n      sload\n      dup2\n      mstore\n      swap1\n      0x01\n      add\n      swap1\n      0x20\n      add\n      dup1\n      dup4\n      gt\n      tag_449\n      jumpi\n      dup3\n      swap1\n      sub\n      0x1f\n      and\n      dup3\n      add\n      swap2\n    tag_447:\n      pop\n      pop\n      pop\n      pop\n      pop\n      dup2\n      mstore\n      0x20\n      add\n      0x02\n      dup3\n      add\n      dup1\n      sload\n      tag_450\n      swap1\n      tag_140\n      jump\t// in\n    tag_450:\n      dup1\n      0x1f\n      add\n      0x20\n      dup1\n      swap2\n      div\n      mul\n      0x20\n      add\n      mload(0x40)\n      swap1\n      dup2\n      add\n      0x40\n      mstore\n      dup1\n      swap3\n      swap2\n      swap1\n      dup2\n      dup2\n      mstore\n      0x20\n      add\n      dup3\n      dup1\n      sload\n      tag_451\n      swap1\n      tag_140\n      jump\t// in\n    tag_451:\n      dup1\n      iszero\n      tag_452\n      jumpi\n      dup1\n      0x1f\n      lt\n      tag_453\n      jumpi\n      0x0100\n      dup1\n      dup4\n      sload\n      div\n      mul\n      dup4\n      mstore\n      swap2\n      0x20\n      add\n      swap2\n      jump(tag_452)\n    tag_453:\n      dup3\n      add\n      swap2\n      swap1\n      0x00\n      mstore\n      keccak256(0x00, 0x20)\n      swap1\n    tag_454:\n      dup2\n      sload\n      dup2\n      mstore\n      swap1\n      0x01\n      add\n      swap1\n      0x20\n      add\n      dup1\n      dup4\n      gt\n      tag_454\n      jumpi\n      dup3\n      swap1\n      sub\n      0x1f\n      and\n      dup3\n      add\n      swap2\n    tag_452:\n      pop\n      pop\n      pop\n      pop\n      pop\n      dup2\n      mstore\n      0x20\n      add\n      0x03\n      dup3\n      add\n      dup1\n      sload\n      tag_455\n      swap1\n      tag_140\n      jump\t// in\n    tag_455:\n      dup1\n      0x1f\n      add\n      0x20\n      dup1\n      swap2\n      div\n      mul\n      0x20\n      add\n      mload(0x40)\n      swap1\n      dup2\n      add\n      0x40\n      mstore\n      dup1\n      swap3\n      swap2\n      swap1\n      dup2\n      dup2\n      mstore\n      0x20\n      add\n      dup3\n      dup1\n      sload\n      tag_456\n      swap1\n      tag_140\n      jump\t// in\n    tag_456:\n      dup1\n      iszero\n      tag_457\n      jumpi\n      dup1\n      0x1f\n      lt\n      tag_458\n      jumpi\n      0x0100\n      dup1\n      dup4\n      sload\n      div\n      mul\n      dup4\n      mstore\n      swap2\n      0x20\n      add\n      swap2\n      jump(tag_457)\n    tag_458:\n      dup3\n      add\n      swap2\n      swap1\n      0x00\n      mstore\n      keccak256(0x00, 0x20)\n      swap1\n    tag_459:\n      dup2\n      sload\n      dup2\n      mstore\n      swap1\n      0x01\n      add\n      swap1\n      0x20\n      add\n      dup1\n      dup4\n      gt\n      tag_459\n      jumpi\n      dup3\n      swap1\n      sub\n      0x1f\n      and\n      dup3\n      add\n      swap2\n    tag_457:\n      pop\n      pop\n      pop\n      pop\n      pop\n      dup2\n      mstore\n      pop\n      pop\n      dup2\n      mstore\n      0x20\n      add\n      swap1\n      0x01\n      add\n      swap1\n      jump(tag_437)\n    tag_438:\n      pop\n      pop\n      pop\n      pop\n      swap1\n      pop\n        /* \"BatuFi.sol\":12296:12407  function listNotification() public view returns(Notification[] memory) {... */\n      swap1\n      jump\t// out\n        /* \"BatuFi.sol\":3218:5875  function validateTxDuration(string memory _docHash) public returns(uint) {... */\n    tag_125:\n        /* \"BatuFi.sol\":3285:3289  uint */\n      0x00\n        /* \"BatuFi.sol\":3301:3322  Transaction storage t */\n      dup1\n        /* \"BatuFi.sol\":3325:3339  transactionMap */\n      0x0c\n        /* \"BatuFi.sol\":3340:3348  _docHash */\n      dup4\n        /* \"BatuFi.sol\":3325:3349  transactionMap[_docHash] */\n      mload(0x40)\n      tag_461\n      swap2\n      swap1\n      tag_260\n      jump\t// in\n    tag_461:\n      swap1\n      dup2\n      mstore\n      0x20\n      add\n      mload(0x40)\n      dup1\n      swap2\n      sub\n      swap1\n      keccak256\n        /* \"BatuFi.sol\":3301:3349  Transaction storage t = transactionMap[_docHash] */\n      swap1\n      pop\n        /* \"BatuFi.sol\":3359:3376  uint256 timestamp */\n      0x00\n        /* \"BatuFi.sol\":3379:3380  t */\n      dup2\n        /* \"BatuFi.sol\":3379:3390  t.timestamp */\n      0x0a\n      add\n      sload\n        /* \"BatuFi.sol\":3359:3390  uint256 timestamp = t.timestamp */\n      swap1\n      pop\n        /* \"BatuFi.sol\":3400:3426  string memory uptoApproval */\n      0x00\n        /* \"BatuFi.sol\":3429:3430  t */\n      dup3\n        /* \"BatuFi.sol\":3429:3447  t.uptoApprovalRole */\n      0x09\n      add\n        /* \"BatuFi.sol\":3400:3447  string memory uptoApproval = t.uptoApprovalRole */\n      dup1\n      sload\n      tag_462\n      swap1\n      tag_140\n      jump\t// in\n    tag_462:\n      dup1\n      0x1f\n      add\n      0x20\n      dup1\n      swap2\n      div\n      mul\n      0x20\n      add\n      mload(0x40)\n      swap1\n      dup2\n      add\n      0x40\n      mstore\n      dup1\n      swap3\n      swap2\n      swap1\n      dup2\n      dup2\n      mstore\n      0x20\n      add\n      dup3\n      dup1\n      sload\n      tag_463\n      swap1\n      tag_140\n      jump\t// in\n    tag_463:\n      dup1\n      iszero\n      tag_464\n      jumpi\n      dup1\n      0x1f\n      lt\n      tag_465\n      jumpi\n      0x0100\n      dup1\n      dup4\n      sload\n      div\n      mul\n      dup4\n      mstore\n      swap2\n      0x20\n      add\n      swap2\n      jump(tag_464)\n    tag_465:\n      dup3\n      add\n      swap2\n      swap1\n      0x00\n      mstore\n      keccak256(0x00, 0x20)\n      swap1\n    tag_466:\n      dup2\n      sload\n      dup2\n      mstore\n      swap1\n      0x01\n      add\n      swap1\n      0x20\n      add\n      dup1\n      dup4\n      gt\n      tag_466\n      jumpi\n      dup3\n      swap1\n      sub\n      0x1f\n      and\n      dup3\n      add\n      swap2\n    tag_464:\n      pop\n      pop\n      pop\n      pop\n      pop\n      swap1\n      pop\n        /* \"BatuFi.sol\":3457:3486  string memory currentApproval */\n      0x00\n        /* \"BatuFi.sol\":3489:3490  t */\n      dup4\n        /* \"BatuFi.sol\":3489:3510  t.currentApprovalRole */\n      0x08\n      add\n        /* \"BatuFi.sol\":3457:3510  string memory currentApproval = t.currentApprovalRole */\n      dup1\n      sload\n      tag_467\n      swap1\n      tag_140\n      jump\t// in\n    tag_467:\n      dup1\n      0x1f\n      add\n      0x20\n      dup1\n      swap2\n      div\n      mul\n      0x20\n      add\n      mload(0x40)\n      swap1\n      dup2\n      add\n      0x40\n      mstore\n      dup1\n      swap3\n      swap2\n      swap1\n      dup2\n      dup2\n      mstore\n      0x20\n      add\n      dup3\n      dup1\n      sload\n      tag_468\n      swap1\n      tag_140\n      jump\t// in\n    tag_468:\n      dup1\n      iszero\n      tag_469\n      jumpi\n      dup1\n      0x1f\n      lt\n      tag_470\n      jumpi\n      0x0100\n      dup1\n      dup4\n      sload\n      div\n      mul\n      dup4\n      mstore\n      swap2\n      0x20\n      add\n      swap2\n      jump(tag_469)\n    tag_470:\n      dup3\n      add\n      swap2\n      swap1\n      0x00\n      mstore\n      keccak256(0x00, 0x20)\n      swap1\n    tag_471:\n      dup2\n      sload\n      dup2\n      mstore\n      swap1\n      0x01\n      add\n      swap1\n      0x20\n      add\n      dup1\n      dup4\n      gt\n      tag_471\n      jumpi\n      dup3\n      swap1\n      sub\n      0x1f\n      and\n      dup3\n      add\n      swap2\n    tag_469:\n      pop\n      pop\n      pop\n      pop\n      pop\n      swap1\n      pop\n        /* \"BatuFi.sol\":3586:3603  bool isWindowOpen */\n      0x00\n        /* \"BatuFi.sol\":3606:3657  isTimeWindowOverForRole(currentApproval, timestamp) */\n      tag_472\n        /* \"BatuFi.sol\":3630:3645  currentApproval */\n      dup3\n        /* \"BatuFi.sol\":3647:3656  timestamp */\n      dup6\n        /* \"BatuFi.sol\":3606:3629  isTimeWindowOverForRole */\n      tag_473\n        /* \"BatuFi.sol\":3606:3657  isTimeWindowOverForRole(currentApproval, timestamp) */\n      jump\t// in\n    tag_472:\n        /* \"BatuFi.sol\":3586:3657  bool isWindowOpen = isTimeWindowOverForRole(currentApproval, timestamp) */\n      swap1\n      pop\n        /* \"BatuFi.sol\":3672:3684  isWindowOpen */\n      dup1\n        /* \"BatuFi.sol\":3668:5850  if(!isWindowOpen) {... */\n      tag_474\n      jumpi\n        /* \"BatuFi.sol\":3741:3786  compareStrings(currentApproval, uptoApproval) */\n      tag_475\n        /* \"BatuFi.sol\":3756:3771  currentApproval */\n      dup3\n        /* \"BatuFi.sol\":3773:3785  uptoApproval */\n      dup5\n        /* \"BatuFi.sol\":3741:3755  compareStrings */\n      tag_305\n        /* \"BatuFi.sol\":3741:3786  compareStrings(currentApproval, uptoApproval) */\n      jump\t// in\n    tag_475:\n        /* \"BatuFi.sol\":3738:5837  if(compareStrings(currentApproval, uptoApproval)) {... */\n      iszero\n      tag_476\n      jumpi\n        /* \"BatuFi.sol\":3942:3977  compareStrings(t.status, \"EXPIRED\") */\n      tag_477\n        /* \"BatuFi.sol\":3957:3958  t */\n      dup6\n        /* \"BatuFi.sol\":3957:3965  t.status */\n      0x05\n      add\n        /* \"BatuFi.sol\":3942:3977  compareStrings(t.status, \"EXPIRED\") */\n      dup1\n      sload\n      tag_478\n      swap1\n      tag_140\n      jump\t// in\n    tag_478:\n      dup1\n      0x1f\n      add\n      0x20\n      dup1\n      swap2\n      div\n      mul\n      0x20\n      add\n      mload(0x40)\n      swap1\n      dup2\n      add\n      0x40\n      mstore\n      dup1\n      swap3\n      swap2\n      swap1\n      dup2\n      dup2\n      mstore\n      0x20\n      add\n      dup3\n      dup1\n      sload\n      tag_479\n      swap1\n      tag_140\n      jump\t// in\n    tag_479:\n      dup1\n      iszero\n      tag_480\n      jumpi\n      dup1\n      0x1f\n      lt\n      tag_481\n      jumpi\n      0x0100\n      dup1\n      dup4\n      sload\n      div\n      mul\n      dup4\n      mstore\n      swap2\n      0x20\n      add\n      swap2\n      jump(tag_480)\n    tag_481:\n      dup3\n      add\n      swap2\n      swap1\n      0x00\n      mstore\n      keccak256(0x00, 0x20)\n      swap1\n    tag_482:\n      dup2\n      sload\n      dup2\n      mstore\n      swap1\n      0x01\n      add\n      swap1\n      0x20\n      add\n      dup1\n      dup4\n      gt\n      tag_482\n      jumpi\n      dup3\n      swap1\n      sub\n      0x1f\n      and\n      dup3\n      add\n      swap2\n    tag_480:\n      pop\n      pop\n      pop\n      pop\n      pop\n      mload(0x40)\n      dup1\n      0x40\n      add\n      0x40\n      mstore\n      dup1\n      0x07\n      dup2\n      mstore\n      0x20\n      add\n      0x4558504952454400000000000000000000000000000000000000000000000000\n      dup2\n      mstore\n      pop\n        /* \"BatuFi.sol\":3942:3956  compareStrings */\n      tag_305\n        /* \"BatuFi.sol\":3942:3977  compareStrings(t.status, \"EXPIRED\") */\n      jump\t// in\n    tag_477:\n        /* \"BatuFi.sol\":3938:4780  if(!compareStrings(t.status, \"EXPIRED\")) {... */\n      tag_483\n      jumpi\n        /* \"BatuFi.sol\":4001:4021  t.status = \"EXPIRED\" */\n      mload(0x40)\n      dup1\n      0x40\n      add\n      0x40\n      mstore\n      dup1\n      0x07\n      dup2\n      mstore\n      0x20\n      add\n      0x4558504952454400000000000000000000000000000000000000000000000000\n      dup2\n      mstore\n      pop\n        /* \"BatuFi.sol\":4001:4002  t */\n      dup6\n        /* \"BatuFi.sol\":4001:4009  t.status */\n      0x05\n      add\n        /* \"BatuFi.sol\":4001:4021  t.status = \"EXPIRED\" */\n      swap1\n      dup2\n      tag_484\n      swap2\n      swap1\n      tag_308\n      jump\t// in\n    tag_484:\n      pop\n        /* \"BatuFi.sol\":4048:4054  uint i */\n      0x00\n        /* \"BatuFi.sol\":4043:4321  for (uint i=0; i<userList.length; i++) {... */\n    tag_485:\n        /* \"BatuFi.sol\":4060:4068  userList */\n      0x09\n        /* \"BatuFi.sol\":4060:4075  userList.length */\n      dup1\n      sload\n      swap1\n      pop\n        /* \"BatuFi.sol\":4058:4059  i */\n      dup2\n        /* \"BatuFi.sol\":4058:4075  i<userList.length */\n      lt\n        /* \"BatuFi.sol\":4043:4321  for (uint i=0; i<userList.length; i++) {... */\n      iszero\n      tag_486\n      jumpi\n        /* \"BatuFi.sol\":4108:4122  User storage u */\n      0x00\n        /* \"BatuFi.sol\":4125:4132  userMap */\n      0x0b\n        /* \"BatuFi.sol\":4125:4145  userMap[userList[i]] */\n      0x00\n        /* \"BatuFi.sol\":4133:4141  userList */\n      0x09\n        /* \"BatuFi.sol\":4142:4143  i */\n      dup5\n        /* \"BatuFi.sol\":4133:4144  userList[i] */\n      dup2\n      sload\n      dup2\n      lt\n      tag_488\n      jumpi\n      tag_489\n      tag_368\n      jump\t// in\n    tag_489:\n    tag_488:\n      swap1\n      0x00\n      mstore\n      keccak256(0x00, 0x20)\n      add\n      0x00\n      swap1\n      sload\n      swap1\n      0x0100\n      exp\n      swap1\n      div\n      0xffffffffffffffffffffffffffffffffffffffff\n      and\n        /* \"BatuFi.sol\":4125:4145  userMap[userList[i]] */\n      0xffffffffffffffffffffffffffffffffffffffff\n      and\n      0xffffffffffffffffffffffffffffffffffffffff\n      and\n      dup2\n      mstore\n      0x20\n      add\n      swap1\n      dup2\n      mstore\n      0x20\n      add\n      0x00\n      keccak256\n        /* \"BatuFi.sol\":4108:4145  User storage u = userMap[userList[i]] */\n      swap1\n      pop\n        /* \"BatuFi.sol\":4174:4213  compareStrings(u.role, currentApproval) */\n      tag_491\n        /* \"BatuFi.sol\":4189:4190  u */\n      dup2\n        /* \"BatuFi.sol\":4189:4195  u.role */\n      0x01\n      add\n        /* \"BatuFi.sol\":4174:4213  compareStrings(u.role, currentApproval) */\n      dup1\n      sload\n      tag_492\n      swap1\n      tag_140\n      jump\t// in\n    tag_492:\n      dup1\n      0x1f\n      add\n      0x20\n      dup1\n      swap2\n      div\n      mul\n      0x20\n      add\n      mload(0x40)\n      swap1\n      dup2\n      add\n      0x40\n      mstore\n      dup1\n      swap3\n      swap2\n      swap1\n      dup2\n      dup2\n      mstore\n      0x20\n      add\n      dup3\n      dup1\n      sload\n      tag_493\n      swap1\n      tag_140\n      jump\t// in\n    tag_493:\n      dup1\n      iszero\n      tag_494\n      jumpi\n      dup1\n      0x1f\n      lt\n      tag_495\n      jumpi\n      0x0100\n      dup1\n      dup4\n      sload\n      div\n      mul\n      dup4\n      mstore\n      swap2\n      0x20\n      add\n      swap2\n      jump(tag_494)\n    tag_495:\n      dup3\n      add\n      swap2\n      swap1\n      0x00\n      mstore\n      keccak256(0x00, 0x20)\n      swap1\n    tag_496:\n      dup2\n      sload\n      dup2\n      mstore\n      swap1\n      0x01\n      add\n      swap1\n      0x20\n      add\n      dup1\n      dup4\n      gt\n      tag_496\n      jumpi\n      dup3\n      swap1\n      sub\n      0x1f\n      and\n      dup3\n      add\n      swap2\n    tag_494:\n      pop\n      pop\n      pop\n      pop\n      pop\n        /* \"BatuFi.sol\":4197:4212  currentApproval */\n      dup6\n        /* \"BatuFi.sol\":4174:4188  compareStrings */\n      tag_305\n        /* \"BatuFi.sol\":4174:4213  compareStrings(u.role, currentApproval) */\n      jump\t// in\n    tag_491:\n        /* \"BatuFi.sol\":4171:4299  if(compareStrings(u.role, currentApproval)) {... */\n      iszero\n      tag_497\n      jumpi\n        /* \"BatuFi.sol\":4271:4272  1 */\n      0x01\n        /* \"BatuFi.sol\":4259:4260  u */\n      dup2\n        /* \"BatuFi.sol\":4259:4270  u.slipCount */\n      0x06\n      add\n      sload\n        /* \"BatuFi.sol\":4259:4272  u.slipCount+1 */\n      tag_498\n      swap2\n      swap1\n      tag_292\n      jump\t// in\n    tag_498:\n        /* \"BatuFi.sol\":4245:4246  u */\n      dup2\n        /* \"BatuFi.sol\":4245:4256  u.slipCount */\n      0x06\n      add\n        /* \"BatuFi.sol\":4245:4272  u.slipCount = u.slipCount+1 */\n      dup2\n      swap1\n      sstore\n      pop\n        /* \"BatuFi.sol\":4171:4299  if(compareStrings(u.role, currentApproval)) {... */\n    tag_497:\n        /* \"BatuFi.sol\":4082:4321  {... */\n      pop\n        /* \"BatuFi.sol\":4077:4080  i++ */\n      dup1\n      dup1\n      tag_499\n      swap1\n      tag_385\n      jump\t// in\n    tag_499:\n      swap2\n      pop\n      pop\n        /* \"BatuFi.sol\":4043:4321  for (uint i=0; i<userList.length; i++) {... */\n      jump(tag_485)\n    tag_486:\n      pop\n        /* \"BatuFi.sol\":4401:4424  Notification storage n0 */\n      0x00\n        /* \"BatuFi.sol\":4427:4442  notificationMap */\n      0x0d\n        /* \"BatuFi.sol\":4443:4451  _docHash */\n      dup9\n        /* \"BatuFi.sol\":4427:4452  notificationMap[_docHash] */\n      mload(0x40)\n      tag_500\n      swap2\n      swap1\n      tag_260\n      jump\t// in\n    tag_500:\n      swap1\n      dup2\n      mstore\n      0x20\n      add\n      mload(0x40)\n      dup1\n      swap2\n      sub\n      swap1\n      keccak256\n        /* \"BatuFi.sol\":4401:4452  Notification storage n0 = notificationMap[_docHash] */\n      swap1\n      pop\n        /* \"BatuFi.sol\":4474:4506  n0.title = \"Transaction Expired\" */\n      mload(0x40)\n      dup1\n      0x40\n      add\n      0x40\n      mstore\n      dup1\n      0x13\n      dup2\n      mstore\n      0x20\n      add\n      0x5472616e73616374696f6e204578706972656400000000000000000000000000\n      dup2\n      mstore\n      pop\n        /* \"BatuFi.sol\":4474:4476  n0 */\n      dup2\n        /* \"BatuFi.sol\":4474:4482  n0.title */\n      0x00\n      add\n        /* \"BatuFi.sol\":4474:4506  n0.title = \"Transaction Expired\" */\n      swap1\n      dup2\n      tag_501\n      swap2\n      swap1\n      tag_308\n      jump\t// in\n    tag_501:\n      pop\n        /* \"BatuFi.sol\":4603:4611  _docHash */\n      dup8\n        /* \"BatuFi.sol\":4548:4627  abi.encodePacked(\"Transaction with transaction hash \", _docHash, \" is expired\") */\n      add(0x20, mload(0x40))\n      tag_502\n      swap2\n      swap1\n      tag_503\n      jump\t// in\n    tag_502:\n      mload(0x40)\n      0x20\n      dup2\n      dup4\n      sub\n      sub\n      dup2\n      mstore\n      swap1\n      0x40\n      mstore\n        /* \"BatuFi.sol\":4528:4530  n0 */\n      dup2\n        /* \"BatuFi.sol\":4528:4538  n0.message */\n      0x01\n      add\n        /* \"BatuFi.sol\":4528:4628  n0.message = string(abi.encodePacked(\"Transaction with transaction hash \", _docHash, \" is expired\")) */\n      swap1\n      dup2\n      tag_504\n      swap2\n      swap1\n      tag_308\n      jump\t// in\n    tag_504:\n      pop\n        /* \"BatuFi.sol\":4663:4671  _docHash */\n      dup8\n        /* \"BatuFi.sol\":4650:4652  n0 */\n      dup2\n        /* \"BatuFi.sol\":4650:4660  n0.docHash */\n      0x02\n      add\n        /* \"BatuFi.sol\":4650:4671  n0.docHash = _docHash */\n      swap1\n      dup2\n      tag_505\n      swap2\n      swap1\n      tag_308\n      jump\t// in\n    tag_505:\n      pop\n        /* \"BatuFi.sol\":4693:4714  n0.status = \"EXPIRED\" */\n      mload(0x40)\n      dup1\n      0x40\n      add\n      0x40\n      mstore\n      dup1\n      0x07\n      dup2\n      mstore\n      0x20\n      add\n      0x4558504952454400000000000000000000000000000000000000000000000000\n      dup2\n      mstore\n      pop\n        /* \"BatuFi.sol\":4693:4695  n0 */\n      dup2\n        /* \"BatuFi.sol\":4693:4702  n0.status */\n      0x03\n      add\n        /* \"BatuFi.sol\":4693:4714  n0.status = \"EXPIRED\" */\n      swap1\n      dup2\n      tag_506\n      swap2\n      swap1\n      tag_308\n      jump\t// in\n    tag_506:\n      pop\n        /* \"BatuFi.sol\":4736:4752  notificationList */\n      0x07\n        /* \"BatuFi.sol\":4758:4760  n0 */\n      dup2\n        /* \"BatuFi.sol\":4736:4761  notificationList.push(n0) */\n      swap1\n      dup1\n      0x01\n      dup2\n      sload\n      add\n      dup1\n      dup3\n      sstore\n      dup1\n      swap2\n      pop\n      pop\n      0x01\n      swap1\n      sub\n      swap1\n      0x00\n      mstore\n      keccak256(0x00, 0x20)\n      swap1\n      0x04\n      mul\n      add\n      0x00\n      swap1\n      swap2\n      swap1\n      swap2\n      swap1\n      swap2\n      pop\n      0x00\n      dup3\n      add\n      dup2\n      0x00\n      add\n      swap1\n      dup2\n      tag_508\n      swap2\n      swap1\n      tag_289\n      jump\t// in\n    tag_508:\n      pop\n      0x01\n      dup3\n      add\n      dup2\n      0x01\n      add\n      swap1\n      dup2\n      tag_509\n      swap2\n      swap1\n      tag_289\n      jump\t// in\n    tag_509:\n      pop\n      0x02\n      dup3\n      add\n      dup2\n      0x02\n      add\n      swap1\n      dup2\n      tag_510\n      swap2\n      swap1\n      tag_289\n      jump\t// in\n    tag_510:\n      pop\n      0x03\n      dup3\n      add\n      dup2\n      0x03\n      add\n      swap1\n      dup2\n      tag_511\n      swap2\n      swap1\n      tag_289\n      jump\t// in\n    tag_511:\n      pop\n      pop\n      pop\n        /* \"BatuFi.sol\":3979:4780  {... */\n      pop\n        /* \"BatuFi.sol\":3938:4780  if(!compareStrings(t.status, \"EXPIRED\")) {... */\n    tag_483:\n        /* \"BatuFi.sol\":4804:4805  0 */\n      0x00\n        /* \"BatuFi.sol\":4797:4805  return 0 */\n      swap6\n      pop\n      pop\n      pop\n      pop\n      pop\n      pop\n      jump(tag_460)\n        /* \"BatuFi.sol\":3738:5837  if(compareStrings(currentApproval, uptoApproval)) {... */\n    tag_476:\n        /* \"BatuFi.sol\":4921:4949  getNextRole(currentApproval) */\n      tag_513\n        /* \"BatuFi.sol\":4933:4948  currentApproval */\n      dup3\n        /* \"BatuFi.sol\":4921:4932  getNextRole */\n      tag_329\n        /* \"BatuFi.sol\":4921:4949  getNextRole(currentApproval) */\n      jump\t// in\n    tag_513:\n        /* \"BatuFi.sol\":4897:4898  t */\n      dup6\n        /* \"BatuFi.sol\":4897:4918  t.currentApprovalRole */\n      0x08\n      add\n        /* \"BatuFi.sol\":4897:4949  t.currentApprovalRole = getNextRole(currentApproval) */\n      swap1\n      dup2\n      tag_514\n      swap2\n      swap1\n      tag_308\n      jump\t// in\n    tag_514:\n      pop\n        /* \"BatuFi.sol\":4972:4978  uint i */\n      0x00\n        /* \"BatuFi.sol\":4967:5225  for (uint i=0; i<userList.length; i++) {... */\n    tag_515:\n        /* \"BatuFi.sol\":4984:4992  userList */\n      0x09\n        /* \"BatuFi.sol\":4984:4999  userList.length */\n      dup1\n      sload\n      swap1\n      pop\n        /* \"BatuFi.sol\":4982:4983  i */\n      dup2\n        /* \"BatuFi.sol\":4982:4999  i<userList.length */\n      lt\n        /* \"BatuFi.sol\":4967:5225  for (uint i=0; i<userList.length; i++) {... */\n      iszero\n      tag_516\n      jumpi\n        /* \"BatuFi.sol\":5028:5042  User storage u */\n      0x00\n        /* \"BatuFi.sol\":5045:5052  userMap */\n      0x0b\n        /* \"BatuFi.sol\":5045:5065  userMap[userList[i]] */\n      0x00\n        /* \"BatuFi.sol\":5053:5061  userList */\n      0x09\n        /* \"BatuFi.sol\":5062:5063  i */\n      dup5\n        /* \"BatuFi.sol\":5053:5064  userList[i] */\n      dup2\n      sload\n      dup2\n      lt\n      tag_518\n      jumpi\n      tag_519\n      tag_368\n      jump\t// in\n    tag_519:\n    tag_518:\n      swap1\n      0x00\n      mstore\n      keccak256(0x00, 0x20)\n      add\n      0x00\n      swap1\n      sload\n      swap1\n      0x0100\n      exp\n      swap1\n      div\n      0xffffffffffffffffffffffffffffffffffffffff\n      and\n        /* \"BatuFi.sol\":5045:5065  userMap[userList[i]] */\n      0xffffffffffffffffffffffffffffffffffffffff\n      and\n      0xffffffffffffffffffffffffffffffffffffffff\n      and\n      dup2\n      mstore\n      0x20\n      add\n      swap1\n      dup2\n      mstore\n      0x20\n      add\n      0x00\n      keccak256\n        /* \"BatuFi.sol\":5028:5065  User storage u = userMap[userList[i]] */\n      swap1\n      pop\n        /* \"BatuFi.sol\":5090:5129  compareStrings(u.role, currentApproval) */\n      tag_521\n        /* \"BatuFi.sol\":5105:5106  u */\n      dup2\n        /* \"BatuFi.sol\":5105:5111  u.role */\n      0x01\n      add\n        /* \"BatuFi.sol\":5090:5129  compareStrings(u.role, currentApproval) */\n      dup1\n      sload\n      tag_522\n      swap1\n      tag_140\n      jump\t// in\n    tag_522:\n      dup1\n      0x1f\n      add\n      0x20\n      dup1\n      swap2\n      div\n      mul\n      0x20\n      add\n      mload(0x40)\n      swap1\n      dup2\n      add\n      0x40\n      mstore\n      dup1\n      swap3\n      swap2\n      swap1\n      dup2\n      dup2\n      mstore\n      0x20\n      add\n      dup3\n      dup1\n      sload\n      tag_523\n      swap1\n      tag_140\n      jump\t// in\n    tag_523:\n      dup1\n      iszero\n      tag_524\n      jumpi\n      dup1\n      0x1f\n      lt\n      tag_525\n      jumpi\n      0x0100\n      dup1\n      dup4\n      sload\n      div\n      mul\n      dup4\n      mstore\n      swap2\n      0x20\n      add\n      swap2\n      jump(tag_524)\n    tag_525:\n      dup3\n      add\n      swap2\n      swap1\n      0x00\n      mstore\n      keccak256(0x00, 0x20)\n      swap1\n    tag_526:\n      dup2\n      sload\n      dup2\n      mstore\n      swap1\n      0x01\n      add\n      swap1\n      0x20\n      add\n      dup1\n      dup4\n      gt\n      tag_526\n      jumpi\n      dup3\n      swap1\n      sub\n      0x1f\n      and\n      dup3\n      add\n      swap2\n    tag_524:\n      pop\n      pop\n      pop\n      pop\n      pop\n        /* \"BatuFi.sol\":5113:5128  currentApproval */\n      dup6\n        /* \"BatuFi.sol\":5090:5104  compareStrings */\n      tag_305\n        /* \"BatuFi.sol\":5090:5129  compareStrings(u.role, currentApproval) */\n      jump\t// in\n    tag_521:\n        /* \"BatuFi.sol\":5087:5207  if(compareStrings(u.role, currentApproval)) {... */\n      iszero\n      tag_527\n      jumpi\n        /* \"BatuFi.sol\":5183:5184  1 */\n      0x01\n        /* \"BatuFi.sol\":5171:5172  u */\n      dup2\n        /* \"BatuFi.sol\":5171:5182  u.slipCount */\n      0x06\n      add\n      sload\n        /* \"BatuFi.sol\":5171:5184  u.slipCount+1 */\n      tag_528\n      swap2\n      swap1\n      tag_292\n      jump\t// in\n    tag_528:\n        /* \"BatuFi.sol\":5157:5158  u */\n      dup2\n        /* \"BatuFi.sol\":5157:5168  u.slipCount */\n      0x06\n      add\n        /* \"BatuFi.sol\":5157:5184  u.slipCount = u.slipCount+1 */\n      dup2\n      swap1\n      sstore\n      pop\n        /* \"BatuFi.sol\":5087:5207  if(compareStrings(u.role, currentApproval)) {... */\n    tag_527:\n        /* \"BatuFi.sol\":5006:5225  {... */\n      pop\n        /* \"BatuFi.sol\":5001:5004  i++ */\n      dup1\n      dup1\n      tag_529\n      swap1\n      tag_385\n      jump\t// in\n    tag_529:\n      swap2\n      pop\n      pop\n        /* \"BatuFi.sol\":4967:5225  for (uint i=0; i<userList.length; i++) {... */\n      jump(tag_515)\n    tag_516:\n      pop\n        /* \"BatuFi.sol\":5242:5256  Role storage r */\n      0x00\n        /* \"BatuFi.sol\":5259:5266  roleMap */\n      0x0a\n        /* \"BatuFi.sol\":5267:5282  currentApproval */\n      dup4\n        /* \"BatuFi.sol\":5259:5283  roleMap[currentApproval] */\n      mload(0x40)\n      tag_530\n      swap2\n      swap1\n      tag_260\n      jump\t// in\n    tag_530:\n      swap1\n      dup2\n      mstore\n      0x20\n      add\n      mload(0x40)\n      dup1\n      swap2\n      sub\n      swap1\n      keccak256\n        /* \"BatuFi.sol\":5242:5283  Role storage r = roleMap[currentApproval] */\n      swap1\n      pop\n        /* \"BatuFi.sol\":5385:5408  Notification storage n2 */\n      0x00\n        /* \"BatuFi.sol\":5411:5426  notificationMap */\n      0x0d\n        /* \"BatuFi.sol\":5427:5435  _docHash */\n      dup10\n        /* \"BatuFi.sol\":5411:5436  notificationMap[_docHash] */\n      mload(0x40)\n      tag_531\n      swap2\n      swap1\n      tag_260\n      jump\t// in\n    tag_531:\n      swap1\n      dup2\n      mstore\n      0x20\n      add\n      mload(0x40)\n      dup1\n      swap2\n      sub\n      swap1\n      keccak256\n        /* \"BatuFi.sol\":5385:5436  Notification storage n2 = notificationMap[_docHash] */\n      swap1\n      pop\n        /* \"BatuFi.sol\":5454:5490  n2.title = \"Transaction Transferred\" */\n      mload(0x40)\n      dup1\n      0x40\n      add\n      0x40\n      mstore\n      dup1\n      0x17\n      dup2\n      mstore\n      0x20\n      add\n      0x5472616e73616374696f6e205472616e73666572726564000000000000000000\n      dup2\n      mstore\n      pop\n        /* \"BatuFi.sol\":5454:5456  n2 */\n      dup2\n        /* \"BatuFi.sol\":5454:5462  n2.title */\n      0x00\n      add\n        /* \"BatuFi.sol\":5454:5490  n2.title = \"Transaction Transferred\" */\n      swap1\n      dup2\n      tag_532\n      swap2\n      swap1\n      tag_308\n      jump\t// in\n    tag_532:\n      pop\n        /* \"BatuFi.sol\":5583:5591  _docHash */\n      dup9\n        /* \"BatuFi.sol\":5613:5614  r */\n      dup3\n        /* \"BatuFi.sol\":5613:5619  r.name */\n      0x02\n      add\n        /* \"BatuFi.sol\":5528:5673  abi.encodePacked(\"Transaction with transaction hash \", _docHash, \" is expired for \", r.name, \" and has been transferred to the higher authority\") */\n      add(0x20, mload(0x40))\n      tag_533\n      swap3\n      swap2\n      swap1\n      tag_534\n      jump\t// in\n    tag_533:\n      mload(0x40)\n      0x20\n      dup2\n      dup4\n      sub\n      sub\n      dup2\n      mstore\n      swap1\n      0x40\n      mstore\n        /* \"BatuFi.sol\":5508:5510  n2 */\n      dup2\n        /* \"BatuFi.sol\":5508:5518  n2.message */\n      0x01\n      add\n        /* \"BatuFi.sol\":5508:5674  n2.message = string(abi.encodePacked(\"Transaction with transaction hash \", _docHash, \" is expired for \", r.name, \" and has been transferred to the higher authority\")) */\n      swap1\n      dup2\n      tag_535\n      swap2\n      swap1\n      tag_308\n      jump\t// in\n    tag_535:\n      pop\n        /* \"BatuFi.sol\":5705:5713  _docHash */\n      dup9\n        /* \"BatuFi.sol\":5692:5694  n2 */\n      dup2\n        /* \"BatuFi.sol\":5692:5702  n2.docHash */\n      0x02\n      add\n        /* \"BatuFi.sol\":5692:5713  n2.docHash = _docHash */\n      swap1\n      dup2\n      tag_536\n      swap2\n      swap1\n      tag_308\n      jump\t// in\n    tag_536:\n      pop\n        /* \"BatuFi.sol\":5731:5752  n2.status = \"PENDING\" */\n      mload(0x40)\n      dup1\n      0x40\n      add\n      0x40\n      mstore\n      dup1\n      0x07\n      dup2\n      mstore\n      0x20\n      add\n      0x50454e44494e4700000000000000000000000000000000000000000000000000\n      dup2\n      mstore\n      pop\n        /* \"BatuFi.sol\":5731:5733  n2 */\n      dup2\n        /* \"BatuFi.sol\":5731:5740  n2.status */\n      0x03\n      add\n        /* \"BatuFi.sol\":5731:5752  n2.status = \"PENDING\" */\n      swap1\n      dup2\n      tag_537\n      swap2\n      swap1\n      tag_308\n      jump\t// in\n    tag_537:\n      pop\n        /* \"BatuFi.sol\":5770:5786  notificationList */\n      0x07\n        /* \"BatuFi.sol\":5792:5794  n2 */\n      dup2\n        /* \"BatuFi.sol\":5770:5795  notificationList.push(n2) */\n      swap1\n      dup1\n      0x01\n      dup2\n      sload\n      add\n      dup1\n      dup3\n      sstore\n      dup1\n      swap2\n      pop\n      pop\n      0x01\n      swap1\n      sub\n      swap1\n      0x00\n      mstore\n      keccak256(0x00, 0x20)\n      swap1\n      0x04\n      mul\n      add\n      0x00\n      swap1\n      swap2\n      swap1\n      swap2\n      swap1\n      swap2\n      pop\n      0x00\n      dup3\n      add\n      dup2\n      0x00\n      add\n      swap1\n      dup2\n      tag_539\n      swap2\n      swap1\n      tag_289\n      jump\t// in\n    tag_539:\n      pop\n      0x01\n      dup3\n      add\n      dup2\n      0x01\n      add\n      swap1\n      dup2\n      tag_540\n      swap2\n      swap1\n      tag_289\n      jump\t// in\n    tag_540:\n      pop\n      0x02\n      dup3\n      add\n      dup2\n      0x02\n      add\n      swap1\n      dup2\n      tag_541\n      swap2\n      swap1\n      tag_289\n      jump\t// in\n    tag_541:\n      pop\n      0x03\n      dup3\n      add\n      dup2\n      0x03\n      add\n      swap1\n      dup2\n      tag_542\n      swap2\n      swap1\n      tag_289\n      jump\t// in\n    tag_542:\n      pop\n      pop\n      pop\n        /* \"BatuFi.sol\":5821:5822  2 */\n      0x02\n        /* \"BatuFi.sol\":5814:5822  return 2 */\n      swap8\n      pop\n      pop\n      pop\n      pop\n      pop\n      pop\n      pop\n      pop\n      jump(tag_460)\n        /* \"BatuFi.sol\":3668:5850  if(!isWindowOpen) {... */\n    tag_474:\n        /* \"BatuFi.sol\":5867:5868  1 */\n      0x01\n        /* \"BatuFi.sol\":5860:5868  return 1 */\n      swap6\n      pop\n      pop\n      pop\n      pop\n      pop\n      pop\n        /* \"BatuFi.sol\":3218:5875  function validateTxDuration(string memory _docHash) public returns(uint) {... */\n    tag_460:\n      swap2\n      swap1\n      pop\n      jump\t// out\n        /* \"BatuFi.sol\":8199:9598  function createTransaction(string memory _id, string memory _hash, string memory _url, string memory _comment, uint256 _amount) public memberOnly {... */\n    tag_130:\n        /* \"BatuFi.sol\":2007:2014  userMap */\n      0x0b\n        /* \"BatuFi.sol\":2007:2026  userMap[msg.sender] */\n      0x00\n        /* \"BatuFi.sol\":2015:2025  msg.sender */\n      caller\n        /* \"BatuFi.sol\":2007:2026  userMap[msg.sender] */\n      0xffffffffffffffffffffffffffffffffffffffff\n      and\n      0xffffffffffffffffffffffffffffffffffffffff\n      and\n      dup2\n      mstore\n      0x20\n      add\n      swap1\n      dup2\n      mstore\n      0x20\n      add\n      0x00\n      keccak256\n        /* \"BatuFi.sol\":2007:2029  userMap[msg.sender].id */\n      0x02\n      add\n      0x00\n      swap1\n      sload\n      swap1\n      0x0100\n      exp\n      swap1\n      div\n      0xffffffffffffffffffffffffffffffffffffffff\n      and\n        /* \"BatuFi.sol\":1993:2029  msg.sender == userMap[msg.sender].id */\n      0xffffffffffffffffffffffffffffffffffffffff\n      and\n        /* \"BatuFi.sol\":1993:2003  msg.sender */\n      caller\n        /* \"BatuFi.sol\":1993:2029  msg.sender == userMap[msg.sender].id */\n      0xffffffffffffffffffffffffffffffffffffffff\n      and\n      eq\n        /* \"BatuFi.sol\":1985:2030  require(msg.sender == userMap[msg.sender].id) */\n      tag_544\n      jumpi\n      0x00\n      dup1\n      revert\n    tag_544:\n        /* \"BatuFi.sol\":8413:8434  Transaction storage t */\n      0x00\n        /* \"BatuFi.sol\":8437:8451  transactionMap */\n      0x0c\n        /* \"BatuFi.sol\":8452:8457  _hash */\n      dup6\n        /* \"BatuFi.sol\":8437:8458  transactionMap[_hash] */\n      mload(0x40)\n      tag_546\n      swap2\n      swap1\n      tag_260\n      jump\t// in\n    tag_546:\n      swap1\n      dup2\n      mstore\n      0x20\n      add\n      mload(0x40)\n      dup1\n      swap2\n      sub\n      swap1\n      keccak256\n        /* \"BatuFi.sol\":8413:8458  Transaction storage t = transactionMap[_hash] */\n      swap1\n      pop\n        /* \"BatuFi.sol\":8475:8478  _id */\n      dup6\n        /* \"BatuFi.sol\":8468:8469  t */\n      dup2\n        /* \"BatuFi.sol\":8468:8472  t.id */\n      0x00\n      add\n        /* \"BatuFi.sol\":8468:8478  t.id = _id */\n      swap1\n      dup2\n      tag_547\n      swap2\n      swap1\n      tag_308\n      jump\t// in\n    tag_547:\n      pop\n        /* \"BatuFi.sol\":8500:8505  _hash */\n      dup5\n        /* \"BatuFi.sol\":8488:8489  t */\n      dup2\n        /* \"BatuFi.sol\":8488:8497  t.docHash */\n      0x01\n      add\n        /* \"BatuFi.sol\":8488:8505  t.docHash = _hash */\n      swap1\n      dup2\n      tag_548\n      swap2\n      swap1\n      tag_308\n      jump\t// in\n    tag_548:\n      pop\n        /* \"BatuFi.sol\":8523:8527  _url */\n      dup4\n        /* \"BatuFi.sol\":8515:8516  t */\n      dup2\n        /* \"BatuFi.sol\":8515:8520  t.url */\n      0x02\n      add\n        /* \"BatuFi.sol\":8515:8527  t.url = _url */\n      swap1\n      dup2\n      tag_549\n      swap2\n      swap1\n      tag_308\n      jump\t// in\n    tag_549:\n      pop\n        /* \"BatuFi.sol\":8549:8557  _comment */\n      dup3\n        /* \"BatuFi.sol\":8537:8538  t */\n      dup2\n        /* \"BatuFi.sol\":8537:8546  t.comment */\n      0x03\n      add\n        /* \"BatuFi.sol\":8537:8557  t.comment = _comment */\n      swap1\n      dup2\n      tag_550\n      swap2\n      swap1\n      tag_308\n      jump\t// in\n    tag_550:\n      pop\n        /* \"BatuFi.sol\":8578:8594  transactionCount */\n      0x03\n      0x00\n        /* \"BatuFi.sol\":8578:8596  transactionCount++ */\n      dup2\n      sload\n      dup1\n      swap3\n      swap2\n      swap1\n      tag_551\n      swap1\n      tag_385\n      jump\t// in\n    tag_551:\n      swap2\n      swap1\n      pop\n      sstore\n        /* \"BatuFi.sol\":8567:8568  t */\n      dup2\n        /* \"BatuFi.sol\":8567:8575  t.number */\n      0x04\n      add\n        /* \"BatuFi.sol\":8567:8596  t.number = transactionCount++ */\n      dup2\n      swap1\n      sstore\n      pop\n        /* \"BatuFi.sol\":8606:8626  t.status = \"PENDING\" */\n      mload(0x40)\n      dup1\n      0x40\n      add\n      0x40\n      mstore\n      dup1\n      0x07\n      dup2\n      mstore\n      0x20\n      add\n      0x50454e44494e4700000000000000000000000000000000000000000000000000\n      dup2\n      mstore\n      pop\n        /* \"BatuFi.sol\":8606:8607  t */\n      dup2\n        /* \"BatuFi.sol\":8606:8614  t.status */\n      0x05\n      add\n        /* \"BatuFi.sol\":8606:8626  t.status = \"PENDING\" */\n      swap1\n      dup2\n      tag_552\n      swap2\n      swap1\n      tag_308\n      jump\t// in\n    tag_552:\n      pop\n        /* \"BatuFi.sol\":8648:8658  msg.sender */\n      caller\n        /* \"BatuFi.sol\":8636:8637  t */\n      dup2\n        /* \"BatuFi.sol\":8636:8645  t.creator */\n      0x06\n      add\n      0x00\n        /* \"BatuFi.sol\":8636:8658  t.creator = msg.sender */\n      0x0100\n      exp\n      dup2\n      sload\n      dup2\n      0xffffffffffffffffffffffffffffffffffffffff\n      mul\n      not\n      and\n      swap1\n      dup4\n      0xffffffffffffffffffffffffffffffffffffffff\n      and\n      mul\n      or\n      swap1\n      sstore\n      pop\n        /* \"BatuFi.sol\":8679:8686  _amount */\n      dup2\n        /* \"BatuFi.sol\":8668:8669  t */\n      dup2\n        /* \"BatuFi.sol\":8668:8676  t.amount */\n      0x07\n      add\n        /* \"BatuFi.sol\":8668:8686  t.amount = _amount */\n      dup2\n      swap1\n      sstore\n      pop\n        /* \"BatuFi.sol\":8696:8725  t.currentApprovalRole = \"HOD\" */\n      mload(0x40)\n      dup1\n      0x40\n      add\n      0x40\n      mstore\n      dup1\n      0x03\n      dup2\n      mstore\n      0x20\n      add\n      0x484f440000000000000000000000000000000000000000000000000000000000\n      dup2\n      mstore\n      pop\n        /* \"BatuFi.sol\":8696:8697  t */\n      dup2\n        /* \"BatuFi.sol\":8696:8717  t.currentApprovalRole */\n      0x08\n      add\n        /* \"BatuFi.sol\":8696:8725  t.currentApprovalRole = \"HOD\" */\n      swap1\n      dup2\n      tag_553\n      swap2\n      swap1\n      tag_308\n      jump\t// in\n    tag_553:\n      pop\n        /* \"BatuFi.sol\":8795:8817  string memory uptoRole */\n      0x00\n        /* \"BatuFi.sol\":8820:8848  getUptoApprovalRole(_amount) */\n      tag_554\n        /* \"BatuFi.sol\":8840:8847  _amount */\n      dup4\n        /* \"BatuFi.sol\":8820:8839  getUptoApprovalRole */\n      tag_555\n        /* \"BatuFi.sol\":8820:8848  getUptoApprovalRole(_amount) */\n      jump\t// in\n    tag_554:\n        /* \"BatuFi.sol\":8795:8848  string memory uptoRole = getUptoApprovalRole(_amount) */\n      swap1\n      pop\n        /* \"BatuFi.sol\":8879:8887  uptoRole */\n      dup1\n        /* \"BatuFi.sol\":8858:8859  t */\n      dup3\n        /* \"BatuFi.sol\":8858:8876  t.uptoApprovalRole */\n      0x09\n      add\n        /* \"BatuFi.sol\":8858:8887  t.uptoApprovalRole = uptoRole */\n      swap1\n      dup2\n      tag_556\n      swap2\n      swap1\n      tag_308\n      jump\t// in\n    tag_556:\n      pop\n        /* \"BatuFi.sol\":8934:8952  Approval storage a */\n      0x00\n        /* \"BatuFi.sol\":8955:8966  approvalMap */\n      0x0e\n        /* \"BatuFi.sol\":8967:8972  _hash */\n      dup8\n        /* \"BatuFi.sol\":8955:8973  approvalMap[_hash] */\n      mload(0x40)\n      tag_557\n      swap2\n      swap1\n      tag_260\n      jump\t// in\n    tag_557:\n      swap1\n      dup2\n      mstore\n      0x20\n      add\n      mload(0x40)\n      dup1\n      swap2\n      sub\n      swap1\n      keccak256\n        /* \"BatuFi.sol\":8934:8973  Approval storage a = approvalMap[_hash] */\n      swap1\n      pop\n        /* \"BatuFi.sol\":8995:9000  _hash */\n      dup7\n        /* \"BatuFi.sol\":8983:8984  a */\n      dup2\n        /* \"BatuFi.sol\":8983:8992  a.docHash */\n      0x00\n      add\n        /* \"BatuFi.sol\":8983:9000  a.docHash = _hash */\n      swap1\n      dup2\n      tag_558\n      swap2\n      swap1\n      tag_308\n      jump\t// in\n    tag_558:\n      pop\n        /* \"BatuFi.sol\":9010:9024  User storage u */\n      0x00\n        /* \"BatuFi.sol\":9027:9034  userMap */\n      0x0b\n        /* \"BatuFi.sol\":9027:9046  userMap[msg.sender] */\n      0x00\n        /* \"BatuFi.sol\":9035:9045  msg.sender */\n      caller\n        /* \"BatuFi.sol\":9027:9046  userMap[msg.sender] */\n      0xffffffffffffffffffffffffffffffffffffffff\n      and\n      0xffffffffffffffffffffffffffffffffffffffff\n      and\n      dup2\n      mstore\n      0x20\n      add\n      swap1\n      dup2\n      mstore\n      0x20\n      add\n      0x00\n      keccak256\n        /* \"BatuFi.sol\":9010:9046  User storage u = userMap[msg.sender] */\n      swap1\n      pop\n        /* \"BatuFi.sol\":9056:9057  a */\n      dup2\n        /* \"BatuFi.sol\":9056:9070  a.approvalList */\n      0x01\n      add\n        /* \"BatuFi.sol\":9076:9077  u */\n      dup2\n        /* \"BatuFi.sol\":9056:9078  a.approvalList.push(u) */\n      swap1\n      dup1\n      0x01\n      dup2\n      sload\n      add\n      dup1\n      dup3\n      sstore\n      dup1\n      swap2\n      pop\n      pop\n      0x01\n      swap1\n      sub\n      swap1\n      0x00\n      mstore\n      keccak256(0x00, 0x20)\n      swap1\n      0x07\n      mul\n      add\n      0x00\n      swap1\n      swap2\n      swap1\n      swap2\n      swap1\n      swap2\n      pop\n      0x00\n      dup3\n      add\n      dup2\n      0x00\n      add\n      swap1\n      dup2\n      tag_560\n      swap2\n      swap1\n      tag_289\n      jump\t// in\n    tag_560:\n      pop\n      0x01\n      dup3\n      add\n      dup2\n      0x01\n      add\n      swap1\n      dup2\n      tag_561\n      swap2\n      swap1\n      tag_289\n      jump\t// in\n    tag_561:\n      pop\n      0x02\n      dup3\n      add\n      0x00\n      swap1\n      sload\n      swap1\n      0x0100\n      exp\n      swap1\n      div\n      0xffffffffffffffffffffffffffffffffffffffff\n      and\n      dup2\n      0x02\n      add\n      exp(0x0100, 0x00)\n      dup2\n      sload\n      dup2\n      0xffffffffffffffffffffffffffffffffffffffff\n      mul\n      not\n      and\n      swap1\n      dup4\n      0xffffffffffffffffffffffffffffffffffffffff\n      and\n      mul\n      or\n      swap1\n      sstore\n      pop\n      0x03\n      dup3\n      add\n      sload\n      dup2\n      0x03\n      add\n      sstore\n      0x04\n      dup3\n      add\n      sload\n      dup2\n      0x04\n      add\n      sstore\n      0x05\n      dup3\n      add\n      sload\n      dup2\n      0x05\n      add\n      sstore\n      0x06\n      dup3\n      add\n      sload\n      dup2\n      0x06\n      add\n      sstore\n      pop\n      pop\n        /* \"BatuFi.sol\":9103:9118  block.timestamp */\n      timestamp\n        /* \"BatuFi.sol\":9089:9090  t */\n      dup5\n        /* \"BatuFi.sol\":9089:9100  t.timestamp */\n      0x0a\n      add\n        /* \"BatuFi.sol\":9089:9118  t.timestamp = block.timestamp */\n      dup2\n      swap1\n      sstore\n      pop\n        /* \"BatuFi.sol\":9168:9183  transactionList */\n      0x06\n        /* \"BatuFi.sol\":9189:9190  t */\n      dup5\n        /* \"BatuFi.sol\":9168:9191  transactionList.push(t) */\n      swap1\n      dup1\n      0x01\n      dup2\n      sload\n      add\n      dup1\n      dup3\n      sstore\n      dup1\n      swap2\n      pop\n      pop\n      0x01\n      swap1\n      sub\n      swap1\n      0x00\n      mstore\n      keccak256(0x00, 0x20)\n      swap1\n      0x0b\n      mul\n      add\n      0x00\n      swap1\n      swap2\n      swap1\n      swap2\n      swap1\n      swap2\n      pop\n      0x00\n      dup3\n      add\n      dup2\n      0x00\n      add\n      swap1\n      dup2\n      tag_563\n      swap2\n      swap1\n      tag_289\n      jump\t// in\n    tag_563:\n      pop\n      0x01\n      dup3\n      add\n      dup2\n      0x01\n      add\n      swap1\n      dup2\n      tag_564\n      swap2\n      swap1\n      tag_289\n      jump\t// in\n    tag_564:\n      pop\n      0x02\n      dup3\n      add\n      dup2\n      0x02\n      add\n      swap1\n      dup2\n      tag_565\n      swap2\n      swap1\n      tag_289\n      jump\t// in\n    tag_565:\n      pop\n      0x03\n      dup3\n      add\n      dup2\n      0x03\n      add\n      swap1\n      dup2\n      tag_566\n      swap2\n      swap1\n      tag_289\n      jump\t// in\n    tag_566:\n      pop\n      0x04\n      dup3\n      add\n      sload\n      dup2\n      0x04\n      add\n      sstore\n      0x05\n      dup3\n      add\n      dup2\n      0x05\n      add\n      swap1\n      dup2\n      tag_567\n      swap2\n      swap1\n      tag_289\n      jump\t// in\n    tag_567:\n      pop\n      0x06\n      dup3\n      add\n      0x00\n      swap1\n      sload\n      swap1\n      0x0100\n      exp\n      swap1\n      div\n      0xffffffffffffffffffffffffffffffffffffffff\n      and\n      dup2\n      0x06\n      add\n      exp(0x0100, 0x00)\n      dup2\n      sload\n      dup2\n      0xffffffffffffffffffffffffffffffffffffffff\n      mul\n      not\n      and\n      swap1\n      dup4\n      0xffffffffffffffffffffffffffffffffffffffff\n      and\n      mul\n      or\n      swap1\n      sstore\n      pop\n      0x07\n      dup3\n      add\n      sload\n      dup2\n      0x07\n      add\n      sstore\n      0x08\n      dup3\n      add\n      dup2\n      0x08\n      add\n      swap1\n      dup2\n      tag_568\n      swap2\n      swap1\n      tag_289\n      jump\t// in\n    tag_568:\n      pop\n      0x09\n      dup3\n      add\n      dup2\n      0x09\n      add\n      swap1\n      dup2\n      tag_569\n      swap2\n      swap1\n      tag_289\n      jump\t// in\n    tag_569:\n      pop\n      0x0a\n      dup3\n      add\n      sload\n      dup2\n      0x0a\n      add\n      sstore\n      pop\n      pop\n        /* \"BatuFi.sol\":9261:9283  Notification storage n */\n      0x00\n        /* \"BatuFi.sol\":9286:9301  notificationMap */\n      0x0d\n        /* \"BatuFi.sol\":9302:9307  _hash */\n      dup10\n        /* \"BatuFi.sol\":9286:9308  notificationMap[_hash] */\n      mload(0x40)\n      tag_570\n      swap2\n      swap1\n      tag_260\n      jump\t// in\n    tag_570:\n      swap1\n      dup2\n      mstore\n      0x20\n      add\n      mload(0x40)\n      dup1\n      swap2\n      sub\n      swap1\n      keccak256\n        /* \"BatuFi.sol\":9261:9308  Notification storage n = notificationMap[_hash] */\n      swap1\n      pop\n        /* \"BatuFi.sol\":9318:9349  n.title = \"Transaction Created\" */\n      mload(0x40)\n      dup1\n      0x40\n      add\n      0x40\n      mstore\n      dup1\n      0x13\n      dup2\n      mstore\n      0x20\n      add\n      0x5472616e73616374696f6e204372656174656400000000000000000000000000\n      dup2\n      mstore\n      pop\n        /* \"BatuFi.sol\":9318:9319  n */\n      dup2\n        /* \"BatuFi.sol\":9318:9325  n.title */\n      0x00\n      add\n        /* \"BatuFi.sol\":9318:9349  n.title = \"Transaction Created\" */\n      swap1\n      dup2\n      tag_571\n      swap2\n      swap1\n      tag_308\n      jump\t// in\n    tag_571:\n      pop\n        /* \"BatuFi.sol\":9433:9438  _hash */\n      dup9\n        /* \"BatuFi.sol\":9378:9459  abi.encodePacked(\"Transaction with transaction hash \", _hash, \" \", \" is created\") */\n      add(0x20, mload(0x40))\n      tag_572\n      swap2\n      swap1\n      tag_573\n      jump\t// in\n    tag_572:\n      mload(0x40)\n      0x20\n      dup2\n      dup4\n      sub\n      sub\n      dup2\n      mstore\n      swap1\n      0x40\n      mstore\n        /* \"BatuFi.sol\":9359:9360  n */\n      dup2\n        /* \"BatuFi.sol\":9359:9368  n.message */\n      0x01\n      add\n        /* \"BatuFi.sol\":9359:9460  n.message = string(abi.encodePacked(\"Transaction with transaction hash \", _hash, \" \", \" is created\")) */\n      swap1\n      dup2\n      tag_574\n      swap2\n      swap1\n      tag_308\n      jump\t// in\n    tag_574:\n      pop\n        /* \"BatuFi.sol\":9482:9487  _hash */\n      dup9\n        /* \"BatuFi.sol\":9470:9471  n */\n      dup2\n        /* \"BatuFi.sol\":9470:9479  n.docHash */\n      0x02\n      add\n        /* \"BatuFi.sol\":9470:9487  n.docHash = _hash */\n      swap1\n      dup2\n      tag_575\n      swap2\n      swap1\n      tag_308\n      jump\t// in\n    tag_575:\n      pop\n        /* \"BatuFi.sol\":9497:9516  n.status = \"create\" */\n      mload(0x40)\n      dup1\n      0x40\n      add\n      0x40\n      mstore\n      dup1\n      0x06\n      dup2\n      mstore\n      0x20\n      add\n      0x6372656174650000000000000000000000000000000000000000000000000000\n      dup2\n      mstore\n      pop\n        /* \"BatuFi.sol\":9497:9498  n */\n      dup2\n        /* \"BatuFi.sol\":9497:9505  n.status */\n      0x03\n      add\n        /* \"BatuFi.sol\":9497:9516  n.status = \"create\" */\n      swap1\n      dup2\n      tag_576\n      swap2\n      swap1\n      tag_308\n      jump\t// in\n    tag_576:\n      pop\n        /* \"BatuFi.sol\":9567:9583  notificationList */\n      0x07\n        /* \"BatuFi.sol\":9589:9590  n */\n      dup2\n        /* \"BatuFi.sol\":9567:9591  notificationList.push(n) */\n      swap1\n      dup1\n      0x01\n      dup2\n      sload\n      add\n      dup1\n      dup3\n      sstore\n      dup1\n      swap2\n      pop\n      pop\n      0x01\n      swap1\n      sub\n      swap1\n      0x00\n      mstore\n      keccak256(0x00, 0x20)\n      swap1\n      0x04\n      mul\n      add\n      0x00\n      swap1\n      swap2\n      swap1\n      swap2\n      swap1\n      swap2\n      pop\n      0x00\n      dup3\n      add\n      dup2\n      0x00\n      add\n      swap1\n      dup2\n      tag_578\n      swap2\n      swap1\n      tag_289\n      jump\t// in\n    tag_578:\n      pop\n      0x01\n      dup3\n      add\n      dup2\n      0x01\n      add\n      swap1\n      dup2\n      tag_579\n      swap2\n      swap1\n      tag_289\n      jump\t// in\n    tag_579:\n      pop\n      0x02\n      dup3\n      add\n      dup2\n      0x02\n      add\n      swap1\n      dup2\n      tag_580\n      swap2\n      swap1\n      tag_289\n      jump\t// in\n    tag_580:\n      pop\n      0x03\n      dup3\n      add\n      dup2\n      0x03\n      add\n      swap1\n      dup2\n      tag_581\n      swap2\n      swap1\n      tag_289\n      jump\t// in\n    tag_581:\n      pop\n      pop\n      pop\n        /* \"BatuFi.sol\":8345:9598  {... */\n      pop\n      pop\n      pop\n      pop\n      pop\n        /* \"BatuFi.sol\":8199:9598  function createTransaction(string memory _id, string memory _hash, string memory _url, string memory _comment, uint256 _amount) public memberOnly {... */\n      pop\n      pop\n      pop\n      pop\n      pop\n      jump\t// out\n        /* \"BatuFi.sol\":1198:1220  Role[] public roleList */\n    tag_133:\n      0x08\n      dup2\n      dup2\n      sload\n      dup2\n      lt\n      tag_582\n      jumpi\n      0x00\n      dup1\n      revert\n    tag_582:\n      swap1\n      0x00\n      mstore\n      keccak256(0x00, 0x20)\n      swap1\n      0x05\n      mul\n      add\n      0x00\n      swap2\n      pop\n      swap1\n      pop\n      dup1\n      0x00\n      add\n      sload\n      swap1\n      dup1\n      0x01\n      add\n      dup1\n      sload\n      tag_584\n      swap1\n      tag_140\n      jump\t// in\n    tag_584:\n      dup1\n      0x1f\n      add\n      0x20\n      dup1\n      swap2\n      div\n      mul\n      0x20\n      add\n      mload(0x40)\n      swap1\n      dup2\n      add\n      0x40\n      mstore\n      dup1\n      swap3\n      swap2\n      swap1\n      dup2\n      dup2\n      mstore\n      0x20\n      add\n      dup3\n      dup1\n      sload\n      tag_585\n      swap1\n      tag_140\n      jump\t// in\n    tag_585:\n      dup1\n      iszero\n      tag_586\n      jumpi\n      dup1\n      0x1f\n      lt\n      tag_587\n      jumpi\n      0x0100\n      dup1\n      dup4\n      sload\n      div\n      mul\n      dup4\n      mstore\n      swap2\n      0x20\n      add\n      swap2\n      jump(tag_586)\n    tag_587:\n      dup3\n      add\n      swap2\n      swap1\n      0x00\n      mstore\n      keccak256(0x00, 0x20)\n      swap1\n    tag_588:\n      dup2\n      sload\n      dup2\n      mstore\n      swap1\n      0x01\n      add\n      swap1\n      0x20\n      add\n      dup1\n      dup4\n      gt\n      tag_588\n      jumpi\n      dup3\n      swap1\n      sub\n      0x1f\n      and\n      dup3\n      add\n      swap2\n    tag_586:\n      pop\n      pop\n      pop\n      pop\n      pop\n      swap1\n      dup1\n      0x02\n      add\n      dup1\n      sload\n      tag_589\n      swap1\n      tag_140\n      jump\t// in\n    tag_589:\n      dup1\n      0x1f\n      add\n      0x20\n      dup1\n      swap2\n      div\n      mul\n      0x20\n      add\n      mload(0x40)\n      swap1\n      dup2\n      add\n      0x40\n      mstore\n      dup1\n      swap3\n      swap2\n      swap1\n      dup2\n      dup2\n      mstore\n      0x20\n      add\n      dup3\n      dup1\n      sload\n      tag_590\n      swap1\n      tag_140\n      jump\t// in\n    tag_590:\n      dup1\n      iszero\n      tag_591\n      jumpi\n      dup1\n      0x1f\n      lt\n      tag_592\n      jumpi\n      0x0100\n      dup1\n      dup4\n      sload\n      div\n      mul\n      dup4\n      mstore\n      swap2\n      0x20\n      add\n      swap2\n      jump(tag_591)\n    tag_592:\n      dup3\n      add\n      swap2\n      swap1\n      0x00\n      mstore\n      keccak256(0x00, 0x20)\n      swap1\n    tag_593:\n      dup2\n      sload\n      dup2\n      mstore\n      swap1\n      0x01\n      add\n      swap1\n      0x20\n      add\n      dup1\n      dup4\n      gt\n      tag_593\n      jumpi\n      dup3\n      swap1\n      sub\n      0x1f\n      and\n      dup3\n      add\n      swap2\n    tag_591:\n      pop\n      pop\n      pop\n      pop\n      pop\n      swap1\n      dup1\n      0x03\n      add\n      sload\n      swap1\n      dup1\n      0x04\n      add\n      sload\n      swap1\n      pop\n      dup6\n      jump\t// out\n        /* \"BatuFi.sol\":12518:12606  function listRoles() public view returns(Role[] memory) {... */\n    tag_136:\n        /* \"BatuFi.sol\":12559:12572  Role[] memory */\n      0x60\n        /* \"BatuFi.sol\":12591:12599  roleList */\n      0x08\n        /* \"BatuFi.sol\":12584:12599  return roleList */\n      dup1\n      sload\n      dup1\n      0x20\n      mul\n      0x20\n      add\n      mload(0x40)\n      swap1\n      dup2\n      add\n      0x40\n      mstore\n      dup1\n      swap3\n      swap2\n      swap1\n      dup2\n      dup2\n      mstore\n      0x20\n      add\n      0x00\n      swap1\n    tag_595:\n      dup3\n      dup3\n      lt\n      iszero\n      tag_596\n      jumpi\n      dup4\n      dup3\n      swap1\n      0x00\n      mstore\n      keccak256(0x00, 0x20)\n      swap1\n      0x05\n      mul\n      add\n      mload(0x40)\n      dup1\n      0xa0\n      add\n      0x40\n      mstore\n      swap1\n      dup2\n      0x00\n      dup3\n      add\n      sload\n      dup2\n      mstore\n      0x20\n      add\n      0x01\n      dup3\n      add\n      dup1\n      sload\n      tag_598\n      swap1\n      tag_140\n      jump\t// in\n    tag_598:\n      dup1\n      0x1f\n      add\n      0x20\n      dup1\n      swap2\n      div\n      mul\n      0x20\n      add\n      mload(0x40)\n      swap1\n      dup2\n      add\n      0x40\n      mstore\n      dup1\n      swap3\n      swap2\n      swap1\n      dup2\n      dup2\n      mstore\n      0x20\n      add\n      dup3\n      dup1\n      sload\n      tag_599\n      swap1\n      tag_140\n      jump\t// in\n    tag_599:\n      dup1\n      iszero\n      tag_600\n      jumpi\n      dup1\n      0x1f\n      lt\n      tag_601\n      jumpi\n      0x0100\n      dup1\n      dup4\n      sload\n      div\n      mul\n      dup4\n      mstore\n      swap2\n      0x20\n      add\n      swap2\n      jump(tag_600)\n    tag_601:\n      dup3\n      add\n      swap2\n      swap1\n      0x00\n      mstore\n      keccak256(0x00, 0x20)\n      swap1\n    tag_602:\n      dup2\n      sload\n      dup2\n      mstore\n      swap1\n      0x01\n      add\n      swap1\n      0x20\n      add\n      dup1\n      dup4\n      gt\n      tag_602\n      jumpi\n      dup3\n      swap1\n      sub\n      0x1f\n      and\n      dup3\n      add\n      swap2\n    tag_600:\n      pop\n      pop\n      pop\n      pop\n      pop\n      dup2\n      mstore\n      0x20\n      add\n      0x02\n      dup3\n      add\n      dup1\n      sload\n      tag_603\n      swap1\n      tag_140\n      jump\t// in\n    tag_603:\n      dup1\n      0x1f\n      add\n      0x20\n      dup1\n      swap2\n      div\n      mul\n      0x20\n      add\n      mload(0x40)\n      swap1\n      dup2\n      add\n      0x40\n      mstore\n      dup1\n      swap3\n      swap2\n      swap1\n      dup2\n      dup2\n      mstore\n      0x20\n      add\n      dup3\n      dup1\n      sload\n      tag_604\n      swap1\n      tag_140\n      jump\t// in\n    tag_604:\n      dup1\n      iszero\n      tag_605\n      jumpi\n      dup1\n      0x1f\n      lt\n      tag_606\n      jumpi\n      0x0100\n      dup1\n      dup4\n      sload\n      div\n      mul\n      dup4\n      mstore\n      swap2\n      0x20\n      add\n      swap2\n      jump(tag_605)\n    tag_606:\n      dup3\n      add\n      swap2\n      swap1\n      0x00\n      mstore\n      keccak256(0x00, 0x20)\n      swap1\n    tag_607:\n      dup2\n      sload\n      dup2\n      mstore\n      swap1\n      0x01\n      add\n      swap1\n      0x20\n      add\n      dup1\n      dup4\n      gt\n      tag_607\n      jumpi\n      dup3\n      swap1\n      sub\n      0x1f\n      and\n      dup3\n      add\n      swap2\n    tag_605:\n      pop\n      pop\n      pop\n      pop\n      pop\n      dup2\n      mstore\n      0x20\n      add\n      0x03\n      dup3\n      add\n      sload\n      dup2\n      mstore\n      0x20\n      add\n      0x04\n      dup3\n      add\n      sload\n      dup2\n      mstore\n      pop\n      pop\n      dup2\n      mstore\n      0x20\n      add\n      swap1\n      0x01\n      add\n      swap1\n      jump(tag_595)\n    tag_596:\n      pop\n      pop\n      pop\n      pop\n      swap1\n      pop\n        /* \"BatuFi.sol\":12518:12606  function listRoles() public view returns(Role[] memory) {... */\n      swap1\n      jump\t// out\n        /* \"BatuFi.sol\":2054:2235  function compareStrings(string memory a, string memory b) internal pure returns (bool) {... */\n    tag_305:\n        /* \"BatuFi.sol\":2135:2139  bool */\n      0x00\n        /* \"BatuFi.sol\":2223:2224  b */\n      dup2\n        /* \"BatuFi.sol\":2205:2226  abi.encodePacked((b)) */\n      add(0x20, mload(0x40))\n      tag_609\n      swap2\n      swap1\n      tag_260\n      jump\t// in\n    tag_609:\n      mload(0x40)\n      0x20\n      dup2\n      dup4\n      sub\n      sub\n      dup2\n      mstore\n      swap1\n      0x40\n      mstore\n        /* \"BatuFi.sol\":2195:2227  keccak256(abi.encodePacked((b))) */\n      dup1\n      mload\n      swap1\n      0x20\n      add\n      keccak256\n        /* \"BatuFi.sol\":2187:2188  a */\n      dup4\n        /* \"BatuFi.sol\":2169:2190  abi.encodePacked((a)) */\n      add(0x20, mload(0x40))\n      tag_610\n      swap2\n      swap1\n      tag_260\n      jump\t// in\n    tag_610:\n      mload(0x40)\n      0x20\n      dup2\n      dup4\n      sub\n      sub\n      dup2\n      mstore\n      swap1\n      0x40\n      mstore\n        /* \"BatuFi.sol\":2159:2191  keccak256(abi.encodePacked((a))) */\n      dup1\n      mload\n      swap1\n      0x20\n      add\n      keccak256\n        /* \"BatuFi.sol\":2159:2227  keccak256(abi.encodePacked((a))) == keccak256(abi.encodePacked((b))) */\n      eq\n        /* \"BatuFi.sol\":2151:2228  return (keccak256(abi.encodePacked((a))) == keccak256(abi.encodePacked((b)))) */\n      swap1\n      pop\n        /* \"BatuFi.sol\":2054:2235  function compareStrings(string memory a, string memory b) internal pure returns (bool) {... */\n      swap3\n      swap2\n      pop\n      pop\n      jump\t// out\n        /* \"BatuFi.sol\":6599:6983  function getNextRole(string memory _currentRole) internal pure returns (string memory) {... */\n    tag_329:\n        /* \"BatuFi.sol\":6671:6684  string memory */\n      0x60\n        /* \"BatuFi.sol\":6699:6734  compareStrings(_currentRole, \"HOD\") */\n      tag_612\n        /* \"BatuFi.sol\":6714:6726  _currentRole */\n      dup3\n        /* \"BatuFi.sol\":6699:6734  compareStrings(_currentRole, \"HOD\") */\n      mload(0x40)\n      dup1\n      0x40\n      add\n      0x40\n      mstore\n      dup1\n      0x03\n      dup2\n      mstore\n      0x20\n      add\n      0x484f440000000000000000000000000000000000000000000000000000000000\n      dup2\n      mstore\n      pop\n        /* \"BatuFi.sol\":6699:6713  compareStrings */\n      tag_305\n        /* \"BatuFi.sol\":6699:6734  compareStrings(_currentRole, \"HOD\") */\n      jump\t// in\n    tag_612:\n        /* \"BatuFi.sol\":6696:6977  if(compareStrings(_currentRole, \"HOD\")) {... */\n      iszero\n      tag_613\n      jumpi\n        /* \"BatuFi.sol\":6750:6761  return \"FO\" */\n      mload(0x40)\n      dup1\n      0x40\n      add\n      0x40\n      mstore\n      dup1\n      0x02\n      dup2\n      mstore\n      0x20\n      add\n      0x464f000000000000000000000000000000000000000000000000000000000000\n      dup2\n      mstore\n      pop\n      swap1\n      pop\n      jump(tag_611)\n        /* \"BatuFi.sol\":6696:6977  if(compareStrings(_currentRole, \"HOD\")) {... */\n    tag_613:\n        /* \"BatuFi.sol\":6781:6815  compareStrings(_currentRole, \"FO\") */\n      tag_615\n        /* \"BatuFi.sol\":6796:6808  _currentRole */\n      dup3\n        /* \"BatuFi.sol\":6781:6815  compareStrings(_currentRole, \"FO\") */\n      mload(0x40)\n      dup1\n      0x40\n      add\n      0x40\n      mstore\n      dup1\n      0x02\n      dup2\n      mstore\n      0x20\n      add\n      0x464f000000000000000000000000000000000000000000000000000000000000\n      dup2\n      mstore\n      pop\n        /* \"BatuFi.sol\":6781:6795  compareStrings */\n      tag_305\n        /* \"BatuFi.sol\":6781:6815  compareStrings(_currentRole, \"FO\") */\n      jump\t// in\n    tag_615:\n        /* \"BatuFi.sol\":6777:6977  if (compareStrings(_currentRole, \"FO\")) {... */\n      iszero\n      tag_616\n      jumpi\n        /* \"BatuFi.sol\":6831:6843  return \"REG\" */\n      mload(0x40)\n      dup1\n      0x40\n      add\n      0x40\n      mstore\n      dup1\n      0x03\n      dup2\n      mstore\n      0x20\n      add\n      0x5245470000000000000000000000000000000000000000000000000000000000\n      dup2\n      mstore\n      pop\n      swap1\n      pop\n      jump(tag_611)\n        /* \"BatuFi.sol\":6777:6977  if (compareStrings(_currentRole, \"FO\")) {... */\n    tag_616:\n        /* \"BatuFi.sol\":6863:6898  compareStrings(_currentRole, \"REG\") */\n      tag_618\n        /* \"BatuFi.sol\":6878:6890  _currentRole */\n      dup3\n        /* \"BatuFi.sol\":6863:6898  compareStrings(_currentRole, \"REG\") */\n      mload(0x40)\n      dup1\n      0x40\n      add\n      0x40\n      mstore\n      dup1\n      0x03\n      dup2\n      mstore\n      0x20\n      add\n      0x5245470000000000000000000000000000000000000000000000000000000000\n      dup2\n      mstore\n      pop\n        /* \"BatuFi.sol\":6863:6877  compareStrings */\n      tag_305\n        /* \"BatuFi.sol\":6863:6898  compareStrings(_currentRole, \"REG\") */\n      jump\t// in\n    tag_618:\n        /* \"BatuFi.sol\":6859:6977  if (compareStrings(_currentRole, \"REG\")) {... */\n      iszero\n      tag_619\n      jumpi\n        /* \"BatuFi.sol\":6914:6925  return \"VC\" */\n      mload(0x40)\n      dup1\n      0x40\n      add\n      0x40\n      mstore\n      dup1\n      0x02\n      dup2\n      mstore\n      0x20\n      add\n      0x5643000000000000000000000000000000000000000000000000000000000000\n      dup2\n      mstore\n      pop\n      swap1\n      pop\n      jump(tag_611)\n        /* \"BatuFi.sol\":6859:6977  if (compareStrings(_currentRole, \"REG\")) {... */\n    tag_619:\n        /* \"BatuFi.sol\":6955:6966  return \"CC\" */\n      mload(0x40)\n      dup1\n      0x40\n      add\n      0x40\n      mstore\n      dup1\n      0x02\n      dup2\n      mstore\n      0x20\n      add\n      0x4343000000000000000000000000000000000000000000000000000000000000\n      dup2\n      mstore\n      pop\n      swap1\n      pop\n        /* \"BatuFi.sol\":6599:6983  function getNextRole(string memory _currentRole) internal pure returns (string memory) {... */\n    tag_611:\n      swap2\n      swap1\n      pop\n      jump\t// out\n        /* \"BatuFi.sol\":6989:8134  function isTimeWindowOverForRole(string memory _role, uint256 _createdTime) internal view returns (bool) {... */\n    tag_473:\n        /* \"BatuFi.sol\":7088:7092  bool */\n      0x00\n        /* \"BatuFi.sol\":7104:7128  uint256 currentTimestamp */\n      dup1\n        /* \"BatuFi.sol\":7131:7146  block.timestamp */\n      timestamp\n        /* \"BatuFi.sol\":7104:7146  uint256 currentTimestamp = block.timestamp */\n      swap1\n      pop\n        /* \"BatuFi.sol\":7191:7219  compareStrings(_role, \"HOD\") */\n      tag_622\n        /* \"BatuFi.sol\":7206:7211  _role */\n      dup5\n        /* \"BatuFi.sol\":7191:7219  compareStrings(_role, \"HOD\") */\n      mload(0x40)\n      dup1\n      0x40\n      add\n      0x40\n      mstore\n      dup1\n      0x03\n      dup2\n      mstore\n      0x20\n      add\n      0x484f440000000000000000000000000000000000000000000000000000000000\n      dup2\n      mstore\n      pop\n        /* \"BatuFi.sol\":7191:7205  compareStrings */\n      tag_305\n        /* \"BatuFi.sol\":7191:7219  compareStrings(_role, \"HOD\") */\n      jump\t// in\n    tag_622:\n        /* \"BatuFi.sol\":7191:7264  compareStrings(_role, \"HOD\") && ((_createdTime + day) > currentTimestamp) */\n      dup1\n      iszero\n      tag_623\n      jumpi\n      pop\n        /* \"BatuFi.sol\":7247:7263  currentTimestamp */\n      dup1\n        /* \"BatuFi.sol\":7240:7243  day */\n      sload(0x05)\n        /* \"BatuFi.sol\":7225:7237  _createdTime */\n      dup5\n        /* \"BatuFi.sol\":7225:7243  _createdTime + day */\n      tag_624\n      swap2\n      swap1\n      tag_292\n      jump\t// in\n    tag_624:\n        /* \"BatuFi.sol\":7224:7263  (_createdTime + day) > currentTimestamp */\n      gt\n        /* \"BatuFi.sol\":7191:7264  compareStrings(_role, \"HOD\") && ((_createdTime + day) > currentTimestamp) */\n    tag_623:\n        /* \"BatuFi.sol\":7188:8128  if(compareStrings(_role, \"HOD\") && ((_createdTime + day) > currentTimestamp)) {... */\n      iszero\n      tag_625\n      jumpi\n        /* \"BatuFi.sol\":7345:7349  true */\n      0x01\n        /* \"BatuFi.sol\":7338:7349  return true */\n      swap2\n      pop\n      pop\n      jump(tag_621)\n        /* \"BatuFi.sol\":7188:8128  if(compareStrings(_role, \"HOD\") && ((_createdTime + day) > currentTimestamp)) {... */\n    tag_625:\n        /* \"BatuFi.sol\":7368:7395  compareStrings(_role, \"FO\") */\n      tag_627\n        /* \"BatuFi.sol\":7383:7388  _role */\n      dup5\n        /* \"BatuFi.sol\":7368:7395  compareStrings(_role, \"FO\") */\n      mload(0x40)\n      dup1\n      0x40\n      add\n      0x40\n      mstore\n      dup1\n      0x02\n      dup2\n      mstore\n      0x20\n      add\n      0x464f000000000000000000000000000000000000000000000000000000000000\n      dup2\n      mstore\n      pop\n        /* \"BatuFi.sol\":7368:7382  compareStrings */\n      tag_305\n        /* \"BatuFi.sol\":7368:7395  compareStrings(_role, \"FO\") */\n      jump\t// in\n    tag_627:\n        /* \"BatuFi.sol\":7368:7442  compareStrings(_role, \"FO\") && ((_createdTime + 3*day) > currentTimestamp) */\n      dup1\n      iszero\n      tag_628\n      jumpi\n      pop\n        /* \"BatuFi.sol\":7425:7441  currentTimestamp */\n      dup1\n        /* \"BatuFi.sol\":7418:7421  day */\n      sload(0x05)\n        /* \"BatuFi.sol\":7416:7417  3 */\n      0x03\n        /* \"BatuFi.sol\":7416:7421  3*day */\n      tag_629\n      swap2\n      swap1\n      tag_630\n      jump\t// in\n    tag_629:\n        /* \"BatuFi.sol\":7401:7413  _createdTime */\n      dup5\n        /* \"BatuFi.sol\":7401:7421  _createdTime + 3*day */\n      tag_631\n      swap2\n      swap1\n      tag_292\n      jump\t// in\n    tag_631:\n        /* \"BatuFi.sol\":7400:7441  (_createdTime + 3*day) > currentTimestamp */\n      gt\n        /* \"BatuFi.sol\":7368:7442  compareStrings(_role, \"FO\") && ((_createdTime + 3*day) > currentTimestamp) */\n    tag_628:\n        /* \"BatuFi.sol\":7365:8128  if(compareStrings(_role, \"FO\") && ((_createdTime + 3*day) > currentTimestamp)) {... */\n      iszero\n      tag_632\n      jumpi\n        /* \"BatuFi.sol\":7525:7529  true */\n      0x01\n        /* \"BatuFi.sol\":7518:7529  return true */\n      swap2\n      pop\n      pop\n      jump(tag_621)\n        /* \"BatuFi.sol\":7365:8128  if(compareStrings(_role, \"FO\") && ((_createdTime + 3*day) > currentTimestamp)) {... */\n    tag_632:\n        /* \"BatuFi.sol\":7548:7576  compareStrings(_role, \"REG\") */\n      tag_634\n        /* \"BatuFi.sol\":7563:7568  _role */\n      dup5\n        /* \"BatuFi.sol\":7548:7576  compareStrings(_role, \"REG\") */\n      mload(0x40)\n      dup1\n      0x40\n      add\n      0x40\n      mstore\n      dup1\n      0x03\n      dup2\n      mstore\n      0x20\n      add\n      0x5245470000000000000000000000000000000000000000000000000000000000\n      dup2\n      mstore\n      pop\n        /* \"BatuFi.sol\":7548:7562  compareStrings */\n      tag_305\n        /* \"BatuFi.sol\":7548:7576  compareStrings(_role, \"REG\") */\n      jump\t// in\n    tag_634:\n        /* \"BatuFi.sol\":7548:7623  compareStrings(_role, \"REG\") && ((_createdTime + 5*day) > currentTimestamp) */\n      dup1\n      iszero\n      tag_635\n      jumpi\n      pop\n        /* \"BatuFi.sol\":7606:7622  currentTimestamp */\n      dup1\n        /* \"BatuFi.sol\":7599:7602  day */\n      sload(0x05)\n        /* \"BatuFi.sol\":7597:7598  5 */\n      0x05\n        /* \"BatuFi.sol\":7597:7602  5*day */\n      tag_636\n      swap2\n      swap1\n      tag_630\n      jump\t// in\n    tag_636:\n        /* \"BatuFi.sol\":7582:7594  _createdTime */\n      dup5\n        /* \"BatuFi.sol\":7582:7602  _createdTime + 5*day */\n      tag_637\n      swap2\n      swap1\n      tag_292\n      jump\t// in\n    tag_637:\n        /* \"BatuFi.sol\":7581:7622  (_createdTime + 5*day) > currentTimestamp */\n      gt\n        /* \"BatuFi.sol\":7548:7623  compareStrings(_role, \"REG\") && ((_createdTime + 5*day) > currentTimestamp) */\n    tag_635:\n        /* \"BatuFi.sol\":7545:8128  if(compareStrings(_role, \"REG\") && ((_createdTime + 5*day) > currentTimestamp)) {... */\n      iszero\n      tag_638\n      jumpi\n        /* \"BatuFi.sol\":7704:7708  true */\n      0x01\n        /* \"BatuFi.sol\":7697:7708  return true */\n      swap2\n      pop\n      pop\n      jump(tag_621)\n        /* \"BatuFi.sol\":7545:8128  if(compareStrings(_role, \"REG\") && ((_createdTime + 5*day) > currentTimestamp)) {... */\n    tag_638:\n        /* \"BatuFi.sol\":7727:7754  compareStrings(_role, \"VC\") */\n      tag_640\n        /* \"BatuFi.sol\":7742:7747  _role */\n      dup5\n        /* \"BatuFi.sol\":7727:7754  compareStrings(_role, \"VC\") */\n      mload(0x40)\n      dup1\n      0x40\n      add\n      0x40\n      mstore\n      dup1\n      0x02\n      dup2\n      mstore\n      0x20\n      add\n      0x5643000000000000000000000000000000000000000000000000000000000000\n      dup2\n      mstore\n      pop\n        /* \"BatuFi.sol\":7727:7741  compareStrings */\n      tag_305\n        /* \"BatuFi.sol\":7727:7754  compareStrings(_role, \"VC\") */\n      jump\t// in\n    tag_640:\n        /* \"BatuFi.sol\":7727:7801  compareStrings(_role, \"VC\") && ((_createdTime + 7*day) > currentTimestamp) */\n      dup1\n      iszero\n      tag_641\n      jumpi\n      pop\n        /* \"BatuFi.sol\":7784:7800  currentTimestamp */\n      dup1\n        /* \"BatuFi.sol\":7777:7780  day */\n      sload(0x05)\n        /* \"BatuFi.sol\":7775:7776  7 */\n      0x07\n        /* \"BatuFi.sol\":7775:7780  7*day */\n      tag_642\n      swap2\n      swap1\n      tag_630\n      jump\t// in\n    tag_642:\n        /* \"BatuFi.sol\":7760:7772  _createdTime */\n      dup5\n        /* \"BatuFi.sol\":7760:7780  _createdTime + 7*day */\n      tag_643\n      swap2\n      swap1\n      tag_292\n      jump\t// in\n    tag_643:\n        /* \"BatuFi.sol\":7759:7800  (_createdTime + 7*day) > currentTimestamp */\n      gt\n        /* \"BatuFi.sol\":7727:7801  compareStrings(_role, \"VC\") && ((_createdTime + 7*day) > currentTimestamp) */\n    tag_641:\n        /* \"BatuFi.sol\":7724:8128  if(compareStrings(_role, \"VC\") && ((_createdTime + 7*day) > currentTimestamp)) {... */\n      iszero\n      tag_644\n      jumpi\n        /* \"BatuFi.sol\":7882:7886  true */\n      0x01\n        /* \"BatuFi.sol\":7875:7886  return true */\n      swap2\n      pop\n      pop\n      jump(tag_621)\n        /* \"BatuFi.sol\":7724:8128  if(compareStrings(_role, \"VC\") && ((_createdTime + 7*day) > currentTimestamp)) {... */\n    tag_644:\n        /* \"BatuFi.sol\":7905:7932  compareStrings(_role, \"CC\") */\n      tag_646\n        /* \"BatuFi.sol\":7920:7925  _role */\n      dup5\n        /* \"BatuFi.sol\":7905:7932  compareStrings(_role, \"CC\") */\n      mload(0x40)\n      dup1\n      0x40\n      add\n      0x40\n      mstore\n      dup1\n      0x02\n      dup2\n      mstore\n      0x20\n      add\n      0x4343000000000000000000000000000000000000000000000000000000000000\n      dup2\n      mstore\n      pop\n        /* \"BatuFi.sol\":7905:7919  compareStrings */\n      tag_305\n        /* \"BatuFi.sol\":7905:7932  compareStrings(_role, \"CC\") */\n      jump\t// in\n    tag_646:\n        /* \"BatuFi.sol\":7905:7980  compareStrings(_role, \"CC\") && ((_createdTime + 10*day) > currentTimestamp) */\n      dup1\n      iszero\n      tag_647\n      jumpi\n      pop\n        /* \"BatuFi.sol\":7963:7979  currentTimestamp */\n      dup1\n        /* \"BatuFi.sol\":7956:7959  day */\n      sload(0x05)\n        /* \"BatuFi.sol\":7953:7955  10 */\n      0x0a\n        /* \"BatuFi.sol\":7953:7959  10*day */\n      tag_648\n      swap2\n      swap1\n      tag_630\n      jump\t// in\n    tag_648:\n        /* \"BatuFi.sol\":7938:7950  _createdTime */\n      dup5\n        /* \"BatuFi.sol\":7938:7959  _createdTime + 10*day */\n      tag_649\n      swap2\n      swap1\n      tag_292\n      jump\t// in\n    tag_649:\n        /* \"BatuFi.sol\":7937:7979  (_createdTime + 10*day) > currentTimestamp */\n      gt\n        /* \"BatuFi.sol\":7905:7980  compareStrings(_role, \"CC\") && ((_createdTime + 10*day) > currentTimestamp) */\n    tag_647:\n        /* \"BatuFi.sol\":7902:8128  if(compareStrings(_role, \"CC\") && ((_createdTime + 10*day) > currentTimestamp)) {... */\n      iszero\n      tag_650\n      jumpi\n        /* \"BatuFi.sol\":8062:8066  true */\n      0x01\n        /* \"BatuFi.sol\":8055:8066  return true */\n      swap2\n      pop\n      pop\n      jump(tag_621)\n        /* \"BatuFi.sol\":7902:8128  if(compareStrings(_role, \"CC\") && ((_createdTime + 10*day) > currentTimestamp)) {... */\n    tag_650:\n        /* \"BatuFi.sol\":8112:8117  false */\n      0x00\n        /* \"BatuFi.sol\":8105:8117  return false */\n      swap2\n      pop\n      pop\n        /* \"BatuFi.sol\":6989:8134  function isTimeWindowOverForRole(string memory _role, uint256 _createdTime) internal view returns (bool) {... */\n    tag_621:\n      swap3\n      swap2\n      pop\n      pop\n      jump\t// out\n        /* \"BatuFi.sol\":6010:6589  function getUptoApprovalRole(uint256 _amount) internal pure returns(string memory) {... */\n    tag_555:\n        /* \"BatuFi.sol\":6078:6091  string memory */\n      0x60\n        /* \"BatuFi.sol\":6117:6121  5000 */\n      0x1388\n        /* \"BatuFi.sol\":6106:6113  _amount */\n      dup3\n        /* \"BatuFi.sol\":6106:6121  _amount <= 5000 */\n      gt\n        /* \"BatuFi.sol\":6103:6583  if(_amount <= 5000 ) {... */\n      tag_653\n      jumpi\n        /* \"BatuFi.sol\":6165:6177  return \"HOD\" */\n      mload(0x40)\n      dup1\n      0x40\n      add\n      0x40\n      mstore\n      dup1\n      0x03\n      dup2\n      mstore\n      0x20\n      add\n      0x484f440000000000000000000000000000000000000000000000000000000000\n      dup2\n      mstore\n      pop\n      swap1\n      pop\n      jump(tag_652)\n        /* \"BatuFi.sol\":6103:6583  if(_amount <= 5000 ) {... */\n    tag_653:\n        /* \"BatuFi.sol\":6207:6211  5000 */\n      0x1388\n        /* \"BatuFi.sol\":6197:6204  _amount */\n      dup3\n        /* \"BatuFi.sol\":6197:6211  _amount > 5000 */\n      gt\n        /* \"BatuFi.sol\":6197:6231  _amount > 5000 && _amount <= 10000 */\n      dup1\n      iszero\n      tag_655\n      jumpi\n      pop\n        /* \"BatuFi.sol\":6226:6231  10000 */\n      0x2710\n        /* \"BatuFi.sol\":6215:6222  _amount */\n      dup3\n        /* \"BatuFi.sol\":6215:6231  _amount <= 10000 */\n      gt\n      iszero\n        /* \"BatuFi.sol\":6197:6231  _amount > 5000 && _amount <= 10000 */\n    tag_655:\n        /* \"BatuFi.sol\":6193:6583  if (_amount > 5000 && _amount <= 10000 ) {... */\n      iszero\n      tag_656\n      jumpi\n        /* \"BatuFi.sol\":6275:6286  return \"FO\" */\n      mload(0x40)\n      dup1\n      0x40\n      add\n      0x40\n      mstore\n      dup1\n      0x02\n      dup2\n      mstore\n      0x20\n      add\n      0x464f000000000000000000000000000000000000000000000000000000000000\n      dup2\n      mstore\n      pop\n      swap1\n      pop\n      jump(tag_652)\n        /* \"BatuFi.sol\":6193:6583  if (_amount > 5000 && _amount <= 10000 ) {... */\n    tag_656:\n        /* \"BatuFi.sol\":6316:6321  10000 */\n      0x2710\n        /* \"BatuFi.sol\":6306:6313  _amount */\n      dup3\n        /* \"BatuFi.sol\":6306:6321  _amount > 10000 */\n      gt\n        /* \"BatuFi.sol\":6306:6341  _amount > 10000 && _amount <= 75000 */\n      dup1\n      iszero\n      tag_658\n      jumpi\n      pop\n        /* \"BatuFi.sol\":6336:6341  75000 */\n      0x0124f8\n        /* \"BatuFi.sol\":6325:6332  _amount */\n      dup3\n        /* \"BatuFi.sol\":6325:6341  _amount <= 75000 */\n      gt\n      iszero\n        /* \"BatuFi.sol\":6306:6341  _amount > 10000 && _amount <= 75000 */\n    tag_658:\n        /* \"BatuFi.sol\":6302:6583  if (_amount > 10000 && _amount <= 75000) {... */\n      iszero\n      tag_659\n      jumpi\n        /* \"BatuFi.sol\":6384:6396  return \"REG\" */\n      mload(0x40)\n      dup1\n      0x40\n      add\n      0x40\n      mstore\n      dup1\n      0x03\n      dup2\n      mstore\n      0x20\n      add\n      0x5245470000000000000000000000000000000000000000000000000000000000\n      dup2\n      mstore\n      pop\n      swap1\n      pop\n      jump(tag_652)\n        /* \"BatuFi.sol\":6302:6583  if (_amount > 10000 && _amount <= 75000) {... */\n    tag_659:\n        /* \"BatuFi.sol\":6426:6431  75000 */\n      0x0124f8\n        /* \"BatuFi.sol\":6416:6423  _amount */\n      dup3\n        /* \"BatuFi.sol\":6416:6431  _amount > 75000 */\n      gt\n        /* \"BatuFi.sol\":6416:6452  _amount > 75000 && _amount <= 300000 */\n      dup1\n      iszero\n      tag_661\n      jumpi\n      pop\n        /* \"BatuFi.sol\":6446:6452  300000 */\n      0x0493e0\n        /* \"BatuFi.sol\":6435:6442  _amount */\n      dup3\n        /* \"BatuFi.sol\":6435:6452  _amount <= 300000 */\n      gt\n      iszero\n        /* \"BatuFi.sol\":6416:6452  _amount > 75000 && _amount <= 300000 */\n    tag_661:\n        /* \"BatuFi.sol\":6412:6583  if (_amount > 75000 && _amount <= 300000) {... */\n      iszero\n      tag_662\n      jumpi\n        /* \"BatuFi.sol\":6494:6505  return \"VC\" */\n      mload(0x40)\n      dup1\n      0x40\n      add\n      0x40\n      mstore\n      dup1\n      0x02\n      dup2\n      mstore\n      0x20\n      add\n      0x5643000000000000000000000000000000000000000000000000000000000000\n      dup2\n      mstore\n      pop\n      swap1\n      pop\n      jump(tag_652)\n        /* \"BatuFi.sol\":6412:6583  if (_amount > 75000 && _amount <= 300000) {... */\n    tag_662:\n        /* \"BatuFi.sol\":6561:6572  return \"CC\" */\n      mload(0x40)\n      dup1\n      0x40\n      add\n      0x40\n      mstore\n      dup1\n      0x02\n      dup2\n      mstore\n      0x20\n      add\n      0x4343000000000000000000000000000000000000000000000000000000000000\n      dup2\n      mstore\n      pop\n      swap1\n      pop\n        /* \"BatuFi.sol\":6010:6589  function getUptoApprovalRole(uint256 _amount) internal pure returns(string memory) {... */\n    tag_652:\n      swap2\n      swap1\n      pop\n      jump\t// out\n    tag_257:\n      mload(0x40)\n      dup1\n      0x40\n      add\n      0x40\n      mstore\n      dup1\n      0x60\n      dup2\n      mstore\n      0x20\n      add\n      0x60\n      dup2\n      mstore\n      pop\n      swap1\n      jump\t// out\n        /* \"#utility.yul\":7:82   */\n    tag_664:\n        /* \"#utility.yul\":40:46   */\n      0x00\n        /* \"#utility.yul\":73:75   */\n      0x40\n        /* \"#utility.yul\":67:76   */\n      mload\n        /* \"#utility.yul\":57:76   */\n      swap1\n      pop\n        /* \"#utility.yul\":7:82   */\n      swap1\n      jump\t// out\n        /* \"#utility.yul\":88:205   */\n    tag_665:\n        /* \"#utility.yul\":197:198   */\n      0x00\n        /* \"#utility.yul\":194:195   */\n      dup1\n        /* \"#utility.yul\":187:199   */\n      revert\n        /* \"#utility.yul\":211:328   */\n    tag_666:\n        /* \"#utility.yul\":320:321   */\n      0x00\n        /* \"#utility.yul\":317:318   */\n      dup1\n        /* \"#utility.yul\":310:322   */\n      revert\n        /* \"#utility.yul\":334:451   */\n    tag_667:\n        /* \"#utility.yul\":443:444   */\n      0x00\n        /* \"#utility.yul\":440:441   */\n      dup1\n        /* \"#utility.yul\":433:445   */\n      revert\n        /* \"#utility.yul\":457:574   */\n    tag_668:\n        /* \"#utility.yul\":566:567   */\n      0x00\n        /* \"#utility.yul\":563:564   */\n      dup1\n        /* \"#utility.yul\":556:568   */\n      revert\n        /* \"#utility.yul\":580:682   */\n    tag_669:\n        /* \"#utility.yul\":621:627   */\n      0x00\n        /* \"#utility.yul\":672:674   */\n      0x1f\n        /* \"#utility.yul\":668:675   */\n      not\n        /* \"#utility.yul\":663:665   */\n      0x1f\n        /* \"#utility.yul\":656:661   */\n      dup4\n        /* \"#utility.yul\":652:666   */\n      add\n        /* \"#utility.yul\":648:676   */\n      and\n        /* \"#utility.yul\":638:676   */\n      swap1\n      pop\n        /* \"#utility.yul\":580:682   */\n      swap2\n      swap1\n      pop\n      jump\t// out\n        /* \"#utility.yul\":688:868   */\n    tag_670:\n        /* \"#utility.yul\":736:813   */\n      0x4e487b7100000000000000000000000000000000000000000000000000000000\n        /* \"#utility.yul\":733:734   */\n      0x00\n        /* \"#utility.yul\":726:814   */\n      mstore\n        /* \"#utility.yul\":833:837   */\n      0x41\n        /* \"#utility.yul\":830:831   */\n      0x04\n        /* \"#utility.yul\":823:838   */\n      mstore\n        /* \"#utility.yul\":857:861   */\n      0x24\n        /* \"#utility.yul\":854:855   */\n      0x00\n        /* \"#utility.yul\":847:862   */\n      revert\n        /* \"#utility.yul\":874:1155   */\n    tag_671:\n        /* \"#utility.yul\":957:984   */\n      tag_779\n        /* \"#utility.yul\":979:983   */\n      dup3\n        /* \"#utility.yul\":957:984   */\n      tag_669\n      jump\t// in\n    tag_779:\n        /* \"#utility.yul\":949:955   */\n      dup2\n        /* \"#utility.yul\":945:985   */\n      add\n        /* \"#utility.yul\":1087:1093   */\n      dup2\n        /* \"#utility.yul\":1075:1085   */\n      dup2\n        /* \"#utility.yul\":1072:1094   */\n      lt\n        /* \"#utility.yul\":1051:1069   */\n      0xffffffffffffffff\n        /* \"#utility.yul\":1039:1049   */\n      dup3\n        /* \"#utility.yul\":1036:1070   */\n      gt\n        /* \"#utility.yul\":1033:1095   */\n      or\n        /* \"#utility.yul\":1030:1118   */\n      iszero\n      tag_780\n      jumpi\n        /* \"#utility.yul\":1098:1116   */\n      tag_781\n      tag_670\n      jump\t// in\n    tag_781:\n        /* \"#utility.yul\":1030:1118   */\n    tag_780:\n        /* \"#utility.yul\":1138:1148   */\n      dup1\n        /* \"#utility.yul\":1134:1136   */\n      0x40\n        /* \"#utility.yul\":1127:1149   */\n      mstore\n        /* \"#utility.yul\":917:1155   */\n      pop\n        /* \"#utility.yul\":874:1155   */\n      pop\n      pop\n      jump\t// out\n        /* \"#utility.yul\":1161:1290   */\n    tag_672:\n        /* \"#utility.yul\":1195:1201   */\n      0x00\n        /* \"#utility.yul\":1222:1242   */\n      tag_783\n      tag_664\n      jump\t// in\n    tag_783:\n        /* \"#utility.yul\":1212:1242   */\n      swap1\n      pop\n        /* \"#utility.yul\":1251:1284   */\n      tag_784\n        /* \"#utility.yul\":1279:1283   */\n      dup3\n        /* \"#utility.yul\":1271:1277   */\n      dup3\n        /* \"#utility.yul\":1251:1284   */\n      tag_671\n      jump\t// in\n    tag_784:\n        /* \"#utility.yul\":1161:1290   */\n      swap2\n      swap1\n      pop\n      jump\t// out\n        /* \"#utility.yul\":1296:1604   */\n    tag_673:\n        /* \"#utility.yul\":1358:1362   */\n      0x00\n        /* \"#utility.yul\":1448:1466   */\n      0xffffffffffffffff\n        /* \"#utility.yul\":1440:1446   */\n      dup3\n        /* \"#utility.yul\":1437:1467   */\n      gt\n        /* \"#utility.yul\":1434:1490   */\n      iszero\n      tag_786\n      jumpi\n        /* \"#utility.yul\":1470:1488   */\n      tag_787\n      tag_670\n      jump\t// in\n    tag_787:\n        /* \"#utility.yul\":1434:1490   */\n    tag_786:\n        /* \"#utility.yul\":1508:1537   */\n      tag_788\n        /* \"#utility.yul\":1530:1536   */\n      dup3\n        /* \"#utility.yul\":1508:1537   */\n      tag_669\n      jump\t// in\n    tag_788:\n        /* \"#utility.yul\":1500:1537   */\n      swap1\n      pop\n        /* \"#utility.yul\":1592:1596   */\n      0x20\n        /* \"#utility.yul\":1586:1590   */\n      dup2\n        /* \"#utility.yul\":1582:1597   */\n      add\n        /* \"#utility.yul\":1574:1597   */\n      swap1\n      pop\n        /* \"#utility.yul\":1296:1604   */\n      swap2\n      swap1\n      pop\n      jump\t// out\n        /* \"#utility.yul\":1610:1756   */\n    tag_674:\n        /* \"#utility.yul\":1707:1713   */\n      dup3\n        /* \"#utility.yul\":1702:1705   */\n      dup2\n        /* \"#utility.yul\":1697:1700   */\n      dup4\n        /* \"#utility.yul\":1684:1714   */\n      calldatacopy\n        /* \"#utility.yul\":1748:1749   */\n      0x00\n        /* \"#utility.yul\":1739:1745   */\n      dup4\n        /* \"#utility.yul\":1734:1737   */\n      dup4\n        /* \"#utility.yul\":1730:1746   */\n      add\n        /* \"#utility.yul\":1723:1750   */\n      mstore\n        /* \"#utility.yul\":1610:1756   */\n      pop\n      pop\n      pop\n      jump\t// out\n        /* \"#utility.yul\":1762:2187   */\n    tag_675:\n        /* \"#utility.yul\":1840:1845   */\n      0x00\n        /* \"#utility.yul\":1865:1931   */\n      tag_791\n        /* \"#utility.yul\":1881:1930   */\n      tag_792\n        /* \"#utility.yul\":1923:1929   */\n      dup5\n        /* \"#utility.yul\":1881:1930   */\n      tag_673\n      jump\t// in\n    tag_792:\n        /* \"#utility.yul\":1865:1931   */\n      tag_672\n      jump\t// in\n    tag_791:\n        /* \"#utility.yul\":1856:1931   */\n      swap1\n      pop\n        /* \"#utility.yul\":1954:1960   */\n      dup3\n        /* \"#utility.yul\":1947:1952   */\n      dup2\n        /* \"#utility.yul\":1940:1961   */\n      mstore\n        /* \"#utility.yul\":1992:1996   */\n      0x20\n        /* \"#utility.yul\":1985:1990   */\n      dup2\n        /* \"#utility.yul\":1981:1997   */\n      add\n        /* \"#utility.yul\":2030:2033   */\n      dup5\n        /* \"#utility.yul\":2021:2027   */\n      dup5\n        /* \"#utility.yul\":2016:2019   */\n      dup5\n        /* \"#utility.yul\":2012:2028   */\n      add\n        /* \"#utility.yul\":2009:2034   */\n      gt\n        /* \"#utility.yul\":2006:2118   */\n      iszero\n      tag_793\n      jumpi\n        /* \"#utility.yul\":2037:2116   */\n      tag_794\n      tag_668\n      jump\t// in\n    tag_794:\n        /* \"#utility.yul\":2006:2118   */\n    tag_793:\n        /* \"#utility.yul\":2127:2181   */\n      tag_795\n        /* \"#utility.yul\":2174:2180   */\n      dup5\n        /* \"#utility.yul\":2169:2172   */\n      dup3\n        /* \"#utility.yul\":2164:2167   */\n      dup6\n        /* \"#utility.yul\":2127:2181   */\n      tag_674\n      jump\t// in\n    tag_795:\n        /* \"#utility.yul\":1846:2187   */\n      pop\n        /* \"#utility.yul\":1762:2187   */\n      swap4\n      swap3\n      pop\n      pop\n      pop\n      jump\t// out\n        /* \"#utility.yul\":2207:2547   */\n    tag_676:\n        /* \"#utility.yul\":2263:2268   */\n      0x00\n        /* \"#utility.yul\":2312:2315   */\n      dup3\n        /* \"#utility.yul\":2305:2309   */\n      0x1f\n        /* \"#utility.yul\":2297:2303   */\n      dup4\n        /* \"#utility.yul\":2293:2310   */\n      add\n        /* \"#utility.yul\":2289:2316   */\n      slt\n        /* \"#utility.yul\":2279:2401   */\n      tag_797\n      jumpi\n        /* \"#utility.yul\":2320:2399   */\n      tag_798\n      tag_667\n      jump\t// in\n    tag_798:\n        /* \"#utility.yul\":2279:2401   */\n    tag_797:\n        /* \"#utility.yul\":2437:2443   */\n      dup2\n        /* \"#utility.yul\":2424:2444   */\n      calldataload\n        /* \"#utility.yul\":2462:2541   */\n      tag_799\n        /* \"#utility.yul\":2537:2540   */\n      dup5\n        /* \"#utility.yul\":2529:2535   */\n      dup3\n        /* \"#utility.yul\":2522:2526   */\n      0x20\n        /* \"#utility.yul\":2514:2520   */\n      dup7\n        /* \"#utility.yul\":2510:2527   */\n      add\n        /* \"#utility.yul\":2462:2541   */\n      tag_675\n      jump\t// in\n    tag_799:\n        /* \"#utility.yul\":2453:2541   */\n      swap2\n      pop\n        /* \"#utility.yul\":2269:2547   */\n      pop\n        /* \"#utility.yul\":2207:2547   */\n      swap3\n      swap2\n      pop\n      pop\n      jump\t// out\n        /* \"#utility.yul\":2553:3062   */\n    tag_34:\n        /* \"#utility.yul\":2622:2628   */\n      0x00\n        /* \"#utility.yul\":2671:2673   */\n      0x20\n        /* \"#utility.yul\":2659:2668   */\n      dup3\n        /* \"#utility.yul\":2650:2657   */\n      dup5\n        /* \"#utility.yul\":2646:2669   */\n      sub\n        /* \"#utility.yul\":2642:2674   */\n      slt\n        /* \"#utility.yul\":2639:2758   */\n      iszero\n      tag_801\n      jumpi\n        /* \"#utility.yul\":2677:2756   */\n      tag_802\n      tag_665\n      jump\t// in\n    tag_802:\n        /* \"#utility.yul\":2639:2758   */\n    tag_801:\n        /* \"#utility.yul\":2825:2826   */\n      0x00\n        /* \"#utility.yul\":2814:2823   */\n      dup3\n        /* \"#utility.yul\":2810:2827   */\n      add\n        /* \"#utility.yul\":2797:2828   */\n      calldataload\n        /* \"#utility.yul\":2855:2873   */\n      0xffffffffffffffff\n        /* \"#utility.yul\":2847:2853   */\n      dup2\n        /* \"#utility.yul\":2844:2874   */\n      gt\n        /* \"#utility.yul\":2841:2958   */\n      iszero\n      tag_803\n      jumpi\n        /* \"#utility.yul\":2877:2956   */\n      tag_804\n      tag_666\n      jump\t// in\n    tag_804:\n        /* \"#utility.yul\":2841:2958   */\n    tag_803:\n        /* \"#utility.yul\":2982:3045   */\n      tag_805\n        /* \"#utility.yul\":3037:3044   */\n      dup5\n        /* \"#utility.yul\":3028:3034   */\n      dup3\n        /* \"#utility.yul\":3017:3026   */\n      dup6\n        /* \"#utility.yul\":3013:3035   */\n      add\n        /* \"#utility.yul\":2982:3045   */\n      tag_676\n      jump\t// in\n    tag_805:\n        /* \"#utility.yul\":2972:3045   */\n      swap2\n      pop\n        /* \"#utility.yul\":2768:3055   */\n      pop\n        /* \"#utility.yul\":2553:3062   */\n      swap3\n      swap2\n      pop\n      pop\n      jump\t// out\n        /* \"#utility.yul\":3068:3167   */\n    tag_677:\n        /* \"#utility.yul\":3120:3126   */\n      0x00\n        /* \"#utility.yul\":3154:3159   */\n      dup2\n        /* \"#utility.yul\":3148:3160   */\n      mload\n        /* \"#utility.yul\":3138:3160   */\n      swap1\n      pop\n        /* \"#utility.yul\":3068:3167   */\n      swap2\n      swap1\n      pop\n      jump\t// out\n        /* \"#utility.yul\":3173:3342   */\n    tag_678:\n        /* \"#utility.yul\":3257:3268   */\n      0x00\n        /* \"#utility.yul\":3291:3297   */\n      dup3\n        /* \"#utility.yul\":3286:3289   */\n      dup3\n        /* \"#utility.yul\":3279:3298   */\n      mstore\n        /* \"#utility.yul\":3331:3335   */\n      0x20\n        /* \"#utility.yul\":3326:3329   */\n      dup3\n        /* \"#utility.yul\":3322:3336   */\n      add\n        /* \"#utility.yul\":3307:3336   */\n      swap1\n      pop\n        /* \"#utility.yul\":3173:3342   */\n      swap3\n      swap2\n      pop\n      pop\n      jump\t// out\n        /* \"#utility.yul\":3348:3594   */\n    tag_679:\n        /* \"#utility.yul\":3429:3430   */\n      0x00\n        /* \"#utility.yul\":3439:3552   */\n    tag_809:\n        /* \"#utility.yul\":3453:3459   */\n      dup4\n        /* \"#utility.yul\":3450:3451   */\n      dup2\n        /* \"#utility.yul\":3447:3460   */\n      lt\n        /* \"#utility.yul\":3439:3552   */\n      iszero\n      tag_811\n      jumpi\n        /* \"#utility.yul\":3538:3539   */\n      dup1\n        /* \"#utility.yul\":3533:3536   */\n      dup3\n        /* \"#utility.yul\":3529:3540   */\n      add\n        /* \"#utility.yul\":3523:3541   */\n      mload\n        /* \"#utility.yul\":3519:3520   */\n      dup2\n        /* \"#utility.yul\":3514:3517   */\n      dup5\n        /* \"#utility.yul\":3510:3521   */\n      add\n        /* \"#utility.yul\":3503:3542   */\n      mstore\n        /* \"#utility.yul\":3475:3477   */\n      0x20\n        /* \"#utility.yul\":3472:3473   */\n      dup2\n        /* \"#utility.yul\":3468:3478   */\n      add\n        /* \"#utility.yul\":3463:3478   */\n      swap1\n      pop\n        /* \"#utility.yul\":3439:3552   */\n      jump(tag_809)\n    tag_811:\n        /* \"#utility.yul\":3586:3587   */\n      0x00\n        /* \"#utility.yul\":3577:3583   */\n      dup5\n        /* \"#utility.yul\":3572:3575   */\n      dup5\n        /* \"#utility.yul\":3568:3584   */\n      add\n        /* \"#utility.yul\":3561:3588   */\n      mstore\n        /* \"#utility.yul\":3410:3594   */\n      pop\n        /* \"#utility.yul\":3348:3594   */\n      pop\n      pop\n      pop\n      jump\t// out\n        /* \"#utility.yul\":3600:3977   */\n    tag_680:\n        /* \"#utility.yul\":3688:3691   */\n      0x00\n        /* \"#utility.yul\":3716:3755   */\n      tag_813\n        /* \"#utility.yul\":3749:3754   */\n      dup3\n        /* \"#utility.yul\":3716:3755   */\n      tag_677\n      jump\t// in\n    tag_813:\n        /* \"#utility.yul\":3771:3842   */\n      tag_814\n        /* \"#utility.yul\":3835:3841   */\n      dup2\n        /* \"#utility.yul\":3830:3833   */\n      dup6\n        /* \"#utility.yul\":3771:3842   */\n      tag_678\n      jump\t// in\n    tag_814:\n        /* \"#utility.yul\":3764:3842   */\n      swap4\n      pop\n        /* \"#utility.yul\":3851:3916   */\n      tag_815\n        /* \"#utility.yul\":3909:3915   */\n      dup2\n        /* \"#utility.yul\":3904:3907   */\n      dup6\n        /* \"#utility.yul\":3897:3901   */\n      0x20\n        /* \"#utility.yul\":3890:3895   */\n      dup7\n        /* \"#utility.yul\":3886:3902   */\n      add\n        /* \"#utility.yul\":3851:3916   */\n      tag_679\n      jump\t// in\n    tag_815:\n        /* \"#utility.yul\":3941:3970   */\n      tag_816\n        /* \"#utility.yul\":3963:3969   */\n      dup2\n        /* \"#utility.yul\":3941:3970   */\n      tag_669\n      jump\t// in\n    tag_816:\n        /* \"#utility.yul\":3936:3939   */\n      dup5\n        /* \"#utility.yul\":3932:3971   */\n      add\n        /* \"#utility.yul\":3925:3971   */\n      swap2\n      pop\n        /* \"#utility.yul\":3692:3977   */\n      pop\n        /* \"#utility.yul\":3600:3977   */\n      swap3\n      swap2\n      pop\n      pop\n      jump\t// out\n        /* \"#utility.yul\":3983:4900   */\n    tag_37:\n        /* \"#utility.yul\":4240:4244   */\n      0x00\n        /* \"#utility.yul\":4278:4281   */\n      0x80\n        /* \"#utility.yul\":4267:4276   */\n      dup3\n        /* \"#utility.yul\":4263:4282   */\n      add\n        /* \"#utility.yul\":4255:4282   */\n      swap1\n      pop\n        /* \"#utility.yul\":4328:4337   */\n      dup2\n        /* \"#utility.yul\":4322:4326   */\n      dup2\n        /* \"#utility.yul\":4318:4338   */\n      sub\n        /* \"#utility.yul\":4314:4315   */\n      0x00\n        /* \"#utility.yul\":4303:4312   */\n      dup4\n        /* \"#utility.yul\":4299:4316   */\n      add\n        /* \"#utility.yul\":4292:4339   */\n      mstore\n        /* \"#utility.yul\":4356:4434   */\n      tag_818\n        /* \"#utility.yul\":4429:4433   */\n      dup2\n        /* \"#utility.yul\":4420:4426   */\n      dup8\n        /* \"#utility.yul\":4356:4434   */\n      tag_680\n      jump\t// in\n    tag_818:\n        /* \"#utility.yul\":4348:4434   */\n      swap1\n      pop\n        /* \"#utility.yul\":4481:4490   */\n      dup2\n        /* \"#utility.yul\":4475:4479   */\n      dup2\n        /* \"#utility.yul\":4471:4491   */\n      sub\n        /* \"#utility.yul\":4466:4468   */\n      0x20\n        /* \"#utility.yul\":4455:4464   */\n      dup4\n        /* \"#utility.yul\":4451:4469   */\n      add\n        /* \"#utility.yul\":4444:4492   */\n      mstore\n        /* \"#utility.yul\":4509:4587   */\n      tag_819\n        /* \"#utility.yul\":4582:4586   */\n      dup2\n        /* \"#utility.yul\":4573:4579   */\n      dup7\n        /* \"#utility.yul\":4509:4587   */\n      tag_680\n      jump\t// in\n    tag_819:\n        /* \"#utility.yul\":4501:4587   */\n      swap1\n      pop\n        /* \"#utility.yul\":4634:4643   */\n      dup2\n        /* \"#utility.yul\":4628:4632   */\n      dup2\n        /* \"#utility.yul\":4624:4644   */\n      sub\n        /* \"#utility.yul\":4619:4621   */\n      0x40\n        /* \"#utility.yul\":4608:4617   */\n      dup4\n        /* \"#utility.yul\":4604:4622   */\n      add\n        /* \"#utility.yul\":4597:4645   */\n      mstore\n        /* \"#utility.yul\":4662:4740   */\n      tag_820\n        /* \"#utility.yul\":4735:4739   */\n      dup2\n        /* \"#utility.yul\":4726:4732   */\n      dup6\n        /* \"#utility.yul\":4662:4740   */\n      tag_680\n      jump\t// in\n    tag_820:\n        /* \"#utility.yul\":4654:4740   */\n      swap1\n      pop\n        /* \"#utility.yul\":4787:4796   */\n      dup2\n        /* \"#utility.yul\":4781:4785   */\n      dup2\n        /* \"#utility.yul\":4777:4797   */\n      sub\n        /* \"#utility.yul\":4772:4774   */\n      0x60\n        /* \"#utility.yul\":4761:4770   */\n      dup4\n        /* \"#utility.yul\":4757:4775   */\n      add\n        /* \"#utility.yul\":4750:4798   */\n      mstore\n        /* \"#utility.yul\":4815:4893   */\n      tag_821\n        /* \"#utility.yul\":4888:4892   */\n      dup2\n        /* \"#utility.yul\":4879:4885   */\n      dup5\n        /* \"#utility.yul\":4815:4893   */\n      tag_680\n      jump\t// in\n    tag_821:\n        /* \"#utility.yul\":4807:4893   */\n      swap1\n      pop\n        /* \"#utility.yul\":3983:4900   */\n      swap6\n      swap5\n      pop\n      pop\n      pop\n      pop\n      pop\n      jump\t// out\n        /* \"#utility.yul\":4906:5032   */\n    tag_681:\n        /* \"#utility.yul\":4943:4950   */\n      0x00\n        /* \"#utility.yul\":4983:5025   */\n      0xffffffffffffffffffffffffffffffffffffffff\n        /* \"#utility.yul\":4976:4981   */\n      dup3\n        /* \"#utility.yul\":4972:5026   */\n      and\n        /* \"#utility.yul\":4961:5026   */\n      swap1\n      pop\n        /* \"#utility.yul\":4906:5032   */\n      swap2\n      swap1\n      pop\n      jump\t// out\n        /* \"#utility.yul\":5038:5134   */\n    tag_682:\n        /* \"#utility.yul\":5075:5082   */\n      0x00\n        /* \"#utility.yul\":5104:5128   */\n      tag_824\n        /* \"#utility.yul\":5122:5127   */\n      dup3\n        /* \"#utility.yul\":5104:5128   */\n      tag_681\n      jump\t// in\n    tag_824:\n        /* \"#utility.yul\":5093:5128   */\n      swap1\n      pop\n        /* \"#utility.yul\":5038:5134   */\n      swap2\n      swap1\n      pop\n      jump\t// out\n        /* \"#utility.yul\":5140:5258   */\n    tag_683:\n        /* \"#utility.yul\":5227:5251   */\n      tag_826\n        /* \"#utility.yul\":5245:5250   */\n      dup2\n        /* \"#utility.yul\":5227:5251   */\n      tag_682\n      jump\t// in\n    tag_826:\n        /* \"#utility.yul\":5222:5225   */\n      dup3\n        /* \"#utility.yul\":5215:5252   */\n      mstore\n        /* \"#utility.yul\":5140:5258   */\n      pop\n      pop\n      jump\t// out\n        /* \"#utility.yul\":5264:5486   */\n    tag_41:\n        /* \"#utility.yul\":5357:5361   */\n      0x00\n        /* \"#utility.yul\":5395:5397   */\n      0x20\n        /* \"#utility.yul\":5384:5393   */\n      dup3\n        /* \"#utility.yul\":5380:5398   */\n      add\n        /* \"#utility.yul\":5372:5398   */\n      swap1\n      pop\n        /* \"#utility.yul\":5408:5479   */\n      tag_828\n        /* \"#utility.yul\":5476:5477   */\n      0x00\n        /* \"#utility.yul\":5465:5474   */\n      dup4\n        /* \"#utility.yul\":5461:5478   */\n      add\n        /* \"#utility.yul\":5452:5458   */\n      dup5\n        /* \"#utility.yul\":5408:5479   */\n      tag_683\n      jump\t// in\n    tag_828:\n        /* \"#utility.yul\":5264:5486   */\n      swap3\n      swap2\n      pop\n      pop\n      jump\t// out\n        /* \"#utility.yul\":5492:5569   */\n    tag_684:\n        /* \"#utility.yul\":5529:5536   */\n      0x00\n        /* \"#utility.yul\":5558:5563   */\n      dup2\n        /* \"#utility.yul\":5547:5563   */\n      swap1\n      pop\n        /* \"#utility.yul\":5492:5569   */\n      swap2\n      swap1\n      pop\n      jump\t// out\n        /* \"#utility.yul\":5575:5697   */\n    tag_685:\n        /* \"#utility.yul\":5648:5672   */\n      tag_831\n        /* \"#utility.yul\":5666:5671   */\n      dup2\n        /* \"#utility.yul\":5648:5672   */\n      tag_684\n      jump\t// in\n    tag_831:\n        /* \"#utility.yul\":5641:5646   */\n      dup2\n        /* \"#utility.yul\":5638:5673   */\n      eq\n        /* \"#utility.yul\":5628:5691   */\n      tag_832\n      jumpi\n        /* \"#utility.yul\":5687:5688   */\n      0x00\n        /* \"#utility.yul\":5684:5685   */\n      dup1\n        /* \"#utility.yul\":5677:5689   */\n      revert\n        /* \"#utility.yul\":5628:5691   */\n    tag_832:\n        /* \"#utility.yul\":5575:5697   */\n      pop\n      jump\t// out\n        /* \"#utility.yul\":5703:5842   */\n    tag_686:\n        /* \"#utility.yul\":5749:5754   */\n      0x00\n        /* \"#utility.yul\":5787:5793   */\n      dup2\n        /* \"#utility.yul\":5774:5794   */\n      calldataload\n        /* \"#utility.yul\":5765:5794   */\n      swap1\n      pop\n        /* \"#utility.yul\":5803:5836   */\n      tag_834\n        /* \"#utility.yul\":5830:5835   */\n      dup2\n        /* \"#utility.yul\":5803:5836   */\n      tag_685\n      jump\t// in\n    tag_834:\n        /* \"#utility.yul\":5703:5842   */\n      swap3\n      swap2\n      pop\n      pop\n      jump\t// out\n        /* \"#utility.yul\":5848:6177   */\n    tag_44:\n        /* \"#utility.yul\":5907:5913   */\n      0x00\n        /* \"#utility.yul\":5956:5958   */\n      0x20\n        /* \"#utility.yul\":5944:5953   */\n      dup3\n        /* \"#utility.yul\":5935:5942   */\n      dup5\n        /* \"#utility.yul\":5931:5954   */\n      sub\n        /* \"#utility.yul\":5927:5959   */\n      slt\n        /* \"#utility.yul\":5924:6043   */\n      iszero\n      tag_836\n      jumpi\n        /* \"#utility.yul\":5962:6041   */\n      tag_837\n      tag_665\n      jump\t// in\n    tag_837:\n        /* \"#utility.yul\":5924:6043   */\n    tag_836:\n        /* \"#utility.yul\":6082:6083   */\n      0x00\n        /* \"#utility.yul\":6107:6160   */\n      tag_838\n        /* \"#utility.yul\":6152:6159   */\n      dup5\n        /* \"#utility.yul\":6143:6149   */\n      dup3\n        /* \"#utility.yul\":6132:6141   */\n      dup6\n        /* \"#utility.yul\":6128:6150   */\n      add\n        /* \"#utility.yul\":6107:6160   */\n      tag_686\n      jump\t// in\n    tag_838:\n        /* \"#utility.yul\":6097:6160   */\n      swap2\n      pop\n        /* \"#utility.yul\":6053:6170   */\n      pop\n        /* \"#utility.yul\":5848:6177   */\n      swap3\n      swap2\n      pop\n      pop\n      jump\t// out\n        /* \"#utility.yul\":6183:6301   */\n    tag_687:\n        /* \"#utility.yul\":6270:6294   */\n      tag_840\n        /* \"#utility.yul\":6288:6293   */\n      dup2\n        /* \"#utility.yul\":6270:6294   */\n      tag_684\n      jump\t// in\n    tag_840:\n        /* \"#utility.yul\":6265:6268   */\n      dup3\n        /* \"#utility.yul\":6258:6295   */\n      mstore\n        /* \"#utility.yul\":6183:6301   */\n      pop\n      pop\n      jump\t// out\n        /* \"#utility.yul\":6307:8276   */\n    tag_47:\n        /* \"#utility.yul\":6821:6825   */\n      0x00\n        /* \"#utility.yul\":6859:6862   */\n      0x0160\n        /* \"#utility.yul\":6848:6857   */\n      dup3\n        /* \"#utility.yul\":6844:6863   */\n      add\n        /* \"#utility.yul\":6836:6863   */\n      swap1\n      pop\n        /* \"#utility.yul\":6909:6918   */\n      dup2\n        /* \"#utility.yul\":6903:6907   */\n      dup2\n        /* \"#utility.yul\":6899:6919   */\n      sub\n        /* \"#utility.yul\":6895:6896   */\n      0x00\n        /* \"#utility.yul\":6884:6893   */\n      dup4\n        /* \"#utility.yul\":6880:6897   */\n      add\n        /* \"#utility.yul\":6873:6920   */\n      mstore\n        /* \"#utility.yul\":6937:7015   */\n      tag_842\n        /* \"#utility.yul\":7010:7014   */\n      dup2\n        /* \"#utility.yul\":7001:7007   */\n      dup15\n        /* \"#utility.yul\":6937:7015   */\n      tag_680\n      jump\t// in\n    tag_842:\n        /* \"#utility.yul\":6929:7015   */\n      swap1\n      pop\n        /* \"#utility.yul\":7062:7071   */\n      dup2\n        /* \"#utility.yul\":7056:7060   */\n      dup2\n        /* \"#utility.yul\":7052:7072   */\n      sub\n        /* \"#utility.yul\":7047:7049   */\n      0x20\n        /* \"#utility.yul\":7036:7045   */\n      dup4\n        /* \"#utility.yul\":7032:7050   */\n      add\n        /* \"#utility.yul\":7025:7073   */\n      mstore\n        /* \"#utility.yul\":7090:7168   */\n      tag_843\n        /* \"#utility.yul\":7163:7167   */\n      dup2\n        /* \"#utility.yul\":7154:7160   */\n      dup14\n        /* \"#utility.yul\":7090:7168   */\n      tag_680\n      jump\t// in\n    tag_843:\n        /* \"#utility.yul\":7082:7168   */\n      swap1\n      pop\n        /* \"#utility.yul\":7215:7224   */\n      dup2\n        /* \"#utility.yul\":7209:7213   */\n      dup2\n        /* \"#utility.yul\":7205:7225   */\n      sub\n        /* \"#utility.yul\":7200:7202   */\n      0x40\n        /* \"#utility.yul\":7189:7198   */\n      dup4\n        /* \"#utility.yul\":7185:7203   */\n      add\n        /* \"#utility.yul\":7178:7226   */\n      mstore\n        /* \"#utility.yul\":7243:7321   */\n      tag_844\n        /* \"#utility.yul\":7316:7320   */\n      dup2\n        /* \"#utility.yul\":7307:7313   */\n      dup13\n        /* \"#utility.yul\":7243:7321   */\n      tag_680\n      jump\t// in\n    tag_844:\n        /* \"#utility.yul\":7235:7321   */\n      swap1\n      pop\n        /* \"#utility.yul\":7368:7377   */\n      dup2\n        /* \"#utility.yul\":7362:7366   */\n      dup2\n        /* \"#utility.yul\":7358:7378   */\n      sub\n        /* \"#utility.yul\":7353:7355   */\n      0x60\n        /* \"#utility.yul\":7342:7351   */\n      dup4\n        /* \"#utility.yul\":7338:7356   */\n      add\n        /* \"#utility.yul\":7331:7379   */\n      mstore\n        /* \"#utility.yul\":7396:7474   */\n      tag_845\n        /* \"#utility.yul\":7469:7473   */\n      dup2\n        /* \"#utility.yul\":7460:7466   */\n      dup12\n        /* \"#utility.yul\":7396:7474   */\n      tag_680\n      jump\t// in\n    tag_845:\n        /* \"#utility.yul\":7388:7474   */\n      swap1\n      pop\n        /* \"#utility.yul\":7484:7557   */\n      tag_846\n        /* \"#utility.yul\":7552:7555   */\n      0x80\n        /* \"#utility.yul\":7541:7550   */\n      dup4\n        /* \"#utility.yul\":7537:7556   */\n      add\n        /* \"#utility.yul\":7528:7534   */\n      dup11\n        /* \"#utility.yul\":7484:7557   */\n      tag_687\n      jump\t// in\n    tag_846:\n        /* \"#utility.yul\":7605:7614   */\n      dup2\n        /* \"#utility.yul\":7599:7603   */\n      dup2\n        /* \"#utility.yul\":7595:7615   */\n      sub\n        /* \"#utility.yul\":7589:7592   */\n      0xa0\n        /* \"#utility.yul\":7578:7587   */\n      dup4\n        /* \"#utility.yul\":7574:7593   */\n      add\n        /* \"#utility.yul\":7567:7616   */\n      mstore\n        /* \"#utility.yul\":7633:7711   */\n      tag_847\n        /* \"#utility.yul\":7706:7710   */\n      dup2\n        /* \"#utility.yul\":7697:7703   */\n      dup10\n        /* \"#utility.yul\":7633:7711   */\n      tag_680\n      jump\t// in\n    tag_847:\n        /* \"#utility.yul\":7625:7711   */\n      swap1\n      pop\n        /* \"#utility.yul\":7721:7794   */\n      tag_848\n        /* \"#utility.yul\":7789:7792   */\n      0xc0\n        /* \"#utility.yul\":7778:7787   */\n      dup4\n        /* \"#utility.yul\":7774:7793   */\n      add\n        /* \"#utility.yul\":7765:7771   */\n      dup9\n        /* \"#utility.yul\":7721:7794   */\n      tag_683\n      jump\t// in\n    tag_848:\n        /* \"#utility.yul\":7804:7877   */\n      tag_849\n        /* \"#utility.yul\":7872:7875   */\n      0xe0\n        /* \"#utility.yul\":7861:7870   */\n      dup4\n        /* \"#utility.yul\":7857:7876   */\n      add\n        /* \"#utility.yul\":7848:7854   */\n      dup8\n        /* \"#utility.yul\":7804:7877   */\n      tag_687\n      jump\t// in\n    tag_849:\n        /* \"#utility.yul\":7925:7934   */\n      dup2\n        /* \"#utility.yul\":7919:7923   */\n      dup2\n        /* \"#utility.yul\":7915:7935   */\n      sub\n        /* \"#utility.yul\":7909:7912   */\n      0x0100\n        /* \"#utility.yul\":7898:7907   */\n      dup4\n        /* \"#utility.yul\":7894:7913   */\n      add\n        /* \"#utility.yul\":7887:7936   */\n      mstore\n        /* \"#utility.yul\":7953:8031   */\n      tag_850\n        /* \"#utility.yul\":8026:8030   */\n      dup2\n        /* \"#utility.yul\":8017:8023   */\n      dup7\n        /* \"#utility.yul\":7953:8031   */\n      tag_680\n      jump\t// in\n    tag_850:\n        /* \"#utility.yul\":7945:8031   */\n      swap1\n      pop\n        /* \"#utility.yul\":8079:8088   */\n      dup2\n        /* \"#utility.yul\":8073:8077   */\n      dup2\n        /* \"#utility.yul\":8069:8089   */\n      sub\n        /* \"#utility.yul\":8063:8066   */\n      0x0120\n        /* \"#utility.yul\":8052:8061   */\n      dup4\n        /* \"#utility.yul\":8048:8067   */\n      add\n        /* \"#utility.yul\":8041:8090   */\n      mstore\n        /* \"#utility.yul\":8107:8185   */\n      tag_851\n        /* \"#utility.yul\":8180:8184   */\n      dup2\n        /* \"#utility.yul\":8171:8177   */\n      dup6\n        /* \"#utility.yul\":8107:8185   */\n      tag_680\n      jump\t// in\n    tag_851:\n        /* \"#utility.yul\":8099:8185   */\n      swap1\n      pop\n        /* \"#utility.yul\":8195:8269   */\n      tag_852\n        /* \"#utility.yul\":8264:8267   */\n      0x0140\n        /* \"#utility.yul\":8253:8262   */\n      dup4\n        /* \"#utility.yul\":8249:8268   */\n      add\n        /* \"#utility.yul\":8239:8246   */\n      dup5\n        /* \"#utility.yul\":8195:8269   */\n      tag_687\n      jump\t// in\n    tag_852:\n        /* \"#utility.yul\":6307:8276   */\n      swap13\n      swap12\n      pop\n      pop\n      pop\n      pop\n      pop\n      pop\n      pop\n      pop\n      pop\n      pop\n      pop\n      pop\n      jump\t// out\n        /* \"#utility.yul\":8282:9128   */\n    tag_52:\n        /* \"#utility.yul\":8527:8531   */\n      0x00\n        /* \"#utility.yul\":8565:8568   */\n      0xa0\n        /* \"#utility.yul\":8554:8563   */\n      dup3\n        /* \"#utility.yul\":8550:8569   */\n      add\n        /* \"#utility.yul\":8542:8569   */\n      swap1\n      pop\n        /* \"#utility.yul\":8579:8650   */\n      tag_854\n        /* \"#utility.yul\":8647:8648   */\n      0x00\n        /* \"#utility.yul\":8636:8645   */\n      dup4\n        /* \"#utility.yul\":8632:8649   */\n      add\n        /* \"#utility.yul\":8623:8629   */\n      dup9\n        /* \"#utility.yul\":8579:8650   */\n      tag_687\n      jump\t// in\n    tag_854:\n        /* \"#utility.yul\":8697:8706   */\n      dup2\n        /* \"#utility.yul\":8691:8695   */\n      dup2\n        /* \"#utility.yul\":8687:8707   */\n      sub\n        /* \"#utility.yul\":8682:8684   */\n      0x20\n        /* \"#utility.yul\":8671:8680   */\n      dup4\n        /* \"#utility.yul\":8667:8685   */\n      add\n        /* \"#utility.yul\":8660:8708   */\n      mstore\n        /* \"#utility.yul\":8725:8803   */\n      tag_855\n        /* \"#utility.yul\":8798:8802   */\n      dup2\n        /* \"#utility.yul\":8789:8795   */\n      dup8\n        /* \"#utility.yul\":8725:8803   */\n      tag_680\n      jump\t// in\n    tag_855:\n        /* \"#utility.yul\":8717:8803   */\n      swap1\n      pop\n        /* \"#utility.yul\":8850:8859   */\n      dup2\n        /* \"#utility.yul\":8844:8848   */\n      dup2\n        /* \"#utility.yul\":8840:8860   */\n      sub\n        /* \"#utility.yul\":8835:8837   */\n      0x40\n        /* \"#utility.yul\":8824:8833   */\n      dup4\n        /* \"#utility.yul\":8820:8838   */\n      add\n        /* \"#utility.yul\":8813:8861   */\n      mstore\n        /* \"#utility.yul\":8878:8956   */\n      tag_856\n        /* \"#utility.yul\":8951:8955   */\n      dup2\n        /* \"#utility.yul\":8942:8948   */\n      dup7\n        /* \"#utility.yul\":8878:8956   */\n      tag_680\n      jump\t// in\n    tag_856:\n        /* \"#utility.yul\":8870:8956   */\n      swap1\n      pop\n        /* \"#utility.yul\":8966:9038   */\n      tag_857\n        /* \"#utility.yul\":9034:9036   */\n      0x60\n        /* \"#utility.yul\":9023:9032   */\n      dup4\n        /* \"#utility.yul\":9019:9037   */\n      add\n        /* \"#utility.yul\":9010:9016   */\n      dup6\n        /* \"#utility.yul\":8966:9038   */\n      tag_687\n      jump\t// in\n    tag_857:\n        /* \"#utility.yul\":9048:9121   */\n      tag_858\n        /* \"#utility.yul\":9116:9119   */\n      0x80\n        /* \"#utility.yul\":9105:9114   */\n      dup4\n        /* \"#utility.yul\":9101:9120   */\n      add\n        /* \"#utility.yul\":9092:9098   */\n      dup5\n        /* \"#utility.yul\":9048:9121   */\n      tag_687\n      jump\t// in\n    tag_858:\n        /* \"#utility.yul\":8282:9128   */\n      swap7\n      swap6\n      pop\n      pop\n      pop\n      pop\n      pop\n      pop\n      jump\t// out\n        /* \"#utility.yul\":9134:9275   */\n    tag_688:\n        /* \"#utility.yul\":9228:9234   */\n      0x00\n        /* \"#utility.yul\":9262:9267   */\n      dup2\n        /* \"#utility.yul\":9256:9268   */\n      mload\n        /* \"#utility.yul\":9246:9268   */\n      swap1\n      pop\n        /* \"#utility.yul\":9134:9275   */\n      swap2\n      swap1\n      pop\n      jump\t// out\n        /* \"#utility.yul\":9281:9492   */\n    tag_689:\n        /* \"#utility.yul\":9407:9418   */\n      0x00\n        /* \"#utility.yul\":9441:9447   */\n      dup3\n        /* \"#utility.yul\":9436:9439   */\n      dup3\n        /* \"#utility.yul\":9429:9448   */\n      mstore\n        /* \"#utility.yul\":9481:9485   */\n      0x20\n        /* \"#utility.yul\":9476:9479   */\n      dup3\n        /* \"#utility.yul\":9472:9486   */\n      add\n        /* \"#utility.yul\":9457:9486   */\n      swap1\n      pop\n        /* \"#utility.yul\":9281:9492   */\n      swap3\n      swap2\n      pop\n      pop\n      jump\t// out\n        /* \"#utility.yul\":9498:9657   */\n    tag_690:\n        /* \"#utility.yul\":9592:9596   */\n      0x00\n        /* \"#utility.yul\":9615:9618   */\n      dup2\n        /* \"#utility.yul\":9607:9618   */\n      swap1\n      pop\n        /* \"#utility.yul\":9645:9649   */\n      0x20\n        /* \"#utility.yul\":9640:9643   */\n      dup3\n        /* \"#utility.yul\":9636:9650   */\n      add\n        /* \"#utility.yul\":9628:9650   */\n      swap1\n      pop\n        /* \"#utility.yul\":9498:9657   */\n      swap2\n      swap1\n      pop\n      jump\t// out\n        /* \"#utility.yul\":9663:9822   */\n    tag_691:\n        /* \"#utility.yul\":9737:9748   */\n      0x00\n        /* \"#utility.yul\":9771:9777   */\n      dup3\n        /* \"#utility.yul\":9766:9769   */\n      dup3\n        /* \"#utility.yul\":9759:9778   */\n      mstore\n        /* \"#utility.yul\":9811:9815   */\n      0x20\n        /* \"#utility.yul\":9806:9809   */\n      dup3\n        /* \"#utility.yul\":9802:9816   */\n      add\n        /* \"#utility.yul\":9787:9816   */\n      swap1\n      pop\n        /* \"#utility.yul\":9663:9822   */\n      swap3\n      swap2\n      pop\n      pop\n      jump\t// out\n        /* \"#utility.yul\":9828:10185   */\n    tag_692:\n        /* \"#utility.yul\":9906:9909   */\n      0x00\n        /* \"#utility.yul\":9934:9973   */\n      tag_864\n        /* \"#utility.yul\":9967:9972   */\n      dup3\n        /* \"#utility.yul\":9934:9973   */\n      tag_677\n      jump\t// in\n    tag_864:\n        /* \"#utility.yul\":9989:10050   */\n      tag_865\n        /* \"#utility.yul\":10043:10049   */\n      dup2\n        /* \"#utility.yul\":10038:10041   */\n      dup6\n        /* \"#utility.yul\":9989:10050   */\n      tag_691\n      jump\t// in\n    tag_865:\n        /* \"#utility.yul\":9982:10050   */\n      swap4\n      pop\n        /* \"#utility.yul\":10059:10124   */\n      tag_866\n        /* \"#utility.yul\":10117:10123   */\n      dup2\n        /* \"#utility.yul\":10112:10115   */\n      dup6\n        /* \"#utility.yul\":10105:10109   */\n      0x20\n        /* \"#utility.yul\":10098:10103   */\n      dup7\n        /* \"#utility.yul\":10094:10110   */\n      add\n        /* \"#utility.yul\":10059:10124   */\n      tag_679\n      jump\t// in\n    tag_866:\n        /* \"#utility.yul\":10149:10178   */\n      tag_867\n        /* \"#utility.yul\":10171:10177   */\n      dup2\n        /* \"#utility.yul\":10149:10178   */\n      tag_669\n      jump\t// in\n    tag_867:\n        /* \"#utility.yul\":10144:10147   */\n      dup5\n        /* \"#utility.yul\":10140:10179   */\n      add\n        /* \"#utility.yul\":10133:10179   */\n      swap2\n      pop\n        /* \"#utility.yul\":9910:10185   */\n      pop\n        /* \"#utility.yul\":9828:10185   */\n      swap3\n      swap2\n      pop\n      pop\n      jump\t// out\n        /* \"#utility.yul\":10191:10299   */\n    tag_693:\n        /* \"#utility.yul\":10268:10292   */\n      tag_869\n        /* \"#utility.yul\":10286:10291   */\n      dup2\n        /* \"#utility.yul\":10268:10292   */\n      tag_684\n      jump\t// in\n    tag_869:\n        /* \"#utility.yul\":10263:10266   */\n      dup3\n        /* \"#utility.yul\":10256:10293   */\n      mstore\n        /* \"#utility.yul\":10191:10299   */\n      pop\n      pop\n      jump\t// out\n        /* \"#utility.yul\":10305:10413   */\n    tag_694:\n        /* \"#utility.yul\":10382:10406   */\n      tag_871\n        /* \"#utility.yul\":10400:10405   */\n      dup2\n        /* \"#utility.yul\":10382:10406   */\n      tag_682\n      jump\t// in\n    tag_871:\n        /* \"#utility.yul\":10377:10380   */\n      dup3\n        /* \"#utility.yul\":10370:10407   */\n      mstore\n        /* \"#utility.yul\":10305:10413   */\n      pop\n      pop\n      jump\t// out\n        /* \"#utility.yul\":10481:13131   */\n    tag_695:\n        /* \"#utility.yul\":10594:10597   */\n      0x00\n        /* \"#utility.yul\":10630:10636   */\n      0x0160\n        /* \"#utility.yul\":10625:10628   */\n      dup4\n        /* \"#utility.yul\":10621:10637   */\n      add\n        /* \"#utility.yul\":10717:10721   */\n      0x00\n        /* \"#utility.yul\":10710:10715   */\n      dup4\n        /* \"#utility.yul\":10706:10722   */\n      add\n        /* \"#utility.yul\":10700:10723   */\n      mload\n        /* \"#utility.yul\":10770:10773   */\n      dup5\n        /* \"#utility.yul\":10764:10768   */\n      dup3\n        /* \"#utility.yul\":10760:10774   */\n      sub\n        /* \"#utility.yul\":10753:10757   */\n      0x00\n        /* \"#utility.yul\":10748:10751   */\n      dup7\n        /* \"#utility.yul\":10744:10758   */\n      add\n        /* \"#utility.yul\":10737:10775   */\n      mstore\n        /* \"#utility.yul\":10796:10869   */\n      tag_873\n        /* \"#utility.yul\":10864:10868   */\n      dup3\n        /* \"#utility.yul\":10850:10862   */\n      dup3\n        /* \"#utility.yul\":10796:10869   */\n      tag_692\n      jump\t// in\n    tag_873:\n        /* \"#utility.yul\":10788:10869   */\n      swap2\n      pop\n        /* \"#utility.yul\":10647:10880   */\n      pop\n        /* \"#utility.yul\":10965:10969   */\n      0x20\n        /* \"#utility.yul\":10958:10963   */\n      dup4\n        /* \"#utility.yul\":10954:10970   */\n      add\n        /* \"#utility.yul\":10948:10971   */\n      mload\n        /* \"#utility.yul\":11018:11021   */\n      dup5\n        /* \"#utility.yul\":11012:11016   */\n      dup3\n        /* \"#utility.yul\":11008:11022   */\n      sub\n        /* \"#utility.yul\":11001:11005   */\n      0x20\n        /* \"#utility.yul\":10996:10999   */\n      dup7\n        /* \"#utility.yul\":10992:11006   */\n      add\n        /* \"#utility.yul\":10985:11023   */\n      mstore\n        /* \"#utility.yul\":11044:11117   */\n      tag_874\n        /* \"#utility.yul\":11112:11116   */\n      dup3\n        /* \"#utility.yul\":11098:11110   */\n      dup3\n        /* \"#utility.yul\":11044:11117   */\n      tag_692\n      jump\t// in\n    tag_874:\n        /* \"#utility.yul\":11036:11117   */\n      swap2\n      pop\n        /* \"#utility.yul\":10890:11128   */\n      pop\n        /* \"#utility.yul\":11209:11213   */\n      0x40\n        /* \"#utility.yul\":11202:11207   */\n      dup4\n        /* \"#utility.yul\":11198:11214   */\n      add\n        /* \"#utility.yul\":11192:11215   */\n      mload\n        /* \"#utility.yul\":11262:11265   */\n      dup5\n        /* \"#utility.yul\":11256:11260   */\n      dup3\n        /* \"#utility.yul\":11252:11266   */\n      sub\n        /* \"#utility.yul\":11245:11249   */\n      0x40\n        /* \"#utility.yul\":11240:11243   */\n      dup7\n        /* \"#utility.yul\":11236:11250   */\n      add\n        /* \"#utility.yul\":11229:11267   */\n      mstore\n        /* \"#utility.yul\":11288:11361   */\n      tag_875\n        /* \"#utility.yul\":11356:11360   */\n      dup3\n        /* \"#utility.yul\":11342:11354   */\n      dup3\n        /* \"#utility.yul\":11288:11361   */\n      tag_692\n      jump\t// in\n    tag_875:\n        /* \"#utility.yul\":11280:11361   */\n      swap2\n      pop\n        /* \"#utility.yul\":11138:11372   */\n      pop\n        /* \"#utility.yul\":11457:11461   */\n      0x60\n        /* \"#utility.yul\":11450:11455   */\n      dup4\n        /* \"#utility.yul\":11446:11462   */\n      add\n        /* \"#utility.yul\":11440:11463   */\n      mload\n        /* \"#utility.yul\":11510:11513   */\n      dup5\n        /* \"#utility.yul\":11504:11508   */\n      dup3\n        /* \"#utility.yul\":11500:11514   */\n      sub\n        /* \"#utility.yul\":11493:11497   */\n      0x60\n        /* \"#utility.yul\":11488:11491   */\n      dup7\n        /* \"#utility.yul\":11484:11498   */\n      add\n        /* \"#utility.yul\":11477:11515   */\n      mstore\n        /* \"#utility.yul\":11536:11609   */\n      tag_876\n        /* \"#utility.yul\":11604:11608   */\n      dup3\n        /* \"#utility.yul\":11590:11602   */\n      dup3\n        /* \"#utility.yul\":11536:11609   */\n      tag_692\n      jump\t// in\n    tag_876:\n        /* \"#utility.yul\":11528:11609   */\n      swap2\n      pop\n        /* \"#utility.yul\":11382:11620   */\n      pop\n        /* \"#utility.yul\":11704:11708   */\n      0x80\n        /* \"#utility.yul\":11697:11702   */\n      dup4\n        /* \"#utility.yul\":11693:11709   */\n      add\n        /* \"#utility.yul\":11687:11710   */\n      mload\n        /* \"#utility.yul\":11723:11786   */\n      tag_877\n        /* \"#utility.yul\":11780:11784   */\n      0x80\n        /* \"#utility.yul\":11775:11778   */\n      dup7\n        /* \"#utility.yul\":11771:11785   */\n      add\n        /* \"#utility.yul\":11757:11769   */\n      dup3\n        /* \"#utility.yul\":11723:11786   */\n      tag_693\n      jump\t// in\n    tag_877:\n        /* \"#utility.yul\":11630:11796   */\n      pop\n        /* \"#utility.yul\":11880:11884   */\n      0xa0\n        /* \"#utility.yul\":11873:11878   */\n      dup4\n        /* \"#utility.yul\":11869:11885   */\n      add\n        /* \"#utility.yul\":11863:11886   */\n      mload\n        /* \"#utility.yul\":11933:11936   */\n      dup5\n        /* \"#utility.yul\":11927:11931   */\n      dup3\n        /* \"#utility.yul\":11923:11937   */\n      sub\n        /* \"#utility.yul\":11916:11920   */\n      0xa0\n        /* \"#utility.yul\":11911:11914   */\n      dup7\n        /* \"#utility.yul\":11907:11921   */\n      add\n        /* \"#utility.yul\":11900:11938   */\n      mstore\n        /* \"#utility.yul\":11959:12032   */\n      tag_878\n        /* \"#utility.yul\":12027:12031   */\n      dup3\n        /* \"#utility.yul\":12013:12025   */\n      dup3\n        /* \"#utility.yul\":11959:12032   */\n      tag_692\n      jump\t// in\n    tag_878:\n        /* \"#utility.yul\":11951:12032   */\n      swap2\n      pop\n        /* \"#utility.yul\":11806:12043   */\n      pop\n        /* \"#utility.yul\":12128:12132   */\n      0xc0\n        /* \"#utility.yul\":12121:12126   */\n      dup4\n        /* \"#utility.yul\":12117:12133   */\n      add\n        /* \"#utility.yul\":12111:12134   */\n      mload\n        /* \"#utility.yul\":12147:12210   */\n      tag_879\n        /* \"#utility.yul\":12204:12208   */\n      0xc0\n        /* \"#utility.yul\":12199:12202   */\n      dup7\n        /* \"#utility.yul\":12195:12209   */\n      add\n        /* \"#utility.yul\":12181:12193   */\n      dup3\n        /* \"#utility.yul\":12147:12210   */\n      tag_694\n      jump\t// in\n    tag_879:\n        /* \"#utility.yul\":12053:12220   */\n      pop\n        /* \"#utility.yul\":12304:12308   */\n      0xe0\n        /* \"#utility.yul\":12297:12302   */\n      dup4\n        /* \"#utility.yul\":12293:12309   */\n      add\n        /* \"#utility.yul\":12287:12310   */\n      mload\n        /* \"#utility.yul\":12323:12386   */\n      tag_880\n        /* \"#utility.yul\":12380:12384   */\n      0xe0\n        /* \"#utility.yul\":12375:12378   */\n      dup7\n        /* \"#utility.yul\":12371:12385   */\n      add\n        /* \"#utility.yul\":12357:12369   */\n      dup3\n        /* \"#utility.yul\":12323:12386   */\n      tag_693\n      jump\t// in\n    tag_880:\n        /* \"#utility.yul\":12230:12396   */\n      pop\n        /* \"#utility.yul\":12493:12499   */\n      0x0100\n        /* \"#utility.yul\":12486:12491   */\n      dup4\n        /* \"#utility.yul\":12482:12500   */\n      add\n        /* \"#utility.yul\":12476:12501   */\n      mload\n        /* \"#utility.yul\":12550:12553   */\n      dup5\n        /* \"#utility.yul\":12544:12548   */\n      dup3\n        /* \"#utility.yul\":12540:12554   */\n      sub\n        /* \"#utility.yul\":12531:12537   */\n      0x0100\n        /* \"#utility.yul\":12526:12529   */\n      dup7\n        /* \"#utility.yul\":12522:12538   */\n      add\n        /* \"#utility.yul\":12515:12555   */\n      mstore\n        /* \"#utility.yul\":12576:12649   */\n      tag_881\n        /* \"#utility.yul\":12644:12648   */\n      dup3\n        /* \"#utility.yul\":12630:12642   */\n      dup3\n        /* \"#utility.yul\":12576:12649   */\n      tag_692\n      jump\t// in\n    tag_881:\n        /* \"#utility.yul\":12568:12649   */\n      swap2\n      pop\n        /* \"#utility.yul\":12406:12660   */\n      pop\n        /* \"#utility.yul\":12754:12760   */\n      0x0120\n        /* \"#utility.yul\":12747:12752   */\n      dup4\n        /* \"#utility.yul\":12743:12761   */\n      add\n        /* \"#utility.yul\":12737:12762   */\n      mload\n        /* \"#utility.yul\":12811:12814   */\n      dup5\n        /* \"#utility.yul\":12805:12809   */\n      dup3\n        /* \"#utility.yul\":12801:12815   */\n      sub\n        /* \"#utility.yul\":12792:12798   */\n      0x0120\n        /* \"#utility.yul\":12787:12790   */\n      dup7\n        /* \"#utility.yul\":12783:12799   */\n      add\n        /* \"#utility.yul\":12776:12816   */\n      mstore\n        /* \"#utility.yul\":12837:12910   */\n      tag_882\n        /* \"#utility.yul\":12905:12909   */\n      dup3\n        /* \"#utility.yul\":12891:12903   */\n      dup3\n        /* \"#utility.yul\":12837:12910   */\n      tag_692\n      jump\t// in\n    tag_882:\n        /* \"#utility.yul\":12829:12910   */\n      swap2\n      pop\n        /* \"#utility.yul\":12670:12921   */\n      pop\n        /* \"#utility.yul\":13008:13014   */\n      0x0140\n        /* \"#utility.yul\":13001:13006   */\n      dup4\n        /* \"#utility.yul\":12997:13015   */\n      add\n        /* \"#utility.yul\":12991:13016   */\n      mload\n        /* \"#utility.yul\":13029:13094   */\n      tag_883\n        /* \"#utility.yul\":13086:13092   */\n      0x0140\n        /* \"#utility.yul\":13081:13084   */\n      dup7\n        /* \"#utility.yul\":13077:13093   */\n      add\n        /* \"#utility.yul\":13063:13075   */\n      dup3\n        /* \"#utility.yul\":13029:13094   */\n      tag_693\n      jump\t// in\n    tag_883:\n        /* \"#utility.yul\":12931:13104   */\n      pop\n        /* \"#utility.yul\":13121:13125   */\n      dup1\n        /* \"#utility.yul\":13114:13125   */\n      swap2\n      pop\n        /* \"#utility.yul\":10599:13131   */\n      pop\n        /* \"#utility.yul\":10481:13131   */\n      swap3\n      swap2\n      pop\n      pop\n      jump\t// out\n        /* \"#utility.yul\":13137:13401   */\n    tag_696:\n        /* \"#utility.yul\":13260:13270   */\n      0x00\n        /* \"#utility.yul\":13295:13395   */\n      tag_885\n        /* \"#utility.yul\":13391:13394   */\n      dup4\n        /* \"#utility.yul\":13383:13389   */\n      dup4\n        /* \"#utility.yul\":13295:13395   */\n      tag_695\n      jump\t// in\n    tag_885:\n        /* \"#utility.yul\":13281:13395   */\n      swap1\n      pop\n        /* \"#utility.yul\":13137:13401   */\n      swap3\n      swap2\n      pop\n      pop\n      jump\t// out\n        /* \"#utility.yul\":13407:13547   */\n    tag_697:\n        /* \"#utility.yul\":13504:13508   */\n      0x00\n        /* \"#utility.yul\":13536:13540   */\n      0x20\n        /* \"#utility.yul\":13531:13534   */\n      dup3\n        /* \"#utility.yul\":13527:13541   */\n      add\n        /* \"#utility.yul\":13519:13541   */\n      swap1\n      pop\n        /* \"#utility.yul\":13407:13547   */\n      swap2\n      swap1\n      pop\n      jump\t// out\n        /* \"#utility.yul\":13619:14746   */\n    tag_698:\n        /* \"#utility.yul\":13792:13795   */\n      0x00\n        /* \"#utility.yul\":13821:13902   */\n      tag_888\n        /* \"#utility.yul\":13896:13901   */\n      dup3\n        /* \"#utility.yul\":13821:13902   */\n      tag_688\n      jump\t// in\n    tag_888:\n        /* \"#utility.yul\":13918:14031   */\n      tag_889\n        /* \"#utility.yul\":14024:14030   */\n      dup2\n        /* \"#utility.yul\":14019:14022   */\n      dup6\n        /* \"#utility.yul\":13918:14031   */\n      tag_689\n      jump\t// in\n    tag_889:\n        /* \"#utility.yul\":13911:14031   */\n      swap4\n      pop\n        /* \"#utility.yul\":14057:14060   */\n      dup4\n        /* \"#utility.yul\":14102:14106   */\n      0x20\n        /* \"#utility.yul\":14094:14100   */\n      dup3\n        /* \"#utility.yul\":14090:14107   */\n      mul\n        /* \"#utility.yul\":14085:14088   */\n      dup6\n        /* \"#utility.yul\":14081:14108   */\n      add\n        /* \"#utility.yul\":14132:14215   */\n      tag_890\n        /* \"#utility.yul\":14209:14214   */\n      dup6\n        /* \"#utility.yul\":14132:14215   */\n      tag_690\n      jump\t// in\n    tag_890:\n        /* \"#utility.yul\":14238:14245   */\n      dup1\n        /* \"#utility.yul\":14269:14270   */\n      0x00\n        /* \"#utility.yul\":14254:14701   */\n    tag_891:\n        /* \"#utility.yul\":14279:14285   */\n      dup6\n        /* \"#utility.yul\":14276:14277   */\n      dup2\n        /* \"#utility.yul\":14273:14286   */\n      lt\n        /* \"#utility.yul\":14254:14701   */\n      iszero\n      tag_893\n      jumpi\n        /* \"#utility.yul\":14350:14359   */\n      dup5\n        /* \"#utility.yul\":14344:14348   */\n      dup5\n        /* \"#utility.yul\":14340:14360   */\n      sub\n        /* \"#utility.yul\":14335:14338   */\n      dup10\n        /* \"#utility.yul\":14328:14361   */\n      mstore\n        /* \"#utility.yul\":14401:14407   */\n      dup2\n        /* \"#utility.yul\":14395:14408   */\n      mload\n        /* \"#utility.yul\":14429:14547   */\n      tag_894\n        /* \"#utility.yul\":14542:14546   */\n      dup6\n        /* \"#utility.yul\":14527:14540   */\n      dup3\n        /* \"#utility.yul\":14429:14547   */\n      tag_696\n      jump\t// in\n    tag_894:\n        /* \"#utility.yul\":14421:14547   */\n      swap5\n      pop\n        /* \"#utility.yul\":14570:14657   */\n      tag_895\n        /* \"#utility.yul\":14650:14656   */\n      dup4\n        /* \"#utility.yul\":14570:14657   */\n      tag_697\n      jump\t// in\n    tag_895:\n        /* \"#utility.yul\":14560:14657   */\n      swap3\n      pop\n        /* \"#utility.yul\":14686:14690   */\n      0x20\n        /* \"#utility.yul\":14681:14684   */\n      dup11\n        /* \"#utility.yul\":14677:14691   */\n      add\n        /* \"#utility.yul\":14670:14691   */\n      swap10\n      pop\n        /* \"#utility.yul\":14314:14701   */\n      pop\n        /* \"#utility.yul\":14301:14302   */\n      0x01\n        /* \"#utility.yul\":14298:14299   */\n      dup2\n        /* \"#utility.yul\":14294:14303   */\n      add\n        /* \"#utility.yul\":14289:14303   */\n      swap1\n      pop\n        /* \"#utility.yul\":14254:14701   */\n      jump(tag_891)\n    tag_893:\n        /* \"#utility.yul\":14258:14272   */\n      pop\n        /* \"#utility.yul\":14717:14721   */\n      dup3\n        /* \"#utility.yul\":14710:14721   */\n      swap8\n      pop\n        /* \"#utility.yul\":14737:14740   */\n      dup8\n        /* \"#utility.yul\":14730:14740   */\n      swap6\n      pop\n        /* \"#utility.yul\":13797:14746   */\n      pop\n      pop\n      pop\n      pop\n      pop\n        /* \"#utility.yul\":13619:14746   */\n      swap3\n      swap2\n      pop\n      pop\n      jump\t// out\n        /* \"#utility.yul\":14752:15233   */\n    tag_56:\n        /* \"#utility.yul\":14949:14953   */\n      0x00\n        /* \"#utility.yul\":14987:14989   */\n      0x20\n        /* \"#utility.yul\":14976:14985   */\n      dup3\n        /* \"#utility.yul\":14972:14990   */\n      add\n        /* \"#utility.yul\":14964:14990   */\n      swap1\n      pop\n        /* \"#utility.yul\":15036:15045   */\n      dup2\n        /* \"#utility.yul\":15030:15034   */\n      dup2\n        /* \"#utility.yul\":15026:15046   */\n      sub\n        /* \"#utility.yul\":15022:15023   */\n      0x00\n        /* \"#utility.yul\":15011:15020   */\n      dup4\n        /* \"#utility.yul\":15007:15024   */\n      add\n        /* \"#utility.yul\":15000:15047   */\n      mstore\n        /* \"#utility.yul\":15064:15226   */\n      tag_897\n        /* \"#utility.yul\":15221:15225   */\n      dup2\n        /* \"#utility.yul\":15212:15218   */\n      dup5\n        /* \"#utility.yul\":15064:15226   */\n      tag_698\n      jump\t// in\n    tag_897:\n        /* \"#utility.yul\":15056:15226   */\n      swap1\n      pop\n        /* \"#utility.yul\":14752:15233   */\n      swap3\n      swap2\n      pop\n      pop\n      jump\t// out\n        /* \"#utility.yul\":15239:15361   */\n    tag_699:\n        /* \"#utility.yul\":15312:15336   */\n      tag_899\n        /* \"#utility.yul\":15330:15335   */\n      dup2\n        /* \"#utility.yul\":15312:15336   */\n      tag_682\n      jump\t// in\n    tag_899:\n        /* \"#utility.yul\":15305:15310   */\n      dup2\n        /* \"#utility.yul\":15302:15337   */\n      eq\n        /* \"#utility.yul\":15292:15355   */\n      tag_900\n      jumpi\n        /* \"#utility.yul\":15351:15352   */\n      0x00\n        /* \"#utility.yul\":15348:15349   */\n      dup1\n        /* \"#utility.yul\":15341:15353   */\n      revert\n        /* \"#utility.yul\":15292:15355   */\n    tag_900:\n        /* \"#utility.yul\":15239:15361   */\n      pop\n      jump\t// out\n        /* \"#utility.yul\":15367:15506   */\n    tag_700:\n        /* \"#utility.yul\":15413:15418   */\n      0x00\n        /* \"#utility.yul\":15451:15457   */\n      dup2\n        /* \"#utility.yul\":15438:15458   */\n      calldataload\n        /* \"#utility.yul\":15429:15458   */\n      swap1\n      pop\n        /* \"#utility.yul\":15467:15500   */\n      tag_902\n        /* \"#utility.yul\":15494:15499   */\n      dup2\n        /* \"#utility.yul\":15467:15500   */\n      tag_699\n      jump\t// in\n    tag_902:\n        /* \"#utility.yul\":15367:15506   */\n      swap3\n      swap2\n      pop\n      pop\n      jump\t// out\n        /* \"#utility.yul\":15512:15841   */\n    tag_59:\n        /* \"#utility.yul\":15571:15577   */\n      0x00\n        /* \"#utility.yul\":15620:15622   */\n      0x20\n        /* \"#utility.yul\":15608:15617   */\n      dup3\n        /* \"#utility.yul\":15599:15606   */\n      dup5\n        /* \"#utility.yul\":15595:15618   */\n      sub\n        /* \"#utility.yul\":15591:15623   */\n      slt\n        /* \"#utility.yul\":15588:15707   */\n      iszero\n      tag_904\n      jumpi\n        /* \"#utility.yul\":15626:15705   */\n      tag_905\n      tag_665\n      jump\t// in\n    tag_905:\n        /* \"#utility.yul\":15588:15707   */\n    tag_904:\n        /* \"#utility.yul\":15746:15747   */\n      0x00\n        /* \"#utility.yul\":15771:15824   */\n      tag_906\n        /* \"#utility.yul\":15816:15823   */\n      dup5\n        /* \"#utility.yul\":15807:15813   */\n      dup3\n        /* \"#utility.yul\":15796:15805   */\n      dup6\n        /* \"#utility.yul\":15792:15814   */\n      add\n        /* \"#utility.yul\":15771:15824   */\n      tag_700\n      jump\t// in\n    tag_906:\n        /* \"#utility.yul\":15761:15824   */\n      swap2\n      pop\n        /* \"#utility.yul\":15717:15834   */\n      pop\n        /* \"#utility.yul\":15512:15841   */\n      swap3\n      swap2\n      pop\n      pop\n      jump\t// out\n        /* \"#utility.yul\":15847:16915   */\n    tag_62:\n        /* \"#utility.yul\":16148:16152   */\n      0x00\n        /* \"#utility.yul\":16186:16189   */\n      0xe0\n        /* \"#utility.yul\":16175:16184   */\n      dup3\n        /* \"#utility.yul\":16171:16190   */\n      add\n        /* \"#utility.yul\":16163:16190   */\n      swap1\n      pop\n        /* \"#utility.yul\":16236:16245   */\n      dup2\n        /* \"#utility.yul\":16230:16234   */\n      dup2\n        /* \"#utility.yul\":16226:16246   */\n      sub\n        /* \"#utility.yul\":16222:16223   */\n      0x00\n        /* \"#utility.yul\":16211:16220   */\n      dup4\n        /* \"#utility.yul\":16207:16224   */\n      add\n        /* \"#utility.yul\":16200:16247   */\n      mstore\n        /* \"#utility.yul\":16264:16342   */\n      tag_908\n        /* \"#utility.yul\":16337:16341   */\n      dup2\n        /* \"#utility.yul\":16328:16334   */\n      dup11\n        /* \"#utility.yul\":16264:16342   */\n      tag_680\n      jump\t// in\n    tag_908:\n        /* \"#utility.yul\":16256:16342   */\n      swap1\n      pop\n        /* \"#utility.yul\":16389:16398   */\n      dup2\n        /* \"#utility.yul\":16383:16387   */\n      dup2\n        /* \"#utility.yul\":16379:16399   */\n      sub\n        /* \"#utility.yul\":16374:16376   */\n      0x20\n        /* \"#utility.yul\":16363:16372   */\n      dup4\n        /* \"#utility.yul\":16359:16377   */\n      add\n        /* \"#utility.yul\":16352:16400   */\n      mstore\n        /* \"#utility.yul\":16417:16495   */\n      tag_909\n        /* \"#utility.yul\":16490:16494   */\n      dup2\n        /* \"#utility.yul\":16481:16487   */\n      dup10\n        /* \"#utility.yul\":16417:16495   */\n      tag_680\n      jump\t// in\n    tag_909:\n        /* \"#utility.yul\":16409:16495   */\n      swap1\n      pop\n        /* \"#utility.yul\":16505:16577   */\n      tag_910\n        /* \"#utility.yul\":16573:16575   */\n      0x40\n        /* \"#utility.yul\":16562:16571   */\n      dup4\n        /* \"#utility.yul\":16558:16576   */\n      add\n        /* \"#utility.yul\":16549:16555   */\n      dup9\n        /* \"#utility.yul\":16505:16577   */\n      tag_683\n      jump\t// in\n    tag_910:\n        /* \"#utility.yul\":16587:16659   */\n      tag_911\n        /* \"#utility.yul\":16655:16657   */\n      0x60\n        /* \"#utility.yul\":16644:16653   */\n      dup4\n        /* \"#utility.yul\":16640:16658   */\n      add\n        /* \"#utility.yul\":16631:16637   */\n      dup8\n        /* \"#utility.yul\":16587:16659   */\n      tag_687\n      jump\t// in\n    tag_911:\n        /* \"#utility.yul\":16669:16742   */\n      tag_912\n        /* \"#utility.yul\":16737:16740   */\n      0x80\n        /* \"#utility.yul\":16726:16735   */\n      dup4\n        /* \"#utility.yul\":16722:16741   */\n      add\n        /* \"#utility.yul\":16713:16719   */\n      dup7\n        /* \"#utility.yul\":16669:16742   */\n      tag_687\n      jump\t// in\n    tag_912:\n        /* \"#utility.yul\":16752:16825   */\n      tag_913\n        /* \"#utility.yul\":16820:16823   */\n      0xa0\n        /* \"#utility.yul\":16809:16818   */\n      dup4\n        /* \"#utility.yul\":16805:16824   */\n      add\n        /* \"#utility.yul\":16796:16802   */\n      dup6\n        /* \"#utility.yul\":16752:16825   */\n      tag_687\n      jump\t// in\n    tag_913:\n        /* \"#utility.yul\":16835:16908   */\n      tag_914\n        /* \"#utility.yul\":16903:16906   */\n      0xc0\n        /* \"#utility.yul\":16892:16901   */\n      dup4\n        /* \"#utility.yul\":16888:16907   */\n      add\n        /* \"#utility.yul\":16879:16885   */\n      dup5\n        /* \"#utility.yul\":16835:16908   */\n      tag_687\n      jump\t// in\n    tag_914:\n        /* \"#utility.yul\":15847:16915   */\n      swap9\n      swap8\n      pop\n      pop\n      pop\n      pop\n      pop\n      pop\n      pop\n      pop\n      jump\t// out\n        /* \"#utility.yul\":16921:17055   */\n    tag_701:\n        /* \"#utility.yul\":17008:17014   */\n      0x00\n        /* \"#utility.yul\":17042:17047   */\n      dup2\n        /* \"#utility.yul\":17036:17048   */\n      mload\n        /* \"#utility.yul\":17026:17048   */\n      swap1\n      pop\n        /* \"#utility.yul\":16921:17055   */\n      swap2\n      swap1\n      pop\n      jump\t// out\n        /* \"#utility.yul\":17061:17255   */\n    tag_702:\n        /* \"#utility.yul\":17170:17181   */\n      0x00\n        /* \"#utility.yul\":17204:17210   */\n      dup3\n        /* \"#utility.yul\":17199:17202   */\n      dup3\n        /* \"#utility.yul\":17192:17211   */\n      mstore\n        /* \"#utility.yul\":17244:17248   */\n      0x20\n        /* \"#utility.yul\":17239:17242   */\n      dup3\n        /* \"#utility.yul\":17235:17249   */\n      add\n        /* \"#utility.yul\":17220:17249   */\n      swap1\n      pop\n        /* \"#utility.yul\":17061:17255   */\n      swap3\n      swap2\n      pop\n      pop\n      jump\t// out\n        /* \"#utility.yul\":17261:17413   */\n    tag_703:\n        /* \"#utility.yul\":17348:17352   */\n      0x00\n        /* \"#utility.yul\":17371:17374   */\n      dup2\n        /* \"#utility.yul\":17363:17374   */\n      swap1\n      pop\n        /* \"#utility.yul\":17401:17405   */\n      0x20\n        /* \"#utility.yul\":17396:17399   */\n      dup3\n        /* \"#utility.yul\":17392:17406   */\n      add\n        /* \"#utility.yul\":17384:17406   */\n      swap1\n      pop\n        /* \"#utility.yul\":17261:17413   */\n      swap2\n      swap1\n      pop\n      jump\t// out\n        /* \"#utility.yul\":17467:19015   */\n    tag_704:\n        /* \"#utility.yul\":17566:17569   */\n      0x00\n        /* \"#utility.yul\":17602:17606   */\n      0xe0\n        /* \"#utility.yul\":17597:17600   */\n      dup4\n        /* \"#utility.yul\":17593:17607   */\n      add\n        /* \"#utility.yul\":17689:17693   */\n      0x00\n        /* \"#utility.yul\":17682:17687   */\n      dup4\n        /* \"#utility.yul\":17678:17694   */\n      add\n        /* \"#utility.yul\":17672:17695   */\n      mload\n        /* \"#utility.yul\":17742:17745   */\n      dup5\n        /* \"#utility.yul\":17736:17740   */\n      dup3\n        /* \"#utility.yul\":17732:17746   */\n      sub\n        /* \"#utility.yul\":17725:17729   */\n      0x00\n        /* \"#utility.yul\":17720:17723   */\n      dup7\n        /* \"#utility.yul\":17716:17730   */\n      add\n        /* \"#utility.yul\":17709:17747   */\n      mstore\n        /* \"#utility.yul\":17768:17841   */\n      tag_919\n        /* \"#utility.yul\":17836:17840   */\n      dup3\n        /* \"#utility.yul\":17822:17834   */\n      dup3\n        /* \"#utility.yul\":17768:17841   */\n      tag_692\n      jump\t// in\n    tag_919:\n        /* \"#utility.yul\":17760:17841   */\n      swap2\n      pop\n        /* \"#utility.yul\":17617:17852   */\n      pop\n        /* \"#utility.yul\":17934:17938   */\n      0x20\n        /* \"#utility.yul\":17927:17932   */\n      dup4\n        /* \"#utility.yul\":17923:17939   */\n      add\n        /* \"#utility.yul\":17917:17940   */\n      mload\n        /* \"#utility.yul\":17987:17990   */\n      dup5\n        /* \"#utility.yul\":17981:17985   */\n      dup3\n        /* \"#utility.yul\":17977:17991   */\n      sub\n        /* \"#utility.yul\":17970:17974   */\n      0x20\n        /* \"#utility.yul\":17965:17968   */\n      dup7\n        /* \"#utility.yul\":17961:17975   */\n      add\n        /* \"#utility.yul\":17954:17992   */\n      mstore\n        /* \"#utility.yul\":18013:18086   */\n      tag_920\n        /* \"#utility.yul\":18081:18085   */\n      dup3\n        /* \"#utility.yul\":18067:18079   */\n      dup3\n        /* \"#utility.yul\":18013:18086   */\n      tag_692\n      jump\t// in\n    tag_920:\n        /* \"#utility.yul\":18005:18086   */\n      swap2\n      pop\n        /* \"#utility.yul\":17862:18097   */\n      pop\n        /* \"#utility.yul\":18177:18181   */\n      0x40\n        /* \"#utility.yul\":18170:18175   */\n      dup4\n        /* \"#utility.yul\":18166:18182   */\n      add\n        /* \"#utility.yul\":18160:18183   */\n      mload\n        /* \"#utility.yul\":18196:18259   */\n      tag_921\n        /* \"#utility.yul\":18253:18257   */\n      0x40\n        /* \"#utility.yul\":18248:18251   */\n      dup7\n        /* \"#utility.yul\":18244:18258   */\n      add\n        /* \"#utility.yul\":18230:18242   */\n      dup3\n        /* \"#utility.yul\":18196:18259   */\n      tag_694\n      jump\t// in\n    tag_921:\n        /* \"#utility.yul\":18107:18269   */\n      pop\n        /* \"#utility.yul\":18353:18357   */\n      0x60\n        /* \"#utility.yul\":18346:18351   */\n      dup4\n        /* \"#utility.yul\":18342:18358   */\n      add\n        /* \"#utility.yul\":18336:18359   */\n      mload\n        /* \"#utility.yul\":18372:18435   */\n      tag_922\n        /* \"#utility.yul\":18429:18433   */\n      0x60\n        /* \"#utility.yul\":18424:18427   */\n      dup7\n        /* \"#utility.yul\":18420:18434   */\n      add\n        /* \"#utility.yul\":18406:18418   */\n      dup3\n        /* \"#utility.yul\":18372:18435   */\n      tag_693\n      jump\t// in\n    tag_922:\n        /* \"#utility.yul\":18279:18445   */\n      pop\n        /* \"#utility.yul\":18535:18539   */\n      0x80\n        /* \"#utility.yul\":18528:18533   */\n      dup4\n        /* \"#utility.yul\":18524:18540   */\n      add\n        /* \"#utility.yul\":18518:18541   */\n      mload\n        /* \"#utility.yul\":18554:18617   */\n      tag_923\n        /* \"#utility.yul\":18611:18615   */\n      0x80\n        /* \"#utility.yul\":18606:18609   */\n      dup7\n        /* \"#utility.yul\":18602:18616   */\n      add\n        /* \"#utility.yul\":18588:18600   */\n      dup3\n        /* \"#utility.yul\":18554:18617   */\n      tag_693\n      jump\t// in\n    tag_923:\n        /* \"#utility.yul\":18455:18627   */\n      pop\n        /* \"#utility.yul\":18717:18721   */\n      0xa0\n        /* \"#utility.yul\":18710:18715   */\n      dup4\n        /* \"#utility.yul\":18706:18722   */\n      add\n        /* \"#utility.yul\":18700:18723   */\n      mload\n        /* \"#utility.yul\":18736:18799   */\n      tag_924\n        /* \"#utility.yul\":18793:18797   */\n      0xa0\n        /* \"#utility.yul\":18788:18791   */\n      dup7\n        /* \"#utility.yul\":18784:18798   */\n      add\n        /* \"#utility.yul\":18770:18782   */\n      dup3\n        /* \"#utility.yul\":18736:18799   */\n      tag_693\n      jump\t// in\n    tag_924:\n        /* \"#utility.yul\":18637:18809   */\n      pop\n        /* \"#utility.yul\":18896:18900   */\n      0xc0\n        /* \"#utility.yul\":18889:18894   */\n      dup4\n        /* \"#utility.yul\":18885:18901   */\n      add\n        /* \"#utility.yul\":18879:18902   */\n      mload\n        /* \"#utility.yul\":18915:18978   */\n      tag_925\n        /* \"#utility.yul\":18972:18976   */\n      0xc0\n        /* \"#utility.yul\":18967:18970   */\n      dup7\n        /* \"#utility.yul\":18963:18977   */\n      add\n        /* \"#utility.yul\":18949:18961   */\n      dup3\n        /* \"#utility.yul\":18915:18978   */\n      tag_693\n      jump\t// in\n    tag_925:\n        /* \"#utility.yul\":18819:18988   */\n      pop\n        /* \"#utility.yul\":19005:19009   */\n      dup1\n        /* \"#utility.yul\":18998:19009   */\n      swap2\n      pop\n        /* \"#utility.yul\":17571:19015   */\n      pop\n        /* \"#utility.yul\":17467:19015   */\n      swap3\n      swap2\n      pop\n      pop\n      jump\t// out\n        /* \"#utility.yul\":19021:19257   */\n    tag_705:\n        /* \"#utility.yul\":19130:19140   */\n      0x00\n        /* \"#utility.yul\":19165:19251   */\n      tag_927\n        /* \"#utility.yul\":19247:19250   */\n      dup4\n        /* \"#utility.yul\":19239:19245   */\n      dup4\n        /* \"#utility.yul\":19165:19251   */\n      tag_704\n      jump\t// in\n    tag_927:\n        /* \"#utility.yul\":19151:19251   */\n      swap1\n      pop\n        /* \"#utility.yul\":19021:19257   */\n      swap3\n      swap2\n      pop\n      pop\n      jump\t// out\n        /* \"#utility.yul\":19263:19396   */\n    tag_706:\n        /* \"#utility.yul\":19353:19357   */\n      0x00\n        /* \"#utility.yul\":19385:19389   */\n      0x20\n        /* \"#utility.yul\":19380:19383   */\n      dup3\n        /* \"#utility.yul\":19376:19390   */\n      add\n        /* \"#utility.yul\":19368:19390   */\n      swap1\n      pop\n        /* \"#utility.yul\":19263:19396   */\n      swap2\n      swap1\n      pop\n      jump\t// out\n        /* \"#utility.yul\":19454:20505   */\n    tag_707:\n        /* \"#utility.yul\":19603:19606   */\n      0x00\n        /* \"#utility.yul\":19632:19706   */\n      tag_930\n        /* \"#utility.yul\":19700:19705   */\n      dup3\n        /* \"#utility.yul\":19632:19706   */\n      tag_701\n      jump\t// in\n    tag_930:\n        /* \"#utility.yul\":19722:19818   */\n      tag_931\n        /* \"#utility.yul\":19811:19817   */\n      dup2\n        /* \"#utility.yul\":19806:19809   */\n      dup6\n        /* \"#utility.yul\":19722:19818   */\n      tag_702\n      jump\t// in\n    tag_931:\n        /* \"#utility.yul\":19715:19818   */\n      swap4\n      pop\n        /* \"#utility.yul\":19844:19847   */\n      dup4\n        /* \"#utility.yul\":19889:19893   */\n      0x20\n        /* \"#utility.yul\":19881:19887   */\n      dup3\n        /* \"#utility.yul\":19877:19894   */\n      mul\n        /* \"#utility.yul\":19872:19875   */\n      dup6\n        /* \"#utility.yul\":19868:19895   */\n      add\n        /* \"#utility.yul\":19919:19995   */\n      tag_932\n        /* \"#utility.yul\":19989:19994   */\n      dup6\n        /* \"#utility.yul\":19919:19995   */\n      tag_703\n      jump\t// in\n    tag_932:\n        /* \"#utility.yul\":20018:20025   */\n      dup1\n        /* \"#utility.yul\":20049:20050   */\n      0x00\n        /* \"#utility.yul\":20034:20460   */\n    tag_933:\n        /* \"#utility.yul\":20059:20065   */\n      dup6\n        /* \"#utility.yul\":20056:20057   */\n      dup2\n        /* \"#utility.yul\":20053:20066   */\n      lt\n        /* \"#utility.yul\":20034:20460   */\n      iszero\n      tag_935\n      jumpi\n        /* \"#utility.yul\":20130:20139   */\n      dup5\n        /* \"#utility.yul\":20124:20128   */\n      dup5\n        /* \"#utility.yul\":20120:20140   */\n      sub\n        /* \"#utility.yul\":20115:20118   */\n      dup10\n        /* \"#utility.yul\":20108:20141   */\n      mstore\n        /* \"#utility.yul\":20181:20187   */\n      dup2\n        /* \"#utility.yul\":20175:20188   */\n      mload\n        /* \"#utility.yul\":20209:20313   */\n      tag_936\n        /* \"#utility.yul\":20308:20312   */\n      dup6\n        /* \"#utility.yul\":20293:20306   */\n      dup3\n        /* \"#utility.yul\":20209:20313   */\n      tag_705\n      jump\t// in\n    tag_936:\n        /* \"#utility.yul\":20201:20313   */\n      swap5\n      pop\n        /* \"#utility.yul\":20336:20416   */\n      tag_937\n        /* \"#utility.yul\":20409:20415   */\n      dup4\n        /* \"#utility.yul\":20336:20416   */\n      tag_706\n      jump\t// in\n    tag_937:\n        /* \"#utility.yul\":20326:20416   */\n      swap3\n      pop\n        /* \"#utility.yul\":20445:20449   */\n      0x20\n        /* \"#utility.yul\":20440:20443   */\n      dup11\n        /* \"#utility.yul\":20436:20450   */\n      add\n        /* \"#utility.yul\":20429:20450   */\n      swap10\n      pop\n        /* \"#utility.yul\":20094:20460   */\n      pop\n        /* \"#utility.yul\":20081:20082   */\n      0x01\n        /* \"#utility.yul\":20078:20079   */\n      dup2\n        /* \"#utility.yul\":20074:20083   */\n      add\n        /* \"#utility.yul\":20069:20083   */\n      swap1\n      pop\n        /* \"#utility.yul\":20034:20460   */\n      jump(tag_933)\n    tag_935:\n        /* \"#utility.yul\":20038:20052   */\n      pop\n        /* \"#utility.yul\":20476:20480   */\n      dup3\n        /* \"#utility.yul\":20469:20480   */\n      swap8\n      pop\n        /* \"#utility.yul\":20496:20499   */\n      dup8\n        /* \"#utility.yul\":20489:20499   */\n      swap6\n      pop\n        /* \"#utility.yul\":19608:20505   */\n      pop\n      pop\n      pop\n      pop\n      pop\n        /* \"#utility.yul\":19454:20505   */\n      swap3\n      swap2\n      pop\n      pop\n      jump\t// out\n        /* \"#utility.yul\":20567:21323   */\n    tag_708:\n        /* \"#utility.yul\":20684:20687   */\n      0x00\n        /* \"#utility.yul\":20720:20724   */\n      0x40\n        /* \"#utility.yul\":20715:20718   */\n      dup4\n        /* \"#utility.yul\":20711:20725   */\n      add\n        /* \"#utility.yul\":20810:20814   */\n      0x00\n        /* \"#utility.yul\":20803:20808   */\n      dup4\n        /* \"#utility.yul\":20799:20815   */\n      add\n        /* \"#utility.yul\":20793:20816   */\n      mload\n        /* \"#utility.yul\":20863:20866   */\n      dup5\n        /* \"#utility.yul\":20857:20861   */\n      dup3\n        /* \"#utility.yul\":20853:20867   */\n      sub\n        /* \"#utility.yul\":20846:20850   */\n      0x00\n        /* \"#utility.yul\":20841:20844   */\n      dup7\n        /* \"#utility.yul\":20837:20851   */\n      add\n        /* \"#utility.yul\":20830:20868   */\n      mstore\n        /* \"#utility.yul\":20889:20962   */\n      tag_939\n        /* \"#utility.yul\":20957:20961   */\n      dup3\n        /* \"#utility.yul\":20943:20955   */\n      dup3\n        /* \"#utility.yul\":20889:20962   */\n      tag_692\n      jump\t// in\n    tag_939:\n        /* \"#utility.yul\":20881:20962   */\n      swap2\n      pop\n        /* \"#utility.yul\":20735:20973   */\n      pop\n        /* \"#utility.yul\":21063:21067   */\n      0x20\n        /* \"#utility.yul\":21056:21061   */\n      dup4\n        /* \"#utility.yul\":21052:21068   */\n      add\n        /* \"#utility.yul\":21046:21069   */\n      mload\n        /* \"#utility.yul\":21116:21119   */\n      dup5\n        /* \"#utility.yul\":21110:21114   */\n      dup3\n        /* \"#utility.yul\":21106:21120   */\n      sub\n        /* \"#utility.yul\":21099:21103   */\n      0x20\n        /* \"#utility.yul\":21094:21097   */\n      dup7\n        /* \"#utility.yul\":21090:21104   */\n      add\n        /* \"#utility.yul\":21083:21121   */\n      mstore\n        /* \"#utility.yul\":21142:21285   */\n      tag_940\n        /* \"#utility.yul\":21280:21284   */\n      dup3\n        /* \"#utility.yul\":21266:21278   */\n      dup3\n        /* \"#utility.yul\":21142:21285   */\n      tag_707\n      jump\t// in\n    tag_940:\n        /* \"#utility.yul\":21134:21285   */\n      swap2\n      pop\n        /* \"#utility.yul\":20983:21296   */\n      pop\n        /* \"#utility.yul\":21313:21317   */\n      dup1\n        /* \"#utility.yul\":21306:21317   */\n      swap2\n      pop\n        /* \"#utility.yul\":20689:21323   */\n      pop\n        /* \"#utility.yul\":20567:21323   */\n      swap3\n      swap2\n      pop\n      pop\n      jump\t// out\n        /* \"#utility.yul\":21329:21698   */\n    tag_67:\n        /* \"#utility.yul\":21470:21474   */\n      0x00\n        /* \"#utility.yul\":21508:21510   */\n      0x20\n        /* \"#utility.yul\":21497:21506   */\n      dup3\n        /* \"#utility.yul\":21493:21511   */\n      add\n        /* \"#utility.yul\":21485:21511   */\n      swap1\n      pop\n        /* \"#utility.yul\":21557:21566   */\n      dup2\n        /* \"#utility.yul\":21551:21555   */\n      dup2\n        /* \"#utility.yul\":21547:21567   */\n      sub\n        /* \"#utility.yul\":21543:21544   */\n      0x00\n        /* \"#utility.yul\":21532:21541   */\n      dup4\n        /* \"#utility.yul\":21528:21545   */\n      add\n        /* \"#utility.yul\":21521:21568   */\n      mstore\n        /* \"#utility.yul\":21585:21691   */\n      tag_942\n        /* \"#utility.yul\":21686:21690   */\n      dup2\n        /* \"#utility.yul\":21677:21683   */\n      dup5\n        /* \"#utility.yul\":21585:21691   */\n      tag_708\n      jump\t// in\n    tag_942:\n        /* \"#utility.yul\":21577:21691   */\n      swap1\n      pop\n        /* \"#utility.yul\":21329:21698   */\n      swap3\n      swap2\n      pop\n      pop\n      jump\t// out\n        /* \"#utility.yul\":21704:21794   */\n    tag_709:\n        /* \"#utility.yul\":21738:21745   */\n      0x00\n        /* \"#utility.yul\":21781:21786   */\n      dup2\n        /* \"#utility.yul\":21774:21787   */\n      iszero\n        /* \"#utility.yul\":21767:21788   */\n      iszero\n        /* \"#utility.yul\":21756:21788   */\n      swap1\n      pop\n        /* \"#utility.yul\":21704:21794   */\n      swap2\n      swap1\n      pop\n      jump\t// out\n        /* \"#utility.yul\":21800:21909   */\n    tag_710:\n        /* \"#utility.yul\":21881:21902   */\n      tag_945\n        /* \"#utility.yul\":21896:21901   */\n      dup2\n        /* \"#utility.yul\":21881:21902   */\n      tag_709\n      jump\t// in\n    tag_945:\n        /* \"#utility.yul\":21876:21879   */\n      dup3\n        /* \"#utility.yul\":21869:21903   */\n      mstore\n        /* \"#utility.yul\":21800:21909   */\n      pop\n      pop\n      jump\t// out\n        /* \"#utility.yul\":21915:22125   */\n    tag_71:\n        /* \"#utility.yul\":22002:22006   */\n      0x00\n        /* \"#utility.yul\":22040:22042   */\n      0x20\n        /* \"#utility.yul\":22029:22038   */\n      dup3\n        /* \"#utility.yul\":22025:22043   */\n      add\n        /* \"#utility.yul\":22017:22043   */\n      swap1\n      pop\n        /* \"#utility.yul\":22053:22118   */\n      tag_947\n        /* \"#utility.yul\":22115:22116   */\n      0x00\n        /* \"#utility.yul\":22104:22113   */\n      dup4\n        /* \"#utility.yul\":22100:22117   */\n      add\n        /* \"#utility.yul\":22091:22097   */\n      dup5\n        /* \"#utility.yul\":22053:22118   */\n      tag_710\n      jump\t// in\n    tag_947:\n        /* \"#utility.yul\":21915:22125   */\n      swap3\n      swap2\n      pop\n      pop\n      jump\t// out\n        /* \"#utility.yul\":22131:22353   */\n    tag_76:\n        /* \"#utility.yul\":22224:22228   */\n      0x00\n        /* \"#utility.yul\":22262:22264   */\n      0x20\n        /* \"#utility.yul\":22251:22260   */\n      dup3\n        /* \"#utility.yul\":22247:22265   */\n      add\n        /* \"#utility.yul\":22239:22265   */\n      swap1\n      pop\n        /* \"#utility.yul\":22275:22346   */\n      tag_949\n        /* \"#utility.yul\":22343:22344   */\n      0x00\n        /* \"#utility.yul\":22332:22341   */\n      dup4\n        /* \"#utility.yul\":22328:22345   */\n      add\n        /* \"#utility.yul\":22319:22325   */\n      dup5\n        /* \"#utility.yul\":22275:22346   */\n      tag_687\n      jump\t// in\n    tag_949:\n        /* \"#utility.yul\":22131:22353   */\n      swap3\n      swap2\n      pop\n      pop\n      jump\t// out\n        /* \"#utility.yul\":22359:22473   */\n    tag_711:\n        /* \"#utility.yul\":22426:22432   */\n      0x00\n        /* \"#utility.yul\":22460:22465   */\n      dup2\n        /* \"#utility.yul\":22454:22466   */\n      mload\n        /* \"#utility.yul\":22444:22466   */\n      swap1\n      pop\n        /* \"#utility.yul\":22359:22473   */\n      swap2\n      swap1\n      pop\n      jump\t// out\n        /* \"#utility.yul\":22479:22663   */\n    tag_712:\n        /* \"#utility.yul\":22578:22589   */\n      0x00\n        /* \"#utility.yul\":22612:22618   */\n      dup3\n        /* \"#utility.yul\":22607:22610   */\n      dup3\n        /* \"#utility.yul\":22600:22619   */\n      mstore\n        /* \"#utility.yul\":22652:22656   */\n      0x20\n        /* \"#utility.yul\":22647:22650   */\n      dup3\n        /* \"#utility.yul\":22643:22657   */\n      add\n        /* \"#utility.yul\":22628:22657   */\n      swap1\n      pop\n        /* \"#utility.yul\":22479:22663   */\n      swap3\n      swap2\n      pop\n      pop\n      jump\t// out\n        /* \"#utility.yul\":22669:22801   */\n    tag_713:\n        /* \"#utility.yul\":22736:22740   */\n      0x00\n        /* \"#utility.yul\":22759:22762   */\n      dup2\n        /* \"#utility.yul\":22751:22762   */\n      swap1\n      pop\n        /* \"#utility.yul\":22789:22793   */\n      0x20\n        /* \"#utility.yul\":22784:22787   */\n      dup3\n        /* \"#utility.yul\":22780:22794   */\n      add\n        /* \"#utility.yul\":22772:22794   */\n      swap1\n      pop\n        /* \"#utility.yul\":22669:22801   */\n      swap2\n      swap1\n      pop\n      jump\t// out\n        /* \"#utility.yul\":22807:22986   */\n    tag_714:\n        /* \"#utility.yul\":22876:22886   */\n      0x00\n        /* \"#utility.yul\":22897:22943   */\n      tag_954\n        /* \"#utility.yul\":22939:22942   */\n      dup4\n        /* \"#utility.yul\":22931:22937   */\n      dup4\n        /* \"#utility.yul\":22897:22943   */\n      tag_694\n      jump\t// in\n    tag_954:\n        /* \"#utility.yul\":22975:22979   */\n      0x20\n        /* \"#utility.yul\":22970:22973   */\n      dup4\n        /* \"#utility.yul\":22966:22980   */\n      add\n        /* \"#utility.yul\":22952:22980   */\n      swap1\n      pop\n        /* \"#utility.yul\":22807:22986   */\n      swap3\n      swap2\n      pop\n      pop\n      jump\t// out\n        /* \"#utility.yul\":22992:23105   */\n    tag_715:\n        /* \"#utility.yul\":23062:23066   */\n      0x00\n        /* \"#utility.yul\":23094:23098   */\n      0x20\n        /* \"#utility.yul\":23089:23092   */\n      dup3\n        /* \"#utility.yul\":23085:23099   */\n      add\n        /* \"#utility.yul\":23077:23099   */\n      swap1\n      pop\n        /* \"#utility.yul\":22992:23105   */\n      swap2\n      swap1\n      pop\n      jump\t// out\n        /* \"#utility.yul\":23141:23873   */\n    tag_716:\n        /* \"#utility.yul\":23260:23263   */\n      0x00\n        /* \"#utility.yul\":23289:23343   */\n      tag_957\n        /* \"#utility.yul\":23337:23342   */\n      dup3\n        /* \"#utility.yul\":23289:23343   */\n      tag_711\n      jump\t// in\n    tag_957:\n        /* \"#utility.yul\":23359:23445   */\n      tag_958\n        /* \"#utility.yul\":23438:23444   */\n      dup2\n        /* \"#utility.yul\":23433:23436   */\n      dup6\n        /* \"#utility.yul\":23359:23445   */\n      tag_712\n      jump\t// in\n    tag_958:\n        /* \"#utility.yul\":23352:23445   */\n      swap4\n      pop\n        /* \"#utility.yul\":23469:23525   */\n      tag_959\n        /* \"#utility.yul\":23519:23524   */\n      dup4\n        /* \"#utility.yul\":23469:23525   */\n      tag_713\n      jump\t// in\n    tag_959:\n        /* \"#utility.yul\":23548:23555   */\n      dup1\n        /* \"#utility.yul\":23579:23580   */\n      0x00\n        /* \"#utility.yul\":23564:23848   */\n    tag_960:\n        /* \"#utility.yul\":23589:23595   */\n      dup4\n        /* \"#utility.yul\":23586:23587   */\n      dup2\n        /* \"#utility.yul\":23583:23596   */\n      lt\n        /* \"#utility.yul\":23564:23848   */\n      iszero\n      tag_962\n      jumpi\n        /* \"#utility.yul\":23665:23671   */\n      dup2\n        /* \"#utility.yul\":23659:23672   */\n      mload\n        /* \"#utility.yul\":23692:23755   */\n      tag_963\n        /* \"#utility.yul\":23751:23754   */\n      dup9\n        /* \"#utility.yul\":23736:23749   */\n      dup3\n        /* \"#utility.yul\":23692:23755   */\n      tag_714\n      jump\t// in\n    tag_963:\n        /* \"#utility.yul\":23685:23755   */\n      swap8\n      pop\n        /* \"#utility.yul\":23778:23838   */\n      tag_964\n        /* \"#utility.yul\":23831:23837   */\n      dup4\n        /* \"#utility.yul\":23778:23838   */\n      tag_715\n      jump\t// in\n    tag_964:\n        /* \"#utility.yul\":23768:23838   */\n      swap3\n      pop\n        /* \"#utility.yul\":23624:23848   */\n      pop\n        /* \"#utility.yul\":23611:23612   */\n      0x01\n        /* \"#utility.yul\":23608:23609   */\n      dup2\n        /* \"#utility.yul\":23604:23613   */\n      add\n        /* \"#utility.yul\":23599:23613   */\n      swap1\n      pop\n        /* \"#utility.yul\":23564:23848   */\n      jump(tag_960)\n    tag_962:\n        /* \"#utility.yul\":23568:23582   */\n      pop\n        /* \"#utility.yul\":23864:23867   */\n      dup6\n        /* \"#utility.yul\":23857:23867   */\n      swap4\n      pop\n        /* \"#utility.yul\":23265:23873   */\n      pop\n      pop\n      pop\n        /* \"#utility.yul\":23141:23873   */\n      swap3\n      swap2\n      pop\n      pop\n      jump\t// out\n        /* \"#utility.yul\":23879:24252   */\n    tag_94:\n        /* \"#utility.yul\":24022:24026   */\n      0x00\n        /* \"#utility.yul\":24060:24062   */\n      0x20\n        /* \"#utility.yul\":24049:24058   */\n      dup3\n        /* \"#utility.yul\":24045:24063   */\n      add\n        /* \"#utility.yul\":24037:24063   */\n      swap1\n      pop\n        /* \"#utility.yul\":24109:24118   */\n      dup2\n        /* \"#utility.yul\":24103:24107   */\n      dup2\n        /* \"#utility.yul\":24099:24119   */\n      sub\n        /* \"#utility.yul\":24095:24096   */\n      0x00\n        /* \"#utility.yul\":24084:24093   */\n      dup4\n        /* \"#utility.yul\":24080:24097   */\n      add\n        /* \"#utility.yul\":24073:24120   */\n      mstore\n        /* \"#utility.yul\":24137:24245   */\n      tag_966\n        /* \"#utility.yul\":24240:24244   */\n      dup2\n        /* \"#utility.yul\":24231:24237   */\n      dup5\n        /* \"#utility.yul\":24137:24245   */\n      tag_716\n      jump\t// in\n    tag_966:\n        /* \"#utility.yul\":24129:24245   */\n      swap1\n      pop\n        /* \"#utility.yul\":23879:24252   */\n      swap3\n      swap2\n      pop\n      pop\n      jump\t// out\n        /* \"#utility.yul\":24258:25383   */\n    tag_101:\n        /* \"#utility.yul\":24364:24370   */\n      0x00\n        /* \"#utility.yul\":24372:24378   */\n      dup1\n        /* \"#utility.yul\":24380:24386   */\n      0x00\n        /* \"#utility.yul\":24388:24394   */\n      dup1\n        /* \"#utility.yul\":24437:24440   */\n      0x80\n        /* \"#utility.yul\":24425:24434   */\n      dup6\n        /* \"#utility.yul\":24416:24423   */\n      dup8\n        /* \"#utility.yul\":24412:24435   */\n      sub\n        /* \"#utility.yul\":24408:24441   */\n      slt\n        /* \"#utility.yul\":24405:24525   */\n      iszero\n      tag_968\n      jumpi\n        /* \"#utility.yul\":24444:24523   */\n      tag_969\n      tag_665\n      jump\t// in\n    tag_969:\n        /* \"#utility.yul\":24405:24525   */\n    tag_968:\n        /* \"#utility.yul\":24592:24593   */\n      0x00\n        /* \"#utility.yul\":24581:24590   */\n      dup6\n        /* \"#utility.yul\":24577:24594   */\n      add\n        /* \"#utility.yul\":24564:24595   */\n      calldataload\n        /* \"#utility.yul\":24622:24640   */\n      0xffffffffffffffff\n        /* \"#utility.yul\":24614:24620   */\n      dup2\n        /* \"#utility.yul\":24611:24641   */\n      gt\n        /* \"#utility.yul\":24608:24725   */\n      iszero\n      tag_970\n      jumpi\n        /* \"#utility.yul\":24644:24723   */\n      tag_971\n      tag_666\n      jump\t// in\n    tag_971:\n        /* \"#utility.yul\":24608:24725   */\n    tag_970:\n        /* \"#utility.yul\":24749:24812   */\n      tag_972\n        /* \"#utility.yul\":24804:24811   */\n      dup8\n        /* \"#utility.yul\":24795:24801   */\n      dup3\n        /* \"#utility.yul\":24784:24793   */\n      dup9\n        /* \"#utility.yul\":24780:24802   */\n      add\n        /* \"#utility.yul\":24749:24812   */\n      tag_676\n      jump\t// in\n    tag_972:\n        /* \"#utility.yul\":24739:24812   */\n      swap5\n      pop\n        /* \"#utility.yul\":24535:24822   */\n      pop\n        /* \"#utility.yul\":24889:24891   */\n      0x20\n        /* \"#utility.yul\":24878:24887   */\n      dup6\n        /* \"#utility.yul\":24874:24892   */\n      add\n        /* \"#utility.yul\":24861:24893   */\n      calldataload\n        /* \"#utility.yul\":24920:24938   */\n      0xffffffffffffffff\n        /* \"#utility.yul\":24912:24918   */\n      dup2\n        /* \"#utility.yul\":24909:24939   */\n      gt\n        /* \"#utility.yul\":24906:25023   */\n      iszero\n      tag_973\n      jumpi\n        /* \"#utility.yul\":24942:25021   */\n      tag_974\n      tag_666\n      jump\t// in\n    tag_974:\n        /* \"#utility.yul\":24906:25023   */\n    tag_973:\n        /* \"#utility.yul\":25047:25110   */\n      tag_975\n        /* \"#utility.yul\":25102:25109   */\n      dup8\n        /* \"#utility.yul\":25093:25099   */\n      dup3\n        /* \"#utility.yul\":25082:25091   */\n      dup9\n        /* \"#utility.yul\":25078:25100   */\n      add\n        /* \"#utility.yul\":25047:25110   */\n      tag_676\n      jump\t// in\n    tag_975:\n        /* \"#utility.yul\":25037:25110   */\n      swap4\n      pop\n        /* \"#utility.yul\":24832:25120   */\n      pop\n        /* \"#utility.yul\":25159:25161   */\n      0x40\n        /* \"#utility.yul\":25185:25238   */\n      tag_976\n        /* \"#utility.yul\":25230:25237   */\n      dup8\n        /* \"#utility.yul\":25221:25227   */\n      dup3\n        /* \"#utility.yul\":25210:25219   */\n      dup9\n        /* \"#utility.yul\":25206:25228   */\n      add\n        /* \"#utility.yul\":25185:25238   */\n      tag_686\n      jump\t// in\n    tag_976:\n        /* \"#utility.yul\":25175:25238   */\n      swap3\n      pop\n        /* \"#utility.yul\":25130:25248   */\n      pop\n        /* \"#utility.yul\":25287:25289   */\n      0x60\n        /* \"#utility.yul\":25313:25366   */\n      tag_977\n        /* \"#utility.yul\":25358:25365   */\n      dup8\n        /* \"#utility.yul\":25349:25355   */\n      dup3\n        /* \"#utility.yul\":25338:25347   */\n      dup9\n        /* \"#utility.yul\":25334:25356   */\n      add\n        /* \"#utility.yul\":25313:25366   */\n      tag_686\n      jump\t// in\n    tag_977:\n        /* \"#utility.yul\":25303:25366   */\n      swap2\n      pop\n        /* \"#utility.yul\":25258:25376   */\n      pop\n        /* \"#utility.yul\":24258:25383   */\n      swap3\n      swap6\n      swap2\n      swap5\n      pop\n      swap3\n      pop\n      jump\t// out\n        /* \"#utility.yul\":25389:25702   */\n    tag_107:\n        /* \"#utility.yul\":25502:25506   */\n      0x00\n        /* \"#utility.yul\":25540:25542   */\n      0x20\n        /* \"#utility.yul\":25529:25538   */\n      dup3\n        /* \"#utility.yul\":25525:25543   */\n      add\n        /* \"#utility.yul\":25517:25543   */\n      swap1\n      pop\n        /* \"#utility.yul\":25589:25598   */\n      dup2\n        /* \"#utility.yul\":25583:25587   */\n      dup2\n        /* \"#utility.yul\":25579:25599   */\n      sub\n        /* \"#utility.yul\":25575:25576   */\n      0x00\n        /* \"#utility.yul\":25564:25573   */\n      dup4\n        /* \"#utility.yul\":25560:25577   */\n      add\n        /* \"#utility.yul\":25553:25600   */\n      mstore\n        /* \"#utility.yul\":25617:25695   */\n      tag_979\n        /* \"#utility.yul\":25690:25694   */\n      dup2\n        /* \"#utility.yul\":25681:25687   */\n      dup5\n        /* \"#utility.yul\":25617:25695   */\n      tag_680\n      jump\t// in\n    tag_979:\n        /* \"#utility.yul\":25609:25695   */\n      swap1\n      pop\n        /* \"#utility.yul\":25389:25702   */\n      swap3\n      swap2\n      pop\n      pop\n      jump\t// out\n        /* \"#utility.yul\":25708:26687   */\n    tag_110:\n        /* \"#utility.yul\":25805:25811   */\n      0x00\n        /* \"#utility.yul\":25813:25819   */\n      dup1\n        /* \"#utility.yul\":25821:25827   */\n      0x00\n        /* \"#utility.yul\":25870:25872   */\n      0x60\n        /* \"#utility.yul\":25858:25867   */\n      dup5\n        /* \"#utility.yul\":25849:25856   */\n      dup7\n        /* \"#utility.yul\":25845:25868   */\n      sub\n        /* \"#utility.yul\":25841:25873   */\n      slt\n        /* \"#utility.yul\":25838:25957   */\n      iszero\n      tag_981\n      jumpi\n        /* \"#utility.yul\":25876:25955   */\n      tag_982\n      tag_665\n      jump\t// in\n    tag_982:\n        /* \"#utility.yul\":25838:25957   */\n    tag_981:\n        /* \"#utility.yul\":26024:26025   */\n      0x00\n        /* \"#utility.yul\":26013:26022   */\n      dup5\n        /* \"#utility.yul\":26009:26026   */\n      add\n        /* \"#utility.yul\":25996:26027   */\n      calldataload\n        /* \"#utility.yul\":26054:26072   */\n      0xffffffffffffffff\n        /* \"#utility.yul\":26046:26052   */\n      dup2\n        /* \"#utility.yul\":26043:26073   */\n      gt\n        /* \"#utility.yul\":26040:26157   */\n      iszero\n      tag_983\n      jumpi\n        /* \"#utility.yul\":26076:26155   */\n      tag_984\n      tag_666\n      jump\t// in\n    tag_984:\n        /* \"#utility.yul\":26040:26157   */\n    tag_983:\n        /* \"#utility.yul\":26181:26244   */\n      tag_985\n        /* \"#utility.yul\":26236:26243   */\n      dup7\n        /* \"#utility.yul\":26227:26233   */\n      dup3\n        /* \"#utility.yul\":26216:26225   */\n      dup8\n        /* \"#utility.yul\":26212:26234   */\n      add\n        /* \"#utility.yul\":26181:26244   */\n      tag_676\n      jump\t// in\n    tag_985:\n        /* \"#utility.yul\":26171:26244   */\n      swap4\n      pop\n        /* \"#utility.yul\":25967:26254   */\n      pop\n        /* \"#utility.yul\":26293:26295   */\n      0x20\n        /* \"#utility.yul\":26319:26372   */\n      tag_986\n        /* \"#utility.yul\":26364:26371   */\n      dup7\n        /* \"#utility.yul\":26355:26361   */\n      dup3\n        /* \"#utility.yul\":26344:26353   */\n      dup8\n        /* \"#utility.yul\":26340:26362   */\n      add\n        /* \"#utility.yul\":26319:26372   */\n      tag_700\n      jump\t// in\n    tag_986:\n        /* \"#utility.yul\":26309:26372   */\n      swap3\n      pop\n        /* \"#utility.yul\":26264:26382   */\n      pop\n        /* \"#utility.yul\":26449:26451   */\n      0x40\n        /* \"#utility.yul\":26438:26447   */\n      dup5\n        /* \"#utility.yul\":26434:26452   */\n      add\n        /* \"#utility.yul\":26421:26453   */\n      calldataload\n        /* \"#utility.yul\":26480:26498   */\n      0xffffffffffffffff\n        /* \"#utility.yul\":26472:26478   */\n      dup2\n        /* \"#utility.yul\":26469:26499   */\n      gt\n        /* \"#utility.yul\":26466:26583   */\n      iszero\n      tag_987\n      jumpi\n        /* \"#utility.yul\":26502:26581   */\n      tag_988\n      tag_666\n      jump\t// in\n    tag_988:\n        /* \"#utility.yul\":26466:26583   */\n    tag_987:\n        /* \"#utility.yul\":26607:26670   */\n      tag_989\n        /* \"#utility.yul\":26662:26669   */\n      dup7\n        /* \"#utility.yul\":26653:26659   */\n      dup3\n        /* \"#utility.yul\":26642:26651   */\n      dup8\n        /* \"#utility.yul\":26638:26660   */\n      add\n        /* \"#utility.yul\":26607:26670   */\n      tag_676\n      jump\t// in\n    tag_989:\n        /* \"#utility.yul\":26597:26670   */\n      swap2\n      pop\n        /* \"#utility.yul\":26392:26680   */\n      pop\n        /* \"#utility.yul\":25708:26687   */\n      swap3\n      pop\n      swap3\n      pop\n      swap3\n      jump\t// out\n        /* \"#utility.yul\":26693:26835   */\n    tag_717:\n        /* \"#utility.yul\":26788:26794   */\n      0x00\n        /* \"#utility.yul\":26822:26827   */\n      dup2\n        /* \"#utility.yul\":26816:26828   */\n      mload\n        /* \"#utility.yul\":26806:26828   */\n      swap1\n      pop\n        /* \"#utility.yul\":26693:26835   */\n      swap2\n      swap1\n      pop\n      jump\t// out\n        /* \"#utility.yul\":26841:27053   */\n    tag_718:\n        /* \"#utility.yul\":26968:26979   */\n      0x00\n        /* \"#utility.yul\":27002:27008   */\n      dup3\n        /* \"#utility.yul\":26997:27000   */\n      dup3\n        /* \"#utility.yul\":26990:27009   */\n      mstore\n        /* \"#utility.yul\":27042:27046   */\n      0x20\n        /* \"#utility.yul\":27037:27040   */\n      dup3\n        /* \"#utility.yul\":27033:27047   */\n      add\n        /* \"#utility.yul\":27018:27047   */\n      swap1\n      pop\n        /* \"#utility.yul\":26841:27053   */\n      swap3\n      swap2\n      pop\n      pop\n      jump\t// out\n        /* \"#utility.yul\":27059:27219   */\n    tag_719:\n        /* \"#utility.yul\":27154:27158   */\n      0x00\n        /* \"#utility.yul\":27177:27180   */\n      dup2\n        /* \"#utility.yul\":27169:27180   */\n      swap1\n      pop\n        /* \"#utility.yul\":27207:27211   */\n      0x20\n        /* \"#utility.yul\":27202:27205   */\n      dup3\n        /* \"#utility.yul\":27198:27212   */\n      add\n        /* \"#utility.yul\":27190:27212   */\n      swap1\n      pop\n        /* \"#utility.yul\":27059:27219   */\n      swap2\n      swap1\n      pop\n      jump\t// out\n        /* \"#utility.yul\":27289:28461   */\n    tag_720:\n        /* \"#utility.yul\":27404:27407   */\n      0x00\n        /* \"#utility.yul\":27440:27444   */\n      0x80\n        /* \"#utility.yul\":27435:27438   */\n      dup4\n        /* \"#utility.yul\":27431:27445   */\n      add\n        /* \"#utility.yul\":27528:27532   */\n      0x00\n        /* \"#utility.yul\":27521:27526   */\n      dup4\n        /* \"#utility.yul\":27517:27533   */\n      add\n        /* \"#utility.yul\":27511:27534   */\n      mload\n        /* \"#utility.yul\":27581:27584   */\n      dup5\n        /* \"#utility.yul\":27575:27579   */\n      dup3\n        /* \"#utility.yul\":27571:27585   */\n      sub\n        /* \"#utility.yul\":27564:27568   */\n      0x00\n        /* \"#utility.yul\":27559:27562   */\n      dup7\n        /* \"#utility.yul\":27555:27569   */\n      add\n        /* \"#utility.yul\":27548:27586   */\n      mstore\n        /* \"#utility.yul\":27607:27680   */\n      tag_994\n        /* \"#utility.yul\":27675:27679   */\n      dup3\n        /* \"#utility.yul\":27661:27673   */\n      dup3\n        /* \"#utility.yul\":27607:27680   */\n      tag_692\n      jump\t// in\n    tag_994:\n        /* \"#utility.yul\":27599:27680   */\n      swap2\n      pop\n        /* \"#utility.yul\":27455:27691   */\n      pop\n        /* \"#utility.yul\":27776:27780   */\n      0x20\n        /* \"#utility.yul\":27769:27774   */\n      dup4\n        /* \"#utility.yul\":27765:27781   */\n      add\n        /* \"#utility.yul\":27759:27782   */\n      mload\n        /* \"#utility.yul\":27829:27832   */\n      dup5\n        /* \"#utility.yul\":27823:27827   */\n      dup3\n        /* \"#utility.yul\":27819:27833   */\n      sub\n        /* \"#utility.yul\":27812:27816   */\n      0x20\n        /* \"#utility.yul\":27807:27810   */\n      dup7\n        /* \"#utility.yul\":27803:27817   */\n      add\n        /* \"#utility.yul\":27796:27834   */\n      mstore\n        /* \"#utility.yul\":27855:27928   */\n      tag_995\n        /* \"#utility.yul\":27923:27927   */\n      dup3\n        /* \"#utility.yul\":27909:27921   */\n      dup3\n        /* \"#utility.yul\":27855:27928   */\n      tag_692\n      jump\t// in\n    tag_995:\n        /* \"#utility.yul\":27847:27928   */\n      swap2\n      pop\n        /* \"#utility.yul\":27701:27939   */\n      pop\n        /* \"#utility.yul\":28024:28028   */\n      0x40\n        /* \"#utility.yul\":28017:28022   */\n      dup4\n        /* \"#utility.yul\":28013:28029   */\n      add\n        /* \"#utility.yul\":28007:28030   */\n      mload\n        /* \"#utility.yul\":28077:28080   */\n      dup5\n        /* \"#utility.yul\":28071:28075   */\n      dup3\n        /* \"#utility.yul\":28067:28081   */\n      sub\n        /* \"#utility.yul\":28060:28064   */\n      0x40\n        /* \"#utility.yul\":28055:28058   */\n      dup7\n        /* \"#utility.yul\":28051:28065   */\n      add\n        /* \"#utility.yul\":28044:28082   */\n      mstore\n        /* \"#utility.yul\":28103:28176   */\n      tag_996\n        /* \"#utility.yul\":28171:28175   */\n      dup3\n        /* \"#utility.yul\":28157:28169   */\n      dup3\n        /* \"#utility.yul\":28103:28176   */\n      tag_692\n      jump\t// in\n    tag_996:\n        /* \"#utility.yul\":28095:28176   */\n      swap2\n      pop\n        /* \"#utility.yul\":27949:28187   */\n      pop\n        /* \"#utility.yul\":28271:28275   */\n      0x60\n        /* \"#utility.yul\":28264:28269   */\n      dup4\n        /* \"#utility.yul\":28260:28276   */\n      add\n        /* \"#utility.yul\":28254:28277   */\n      mload\n        /* \"#utility.yul\":28324:28327   */\n      dup5\n        /* \"#utility.yul\":28318:28322   */\n      dup3\n        /* \"#utility.yul\":28314:28328   */\n      sub\n        /* \"#utility.yul\":28307:28311   */\n      0x60\n        /* \"#utility.yul\":28302:28305   */\n      dup7\n        /* \"#utility.yul\":28298:28312   */\n      add\n        /* \"#utility.yul\":28291:28329   */\n      mstore\n        /* \"#utility.yul\":28350:28423   */\n      tag_997\n        /* \"#utility.yul\":28418:28422   */\n      dup3\n        /* \"#utility.yul\":28404:28416   */\n      dup3\n        /* \"#utility.yul\":28350:28423   */\n      tag_692\n      jump\t// in\n    tag_997:\n        /* \"#utility.yul\":28342:28423   */\n      swap2\n      pop\n        /* \"#utility.yul\":28197:28434   */\n      pop\n        /* \"#utility.yul\":28451:28455   */\n      dup1\n        /* \"#utility.yul\":28444:28455   */\n      swap2\n      pop\n        /* \"#utility.yul\":27409:28461   */\n      pop\n        /* \"#utility.yul\":27289:28461   */\n      swap3\n      swap2\n      pop\n      pop\n      jump\t// out\n        /* \"#utility.yul\":28467:28735   */\n    tag_721:\n        /* \"#utility.yul\":28592:28602   */\n      0x00\n        /* \"#utility.yul\":28627:28729   */\n      tag_999\n        /* \"#utility.yul\":28725:28728   */\n      dup4\n        /* \"#utility.yul\":28717:28723   */\n      dup4\n        /* \"#utility.yul\":28627:28729   */\n      tag_720\n      jump\t// in\n    tag_999:\n        /* \"#utility.yul\":28613:28729   */\n      swap1\n      pop\n        /* \"#utility.yul\":28467:28735   */\n      swap3\n      swap2\n      pop\n      pop\n      jump\t// out\n        /* \"#utility.yul\":28741:28882   */\n    tag_722:\n        /* \"#utility.yul\":28839:28843   */\n      0x00\n        /* \"#utility.yul\":28871:28875   */\n      0x20\n        /* \"#utility.yul\":28866:28869   */\n      dup3\n        /* \"#utility.yul\":28862:28876   */\n      add\n        /* \"#utility.yul\":28854:28876   */\n      swap1\n      pop\n        /* \"#utility.yul\":28741:28882   */\n      swap2\n      swap1\n      pop\n      jump\t// out\n        /* \"#utility.yul\":28956:30091   */\n    tag_723:\n        /* \"#utility.yul\":29131:29134   */\n      0x00\n        /* \"#utility.yul\":29160:29242   */\n      tag_1002\n        /* \"#utility.yul\":29236:29241   */\n      dup3\n        /* \"#utility.yul\":29160:29242   */\n      tag_717\n      jump\t// in\n    tag_1002:\n        /* \"#utility.yul\":29258:29372   */\n      tag_1003\n        /* \"#utility.yul\":29365:29371   */\n      dup2\n        /* \"#utility.yul\":29360:29363   */\n      dup6\n        /* \"#utility.yul\":29258:29372   */\n      tag_718\n      jump\t// in\n    tag_1003:\n        /* \"#utility.yul\":29251:29372   */\n      swap4\n      pop\n        /* \"#utility.yul\":29398:29401   */\n      dup4\n        /* \"#utility.yul\":29443:29447   */\n      0x20\n        /* \"#utility.yul\":29435:29441   */\n      dup3\n        /* \"#utility.yul\":29431:29448   */\n      mul\n        /* \"#utility.yul\":29426:29429   */\n      dup6\n        /* \"#utility.yul\":29422:29449   */\n      add\n        /* \"#utility.yul\":29473:29557   */\n      tag_1004\n        /* \"#utility.yul\":29551:29556   */\n      dup6\n        /* \"#utility.yul\":29473:29557   */\n      tag_719\n      jump\t// in\n    tag_1004:\n        /* \"#utility.yul\":29580:29587   */\n      dup1\n        /* \"#utility.yul\":29611:29612   */\n      0x00\n        /* \"#utility.yul\":29596:30046   */\n    tag_1005:\n        /* \"#utility.yul\":29621:29627   */\n      dup6\n        /* \"#utility.yul\":29618:29619   */\n      dup2\n        /* \"#utility.yul\":29615:29628   */\n      lt\n        /* \"#utility.yul\":29596:30046   */\n      iszero\n      tag_1007\n      jumpi\n        /* \"#utility.yul\":29692:29701   */\n      dup5\n        /* \"#utility.yul\":29686:29690   */\n      dup5\n        /* \"#utility.yul\":29682:29702   */\n      sub\n        /* \"#utility.yul\":29677:29680   */\n      dup10\n        /* \"#utility.yul\":29670:29703   */\n      mstore\n        /* \"#utility.yul\":29743:29749   */\n      dup2\n        /* \"#utility.yul\":29737:29750   */\n      mload\n        /* \"#utility.yul\":29771:29891   */\n      tag_1008\n        /* \"#utility.yul\":29886:29890   */\n      dup6\n        /* \"#utility.yul\":29871:29884   */\n      dup3\n        /* \"#utility.yul\":29771:29891   */\n      tag_721\n      jump\t// in\n    tag_1008:\n        /* \"#utility.yul\":29763:29891   */\n      swap5\n      pop\n        /* \"#utility.yul\":29914:30002   */\n      tag_1009\n        /* \"#utility.yul\":29995:30001   */\n      dup4\n        /* \"#utility.yul\":29914:30002   */\n      tag_722\n      jump\t// in\n    tag_1009:\n        /* \"#utility.yul\":29904:30002   */\n      swap3\n      pop\n        /* \"#utility.yul\":30031:30035   */\n      0x20\n        /* \"#utility.yul\":30026:30029   */\n      dup11\n        /* \"#utility.yul\":30022:30036   */\n      add\n        /* \"#utility.yul\":30015:30036   */\n      swap10\n      pop\n        /* \"#utility.yul\":29656:30046   */\n      pop\n        /* \"#utility.yul\":29643:29644   */\n      0x01\n        /* \"#utility.yul\":29640:29641   */\n      dup2\n        /* \"#utility.yul\":29636:29645   */\n      add\n        /* \"#utility.yul\":29631:29645   */\n      swap1\n      pop\n        /* \"#utility.yul\":29596:30046   */\n      jump(tag_1005)\n    tag_1007:\n        /* \"#utility.yul\":29600:29614   */\n      pop\n        /* \"#utility.yul\":30062:30066   */\n      dup3\n        /* \"#utility.yul\":30055:30066   */\n      swap8\n      pop\n        /* \"#utility.yul\":30082:30085   */\n      dup8\n        /* \"#utility.yul\":30075:30085   */\n      swap6\n      pop\n        /* \"#utility.yul\":29136:30091   */\n      pop\n      pop\n      pop\n      pop\n      pop\n        /* \"#utility.yul\":28956:30091   */\n      swap3\n      swap2\n      pop\n      pop\n      jump\t// out\n        /* \"#utility.yul\":30097:30582   */\n    tag_122:\n        /* \"#utility.yul\":30296:30300   */\n      0x00\n        /* \"#utility.yul\":30334:30336   */\n      0x20\n        /* \"#utility.yul\":30323:30332   */\n      dup3\n        /* \"#utility.yul\":30319:30337   */\n      add\n        /* \"#utility.yul\":30311:30337   */\n      swap1\n      pop\n        /* \"#utility.yul\":30383:30392   */\n      dup2\n        /* \"#utility.yul\":30377:30381   */\n      dup2\n        /* \"#utility.yul\":30373:30393   */\n      sub\n        /* \"#utility.yul\":30369:30370   */\n      0x00\n        /* \"#utility.yul\":30358:30367   */\n      dup4\n        /* \"#utility.yul\":30354:30371   */\n      add\n        /* \"#utility.yul\":30347:30394   */\n      mstore\n        /* \"#utility.yul\":30411:30575   */\n      tag_1011\n        /* \"#utility.yul\":30570:30574   */\n      dup2\n        /* \"#utility.yul\":30561:30567   */\n      dup5\n        /* \"#utility.yul\":30411:30575   */\n      tag_723\n      jump\t// in\n    tag_1011:\n        /* \"#utility.yul\":30403:30575   */\n      swap1\n      pop\n        /* \"#utility.yul\":30097:30582   */\n      swap3\n      swap2\n      pop\n      pop\n      jump\t// out\n        /* \"#utility.yul\":30588:32219   */\n    tag_129:\n        /* \"#utility.yul\":30723:30729   */\n      0x00\n        /* \"#utility.yul\":30731:30737   */\n      dup1\n        /* \"#utility.yul\":30739:30745   */\n      0x00\n        /* \"#utility.yul\":30747:30753   */\n      dup1\n        /* \"#utility.yul\":30755:30761   */\n      0x00\n        /* \"#utility.yul\":30804:30807   */\n      0xa0\n        /* \"#utility.yul\":30792:30801   */\n      dup7\n        /* \"#utility.yul\":30783:30790   */\n      dup9\n        /* \"#utility.yul\":30779:30802   */\n      sub\n        /* \"#utility.yul\":30775:30808   */\n      slt\n        /* \"#utility.yul\":30772:30892   */\n      iszero\n      tag_1013\n      jumpi\n        /* \"#utility.yul\":30811:30890   */\n      tag_1014\n      tag_665\n      jump\t// in\n    tag_1014:\n        /* \"#utility.yul\":30772:30892   */\n    tag_1013:\n        /* \"#utility.yul\":30959:30960   */\n      0x00\n        /* \"#utility.yul\":30948:30957   */\n      dup7\n        /* \"#utility.yul\":30944:30961   */\n      add\n        /* \"#utility.yul\":30931:30962   */\n      calldataload\n        /* \"#utility.yul\":30989:31007   */\n      0xffffffffffffffff\n        /* \"#utility.yul\":30981:30987   */\n      dup2\n        /* \"#utility.yul\":30978:31008   */\n      gt\n        /* \"#utility.yul\":30975:31092   */\n      iszero\n      tag_1015\n      jumpi\n        /* \"#utility.yul\":31011:31090   */\n      tag_1016\n      tag_666\n      jump\t// in\n    tag_1016:\n        /* \"#utility.yul\":30975:31092   */\n    tag_1015:\n        /* \"#utility.yul\":31116:31179   */\n      tag_1017\n        /* \"#utility.yul\":31171:31178   */\n      dup9\n        /* \"#utility.yul\":31162:31168   */\n      dup3\n        /* \"#utility.yul\":31151:31160   */\n      dup10\n        /* \"#utility.yul\":31147:31169   */\n      add\n        /* \"#utility.yul\":31116:31179   */\n      tag_676\n      jump\t// in\n    tag_1017:\n        /* \"#utility.yul\":31106:31179   */\n      swap6\n      pop\n        /* \"#utility.yul\":30902:31189   */\n      pop\n        /* \"#utility.yul\":31256:31258   */\n      0x20\n        /* \"#utility.yul\":31245:31254   */\n      dup7\n        /* \"#utility.yul\":31241:31259   */\n      add\n        /* \"#utility.yul\":31228:31260   */\n      calldataload\n        /* \"#utility.yul\":31287:31305   */\n      0xffffffffffffffff\n        /* \"#utility.yul\":31279:31285   */\n      dup2\n        /* \"#utility.yul\":31276:31306   */\n      gt\n        /* \"#utility.yul\":31273:31390   */\n      iszero\n      tag_1018\n      jumpi\n        /* \"#utility.yul\":31309:31388   */\n      tag_1019\n      tag_666\n      jump\t// in\n    tag_1019:\n        /* \"#utility.yul\":31273:31390   */\n    tag_1018:\n        /* \"#utility.yul\":31414:31477   */\n      tag_1020\n        /* \"#utility.yul\":31469:31476   */\n      dup9\n        /* \"#utility.yul\":31460:31466   */\n      dup3\n        /* \"#utility.yul\":31449:31458   */\n      dup10\n        /* \"#utility.yul\":31445:31467   */\n      add\n        /* \"#utility.yul\":31414:31477   */\n      tag_676\n      jump\t// in\n    tag_1020:\n        /* \"#utility.yul\":31404:31477   */\n      swap5\n      pop\n        /* \"#utility.yul\":31199:31487   */\n      pop\n        /* \"#utility.yul\":31554:31556   */\n      0x40\n        /* \"#utility.yul\":31543:31552   */\n      dup7\n        /* \"#utility.yul\":31539:31557   */\n      add\n        /* \"#utility.yul\":31526:31558   */\n      calldataload\n        /* \"#utility.yul\":31585:31603   */\n      0xffffffffffffffff\n        /* \"#utility.yul\":31577:31583   */\n      dup2\n        /* \"#utility.yul\":31574:31604   */\n      gt\n        /* \"#utility.yul\":31571:31688   */\n      iszero\n      tag_1021\n      jumpi\n        /* \"#utility.yul\":31607:31686   */\n      tag_1022\n      tag_666\n      jump\t// in\n    tag_1022:\n        /* \"#utility.yul\":31571:31688   */\n    tag_1021:\n        /* \"#utility.yul\":31712:31775   */\n      tag_1023\n        /* \"#utility.yul\":31767:31774   */\n      dup9\n        /* \"#utility.yul\":31758:31764   */\n      dup3\n        /* \"#utility.yul\":31747:31756   */\n      dup10\n        /* \"#utility.yul\":31743:31765   */\n      add\n        /* \"#utility.yul\":31712:31775   */\n      tag_676\n      jump\t// in\n    tag_1023:\n        /* \"#utility.yul\":31702:31775   */\n      swap4\n      pop\n        /* \"#utility.yul\":31497:31785   */\n      pop\n        /* \"#utility.yul\":31852:31854   */\n      0x60\n        /* \"#utility.yul\":31841:31850   */\n      dup7\n        /* \"#utility.yul\":31837:31855   */\n      add\n        /* \"#utility.yul\":31824:31856   */\n      calldataload\n        /* \"#utility.yul\":31883:31901   */\n      0xffffffffffffffff\n        /* \"#utility.yul\":31875:31881   */\n      dup2\n        /* \"#utility.yul\":31872:31902   */\n      gt\n        /* \"#utility.yul\":31869:31986   */\n      iszero\n      tag_1024\n      jumpi\n        /* \"#utility.yul\":31905:31984   */\n      tag_1025\n      tag_666\n      jump\t// in\n    tag_1025:\n        /* \"#utility.yul\":31869:31986   */\n    tag_1024:\n        /* \"#utility.yul\":32010:32073   */\n      tag_1026\n        /* \"#utility.yul\":32065:32072   */\n      dup9\n        /* \"#utility.yul\":32056:32062   */\n      dup3\n        /* \"#utility.yul\":32045:32054   */\n      dup10\n        /* \"#utility.yul\":32041:32063   */\n      add\n        /* \"#utility.yul\":32010:32073   */\n      tag_676\n      jump\t// in\n    tag_1026:\n        /* \"#utility.yul\":32000:32073   */\n      swap3\n      pop\n        /* \"#utility.yul\":31795:32083   */\n      pop\n        /* \"#utility.yul\":32122:32125   */\n      0x80\n        /* \"#utility.yul\":32149:32202   */\n      tag_1027\n        /* \"#utility.yul\":32194:32201   */\n      dup9\n        /* \"#utility.yul\":32185:32191   */\n      dup3\n        /* \"#utility.yul\":32174:32183   */\n      dup10\n        /* \"#utility.yul\":32170:32192   */\n      add\n        /* \"#utility.yul\":32149:32202   */\n      tag_686\n      jump\t// in\n    tag_1027:\n        /* \"#utility.yul\":32139:32202   */\n      swap2\n      pop\n        /* \"#utility.yul\":32093:32212   */\n      pop\n        /* \"#utility.yul\":30588:32219   */\n      swap3\n      swap6\n      pop\n      swap3\n      swap6\n      swap1\n      swap4\n      pop\n      jump\t// out\n        /* \"#utility.yul\":32225:32359   */\n    tag_724:\n        /* \"#utility.yul\":32312:32318   */\n      0x00\n        /* \"#utility.yul\":32346:32351   */\n      dup2\n        /* \"#utility.yul\":32340:32352   */\n      mload\n        /* \"#utility.yul\":32330:32352   */\n      swap1\n      pop\n        /* \"#utility.yul\":32225:32359   */\n      swap2\n      swap1\n      pop\n      jump\t// out\n        /* \"#utility.yul\":32365:32569   */\n    tag_725:\n        /* \"#utility.yul\":32484:32495   */\n      0x00\n        /* \"#utility.yul\":32518:32524   */\n      dup3\n        /* \"#utility.yul\":32513:32516   */\n      dup3\n        /* \"#utility.yul\":32506:32525   */\n      mstore\n        /* \"#utility.yul\":32558:32562   */\n      0x20\n        /* \"#utility.yul\":32553:32556   */\n      dup3\n        /* \"#utility.yul\":32549:32563   */\n      add\n        /* \"#utility.yul\":32534:32563   */\n      swap1\n      pop\n        /* \"#utility.yul\":32365:32569   */\n      swap3\n      swap2\n      pop\n      pop\n      jump\t// out\n        /* \"#utility.yul\":32575:32727   */\n    tag_726:\n        /* \"#utility.yul\":32662:32666   */\n      0x00\n        /* \"#utility.yul\":32685:32688   */\n      dup2\n        /* \"#utility.yul\":32677:32688   */\n      swap1\n      pop\n        /* \"#utility.yul\":32715:32719   */\n      0x20\n        /* \"#utility.yul\":32710:32713   */\n      dup3\n        /* \"#utility.yul\":32706:32720   */\n      add\n        /* \"#utility.yul\":32698:32720   */\n      swap1\n      pop\n        /* \"#utility.yul\":32575:32727   */\n      swap2\n      swap1\n      pop\n      jump\t// out\n        /* \"#utility.yul\":32781:33972   */\n    tag_727:\n        /* \"#utility.yul\":32880:32883   */\n      0x00\n        /* \"#utility.yul\":32916:32920   */\n      0xa0\n        /* \"#utility.yul\":32911:32914   */\n      dup4\n        /* \"#utility.yul\":32907:32921   */\n      add\n        /* \"#utility.yul\":33005:33009   */\n      0x00\n        /* \"#utility.yul\":32998:33003   */\n      dup4\n        /* \"#utility.yul\":32994:33010   */\n      add\n        /* \"#utility.yul\":32988:33011   */\n      mload\n        /* \"#utility.yul\":33024:33087   */\n      tag_1032\n        /* \"#utility.yul\":33081:33085   */\n      0x00\n        /* \"#utility.yul\":33076:33079   */\n      dup7\n        /* \"#utility.yul\":33072:33086   */\n      add\n        /* \"#utility.yul\":33058:33070   */\n      dup3\n        /* \"#utility.yul\":33024:33087   */\n      tag_693\n      jump\t// in\n    tag_1032:\n        /* \"#utility.yul\":32931:33097   */\n      pop\n        /* \"#utility.yul\":33179:33183   */\n      0x20\n        /* \"#utility.yul\":33172:33177   */\n      dup4\n        /* \"#utility.yul\":33168:33184   */\n      add\n        /* \"#utility.yul\":33162:33185   */\n      mload\n        /* \"#utility.yul\":33232:33235   */\n      dup5\n        /* \"#utility.yul\":33226:33230   */\n      dup3\n        /* \"#utility.yul\":33222:33236   */\n      sub\n        /* \"#utility.yul\":33215:33219   */\n      0x20\n        /* \"#utility.yul\":33210:33213   */\n      dup7\n        /* \"#utility.yul\":33206:33220   */\n      add\n        /* \"#utility.yul\":33199:33237   */\n      mstore\n        /* \"#utility.yul\":33258:33331   */\n      tag_1033\n        /* \"#utility.yul\":33326:33330   */\n      dup3\n        /* \"#utility.yul\":33312:33324   */\n      dup3\n        /* \"#utility.yul\":33258:33331   */\n      tag_692\n      jump\t// in\n    tag_1033:\n        /* \"#utility.yul\":33250:33331   */\n      swap2\n      pop\n        /* \"#utility.yul\":33107:33342   */\n      pop\n        /* \"#utility.yul\":33424:33428   */\n      0x40\n        /* \"#utility.yul\":33417:33422   */\n      dup4\n        /* \"#utility.yul\":33413:33429   */\n      add\n        /* \"#utility.yul\":33407:33430   */\n      mload\n        /* \"#utility.yul\":33477:33480   */\n      dup5\n        /* \"#utility.yul\":33471:33475   */\n      dup3\n        /* \"#utility.yul\":33467:33481   */\n      sub\n        /* \"#utility.yul\":33460:33464   */\n      0x40\n        /* \"#utility.yul\":33455:33458   */\n      dup7\n        /* \"#utility.yul\":33451:33465   */\n      add\n        /* \"#utility.yul\":33444:33482   */\n      mstore\n        /* \"#utility.yul\":33503:33576   */\n      tag_1034\n        /* \"#utility.yul\":33571:33575   */\n      dup3\n        /* \"#utility.yul\":33557:33569   */\n      dup3\n        /* \"#utility.yul\":33503:33576   */\n      tag_692\n      jump\t// in\n    tag_1034:\n        /* \"#utility.yul\":33495:33576   */\n      swap2\n      pop\n        /* \"#utility.yul\":33352:33587   */\n      pop\n        /* \"#utility.yul\":33674:33678   */\n      0x60\n        /* \"#utility.yul\":33667:33672   */\n      dup4\n        /* \"#utility.yul\":33663:33679   */\n      add\n        /* \"#utility.yul\":33657:33680   */\n      mload\n        /* \"#utility.yul\":33693:33756   */\n      tag_1035\n        /* \"#utility.yul\":33750:33754   */\n      0x60\n        /* \"#utility.yul\":33745:33748   */\n      dup7\n        /* \"#utility.yul\":33741:33755   */\n      add\n        /* \"#utility.yul\":33727:33739   */\n      dup3\n        /* \"#utility.yul\":33693:33756   */\n      tag_693\n      jump\t// in\n    tag_1035:\n        /* \"#utility.yul\":33597:33766   */\n      pop\n        /* \"#utility.yul\":33853:33857   */\n      0x80\n        /* \"#utility.yul\":33846:33851   */\n      dup4\n        /* \"#utility.yul\":33842:33858   */\n      add\n        /* \"#utility.yul\":33836:33859   */\n      mload\n        /* \"#utility.yul\":33872:33935   */\n      tag_1036\n        /* \"#utility.yul\":33929:33933   */\n      0x80\n        /* \"#utility.yul\":33924:33927   */\n      dup7\n        /* \"#utility.yul\":33920:33934   */\n      add\n        /* \"#utility.yul\":33906:33918   */\n      dup3\n        /* \"#utility.yul\":33872:33935   */\n      tag_693\n      jump\t// in\n    tag_1036:\n        /* \"#utility.yul\":33776:33945   */\n      pop\n        /* \"#utility.yul\":33962:33966   */\n      dup1\n        /* \"#utility.yul\":33955:33966   */\n      swap2\n      pop\n        /* \"#utility.yul\":32885:33972   */\n      pop\n        /* \"#utility.yul\":32781:33972   */\n      swap3\n      swap2\n      pop\n      pop\n      jump\t// out\n        /* \"#utility.yul\":33978:34214   */\n    tag_728:\n        /* \"#utility.yul\":34087:34097   */\n      0x00\n        /* \"#utility.yul\":34122:34208   */\n      tag_1038\n        /* \"#utility.yul\":34204:34207   */\n      dup4\n        /* \"#utility.yul\":34196:34202   */\n      dup4\n        /* \"#utility.yul\":34122:34208   */\n      tag_727\n      jump\t// in\n    tag_1038:\n        /* \"#utility.yul\":34108:34208   */\n      swap1\n      pop\n        /* \"#utility.yul\":33978:34214   */\n      swap3\n      swap2\n      pop\n      pop\n      jump\t// out\n        /* \"#utility.yul\":34220:34353   */\n    tag_729:\n        /* \"#utility.yul\":34310:34314   */\n      0x00\n        /* \"#utility.yul\":34342:34346   */\n      0x20\n        /* \"#utility.yul\":34337:34340   */\n      dup3\n        /* \"#utility.yul\":34333:34347   */\n      add\n        /* \"#utility.yul\":34325:34347   */\n      swap1\n      pop\n        /* \"#utility.yul\":34220:34353   */\n      swap2\n      swap1\n      pop\n      jump\t// out\n        /* \"#utility.yul\":34411:35482   */\n    tag_730:\n        /* \"#utility.yul\":34570:34573   */\n      0x00\n        /* \"#utility.yul\":34599:34673   */\n      tag_1041\n        /* \"#utility.yul\":34667:34672   */\n      dup3\n        /* \"#utility.yul\":34599:34673   */\n      tag_724\n      jump\t// in\n    tag_1041:\n        /* \"#utility.yul\":34689:34795   */\n      tag_1042\n        /* \"#utility.yul\":34788:34794   */\n      dup2\n        /* \"#utility.yul\":34783:34786   */\n      dup6\n        /* \"#utility.yul\":34689:34795   */\n      tag_725\n      jump\t// in\n    tag_1042:\n        /* \"#utility.yul\":34682:34795   */\n      swap4\n      pop\n        /* \"#utility.yul\":34821:34824   */\n      dup4\n        /* \"#utility.yul\":34866:34870   */\n      0x20\n        /* \"#utility.yul\":34858:34864   */\n      dup3\n        /* \"#utility.yul\":34854:34871   */\n      mul\n        /* \"#utility.yul\":34849:34852   */\n      dup6\n        /* \"#utility.yul\":34845:34872   */\n      add\n        /* \"#utility.yul\":34896:34972   */\n      tag_1043\n        /* \"#utility.yul\":34966:34971   */\n      dup6\n        /* \"#utility.yul\":34896:34972   */\n      tag_726\n      jump\t// in\n    tag_1043:\n        /* \"#utility.yul\":34995:35002   */\n      dup1\n        /* \"#utility.yul\":35026:35027   */\n      0x00\n        /* \"#utility.yul\":35011:35437   */\n    tag_1044:\n        /* \"#utility.yul\":35036:35042   */\n      dup6\n        /* \"#utility.yul\":35033:35034   */\n      dup2\n        /* \"#utility.yul\":35030:35043   */\n      lt\n        /* \"#utility.yul\":35011:35437   */\n      iszero\n      tag_1046\n      jumpi\n        /* \"#utility.yul\":35107:35116   */\n      dup5\n        /* \"#utility.yul\":35101:35105   */\n      dup5\n        /* \"#utility.yul\":35097:35117   */\n      sub\n        /* \"#utility.yul\":35092:35095   */\n      dup10\n        /* \"#utility.yul\":35085:35118   */\n      mstore\n        /* \"#utility.yul\":35158:35164   */\n      dup2\n        /* \"#utility.yul\":35152:35165   */\n      mload\n        /* \"#utility.yul\":35186:35290   */\n      tag_1047\n        /* \"#utility.yul\":35285:35289   */\n      dup6\n        /* \"#utility.yul\":35270:35283   */\n      dup3\n        /* \"#utility.yul\":35186:35290   */\n      tag_728\n      jump\t// in\n    tag_1047:\n        /* \"#utility.yul\":35178:35290   */\n      swap5\n      pop\n        /* \"#utility.yul\":35313:35393   */\n      tag_1048\n        /* \"#utility.yul\":35386:35392   */\n      dup4\n        /* \"#utility.yul\":35313:35393   */\n      tag_729\n      jump\t// in\n    tag_1048:\n        /* \"#utility.yul\":35303:35393   */\n      swap3\n      pop\n        /* \"#utility.yul\":35422:35426   */\n      0x20\n        /* \"#utility.yul\":35417:35420   */\n      dup11\n        /* \"#utility.yul\":35413:35427   */\n      add\n        /* \"#utility.yul\":35406:35427   */\n      swap10\n      pop\n        /* \"#utility.yul\":35071:35437   */\n      pop\n        /* \"#utility.yul\":35058:35059   */\n      0x01\n        /* \"#utility.yul\":35055:35056   */\n      dup2\n        /* \"#utility.yul\":35051:35060   */\n      add\n        /* \"#utility.yul\":35046:35060   */\n      swap1\n      pop\n        /* \"#utility.yul\":35011:35437   */\n      jump(tag_1044)\n    tag_1046:\n        /* \"#utility.yul\":35015:35029   */\n      pop\n        /* \"#utility.yul\":35453:35457   */\n      dup3\n        /* \"#utility.yul\":35446:35457   */\n      swap8\n      pop\n        /* \"#utility.yul\":35473:35476   */\n      dup8\n        /* \"#utility.yul\":35466:35476   */\n      swap6\n      pop\n        /* \"#utility.yul\":34575:35482   */\n      pop\n      pop\n      pop\n      pop\n      pop\n        /* \"#utility.yul\":34411:35482   */\n      swap3\n      swap2\n      pop\n      pop\n      jump\t// out\n        /* \"#utility.yul\":35488:35941   */\n    tag_138:\n        /* \"#utility.yul\":35671:35675   */\n      0x00\n        /* \"#utility.yul\":35709:35711   */\n      0x20\n        /* \"#utility.yul\":35698:35707   */\n      dup3\n        /* \"#utility.yul\":35694:35712   */\n      add\n        /* \"#utility.yul\":35686:35712   */\n      swap1\n      pop\n        /* \"#utility.yul\":35758:35767   */\n      dup2\n        /* \"#utility.yul\":35752:35756   */\n      dup2\n        /* \"#utility.yul\":35748:35768   */\n      sub\n        /* \"#utility.yul\":35744:35745   */\n      0x00\n        /* \"#utility.yul\":35733:35742   */\n      dup4\n        /* \"#utility.yul\":35729:35746   */\n      add\n        /* \"#utility.yul\":35722:35769   */\n      mstore\n        /* \"#utility.yul\":35786:35934   */\n      tag_1050\n        /* \"#utility.yul\":35929:35933   */\n      dup2\n        /* \"#utility.yul\":35920:35926   */\n      dup5\n        /* \"#utility.yul\":35786:35934   */\n      tag_730\n      jump\t// in\n    tag_1050:\n        /* \"#utility.yul\":35778:35934   */\n      swap1\n      pop\n        /* \"#utility.yul\":35488:35941   */\n      swap3\n      swap2\n      pop\n      pop\n      jump\t// out\n        /* \"#utility.yul\":35947:36127   */\n    tag_731:\n        /* \"#utility.yul\":35995:36072   */\n      0x4e487b7100000000000000000000000000000000000000000000000000000000\n        /* \"#utility.yul\":35992:35993   */\n      0x00\n        /* \"#utility.yul\":35985:36073   */\n      mstore\n        /* \"#utility.yul\":36092:36096   */\n      0x22\n        /* \"#utility.yul\":36089:36090   */\n      0x04\n        /* \"#utility.yul\":36082:36097   */\n      mstore\n        /* \"#utility.yul\":36116:36120   */\n      0x24\n        /* \"#utility.yul\":36113:36114   */\n      0x00\n        /* \"#utility.yul\":36106:36121   */\n      revert\n        /* \"#utility.yul\":36133:36453   */\n    tag_140:\n        /* \"#utility.yul\":36177:36183   */\n      0x00\n        /* \"#utility.yul\":36214:36215   */\n      0x02\n        /* \"#utility.yul\":36208:36212   */\n      dup3\n        /* \"#utility.yul\":36204:36216   */\n      div\n        /* \"#utility.yul\":36194:36216   */\n      swap1\n      pop\n        /* \"#utility.yul\":36261:36262   */\n      0x01\n        /* \"#utility.yul\":36255:36259   */\n      dup3\n        /* \"#utility.yul\":36251:36263   */\n      and\n        /* \"#utility.yul\":36282:36300   */\n      dup1\n        /* \"#utility.yul\":36272:36353   */\n      tag_1053\n      jumpi\n        /* \"#utility.yul\":36338:36342   */\n      0x7f\n        /* \"#utility.yul\":36330:36336   */\n      dup3\n        /* \"#utility.yul\":36326:36343   */\n      and\n        /* \"#utility.yul\":36316:36343   */\n      swap2\n      pop\n        /* \"#utility.yul\":36272:36353   */\n    tag_1053:\n        /* \"#utility.yul\":36400:36402   */\n      0x20\n        /* \"#utility.yul\":36392:36398   */\n      dup3\n        /* \"#utility.yul\":36389:36403   */\n      lt\n        /* \"#utility.yul\":36369:36387   */\n      dup2\n        /* \"#utility.yul\":36366:36404   */\n      sub\n        /* \"#utility.yul\":36363:36447   */\n      tag_1054\n      jumpi\n        /* \"#utility.yul\":36419:36437   */\n      tag_1055\n      tag_731\n      jump\t// in\n    tag_1055:\n        /* \"#utility.yul\":36363:36447   */\n    tag_1054:\n        /* \"#utility.yul\":36184:36453   */\n      pop\n        /* \"#utility.yul\":36133:36453   */\n      swap2\n      swap1\n      pop\n      jump\t// out\n        /* \"#utility.yul\":36459:36607   */\n    tag_732:\n        /* \"#utility.yul\":36561:36572   */\n      0x00\n        /* \"#utility.yul\":36598:36601   */\n      dup2\n        /* \"#utility.yul\":36583:36601   */\n      swap1\n      pop\n        /* \"#utility.yul\":36459:36607   */\n      swap3\n      swap2\n      pop\n      pop\n      jump\t// out\n        /* \"#utility.yul\":36613:37003   */\n    tag_733:\n        /* \"#utility.yul\":36719:36722   */\n      0x00\n        /* \"#utility.yul\":36747:36786   */\n      tag_1058\n        /* \"#utility.yul\":36780:36785   */\n      dup3\n        /* \"#utility.yul\":36747:36786   */\n      tag_677\n      jump\t// in\n    tag_1058:\n        /* \"#utility.yul\":36802:36891   */\n      tag_1059\n        /* \"#utility.yul\":36884:36890   */\n      dup2\n        /* \"#utility.yul\":36879:36882   */\n      dup6\n        /* \"#utility.yul\":36802:36891   */\n      tag_732\n      jump\t// in\n    tag_1059:\n        /* \"#utility.yul\":36795:36891   */\n      swap4\n      pop\n        /* \"#utility.yul\":36900:36965   */\n      tag_1060\n        /* \"#utility.yul\":36958:36964   */\n      dup2\n        /* \"#utility.yul\":36953:36956   */\n      dup6\n        /* \"#utility.yul\":36946:36950   */\n      0x20\n        /* \"#utility.yul\":36939:36944   */\n      dup7\n        /* \"#utility.yul\":36935:36951   */\n      add\n        /* \"#utility.yul\":36900:36965   */\n      tag_679\n      jump\t// in\n    tag_1060:\n        /* \"#utility.yul\":36990:36996   */\n      dup1\n        /* \"#utility.yul\":36985:36988   */\n      dup5\n        /* \"#utility.yul\":36981:36997   */\n      add\n        /* \"#utility.yul\":36974:36997   */\n      swap2\n      pop\n        /* \"#utility.yul\":36723:37003   */\n      pop\n        /* \"#utility.yul\":36613:37003   */\n      swap3\n      swap2\n      pop\n      pop\n      jump\t// out\n        /* \"#utility.yul\":37009:37284   */\n    tag_260:\n        /* \"#utility.yul\":37141:37144   */\n      0x00\n        /* \"#utility.yul\":37163:37258   */\n      tag_1062\n        /* \"#utility.yul\":37254:37257   */\n      dup3\n        /* \"#utility.yul\":37245:37251   */\n      dup5\n        /* \"#utility.yul\":37163:37258   */\n      tag_733\n      jump\t// in\n    tag_1062:\n        /* \"#utility.yul\":37156:37258   */\n      swap2\n      pop\n        /* \"#utility.yul\":37275:37278   */\n      dup2\n        /* \"#utility.yul\":37268:37278   */\n      swap1\n      pop\n        /* \"#utility.yul\":37009:37284   */\n      swap3\n      swap2\n      pop\n      pop\n      jump\t// out\n        /* \"#utility.yul\":37290:37439   */\n    tag_734:\n        /* \"#utility.yul\":37339:37345   */\n      0x00\n        /* \"#utility.yul\":37373:37378   */\n      dup2\n        /* \"#utility.yul\":37367:37379   */\n      sload\n        /* \"#utility.yul\":37357:37379   */\n      swap1\n      pop\n        /* \"#utility.yul\":37399:37432   */\n      tag_1064\n        /* \"#utility.yul\":37425:37431   */\n      dup2\n        /* \"#utility.yul\":37399:37432   */\n      tag_140\n      jump\t// in\n    tag_1064:\n        /* \"#utility.yul\":37389:37432   */\n      swap1\n      pop\n        /* \"#utility.yul\":37290:37439   */\n      swap2\n      swap1\n      pop\n      jump\t// out\n        /* \"#utility.yul\":37445:37586   */\n    tag_735:\n        /* \"#utility.yul\":37494:37498   */\n      0x00\n        /* \"#utility.yul\":37517:37520   */\n      dup2\n        /* \"#utility.yul\":37509:37520   */\n      swap1\n      pop\n        /* \"#utility.yul\":37540:37543   */\n      dup2\n        /* \"#utility.yul\":37537:37538   */\n      0x00\n        /* \"#utility.yul\":37530:37544   */\n      mstore\n        /* \"#utility.yul\":37574:37578   */\n      0x20\n        /* \"#utility.yul\":37571:37572   */\n      0x00\n        /* \"#utility.yul\":37561:37579   */\n      keccak256\n        /* \"#utility.yul\":37553:37579   */\n      swap1\n      pop\n        /* \"#utility.yul\":37445:37586   */\n      swap2\n      swap1\n      pop\n      jump\t// out\n        /* \"#utility.yul\":37592:37685   */\n    tag_736:\n        /* \"#utility.yul\":37629:37635   */\n      0x00\n        /* \"#utility.yul\":37676:37678   */\n      0x20\n        /* \"#utility.yul\":37671:37673   */\n      0x1f\n        /* \"#utility.yul\":37664:37669   */\n      dup4\n        /* \"#utility.yul\":37660:37674   */\n      add\n        /* \"#utility.yul\":37656:37679   */\n      div\n        /* \"#utility.yul\":37646:37679   */\n      swap1\n      pop\n        /* \"#utility.yul\":37592:37685   */\n      swap2\n      swap1\n      pop\n      jump\t// out\n        /* \"#utility.yul\":37691:37798   */\n    tag_737:\n        /* \"#utility.yul\":37735:37743   */\n      0x00\n        /* \"#utility.yul\":37785:37790   */\n      dup3\n        /* \"#utility.yul\":37779:37783   */\n      dup3\n        /* \"#utility.yul\":37775:37791   */\n      shl\n        /* \"#utility.yul\":37754:37791   */\n      swap1\n      pop\n        /* \"#utility.yul\":37691:37798   */\n      swap3\n      swap2\n      pop\n      pop\n      jump\t// out\n        /* \"#utility.yul\":37804:38197   */\n    tag_738:\n        /* \"#utility.yul\":37873:37879   */\n      0x00\n        /* \"#utility.yul\":37923:37924   */\n      0x08\n        /* \"#utility.yul\":37911:37921   */\n      dup4\n        /* \"#utility.yul\":37907:37925   */\n      mul\n        /* \"#utility.yul\":37946:38043   */\n      tag_1069\n        /* \"#utility.yul\":37976:38042   */\n      0xffffffffffffffffffffffffffffffffffffffffffffffffffffffffffffffff\n        /* \"#utility.yul\":37965:37974   */\n      dup3\n        /* \"#utility.yul\":37946:38043   */\n      tag_737\n      jump\t// in\n    tag_1069:\n        /* \"#utility.yul\":38064:38103   */\n      tag_1070\n        /* \"#utility.yul\":38094:38102   */\n      dup7\n        /* \"#utility.yul\":38083:38092   */\n      dup4\n        /* \"#utility.yul\":38064:38103   */\n      tag_737\n      jump\t// in\n    tag_1070:\n        /* \"#utility.yul\":38052:38103   */\n      swap6\n      pop\n        /* \"#utility.yul\":38136:38140   */\n      dup1\n        /* \"#utility.yul\":38132:38141   */\n      not\n        /* \"#utility.yul\":38125:38130   */\n      dup5\n        /* \"#utility.yul\":38121:38142   */\n      and\n        /* \"#utility.yul\":38112:38142   */\n      swap4\n      pop\n        /* \"#utility.yul\":38185:38189   */\n      dup1\n        /* \"#utility.yul\":38175:38183   */\n      dup7\n        /* \"#utility.yul\":38171:38190   */\n      and\n        /* \"#utility.yul\":38164:38169   */\n      dup5\n        /* \"#utility.yul\":38161:38191   */\n      or\n        /* \"#utility.yul\":38151:38191   */\n      swap3\n      pop\n        /* \"#utility.yul\":37880:38197   */\n      pop\n      pop\n        /* \"#utility.yul\":37804:38197   */\n      swap4\n      swap3\n      pop\n      pop\n      pop\n      jump\t// out\n        /* \"#utility.yul\":38203:38263   */\n    tag_739:\n        /* \"#utility.yul\":38231:38234   */\n      0x00\n        /* \"#utility.yul\":38252:38257   */\n      dup2\n        /* \"#utility.yul\":38245:38257   */\n      swap1\n      pop\n        /* \"#utility.yul\":38203:38263   */\n      swap2\n      swap1\n      pop\n      jump\t// out\n        /* \"#utility.yul\":38269:38411   */\n    tag_740:\n        /* \"#utility.yul\":38319:38328   */\n      0x00\n        /* \"#utility.yul\":38352:38405   */\n      tag_1073\n        /* \"#utility.yul\":38370:38404   */\n      tag_1074\n        /* \"#utility.yul\":38379:38403   */\n      tag_1075\n        /* \"#utility.yul\":38397:38402   */\n      dup5\n        /* \"#utility.yul\":38379:38403   */\n      tag_684\n      jump\t// in\n    tag_1075:\n        /* \"#utility.yul\":38370:38404   */\n      tag_739\n      jump\t// in\n    tag_1074:\n        /* \"#utility.yul\":38352:38405   */\n      tag_684\n      jump\t// in\n    tag_1073:\n        /* \"#utility.yul\":38339:38405   */\n      swap1\n      pop\n        /* \"#utility.yul\":38269:38411   */\n      swap2\n      swap1\n      pop\n      jump\t// out\n        /* \"#utility.yul\":38417:38492   */\n    tag_741:\n        /* \"#utility.yul\":38460:38463   */\n      0x00\n        /* \"#utility.yul\":38481:38486   */\n      dup2\n        /* \"#utility.yul\":38474:38486   */\n      swap1\n      pop\n        /* \"#utility.yul\":38417:38492   */\n      swap2\n      swap1\n      pop\n      jump\t// out\n        /* \"#utility.yul\":38498:38767   */\n    tag_742:\n        /* \"#utility.yul\":38608:38647   */\n      tag_1078\n        /* \"#utility.yul\":38639:38646   */\n      dup4\n        /* \"#utility.yul\":38608:38647   */\n      tag_740\n      jump\t// in\n    tag_1078:\n        /* \"#utility.yul\":38669:38760   */\n      tag_1079\n        /* \"#utility.yul\":38718:38759   */\n      tag_1080\n        /* \"#utility.yul\":38742:38758   */\n      dup3\n        /* \"#utility.yul\":38718:38759   */\n      tag_741\n      jump\t// in\n    tag_1080:\n        /* \"#utility.yul\":38710:38716   */\n      dup5\n        /* \"#utility.yul\":38703:38707   */\n      dup5\n        /* \"#utility.yul\":38697:38708   */\n      sload\n        /* \"#utility.yul\":38669:38760   */\n      tag_738\n      jump\t// in\n    tag_1079:\n        /* \"#utility.yul\":38663:38667   */\n      dup3\n        /* \"#utility.yul\":38656:38761   */\n      sstore\n        /* \"#utility.yul\":38574:38767   */\n      pop\n        /* \"#utility.yul\":38498:38767   */\n      pop\n      pop\n      pop\n      jump\t// out\n        /* \"#utility.yul\":38773:38846   */\n    tag_743:\n        /* \"#utility.yul\":38818:38821   */\n      0x00\n        /* \"#utility.yul\":38773:38846   */\n      swap1\n      jump\t// out\n        /* \"#utility.yul\":38852:39041   */\n    tag_744:\n        /* \"#utility.yul\":38929:38961   */\n      tag_1083\n      tag_743\n      jump\t// in\n    tag_1083:\n        /* \"#utility.yul\":38970:39035   */\n      tag_1084\n        /* \"#utility.yul\":39028:39034   */\n      dup2\n        /* \"#utility.yul\":39020:39026   */\n      dup5\n        /* \"#utility.yul\":39014:39018   */\n      dup5\n        /* \"#utility.yul\":38970:39035   */\n      tag_742\n      jump\t// in\n    tag_1084:\n        /* \"#utility.yul\":38905:39041   */\n      pop\n        /* \"#utility.yul\":38852:39041   */\n      pop\n      pop\n      jump\t// out\n        /* \"#utility.yul\":39047:39233   */\n    tag_745:\n        /* \"#utility.yul\":39107:39227   */\n    tag_1086:\n        /* \"#utility.yul\":39124:39127   */\n      dup2\n        /* \"#utility.yul\":39117:39122   */\n      dup2\n        /* \"#utility.yul\":39114:39128   */\n      lt\n        /* \"#utility.yul\":39107:39227   */\n      iszero\n      tag_1088\n      jumpi\n        /* \"#utility.yul\":39178:39217   */\n      tag_1089\n        /* \"#utility.yul\":39215:39216   */\n      0x00\n        /* \"#utility.yul\":39208:39213   */\n      dup3\n        /* \"#utility.yul\":39178:39217   */\n      tag_744\n      jump\t// in\n    tag_1089:\n        /* \"#utility.yul\":39151:39152   */\n      0x01\n        /* \"#utility.yul\":39144:39149   */\n      dup2\n        /* \"#utility.yul\":39140:39153   */\n      add\n        /* \"#utility.yul\":39131:39153   */\n      swap1\n      pop\n        /* \"#utility.yul\":39107:39227   */\n      jump(tag_1086)\n    tag_1088:\n        /* \"#utility.yul\":39047:39233   */\n      pop\n      pop\n      jump\t// out\n        /* \"#utility.yul\":39239:39782   */\n    tag_746:\n        /* \"#utility.yul\":39340:39342   */\n      0x1f\n        /* \"#utility.yul\":39335:39338   */\n      dup3\n        /* \"#utility.yul\":39332:39343   */\n      gt\n        /* \"#utility.yul\":39329:39775   */\n      iszero\n      tag_1091\n      jumpi\n        /* \"#utility.yul\":39374:39412   */\n      tag_1092\n        /* \"#utility.yul\":39406:39411   */\n      dup2\n        /* \"#utility.yul\":39374:39412   */\n      tag_735\n      jump\t// in\n    tag_1092:\n        /* \"#utility.yul\":39458:39487   */\n      tag_1093\n        /* \"#utility.yul\":39476:39486   */\n      dup5\n        /* \"#utility.yul\":39458:39487   */\n      tag_736\n      jump\t// in\n    tag_1093:\n        /* \"#utility.yul\":39448:39456   */\n      dup2\n        /* \"#utility.yul\":39444:39488   */\n      add\n        /* \"#utility.yul\":39641:39643   */\n      0x20\n        /* \"#utility.yul\":39629:39639   */\n      dup6\n        /* \"#utility.yul\":39626:39644   */\n      lt\n        /* \"#utility.yul\":39623:39672   */\n      iszero\n      tag_1094\n      jumpi\n        /* \"#utility.yul\":39662:39670   */\n      dup2\n        /* \"#utility.yul\":39647:39670   */\n      swap1\n      pop\n        /* \"#utility.yul\":39623:39672   */\n    tag_1094:\n        /* \"#utility.yul\":39685:39765   */\n      tag_1095\n        /* \"#utility.yul\":39741:39763   */\n      tag_1096\n        /* \"#utility.yul\":39759:39762   */\n      dup6\n        /* \"#utility.yul\":39741:39763   */\n      tag_736\n      jump\t// in\n    tag_1096:\n        /* \"#utility.yul\":39731:39739   */\n      dup4\n        /* \"#utility.yul\":39727:39764   */\n      add\n        /* \"#utility.yul\":39714:39725   */\n      dup3\n        /* \"#utility.yul\":39685:39765   */\n      tag_745\n      jump\t// in\n    tag_1095:\n        /* \"#utility.yul\":39344:39775   */\n      pop\n      pop\n        /* \"#utility.yul\":39329:39775   */\n    tag_1091:\n        /* \"#utility.yul\":39239:39782   */\n      pop\n      pop\n      pop\n      jump\t// out\n        /* \"#utility.yul\":39788:39905   */\n    tag_747:\n        /* \"#utility.yul\":39842:39850   */\n      0x00\n        /* \"#utility.yul\":39892:39897   */\n      dup3\n        /* \"#utility.yul\":39886:39890   */\n      dup3\n        /* \"#utility.yul\":39882:39898   */\n      shr\n        /* \"#utility.yul\":39861:39898   */\n      swap1\n      pop\n        /* \"#utility.yul\":39788:39905   */\n      swap3\n      swap2\n      pop\n      pop\n      jump\t// out\n        /* \"#utility.yul\":39911:40080   */\n    tag_748:\n        /* \"#utility.yul\":39955:39961   */\n      0x00\n        /* \"#utility.yul\":39988:40039   */\n      tag_1099\n        /* \"#utility.yul\":40036:40037   */\n      0x00\n        /* \"#utility.yul\":40032:40038   */\n      not\n        /* \"#utility.yul\":40024:40029   */\n      dup5\n        /* \"#utility.yul\":40021:40022   */\n      0x08\n        /* \"#utility.yul\":40017:40030   */\n      mul\n        /* \"#utility.yul\":39988:40039   */\n      tag_747\n      jump\t// in\n    tag_1099:\n        /* \"#utility.yul\":39984:40040   */\n      not\n        /* \"#utility.yul\":40069:40073   */\n      dup1\n        /* \"#utility.yul\":40063:40067   */\n      dup4\n        /* \"#utility.yul\":40059:40074   */\n      and\n        /* \"#utility.yul\":40049:40074   */\n      swap2\n      pop\n        /* \"#utility.yul\":39962:40080   */\n      pop\n        /* \"#utility.yul\":39911:40080   */\n      swap3\n      swap2\n      pop\n      pop\n      jump\t// out\n        /* \"#utility.yul\":40085:40380   */\n    tag_749:\n        /* \"#utility.yul\":40161:40165   */\n      0x00\n        /* \"#utility.yul\":40307:40336   */\n      tag_1101\n        /* \"#utility.yul\":40332:40335   */\n      dup4\n        /* \"#utility.yul\":40326:40330   */\n      dup4\n        /* \"#utility.yul\":40307:40336   */\n      tag_748\n      jump\t// in\n    tag_1101:\n        /* \"#utility.yul\":40299:40336   */\n      swap2\n      pop\n        /* \"#utility.yul\":40369:40372   */\n      dup3\n        /* \"#utility.yul\":40366:40367   */\n      0x02\n        /* \"#utility.yul\":40362:40373   */\n      mul\n        /* \"#utility.yul\":40356:40360   */\n      dup3\n        /* \"#utility.yul\":40353:40374   */\n      or\n        /* \"#utility.yul\":40345:40374   */\n      swap1\n      pop\n        /* \"#utility.yul\":40085:40380   */\n      swap3\n      swap2\n      pop\n      pop\n      jump\t// out\n        /* \"#utility.yul\":40385:41836   */\n    tag_289:\n        /* \"#utility.yul\":40496:40499   */\n      dup2\n        /* \"#utility.yul\":40490:40494   */\n      dup2\n        /* \"#utility.yul\":40487:40500   */\n      sub\n        /* \"#utility.yul\":40484:40510   */\n      tag_1103\n      jumpi\n        /* \"#utility.yul\":40503:40508   */\n      pop\n      pop\n      jump(tag_1102)\n        /* \"#utility.yul\":40484:40510   */\n    tag_1103:\n        /* \"#utility.yul\":40534:40568   */\n      tag_1104\n        /* \"#utility.yul\":40564:40567   */\n      dup3\n        /* \"#utility.yul\":40534:40568   */\n      tag_734\n      jump\t// in\n    tag_1104:\n        /* \"#utility.yul\":40633:40651   */\n      0xffffffffffffffff\n        /* \"#utility.yul\":40625:40631   */\n      dup2\n        /* \"#utility.yul\":40622:40652   */\n      gt\n        /* \"#utility.yul\":40619:40675   */\n      iszero\n      tag_1105\n      jumpi\n        /* \"#utility.yul\":40655:40673   */\n      tag_1106\n      tag_670\n      jump\t// in\n    tag_1106:\n        /* \"#utility.yul\":40619:40675   */\n    tag_1105:\n        /* \"#utility.yul\":40699:40737   */\n      tag_1107\n        /* \"#utility.yul\":40731:40735   */\n      dup3\n        /* \"#utility.yul\":40725:40736   */\n      sload\n        /* \"#utility.yul\":40699:40737   */\n      tag_140\n      jump\t// in\n    tag_1107:\n        /* \"#utility.yul\":40784:40851   */\n      tag_1108\n        /* \"#utility.yul\":40844:40850   */\n      dup3\n        /* \"#utility.yul\":40836:40842   */\n      dup3\n        /* \"#utility.yul\":40830:40834   */\n      dup6\n        /* \"#utility.yul\":40784:40851   */\n      tag_746\n      jump\t// in\n    tag_1108:\n        /* \"#utility.yul\":40878:40879   */\n      0x00\n        /* \"#utility.yul\":40907:40909   */\n      0x1f\n        /* \"#utility.yul\":40899:40905   */\n      dup4\n        /* \"#utility.yul\":40896:40910   */\n      gt\n        /* \"#utility.yul\":40924:40925   */\n      0x01\n        /* \"#utility.yul\":40919:41591   */\n      dup2\n      eq\n      tag_1110\n      jumpi\n        /* \"#utility.yul\":41635:41636   */\n      0x00\n        /* \"#utility.yul\":41652:41658   */\n      dup5\n        /* \"#utility.yul\":41649:41726   */\n      iszero\n      tag_1111\n      jumpi\n        /* \"#utility.yul\":41701:41710   */\n      dup3\n        /* \"#utility.yul\":41696:41699   */\n      dup8\n        /* \"#utility.yul\":41692:41711   */\n      add\n        /* \"#utility.yul\":41686:41712   */\n      sload\n        /* \"#utility.yul\":41677:41712   */\n      swap1\n      pop\n        /* \"#utility.yul\":41649:41726   */\n    tag_1111:\n        /* \"#utility.yul\":41752:41819   */\n      tag_1112\n        /* \"#utility.yul\":41812:41818   */\n      dup6\n        /* \"#utility.yul\":41805:41810   */\n      dup3\n        /* \"#utility.yul\":41752:41819   */\n      tag_749\n      jump\t// in\n    tag_1112:\n        /* \"#utility.yul\":41746:41750   */\n      dup7\n        /* \"#utility.yul\":41739:41820   */\n      sstore\n        /* \"#utility.yul\":41608:41830   */\n      pop\n        /* \"#utility.yul\":40889:41830   */\n      jump(tag_1109)\n        /* \"#utility.yul\":40919:41591   */\n    tag_1110:\n        /* \"#utility.yul\":40971:40975   */\n      0x1f\n        /* \"#utility.yul\":40967:40976   */\n      not\n        /* \"#utility.yul\":40959:40965   */\n      dup5\n        /* \"#utility.yul\":40955:40977   */\n      and\n        /* \"#utility.yul\":40997:41033   */\n      tag_1113\n        /* \"#utility.yul\":41029:41032   */\n      dup8\n        /* \"#utility.yul\":40997:41033   */\n      tag_735\n      jump\t// in\n    tag_1113:\n        /* \"#utility.yul\":40990:41033   */\n      swap7\n      pop\n        /* \"#utility.yul\":41060:41097   */\n      tag_1114\n        /* \"#utility.yul\":41092:41096   */\n      dup7\n        /* \"#utility.yul\":41060:41097   */\n      tag_735\n      jump\t// in\n    tag_1114:\n        /* \"#utility.yul\":41119:41120   */\n      0x00\n        /* \"#utility.yul\":41133:41340   */\n    tag_1115:\n        /* \"#utility.yul\":41147:41154   */\n      dup3\n        /* \"#utility.yul\":41144:41145   */\n      dup2\n        /* \"#utility.yul\":41141:41155   */\n      lt\n        /* \"#utility.yul\":41133:41340   */\n      iszero\n      tag_1117\n      jumpi\n        /* \"#utility.yul\":41226:41235   */\n      dup5\n        /* \"#utility.yul\":41221:41224   */\n      dup10\n        /* \"#utility.yul\":41217:41236   */\n      add\n        /* \"#utility.yul\":41211:41237   */\n      sload\n        /* \"#utility.yul\":41203:41209   */\n      dup3\n        /* \"#utility.yul\":41196:41238   */\n      sstore\n        /* \"#utility.yul\":41277:41278   */\n      0x01\n        /* \"#utility.yul\":41269:41275   */\n      dup3\n        /* \"#utility.yul\":41265:41279   */\n      add\n        /* \"#utility.yul\":41255:41279   */\n      swap2\n      pop\n        /* \"#utility.yul\":41324:41325   */\n      0x01\n        /* \"#utility.yul\":41313:41322   */\n      dup6\n        /* \"#utility.yul\":41309:41326   */\n      add\n        /* \"#utility.yul\":41296:41326   */\n      swap5\n      pop\n        /* \"#utility.yul\":41170:41174   */\n      0x20\n        /* \"#utility.yul\":41167:41168   */\n      dup2\n        /* \"#utility.yul\":41163:41175   */\n      add\n        /* \"#utility.yul\":41158:41175   */\n      swap1\n      pop\n        /* \"#utility.yul\":41133:41340   */\n      jump(tag_1115)\n    tag_1117:\n        /* \"#utility.yul\":41368:41374   */\n      dup7\n        /* \"#utility.yul\":41359:41366   */\n      dup4\n        /* \"#utility.yul\":41356:41375   */\n      lt\n        /* \"#utility.yul\":41353:41532   */\n      iszero\n      tag_1118\n      jumpi\n        /* \"#utility.yul\":41426:41435   */\n      dup5\n        /* \"#utility.yul\":41421:41424   */\n      dup10\n        /* \"#utility.yul\":41417:41436   */\n      add\n        /* \"#utility.yul\":41411:41437   */\n      sload\n        /* \"#utility.yul\":41469:41517   */\n      tag_1119\n        /* \"#utility.yul\":41511:41515   */\n      0x1f\n        /* \"#utility.yul\":41503:41509   */\n      dup10\n        /* \"#utility.yul\":41499:41516   */\n      and\n        /* \"#utility.yul\":41488:41497   */\n      dup3\n        /* \"#utility.yul\":41469:41517   */\n      tag_748\n      jump\t// in\n    tag_1119:\n        /* \"#utility.yul\":41461:41467   */\n      dup4\n        /* \"#utility.yul\":41454:41518   */\n      sstore\n        /* \"#utility.yul\":41376:41532   */\n      pop\n        /* \"#utility.yul\":41353:41532   */\n    tag_1118:\n        /* \"#utility.yul\":41578:41579   */\n      0x01\n        /* \"#utility.yul\":41574:41575   */\n      0x02\n        /* \"#utility.yul\":41566:41572   */\n      dup9\n        /* \"#utility.yul\":41562:41576   */\n      mul\n        /* \"#utility.yul\":41558:41580   */\n      add\n        /* \"#utility.yul\":41552:41556   */\n      dup9\n        /* \"#utility.yul\":41545:41581   */\n      sstore\n        /* \"#utility.yul\":40926:41591   */\n      pop\n      pop\n      pop\n        /* \"#utility.yul\":40889:41830   */\n    tag_1109:\n      pop\n        /* \"#utility.yul\":40474:41836   */\n      pop\n      pop\n      pop\n        /* \"#utility.yul\":40385:41836   */\n      pop\n      pop\n    tag_1102:\n      jump\t// out\n        /* \"#utility.yul\":41842:42022   */\n    tag_750:\n        /* \"#utility.yul\":41890:41967   */\n      0x4e487b7100000000000000000000000000000000000000000000000000000000\n        /* \"#utility.yul\":41887:41888   */\n      0x00\n        /* \"#utility.yul\":41880:41968   */\n      mstore\n        /* \"#utility.yul\":41987:41991   */\n      0x11\n        /* \"#utility.yul\":41984:41985   */\n      0x04\n        /* \"#utility.yul\":41977:41992   */\n      mstore\n        /* \"#utility.yul\":42011:42015   */\n      0x24\n        /* \"#utility.yul\":42008:42009   */\n      0x00\n        /* \"#utility.yul\":42001:42016   */\n      revert\n        /* \"#utility.yul\":42028:42219   */\n    tag_292:\n        /* \"#utility.yul\":42068:42071   */\n      0x00\n        /* \"#utility.yul\":42087:42107   */\n      tag_1122\n        /* \"#utility.yul\":42105:42106   */\n      dup3\n        /* \"#utility.yul\":42087:42107   */\n      tag_684\n      jump\t// in\n    tag_1122:\n        /* \"#utility.yul\":42082:42107   */\n      swap2\n      pop\n        /* \"#utility.yul\":42121:42141   */\n      tag_1123\n        /* \"#utility.yul\":42139:42140   */\n      dup4\n        /* \"#utility.yul\":42121:42141   */\n      tag_684\n      jump\t// in\n    tag_1123:\n        /* \"#utility.yul\":42116:42141   */\n      swap3\n      pop\n        /* \"#utility.yul\":42164:42165   */\n      dup3\n        /* \"#utility.yul\":42161:42162   */\n      dup3\n        /* \"#utility.yul\":42157:42166   */\n      add\n        /* \"#utility.yul\":42150:42166   */\n      swap1\n      pop\n        /* \"#utility.yul\":42185:42188   */\n      dup1\n        /* \"#utility.yul\":42182:42183   */\n      dup3\n        /* \"#utility.yul\":42179:42189   */\n      gt\n        /* \"#utility.yul\":42176:42212   */\n      iszero\n      tag_1124\n      jumpi\n        /* \"#utility.yul\":42192:42210   */\n      tag_1125\n      tag_750\n      jump\t// in\n    tag_1125:\n        /* \"#utility.yul\":42176:42212   */\n    tag_1124:\n        /* \"#utility.yul\":42028:42219   */\n      swap3\n      swap2\n      pop\n      pop\n      jump\t// out\n        /* \"#utility.yul\":42225:43620   */\n    tag_308:\n        /* \"#utility.yul\":42342:42379   */\n      tag_1127\n        /* \"#utility.yul\":42375:42378   */\n      dup3\n        /* \"#utility.yul\":42342:42379   */\n      tag_677\n      jump\t// in\n    tag_1127:\n        /* \"#utility.yul\":42444:42462   */\n      0xffffffffffffffff\n        /* \"#utility.yul\":42436:42442   */\n      dup2\n        /* \"#utility.yul\":42433:42463   */\n      gt\n        /* \"#utility.yul\":42430:42486   */\n      iszero\n      tag_1128\n      jumpi\n        /* \"#utility.yul\":42466:42484   */\n      tag_1129\n      tag_670\n      jump\t// in\n    tag_1129:\n        /* \"#utility.yul\":42430:42486   */\n    tag_1128:\n        /* \"#utility.yul\":42510:42548   */\n      tag_1130\n        /* \"#utility.yul\":42542:42546   */\n      dup3\n        /* \"#utility.yul\":42536:42547   */\n      sload\n        /* \"#utility.yul\":42510:42548   */\n      tag_140\n      jump\t// in\n    tag_1130:\n        /* \"#utility.yul\":42595:42662   */\n      tag_1131\n        /* \"#utility.yul\":42655:42661   */\n      dup3\n        /* \"#utility.yul\":42647:42653   */\n      dup3\n        /* \"#utility.yul\":42641:42645   */\n      dup6\n        /* \"#utility.yul\":42595:42662   */\n      tag_746\n      jump\t// in\n    tag_1131:\n        /* \"#utility.yul\":42689:42690   */\n      0x00\n        /* \"#utility.yul\":42713:42717   */\n      0x20\n        /* \"#utility.yul\":42700:42717   */\n      swap1\n      pop\n        /* \"#utility.yul\":42745:42747   */\n      0x1f\n        /* \"#utility.yul\":42737:42743   */\n      dup4\n        /* \"#utility.yul\":42734:42748   */\n      gt\n        /* \"#utility.yul\":42762:42763   */\n      0x01\n        /* \"#utility.yul\":42757:43375   */\n      dup2\n      eq\n      tag_1133\n      jumpi\n        /* \"#utility.yul\":43419:43420   */\n      0x00\n        /* \"#utility.yul\":43436:43442   */\n      dup5\n        /* \"#utility.yul\":43433:43510   */\n      iszero\n      tag_1134\n      jumpi\n        /* \"#utility.yul\":43485:43494   */\n      dup3\n        /* \"#utility.yul\":43480:43483   */\n      dup8\n        /* \"#utility.yul\":43476:43495   */\n      add\n        /* \"#utility.yul\":43470:43496   */\n      mload\n        /* \"#utility.yul\":43461:43496   */\n      swap1\n      pop\n        /* \"#utility.yul\":43433:43510   */\n    tag_1134:\n        /* \"#utility.yul\":43536:43603   */\n      tag_1135\n        /* \"#utility.yul\":43596:43602   */\n      dup6\n        /* \"#utility.yul\":43589:43594   */\n      dup3\n        /* \"#utility.yul\":43536:43603   */\n      tag_749\n      jump\t// in\n    tag_1135:\n        /* \"#utility.yul\":43530:43534   */\n      dup7\n        /* \"#utility.yul\":43523:43604   */\n      sstore\n        /* \"#utility.yul\":43392:43614   */\n      pop\n        /* \"#utility.yul\":42727:43614   */\n      jump(tag_1132)\n        /* \"#utility.yul\":42757:43375   */\n    tag_1133:\n        /* \"#utility.yul\":42809:42813   */\n      0x1f\n        /* \"#utility.yul\":42805:42814   */\n      not\n        /* \"#utility.yul\":42797:42803   */\n      dup5\n        /* \"#utility.yul\":42793:42815   */\n      and\n        /* \"#utility.yul\":42843:42880   */\n      tag_1136\n        /* \"#utility.yul\":42875:42879   */\n      dup7\n        /* \"#utility.yul\":42843:42880   */\n      tag_735\n      jump\t// in\n    tag_1136:\n        /* \"#utility.yul\":42902:42903   */\n      0x00\n        /* \"#utility.yul\":42916:43124   */\n    tag_1137:\n        /* \"#utility.yul\":42930:42937   */\n      dup3\n        /* \"#utility.yul\":42927:42928   */\n      dup2\n        /* \"#utility.yul\":42924:42938   */\n      lt\n        /* \"#utility.yul\":42916:43124   */\n      iszero\n      tag_1139\n      jumpi\n        /* \"#utility.yul\":43009:43018   */\n      dup5\n        /* \"#utility.yul\":43004:43007   */\n      dup10\n        /* \"#utility.yul\":43000:43019   */\n      add\n        /* \"#utility.yul\":42994:43020   */\n      mload\n        /* \"#utility.yul\":42986:42992   */\n      dup3\n        /* \"#utility.yul\":42979:43021   */\n      sstore\n        /* \"#utility.yul\":43060:43061   */\n      0x01\n        /* \"#utility.yul\":43052:43058   */\n      dup3\n        /* \"#utility.yul\":43048:43062   */\n      add\n        /* \"#utility.yul\":43038:43062   */\n      swap2\n      pop\n        /* \"#utility.yul\":43107:43109   */\n      0x20\n        /* \"#utility.yul\":43096:43105   */\n      dup6\n        /* \"#utility.yul\":43092:43110   */\n      add\n        /* \"#utility.yul\":43079:43110   */\n      swap5\n      pop\n        /* \"#utility.yul\":42953:42957   */\n      0x20\n        /* \"#utility.yul\":42950:42951   */\n      dup2\n        /* \"#utility.yul\":42946:42958   */\n      add\n        /* \"#utility.yul\":42941:42958   */\n      swap1\n      pop\n        /* \"#utility.yul\":42916:43124   */\n      jump(tag_1137)\n    tag_1139:\n        /* \"#utility.yul\":43152:43158   */\n      dup7\n        /* \"#utility.yul\":43143:43150   */\n      dup4\n        /* \"#utility.yul\":43140:43159   */\n      lt\n        /* \"#utility.yul\":43137:43316   */\n      iszero\n      tag_1140\n      jumpi\n        /* \"#utility.yul\":43210:43219   */\n      dup5\n        /* \"#utility.yul\":43205:43208   */\n      dup10\n        /* \"#utility.yul\":43201:43220   */\n      add\n        /* \"#utility.yul\":43195:43221   */\n      mload\n        /* \"#utility.yul\":43253:43301   */\n      tag_1141\n        /* \"#utility.yul\":43295:43299   */\n      0x1f\n        /* \"#utility.yul\":43287:43293   */\n      dup10\n        /* \"#utility.yul\":43283:43300   */\n      and\n        /* \"#utility.yul\":43272:43281   */\n      dup3\n        /* \"#utility.yul\":43253:43301   */\n      tag_748\n      jump\t// in\n    tag_1141:\n        /* \"#utility.yul\":43245:43251   */\n      dup4\n        /* \"#utility.yul\":43238:43302   */\n      sstore\n        /* \"#utility.yul\":43160:43316   */\n      pop\n        /* \"#utility.yul\":43137:43316   */\n    tag_1140:\n        /* \"#utility.yul\":43362:43363   */\n      0x01\n        /* \"#utility.yul\":43358:43359   */\n      0x02\n        /* \"#utility.yul\":43350:43356   */\n      dup9\n        /* \"#utility.yul\":43346:43360   */\n      mul\n        /* \"#utility.yul\":43342:43364   */\n      add\n        /* \"#utility.yul\":43336:43340   */\n      dup9\n        /* \"#utility.yul\":43329:43365   */\n      sstore\n        /* \"#utility.yul\":42764:43375   */\n      pop\n      pop\n      pop\n        /* \"#utility.yul\":42727:43614   */\n    tag_1132:\n      pop\n        /* \"#utility.yul\":42317:43620   */\n      pop\n      pop\n      pop\n        /* \"#utility.yul\":42225:43620   */\n      pop\n      pop\n      jump\t// out\n        /* \"#utility.yul\":43626:43847   */\n    tag_751:\n        /* \"#utility.yul\":43766:43800   */\n      0x5472616e73616374696f6e2077697468207472616e73616374696f6e20686173\n        /* \"#utility.yul\":43762:43763   */\n      0x00\n        /* \"#utility.yul\":43754:43760   */\n      dup3\n        /* \"#utility.yul\":43750:43764   */\n      add\n        /* \"#utility.yul\":43743:43801   */\n      mstore\n        /* \"#utility.yul\":43835:43839   */\n      0x6820000000000000000000000000000000000000000000000000000000000000\n        /* \"#utility.yul\":43830:43832   */\n      0x20\n        /* \"#utility.yul\":43822:43828   */\n      dup3\n        /* \"#utility.yul\":43818:43833   */\n      add\n        /* \"#utility.yul\":43811:43840   */\n      mstore\n        /* \"#utility.yul\":43626:43847   */\n      pop\n      jump\t// out\n        /* \"#utility.yul\":43853:44255   */\n    tag_752:\n        /* \"#utility.yul\":44013:44016   */\n      0x00\n        /* \"#utility.yul\":44034:44119   */\n      tag_1144\n        /* \"#utility.yul\":44116:44118   */\n      0x22\n        /* \"#utility.yul\":44111:44114   */\n      dup4\n        /* \"#utility.yul\":44034:44119   */\n      tag_732\n      jump\t// in\n    tag_1144:\n        /* \"#utility.yul\":44027:44119   */\n      swap2\n      pop\n        /* \"#utility.yul\":44128:44221   */\n      tag_1145\n        /* \"#utility.yul\":44217:44220   */\n      dup3\n        /* \"#utility.yul\":44128:44221   */\n      tag_751\n      jump\t// in\n    tag_1145:\n        /* \"#utility.yul\":44246:44248   */\n      0x22\n        /* \"#utility.yul\":44241:44244   */\n      dup3\n        /* \"#utility.yul\":44237:44249   */\n      add\n        /* \"#utility.yul\":44230:44249   */\n      swap1\n      pop\n        /* \"#utility.yul\":43853:44255   */\n      swap2\n      swap1\n      pop\n      jump\t// out\n        /* \"#utility.yul\":44261:44497   */\n    tag_753:\n        /* \"#utility.yul\":44401:44435   */\n      0x20697320636f6d706c6574656420616e6420617070726f76656420627920616c\n        /* \"#utility.yul\":44397:44398   */\n      0x00\n        /* \"#utility.yul\":44389:44395   */\n      dup3\n        /* \"#utility.yul\":44385:44399   */\n      add\n        /* \"#utility.yul\":44378:44436   */\n      mstore\n        /* \"#utility.yul\":44470:44489   */\n      0x6c2074686520617574686f726974696573000000000000000000000000000000\n        /* \"#utility.yul\":44465:44467   */\n      0x20\n        /* \"#utility.yul\":44457:44463   */\n      dup3\n        /* \"#utility.yul\":44453:44468   */\n      add\n        /* \"#utility.yul\":44446:44490   */\n      mstore\n        /* \"#utility.yul\":44261:44497   */\n      pop\n      jump\t// out\n        /* \"#utility.yul\":44503:44905   */\n    tag_754:\n        /* \"#utility.yul\":44663:44666   */\n      0x00\n        /* \"#utility.yul\":44684:44769   */\n      tag_1148\n        /* \"#utility.yul\":44766:44768   */\n      0x31\n        /* \"#utility.yul\":44761:44764   */\n      dup4\n        /* \"#utility.yul\":44684:44769   */\n      tag_732\n      jump\t// in\n    tag_1148:\n        /* \"#utility.yul\":44677:44769   */\n      swap2\n      pop\n        /* \"#utility.yul\":44778:44871   */\n      tag_1149\n        /* \"#utility.yul\":44867:44870   */\n      dup3\n        /* \"#utility.yul\":44778:44871   */\n      tag_753\n      jump\t// in\n    tag_1149:\n        /* \"#utility.yul\":44896:44898   */\n      0x31\n        /* \"#utility.yul\":44891:44894   */\n      dup3\n        /* \"#utility.yul\":44887:44899   */\n      add\n        /* \"#utility.yul\":44880:44899   */\n      swap1\n      pop\n        /* \"#utility.yul\":44503:44905   */\n      swap2\n      swap1\n      pop\n      jump\t// out\n        /* \"#utility.yul\":44911:45718   */\n    tag_311:\n        /* \"#utility.yul\":45245:45248   */\n      0x00\n        /* \"#utility.yul\":45267:45415   */\n      tag_1151\n        /* \"#utility.yul\":45411:45414   */\n      dup3\n        /* \"#utility.yul\":45267:45415   */\n      tag_752\n      jump\t// in\n    tag_1151:\n        /* \"#utility.yul\":45260:45415   */\n      swap2\n      pop\n        /* \"#utility.yul\":45432:45527   */\n      tag_1152\n        /* \"#utility.yul\":45523:45526   */\n      dup3\n        /* \"#utility.yul\":45514:45520   */\n      dup5\n        /* \"#utility.yul\":45432:45527   */\n      tag_733\n      jump\t// in\n    tag_1152:\n        /* \"#utility.yul\":45425:45527   */\n      swap2\n      pop\n        /* \"#utility.yul\":45544:45692   */\n      tag_1153\n        /* \"#utility.yul\":45688:45691   */\n      dup3\n        /* \"#utility.yul\":45544:45692   */\n      tag_754\n      jump\t// in\n    tag_1153:\n        /* \"#utility.yul\":45537:45692   */\n      swap2\n      pop\n        /* \"#utility.yul\":45709:45712   */\n      dup2\n        /* \"#utility.yul\":45702:45712   */\n      swap1\n      pop\n        /* \"#utility.yul\":44911:45718   */\n      swap3\n      swap2\n      pop\n      pop\n      jump\t// out\n        /* \"#utility.yul\":45724:45869   */\n    tag_755:\n        /* \"#utility.yul\":45777:45781   */\n      0x00\n        /* \"#utility.yul\":45800:45803   */\n      dup2\n        /* \"#utility.yul\":45792:45803   */\n      swap1\n      pop\n        /* \"#utility.yul\":45823:45826   */\n      dup2\n        /* \"#utility.yul\":45820:45821   */\n      0x00\n        /* \"#utility.yul\":45813:45827   */\n      mstore\n        /* \"#utility.yul\":45857:45861   */\n      0x20\n        /* \"#utility.yul\":45854:45855   */\n      0x00\n        /* \"#utility.yul\":45844:45862   */\n      keccak256\n        /* \"#utility.yul\":45836:45862   */\n      swap1\n      pop\n        /* \"#utility.yul\":45724:45869   */\n      swap2\n      swap1\n      pop\n      jump\t// out\n        /* \"#utility.yul\":45899:46781   */\n    tag_756:\n        /* \"#utility.yul\":46006:46009   */\n      0x00\n        /* \"#utility.yul\":46043:46048   */\n      dup2\n        /* \"#utility.yul\":46037:46049   */\n      sload\n        /* \"#utility.yul\":46072:46108   */\n      tag_1156\n        /* \"#utility.yul\":46098:46107   */\n      dup2\n        /* \"#utility.yul\":46072:46108   */\n      tag_140\n      jump\t// in\n    tag_1156:\n        /* \"#utility.yul\":46124:46213   */\n      tag_1157\n        /* \"#utility.yul\":46206:46212   */\n      dup2\n        /* \"#utility.yul\":46201:46204   */\n      dup7\n        /* \"#utility.yul\":46124:46213   */\n      tag_732\n      jump\t// in\n    tag_1157:\n        /* \"#utility.yul\":46117:46213   */\n      swap5\n      pop\n        /* \"#utility.yul\":46244:46245   */\n      0x01\n        /* \"#utility.yul\":46233:46242   */\n      dup3\n        /* \"#utility.yul\":46229:46246   */\n      and\n        /* \"#utility.yul\":46260:46261   */\n      0x00\n        /* \"#utility.yul\":46255:46421   */\n      dup2\n      eq\n      tag_1159\n      jumpi\n        /* \"#utility.yul\":46435:46436   */\n      0x01\n        /* \"#utility.yul\":46430:46775   */\n      dup2\n      eq\n      tag_1160\n      jumpi\n        /* \"#utility.yul\":46222:46775   */\n      jump(tag_1158)\n        /* \"#utility.yul\":46255:46421   */\n    tag_1159:\n        /* \"#utility.yul\":46339:46343   */\n      0xff\n        /* \"#utility.yul\":46335:46344   */\n      not\n        /* \"#utility.yul\":46324:46333   */\n      dup4\n        /* \"#utility.yul\":46320:46345   */\n      and\n        /* \"#utility.yul\":46315:46318   */\n      dup7\n        /* \"#utility.yul\":46308:46346   */\n      mstore\n        /* \"#utility.yul\":46401:46407   */\n      dup2\n        /* \"#utility.yul\":46394:46408   */\n      iszero\n        /* \"#utility.yul\":46387:46409   */\n      iszero\n        /* \"#utility.yul\":46379:46385   */\n      dup3\n        /* \"#utility.yul\":46375:46410   */\n      mul\n        /* \"#utility.yul\":46370:46373   */\n      dup7\n        /* \"#utility.yul\":46366:46411   */\n      add\n        /* \"#utility.yul\":46359:46411   */\n      swap4\n      pop\n        /* \"#utility.yul\":46255:46421   */\n      jump(tag_1158)\n        /* \"#utility.yul\":46430:46775   */\n    tag_1160:\n        /* \"#utility.yul\":46497:46539   */\n      tag_1161\n        /* \"#utility.yul\":46533:46538   */\n      dup6\n        /* \"#utility.yul\":46497:46539   */\n      tag_755\n      jump\t// in\n    tag_1161:\n        /* \"#utility.yul\":46561:46562   */\n      0x00\n        /* \"#utility.yul\":46575:46729   */\n    tag_1162:\n        /* \"#utility.yul\":46589:46595   */\n      dup4\n        /* \"#utility.yul\":46586:46587   */\n      dup2\n        /* \"#utility.yul\":46583:46596   */\n      lt\n        /* \"#utility.yul\":46575:46729   */\n      iszero\n      tag_1164\n      jumpi\n        /* \"#utility.yul\":46663:46670   */\n      dup2\n        /* \"#utility.yul\":46657:46671   */\n      sload\n        /* \"#utility.yul\":46653:46654   */\n      dup2\n        /* \"#utility.yul\":46648:46651   */\n      dup10\n        /* \"#utility.yul\":46644:46655   */\n      add\n        /* \"#utility.yul\":46637:46672   */\n      mstore\n        /* \"#utility.yul\":46713:46714   */\n      0x01\n        /* \"#utility.yul\":46704:46711   */\n      dup3\n        /* \"#utility.yul\":46700:46715   */\n      add\n        /* \"#utility.yul\":46689:46715   */\n      swap2\n      pop\n        /* \"#utility.yul\":46611:46615   */\n      0x20\n        /* \"#utility.yul\":46608:46609   */\n      dup2\n        /* \"#utility.yul\":46604:46616   */\n      add\n        /* \"#utility.yul\":46599:46616   */\n      swap1\n      pop\n        /* \"#utility.yul\":46575:46729   */\n      jump(tag_1162)\n    tag_1164:\n        /* \"#utility.yul\":46758:46764   */\n      dup4\n        /* \"#utility.yul\":46753:46756   */\n      dup9\n        /* \"#utility.yul\":46749:46765   */\n      add\n        /* \"#utility.yul\":46742:46765   */\n      swap6\n      pop\n        /* \"#utility.yul\":46437:46775   */\n      pop\n      pop\n        /* \"#utility.yul\":46222:46775   */\n    tag_1158:\n      pop\n        /* \"#utility.yul\":46010:46781   */\n      pop\n      pop\n        /* \"#utility.yul\":45899:46781   */\n      swap3\n      swap2\n      pop\n      pop\n      jump\t// out\n        /* \"#utility.yul\":46787:47064   */\n    tag_322:\n        /* \"#utility.yul\":46920:46923   */\n      0x00\n        /* \"#utility.yul\":46942:47038   */\n      tag_1166\n        /* \"#utility.yul\":47034:47037   */\n      dup3\n        /* \"#utility.yul\":47025:47031   */\n      dup5\n        /* \"#utility.yul\":46942:47038   */\n      tag_756\n      jump\t// in\n    tag_1166:\n        /* \"#utility.yul\":46935:47038   */\n      swap2\n      pop\n        /* \"#utility.yul\":47055:47058   */\n      dup2\n        /* \"#utility.yul\":47048:47058   */\n      swap1\n      pop\n        /* \"#utility.yul\":46787:47064   */\n      swap3\n      swap2\n      pop\n      pop\n      jump\t// out\n        /* \"#utility.yul\":47070:47236   */\n    tag_757:\n        /* \"#utility.yul\":47210:47228   */\n      0x20697320617070726f7665642062792000000000000000000000000000000000\n        /* \"#utility.yul\":47206:47207   */\n      0x00\n        /* \"#utility.yul\":47198:47204   */\n      dup3\n        /* \"#utility.yul\":47194:47208   */\n      add\n        /* \"#utility.yul\":47187:47229   */\n      mstore\n        /* \"#utility.yul\":47070:47236   */\n      pop\n      jump\t// out\n        /* \"#utility.yul\":47242:47644   */\n    tag_758:\n        /* \"#utility.yul\":47402:47405   */\n      0x00\n        /* \"#utility.yul\":47423:47508   */\n      tag_1169\n        /* \"#utility.yul\":47505:47507   */\n      0x10\n        /* \"#utility.yul\":47500:47503   */\n      dup4\n        /* \"#utility.yul\":47423:47508   */\n      tag_732\n      jump\t// in\n    tag_1169:\n        /* \"#utility.yul\":47416:47508   */\n      swap2\n      pop\n        /* \"#utility.yul\":47517:47610   */\n      tag_1170\n        /* \"#utility.yul\":47606:47609   */\n      dup3\n        /* \"#utility.yul\":47517:47610   */\n      tag_757\n      jump\t// in\n    tag_1170:\n        /* \"#utility.yul\":47635:47637   */\n      0x10\n        /* \"#utility.yul\":47630:47633   */\n      dup3\n        /* \"#utility.yul\":47626:47638   */\n      add\n        /* \"#utility.yul\":47619:47638   */\n      swap1\n      pop\n        /* \"#utility.yul\":47242:47644   */\n      swap2\n      swap1\n      pop\n      jump\t// out\n        /* \"#utility.yul\":47650:48619   */\n    tag_333:\n        /* \"#utility.yul\":48033:48036   */\n      0x00\n        /* \"#utility.yul\":48055:48203   */\n      tag_1172\n        /* \"#utility.yul\":48199:48202   */\n      dup3\n        /* \"#utility.yul\":48055:48203   */\n      tag_752\n      jump\t// in\n    tag_1172:\n        /* \"#utility.yul\":48048:48203   */\n      swap2\n      pop\n        /* \"#utility.yul\":48220:48315   */\n      tag_1173\n        /* \"#utility.yul\":48311:48314   */\n      dup3\n        /* \"#utility.yul\":48302:48308   */\n      dup6\n        /* \"#utility.yul\":48220:48315   */\n      tag_733\n      jump\t// in\n    tag_1173:\n        /* \"#utility.yul\":48213:48315   */\n      swap2\n      pop\n        /* \"#utility.yul\":48332:48480   */\n      tag_1174\n        /* \"#utility.yul\":48476:48479   */\n      dup3\n        /* \"#utility.yul\":48332:48480   */\n      tag_758\n      jump\t// in\n    tag_1174:\n        /* \"#utility.yul\":48325:48480   */\n      swap2\n      pop\n        /* \"#utility.yul\":48497:48593   */\n      tag_1175\n        /* \"#utility.yul\":48589:48592   */\n      dup3\n        /* \"#utility.yul\":48580:48586   */\n      dup5\n        /* \"#utility.yul\":48497:48593   */\n      tag_756\n      jump\t// in\n    tag_1175:\n        /* \"#utility.yul\":48490:48593   */\n      swap2\n      pop\n        /* \"#utility.yul\":48610:48613   */\n      dup2\n        /* \"#utility.yul\":48603:48613   */\n      swap1\n      pop\n        /* \"#utility.yul\":47650:48619   */\n      swap4\n      swap3\n      pop\n      pop\n      pop\n      jump\t// out\n        /* \"#utility.yul\":48625:48805   */\n    tag_368:\n        /* \"#utility.yul\":48673:48750   */\n      0x4e487b7100000000000000000000000000000000000000000000000000000000\n        /* \"#utility.yul\":48670:48671   */\n      0x00\n        /* \"#utility.yul\":48663:48751   */\n      mstore\n        /* \"#utility.yul\":48770:48774   */\n      0x32\n        /* \"#utility.yul\":48767:48768   */\n      0x04\n        /* \"#utility.yul\":48760:48775   */\n      mstore\n        /* \"#utility.yul\":48794:48798   */\n      0x24\n        /* \"#utility.yul\":48791:48792   */\n      0x00\n        /* \"#utility.yul\":48784:48799   */\n      revert\n        /* \"#utility.yul\":48811:49044   */\n    tag_385:\n        /* \"#utility.yul\":48850:48853   */\n      0x00\n        /* \"#utility.yul\":48873:48897   */\n      tag_1178\n        /* \"#utility.yul\":48891:48896   */\n      dup3\n        /* \"#utility.yul\":48873:48897   */\n      tag_684\n      jump\t// in\n    tag_1178:\n        /* \"#utility.yul\":48864:48897   */\n      swap2\n      pop\n        /* \"#utility.yul\":48919:48985   */\n      0xffffffffffffffffffffffffffffffffffffffffffffffffffffffffffffffff\n        /* \"#utility.yul\":48912:48917   */\n      dup3\n        /* \"#utility.yul\":48909:48986   */\n      sub\n        /* \"#utility.yul\":48906:49009   */\n      tag_1179\n      jumpi\n        /* \"#utility.yul\":48989:49007   */\n      tag_1180\n      tag_750\n      jump\t// in\n    tag_1180:\n        /* \"#utility.yul\":48906:49009   */\n    tag_1179:\n        /* \"#utility.yul\":49036:49037   */\n      0x01\n        /* \"#utility.yul\":49029:49034   */\n      dup3\n        /* \"#utility.yul\":49025:49038   */\n      add\n        /* \"#utility.yul\":49018:49038   */\n      swap1\n      pop\n        /* \"#utility.yul\":48811:49044   */\n      swap2\n      swap1\n      pop\n      jump\t// out\n        /* \"#utility.yul\":49050:49211   */\n    tag_759:\n        /* \"#utility.yul\":49190:49203   */\n      0x2069732065787069726564000000000000000000000000000000000000000000\n        /* \"#utility.yul\":49186:49187   */\n      0x00\n        /* \"#utility.yul\":49178:49184   */\n      dup3\n        /* \"#utility.yul\":49174:49188   */\n      add\n        /* \"#utility.yul\":49167:49204   */\n      mstore\n        /* \"#utility.yul\":49050:49211   */\n      pop\n      jump\t// out\n        /* \"#utility.yul\":49217:49619   */\n    tag_760:\n        /* \"#utility.yul\":49377:49380   */\n      0x00\n        /* \"#utility.yul\":49398:49483   */\n      tag_1183\n        /* \"#utility.yul\":49480:49482   */\n      0x0b\n        /* \"#utility.yul\":49475:49478   */\n      dup4\n        /* \"#utility.yul\":49398:49483   */\n      tag_732\n      jump\t// in\n    tag_1183:\n        /* \"#utility.yul\":49391:49483   */\n      swap2\n      pop\n        /* \"#utility.yul\":49492:49585   */\n      tag_1184\n        /* \"#utility.yul\":49581:49584   */\n      dup3\n        /* \"#utility.yul\":49492:49585   */\n      tag_759\n      jump\t// in\n    tag_1184:\n        /* \"#utility.yul\":49610:49612   */\n      0x0b\n        /* \"#utility.yul\":49605:49608   */\n      dup3\n        /* \"#utility.yul\":49601:49613   */\n      add\n        /* \"#utility.yul\":49594:49613   */\n      swap1\n      pop\n        /* \"#utility.yul\":49217:49619   */\n      swap2\n      swap1\n      pop\n      jump\t// out\n        /* \"#utility.yul\":49625:50432   */\n    tag_503:\n        /* \"#utility.yul\":49959:49962   */\n      0x00\n        /* \"#utility.yul\":49981:50129   */\n      tag_1186\n        /* \"#utility.yul\":50125:50128   */\n      dup3\n        /* \"#utility.yul\":49981:50129   */\n      tag_752\n      jump\t// in\n    tag_1186:\n        /* \"#utility.yul\":49974:50129   */\n      swap2\n      pop\n        /* \"#utility.yul\":50146:50241   */\n      tag_1187\n        /* \"#utility.yul\":50237:50240   */\n      dup3\n        /* \"#utility.yul\":50228:50234   */\n      dup5\n        /* \"#utility.yul\":50146:50241   */\n      tag_733\n      jump\t// in\n    tag_1187:\n        /* \"#utility.yul\":50139:50241   */\n      swap2\n      pop\n        /* \"#utility.yul\":50258:50406   */\n      tag_1188\n        /* \"#utility.yul\":50402:50405   */\n      dup3\n        /* \"#utility.yul\":50258:50406   */\n      tag_760\n      jump\t// in\n    tag_1188:\n        /* \"#utility.yul\":50251:50406   */\n      swap2\n      pop\n        /* \"#utility.yul\":50423:50426   */\n      dup2\n        /* \"#utility.yul\":50416:50426   */\n      swap1\n      pop\n        /* \"#utility.yul\":49625:50432   */\n      swap3\n      swap2\n      pop\n      pop\n      jump\t// out\n        /* \"#utility.yul\":50438:50604   */\n    tag_761:\n        /* \"#utility.yul\":50578:50596   */\n      0x206973206578706972656420666f722000000000000000000000000000000000\n        /* \"#utility.yul\":50574:50575   */\n      0x00\n        /* \"#utility.yul\":50566:50572   */\n      dup3\n        /* \"#utility.yul\":50562:50576   */\n      add\n        /* \"#utility.yul\":50555:50597   */\n      mstore\n        /* \"#utility.yul\":50438:50604   */\n      pop\n      jump\t// out\n        /* \"#utility.yul\":50610:51012   */\n    tag_762:\n        /* \"#utility.yul\":50770:50773   */\n      0x00\n        /* \"#utility.yul\":50791:50876   */\n      tag_1191\n        /* \"#utility.yul\":50873:50875   */\n      0x10\n        /* \"#utility.yul\":50868:50871   */\n      dup4\n        /* \"#utility.yul\":50791:50876   */\n      tag_732\n      jump\t// in\n    tag_1191:\n        /* \"#utility.yul\":50784:50876   */\n      swap2\n      pop\n        /* \"#utility.yul\":50885:50978   */\n      tag_1192\n        /* \"#utility.yul\":50974:50977   */\n      dup3\n        /* \"#utility.yul\":50885:50978   */\n      tag_761\n      jump\t// in\n    tag_1192:\n        /* \"#utility.yul\":51003:51005   */\n      0x10\n        /* \"#utility.yul\":50998:51001   */\n      dup3\n        /* \"#utility.yul\":50994:51006   */\n      add\n        /* \"#utility.yul\":50987:51006   */\n      swap1\n      pop\n        /* \"#utility.yul\":50610:51012   */\n      swap2\n      swap1\n      pop\n      jump\t// out\n        /* \"#utility.yul\":51042:51916   */\n    tag_763:\n        /* \"#utility.yul\":51145:51148   */\n      0x00\n        /* \"#utility.yul\":51182:51187   */\n      dup2\n        /* \"#utility.yul\":51176:51188   */\n      sload\n        /* \"#utility.yul\":51211:51247   */\n      tag_1194\n        /* \"#utility.yul\":51237:51246   */\n      dup2\n        /* \"#utility.yul\":51211:51247   */\n      tag_140\n      jump\t// in\n    tag_1194:\n        /* \"#utility.yul\":51263:51352   */\n      tag_1195\n        /* \"#utility.yul\":51345:51351   */\n      dup2\n        /* \"#utility.yul\":51340:51343   */\n      dup7\n        /* \"#utility.yul\":51263:51352   */\n      tag_732\n      jump\t// in\n    tag_1195:\n        /* \"#utility.yul\":51256:51352   */\n      swap5\n      pop\n        /* \"#utility.yul\":51383:51384   */\n      0x01\n        /* \"#utility.yul\":51372:51381   */\n      dup3\n        /* \"#utility.yul\":51368:51385   */\n      and\n        /* \"#utility.yul\":51399:51400   */\n      0x00\n        /* \"#utility.yul\":51394:51560   */\n      dup2\n      eq\n      tag_1197\n      jumpi\n        /* \"#utility.yul\":51574:51575   */\n      0x01\n        /* \"#utility.yul\":51569:51910   */\n      dup2\n      eq\n      tag_1198\n      jumpi\n        /* \"#utility.yul\":51361:51910   */\n      jump(tag_1196)\n        /* \"#utility.yul\":51394:51560   */\n    tag_1197:\n        /* \"#utility.yul\":51478:51482   */\n      0xff\n        /* \"#utility.yul\":51474:51483   */\n      not\n        /* \"#utility.yul\":51463:51472   */\n      dup4\n        /* \"#utility.yul\":51459:51484   */\n      and\n        /* \"#utility.yul\":51454:51457   */\n      dup7\n        /* \"#utility.yul\":51447:51485   */\n      mstore\n        /* \"#utility.yul\":51540:51546   */\n      dup2\n        /* \"#utility.yul\":51533:51547   */\n      iszero\n        /* \"#utility.yul\":51526:51548   */\n      iszero\n        /* \"#utility.yul\":51518:51524   */\n      dup3\n        /* \"#utility.yul\":51514:51549   */\n      mul\n        /* \"#utility.yul\":51509:51512   */\n      dup7\n        /* \"#utility.yul\":51505:51550   */\n      add\n        /* \"#utility.yul\":51498:51550   */\n      swap4\n      pop\n        /* \"#utility.yul\":51394:51560   */\n      jump(tag_1196)\n        /* \"#utility.yul\":51569:51910   */\n    tag_1198:\n        /* \"#utility.yul\":51636:51674   */\n      tag_1199\n        /* \"#utility.yul\":51668:51673   */\n      dup6\n        /* \"#utility.yul\":51636:51674   */\n      tag_735\n      jump\t// in\n    tag_1199:\n        /* \"#utility.yul\":51696:51697   */\n      0x00\n        /* \"#utility.yul\":51710:51864   */\n    tag_1200:\n        /* \"#utility.yul\":51724:51730   */\n      dup4\n        /* \"#utility.yul\":51721:51722   */\n      dup2\n        /* \"#utility.yul\":51718:51731   */\n      lt\n        /* \"#utility.yul\":51710:51864   */\n      iszero\n      tag_1202\n      jumpi\n        /* \"#utility.yul\":51798:51805   */\n      dup2\n        /* \"#utility.yul\":51792:51806   */\n      sload\n        /* \"#utility.yul\":51788:51789   */\n      dup2\n        /* \"#utility.yul\":51783:51786   */\n      dup10\n        /* \"#utility.yul\":51779:51790   */\n      add\n        /* \"#utility.yul\":51772:51807   */\n      mstore\n        /* \"#utility.yul\":51848:51849   */\n      0x01\n        /* \"#utility.yul\":51839:51846   */\n      dup3\n        /* \"#utility.yul\":51835:51850   */\n      add\n        /* \"#utility.yul\":51824:51850   */\n      swap2\n      pop\n        /* \"#utility.yul\":51746:51750   */\n      0x20\n        /* \"#utility.yul\":51743:51744   */\n      dup2\n        /* \"#utility.yul\":51739:51751   */\n      add\n        /* \"#utility.yul\":51734:51751   */\n      swap1\n      pop\n        /* \"#utility.yul\":51710:51864   */\n      jump(tag_1200)\n    tag_1202:\n        /* \"#utility.yul\":51893:51899   */\n      dup4\n        /* \"#utility.yul\":51888:51891   */\n      dup9\n        /* \"#utility.yul\":51884:51900   */\n      add\n        /* \"#utility.yul\":51877:51900   */\n      swap6\n      pop\n        /* \"#utility.yul\":51576:51910   */\n      pop\n      pop\n        /* \"#utility.yul\":51361:51910   */\n    tag_1196:\n      pop\n        /* \"#utility.yul\":51149:51916   */\n      pop\n      pop\n        /* \"#utility.yul\":51042:51916   */\n      swap3\n      swap2\n      pop\n      pop\n      jump\t// out\n        /* \"#utility.yul\":51922:52158   */\n    tag_764:\n        /* \"#utility.yul\":52062:52096   */\n      0x20616e6420686173206265656e207472616e7366657272656420746f20746865\n        /* \"#utility.yul\":52058:52059   */\n      0x00\n        /* \"#utility.yul\":52050:52056   */\n      dup3\n        /* \"#utility.yul\":52046:52060   */\n      add\n        /* \"#utility.yul\":52039:52097   */\n      mstore\n        /* \"#utility.yul\":52131:52150   */\n      0x2068696768657220617574686f72697479000000000000000000000000000000\n        /* \"#utility.yul\":52126:52128   */\n      0x20\n        /* \"#utility.yul\":52118:52124   */\n      dup3\n        /* \"#utility.yul\":52114:52129   */\n      add\n        /* \"#utility.yul\":52107:52151   */\n      mstore\n        /* \"#utility.yul\":51922:52158   */\n      pop\n      jump\t// out\n        /* \"#utility.yul\":52164:52566   */\n    tag_765:\n        /* \"#utility.yul\":52324:52327   */\n      0x00\n        /* \"#utility.yul\":52345:52430   */\n      tag_1205\n        /* \"#utility.yul\":52427:52429   */\n      0x31\n        /* \"#utility.yul\":52422:52425   */\n      dup4\n        /* \"#utility.yul\":52345:52430   */\n      tag_732\n      jump\t// in\n    tag_1205:\n        /* \"#utility.yul\":52338:52430   */\n      swap2\n      pop\n        /* \"#utility.yul\":52439:52532   */\n      tag_1206\n        /* \"#utility.yul\":52528:52531   */\n      dup3\n        /* \"#utility.yul\":52439:52532   */\n      tag_764\n      jump\t// in\n    tag_1206:\n        /* \"#utility.yul\":52557:52559   */\n      0x31\n        /* \"#utility.yul\":52552:52555   */\n      dup3\n        /* \"#utility.yul\":52548:52560   */\n      add\n        /* \"#utility.yul\":52541:52560   */\n      swap1\n      pop\n        /* \"#utility.yul\":52164:52566   */\n      swap2\n      swap1\n      pop\n      jump\t// out\n        /* \"#utility.yul\":52572:53799   */\n    tag_534:\n        /* \"#utility.yul\":53052:53055   */\n      0x00\n        /* \"#utility.yul\":53074:53222   */\n      tag_1208\n        /* \"#utility.yul\":53218:53221   */\n      dup3\n        /* \"#utility.yul\":53074:53222   */\n      tag_752\n      jump\t// in\n    tag_1208:\n        /* \"#utility.yul\":53067:53222   */\n      swap2\n      pop\n        /* \"#utility.yul\":53239:53334   */\n      tag_1209\n        /* \"#utility.yul\":53330:53333   */\n      dup3\n        /* \"#utility.yul\":53321:53327   */\n      dup6\n        /* \"#utility.yul\":53239:53334   */\n      tag_733\n      jump\t// in\n    tag_1209:\n        /* \"#utility.yul\":53232:53334   */\n      swap2\n      pop\n        /* \"#utility.yul\":53351:53499   */\n      tag_1210\n        /* \"#utility.yul\":53495:53498   */\n      dup3\n        /* \"#utility.yul\":53351:53499   */\n      tag_762\n      jump\t// in\n    tag_1210:\n        /* \"#utility.yul\":53344:53499   */\n      swap2\n      pop\n        /* \"#utility.yul\":53516:53608   */\n      tag_1211\n        /* \"#utility.yul\":53604:53607   */\n      dup3\n        /* \"#utility.yul\":53595:53601   */\n      dup5\n        /* \"#utility.yul\":53516:53608   */\n      tag_763\n      jump\t// in\n    tag_1211:\n        /* \"#utility.yul\":53509:53608   */\n      swap2\n      pop\n        /* \"#utility.yul\":53625:53773   */\n      tag_1212\n        /* \"#utility.yul\":53769:53772   */\n      dup3\n        /* \"#utility.yul\":53625:53773   */\n      tag_765\n      jump\t// in\n    tag_1212:\n        /* \"#utility.yul\":53618:53773   */\n      swap2\n      pop\n        /* \"#utility.yul\":53790:53793   */\n      dup2\n        /* \"#utility.yul\":53783:53793   */\n      swap1\n      pop\n        /* \"#utility.yul\":52572:53799   */\n      swap4\n      swap3\n      pop\n      pop\n      pop\n      jump\t// out\n        /* \"#utility.yul\":53805:53956   */\n    tag_766:\n        /* \"#utility.yul\":53945:53948   */\n      0x2000000000000000000000000000000000000000000000000000000000000000\n        /* \"#utility.yul\":53941:53942   */\n      0x00\n        /* \"#utility.yul\":53933:53939   */\n      dup3\n        /* \"#utility.yul\":53929:53943   */\n      add\n        /* \"#utility.yul\":53922:53949   */\n      mstore\n        /* \"#utility.yul\":53805:53956   */\n      pop\n      jump\t// out\n        /* \"#utility.yul\":53962:54362   */\n    tag_767:\n        /* \"#utility.yul\":54122:54125   */\n      0x00\n        /* \"#utility.yul\":54143:54227   */\n      tag_1215\n        /* \"#utility.yul\":54225:54226   */\n      0x01\n        /* \"#utility.yul\":54220:54223   */\n      dup4\n        /* \"#utility.yul\":54143:54227   */\n      tag_732\n      jump\t// in\n    tag_1215:\n        /* \"#utility.yul\":54136:54227   */\n      swap2\n      pop\n        /* \"#utility.yul\":54236:54329   */\n      tag_1216\n        /* \"#utility.yul\":54325:54328   */\n      dup3\n        /* \"#utility.yul\":54236:54329   */\n      tag_766\n      jump\t// in\n    tag_1216:\n        /* \"#utility.yul\":54354:54355   */\n      0x01\n        /* \"#utility.yul\":54349:54352   */\n      dup3\n        /* \"#utility.yul\":54345:54356   */\n      add\n        /* \"#utility.yul\":54338:54356   */\n      swap1\n      pop\n        /* \"#utility.yul\":53962:54362   */\n      swap2\n      swap1\n      pop\n      jump\t// out\n        /* \"#utility.yul\":54368:54529   */\n    tag_768:\n        /* \"#utility.yul\":54508:54521   */\n      0x2069732063726561746564000000000000000000000000000000000000000000\n        /* \"#utility.yul\":54504:54505   */\n      0x00\n        /* \"#utility.yul\":54496:54502   */\n      dup3\n        /* \"#utility.yul\":54492:54506   */\n      add\n        /* \"#utility.yul\":54485:54522   */\n      mstore\n        /* \"#utility.yul\":54368:54529   */\n      pop\n      jump\t// out\n        /* \"#utility.yul\":54535:54937   */\n    tag_769:\n        /* \"#utility.yul\":54695:54698   */\n      0x00\n        /* \"#utility.yul\":54716:54801   */\n      tag_1219\n        /* \"#utility.yul\":54798:54800   */\n      0x0b\n        /* \"#utility.yul\":54793:54796   */\n      dup4\n        /* \"#utility.yul\":54716:54801   */\n      tag_732\n      jump\t// in\n    tag_1219:\n        /* \"#utility.yul\":54709:54801   */\n      swap2\n      pop\n        /* \"#utility.yul\":54810:54903   */\n      tag_1220\n        /* \"#utility.yul\":54899:54902   */\n      dup3\n        /* \"#utility.yul\":54810:54903   */\n      tag_768\n      jump\t// in\n    tag_1220:\n        /* \"#utility.yul\":54928:54930   */\n      0x0b\n        /* \"#utility.yul\":54923:54926   */\n      dup3\n        /* \"#utility.yul\":54919:54931   */\n      add\n        /* \"#utility.yul\":54912:54931   */\n      swap1\n      pop\n        /* \"#utility.yul\":54535:54937   */\n      swap2\n      swap1\n      pop\n      jump\t// out\n        /* \"#utility.yul\":54943:56016   */\n    tag_573:\n        /* \"#utility.yul\":55378:55381   */\n      0x00\n        /* \"#utility.yul\":55400:55548   */\n      tag_1222\n        /* \"#utility.yul\":55544:55547   */\n      dup3\n        /* \"#utility.yul\":55400:55548   */\n      tag_752\n      jump\t// in\n    tag_1222:\n        /* \"#utility.yul\":55393:55548   */\n      swap2\n      pop\n        /* \"#utility.yul\":55565:55660   */\n      tag_1223\n        /* \"#utility.yul\":55656:55659   */\n      dup3\n        /* \"#utility.yul\":55647:55653   */\n      dup5\n        /* \"#utility.yul\":55565:55660   */\n      tag_733\n      jump\t// in\n    tag_1223:\n        /* \"#utility.yul\":55558:55660   */\n      swap2\n      pop\n        /* \"#utility.yul\":55677:55825   */\n      tag_1224\n        /* \"#utility.yul\":55821:55824   */\n      dup3\n        /* \"#utility.yul\":55677:55825   */\n      tag_767\n      jump\t// in\n    tag_1224:\n        /* \"#utility.yul\":55670:55825   */\n      swap2\n      pop\n        /* \"#utility.yul\":55842:55990   */\n      tag_1225\n        /* \"#utility.yul\":55986:55989   */\n      dup3\n        /* \"#utility.yul\":55842:55990   */\n      tag_769\n      jump\t// in\n    tag_1225:\n        /* \"#utility.yul\":55835:55990   */\n      swap2\n      pop\n        /* \"#utility.yul\":56007:56010   */\n      dup2\n        /* \"#utility.yul\":56000:56010   */\n      swap1\n      pop\n        /* \"#utility.yul\":54943:56016   */\n      swap3\n      swap2\n      pop\n      pop\n      jump\t// out\n        /* \"#utility.yul\":56022:56432   */\n    tag_630:\n        /* \"#utility.yul\":56062:56069   */\n      0x00\n        /* \"#utility.yul\":56085:56105   */\n      tag_1227\n        /* \"#utility.yul\":56103:56104   */\n      dup3\n        /* \"#utility.yul\":56085:56105   */\n      tag_684\n      jump\t// in\n    tag_1227:\n        /* \"#utility.yul\":56080:56105   */\n      swap2\n      pop\n        /* \"#utility.yul\":56119:56139   */\n      tag_1228\n        /* \"#utility.yul\":56137:56138   */\n      dup4\n        /* \"#utility.yul\":56119:56139   */\n      tag_684\n      jump\t// in\n    tag_1228:\n        /* \"#utility.yul\":56114:56139   */\n      swap3\n      pop\n        /* \"#utility.yul\":56174:56175   */\n      dup3\n        /* \"#utility.yul\":56171:56172   */\n      dup3\n        /* \"#utility.yul\":56167:56176   */\n      mul\n        /* \"#utility.yul\":56196:56226   */\n      tag_1229\n        /* \"#utility.yul\":56214:56225   */\n      dup2\n        /* \"#utility.yul\":56196:56226   */\n      tag_684\n      jump\t// in\n    tag_1229:\n        /* \"#utility.yul\":56185:56226   */\n      swap2\n      pop\n        /* \"#utility.yul\":56375:56376   */\n      dup3\n        /* \"#utility.yul\":56366:56373   */\n      dup3\n        /* \"#utility.yul\":56362:56377   */\n      div\n        /* \"#utility.yul\":56359:56360   */\n      dup5\n        /* \"#utility.yul\":56356:56378   */\n      eq\n        /* \"#utility.yul\":56336:56337   */\n      dup4\n        /* \"#utility.yul\":56329:56338   */\n      iszero\n        /* \"#utility.yul\":56309:56392   */\n      or\n        /* \"#utility.yul\":56286:56425   */\n      tag_1230\n      jumpi\n        /* \"#utility.yul\":56405:56423   */\n      tag_1231\n      tag_750\n      jump\t// in\n    tag_1231:\n        /* \"#utility.yul\":56286:56425   */\n    tag_1230:\n        /* \"#utility.yul\":56070:56432   */\n      pop\n        /* \"#utility.yul\":56022:56432   */\n      swap3\n      swap2\n      pop\n      pop\n      jump\t// out\n\n    auxdata: 0xa2646970667358221220dc849e790e96624d4f7ad84bf265ca099c6a830eacc2603d128e21d38d1af77a64736f6c63430008150033\n}\n","bytecode":{"linkReferences":{},"object":"60806040526201518060055534801562000017575f80fd5b506040516200637d3803806200637d83398181016040528101906200003d919062000294565b805f806101000a81548173ffffffffffffffffffffffffffffffffffffffff021916908373ffffffffffffffffffffffffffffffffffffffff160217905550620000f96040518060400160405280600581526020017f4f776e6572000000000000000000000000000000000000000000000000000000815250826040518060400160405280600581526020017f41646d696e0000000000000000000000000000000000000000000000000000008152506200010060201b60201c565b5062000685565b5f600b5f8473ffffffffffffffffffffffffffffffffffffffff1673ffffffffffffffffffffffffffffffffffffffff1681526020019081526020015f2090508381600101908162000153919062000528565b5082816002015f6101000a81548173ffffffffffffffffffffffffffffffffffffffff021916908373ffffffffffffffffffffffffffffffffffffffff16021790555081815f019081620001a8919062000528565b5060025f815480929190620001bd9062000639565b919050558160030181905550600983908060018154018082558091505060019003905f5260205f20015f9091909190916101000a81548173ffffffffffffffffffffffffffffffffffffffff021916908373ffffffffffffffffffffffffffffffffffffffff16021790555050505050565b5f80fd5b5f73ffffffffffffffffffffffffffffffffffffffff82169050919050565b5f6200025e8262000233565b9050919050565b620002708162000252565b81146200027b575f80fd5b50565b5f815190506200028e8162000265565b92915050565b5f60208284031215620002ac57620002ab6200022f565b5b5f620002bb848285016200027e565b91505092915050565b5f81519050919050565b7f4e487b71000000000000000000000000000000000000000000000000000000005f52604160045260245ffd5b7f4e487b71000000000000000000000000000000000000000000000000000000005f52602260045260245ffd5b5f60028204905060018216806200034057607f821691505b602082108103620003565762000355620002fb565b5b50919050565b5f819050815f5260205f209050919050565b5f6020601f8301049050919050565b5f82821b905092915050565b5f60088302620003ba7fffffffffffffffffffffffffffffffffffffffffffffffffffffffffffffffff826200037d565b620003c686836200037d565b95508019841693508086168417925050509392505050565b5f819050919050565b5f819050919050565b5f620004106200040a6200040484620003de565b620003e7565b620003de565b9050919050565b5f819050919050565b6200042b83620003f0565b620004436200043a8262000417565b84845462000389565b825550505050565b5f90565b620004596200044b565b6200046681848462000420565b505050565b5b818110156200048d57620004815f826200044f565b6001810190506200046c565b5050565b601f821115620004dc57620004a6816200035c565b620004b1846200036e565b81016020851015620004c1578190505b620004d9620004d0856200036e565b8301826200046b565b50505b505050565b5f82821c905092915050565b5f620004fe5f1984600802620004e1565b1980831691505092915050565b5f620005188383620004ed565b9150826002028217905092915050565b6200053382620002c4565b67ffffffffffffffff8111156200054f576200054e620002ce565b5b6200055b825462000328565b6200056882828562000491565b5f60209050601f8311600181146200059e575f841562000589578287015190505b6200059585826200050b565b86555062000604565b601f198416620005ae866200035c565b5f5b82811015620005d757848901518255600182019150602085019450602081019050620005b0565b86831015620005f75784890151620005f3601f891682620004ed565b8355505b6001600288020188555050505b505050505050565b7f4e487b71000000000000000000000000000000000000000000000000000000005f52601160045260245ffd5b5f6200064582620003de565b91507fffffffffffffffffffffffffffffffffffffffffffffffffffffffffffffffff82036200067a57620006796200060c565b5b600182019050919050565b615cea80620006935f395ff3fe608060405234801561000f575f80fd5b5060043610610170575f3560e01c806389d7c784116100dc578063c99de57e11610095578063e08491cd1161006f578063e08491cd146104ce578063f2cf5ec7146104fe578063f4558ef91461051a578063f59badad1461054e57610170565b8063c99de57e14610458578063ccc590f214610476578063e0528b7c146104b057610170565b806389d7c784146103845780638ad257b7146103a25780639f4216e8146103c0578063a1cb091f146103f0578063a848bf8b1461040c578063b17e89641461043c57610170565b80632c0406811161012e5780632c040681146102875780632cddaa86146102b75780632e69619c146102d557806335b9ea5b1461030557806338f14845146103385780638406830a1461035457610170565b8062a032f01461017457806302d05d3f146101a757806304ef5b21146101c55780630f44f0b8146101ff578063220fd618146102335780632bcc23f814610251575b5f80fd5b61018e600480360381019061018991906144b1565b61056c565b60405161019e9493929190614572565b60405180910390f35b6101af6107c8565b6040516101bc9190614610565b60405180910390f35b6101df60048036038101906101da919061465c565b6107eb565b6040516101f69b9a99989796959493929190614696565b60405180910390f35b610219600480360381019061021491906144b1565b610c19565b60405161022a959493929190614770565b60405180910390f35b61023b610d6f565b6040516102489190614a06565b60405180910390f35b61026b60048036038101906102669190614a50565b61122e565b60405161027e9796959493929190614a7b565b60405180910390f35b6102a1600480360381019061029c91906144b1565b611397565b6040516102ae9190614c92565b60405180910390f35b6102bf61165b565b6040516102cc9190614ccc565b60405180910390f35b6102ef60048036038101906102ea91906144b1565b6116ba565b6040516102fc9190614ce5565b60405180910390f35b61031f600480360381019061031a919061465c565b611d68565b60405161032f9493929190614572565b60405180910390f35b610352600480360381019061034d919061465c565b611fbb565b005b61036e600480360381019061036991906144b1565b611ffc565b60405161037b9190614ce5565b60405180910390f35b61038c6120c9565b6040516103999190614ccc565b60405180910390f35b6103aa612167565b6040516103b79190614da6565b60405180910390f35b6103da60048036038101906103d5919061465c565b6121f2565b6040516103e79190614610565b60405180910390f35b61040a60048036038101906104059190614dc6565b61222d565b005b610426600480360381019061042191906144b1565b612319565b6040516104339190614e62565b60405180910390f35b61045660048036038101906104519190614e82565b6123d1565b005b6104606124fa565b60405161046d9190614610565b60405180910390f35b610490600480360381019061048b91906144b1565b61251f565b6040516104a79b9a99989796959493929190614696565b60405180910390f35b6104b8612956565b6040516104c5919061503a565b60405180910390f35b6104e860048036038101906104e391906144b1565b612bf1565b6040516104f59190614ce5565b60405180910390f35b6105186004803603810190610513919061505a565b61345a565b005b610534600480360381019061052f919061465c565b613a83565b604051610545959493929190614770565b60405180910390f35b610556613bd0565b6040516105639190615276565b60405180910390f35b600d818051602081018201805184825260208301602085012081835280955050505050505f91509050805f0180546105a3906152c3565b80601f01602080910402602001604051908101604052809291908181526020018280546105cf906152c3565b801561061a5780601f106105f15761010080835404028352916020019161061a565b820191905f5260205f20905b8154815290600101906020018083116105fd57829003601f168201915b50505050509080600101805461062f906152c3565b80601f016020809104026020016040519081016040528092919081815260200182805461065b906152c3565b80156106a65780601f1061067d576101008083540402835291602001916106a6565b820191905f5260205f20905b81548152906001019060200180831161068957829003601f168201915b5050505050908060020180546106bb906152c3565b80601f01602080910402602001604051908101604052809291908181526020018280546106e7906152c3565b80156107325780601f1061070957610100808354040283529160200191610732565b820191905f5260205f20905b81548152906001019060200180831161071557829003601f168201915b505050505090806003018054610747906152c3565b80601f0160208091040260200160405190810160405280929190818152602001828054610773906152c3565b80156107be5780601f10610795576101008083540402835291602001916107be565b820191905f5260205f20905b8154815290600101906020018083116107a157829003601f168201915b5050505050905084565b5f8054906101000a900473ffffffffffffffffffffffffffffffffffffffff1681565b600681815481106107fa575f80fd5b905f5260205f2090600b02015f91509050805f018054610819906152c3565b80601f0160208091040260200160405190810160405280929190818152602001828054610845906152c3565b80156108905780601f1061086757610100808354040283529160200191610890565b820191905f5260205f20905b81548152906001019060200180831161087357829003601f168201915b5050505050908060010180546108a5906152c3565b80601f01602080910402602001604051908101604052809291908181526020018280546108d1906152c3565b801561091c5780601f106108f35761010080835404028352916020019161091c565b820191905f5260205f20905b8154815290600101906020018083116108ff57829003601f168201915b505050505090806002018054610931906152c3565b80601f016020809104026020016040519081016040528092919081815260200182805461095d906152c3565b80156109a85780601f1061097f576101008083540402835291602001916109a8565b820191905f5260205f20905b81548152906001019060200180831161098b57829003601f168201915b5050505050908060030180546109bd906152c3565b80601f01602080910402602001604051908101604052809291908181526020018280546109e9906152c3565b8015610a345780601f10610a0b57610100808354040283529160200191610a34565b820191905f5260205f20905b815481529060010190602001808311610a1757829003601f168201915b505050505090806004015490806005018054610a4f906152c3565b80601f0160208091040260200160405190810160405280929190818152602001828054610a7b906152c3565b8015610ac65780601f10610a9d57610100808354040283529160200191610ac6565b820191905f5260205f20905b815481529060010190602001808311610aa957829003601f168201915b505050505090806006015f9054906101000a900473ffffffffffffffffffffffffffffffffffffffff1690806007015490806008018054610b06906152c3565b80601f0160208091040260200160405190810160405280929190818152602001828054610b32906152c3565b8015610b7d5780601f10610b5457610100808354040283529160200191610b7d565b820191905f5260205f20905b815481529060010190602001808311610b6057829003601f168201915b505050505090806009018054610b92906152c3565b80601f0160208091040260200160405190810160405280929190818152602001828054610bbe906152c3565b8015610c095780601f10610be057610100808354040283529160200191610c09565b820191905f5260205f20905b815481529060010190602001808311610bec57829003601f168201915b50505050509080600a015490508b565b600a818051602081018201805184825260208301602085012081835280955050505050505f91509050805f015490806001018054610c56906152c3565b80601f0160208091040260200160405190810160405280929190818152602001828054610c82906152c3565b8015610ccd5780601f10610ca457610100808354040283529160200191610ccd565b820191905f5260205f20905b815481529060010190602001808311610cb057829003601f168201915b505050505090806002018054610ce2906152c3565b80601f0160208091040260200160405190810160405280929190818152602001828054610d0e906152c3565b8015610d595780601f10610d3057610100808354040283529160200191610d59565b820191905f5260205f20905b815481529060010190602001808311610d3c57829003601f168201915b5050505050908060030154908060040154905085565b60606006805480602002602001604051908101604052809291908181526020015f905b82821015611225578382905f5260205f2090600b0201604051806101600160405290815f82018054610dc3906152c3565b80601f0160208091040260200160405190810160405280929190818152602001828054610def906152c3565b8015610e3a5780601f10610e1157610100808354040283529160200191610e3a565b820191905f5260205f20905b815481529060010190602001808311610e1d57829003601f168201915b50505050508152602001600182018054610e53906152c3565b80601f0160208091040260200160405190810160405280929190818152602001828054610e7f906152c3565b8015610eca5780601f10610ea157610100808354040283529160200191610eca565b820191905f5260205f20905b815481529060010190602001808311610ead57829003601f168201915b50505050508152602001600282018054610ee3906152c3565b80601f0160208091040260200160405190810160405280929190818152602001828054610f0f906152c3565b8015610f5a5780601f10610f3157610100808354040283529160200191610f5a565b820191905f5260205f20905b815481529060010190602001808311610f3d57829003601f168201915b50505050508152602001600382018054610f73906152c3565b80601f0160208091040260200160405190810160405280929190818152602001828054610f9f906152c3565b8015610fea5780601f10610fc157610100808354040283529160200191610fea565b820191905f5260205f20905b815481529060010190602001808311610fcd57829003601f168201915b505050505081526020016004820154815260200160058201805461100d906152c3565b80601f0160208091040260200160405190810160405280929190818152602001828054611039906152c3565b80156110845780601f1061105b57610100808354040283529160200191611084565b820191905f5260205f20905b81548152906001019060200180831161106757829003601f168201915b50505050508152602001600682015f9054906101000a900473ffffffffffffffffffffffffffffffffffffffff1673ffffffffffffffffffffffffffffffffffffffff1673ffffffffffffffffffffffffffffffffffffffff168152602001600782015481526020016008820180546110fc906152c3565b80601f0160208091040260200160405190810160405280929190818152602001828054611128906152c3565b80156111735780601f1061114a57610100808354040283529160200191611173565b820191905f5260205f20905b81548152906001019060200180831161115657829003601f168201915b5050505050815260200160098201805461118c906152c3565b80601f01602080910402602001604051908101604052809291908181526020018280546111b8906152c3565b80156112035780601f106111da57610100808354040283529160200191611203565b820191905f5260205f20905b8154815290600101906020018083116111e657829003601f168201915b50505050508152602001600a8201548152505081526020019060010190610d92565b50505050905090565b600b602052805f5260405f205f91509050805f01805461124d906152c3565b80601f0160208091040260200160405190810160405280929190818152602001828054611279906152c3565b80156112c45780601f1061129b576101008083540402835291602001916112c4565b820191905f5260205f20905b8154815290600101906020018083116112a757829003601f168201915b5050505050908060010180546112d9906152c3565b80601f0160208091040260200160405190810160405280929190818152602001828054611305906152c3565b80156113505780601f1061132757610100808354040283529160200191611350565b820191905f5260205f20905b81548152906001019060200180831161133357829003601f168201915b505050505090806002015f9054906101000a900473ffffffffffffffffffffffffffffffffffffffff16908060030154908060040154908060050154908060060154905087565b61139f61434a565b5f600e836040516113b0919061532d565b90815260200160405180910390209050806040518060400160405290815f820180546113db906152c3565b80601f0160208091040260200160405190810160405280929190818152602001828054611407906152c3565b80156114525780601f1061142957610100808354040283529160200191611452565b820191905f5260205f20905b81548152906001019060200180831161143557829003601f168201915b5050505050815260200160018201805480602002602001604051908101604052809291908181526020015f905b8282101561164b578382905f5260205f2090600702016040518060e00160405290815f820180546114af906152c3565b80601f01602080910402602001604051908101604052809291908181526020018280546114db906152c3565b80156115265780601f106114fd57610100808354040283529160200191611526565b820191905f5260205f20905b81548152906001019060200180831161150957829003601f168201915b5050505050815260200160018201805461153f906152c3565b80601f016020809104026020016040519081016040528092919081815260200182805461156b906152c3565b80156115b65780601f1061158d576101008083540402835291602001916115b6565b820191905f5260205f20905b81548152906001019060200180831161159957829003601f168201915b50505050508152602001600282015f9054906101000a900473ffffffffffffffffffffffffffffffffffffffff1673ffffffffffffffffffffffffffffffffffffffff1673ffffffffffffffffffffffffffffffffffffffff1681526020016003820154815260200160048201548152602001600582015481526020016006820154815250508152602001906001019061147f565b5050505081525050915050919050565b5f805f9054906101000a900473ffffffffffffffffffffffffffffffffffffffff1673ffffffffffffffffffffffffffffffffffffffff163373ffffffffffffffffffffffffffffffffffffffff16146116b3575f80fd5b6001905090565b5f80600c836040516116cc919061532d565b908152602001604051809103902090505f8160080190505f8260090190505f6116f486612bf1565b905060018103611d5b575f600e8760405161170f919061532d565b908152602001604051809103902090505f600b5f3373ffffffffffffffffffffffffffffffffffffffff1673ffffffffffffffffffffffffffffffffffffffff1681526020019081526020015f2090508160010181908060018154018082558091505060019003905f5260205f2090600702015f909190919091505f8201815f01908161179c91906154f5565b50600182018160010190816117b191906154f5565b50600282015f9054906101000a900473ffffffffffffffffffffffffffffffffffffffff16816002015f6101000a81548173ffffffffffffffffffffffffffffffffffffffff021916908373ffffffffffffffffffffffffffffffffffffffff160217905550600382015481600301556004820154816004015560058201548160050155600682015481600601555050600181600401546118529190615607565b81600401819055505f600d8960405161186b919061532d565b9081526020016040518091039020905061199386805461188a906152c3565b80601f01602080910402602001604051908101604052809291908181526020018280546118b6906152c3565b80156119015780601f106118d857610100808354040283529160200191611901565b820191905f5260205f20905b8154815290600101906020018083116118e457829003601f168201915b5050505050868054611912906152c3565b80601f016020809104026020016040519081016040528092919081815260200182805461193e906152c3565b80156119895780601f1061196057610100808354040283529160200191611989565b820191905f5260205f20905b81548152906001019060200180831161196c57829003601f168201915b5050505050613d69565b15611b31576040518060400160405280600881526020017f415050524f5645440000000000000000000000000000000000000000000000008152508760050190816119de919061563a565b506040518060400160405280601581526020017f5472616e73616374696f6e20436f6d706c657465640000000000000000000000815250815f019081611a24919061563a565b5088604051602001611a3691906157e9565b604051602081830303815290604052816001019081611a55919061563a565b5088816002019081611a67919061563a565b506040518060400160405280600881526020017f415050524f564544000000000000000000000000000000000000000000000000815250816003019081611aae919061563a565b50600781908060018154018082558091505060019003905f5260205f2090600402015f909190919091505f8201815f019081611aea91906154f5565b5060018201816001019081611aff91906154f5565b5060028201816002019081611b1491906154f5565b5060038201816003019081611b2991906154f5565b505050611d4c565b5f600a87604051611b4291906158a7565b908152602001604051809103902090505f816002019050611be9888054611b68906152c3565b80601f0160208091040260200160405190810160405280929190818152602001828054611b94906152c3565b8015611bdf5780601f10611bb657610100808354040283529160200191611bdf565b820191905f5260205f20905b815481529060010190602001808311611bc257829003601f168201915b5050505050613dc1565b896008019081611bf9919061563a565b506040518060400160405280601481526020017f5472616e73616374696f6e20417070726f766564000000000000000000000000815250835f019081611c3f919061563a565b508a81604051602001611c53929190615907565b604051602081830303815290604052836001019081611c72919061563a565b508a836002019081611c84919061563a565b506040518060400160405280600881526020017f415050524f564544000000000000000000000000000000000000000000000000815250836003019081611ccb919061563a565b50600783908060018154018082558091505060019003905f5260205f2090600402015f909190919091505f8201815f019081611d0791906154f5565b5060018201816001019081611d1c91906154f5565b5060028201816002019081611d3191906154f5565b5060038201816003019081611d4691906154f5565b50505050505b83975050505050505050611d63565b809450505050505b919050565b60078181548110611d77575f80fd5b905f5260205f2090600402015f91509050805f018054611d96906152c3565b80601f0160208091040260200160405190810160405280929190818152602001828054611dc2906152c3565b8015611e0d5780601f10611de457610100808354040283529160200191611e0d565b820191905f5260205f20905b815481529060010190602001808311611df057829003601f168201915b505050505090806001018054611e22906152c3565b80601f0160208091040260200160405190810160405280929190818152602001828054611e4e906152c3565b8015611e995780601f10611e7057610100808354040283529160200191611e99565b820191905f5260205f20905b815481529060010190602001808311611e7c57829003601f168201915b505050505090806002018054611eae906152c3565b80601f0160208091040260200160405190810160405280929190818152602001828054611eda906152c3565b8015611f255780601f10611efc57610100808354040283529160200191611f25565b820191905f5260205f20905b815481529060010190602001808311611f0857829003601f168201915b505050505090806003018054611f3a906152c3565b80601f0160208091040260200160405190810160405280929190818152602001828054611f66906152c3565b8015611fb15780601f10611f8857610100808354040283529160200191611fb1565b820191905f5260205f20905b815481529060010190602001808311611f9457829003601f168201915b5050505050905084565b60098181548110611fcf57611fce615940565b5b905f5260205f20015f6101000a81549073ffffffffffffffffffffffffffffffffffffffff021916905550565b5f80600b5f3373ffffffffffffffffffffffffffffffffffffffff1673ffffffffffffffffffffffffffffffffffffffff1681526020019081526020015f2090506001816005015461204e9190615607565b81600501819055505f600c84604051612067919061532d565b908152602001604051809103902090506040518060400160405280600881526020017f4445434c494e45440000000000000000000000000000000000000000000000008152508160050190816120bd919061563a565b50600192505050919050565b5f600b5f3373ffffffffffffffffffffffffffffffffffffffff1673ffffffffffffffffffffffffffffffffffffffff1681526020019081526020015f206002015f9054906101000a900473ffffffffffffffffffffffffffffffffffffffff1673ffffffffffffffffffffffffffffffffffffffff163373ffffffffffffffffffffffffffffffffffffffff1614612160575f80fd5b6001905090565b606060098054806020026020016040519081016040528092919081815260200182805480156121e857602002820191905f5260205f20905b815f9054906101000a900473ffffffffffffffffffffffffffffffffffffffff1673ffffffffffffffffffffffffffffffffffffffff168152602001906001019080831161219f575b5050505050905090565b60098181548110612201575f80fd5b905f5260205f20015f915054906101000a900473ffffffffffffffffffffffffffffffffffffffff1681565b5f600a8560405161223e919061532d565b9081526020016040518091039020905060045f8154809291906122609061596d565b91905055815f01819055508481600101908161227c919061563a565b508381600201908161228e919061563a565b50828160030181905550818160040181905550600881908060018154018082558091505060019003905f5260205f2090600502015f909190919091505f820154815f0155600182018160010190816122e691906154f5565b50600282018160020190816122fb91906154f5565b50600382015481600301556004820154816004015550505050505050565b600e818051602081018201805184825260208301602085012081835280955050505050505f91509050805f018054612350906152c3565b80601f016020809104026020016040519081016040528092919081815260200182805461237c906152c3565b80156123c75780601f1061239e576101008083540402835291602001916123c7565b820191905f5260205f20905b8154815290600101906020018083116123aa57829003601f168201915b5050505050905081565b5f600b5f8473ffffffffffffffffffffffffffffffffffffffff1673ffffffffffffffffffffffffffffffffffffffff1681526020019081526020015f20905083816001019081612422919061563a565b5082816002015f6101000a81548173ffffffffffffffffffffffffffffffffffffffff021916908373ffffffffffffffffffffffffffffffffffffffff16021790555081815f019081612475919061563a565b5060025f8154809291906124889061596d565b919050558160030181905550600983908060018154018082558091505060019003905f5260205f20015f9091909190916101000a81548173ffffffffffffffffffffffffffffffffffffffff021916908373ffffffffffffffffffffffffffffffffffffffff16021790555050505050565b60015f9054906101000a900473ffffffffffffffffffffffffffffffffffffffff1681565b600c818051602081018201805184825260208301602085012081835280955050505050505f91509050805f018054612556906152c3565b80601f0160208091040260200160405190810160405280929190818152602001828054612582906152c3565b80156125cd5780601f106125a4576101008083540402835291602001916125cd565b820191905f5260205f20905b8154815290600101906020018083116125b057829003601f168201915b5050505050908060010180546125e2906152c3565b80601f016020809104026020016040519081016040528092919081815260200182805461260e906152c3565b80156126595780601f1061263057610100808354040283529160200191612659565b820191905f5260205f20905b81548152906001019060200180831161263c57829003601f168201915b50505050509080600201805461266e906152c3565b80601f016020809104026020016040519081016040528092919081815260200182805461269a906152c3565b80156126e55780601f106126bc576101008083540402835291602001916126e5565b820191905f5260205f20905b8154815290600101906020018083116126c857829003601f168201915b5050505050908060030180546126fa906152c3565b80601f0160208091040260200160405190810160405280929190818152602001828054612726906152c3565b80156127715780601f1061274857610100808354040283529160200191612771565b820191905f5260205f20905b81548152906001019060200180831161275457829003601f168201915b50505050509080600401549080600501805461278c906152c3565b80601f01602080910402602001604051908101604052809291908181526020018280546127b8906152c3565b80156128035780601f106127da57610100808354040283529160200191612803565b820191905f5260205f20905b8154815290600101906020018083116127e657829003601f168201915b505050505090806006015f9054906101000a900473ffffffffffffffffffffffffffffffffffffffff1690806007015490806008018054612843906152c3565b80601f016020809104026020016040519081016040528092919081815260200182805461286f906152c3565b80156128ba5780601f10612891576101008083540402835291602001916128ba565b820191905f5260205f20905b81548152906001019060200180831161289d57829003601f168201915b5050505050908060090180546128cf906152c3565b80601f01602080910402602001604051908101604052809291908181526020018280546128fb906152c3565b80156129465780601f1061291d57610100808354040283529160200191612946565b820191905f5260205f20905b81548152906001019060200180831161292957829003601f168201915b50505050509080600a015490508b565b60606007805480602002602001604051908101604052809291908181526020015f905b82821015612be8578382905f5260205f2090600402016040518060800160405290815f820180546129a9906152c3565b80601f01602080910402602001604051908101604052809291908181526020018280546129d5906152c3565b8015612a205780601f106129f757610100808354040283529160200191612a20565b820191905f5260205f20905b815481529060010190602001808311612a0357829003601f168201915b50505050508152602001600182018054612a39906152c3565b80601f0160208091040260200160405190810160405280929190818152602001828054612a65906152c3565b8015612ab05780601f10612a8757610100808354040283529160200191612ab0565b820191905f5260205f20905b815481529060010190602001808311612a9357829003601f168201915b50505050508152602001600282018054612ac9906152c3565b80601f0160208091040260200160405190810160405280929190818152602001828054612af5906152c3565b8015612b405780601f10612b1757610100808354040283529160200191612b40565b820191905f5260205f20905b815481529060010190602001808311612b2357829003601f168201915b50505050508152602001600382018054612b59906152c3565b80601f0160208091040260200160405190810160405280929190818152602001828054612b85906152c3565b8015612bd05780601f10612ba757610100808354040283529160200191612bd0565b820191905f5260205f20905b815481529060010190602001808311612bb357829003601f168201915b50505050508152505081526020019060010190612979565b50505050905090565b5f80600c83604051612c03919061532d565b908152602001604051809103902090505f81600a015490505f826009018054612c2b906152c3565b80601f0160208091040260200160405190810160405280929190818152602001828054612c57906152c3565b8015612ca25780601f10612c7957610100808354040283529160200191612ca2565b820191905f5260205f20905b815481529060010190602001808311612c8557829003601f168201915b505050505090505f836008018054612cb9906152c3565b80601f0160208091040260200160405190810160405280929190818152602001828054612ce5906152c3565b8015612d305780601f10612d0757610100808354040283529160200191612d30565b820191905f5260205f20905b815481529060010190602001808311612d1357829003601f168201915b505050505090505f612d428285613f84565b90508061344b57612d538284613d69565b1561313b57612e21856005018054612d6a906152c3565b80601f0160208091040260200160405190810160405280929190818152602001828054612d96906152c3565b8015612de15780601f10612db857610100808354040283529160200191612de1565b820191905f5260205f20905b815481529060010190602001808311612dc457829003601f168201915b50505050506040518060400160405280600781526020017f4558504952454400000000000000000000000000000000000000000000000000815250613d69565b61312e576040518060400160405280600781526020017f4558504952454400000000000000000000000000000000000000000000000000815250856005019081612e6b919061563a565b505f5b600980549050811015612fbd575f600b5f60098481548110612e9357612e92615940565b5b905f5260205f20015f9054906101000a900473ffffffffffffffffffffffffffffffffffffffff1673ffffffffffffffffffffffffffffffffffffffff1673ffffffffffffffffffffffffffffffffffffffff1681526020019081526020015f209050612f8a816001018054612f08906152c3565b80601f0160208091040260200160405190810160405280929190818152602001828054612f34906152c3565b8015612f7f5780601f10612f5657610100808354040283529160200191612f7f565b820191905f5260205f20905b815481529060010190602001808311612f6257829003601f168201915b505050505085613d69565b15612fa95760018160060154612fa09190615607565b81600601819055505b508080612fb59061596d565b915050612e6e565b505f600d88604051612fcf919061532d565b908152602001604051809103902090506040518060400160405280601381526020017f5472616e73616374696f6e204578706972656400000000000000000000000000815250815f019081613024919061563a565b508760405160200161303691906159fe565b604051602081830303815290604052816001019081613055919061563a565b5087816002019081613067919061563a565b506040518060400160405280600781526020017f45585049524544000000000000000000000000000000000000000000000000008152508160030190816130ae919061563a565b50600781908060018154018082558091505060019003905f5260205f2090600402015f909190919091505f8201815f0190816130ea91906154f5565b50600182018160010190816130ff91906154f5565b506002820181600201908161311491906154f5565b506003820181600301908161312991906154f5565b505050505b5f95505050505050613455565b61314482613dc1565b856008019081613154919061563a565b505f5b6009805490508110156132a6575f600b5f6009848154811061317c5761317b615940565b5b905f5260205f20015f9054906101000a900473ffffffffffffffffffffffffffffffffffffffff1673ffffffffffffffffffffffffffffffffffffffff1673ffffffffffffffffffffffffffffffffffffffff1681526020019081526020015f2090506132738160010180546131f1906152c3565b80601f016020809104026020016040519081016040528092919081815260200182805461321d906152c3565b80156132685780601f1061323f57610100808354040283529160200191613268565b820191905f5260205f20905b81548152906001019060200180831161324b57829003601f168201915b505050505085613d69565b1561329257600181600601546132899190615607565b81600601819055505b50808061329e9061596d565b915050613157565b505f600a836040516132b8919061532d565b908152602001604051809103902090505f600d896040516132d9919061532d565b908152602001604051809103902090506040518060400160405280601781526020017f5472616e73616374696f6e205472616e73666572726564000000000000000000815250815f01908161332e919061563a565b508882600201604051602001613345929190615b64565b604051602081830303815290604052816001019081613364919061563a565b5088816002019081613376919061563a565b506040518060400160405280600781526020017f50454e44494e47000000000000000000000000000000000000000000000000008152508160030190816133bd919061563a565b50600781908060018154018082558091505060019003905f5260205f2090600402015f909190919091505f8201815f0190816133f991906154f5565b506001820181600101908161340e91906154f5565b506002820181600201908161342391906154f5565b506003820181600301908161343891906154f5565b5050506002975050505050505050613455565b6001955050505050505b919050565b600b5f3373ffffffffffffffffffffffffffffffffffffffff1673ffffffffffffffffffffffffffffffffffffffff1681526020019081526020015f206002015f9054906101000a900473ffffffffffffffffffffffffffffffffffffffff1673ffffffffffffffffffffffffffffffffffffffff163373ffffffffffffffffffffffffffffffffffffffff16146134f0575f80fd5b5f600c85604051613501919061532d565b9081526020016040518091039020905085815f019081613521919061563a565b5084816001019081613533919061563a565b5083816002019081613545919061563a565b5082816003019081613557919061563a565b5060035f81548092919061356a9061596d565b9190505581600401819055506040518060400160405280600781526020017f50454e44494e47000000000000000000000000000000000000000000000000008152508160050190816135bc919061563a565b5033816006015f6101000a81548173ffffffffffffffffffffffffffffffffffffffff021916908373ffffffffffffffffffffffffffffffffffffffff1602179055508181600701819055506040518060400160405280600381526020017f484f44000000000000000000000000000000000000000000000000000000000081525081600801908161364e919061563a565b505f613659836141c2565b90508082600901908161366c919061563a565b505f600e8760405161367e919061532d565b9081526020016040518091039020905086815f01908161369e919061563a565b505f600b5f3373ffffffffffffffffffffffffffffffffffffffff1673ffffffffffffffffffffffffffffffffffffffff1681526020019081526020015f2090508160010181908060018154018082558091505060019003905f5260205f2090600702015f909190919091505f8201815f01908161371c91906154f5565b506001820181600101908161373191906154f5565b50600282015f9054906101000a900473ffffffffffffffffffffffffffffffffffffffff16816002015f6101000a81548173ffffffffffffffffffffffffffffffffffffffff021916908373ffffffffffffffffffffffffffffffffffffffff1602179055506003820154816003015560048201548160040155600582015481600501556006820154816006015550504284600a0181905550600684908060018154018082558091505060019003905f5260205f2090600b02015f909190919091505f8201815f01908161380591906154f5565b506001820181600101908161381a91906154f5565b506002820181600201908161382f91906154f5565b506003820181600301908161384491906154f5565b50600482015481600401556005820181600501908161386391906154f5565b50600682015f9054906101000a900473ffffffffffffffffffffffffffffffffffffffff16816006015f6101000a81548173ffffffffffffffffffffffffffffffffffffffff021916908373ffffffffffffffffffffffffffffffffffffffff16021790555060078201548160070155600882018160080190816138e791906154f5565b50600982018160090190816138fc91906154f5565b50600a82015481600a015550505f600d8960405161391a919061532d565b908152602001604051809103902090506040518060400160405280601381526020017f5472616e73616374696f6e204372656174656400000000000000000000000000815250815f01908161396f919061563a565b50886040516020016139819190615c3c565b6040516020818303038152906040528160010190816139a0919061563a565b50888160020190816139b2919061563a565b506040518060400160405280600681526020017f63726561746500000000000000000000000000000000000000000000000000008152508160030190816139f9919061563a565b50600781908060018154018082558091505060019003905f5260205f2090600402015f909190919091505f8201815f019081613a3591906154f5565b5060018201816001019081613a4a91906154f5565b5060028201816002019081613a5f91906154f5565b5060038201816003019081613a7491906154f5565b50505050505050505050505050565b60088181548110613a92575f80fd5b905f5260205f2090600502015f91509050805f015490806001018054613ab7906152c3565b80601f0160208091040260200160405190810160405280929190818152602001828054613ae3906152c3565b8015613b2e5780601f10613b0557610100808354040283529160200191613b2e565b820191905f5260205f20905b815481529060010190602001808311613b1157829003601f168201915b505050505090806002018054613b43906152c3565b80601f0160208091040260200160405190810160405280929190818152602001828054613b6f906152c3565b8015613bba5780601f10613b9157610100808354040283529160200191613bba565b820191905f5260205f20905b815481529060010190602001808311613b9d57829003601f168201915b5050505050908060030154908060040154905085565b60606008805480602002602001604051908101604052809291908181526020015f905b82821015613d60578382905f5260205f2090600502016040518060a00160405290815f8201548152602001600182018054613c2d906152c3565b80601f0160208091040260200160405190810160405280929190818152602001828054613c59906152c3565b8015613ca45780601f10613c7b57610100808354040283529160200191613ca4565b820191905f5260205f20905b815481529060010190602001808311613c8757829003601f168201915b50505050508152602001600282018054613cbd906152c3565b80601f0160208091040260200160405190810160405280929190818152602001828054613ce9906152c3565b8015613d345780601f10613d0b57610100808354040283529160200191613d34565b820191905f5260205f20905b815481529060010190602001808311613d1757829003601f168201915b505050505081526020016003820154815260200160048201548152505081526020019060010190613bf3565b50505050905090565b5f81604051602001613d7b919061532d565b6040516020818303038152906040528051906020012083604051602001613da2919061532d565b6040516020818303038152906040528051906020012014905092915050565b6060613e02826040518060400160405280600381526020017f484f440000000000000000000000000000000000000000000000000000000000815250613d69565b15613e44576040518060400160405280600281526020017f464f0000000000000000000000000000000000000000000000000000000000008152509050613f7f565b613e83826040518060400160405280600281526020017f464f000000000000000000000000000000000000000000000000000000000000815250613d69565b15613ec5576040518060400160405280600381526020017f52454700000000000000000000000000000000000000000000000000000000008152509050613f7f565b613f04826040518060400160405280600381526020017f5245470000000000000000000000000000000000000000000000000000000000815250613d69565b15613f46576040518060400160405280600281526020017f56430000000000000000000000000000000000000000000000000000000000008152509050613f7f565b6040518060400160405280600281526020017f434300000000000000000000000000000000000000000000000000000000000081525090505b919050565b5f80429050613fc8846040518060400160405280600381526020017f484f440000000000000000000000000000000000000000000000000000000000815250613d69565b8015613fe057508060055484613fde9190615607565b115b15613fef5760019150506141bc565b61402e846040518060400160405280600281526020017f464f000000000000000000000000000000000000000000000000000000000000815250613d69565b801561405257508060055460036140459190615c73565b846140509190615607565b115b156140615760019150506141bc565b6140a0846040518060400160405280600381526020017f5245470000000000000000000000000000000000000000000000000000000000815250613d69565b80156140c457508060055460056140b79190615c73565b846140c29190615607565b115b156140d35760019150506141bc565b614112846040518060400160405280600281526020017f5643000000000000000000000000000000000000000000000000000000000000815250613d69565b801561413657508060055460076141299190615c73565b846141349190615607565b115b156141455760019150506141bc565b614184846040518060400160405280600281526020017f4343000000000000000000000000000000000000000000000000000000000000815250613d69565b80156141a8575080600554600a61419b9190615c73565b846141a69190615607565b115b156141b75760019150506141bc565b5f9150505b92915050565b6060611388821161420a576040518060400160405280600381526020017f484f4400000000000000000000000000000000000000000000000000000000008152509050614345565b6113888211801561421d57506127108211155b1561425f576040518060400160405280600281526020017f464f0000000000000000000000000000000000000000000000000000000000008152509050614345565b612710821180156142735750620124f88211155b156142b5576040518060400160405280600381526020017f52454700000000000000000000000000000000000000000000000000000000008152509050614345565b620124f8821180156142ca5750620493e08211155b1561430c576040518060400160405280600281526020017f56430000000000000000000000000000000000000000000000000000000000008152509050614345565b6040518060400160405280600281526020017f434300000000000000000000000000000000000000000000000000000000000081525090505b919050565b604051806040016040528060608152602001606081525090565b5f604051905090565b5f80fd5b5f80fd5b5f80fd5b5f80fd5b5f601f19601f8301169050919050565b7f4e487b71000000000000000000000000000000000000000000000000000000005f52604160045260245ffd5b6143c38261437d565b810181811067ffffffffffffffff821117156143e2576143e161438d565b5b80604052505050565b5f6143f4614364565b905061440082826143ba565b919050565b5f67ffffffffffffffff82111561441f5761441e61438d565b5b6144288261437d565b9050602081019050919050565b828183375f83830152505050565b5f61445561445084614405565b6143eb565b90508281526020810184848401111561447157614470614379565b5b61447c848285614435565b509392505050565b5f82601f83011261449857614497614375565b5b81356144a8848260208601614443565b91505092915050565b5f602082840312156144c6576144c561436d565b5b5f82013567ffffffffffffffff8111156144e3576144e2614371565b5b6144ef84828501614484565b91505092915050565b5f81519050919050565b5f82825260208201905092915050565b5f5b8381101561452f578082015181840152602081019050614514565b5f8484015250505050565b5f614544826144f8565b61454e8185614502565b935061455e818560208601614512565b6145678161437d565b840191505092915050565b5f6080820190508181035f83015261458a818761453a565b9050818103602083015261459e818661453a565b905081810360408301526145b2818561453a565b905081810360608301526145c6818461453a565b905095945050505050565b5f73ffffffffffffffffffffffffffffffffffffffff82169050919050565b5f6145fa826145d1565b9050919050565b61460a816145f0565b82525050565b5f6020820190506146235f830184614601565b92915050565b5f819050919050565b61463b81614629565b8114614645575f80fd5b50565b5f8135905061465681614632565b92915050565b5f602082840312156146715761467061436d565b5b5f61467e84828501614648565b91505092915050565b61469081614629565b82525050565b5f610160820190508181035f8301526146af818e61453a565b905081810360208301526146c3818d61453a565b905081810360408301526146d7818c61453a565b905081810360608301526146eb818b61453a565b90506146fa608083018a614687565b81810360a083015261470c818961453a565b905061471b60c0830188614601565b61472860e0830187614687565b81810361010083015261473b818661453a565b9050818103610120830152614750818561453a565b9050614760610140830184614687565b9c9b505050505050505050505050565b5f60a0820190506147835f830188614687565b8181036020830152614795818761453a565b905081810360408301526147a9818661453a565b90506147b86060830185614687565b6147c56080830184614687565b9695505050505050565b5f81519050919050565b5f82825260208201905092915050565b5f819050602082019050919050565b5f82825260208201905092915050565b5f614812826144f8565b61481c81856147f8565b935061482c818560208601614512565b6148358161437d565b840191505092915050565b61484981614629565b82525050565b614858816145f0565b82525050565b5f61016083015f8301518482035f8601526148798282614808565b915050602083015184820360208601526148938282614808565b915050604083015184820360408601526148ad8282614808565b915050606083015184820360608601526148c78282614808565b91505060808301516148dc6080860182614840565b5060a083015184820360a08601526148f48282614808565b91505060c083015161490960c086018261484f565b5060e083015161491c60e0860182614840565b506101008301518482036101008601526149368282614808565b9150506101208301518482036101208601526149528282614808565b915050610140830151614969610140860182614840565b508091505092915050565b5f61497f838361485e565b905092915050565b5f602082019050919050565b5f61499d826147cf565b6149a781856147d9565b9350836020820285016149b9856147e9565b805f5b858110156149f457848403895281516149d58582614974565b94506149e083614987565b925060208a019950506001810190506149bc565b50829750879550505050505092915050565b5f6020820190508181035f830152614a1e8184614993565b905092915050565b614a2f816145f0565b8114614a39575f80fd5b50565b5f81359050614a4a81614a26565b92915050565b5f60208284031215614a6557614a6461436d565b5b5f614a7284828501614a3c565b91505092915050565b5f60e0820190508181035f830152614a93818a61453a565b90508181036020830152614aa7818961453a565b9050614ab66040830188614601565b614ac36060830187614687565b614ad06080830186614687565b614add60a0830185614687565b614aea60c0830184614687565b98975050505050505050565b5f81519050919050565b5f82825260208201905092915050565b5f819050602082019050919050565b5f60e083015f8301518482035f860152614b398282614808565b91505060208301518482036020860152614b538282614808565b9150506040830151614b68604086018261484f565b506060830151614b7b6060860182614840565b506080830151614b8e6080860182614840565b5060a0830151614ba160a0860182614840565b5060c0830151614bb460c0860182614840565b508091505092915050565b5f614bca8383614b1f565b905092915050565b5f602082019050919050565b5f614be882614af6565b614bf28185614b00565b935083602082028501614c0485614b10565b805f5b85811015614c3f5784840389528151614c208582614bbf565b9450614c2b83614bd2565b925060208a01995050600181019050614c07565b50829750879550505050505092915050565b5f604083015f8301518482035f860152614c6b8282614808565b91505060208301518482036020860152614c858282614bde565b9150508091505092915050565b5f6020820190508181035f830152614caa8184614c51565b905092915050565b5f8115159050919050565b614cc681614cb2565b82525050565b5f602082019050614cdf5f830184614cbd565b92915050565b5f602082019050614cf85f830184614687565b92915050565b5f81519050919050565b5f82825260208201905092915050565b5f819050602082019050919050565b5f614d32838361484f565b60208301905092915050565b5f602082019050919050565b5f614d5482614cfe565b614d5e8185614d08565b9350614d6983614d18565b805f5b83811015614d99578151614d808882614d27565b9750614d8b83614d3e565b925050600181019050614d6c565b5085935050505092915050565b5f6020820190508181035f830152614dbe8184614d4a565b905092915050565b5f805f8060808587031215614dde57614ddd61436d565b5b5f85013567ffffffffffffffff811115614dfb57614dfa614371565b5b614e0787828801614484565b945050602085013567ffffffffffffffff811115614e2857614e27614371565b5b614e3487828801614484565b9350506040614e4587828801614648565b9250506060614e5687828801614648565b91505092959194509250565b5f6020820190508181035f830152614e7a818461453a565b905092915050565b5f805f60608486031215614e9957614e9861436d565b5b5f84013567ffffffffffffffff811115614eb657614eb5614371565b5b614ec286828701614484565b9350506020614ed386828701614a3c565b925050604084013567ffffffffffffffff811115614ef457614ef3614371565b5b614f0086828701614484565b9150509250925092565b5f81519050919050565b5f82825260208201905092915050565b5f819050602082019050919050565b5f608083015f8301518482035f860152614f4d8282614808565b91505060208301518482036020860152614f678282614808565b91505060408301518482036040860152614f818282614808565b91505060608301518482036060860152614f9b8282614808565b9150508091505092915050565b5f614fb38383614f33565b905092915050565b5f602082019050919050565b5f614fd182614f0a565b614fdb8185614f14565b935083602082028501614fed85614f24565b805f5b8581101561502857848403895281516150098582614fa8565b945061501483614fbb565b925060208a01995050600181019050614ff0565b50829750879550505050505092915050565b5f6020820190508181035f8301526150528184614fc7565b905092915050565b5f805f805f60a086880312156150735761507261436d565b5b5f86013567ffffffffffffffff8111156150905761508f614371565b5b61509c88828901614484565b955050602086013567ffffffffffffffff8111156150bd576150bc614371565b5b6150c988828901614484565b945050604086013567ffffffffffffffff8111156150ea576150e9614371565b5b6150f688828901614484565b935050606086013567ffffffffffffffff81111561511757615116614371565b5b61512388828901614484565b925050608061513488828901614648565b9150509295509295909350565b5f81519050919050565b5f82825260208201905092915050565b5f819050602082019050919050565b5f60a083015f83015161517f5f860182614840565b50602083015184820360208601526151978282614808565b915050604083015184820360408601526151b18282614808565b91505060608301516151c66060860182614840565b5060808301516151d96080860182614840565b508091505092915050565b5f6151ef838361516a565b905092915050565b5f602082019050919050565b5f61520d82615141565b615217818561514b565b9350836020820285016152298561515b565b805f5b85811015615264578484038952815161524585826151e4565b9450615250836151f7565b925060208a0199505060018101905061522c565b50829750879550505050505092915050565b5f6020820190508181035f83015261528e8184615203565b905092915050565b7f4e487b71000000000000000000000000000000000000000000000000000000005f52602260045260245ffd5b5f60028204905060018216806152da57607f821691505b6020821081036152ed576152ec615296565b5b50919050565b5f81905092915050565b5f615307826144f8565b61531181856152f3565b9350615321818560208601614512565b80840191505092915050565b5f61533882846152fd565b915081905092915050565b5f81549050615351816152c3565b9050919050565b5f819050815f5260205f209050919050565b5f6020601f8301049050919050565b5f82821b905092915050565b5f600883026153b47fffffffffffffffffffffffffffffffffffffffffffffffffffffffffffffffff82615379565b6153be8683615379565b95508019841693508086168417925050509392505050565b5f819050919050565b5f6153f96153f46153ef84614629565b6153d6565b614629565b9050919050565b5f819050919050565b615412836153df565b61542661541e82615400565b848454615385565b825550505050565b5f90565b61543a61542e565b615445818484615409565b505050565b5b818110156154685761545d5f82615432565b60018101905061544b565b5050565b601f8211156154ad5761547e81615358565b6154878461536a565b81016020851015615496578190505b6154aa6154a28561536a565b83018261544a565b50505b505050565b5f82821c905092915050565b5f6154cd5f19846008026154b2565b1980831691505092915050565b5f6154e583836154be565b9150826002028217905092915050565b8181036155035750506155d8565b61550c82615343565b67ffffffffffffffff8111156155255761552461438d565b5b61552f82546152c3565b61553a82828561546c565b5f601f831160018114615567575f8415615555578287015490505b61555f85826154da565b8655506155d1565b601f19841661557587615358565b965061558086615358565b5f5b828110156155a757848901548255600182019150600185019450602081019050615582565b868310156155c457848901546155c0601f8916826154be565b8355505b6001600288020188555050505b5050505050505b565b7f4e487b71000000000000000000000000000000000000000000000000000000005f52601160045260245ffd5b5f61561182614629565b915061561c83614629565b9250828201905080821115615634576156336155da565b5b92915050565b615643826144f8565b67ffffffffffffffff81111561565c5761565b61438d565b5b61566682546152c3565b61567182828561546c565b5f60209050601f8311600181146156a2575f8415615690578287015190505b61569a85826154da565b865550615701565b601f1984166156b086615358565b5f5b828110156156d7578489015182556001820191506020850194506020810190506156b2565b868310156156f457848901516156f0601f8916826154be565b8355505b6001600288020188555050505b505050505050565b7f5472616e73616374696f6e2077697468207472616e73616374696f6e206861735f8201527f6820000000000000000000000000000000000000000000000000000000000000602082015250565b5f6157636022836152f3565b915061576e82615709565b602282019050919050565b7f20697320636f6d706c6574656420616e6420617070726f76656420627920616c5f8201527f6c2074686520617574686f726974696573000000000000000000000000000000602082015250565b5f6157d36031836152f3565b91506157de82615779565b603182019050919050565b5f6157f382615757565b91506157ff82846152fd565b915061580a826157c7565b915081905092915050565b5f819050815f5260205f209050919050565b5f8154615833816152c3565b61583d81866152f3565b9450600182165f8114615857576001811461586c5761589e565b60ff198316865281151582028601935061589e565b61587585615815565b5f5b8381101561589657815481890152600182019150602081019050615877565b838801955050505b50505092915050565b5f6158b28284615827565b915081905092915050565b7f20697320617070726f76656420627920000000000000000000000000000000005f82015250565b5f6158f16010836152f3565b91506158fc826158bd565b601082019050919050565b5f61591182615757565b915061591d82856152fd565b9150615928826158e5565b91506159348284615827565b91508190509392505050565b7f4e487b71000000000000000000000000000000000000000000000000000000005f52603260045260245ffd5b5f61597782614629565b91507fffffffffffffffffffffffffffffffffffffffffffffffffffffffffffffffff82036159a9576159a86155da565b5b600182019050919050565b7f20697320657870697265640000000000000000000000000000000000000000005f82015250565b5f6159e8600b836152f3565b91506159f3826159b4565b600b82019050919050565b5f615a0882615757565b9150615a1482846152fd565b9150615a1f826159dc565b915081905092915050565b7f206973206578706972656420666f7220000000000000000000000000000000005f82015250565b5f615a5e6010836152f3565b9150615a6982615a2a565b601082019050919050565b5f8154615a80816152c3565b615a8a81866152f3565b9450600182165f8114615aa45760018114615ab957615aeb565b60ff1983168652811515820286019350615aeb565b615ac285615358565b5f5b83811015615ae357815481890152600182019150602081019050615ac4565b838801955050505b50505092915050565b7f20616e6420686173206265656e207472616e7366657272656420746f207468655f8201527f2068696768657220617574686f72697479000000000000000000000000000000602082015250565b5f615b4e6031836152f3565b9150615b5982615af4565b603182019050919050565b5f615b6e82615757565b9150615b7a82856152fd565b9150615b8582615a52565b9150615b918284615a74565b9150615b9c82615b42565b91508190509392505050565b7f20000000000000000000000000000000000000000000000000000000000000005f82015250565b5f615bdc6001836152f3565b9150615be782615ba8565b600182019050919050565b7f20697320637265617465640000000000000000000000000000000000000000005f82015250565b5f615c26600b836152f3565b9150615c3182615bf2565b600b82019050919050565b5f615c4682615757565b9150615c5282846152fd565b9150615c5d82615bd0565b9150615c6882615c1a565b915081905092915050565b5f615c7d82614629565b9150615c8883614629565b9250828202615c9681614629565b91508282048414831517615cad57615cac6155da565b5b509291505056fea2646970667358221220dc849e790e96624d4f7ad84bf265ca099c6a830eacc2603d128e21d38d1af77a64736f6c63430008150033","opcodes":"PUSH1 0x80 PUSH1 0x40 MSTORE PUSH3 0x15180 PUSH1 0x5 SSTORE CALLVALUE DUP1 ISZERO PUSH3 0x17 JUMPI PUSH0 DUP1 REVERT JUMPDEST POP PUSH1 0x40 MLOAD PUSH3 0x637D CODESIZE SUB DUP1 PUSH3 0x637D DUP4 CODECOPY DUP2 DUP2 ADD PUSH1 0x40 MSTORE DUP2 ADD SWAP1 PUSH3 0x3D SWAP2 SWAP1 PUSH3 0x294 JUMP JUMPDEST DUP1 PUSH0 DUP1 PUSH2 0x100 EXP DUP2 SLOAD DUP2 PUSH20 0xFFFFFFFFFFFFFFFFFFFFFFFFFFFFFFFFFFFFFFFF MUL NOT AND SWAP1 DUP4 PUSH20 0xFFFFFFFFFFFFFFFFFFFFFFFFFFFFFFFFFFFFFFFF AND MUL OR SWAP1 SSTORE POP PUSH3 0xF9 PUSH1 0x40 MLOAD DUP1 PUSH1 0x40 ADD PUSH1 0x40 MSTORE DUP1 PUSH1 0x5 DUP2 MSTORE PUSH1 0x20 ADD PUSH32 0x4F776E6572000000000000000000000000000000000000000000000000000000 DUP2 MSTORE POP DUP3 PUSH1 0x40 MLOAD DUP1 PUSH1 0x40 ADD PUSH1 0x40 MSTORE DUP1 PUSH1 0x5 DUP2 MSTORE PUSH1 0x20 ADD PUSH32 0x41646D696E000000000000000000000000000000000000000000000000000000 DUP2 MSTORE POP PUSH3 0x100 PUSH1 0x20 SHL PUSH1 0x20 SHR JUMP JUMPDEST POP PUSH3 0x685 JUMP JUMPDEST PUSH0 PUSH1 0xB PUSH0 DUP5 PUSH20 0xFFFFFFFFFFFFFFFFFFFFFFFFFFFFFFFFFFFFFFFF AND PUSH20 0xFFFFFFFFFFFFFFFFFFFFFFFFFFFFFFFFFFFFFFFF AND DUP2 MSTORE PUSH1 0x20 ADD SWAP1 DUP2 MSTORE PUSH1 0x20 ADD PUSH0 KECCAK256 SWAP1 POP DUP4 DUP2 PUSH1 0x1 ADD SWAP1 DUP2 PUSH3 0x153 SWAP2 SWAP1 PUSH3 0x528 JUMP JUMPDEST POP DUP3 DUP2 PUSH1 0x2 ADD PUSH0 PUSH2 0x100 EXP DUP2 SLOAD DUP2 PUSH20 0xFFFFFFFFFFFFFFFFFFFFFFFFFFFFFFFFFFFFFFFF MUL NOT AND SWAP1 DUP4 PUSH20 0xFFFFFFFFFFFFFFFFFFFFFFFFFFFFFFFFFFFFFFFF AND MUL OR SWAP1 SSTORE POP DUP2 DUP2 PUSH0 ADD SWAP1 DUP2 PUSH3 0x1A8 SWAP2 SWAP1 PUSH3 0x528 JUMP JUMPDEST POP PUSH1 0x2 PUSH0 DUP2 SLOAD DUP1 SWAP3 SWAP2 SWAP1 PUSH3 0x1BD SWAP1 PUSH3 0x639 JUMP JUMPDEST SWAP2 SWAP1 POP SSTORE DUP2 PUSH1 0x3 ADD DUP2 SWAP1 SSTORE POP PUSH1 0x9 DUP4 SWAP1 DUP1 PUSH1 0x1 DUP2 SLOAD ADD DUP1 DUP3 SSTORE DUP1 SWAP2 POP POP PUSH1 0x1 SWAP1 SUB SWAP1 PUSH0 MSTORE PUSH1 0x20 PUSH0 KECCAK256 ADD PUSH0 SWAP1 SWAP2 SWAP1 SWAP2 SWAP1 SWAP2 PUSH2 0x100 EXP DUP2 SLOAD DUP2 PUSH20 0xFFFFFFFFFFFFFFFFFFFFFFFFFFFFFFFFFFFFFFFF MUL NOT AND SWAP1 DUP4 PUSH20 0xFFFFFFFFFFFFFFFFFFFFFFFFFFFFFFFFFFFFFFFF AND MUL OR SWAP1 SSTORE POP POP POP POP POP JUMP JUMPDEST PUSH0 DUP1 REVERT JUMPDEST PUSH0 PUSH20 0xFFFFFFFFFFFFFFFFFFFFFFFFFFFFFFFFFFFFFFFF DUP3 AND SWAP1 POP SWAP2 SWAP1 POP JUMP JUMPDEST PUSH0 PUSH3 0x25E DUP3 PUSH3 0x233 JUMP JUMPDEST SWAP1 POP SWAP2 SWAP1 POP JUMP JUMPDEST PUSH3 0x270 DUP2 PUSH3 0x252 JUMP JUMPDEST DUP2 EQ PUSH3 0x27B JUMPI PUSH0 DUP1 REVERT JUMPDEST POP JUMP JUMPDEST PUSH0 DUP2 MLOAD SWAP1 POP PUSH3 0x28E DUP2 PUSH3 0x265 JUMP JUMPDEST SWAP3 SWAP2 POP POP JUMP JUMPDEST PUSH0 PUSH1 0x20 DUP3 DUP5 SUB SLT ISZERO PUSH3 0x2AC JUMPI PUSH3 0x2AB PUSH3 0x22F JUMP JUMPDEST JUMPDEST PUSH0 PUSH3 0x2BB DUP5 DUP3 DUP6 ADD PUSH3 0x27E JUMP JUMPDEST SWAP2 POP POP SWAP3 SWAP2 POP POP JUMP JUMPDEST PUSH0 DUP2 MLOAD SWAP1 POP SWAP2 SWAP1 POP JUMP JUMPDEST PUSH32 0x4E487B7100000000000000000000000000000000000000000000000000000000 PUSH0 MSTORE PUSH1 0x41 PUSH1 0x4 MSTORE PUSH1 0x24 PUSH0 REVERT JUMPDEST PUSH32 0x4E487B7100000000000000000000000000000000000000000000000000000000 PUSH0 MSTORE PUSH1 0x22 PUSH1 0x4 MSTORE PUSH1 0x24 PUSH0 REVERT JUMPDEST PUSH0 PUSH1 0x2 DUP3 DIV SWAP1 POP PUSH1 0x1 DUP3 AND DUP1 PUSH3 0x340 JUMPI PUSH1 0x7F DUP3 AND SWAP2 POP JUMPDEST PUSH1 0x20 DUP3 LT DUP2 SUB PUSH3 0x356 JUMPI PUSH3 0x355 PUSH3 0x2FB JUMP JUMPDEST JUMPDEST POP SWAP2 SWAP1 POP JUMP JUMPDEST PUSH0 DUP2 SWAP1 POP DUP2 PUSH0 MSTORE PUSH1 0x20 PUSH0 KECCAK256 SWAP1 POP SWAP2 SWAP1 POP JUMP JUMPDEST PUSH0 PUSH1 0x20 PUSH1 0x1F DUP4 ADD DIV SWAP1 POP SWAP2 SWAP1 POP JUMP JUMPDEST PUSH0 DUP3 DUP3 SHL SWAP1 POP SWAP3 SWAP2 POP POP JUMP JUMPDEST PUSH0 PUSH1 0x8 DUP4 MUL PUSH3 0x3BA PUSH32 0xFFFFFFFFFFFFFFFFFFFFFFFFFFFFFFFFFFFFFFFFFFFFFFFFFFFFFFFFFFFFFFFF DUP3 PUSH3 0x37D JUMP JUMPDEST PUSH3 0x3C6 DUP7 DUP4 PUSH3 0x37D JUMP JUMPDEST SWAP6 POP DUP1 NOT DUP5 AND SWAP4 POP DUP1 DUP7 AND DUP5 OR SWAP3 POP POP POP SWAP4 SWAP3 POP POP POP JUMP JUMPDEST PUSH0 DUP2 SWAP1 POP SWAP2 SWAP1 POP JUMP JUMPDEST PUSH0 DUP2 SWAP1 POP SWAP2 SWAP1 POP JUMP JUMPDEST PUSH0 PUSH3 0x410 PUSH3 0x40A PUSH3 0x404 DUP5 PUSH3 0x3DE JUMP JUMPDEST PUSH3 0x3E7 JUMP JUMPDEST PUSH3 0x3DE JUMP JUMPDEST SWAP1 POP SWAP2 SWAP1 POP JUMP JUMPDEST PUSH0 DUP2 SWAP1 POP SWAP2 SWAP1 POP JUMP JUMPDEST PUSH3 0x42B DUP4 PUSH3 0x3F0 JUMP JUMPDEST PUSH3 0x443 PUSH3 0x43A DUP3 PUSH3 0x417 JUMP JUMPDEST DUP5 DUP5 SLOAD PUSH3 0x389 JUMP JUMPDEST DUP3 SSTORE POP POP POP POP JUMP JUMPDEST PUSH0 SWAP1 JUMP JUMPDEST PUSH3 0x459 PUSH3 0x44B JUMP JUMPDEST PUSH3 0x466 DUP2 DUP5 DUP5 PUSH3 0x420 JUMP JUMPDEST POP POP POP JUMP JUMPDEST JUMPDEST DUP2 DUP2 LT ISZERO PUSH3 0x48D JUMPI PUSH3 0x481 PUSH0 DUP3 PUSH3 0x44F JUMP JUMPDEST PUSH1 0x1 DUP2 ADD SWAP1 POP PUSH3 0x46C JUMP JUMPDEST POP POP JUMP JUMPDEST PUSH1 0x1F DUP3 GT ISZERO PUSH3 0x4DC JUMPI PUSH3 0x4A6 DUP2 PUSH3 0x35C JUMP JUMPDEST PUSH3 0x4B1 DUP5 PUSH3 0x36E JUMP JUMPDEST DUP2 ADD PUSH1 0x20 DUP6 LT ISZERO PUSH3 0x4C1 JUMPI DUP2 SWAP1 POP JUMPDEST PUSH3 0x4D9 PUSH3 0x4D0 DUP6 PUSH3 0x36E JUMP JUMPDEST DUP4 ADD DUP3 PUSH3 0x46B JUMP JUMPDEST POP POP JUMPDEST POP POP POP JUMP JUMPDEST PUSH0 DUP3 DUP3 SHR SWAP1 POP SWAP3 SWAP2 POP POP JUMP JUMPDEST PUSH0 PUSH3 0x4FE PUSH0 NOT DUP5 PUSH1 0x8 MUL PUSH3 0x4E1 JUMP JUMPDEST NOT DUP1 DUP4 AND SWAP2 POP POP SWAP3 SWAP2 POP POP JUMP JUMPDEST PUSH0 PUSH3 0x518 DUP4 DUP4 PUSH3 0x4ED JUMP JUMPDEST SWAP2 POP DUP3 PUSH1 0x2 MUL DUP3 OR SWAP1 POP SWAP3 SWAP2 POP POP JUMP JUMPDEST PUSH3 0x533 DUP3 PUSH3 0x2C4 JUMP JUMPDEST PUSH8 0xFFFFFFFFFFFFFFFF DUP2 GT ISZERO PUSH3 0x54F JUMPI PUSH3 0x54E PUSH3 0x2CE JUMP JUMPDEST JUMPDEST PUSH3 0x55B DUP3 SLOAD PUSH3 0x328 JUMP JUMPDEST PUSH3 0x568 DUP3 DUP3 DUP6 PUSH3 0x491 JUMP JUMPDEST PUSH0 PUSH1 0x20 SWAP1 POP PUSH1 0x1F DUP4 GT PUSH1 0x1 DUP2 EQ PUSH3 0x59E JUMPI PUSH0 DUP5 ISZERO PUSH3 0x589 JUMPI DUP3 DUP8 ADD MLOAD SWAP1 POP JUMPDEST PUSH3 0x595 DUP6 DUP3 PUSH3 0x50B JUMP JUMPDEST DUP7 SSTORE POP PUSH3 0x604 JUMP JUMPDEST PUSH1 0x1F NOT DUP5 AND PUSH3 0x5AE DUP7 PUSH3 0x35C JUMP JUMPDEST PUSH0 JUMPDEST DUP3 DUP2 LT ISZERO PUSH3 0x5D7 JUMPI DUP5 DUP10 ADD MLOAD DUP3 SSTORE PUSH1 0x1 DUP3 ADD SWAP2 POP PUSH1 0x20 DUP6 ADD SWAP5 POP PUSH1 0x20 DUP2 ADD SWAP1 POP PUSH3 0x5B0 JUMP JUMPDEST DUP7 DUP4 LT ISZERO PUSH3 0x5F7 JUMPI DUP5 DUP10 ADD MLOAD PUSH3 0x5F3 PUSH1 0x1F DUP10 AND DUP3 PUSH3 0x4ED JUMP JUMPDEST DUP4 SSTORE POP JUMPDEST PUSH1 0x1 PUSH1 0x2 DUP9 MUL ADD DUP9 SSTORE POP POP POP JUMPDEST POP POP POP POP POP POP JUMP JUMPDEST PUSH32 0x4E487B7100000000000000000000000000000000000000000000000000000000 PUSH0 MSTORE PUSH1 0x11 PUSH1 0x4 MSTORE PUSH1 0x24 PUSH0 REVERT JUMPDEST PUSH0 PUSH3 0x645 DUP3 PUSH3 0x3DE JUMP JUMPDEST SWAP2 POP PUSH32 0xFFFFFFFFFFFFFFFFFFFFFFFFFFFFFFFFFFFFFFFFFFFFFFFFFFFFFFFFFFFFFFFF DUP3 SUB PUSH3 0x67A JUMPI PUSH3 0x679 PUSH3 0x60C JUMP JUMPDEST JUMPDEST PUSH1 0x1 DUP3 ADD SWAP1 POP SWAP2 SWAP1 POP JUMP JUMPDEST PUSH2 0x5CEA DUP1 PUSH3 0x693 PUSH0 CODECOPY PUSH0 RETURN INVALID PUSH1 0x80 PUSH1 0x40 MSTORE CALLVALUE DUP1 ISZERO PUSH2 0xF JUMPI PUSH0 DUP1 REVERT JUMPDEST POP PUSH1 0x4 CALLDATASIZE LT PUSH2 0x170 JUMPI PUSH0 CALLDATALOAD PUSH1 0xE0 SHR DUP1 PUSH4 0x89D7C784 GT PUSH2 0xDC JUMPI DUP1 PUSH4 0xC99DE57E GT PUSH2 0x95 JUMPI DUP1 PUSH4 0xE08491CD GT PUSH2 0x6F JUMPI DUP1 PUSH4 0xE08491CD EQ PUSH2 0x4CE JUMPI DUP1 PUSH4 0xF2CF5EC7 EQ PUSH2 0x4FE JUMPI DUP1 PUSH4 0xF4558EF9 EQ PUSH2 0x51A JUMPI DUP1 PUSH4 0xF59BADAD EQ PUSH2 0x54E JUMPI PUSH2 0x170 JUMP JUMPDEST DUP1 PUSH4 0xC99DE57E EQ PUSH2 0x458 JUMPI DUP1 PUSH4 0xCCC590F2 EQ PUSH2 0x476 JUMPI DUP1 PUSH4 0xE0528B7C EQ PUSH2 0x4B0 JUMPI PUSH2 0x170 JUMP JUMPDEST DUP1 PUSH4 0x89D7C784 EQ PUSH2 0x384 JUMPI DUP1 PUSH4 0x8AD257B7 EQ PUSH2 0x3A2 JUMPI DUP1 PUSH4 0x9F4216E8 EQ PUSH2 0x3C0 JUMPI DUP1 PUSH4 0xA1CB091F EQ PUSH2 0x3F0 JUMPI DUP1 PUSH4 0xA848BF8B EQ PUSH2 0x40C JUMPI DUP1 PUSH4 0xB17E8964 EQ PUSH2 0x43C JUMPI PUSH2 0x170 JUMP JUMPDEST DUP1 PUSH4 0x2C040681 GT PUSH2 0x12E JUMPI DUP1 PUSH4 0x2C040681 EQ PUSH2 0x287 JUMPI DUP1 PUSH4 0x2CDDAA86 EQ PUSH2 0x2B7 JUMPI DUP1 PUSH4 0x2E69619C EQ PUSH2 0x2D5 JUMPI DUP1 PUSH4 0x35B9EA5B EQ PUSH2 0x305 JUMPI DUP1 PUSH4 0x38F14845 EQ PUSH2 0x338 JUMPI DUP1 PUSH4 0x8406830A EQ PUSH2 0x354 JUMPI PUSH2 0x170 JUMP JUMPDEST DUP1 PUSH3 0xA032F0 EQ PUSH2 0x174 JUMPI DUP1 PUSH4 0x2D05D3F EQ PUSH2 0x1A7 JUMPI DUP1 PUSH4 0x4EF5B21 EQ PUSH2 0x1C5 JUMPI DUP1 PUSH4 0xF44F0B8 EQ PUSH2 0x1FF JUMPI DUP1 PUSH4 0x220FD618 EQ PUSH2 0x233 JUMPI DUP1 PUSH4 0x2BCC23F8 EQ PUSH2 0x251 JUMPI JUMPDEST PUSH0 DUP1 REVERT JUMPDEST PUSH2 0x18E PUSH1 0x4 DUP1 CALLDATASIZE SUB DUP2 ADD SWAP1 PUSH2 0x189 SWAP2 SWAP1 PUSH2 0x44B1 JUMP JUMPDEST PUSH2 0x56C JUMP JUMPDEST PUSH1 0x40 MLOAD PUSH2 0x19E SWAP5 SWAP4 SWAP3 SWAP2 SWAP1 PUSH2 0x4572 JUMP JUMPDEST PUSH1 0x40 MLOAD DUP1 SWAP2 SUB SWAP1 RETURN JUMPDEST PUSH2 0x1AF PUSH2 0x7C8 JUMP JUMPDEST PUSH1 0x40 MLOAD PUSH2 0x1BC SWAP2 SWAP1 PUSH2 0x4610 JUMP JUMPDEST PUSH1 0x40 MLOAD DUP1 SWAP2 SUB SWAP1 RETURN JUMPDEST PUSH2 0x1DF PUSH1 0x4 DUP1 CALLDATASIZE SUB DUP2 ADD SWAP1 PUSH2 0x1DA SWAP2 SWAP1 PUSH2 0x465C JUMP JUMPDEST PUSH2 0x7EB JUMP JUMPDEST PUSH1 0x40 MLOAD PUSH2 0x1F6 SWAP12 SWAP11 SWAP10 SWAP9 SWAP8 SWAP7 SWAP6 SWAP5 SWAP4 SWAP3 SWAP2 SWAP1 PUSH2 0x4696 JUMP JUMPDEST PUSH1 0x40 MLOAD DUP1 SWAP2 SUB SWAP1 RETURN JUMPDEST PUSH2 0x219 PUSH1 0x4 DUP1 CALLDATASIZE SUB DUP2 ADD SWAP1 PUSH2 0x214 SWAP2 SWAP1 PUSH2 0x44B1 JUMP JUMPDEST PUSH2 0xC19 JUMP JUMPDEST PUSH1 0x40 MLOAD PUSH2 0x22A SWAP6 SWAP5 SWAP4 SWAP3 SWAP2 SWAP1 PUSH2 0x4770 JUMP JUMPDEST PUSH1 0x40 MLOAD DUP1 SWAP2 SUB SWAP1 RETURN JUMPDEST PUSH2 0x23B PUSH2 0xD6F JUMP JUMPDEST PUSH1 0x40 MLOAD PUSH2 0x248 SWAP2 SWAP1 PUSH2 0x4A06 JUMP JUMPDEST PUSH1 0x40 MLOAD DUP1 SWAP2 SUB SWAP1 RETURN JUMPDEST PUSH2 0x26B PUSH1 0x4 DUP1 CALLDATASIZE SUB DUP2 ADD SWAP1 PUSH2 0x266 SWAP2 SWAP1 PUSH2 0x4A50 JUMP JUMPDEST PUSH2 0x122E JUMP JUMPDEST PUSH1 0x40 MLOAD PUSH2 0x27E SWAP8 SWAP7 SWAP6 SWAP5 SWAP4 SWAP3 SWAP2 SWAP1 PUSH2 0x4A7B JUMP JUMPDEST PUSH1 0x40 MLOAD DUP1 SWAP2 SUB SWAP1 RETURN JUMPDEST PUSH2 0x2A1 PUSH1 0x4 DUP1 CALLDATASIZE SUB DUP2 ADD SWAP1 PUSH2 0x29C SWAP2 SWAP1 PUSH2 0x44B1 JUMP JUMPDEST PUSH2 0x1397 JUMP JUMPDEST PUSH1 0x40 MLOAD PUSH2 0x2AE SWAP2 SWAP1 PUSH2 0x4C92 JUMP JUMPDEST PUSH1 0x40 MLOAD DUP1 SWAP2 SUB SWAP1 RETURN JUMPDEST PUSH2 0x2BF PUSH2 0x165B JUMP JUMPDEST PUSH1 0x40 MLOAD PUSH2 0x2CC SWAP2 SWAP1 PUSH2 0x4CCC JUMP JUMPDEST PUSH1 0x40 MLOAD DUP1 SWAP2 SUB SWAP1 RETURN JUMPDEST PUSH2 0x2EF PUSH1 0x4 DUP1 CALLDATASIZE SUB DUP2 ADD SWAP1 PUSH2 0x2EA SWAP2 SWAP1 PUSH2 0x44B1 JUMP JUMPDEST PUSH2 0x16BA JUMP JUMPDEST PUSH1 0x40 MLOAD PUSH2 0x2FC SWAP2 SWAP1 PUSH2 0x4CE5 JUMP JUMPDEST PUSH1 0x40 MLOAD DUP1 SWAP2 SUB SWAP1 RETURN JUMPDEST PUSH2 0x31F PUSH1 0x4 DUP1 CALLDATASIZE SUB DUP2 ADD SWAP1 PUSH2 0x31A SWAP2 SWAP1 PUSH2 0x465C JUMP JUMPDEST PUSH2 0x1D68 JUMP JUMPDEST PUSH1 0x40 MLOAD PUSH2 0x32F SWAP5 SWAP4 SWAP3 SWAP2 SWAP1 PUSH2 0x4572 JUMP JUMPDEST PUSH1 0x40 MLOAD DUP1 SWAP2 SUB SWAP1 RETURN JUMPDEST PUSH2 0x352 PUSH1 0x4 DUP1 CALLDATASIZE SUB DUP2 ADD SWAP1 PUSH2 0x34D SWAP2 SWAP1 PUSH2 0x465C JUMP JUMPDEST PUSH2 0x1FBB JUMP JUMPDEST STOP JUMPDEST PUSH2 0x36E PUSH1 0x4 DUP1 CALLDATASIZE SUB DUP2 ADD SWAP1 PUSH2 0x369 SWAP2 SWAP1 PUSH2 0x44B1 JUMP JUMPDEST PUSH2 0x1FFC JUMP JUMPDEST PUSH1 0x40 MLOAD PUSH2 0x37B SWAP2 SWAP1 PUSH2 0x4CE5 JUMP JUMPDEST PUSH1 0x40 MLOAD DUP1 SWAP2 SUB SWAP1 RETURN JUMPDEST PUSH2 0x38C PUSH2 0x20C9 JUMP JUMPDEST PUSH1 0x40 MLOAD PUSH2 0x399 SWAP2 SWAP1 PUSH2 0x4CCC JUMP JUMPDEST PUSH1 0x40 MLOAD DUP1 SWAP2 SUB SWAP1 RETURN JUMPDEST PUSH2 0x3AA PUSH2 0x2167 JUMP JUMPDEST PUSH1 0x40 MLOAD PUSH2 0x3B7 SWAP2 SWAP1 PUSH2 0x4DA6 JUMP JUMPDEST PUSH1 0x40 MLOAD DUP1 SWAP2 SUB SWAP1 RETURN JUMPDEST PUSH2 0x3DA PUSH1 0x4 DUP1 CALLDATASIZE SUB DUP2 ADD SWAP1 PUSH2 0x3D5 SWAP2 SWAP1 PUSH2 0x465C JUMP JUMPDEST PUSH2 0x21F2 JUMP JUMPDEST PUSH1 0x40 MLOAD PUSH2 0x3E7 SWAP2 SWAP1 PUSH2 0x4610 JUMP JUMPDEST PUSH1 0x40 MLOAD DUP1 SWAP2 SUB SWAP1 RETURN JUMPDEST PUSH2 0x40A PUSH1 0x4 DUP1 CALLDATASIZE SUB DUP2 ADD SWAP1 PUSH2 0x405 SWAP2 SWAP1 PUSH2 0x4DC6 JUMP JUMPDEST PUSH2 0x222D JUMP JUMPDEST STOP JUMPDEST PUSH2 0x426 PUSH1 0x4 DUP1 CALLDATASIZE SUB DUP2 ADD SWAP1 PUSH2 0x421 SWAP2 SWAP1 PUSH2 0x44B1 JUMP JUMPDEST PUSH2 0x2319 JUMP JUMPDEST PUSH1 0x40 MLOAD PUSH2 0x433 SWAP2 SWAP1 PUSH2 0x4E62 JUMP JUMPDEST PUSH1 0x40 MLOAD DUP1 SWAP2 SUB SWAP1 RETURN JUMPDEST PUSH2 0x456 PUSH1 0x4 DUP1 CALLDATASIZE SUB DUP2 ADD SWAP1 PUSH2 0x451 SWAP2 SWAP1 PUSH2 0x4E82 JUMP JUMPDEST PUSH2 0x23D1 JUMP JUMPDEST STOP JUMPDEST PUSH2 0x460 PUSH2 0x24FA JUMP JUMPDEST PUSH1 0x40 MLOAD PUSH2 0x46D SWAP2 SWAP1 PUSH2 0x4610 JUMP JUMPDEST PUSH1 0x40 MLOAD DUP1 SWAP2 SUB SWAP1 RETURN JUMPDEST PUSH2 0x490 PUSH1 0x4 DUP1 CALLDATASIZE SUB DUP2 ADD SWAP1 PUSH2 0x48B SWAP2 SWAP1 PUSH2 0x44B1 JUMP JUMPDEST PUSH2 0x251F JUMP JUMPDEST PUSH1 0x40 MLOAD PUSH2 0x4A7 SWAP12 SWAP11 SWAP10 SWAP9 SWAP8 SWAP7 SWAP6 SWAP5 SWAP4 SWAP3 SWAP2 SWAP1 PUSH2 0x4696 JUMP JUMPDEST PUSH1 0x40 MLOAD DUP1 SWAP2 SUB SWAP1 RETURN JUMPDEST PUSH2 0x4B8 PUSH2 0x2956 JUMP JUMPDEST PUSH1 0x40 MLOAD PUSH2 0x4C5 SWAP2 SWAP1 PUSH2 0x503A JUMP JUMPDEST PUSH1 0x40 MLOAD DUP1 SWAP2 SUB SWAP1 RETURN JUMPDEST PUSH2 0x4E8 PUSH1 0x4 DUP1 CALLDATASIZE SUB DUP2 ADD SWAP1 PUSH2 0x4E3 SWAP2 SWAP1 PUSH2 0x44B1 JUMP JUMPDEST PUSH2 0x2BF1 JUMP JUMPDEST PUSH1 0x40 MLOAD PUSH2 0x4F5 SWAP2 SWAP1 PUSH2 0x4CE5 JUMP JUMPDEST PUSH1 0x40 MLOAD DUP1 SWAP2 SUB SWAP1 RETURN JUMPDEST PUSH2 0x518 PUSH1 0x4 DUP1 CALLDATASIZE SUB DUP2 ADD SWAP1 PUSH2 0x513 SWAP2 SWAP1 PUSH2 0x505A JUMP JUMPDEST PUSH2 0x345A JUMP JUMPDEST STOP JUMPDEST PUSH2 0x534 PUSH1 0x4 DUP1 CALLDATASIZE SUB DUP2 ADD SWAP1 PUSH2 0x52F SWAP2 SWAP1 PUSH2 0x465C JUMP JUMPDEST PUSH2 0x3A83 JUMP JUMPDEST PUSH1 0x40 MLOAD PUSH2 0x545 SWAP6 SWAP5 SWAP4 SWAP3 SWAP2 SWAP1 PUSH2 0x4770 JUMP JUMPDEST PUSH1 0x40 MLOAD DUP1 SWAP2 SUB SWAP1 RETURN JUMPDEST PUSH2 0x556 PUSH2 0x3BD0 JUMP JUMPDEST PUSH1 0x40 MLOAD PUSH2 0x563 SWAP2 SWAP1 PUSH2 0x5276 JUMP JUMPDEST PUSH1 0x40 MLOAD DUP1 SWAP2 SUB SWAP1 RETURN JUMPDEST PUSH1 0xD DUP2 DUP1 MLOAD PUSH1 0x20 DUP2 ADD DUP3 ADD DUP1 MLOAD DUP5 DUP3 MSTORE PUSH1 0x20 DUP4 ADD PUSH1 0x20 DUP6 ADD KECCAK256 DUP2 DUP4 MSTORE DUP1 SWAP6 POP POP POP POP POP POP PUSH0 SWAP2 POP SWAP1 POP DUP1 PUSH0 ADD DUP1 SLOAD PUSH2 0x5A3 SWAP1 PUSH2 0x52C3 JUMP JUMPDEST DUP1 PUSH1 0x1F ADD PUSH1 0x20 DUP1 SWAP2 DIV MUL PUSH1 0x20 ADD PUSH1 0x40 MLOAD SWAP1 DUP2 ADD PUSH1 0x40 MSTORE DUP1 SWAP3 SWAP2 SWAP1 DUP2 DUP2 MSTORE PUSH1 0x20 ADD DUP3 DUP1 SLOAD PUSH2 0x5CF SWAP1 PUSH2 0x52C3 JUMP JUMPDEST DUP1 ISZERO PUSH2 0x61A JUMPI DUP1 PUSH1 0x1F LT PUSH2 0x5F1 JUMPI PUSH2 0x100 DUP1 DUP4 SLOAD DIV MUL DUP4 MSTORE SWAP2 PUSH1 0x20 ADD SWAP2 PUSH2 0x61A JUMP JUMPDEST DUP3 ADD SWAP2 SWAP1 PUSH0 MSTORE PUSH1 0x20 PUSH0 KECCAK256 SWAP1 JUMPDEST DUP2 SLOAD DUP2 MSTORE SWAP1 PUSH1 0x1 ADD SWAP1 PUSH1 0x20 ADD DUP1 DUP4 GT PUSH2 0x5FD JUMPI DUP3 SWAP1 SUB PUSH1 0x1F AND DUP3 ADD SWAP2 JUMPDEST POP POP POP POP POP SWAP1 DUP1 PUSH1 0x1 ADD DUP1 SLOAD PUSH2 0x62F SWAP1 PUSH2 0x52C3 JUMP JUMPDEST DUP1 PUSH1 0x1F ADD PUSH1 0x20 DUP1 SWAP2 DIV MUL PUSH1 0x20 ADD PUSH1 0x40 MLOAD SWAP1 DUP2 ADD PUSH1 0x40 MSTORE DUP1 SWAP3 SWAP2 SWAP1 DUP2 DUP2 MSTORE PUSH1 0x20 ADD DUP3 DUP1 SLOAD PUSH2 0x65B SWAP1 PUSH2 0x52C3 JUMP JUMPDEST DUP1 ISZERO PUSH2 0x6A6 JUMPI DUP1 PUSH1 0x1F LT PUSH2 0x67D JUMPI PUSH2 0x100 DUP1 DUP4 SLOAD DIV MUL DUP4 MSTORE SWAP2 PUSH1 0x20 ADD SWAP2 PUSH2 0x6A6 JUMP JUMPDEST DUP3 ADD SWAP2 SWAP1 PUSH0 MSTORE PUSH1 0x20 PUSH0 KECCAK256 SWAP1 JUMPDEST DUP2 SLOAD DUP2 MSTORE SWAP1 PUSH1 0x1 ADD SWAP1 PUSH1 0x20 ADD DUP1 DUP4 GT PUSH2 0x689 JUMPI DUP3 SWAP1 SUB PUSH1 0x1F AND DUP3 ADD SWAP2 JUMPDEST POP POP POP POP POP SWAP1 DUP1 PUSH1 0x2 ADD DUP1 SLOAD PUSH2 0x6BB SWAP1 PUSH2 0x52C3 JUMP JUMPDEST DUP1 PUSH1 0x1F ADD PUSH1 0x20 DUP1 SWAP2 DIV MUL PUSH1 0x20 ADD PUSH1 0x40 MLOAD SWAP1 DUP2 ADD PUSH1 0x40 MSTORE DUP1 SWAP3 SWAP2 SWAP1 DUP2 DUP2 MSTORE PUSH1 0x20 ADD DUP3 DUP1 SLOAD PUSH2 0x6E7 SWAP1 PUSH2 0x52C3 JUMP JUMPDEST DUP1 ISZERO PUSH2 0x732 JUMPI DUP1 PUSH1 0x1F LT PUSH2 0x709 JUMPI PUSH2 0x100 DUP1 DUP4 SLOAD DIV MUL DUP4 MSTORE SWAP2 PUSH1 0x20 ADD SWAP2 PUSH2 0x732 JUMP JUMPDEST DUP3 ADD SWAP2 SWAP1 PUSH0 MSTORE PUSH1 0x20 PUSH0 KECCAK256 SWAP1 JUMPDEST DUP2 SLOAD DUP2 MSTORE SWAP1 PUSH1 0x1 ADD SWAP1 PUSH1 0x20 ADD DUP1 DUP4 GT PUSH2 0x715 JUMPI DUP3 SWAP1 SUB PUSH1 0x1F AND DUP3 ADD SWAP2 JUMPDEST POP POP POP POP POP SWAP1 DUP1 PUSH1 0x3 ADD DUP1 SLOAD PUSH2 0x747 SWAP1 PUSH2 0x52C3 JUMP JUMPDEST DUP1 PUSH1 0x1F ADD PUSH1 0x20 DUP1 SWAP2 DIV MUL PUSH1 0x20 ADD PUSH1 0x40 MLOAD SWAP1 DUP2 ADD PUSH1 0x40 MSTORE DUP1 SWAP3 SWAP2 SWAP1 DUP2 DUP2 MSTORE PUSH1 0x20 ADD DUP3 DUP1 SLOAD PUSH2 0x773 SWAP1 PUSH2 0x52C3 JUMP JUMPDEST DUP1 ISZERO PUSH2 0x7BE JUMPI DUP1 PUSH1 0x1F LT PUSH2 0x795 JUMPI PUSH2 0x100 DUP1 DUP4 SLOAD DIV MUL DUP4 MSTORE SWAP2 PUSH1 0x20 ADD SWAP2 PUSH2 0x7BE JUMP JUMPDEST DUP3 ADD SWAP2 SWAP1 PUSH0 MSTORE PUSH1 0x20 PUSH0 KECCAK256 SWAP1 JUMPDEST DUP2 SLOAD DUP2 MSTORE SWAP1 PUSH1 0x1 ADD SWAP1 PUSH1 0x20 ADD DUP1 DUP4 GT PUSH2 0x7A1 JUMPI DUP3 SWAP1 SUB PUSH1 0x1F AND DUP3 ADD SWAP2 JUMPDEST POP POP POP POP POP SWAP1 POP DUP5 JUMP JUMPDEST PUSH0 DUP1 SLOAD SWAP1 PUSH2 0x100 EXP SWAP1 DIV PUSH20 0xFFFFFFFFFFFFFFFFFFFFFFFFFFFFFFFFFFFFFFFF AND DUP2 JUMP JUMPDEST PUSH1 0x6 DUP2 DUP2 SLOAD DUP2 LT PUSH2 0x7FA JUMPI PUSH0 DUP1 REVERT JUMPDEST SWAP1 PUSH0 MSTORE PUSH1 0x20 PUSH0 KECCAK256 SWAP1 PUSH1 0xB MUL ADD PUSH0 SWAP2 POP SWAP1 POP DUP1 PUSH0 ADD DUP1 SLOAD PUSH2 0x819 SWAP1 PUSH2 0x52C3 JUMP JUMPDEST DUP1 PUSH1 0x1F ADD PUSH1 0x20 DUP1 SWAP2 DIV MUL PUSH1 0x20 ADD PUSH1 0x40 MLOAD SWAP1 DUP2 ADD PUSH1 0x40 MSTORE DUP1 SWAP3 SWAP2 SWAP1 DUP2 DUP2 MSTORE PUSH1 0x20 ADD DUP3 DUP1 SLOAD PUSH2 0x845 SWAP1 PUSH2 0x52C3 JUMP JUMPDEST DUP1 ISZERO PUSH2 0x890 JUMPI DUP1 PUSH1 0x1F LT PUSH2 0x867 JUMPI PUSH2 0x100 DUP1 DUP4 SLOAD DIV MUL DUP4 MSTORE SWAP2 PUSH1 0x20 ADD SWAP2 PUSH2 0x890 JUMP JUMPDEST DUP3 ADD SWAP2 SWAP1 PUSH0 MSTORE PUSH1 0x20 PUSH0 KECCAK256 SWAP1 JUMPDEST DUP2 SLOAD DUP2 MSTORE SWAP1 PUSH1 0x1 ADD SWAP1 PUSH1 0x20 ADD DUP1 DUP4 GT PUSH2 0x873 JUMPI DUP3 SWAP1 SUB PUSH1 0x1F AND DUP3 ADD SWAP2 JUMPDEST POP POP POP POP POP SWAP1 DUP1 PUSH1 0x1 ADD DUP1 SLOAD PUSH2 0x8A5 SWAP1 PUSH2 0x52C3 JUMP JUMPDEST DUP1 PUSH1 0x1F ADD PUSH1 0x20 DUP1 SWAP2 DIV MUL PUSH1 0x20 ADD PUSH1 0x40 MLOAD SWAP1 DUP2 ADD PUSH1 0x40 MSTORE DUP1 SWAP3 SWAP2 SWAP1 DUP2 DUP2 MSTORE PUSH1 0x20 ADD DUP3 DUP1 SLOAD PUSH2 0x8D1 SWAP1 PUSH2 0x52C3 JUMP JUMPDEST DUP1 ISZERO PUSH2 0x91C JUMPI DUP1 PUSH1 0x1F LT PUSH2 0x8F3 JUMPI PUSH2 0x100 DUP1 DUP4 SLOAD DIV MUL DUP4 MSTORE SWAP2 PUSH1 0x20 ADD SWAP2 PUSH2 0x91C JUMP JUMPDEST DUP3 ADD SWAP2 SWAP1 PUSH0 MSTORE PUSH1 0x20 PUSH0 KECCAK256 SWAP1 JUMPDEST DUP2 SLOAD DUP2 MSTORE SWAP1 PUSH1 0x1 ADD SWAP1 PUSH1 0x20 ADD DUP1 DUP4 GT PUSH2 0x8FF JUMPI DUP3 SWAP1 SUB PUSH1 0x1F AND DUP3 ADD SWAP2 JUMPDEST POP POP POP POP POP SWAP1 DUP1 PUSH1 0x2 ADD DUP1 SLOAD PUSH2 0x931 SWAP1 PUSH2 0x52C3 JUMP JUMPDEST DUP1 PUSH1 0x1F ADD PUSH1 0x20 DUP1 SWAP2 DIV MUL PUSH1 0x20 ADD PUSH1 0x40 MLOAD SWAP1 DUP2 ADD PUSH1 0x40 MSTORE DUP1 SWAP3 SWAP2 SWAP1 DUP2 DUP2 MSTORE PUSH1 0x20 ADD DUP3 DUP1 SLOAD PUSH2 0x95D SWAP1 PUSH2 0x52C3 JUMP JUMPDEST DUP1 ISZERO PUSH2 0x9A8 JUMPI DUP1 PUSH1 0x1F LT PUSH2 0x97F JUMPI PUSH2 0x100 DUP1 DUP4 SLOAD DIV MUL DUP4 MSTORE SWAP2 PUSH1 0x20 ADD SWAP2 PUSH2 0x9A8 JUMP JUMPDEST DUP3 ADD SWAP2 SWAP1 PUSH0 MSTORE PUSH1 0x20 PUSH0 KECCAK256 SWAP1 JUMPDEST DUP2 SLOAD DUP2 MSTORE SWAP1 PUSH1 0x1 ADD SWAP1 PUSH1 0x20 ADD DUP1 DUP4 GT PUSH2 0x98B JUMPI DUP3 SWAP1 SUB PUSH1 0x1F AND DUP3 ADD SWAP2 JUMPDEST POP POP POP POP POP SWAP1 DUP1 PUSH1 0x3 ADD DUP1 SLOAD PUSH2 0x9BD SWAP1 PUSH2 0x52C3 JUMP JUMPDEST DUP1 PUSH1 0x1F ADD PUSH1 0x20 DUP1 SWAP2 DIV MUL PUSH1 0x20 ADD PUSH1 0x40 MLOAD SWAP1 DUP2 ADD PUSH1 0x40 MSTORE DUP1 SWAP3 SWAP2 SWAP1 DUP2 DUP2 MSTORE PUSH1 0x20 ADD DUP3 DUP1 SLOAD PUSH2 0x9E9 SWAP1 PUSH2 0x52C3 JUMP JUMPDEST DUP1 ISZERO PUSH2 0xA34 JUMPI DUP1 PUSH1 0x1F LT PUSH2 0xA0B JUMPI PUSH2 0x100 DUP1 DUP4 SLOAD DIV MUL DUP4 MSTORE SWAP2 PUSH1 0x20 ADD SWAP2 PUSH2 0xA34 JUMP JUMPDEST DUP3 ADD SWAP2 SWAP1 PUSH0 MSTORE PUSH1 0x20 PUSH0 KECCAK256 SWAP1 JUMPDEST DUP2 SLOAD DUP2 MSTORE SWAP1 PUSH1 0x1 ADD SWAP1 PUSH1 0x20 ADD DUP1 DUP4 GT PUSH2 0xA17 JUMPI DUP3 SWAP1 SUB PUSH1 0x1F AND DUP3 ADD SWAP2 JUMPDEST POP POP POP POP POP SWAP1 DUP1 PUSH1 0x4 ADD SLOAD SWAP1 DUP1 PUSH1 0x5 ADD DUP1 SLOAD PUSH2 0xA4F SWAP1 PUSH2 0x52C3 JUMP JUMPDEST DUP1 PUSH1 0x1F ADD PUSH1 0x20 DUP1 SWAP2 DIV MUL PUSH1 0x20 ADD PUSH1 0x40 MLOAD SWAP1 DUP2 ADD PUSH1 0x40 MSTORE DUP1 SWAP3 SWAP2 SWAP1 DUP2 DUP2 MSTORE PUSH1 0x20 ADD DUP3 DUP1 SLOAD PUSH2 0xA7B SWAP1 PUSH2 0x52C3 JUMP JUMPDEST DUP1 ISZERO PUSH2 0xAC6 JUMPI DUP1 PUSH1 0x1F LT PUSH2 0xA9D JUMPI PUSH2 0x100 DUP1 DUP4 SLOAD DIV MUL DUP4 MSTORE SWAP2 PUSH1 0x20 ADD SWAP2 PUSH2 0xAC6 JUMP JUMPDEST DUP3 ADD SWAP2 SWAP1 PUSH0 MSTORE PUSH1 0x20 PUSH0 KECCAK256 SWAP1 JUMPDEST DUP2 SLOAD DUP2 MSTORE SWAP1 PUSH1 0x1 ADD SWAP1 PUSH1 0x20 ADD DUP1 DUP4 GT PUSH2 0xAA9 JUMPI DUP3 SWAP1 SUB PUSH1 0x1F AND DUP3 ADD SWAP2 JUMPDEST POP POP POP POP POP SWAP1 DUP1 PUSH1 0x6 ADD PUSH0 SWAP1 SLOAD SWAP1 PUSH2 0x100 EXP SWAP1 DIV PUSH20 0xFFFFFFFFFFFFFFFFFFFFFFFFFFFFFFFFFFFFFFFF AND SWAP1 DUP1 PUSH1 0x7 ADD SLOAD SWAP1 DUP1 PUSH1 0x8 ADD DUP1 SLOAD PUSH2 0xB06 SWAP1 PUSH2 0x52C3 JUMP JUMPDEST DUP1 PUSH1 0x1F ADD PUSH1 0x20 DUP1 SWAP2 DIV MUL PUSH1 0x20 ADD PUSH1 0x40 MLOAD SWAP1 DUP2 ADD PUSH1 0x40 MSTORE DUP1 SWAP3 SWAP2 SWAP1 DUP2 DUP2 MSTORE PUSH1 0x20 ADD DUP3 DUP1 SLOAD PUSH2 0xB32 SWAP1 PUSH2 0x52C3 JUMP JUMPDEST DUP1 ISZERO PUSH2 0xB7D JUMPI DUP1 PUSH1 0x1F LT PUSH2 0xB54 JUMPI PUSH2 0x100 DUP1 DUP4 SLOAD DIV MUL DUP4 MSTORE SWAP2 PUSH1 0x20 ADD SWAP2 PUSH2 0xB7D JUMP JUMPDEST DUP3 ADD SWAP2 SWAP1 PUSH0 MSTORE PUSH1 0x20 PUSH0 KECCAK256 SWAP1 JUMPDEST DUP2 SLOAD DUP2 MSTORE SWAP1 PUSH1 0x1 ADD SWAP1 PUSH1 0x20 ADD DUP1 DUP4 GT PUSH2 0xB60 JUMPI DUP3 SWAP1 SUB PUSH1 0x1F AND DUP3 ADD SWAP2 JUMPDEST POP POP POP POP POP SWAP1 DUP1 PUSH1 0x9 ADD DUP1 SLOAD PUSH2 0xB92 SWAP1 PUSH2 0x52C3 JUMP JUMPDEST DUP1 PUSH1 0x1F ADD PUSH1 0x20 DUP1 SWAP2 DIV MUL PUSH1 0x20 ADD PUSH1 0x40 MLOAD SWAP1 DUP2 ADD PUSH1 0x40 MSTORE DUP1 SWAP3 SWAP2 SWAP1 DUP2 DUP2 MSTORE PUSH1 0x20 ADD DUP3 DUP1 SLOAD PUSH2 0xBBE SWAP1 PUSH2 0x52C3 JUMP JUMPDEST DUP1 ISZERO PUSH2 0xC09 JUMPI DUP1 PUSH1 0x1F LT PUSH2 0xBE0 JUMPI PUSH2 0x100 DUP1 DUP4 SLOAD DIV MUL DUP4 MSTORE SWAP2 PUSH1 0x20 ADD SWAP2 PUSH2 0xC09 JUMP JUMPDEST DUP3 ADD SWAP2 SWAP1 PUSH0 MSTORE PUSH1 0x20 PUSH0 KECCAK256 SWAP1 JUMPDEST DUP2 SLOAD DUP2 MSTORE SWAP1 PUSH1 0x1 ADD SWAP1 PUSH1 0x20 ADD DUP1 DUP4 GT PUSH2 0xBEC JUMPI DUP3 SWAP1 SUB PUSH1 0x1F AND DUP3 ADD SWAP2 JUMPDEST POP POP POP POP POP SWAP1 DUP1 PUSH1 0xA ADD SLOAD SWAP1 POP DUP12 JUMP JUMPDEST PUSH1 0xA DUP2 DUP1 MLOAD PUSH1 0x20 DUP2 ADD DUP3 ADD DUP1 MLOAD DUP5 DUP3 MSTORE PUSH1 0x20 DUP4 ADD PUSH1 0x20 DUP6 ADD KECCAK256 DUP2 DUP4 MSTORE DUP1 SWAP6 POP POP POP POP POP POP PUSH0 SWAP2 POP SWAP1 POP DUP1 PUSH0 ADD SLOAD SWAP1 DUP1 PUSH1 0x1 ADD DUP1 SLOAD PUSH2 0xC56 SWAP1 PUSH2 0x52C3 JUMP JUMPDEST DUP1 PUSH1 0x1F ADD PUSH1 0x20 DUP1 SWAP2 DIV MUL PUSH1 0x20 ADD PUSH1 0x40 MLOAD SWAP1 DUP2 ADD PUSH1 0x40 MSTORE DUP1 SWAP3 SWAP2 SWAP1 DUP2 DUP2 MSTORE PUSH1 0x20 ADD DUP3 DUP1 SLOAD PUSH2 0xC82 SWAP1 PUSH2 0x52C3 JUMP JUMPDEST DUP1 ISZERO PUSH2 0xCCD JUMPI DUP1 PUSH1 0x1F LT PUSH2 0xCA4 JUMPI PUSH2 0x100 DUP1 DUP4 SLOAD DIV MUL DUP4 MSTORE SWAP2 PUSH1 0x20 ADD SWAP2 PUSH2 0xCCD JUMP JUMPDEST DUP3 ADD SWAP2 SWAP1 PUSH0 MSTORE PUSH1 0x20 PUSH0 KECCAK256 SWAP1 JUMPDEST DUP2 SLOAD DUP2 MSTORE SWAP1 PUSH1 0x1 ADD SWAP1 PUSH1 0x20 ADD DUP1 DUP4 GT PUSH2 0xCB0 JUMPI DUP3 SWAP1 SUB PUSH1 0x1F AND DUP3 ADD SWAP2 JUMPDEST POP POP POP POP POP SWAP1 DUP1 PUSH1 0x2 ADD DUP1 SLOAD PUSH2 0xCE2 SWAP1 PUSH2 0x52C3 JUMP JUMPDEST DUP1 PUSH1 0x1F ADD PUSH1 0x20 DUP1 SWAP2 DIV MUL PUSH1 0x20 ADD PUSH1 0x40 MLOAD SWAP1 DUP2 ADD PUSH1 0x40 MSTORE DUP1 SWAP3 SWAP2 SWAP1 DUP2 DUP2 MSTORE PUSH1 0x20 ADD DUP3 DUP1 SLOAD PUSH2 0xD0E SWAP1 PUSH2 0x52C3 JUMP JUMPDEST DUP1 ISZERO PUSH2 0xD59 JUMPI DUP1 PUSH1 0x1F LT PUSH2 0xD30 JUMPI PUSH2 0x100 DUP1 DUP4 SLOAD DIV MUL DUP4 MSTORE SWAP2 PUSH1 0x20 ADD SWAP2 PUSH2 0xD59 JUMP JUMPDEST DUP3 ADD SWAP2 SWAP1 PUSH0 MSTORE PUSH1 0x20 PUSH0 KECCAK256 SWAP1 JUMPDEST DUP2 SLOAD DUP2 MSTORE SWAP1 PUSH1 0x1 ADD SWAP1 PUSH1 0x20 ADD DUP1 DUP4 GT PUSH2 0xD3C JUMPI DUP3 SWAP1 SUB PUSH1 0x1F AND DUP3 ADD SWAP2 JUMPDEST POP POP POP POP POP SWAP1 DUP1 PUSH1 0x3 ADD SLOAD SWAP1 DUP1 PUSH1 0x4 ADD SLOAD SWAP1 POP DUP6 JUMP JUMPDEST PUSH1 0x60 PUSH1 0x6 DUP1 SLOAD DUP1 PUSH1 0x20 MUL PUSH1 0x20 ADD PUSH1 0x40 MLOAD SWAP1 DUP2 ADD PUSH1 0x40 MSTORE DUP1 SWAP3 SWAP2 SWAP1 DUP2 DUP2 MSTORE PUSH1 0x20 ADD PUSH0 SWAP1 JUMPDEST DUP3 DUP3 LT ISZERO PUSH2 0x1225 JUMPI DUP4 DUP3 SWAP1 PUSH0 MSTORE PUSH1 0x20 PUSH0 KECCAK256 SWAP1 PUSH1 0xB MUL ADD PUSH1 0x40 MLOAD DUP1 PUSH2 0x160 ADD PUSH1 0x40 MSTORE SWAP1 DUP2 PUSH0 DUP3 ADD DUP1 SLOAD PUSH2 0xDC3 SWAP1 PUSH2 0x52C3 JUMP JUMPDEST DUP1 PUSH1 0x1F ADD PUSH1 0x20 DUP1 SWAP2 DIV MUL PUSH1 0x20 ADD PUSH1 0x40 MLOAD SWAP1 DUP2 ADD PUSH1 0x40 MSTORE DUP1 SWAP3 SWAP2 SWAP1 DUP2 DUP2 MSTORE PUSH1 0x20 ADD DUP3 DUP1 SLOAD PUSH2 0xDEF SWAP1 PUSH2 0x52C3 JUMP JUMPDEST DUP1 ISZERO PUSH2 0xE3A JUMPI DUP1 PUSH1 0x1F LT PUSH2 0xE11 JUMPI PUSH2 0x100 DUP1 DUP4 SLOAD DIV MUL DUP4 MSTORE SWAP2 PUSH1 0x20 ADD SWAP2 PUSH2 0xE3A JUMP JUMPDEST DUP3 ADD SWAP2 SWAP1 PUSH0 MSTORE PUSH1 0x20 PUSH0 KECCAK256 SWAP1 JUMPDEST DUP2 SLOAD DUP2 MSTORE SWAP1 PUSH1 0x1 ADD SWAP1 PUSH1 0x20 ADD DUP1 DUP4 GT PUSH2 0xE1D JUMPI DUP3 SWAP1 SUB PUSH1 0x1F AND DUP3 ADD SWAP2 JUMPDEST POP POP POP POP POP DUP2 MSTORE PUSH1 0x20 ADD PUSH1 0x1 DUP3 ADD DUP1 SLOAD PUSH2 0xE53 SWAP1 PUSH2 0x52C3 JUMP JUMPDEST DUP1 PUSH1 0x1F ADD PUSH1 0x20 DUP1 SWAP2 DIV MUL PUSH1 0x20 ADD PUSH1 0x40 MLOAD SWAP1 DUP2 ADD PUSH1 0x40 MSTORE DUP1 SWAP3 SWAP2 SWAP1 DUP2 DUP2 MSTORE PUSH1 0x20 ADD DUP3 DUP1 SLOAD PUSH2 0xE7F SWAP1 PUSH2 0x52C3 JUMP JUMPDEST DUP1 ISZERO PUSH2 0xECA JUMPI DUP1 PUSH1 0x1F LT PUSH2 0xEA1 JUMPI PUSH2 0x100 DUP1 DUP4 SLOAD DIV MUL DUP4 MSTORE SWAP2 PUSH1 0x20 ADD SWAP2 PUSH2 0xECA JUMP JUMPDEST DUP3 ADD SWAP2 SWAP1 PUSH0 MSTORE PUSH1 0x20 PUSH0 KECCAK256 SWAP1 JUMPDEST DUP2 SLOAD DUP2 MSTORE SWAP1 PUSH1 0x1 ADD SWAP1 PUSH1 0x20 ADD DUP1 DUP4 GT PUSH2 0xEAD JUMPI DUP3 SWAP1 SUB PUSH1 0x1F AND DUP3 ADD SWAP2 JUMPDEST POP POP POP POP POP DUP2 MSTORE PUSH1 0x20 ADD PUSH1 0x2 DUP3 ADD DUP1 SLOAD PUSH2 0xEE3 SWAP1 PUSH2 0x52C3 JUMP JUMPDEST DUP1 PUSH1 0x1F ADD PUSH1 0x20 DUP1 SWAP2 DIV MUL PUSH1 0x20 ADD PUSH1 0x40 MLOAD SWAP1 DUP2 ADD PUSH1 0x40 MSTORE DUP1 SWAP3 SWAP2 SWAP1 DUP2 DUP2 MSTORE PUSH1 0x20 ADD DUP3 DUP1 SLOAD PUSH2 0xF0F SWAP1 PUSH2 0x52C3 JUMP JUMPDEST DUP1 ISZERO PUSH2 0xF5A JUMPI DUP1 PUSH1 0x1F LT PUSH2 0xF31 JUMPI PUSH2 0x100 DUP1 DUP4 SLOAD DIV MUL DUP4 MSTORE SWAP2 PUSH1 0x20 ADD SWAP2 PUSH2 0xF5A JUMP JUMPDEST DUP3 ADD SWAP2 SWAP1 PUSH0 MSTORE PUSH1 0x20 PUSH0 KECCAK256 SWAP1 JUMPDEST DUP2 SLOAD DUP2 MSTORE SWAP1 PUSH1 0x1 ADD SWAP1 PUSH1 0x20 ADD DUP1 DUP4 GT PUSH2 0xF3D JUMPI DUP3 SWAP1 SUB PUSH1 0x1F AND DUP3 ADD SWAP2 JUMPDEST POP POP POP POP POP DUP2 MSTORE PUSH1 0x20 ADD PUSH1 0x3 DUP3 ADD DUP1 SLOAD PUSH2 0xF73 SWAP1 PUSH2 0x52C3 JUMP JUMPDEST DUP1 PUSH1 0x1F ADD PUSH1 0x20 DUP1 SWAP2 DIV MUL PUSH1 0x20 ADD PUSH1 0x40 MLOAD SWAP1 DUP2 ADD PUSH1 0x40 MSTORE DUP1 SWAP3 SWAP2 SWAP1 DUP2 DUP2 MSTORE PUSH1 0x20 ADD DUP3 DUP1 SLOAD PUSH2 0xF9F SWAP1 PUSH2 0x52C3 JUMP JUMPDEST DUP1 ISZERO PUSH2 0xFEA JUMPI DUP1 PUSH1 0x1F LT PUSH2 0xFC1 JUMPI PUSH2 0x100 DUP1 DUP4 SLOAD DIV MUL DUP4 MSTORE SWAP2 PUSH1 0x20 ADD SWAP2 PUSH2 0xFEA JUMP JUMPDEST DUP3 ADD SWAP2 SWAP1 PUSH0 MSTORE PUSH1 0x20 PUSH0 KECCAK256 SWAP1 JUMPDEST DUP2 SLOAD DUP2 MSTORE SWAP1 PUSH1 0x1 ADD SWAP1 PUSH1 0x20 ADD DUP1 DUP4 GT PUSH2 0xFCD JUMPI DUP3 SWAP1 SUB PUSH1 0x1F AND DUP3 ADD SWAP2 JUMPDEST POP POP POP POP POP DUP2 MSTORE PUSH1 0x20 ADD PUSH1 0x4 DUP3 ADD SLOAD DUP2 MSTORE PUSH1 0x20 ADD PUSH1 0x5 DUP3 ADD DUP1 SLOAD PUSH2 0x100D SWAP1 PUSH2 0x52C3 JUMP JUMPDEST DUP1 PUSH1 0x1F ADD PUSH1 0x20 DUP1 SWAP2 DIV MUL PUSH1 0x20 ADD PUSH1 0x40 MLOAD SWAP1 DUP2 ADD PUSH1 0x40 MSTORE DUP1 SWAP3 SWAP2 SWAP1 DUP2 DUP2 MSTORE PUSH1 0x20 ADD DUP3 DUP1 SLOAD PUSH2 0x1039 SWAP1 PUSH2 0x52C3 JUMP JUMPDEST DUP1 ISZERO PUSH2 0x1084 JUMPI DUP1 PUSH1 0x1F LT PUSH2 0x105B JUMPI PUSH2 0x100 DUP1 DUP4 SLOAD DIV MUL DUP4 MSTORE SWAP2 PUSH1 0x20 ADD SWAP2 PUSH2 0x1084 JUMP JUMPDEST DUP3 ADD SWAP2 SWAP1 PUSH0 MSTORE PUSH1 0x20 PUSH0 KECCAK256 SWAP1 JUMPDEST DUP2 SLOAD DUP2 MSTORE SWAP1 PUSH1 0x1 ADD SWAP1 PUSH1 0x20 ADD DUP1 DUP4 GT PUSH2 0x1067 JUMPI DUP3 SWAP1 SUB PUSH1 0x1F AND DUP3 ADD SWAP2 JUMPDEST POP POP POP POP POP DUP2 MSTORE PUSH1 0x20 ADD PUSH1 0x6 DUP3 ADD PUSH0 SWAP1 SLOAD SWAP1 PUSH2 0x100 EXP SWAP1 DIV PUSH20 0xFFFFFFFFFFFFFFFFFFFFFFFFFFFFFFFFFFFFFFFF AND PUSH20 0xFFFFFFFFFFFFFFFFFFFFFFFFFFFFFFFFFFFFFFFF AND PUSH20 0xFFFFFFFFFFFFFFFFFFFFFFFFFFFFFFFFFFFFFFFF AND DUP2 MSTORE PUSH1 0x20 ADD PUSH1 0x7 DUP3 ADD SLOAD DUP2 MSTORE PUSH1 0x20 ADD PUSH1 0x8 DUP3 ADD DUP1 SLOAD PUSH2 0x10FC SWAP1 PUSH2 0x52C3 JUMP JUMPDEST DUP1 PUSH1 0x1F ADD PUSH1 0x20 DUP1 SWAP2 DIV MUL PUSH1 0x20 ADD PUSH1 0x40 MLOAD SWAP1 DUP2 ADD PUSH1 0x40 MSTORE DUP1 SWAP3 SWAP2 SWAP1 DUP2 DUP2 MSTORE PUSH1 0x20 ADD DUP3 DUP1 SLOAD PUSH2 0x1128 SWAP1 PUSH2 0x52C3 JUMP JUMPDEST DUP1 ISZERO PUSH2 0x1173 JUMPI DUP1 PUSH1 0x1F LT PUSH2 0x114A JUMPI PUSH2 0x100 DUP1 DUP4 SLOAD DIV MUL DUP4 MSTORE SWAP2 PUSH1 0x20 ADD SWAP2 PUSH2 0x1173 JUMP JUMPDEST DUP3 ADD SWAP2 SWAP1 PUSH0 MSTORE PUSH1 0x20 PUSH0 KECCAK256 SWAP1 JUMPDEST DUP2 SLOAD DUP2 MSTORE SWAP1 PUSH1 0x1 ADD SWAP1 PUSH1 0x20 ADD DUP1 DUP4 GT PUSH2 0x1156 JUMPI DUP3 SWAP1 SUB PUSH1 0x1F AND DUP3 ADD SWAP2 JUMPDEST POP POP POP POP POP DUP2 MSTORE PUSH1 0x20 ADD PUSH1 0x9 DUP3 ADD DUP1 SLOAD PUSH2 0x118C SWAP1 PUSH2 0x52C3 JUMP JUMPDEST DUP1 PUSH1 0x1F ADD PUSH1 0x20 DUP1 SWAP2 DIV MUL PUSH1 0x20 ADD PUSH1 0x40 MLOAD SWAP1 DUP2 ADD PUSH1 0x40 MSTORE DUP1 SWAP3 SWAP2 SWAP1 DUP2 DUP2 MSTORE PUSH1 0x20 ADD DUP3 DUP1 SLOAD PUSH2 0x11B8 SWAP1 PUSH2 0x52C3 JUMP JUMPDEST DUP1 ISZERO PUSH2 0x1203 JUMPI DUP1 PUSH1 0x1F LT PUSH2 0x11DA JUMPI PUSH2 0x100 DUP1 DUP4 SLOAD DIV MUL DUP4 MSTORE SWAP2 PUSH1 0x20 ADD SWAP2 PUSH2 0x1203 JUMP JUMPDEST DUP3 ADD SWAP2 SWAP1 PUSH0 MSTORE PUSH1 0x20 PUSH0 KECCAK256 SWAP1 JUMPDEST DUP2 SLOAD DUP2 MSTORE SWAP1 PUSH1 0x1 ADD SWAP1 PUSH1 0x20 ADD DUP1 DUP4 GT PUSH2 0x11E6 JUMPI DUP3 SWAP1 SUB PUSH1 0x1F AND DUP3 ADD SWAP2 JUMPDEST POP POP POP POP POP DUP2 MSTORE PUSH1 0x20 ADD PUSH1 0xA DUP3 ADD SLOAD DUP2 MSTORE POP POP DUP2 MSTORE PUSH1 0x20 ADD SWAP1 PUSH1 0x1 ADD SWAP1 PUSH2 0xD92 JUMP JUMPDEST POP POP POP POP SWAP1 POP SWAP1 JUMP JUMPDEST PUSH1 0xB PUSH1 0x20 MSTORE DUP1 PUSH0 MSTORE PUSH1 0x40 PUSH0 KECCAK256 PUSH0 SWAP2 POP SWAP1 POP DUP1 PUSH0 ADD DUP1 SLOAD PUSH2 0x124D SWAP1 PUSH2 0x52C3 JUMP JUMPDEST DUP1 PUSH1 0x1F ADD PUSH1 0x20 DUP1 SWAP2 DIV MUL PUSH1 0x20 ADD PUSH1 0x40 MLOAD SWAP1 DUP2 ADD PUSH1 0x40 MSTORE DUP1 SWAP3 SWAP2 SWAP1 DUP2 DUP2 MSTORE PUSH1 0x20 ADD DUP3 DUP1 SLOAD PUSH2 0x1279 SWAP1 PUSH2 0x52C3 JUMP JUMPDEST DUP1 ISZERO PUSH2 0x12C4 JUMPI DUP1 PUSH1 0x1F LT PUSH2 0x129B JUMPI PUSH2 0x100 DUP1 DUP4 SLOAD DIV MUL DUP4 MSTORE SWAP2 PUSH1 0x20 ADD SWAP2 PUSH2 0x12C4 JUMP JUMPDEST DUP3 ADD SWAP2 SWAP1 PUSH0 MSTORE PUSH1 0x20 PUSH0 KECCAK256 SWAP1 JUMPDEST DUP2 SLOAD DUP2 MSTORE SWAP1 PUSH1 0x1 ADD SWAP1 PUSH1 0x20 ADD DUP1 DUP4 GT PUSH2 0x12A7 JUMPI DUP3 SWAP1 SUB PUSH1 0x1F AND DUP3 ADD SWAP2 JUMPDEST POP POP POP POP POP SWAP1 DUP1 PUSH1 0x1 ADD DUP1 SLOAD PUSH2 0x12D9 SWAP1 PUSH2 0x52C3 JUMP JUMPDEST DUP1 PUSH1 0x1F ADD PUSH1 0x20 DUP1 SWAP2 DIV MUL PUSH1 0x20 ADD PUSH1 0x40 MLOAD SWAP1 DUP2 ADD PUSH1 0x40 MSTORE DUP1 SWAP3 SWAP2 SWAP1 DUP2 DUP2 MSTORE PUSH1 0x20 ADD DUP3 DUP1 SLOAD PUSH2 0x1305 SWAP1 PUSH2 0x52C3 JUMP JUMPDEST DUP1 ISZERO PUSH2 0x1350 JUMPI DUP1 PUSH1 0x1F LT PUSH2 0x1327 JUMPI PUSH2 0x100 DUP1 DUP4 SLOAD DIV MUL DUP4 MSTORE SWAP2 PUSH1 0x20 ADD SWAP2 PUSH2 0x1350 JUMP JUMPDEST DUP3 ADD SWAP2 SWAP1 PUSH0 MSTORE PUSH1 0x20 PUSH0 KECCAK256 SWAP1 JUMPDEST DUP2 SLOAD DUP2 MSTORE SWAP1 PUSH1 0x1 ADD SWAP1 PUSH1 0x20 ADD DUP1 DUP4 GT PUSH2 0x1333 JUMPI DUP3 SWAP1 SUB PUSH1 0x1F AND DUP3 ADD SWAP2 JUMPDEST POP POP POP POP POP SWAP1 DUP1 PUSH1 0x2 ADD PUSH0 SWAP1 SLOAD SWAP1 PUSH2 0x100 EXP SWAP1 DIV PUSH20 0xFFFFFFFFFFFFFFFFFFFFFFFFFFFFFFFFFFFFFFFF AND SWAP1 DUP1 PUSH1 0x3 ADD SLOAD SWAP1 DUP1 PUSH1 0x4 ADD SLOAD SWAP1 DUP1 PUSH1 0x5 ADD SLOAD SWAP1 DUP1 PUSH1 0x6 ADD SLOAD SWAP1 POP DUP8 JUMP JUMPDEST PUSH2 0x139F PUSH2 0x434A JUMP JUMPDEST PUSH0 PUSH1 0xE DUP4 PUSH1 0x40 MLOAD PUSH2 0x13B0 SWAP2 SWAP1 PUSH2 0x532D JUMP JUMPDEST SWAP1 DUP2 MSTORE PUSH1 0x20 ADD PUSH1 0x40 MLOAD DUP1 SWAP2 SUB SWAP1 KECCAK256 SWAP1 POP DUP1 PUSH1 0x40 MLOAD DUP1 PUSH1 0x40 ADD PUSH1 0x40 MSTORE SWAP1 DUP2 PUSH0 DUP3 ADD DUP1 SLOAD PUSH2 0x13DB SWAP1 PUSH2 0x52C3 JUMP JUMPDEST DUP1 PUSH1 0x1F ADD PUSH1 0x20 DUP1 SWAP2 DIV MUL PUSH1 0x20 ADD PUSH1 0x40 MLOAD SWAP1 DUP2 ADD PUSH1 0x40 MSTORE DUP1 SWAP3 SWAP2 SWAP1 DUP2 DUP2 MSTORE PUSH1 0x20 ADD DUP3 DUP1 SLOAD PUSH2 0x1407 SWAP1 PUSH2 0x52C3 JUMP JUMPDEST DUP1 ISZERO PUSH2 0x1452 JUMPI DUP1 PUSH1 0x1F LT PUSH2 0x1429 JUMPI PUSH2 0x100 DUP1 DUP4 SLOAD DIV MUL DUP4 MSTORE SWAP2 PUSH1 0x20 ADD SWAP2 PUSH2 0x1452 JUMP JUMPDEST DUP3 ADD SWAP2 SWAP1 PUSH0 MSTORE PUSH1 0x20 PUSH0 KECCAK256 SWAP1 JUMPDEST DUP2 SLOAD DUP2 MSTORE SWAP1 PUSH1 0x1 ADD SWAP1 PUSH1 0x20 ADD DUP1 DUP4 GT PUSH2 0x1435 JUMPI DUP3 SWAP1 SUB PUSH1 0x1F AND DUP3 ADD SWAP2 JUMPDEST POP POP POP POP POP DUP2 MSTORE PUSH1 0x20 ADD PUSH1 0x1 DUP3 ADD DUP1 SLOAD DUP1 PUSH1 0x20 MUL PUSH1 0x20 ADD PUSH1 0x40 MLOAD SWAP1 DUP2 ADD PUSH1 0x40 MSTORE DUP1 SWAP3 SWAP2 SWAP1 DUP2 DUP2 MSTORE PUSH1 0x20 ADD PUSH0 SWAP1 JUMPDEST DUP3 DUP3 LT ISZERO PUSH2 0x164B JUMPI DUP4 DUP3 SWAP1 PUSH0 MSTORE PUSH1 0x20 PUSH0 KECCAK256 SWAP1 PUSH1 0x7 MUL ADD PUSH1 0x40 MLOAD DUP1 PUSH1 0xE0 ADD PUSH1 0x40 MSTORE SWAP1 DUP2 PUSH0 DUP3 ADD DUP1 SLOAD PUSH2 0x14AF SWAP1 PUSH2 0x52C3 JUMP JUMPDEST DUP1 PUSH1 0x1F ADD PUSH1 0x20 DUP1 SWAP2 DIV MUL PUSH1 0x20 ADD PUSH1 0x40 MLOAD SWAP1 DUP2 ADD PUSH1 0x40 MSTORE DUP1 SWAP3 SWAP2 SWAP1 DUP2 DUP2 MSTORE PUSH1 0x20 ADD DUP3 DUP1 SLOAD PUSH2 0x14DB SWAP1 PUSH2 0x52C3 JUMP JUMPDEST DUP1 ISZERO PUSH2 0x1526 JUMPI DUP1 PUSH1 0x1F LT PUSH2 0x14FD JUMPI PUSH2 0x100 DUP1 DUP4 SLOAD DIV MUL DUP4 MSTORE SWAP2 PUSH1 0x20 ADD SWAP2 PUSH2 0x1526 JUMP JUMPDEST DUP3 ADD SWAP2 SWAP1 PUSH0 MSTORE PUSH1 0x20 PUSH0 KECCAK256 SWAP1 JUMPDEST DUP2 SLOAD DUP2 MSTORE SWAP1 PUSH1 0x1 ADD SWAP1 PUSH1 0x20 ADD DUP1 DUP4 GT PUSH2 0x1509 JUMPI DUP3 SWAP1 SUB PUSH1 0x1F AND DUP3 ADD SWAP2 JUMPDEST POP POP POP POP POP DUP2 MSTORE PUSH1 0x20 ADD PUSH1 0x1 DUP3 ADD DUP1 SLOAD PUSH2 0x153F SWAP1 PUSH2 0x52C3 JUMP JUMPDEST DUP1 PUSH1 0x1F ADD PUSH1 0x20 DUP1 SWAP2 DIV MUL PUSH1 0x20 ADD PUSH1 0x40 MLOAD SWAP1 DUP2 ADD PUSH1 0x40 MSTORE DUP1 SWAP3 SWAP2 SWAP1 DUP2 DUP2 MSTORE PUSH1 0x20 ADD DUP3 DUP1 SLOAD PUSH2 0x156B SWAP1 PUSH2 0x52C3 JUMP JUMPDEST DUP1 ISZERO PUSH2 0x15B6 JUMPI DUP1 PUSH1 0x1F LT PUSH2 0x158D JUMPI PUSH2 0x100 DUP1 DUP4 SLOAD DIV MUL DUP4 MSTORE SWAP2 PUSH1 0x20 ADD SWAP2 PUSH2 0x15B6 JUMP JUMPDEST DUP3 ADD SWAP2 SWAP1 PUSH0 MSTORE PUSH1 0x20 PUSH0 KECCAK256 SWAP1 JUMPDEST DUP2 SLOAD DUP2 MSTORE SWAP1 PUSH1 0x1 ADD SWAP1 PUSH1 0x20 ADD DUP1 DUP4 GT PUSH2 0x1599 JUMPI DUP3 SWAP1 SUB PUSH1 0x1F AND DUP3 ADD SWAP2 JUMPDEST POP POP POP POP POP DUP2 MSTORE PUSH1 0x20 ADD PUSH1 0x2 DUP3 ADD PUSH0 SWAP1 SLOAD SWAP1 PUSH2 0x100 EXP SWAP1 DIV PUSH20 0xFFFFFFFFFFFFFFFFFFFFFFFFFFFFFFFFFFFFFFFF AND PUSH20 0xFFFFFFFFFFFFFFFFFFFFFFFFFFFFFFFFFFFFFFFF AND PUSH20 0xFFFFFFFFFFFFFFFFFFFFFFFFFFFFFFFFFFFFFFFF AND DUP2 MSTORE PUSH1 0x20 ADD PUSH1 0x3 DUP3 ADD SLOAD DUP2 MSTORE PUSH1 0x20 ADD PUSH1 0x4 DUP3 ADD SLOAD DUP2 MSTORE PUSH1 0x20 ADD PUSH1 0x5 DUP3 ADD SLOAD DUP2 MSTORE PUSH1 0x20 ADD PUSH1 0x6 DUP3 ADD SLOAD DUP2 MSTORE POP POP DUP2 MSTORE PUSH1 0x20 ADD SWAP1 PUSH1 0x1 ADD SWAP1 PUSH2 0x147F JUMP JUMPDEST POP POP POP POP DUP2 MSTORE POP POP SWAP2 POP POP SWAP2 SWAP1 POP JUMP JUMPDEST PUSH0 DUP1 PUSH0 SWAP1 SLOAD SWAP1 PUSH2 0x100 EXP SWAP1 DIV PUSH20 0xFFFFFFFFFFFFFFFFFFFFFFFFFFFFFFFFFFFFFFFF AND PUSH20 0xFFFFFFFFFFFFFFFFFFFFFFFFFFFFFFFFFFFFFFFF AND CALLER PUSH20 0xFFFFFFFFFFFFFFFFFFFFFFFFFFFFFFFFFFFFFFFF AND EQ PUSH2 0x16B3 JUMPI PUSH0 DUP1 REVERT JUMPDEST PUSH1 0x1 SWAP1 POP SWAP1 JUMP JUMPDEST PUSH0 DUP1 PUSH1 0xC DUP4 PUSH1 0x40 MLOAD PUSH2 0x16CC SWAP2 SWAP1 PUSH2 0x532D JUMP JUMPDEST SWAP1 DUP2 MSTORE PUSH1 0x20 ADD PUSH1 0x40 MLOAD DUP1 SWAP2 SUB SWAP1 KECCAK256 SWAP1 POP PUSH0 DUP2 PUSH1 0x8 ADD SWAP1 POP PUSH0 DUP3 PUSH1 0x9 ADD SWAP1 POP PUSH0 PUSH2 0x16F4 DUP7 PUSH2 0x2BF1 JUMP JUMPDEST SWAP1 POP PUSH1 0x1 DUP2 SUB PUSH2 0x1D5B JUMPI PUSH0 PUSH1 0xE DUP8 PUSH1 0x40 MLOAD PUSH2 0x170F SWAP2 SWAP1 PUSH2 0x532D JUMP JUMPDEST SWAP1 DUP2 MSTORE PUSH1 0x20 ADD PUSH1 0x40 MLOAD DUP1 SWAP2 SUB SWAP1 KECCAK256 SWAP1 POP PUSH0 PUSH1 0xB PUSH0 CALLER PUSH20 0xFFFFFFFFFFFFFFFFFFFFFFFFFFFFFFFFFFFFFFFF AND PUSH20 0xFFFFFFFFFFFFFFFFFFFFFFFFFFFFFFFFFFFFFFFF AND DUP2 MSTORE PUSH1 0x20 ADD SWAP1 DUP2 MSTORE PUSH1 0x20 ADD PUSH0 KECCAK256 SWAP1 POP DUP2 PUSH1 0x1 ADD DUP2 SWAP1 DUP1 PUSH1 0x1 DUP2 SLOAD ADD DUP1 DUP3 SSTORE DUP1 SWAP2 POP POP PUSH1 0x1 SWAP1 SUB SWAP1 PUSH0 MSTORE PUSH1 0x20 PUSH0 KECCAK256 SWAP1 PUSH1 0x7 MUL ADD PUSH0 SWAP1 SWAP2 SWAP1 SWAP2 SWAP1 SWAP2 POP PUSH0 DUP3 ADD DUP2 PUSH0 ADD SWAP1 DUP2 PUSH2 0x179C SWAP2 SWAP1 PUSH2 0x54F5 JUMP JUMPDEST POP PUSH1 0x1 DUP3 ADD DUP2 PUSH1 0x1 ADD SWAP1 DUP2 PUSH2 0x17B1 SWAP2 SWAP1 PUSH2 0x54F5 JUMP JUMPDEST POP PUSH1 0x2 DUP3 ADD PUSH0 SWAP1 SLOAD SWAP1 PUSH2 0x100 EXP SWAP1 DIV PUSH20 0xFFFFFFFFFFFFFFFFFFFFFFFFFFFFFFFFFFFFFFFF AND DUP2 PUSH1 0x2 ADD PUSH0 PUSH2 0x100 EXP DUP2 SLOAD DUP2 PUSH20 0xFFFFFFFFFFFFFFFFFFFFFFFFFFFFFFFFFFFFFFFF MUL NOT AND SWAP1 DUP4 PUSH20 0xFFFFFFFFFFFFFFFFFFFFFFFFFFFFFFFFFFFFFFFF AND MUL OR SWAP1 SSTORE POP PUSH1 0x3 DUP3 ADD SLOAD DUP2 PUSH1 0x3 ADD SSTORE PUSH1 0x4 DUP3 ADD SLOAD DUP2 PUSH1 0x4 ADD SSTORE PUSH1 0x5 DUP3 ADD SLOAD DUP2 PUSH1 0x5 ADD SSTORE PUSH1 0x6 DUP3 ADD SLOAD DUP2 PUSH1 0x6 ADD SSTORE POP POP PUSH1 0x1 DUP2 PUSH1 0x4 ADD SLOAD PUSH2 0x1852 SWAP2 SWAP1 PUSH2 0x5607 JUMP JUMPDEST DUP2 PUSH1 0x4 ADD DUP2 SWAP1 SSTORE POP PUSH0 PUSH1 0xD DUP10 PUSH1 0x40 MLOAD PUSH2 0x186B SWAP2 SWAP1 PUSH2 0x532D JUMP JUMPDEST SWAP1 DUP2 MSTORE PUSH1 0x20 ADD PUSH1 0x40 MLOAD DUP1 SWAP2 SUB SWAP1 KECCAK256 SWAP1 POP PUSH2 0x1993 DUP7 DUP1 SLOAD PUSH2 0x188A SWAP1 PUSH2 0x52C3 JUMP JUMPDEST DUP1 PUSH1 0x1F ADD PUSH1 0x20 DUP1 SWAP2 DIV MUL PUSH1 0x20 ADD PUSH1 0x40 MLOAD SWAP1 DUP2 ADD PUSH1 0x40 MSTORE DUP1 SWAP3 SWAP2 SWAP1 DUP2 DUP2 MSTORE PUSH1 0x20 ADD DUP3 DUP1 SLOAD PUSH2 0x18B6 SWAP1 PUSH2 0x52C3 JUMP JUMPDEST DUP1 ISZERO PUSH2 0x1901 JUMPI DUP1 PUSH1 0x1F LT PUSH2 0x18D8 JUMPI PUSH2 0x100 DUP1 DUP4 SLOAD DIV MUL DUP4 MSTORE SWAP2 PUSH1 0x20 ADD SWAP2 PUSH2 0x1901 JUMP JUMPDEST DUP3 ADD SWAP2 SWAP1 PUSH0 MSTORE PUSH1 0x20 PUSH0 KECCAK256 SWAP1 JUMPDEST DUP2 SLOAD DUP2 MSTORE SWAP1 PUSH1 0x1 ADD SWAP1 PUSH1 0x20 ADD DUP1 DUP4 GT PUSH2 0x18E4 JUMPI DUP3 SWAP1 SUB PUSH1 0x1F AND DUP3 ADD SWAP2 JUMPDEST POP POP POP POP POP DUP7 DUP1 SLOAD PUSH2 0x1912 SWAP1 PUSH2 0x52C3 JUMP JUMPDEST DUP1 PUSH1 0x1F ADD PUSH1 0x20 DUP1 SWAP2 DIV MUL PUSH1 0x20 ADD PUSH1 0x40 MLOAD SWAP1 DUP2 ADD PUSH1 0x40 MSTORE DUP1 SWAP3 SWAP2 SWAP1 DUP2 DUP2 MSTORE PUSH1 0x20 ADD DUP3 DUP1 SLOAD PUSH2 0x193E SWAP1 PUSH2 0x52C3 JUMP JUMPDEST DUP1 ISZERO PUSH2 0x1989 JUMPI DUP1 PUSH1 0x1F LT PUSH2 0x1960 JUMPI PUSH2 0x100 DUP1 DUP4 SLOAD DIV MUL DUP4 MSTORE SWAP2 PUSH1 0x20 ADD SWAP2 PUSH2 0x1989 JUMP JUMPDEST DUP3 ADD SWAP2 SWAP1 PUSH0 MSTORE PUSH1 0x20 PUSH0 KECCAK256 SWAP1 JUMPDEST DUP2 SLOAD DUP2 MSTORE SWAP1 PUSH1 0x1 ADD SWAP1 PUSH1 0x20 ADD DUP1 DUP4 GT PUSH2 0x196C JUMPI DUP3 SWAP1 SUB PUSH1 0x1F AND DUP3 ADD SWAP2 JUMPDEST POP POP POP POP POP PUSH2 0x3D69 JUMP JUMPDEST ISZERO PUSH2 0x1B31 JUMPI PUSH1 0x40 MLOAD DUP1 PUSH1 0x40 ADD PUSH1 0x40 MSTORE DUP1 PUSH1 0x8 DUP2 MSTORE PUSH1 0x20 ADD PUSH32 0x415050524F564544000000000000000000000000000000000000000000000000 DUP2 MSTORE POP DUP8 PUSH1 0x5 ADD SWAP1 DUP2 PUSH2 0x19DE SWAP2 SWAP1 PUSH2 0x563A JUMP JUMPDEST POP PUSH1 0x40 MLOAD DUP1 PUSH1 0x40 ADD PUSH1 0x40 MSTORE DUP1 PUSH1 0x15 DUP2 MSTORE PUSH1 0x20 ADD PUSH32 0x5472616E73616374696F6E20436F6D706C657465640000000000000000000000 DUP2 MSTORE POP DUP2 PUSH0 ADD SWAP1 DUP2 PUSH2 0x1A24 SWAP2 SWAP1 PUSH2 0x563A JUMP JUMPDEST POP DUP9 PUSH1 0x40 MLOAD PUSH1 0x20 ADD PUSH2 0x1A36 SWAP2 SWAP1 PUSH2 0x57E9 JUMP JUMPDEST PUSH1 0x40 MLOAD PUSH1 0x20 DUP2 DUP4 SUB SUB DUP2 MSTORE SWAP1 PUSH1 0x40 MSTORE DUP2 PUSH1 0x1 ADD SWAP1 DUP2 PUSH2 0x1A55 SWAP2 SWAP1 PUSH2 0x563A JUMP JUMPDEST POP DUP9 DUP2 PUSH1 0x2 ADD SWAP1 DUP2 PUSH2 0x1A67 SWAP2 SWAP1 PUSH2 0x563A JUMP JUMPDEST POP PUSH1 0x40 MLOAD DUP1 PUSH1 0x40 ADD PUSH1 0x40 MSTORE DUP1 PUSH1 0x8 DUP2 MSTORE PUSH1 0x20 ADD PUSH32 0x415050524F564544000000000000000000000000000000000000000000000000 DUP2 MSTORE POP DUP2 PUSH1 0x3 ADD SWAP1 DUP2 PUSH2 0x1AAE SWAP2 SWAP1 PUSH2 0x563A JUMP JUMPDEST POP PUSH1 0x7 DUP2 SWAP1 DUP1 PUSH1 0x1 DUP2 SLOAD ADD DUP1 DUP3 SSTORE DUP1 SWAP2 POP POP PUSH1 0x1 SWAP1 SUB SWAP1 PUSH0 MSTORE PUSH1 0x20 PUSH0 KECCAK256 SWAP1 PUSH1 0x4 MUL ADD PUSH0 SWAP1 SWAP2 SWAP1 SWAP2 SWAP1 SWAP2 POP PUSH0 DUP3 ADD DUP2 PUSH0 ADD SWAP1 DUP2 PUSH2 0x1AEA SWAP2 SWAP1 PUSH2 0x54F5 JUMP JUMPDEST POP PUSH1 0x1 DUP3 ADD DUP2 PUSH1 0x1 ADD SWAP1 DUP2 PUSH2 0x1AFF SWAP2 SWAP1 PUSH2 0x54F5 JUMP JUMPDEST POP PUSH1 0x2 DUP3 ADD DUP2 PUSH1 0x2 ADD SWAP1 DUP2 PUSH2 0x1B14 SWAP2 SWAP1 PUSH2 0x54F5 JUMP JUMPDEST POP PUSH1 0x3 DUP3 ADD DUP2 PUSH1 0x3 ADD SWAP1 DUP2 PUSH2 0x1B29 SWAP2 SWAP1 PUSH2 0x54F5 JUMP JUMPDEST POP POP POP PUSH2 0x1D4C JUMP JUMPDEST PUSH0 PUSH1 0xA DUP8 PUSH1 0x40 MLOAD PUSH2 0x1B42 SWAP2 SWAP1 PUSH2 0x58A7 JUMP JUMPDEST SWAP1 DUP2 MSTORE PUSH1 0x20 ADD PUSH1 0x40 MLOAD DUP1 SWAP2 SUB SWAP1 KECCAK256 SWAP1 POP PUSH0 DUP2 PUSH1 0x2 ADD SWAP1 POP PUSH2 0x1BE9 DUP9 DUP1 SLOAD PUSH2 0x1B68 SWAP1 PUSH2 0x52C3 JUMP JUMPDEST DUP1 PUSH1 0x1F ADD PUSH1 0x20 DUP1 SWAP2 DIV MUL PUSH1 0x20 ADD PUSH1 0x40 MLOAD SWAP1 DUP2 ADD PUSH1 0x40 MSTORE DUP1 SWAP3 SWAP2 SWAP1 DUP2 DUP2 MSTORE PUSH1 0x20 ADD DUP3 DUP1 SLOAD PUSH2 0x1B94 SWAP1 PUSH2 0x52C3 JUMP JUMPDEST DUP1 ISZERO PUSH2 0x1BDF JUMPI DUP1 PUSH1 0x1F LT PUSH2 0x1BB6 JUMPI PUSH2 0x100 DUP1 DUP4 SLOAD DIV MUL DUP4 MSTORE SWAP2 PUSH1 0x20 ADD SWAP2 PUSH2 0x1BDF JUMP JUMPDEST DUP3 ADD SWAP2 SWAP1 PUSH0 MSTORE PUSH1 0x20 PUSH0 KECCAK256 SWAP1 JUMPDEST DUP2 SLOAD DUP2 MSTORE SWAP1 PUSH1 0x1 ADD SWAP1 PUSH1 0x20 ADD DUP1 DUP4 GT PUSH2 0x1BC2 JUMPI DUP3 SWAP1 SUB PUSH1 0x1F AND DUP3 ADD SWAP2 JUMPDEST POP POP POP POP POP PUSH2 0x3DC1 JUMP JUMPDEST DUP10 PUSH1 0x8 ADD SWAP1 DUP2 PUSH2 0x1BF9 SWAP2 SWAP1 PUSH2 0x563A JUMP JUMPDEST POP PUSH1 0x40 MLOAD DUP1 PUSH1 0x40 ADD PUSH1 0x40 MSTORE DUP1 PUSH1 0x14 DUP2 MSTORE PUSH1 0x20 ADD PUSH32 0x5472616E73616374696F6E20417070726F766564000000000000000000000000 DUP2 MSTORE POP DUP4 PUSH0 ADD SWAP1 DUP2 PUSH2 0x1C3F SWAP2 SWAP1 PUSH2 0x563A JUMP JUMPDEST POP DUP11 DUP2 PUSH1 0x40 MLOAD PUSH1 0x20 ADD PUSH2 0x1C53 SWAP3 SWAP2 SWAP1 PUSH2 0x5907 JUMP JUMPDEST PUSH1 0x40 MLOAD PUSH1 0x20 DUP2 DUP4 SUB SUB DUP2 MSTORE SWAP1 PUSH1 0x40 MSTORE DUP4 PUSH1 0x1 ADD SWAP1 DUP2 PUSH2 0x1C72 SWAP2 SWAP1 PUSH2 0x563A JUMP JUMPDEST POP DUP11 DUP4 PUSH1 0x2 ADD SWAP1 DUP2 PUSH2 0x1C84 SWAP2 SWAP1 PUSH2 0x563A JUMP JUMPDEST POP PUSH1 0x40 MLOAD DUP1 PUSH1 0x40 ADD PUSH1 0x40 MSTORE DUP1 PUSH1 0x8 DUP2 MSTORE PUSH1 0x20 ADD PUSH32 0x415050524F564544000000000000000000000000000000000000000000000000 DUP2 MSTORE POP DUP4 PUSH1 0x3 ADD SWAP1 DUP2 PUSH2 0x1CCB SWAP2 SWAP1 PUSH2 0x563A JUMP JUMPDEST POP PUSH1 0x7 DUP4 SWAP1 DUP1 PUSH1 0x1 DUP2 SLOAD ADD DUP1 DUP3 SSTORE DUP1 SWAP2 POP POP PUSH1 0x1 SWAP1 SUB SWAP1 PUSH0 MSTORE PUSH1 0x20 PUSH0 KECCAK256 SWAP1 PUSH1 0x4 MUL ADD PUSH0 SWAP1 SWAP2 SWAP1 SWAP2 SWAP1 SWAP2 POP PUSH0 DUP3 ADD DUP2 PUSH0 ADD SWAP1 DUP2 PUSH2 0x1D07 SWAP2 SWAP1 PUSH2 0x54F5 JUMP JUMPDEST POP PUSH1 0x1 DUP3 ADD DUP2 PUSH1 0x1 ADD SWAP1 DUP2 PUSH2 0x1D1C SWAP2 SWAP1 PUSH2 0x54F5 JUMP JUMPDEST POP PUSH1 0x2 DUP3 ADD DUP2 PUSH1 0x2 ADD SWAP1 DUP2 PUSH2 0x1D31 SWAP2 SWAP1 PUSH2 0x54F5 JUMP JUMPDEST POP PUSH1 0x3 DUP3 ADD DUP2 PUSH1 0x3 ADD SWAP1 DUP2 PUSH2 0x1D46 SWAP2 SWAP1 PUSH2 0x54F5 JUMP JUMPDEST POP POP POP POP POP JUMPDEST DUP4 SWAP8 POP POP POP POP POP POP POP POP PUSH2 0x1D63 JUMP JUMPDEST DUP1 SWAP5 POP POP POP POP POP JUMPDEST SWAP2 SWAP1 POP JUMP JUMPDEST PUSH1 0x7 DUP2 DUP2 SLOAD DUP2 LT PUSH2 0x1D77 JUMPI PUSH0 DUP1 REVERT JUMPDEST SWAP1 PUSH0 MSTORE PUSH1 0x20 PUSH0 KECCAK256 SWAP1 PUSH1 0x4 MUL ADD PUSH0 SWAP2 POP SWAP1 POP DUP1 PUSH0 ADD DUP1 SLOAD PUSH2 0x1D96 SWAP1 PUSH2 0x52C3 JUMP JUMPDEST DUP1 PUSH1 0x1F ADD PUSH1 0x20 DUP1 SWAP2 DIV MUL PUSH1 0x20 ADD PUSH1 0x40 MLOAD SWAP1 DUP2 ADD PUSH1 0x40 MSTORE DUP1 SWAP3 SWAP2 SWAP1 DUP2 DUP2 MSTORE PUSH1 0x20 ADD DUP3 DUP1 SLOAD PUSH2 0x1DC2 SWAP1 PUSH2 0x52C3 JUMP JUMPDEST DUP1 ISZERO PUSH2 0x1E0D JUMPI DUP1 PUSH1 0x1F LT PUSH2 0x1DE4 JUMPI PUSH2 0x100 DUP1 DUP4 SLOAD DIV MUL DUP4 MSTORE SWAP2 PUSH1 0x20 ADD SWAP2 PUSH2 0x1E0D JUMP JUMPDEST DUP3 ADD SWAP2 SWAP1 PUSH0 MSTORE PUSH1 0x20 PUSH0 KECCAK256 SWAP1 JUMPDEST DUP2 SLOAD DUP2 MSTORE SWAP1 PUSH1 0x1 ADD SWAP1 PUSH1 0x20 ADD DUP1 DUP4 GT PUSH2 0x1DF0 JUMPI DUP3 SWAP1 SUB PUSH1 0x1F AND DUP3 ADD SWAP2 JUMPDEST POP POP POP POP POP SWAP1 DUP1 PUSH1 0x1 ADD DUP1 SLOAD PUSH2 0x1E22 SWAP1 PUSH2 0x52C3 JUMP JUMPDEST DUP1 PUSH1 0x1F ADD PUSH1 0x20 DUP1 SWAP2 DIV MUL PUSH1 0x20 ADD PUSH1 0x40 MLOAD SWAP1 DUP2 ADD PUSH1 0x40 MSTORE DUP1 SWAP3 SWAP2 SWAP1 DUP2 DUP2 MSTORE PUSH1 0x20 ADD DUP3 DUP1 SLOAD PUSH2 0x1E4E SWAP1 PUSH2 0x52C3 JUMP JUMPDEST DUP1 ISZERO PUSH2 0x1E99 JUMPI DUP1 PUSH1 0x1F LT PUSH2 0x1E70 JUMPI PUSH2 0x100 DUP1 DUP4 SLOAD DIV MUL DUP4 MSTORE SWAP2 PUSH1 0x20 ADD SWAP2 PUSH2 0x1E99 JUMP JUMPDEST DUP3 ADD SWAP2 SWAP1 PUSH0 MSTORE PUSH1 0x20 PUSH0 KECCAK256 SWAP1 JUMPDEST DUP2 SLOAD DUP2 MSTORE SWAP1 PUSH1 0x1 ADD SWAP1 PUSH1 0x20 ADD DUP1 DUP4 GT PUSH2 0x1E7C JUMPI DUP3 SWAP1 SUB PUSH1 0x1F AND DUP3 ADD SWAP2 JUMPDEST POP POP POP POP POP SWAP1 DUP1 PUSH1 0x2 ADD DUP1 SLOAD PUSH2 0x1EAE SWAP1 PUSH2 0x52C3 JUMP JUMPDEST DUP1 PUSH1 0x1F ADD PUSH1 0x20 DUP1 SWAP2 DIV MUL PUSH1 0x20 ADD PUSH1 0x40 MLOAD SWAP1 DUP2 ADD PUSH1 0x40 MSTORE DUP1 SWAP3 SWAP2 SWAP1 DUP2 DUP2 MSTORE PUSH1 0x20 ADD DUP3 DUP1 SLOAD PUSH2 0x1EDA SWAP1 PUSH2 0x52C3 JUMP JUMPDEST DUP1 ISZERO PUSH2 0x1F25 JUMPI DUP1 PUSH1 0x1F LT PUSH2 0x1EFC JUMPI PUSH2 0x100 DUP1 DUP4 SLOAD DIV MUL DUP4 MSTORE SWAP2 PUSH1 0x20 ADD SWAP2 PUSH2 0x1F25 JUMP JUMPDEST DUP3 ADD SWAP2 SWAP1 PUSH0 MSTORE PUSH1 0x20 PUSH0 KECCAK256 SWAP1 JUMPDEST DUP2 SLOAD DUP2 MSTORE SWAP1 PUSH1 0x1 ADD SWAP1 PUSH1 0x20 ADD DUP1 DUP4 GT PUSH2 0x1F08 JUMPI DUP3 SWAP1 SUB PUSH1 0x1F AND DUP3 ADD SWAP2 JUMPDEST POP POP POP POP POP SWAP1 DUP1 PUSH1 0x3 ADD DUP1 SLOAD PUSH2 0x1F3A SWAP1 PUSH2 0x52C3 JUMP JUMPDEST DUP1 PUSH1 0x1F ADD PUSH1 0x20 DUP1 SWAP2 DIV MUL PUSH1 0x20 ADD PUSH1 0x40 MLOAD SWAP1 DUP2 ADD PUSH1 0x40 MSTORE DUP1 SWAP3 SWAP2 SWAP1 DUP2 DUP2 MSTORE PUSH1 0x20 ADD DUP3 DUP1 SLOAD PUSH2 0x1F66 SWAP1 PUSH2 0x52C3 JUMP JUMPDEST DUP1 ISZERO PUSH2 0x1FB1 JUMPI DUP1 PUSH1 0x1F LT PUSH2 0x1F88 JUMPI PUSH2 0x100 DUP1 DUP4 SLOAD DIV MUL DUP4 MSTORE SWAP2 PUSH1 0x20 ADD SWAP2 PUSH2 0x1FB1 JUMP JUMPDEST DUP3 ADD SWAP2 SWAP1 PUSH0 MSTORE PUSH1 0x20 PUSH0 KECCAK256 SWAP1 JUMPDEST DUP2 SLOAD DUP2 MSTORE SWAP1 PUSH1 0x1 ADD SWAP1 PUSH1 0x20 ADD DUP1 DUP4 GT PUSH2 0x1F94 JUMPI DUP3 SWAP1 SUB PUSH1 0x1F AND DUP3 ADD SWAP2 JUMPDEST POP POP POP POP POP SWAP1 POP DUP5 JUMP JUMPDEST PUSH1 0x9 DUP2 DUP2 SLOAD DUP2 LT PUSH2 0x1FCF JUMPI PUSH2 0x1FCE PUSH2 0x5940 JUMP JUMPDEST JUMPDEST SWAP1 PUSH0 MSTORE PUSH1 0x20 PUSH0 KECCAK256 ADD PUSH0 PUSH2 0x100 EXP DUP2 SLOAD SWAP1 PUSH20 0xFFFFFFFFFFFFFFFFFFFFFFFFFFFFFFFFFFFFFFFF MUL NOT AND SWAP1 SSTORE POP JUMP JUMPDEST PUSH0 DUP1 PUSH1 0xB PUSH0 CALLER PUSH20 0xFFFFFFFFFFFFFFFFFFFFFFFFFFFFFFFFFFFFFFFF AND PUSH20 0xFFFFFFFFFFFFFFFFFFFFFFFFFFFFFFFFFFFFFFFF AND DUP2 MSTORE PUSH1 0x20 ADD SWAP1 DUP2 MSTORE PUSH1 0x20 ADD PUSH0 KECCAK256 SWAP1 POP PUSH1 0x1 DUP2 PUSH1 0x5 ADD SLOAD PUSH2 0x204E SWAP2 SWAP1 PUSH2 0x5607 JUMP JUMPDEST DUP2 PUSH1 0x5 ADD DUP2 SWAP1 SSTORE POP PUSH0 PUSH1 0xC DUP5 PUSH1 0x40 MLOAD PUSH2 0x2067 SWAP2 SWAP1 PUSH2 0x532D JUMP JUMPDEST SWAP1 DUP2 MSTORE PUSH1 0x20 ADD PUSH1 0x40 MLOAD DUP1 SWAP2 SUB SWAP1 KECCAK256 SWAP1 POP PUSH1 0x40 MLOAD DUP1 PUSH1 0x40 ADD PUSH1 0x40 MSTORE DUP1 PUSH1 0x8 DUP2 MSTORE PUSH1 0x20 ADD PUSH32 0x4445434C494E4544000000000000000000000000000000000000000000000000 DUP2 MSTORE POP DUP2 PUSH1 0x5 ADD SWAP1 DUP2 PUSH2 0x20BD SWAP2 SWAP1 PUSH2 0x563A JUMP JUMPDEST POP PUSH1 0x1 SWAP3 POP POP POP SWAP2 SWAP1 POP JUMP JUMPDEST PUSH0 PUSH1 0xB PUSH0 CALLER PUSH20 0xFFFFFFFFFFFFFFFFFFFFFFFFFFFFFFFFFFFFFFFF AND PUSH20 0xFFFFFFFFFFFFFFFFFFFFFFFFFFFFFFFFFFFFFFFF AND DUP2 MSTORE PUSH1 0x20 ADD SWAP1 DUP2 MSTORE PUSH1 0x20 ADD PUSH0 KECCAK256 PUSH1 0x2 ADD PUSH0 SWAP1 SLOAD SWAP1 PUSH2 0x100 EXP SWAP1 DIV PUSH20 0xFFFFFFFFFFFFFFFFFFFFFFFFFFFFFFFFFFFFFFFF AND PUSH20 0xFFFFFFFFFFFFFFFFFFFFFFFFFFFFFFFFFFFFFFFF AND CALLER PUSH20 0xFFFFFFFFFFFFFFFFFFFFFFFFFFFFFFFFFFFFFFFF AND EQ PUSH2 0x2160 JUMPI PUSH0 DUP1 REVERT JUMPDEST PUSH1 0x1 SWAP1 POP SWAP1 JUMP JUMPDEST PUSH1 0x60 PUSH1 0x9 DUP1 SLOAD DUP1 PUSH1 0x20 MUL PUSH1 0x20 ADD PUSH1 0x40 MLOAD SWAP1 DUP2 ADD PUSH1 0x40 MSTORE DUP1 SWAP3 SWAP2 SWAP1 DUP2 DUP2 MSTORE PUSH1 0x20 ADD DUP3 DUP1 SLOAD DUP1 ISZERO PUSH2 0x21E8 JUMPI PUSH1 0x20 MUL DUP3 ADD SWAP2 SWAP1 PUSH0 MSTORE PUSH1 0x20 PUSH0 KECCAK256 SWAP1 JUMPDEST DUP2 PUSH0 SWAP1 SLOAD SWAP1 PUSH2 0x100 EXP SWAP1 DIV PUSH20 0xFFFFFFFFFFFFFFFFFFFFFFFFFFFFFFFFFFFFFFFF AND PUSH20 0xFFFFFFFFFFFFFFFFFFFFFFFFFFFFFFFFFFFFFFFF AND DUP2 MSTORE PUSH1 0x20 ADD SWAP1 PUSH1 0x1 ADD SWAP1 DUP1 DUP4 GT PUSH2 0x219F JUMPI JUMPDEST POP POP POP POP POP SWAP1 POP SWAP1 JUMP JUMPDEST PUSH1 0x9 DUP2 DUP2 SLOAD DUP2 LT PUSH2 0x2201 JUMPI PUSH0 DUP1 REVERT JUMPDEST SWAP1 PUSH0 MSTORE PUSH1 0x20 PUSH0 KECCAK256 ADD PUSH0 SWAP2 POP SLOAD SWAP1 PUSH2 0x100 EXP SWAP1 DIV PUSH20 0xFFFFFFFFFFFFFFFFFFFFFFFFFFFFFFFFFFFFFFFF AND DUP2 JUMP JUMPDEST PUSH0 PUSH1 0xA DUP6 PUSH1 0x40 MLOAD PUSH2 0x223E SWAP2 SWAP1 PUSH2 0x532D JUMP JUMPDEST SWAP1 DUP2 MSTORE PUSH1 0x20 ADD PUSH1 0x40 MLOAD DUP1 SWAP2 SUB SWAP1 KECCAK256 SWAP1 POP PUSH1 0x4 PUSH0 DUP2 SLOAD DUP1 SWAP3 SWAP2 SWAP1 PUSH2 0x2260 SWAP1 PUSH2 0x596D JUMP JUMPDEST SWAP2 SWAP1 POP SSTORE DUP2 PUSH0 ADD DUP2 SWAP1 SSTORE POP DUP5 DUP2 PUSH1 0x1 ADD SWAP1 DUP2 PUSH2 0x227C SWAP2 SWAP1 PUSH2 0x563A JUMP JUMPDEST POP DUP4 DUP2 PUSH1 0x2 ADD SWAP1 DUP2 PUSH2 0x228E SWAP2 SWAP1 PUSH2 0x563A JUMP JUMPDEST POP DUP3 DUP2 PUSH1 0x3 ADD DUP2 SWAP1 SSTORE POP DUP2 DUP2 PUSH1 0x4 ADD DUP2 SWAP1 SSTORE POP PUSH1 0x8 DUP2 SWAP1 DUP1 PUSH1 0x1 DUP2 SLOAD ADD DUP1 DUP3 SSTORE DUP1 SWAP2 POP POP PUSH1 0x1 SWAP1 SUB SWAP1 PUSH0 MSTORE PUSH1 0x20 PUSH0 KECCAK256 SWAP1 PUSH1 0x5 MUL ADD PUSH0 SWAP1 SWAP2 SWAP1 SWAP2 SWAP1 SWAP2 POP PUSH0 DUP3 ADD SLOAD DUP2 PUSH0 ADD SSTORE PUSH1 0x1 DUP3 ADD DUP2 PUSH1 0x1 ADD SWAP1 DUP2 PUSH2 0x22E6 SWAP2 SWAP1 PUSH2 0x54F5 JUMP JUMPDEST POP PUSH1 0x2 DUP3 ADD DUP2 PUSH1 0x2 ADD SWAP1 DUP2 PUSH2 0x22FB SWAP2 SWAP1 PUSH2 0x54F5 JUMP JUMPDEST POP PUSH1 0x3 DUP3 ADD SLOAD DUP2 PUSH1 0x3 ADD SSTORE PUSH1 0x4 DUP3 ADD SLOAD DUP2 PUSH1 0x4 ADD SSTORE POP POP POP POP POP POP POP JUMP JUMPDEST PUSH1 0xE DUP2 DUP1 MLOAD PUSH1 0x20 DUP2 ADD DUP3 ADD DUP1 MLOAD DUP5 DUP3 MSTORE PUSH1 0x20 DUP4 ADD PUSH1 0x20 DUP6 ADD KECCAK256 DUP2 DUP4 MSTORE DUP1 SWAP6 POP POP POP POP POP POP PUSH0 SWAP2 POP SWAP1 POP DUP1 PUSH0 ADD DUP1 SLOAD PUSH2 0x2350 SWAP1 PUSH2 0x52C3 JUMP JUMPDEST DUP1 PUSH1 0x1F ADD PUSH1 0x20 DUP1 SWAP2 DIV MUL PUSH1 0x20 ADD PUSH1 0x40 MLOAD SWAP1 DUP2 ADD PUSH1 0x40 MSTORE DUP1 SWAP3 SWAP2 SWAP1 DUP2 DUP2 MSTORE PUSH1 0x20 ADD DUP3 DUP1 SLOAD PUSH2 0x237C SWAP1 PUSH2 0x52C3 JUMP JUMPDEST DUP1 ISZERO PUSH2 0x23C7 JUMPI DUP1 PUSH1 0x1F LT PUSH2 0x239E JUMPI PUSH2 0x100 DUP1 DUP4 SLOAD DIV MUL DUP4 MSTORE SWAP2 PUSH1 0x20 ADD SWAP2 PUSH2 0x23C7 JUMP JUMPDEST DUP3 ADD SWAP2 SWAP1 PUSH0 MSTORE PUSH1 0x20 PUSH0 KECCAK256 SWAP1 JUMPDEST DUP2 SLOAD DUP2 MSTORE SWAP1 PUSH1 0x1 ADD SWAP1 PUSH1 0x20 ADD DUP1 DUP4 GT PUSH2 0x23AA JUMPI DUP3 SWAP1 SUB PUSH1 0x1F AND DUP3 ADD SWAP2 JUMPDEST POP POP POP POP POP SWAP1 POP DUP2 JUMP JUMPDEST PUSH0 PUSH1 0xB PUSH0 DUP5 PUSH20 0xFFFFFFFFFFFFFFFFFFFFFFFFFFFFFFFFFFFFFFFF AND PUSH20 0xFFFFFFFFFFFFFFFFFFFFFFFFFFFFFFFFFFFFFFFF AND DUP2 MSTORE PUSH1 0x20 ADD SWAP1 DUP2 MSTORE PUSH1 0x20 ADD PUSH0 KECCAK256 SWAP1 POP DUP4 DUP2 PUSH1 0x1 ADD SWAP1 DUP2 PUSH2 0x2422 SWAP2 SWAP1 PUSH2 0x563A JUMP JUMPDEST POP DUP3 DUP2 PUSH1 0x2 ADD PUSH0 PUSH2 0x100 EXP DUP2 SLOAD DUP2 PUSH20 0xFFFFFFFFFFFFFFFFFFFFFFFFFFFFFFFFFFFFFFFF MUL NOT AND SWAP1 DUP4 PUSH20 0xFFFFFFFFFFFFFFFFFFFFFFFFFFFFFFFFFFFFFFFF AND MUL OR SWAP1 SSTORE POP DUP2 DUP2 PUSH0 ADD SWAP1 DUP2 PUSH2 0x2475 SWAP2 SWAP1 PUSH2 0x563A JUMP JUMPDEST POP PUSH1 0x2 PUSH0 DUP2 SLOAD DUP1 SWAP3 SWAP2 SWAP1 PUSH2 0x2488 SWAP1 PUSH2 0x596D JUMP JUMPDEST SWAP2 SWAP1 POP SSTORE DUP2 PUSH1 0x3 ADD DUP2 SWAP1 SSTORE POP PUSH1 0x9 DUP4 SWAP1 DUP1 PUSH1 0x1 DUP2 SLOAD ADD DUP1 DUP3 SSTORE DUP1 SWAP2 POP POP PUSH1 0x1 SWAP1 SUB SWAP1 PUSH0 MSTORE PUSH1 0x20 PUSH0 KECCAK256 ADD PUSH0 SWAP1 SWAP2 SWAP1 SWAP2 SWAP1 SWAP2 PUSH2 0x100 EXP DUP2 SLOAD DUP2 PUSH20 0xFFFFFFFFFFFFFFFFFFFFFFFFFFFFFFFFFFFFFFFF MUL NOT AND SWAP1 DUP4 PUSH20 0xFFFFFFFFFFFFFFFFFFFFFFFFFFFFFFFFFFFFFFFF AND MUL OR SWAP1 SSTORE POP POP POP POP POP JUMP JUMPDEST PUSH1 0x1 PUSH0 SWAP1 SLOAD SWAP1 PUSH2 0x100 EXP SWAP1 DIV PUSH20 0xFFFFFFFFFFFFFFFFFFFFFFFFFFFFFFFFFFFFFFFF AND DUP2 JUMP JUMPDEST PUSH1 0xC DUP2 DUP1 MLOAD PUSH1 0x20 DUP2 ADD DUP3 ADD DUP1 MLOAD DUP5 DUP3 MSTORE PUSH1 0x20 DUP4 ADD PUSH1 0x20 DUP6 ADD KECCAK256 DUP2 DUP4 MSTORE DUP1 SWAP6 POP POP POP POP POP POP PUSH0 SWAP2 POP SWAP1 POP DUP1 PUSH0 ADD DUP1 SLOAD PUSH2 0x2556 SWAP1 PUSH2 0x52C3 JUMP JUMPDEST DUP1 PUSH1 0x1F ADD PUSH1 0x20 DUP1 SWAP2 DIV MUL PUSH1 0x20 ADD PUSH1 0x40 MLOAD SWAP1 DUP2 ADD PUSH1 0x40 MSTORE DUP1 SWAP3 SWAP2 SWAP1 DUP2 DUP2 MSTORE PUSH1 0x20 ADD DUP3 DUP1 SLOAD PUSH2 0x2582 SWAP1 PUSH2 0x52C3 JUMP JUMPDEST DUP1 ISZERO PUSH2 0x25CD JUMPI DUP1 PUSH1 0x1F LT PUSH2 0x25A4 JUMPI PUSH2 0x100 DUP1 DUP4 SLOAD DIV MUL DUP4 MSTORE SWAP2 PUSH1 0x20 ADD SWAP2 PUSH2 0x25CD JUMP JUMPDEST DUP3 ADD SWAP2 SWAP1 PUSH0 MSTORE PUSH1 0x20 PUSH0 KECCAK256 SWAP1 JUMPDEST DUP2 SLOAD DUP2 MSTORE SWAP1 PUSH1 0x1 ADD SWAP1 PUSH1 0x20 ADD DUP1 DUP4 GT PUSH2 0x25B0 JUMPI DUP3 SWAP1 SUB PUSH1 0x1F AND DUP3 ADD SWAP2 JUMPDEST POP POP POP POP POP SWAP1 DUP1 PUSH1 0x1 ADD DUP1 SLOAD PUSH2 0x25E2 SWAP1 PUSH2 0x52C3 JUMP JUMPDEST DUP1 PUSH1 0x1F ADD PUSH1 0x20 DUP1 SWAP2 DIV MUL PUSH1 0x20 ADD PUSH1 0x40 MLOAD SWAP1 DUP2 ADD PUSH1 0x40 MSTORE DUP1 SWAP3 SWAP2 SWAP1 DUP2 DUP2 MSTORE PUSH1 0x20 ADD DUP3 DUP1 SLOAD PUSH2 0x260E SWAP1 PUSH2 0x52C3 JUMP JUMPDEST DUP1 ISZERO PUSH2 0x2659 JUMPI DUP1 PUSH1 0x1F LT PUSH2 0x2630 JUMPI PUSH2 0x100 DUP1 DUP4 SLOAD DIV MUL DUP4 MSTORE SWAP2 PUSH1 0x20 ADD SWAP2 PUSH2 0x2659 JUMP JUMPDEST DUP3 ADD SWAP2 SWAP1 PUSH0 MSTORE PUSH1 0x20 PUSH0 KECCAK256 SWAP1 JUMPDEST DUP2 SLOAD DUP2 MSTORE SWAP1 PUSH1 0x1 ADD SWAP1 PUSH1 0x20 ADD DUP1 DUP4 GT PUSH2 0x263C JUMPI DUP3 SWAP1 SUB PUSH1 0x1F AND DUP3 ADD SWAP2 JUMPDEST POP POP POP POP POP SWAP1 DUP1 PUSH1 0x2 ADD DUP1 SLOAD PUSH2 0x266E SWAP1 PUSH2 0x52C3 JUMP JUMPDEST DUP1 PUSH1 0x1F ADD PUSH1 0x20 DUP1 SWAP2 DIV MUL PUSH1 0x20 ADD PUSH1 0x40 MLOAD SWAP1 DUP2 ADD PUSH1 0x40 MSTORE DUP1 SWAP3 SWAP2 SWAP1 DUP2 DUP2 MSTORE PUSH1 0x20 ADD DUP3 DUP1 SLOAD PUSH2 0x269A SWAP1 PUSH2 0x52C3 JUMP JUMPDEST DUP1 ISZERO PUSH2 0x26E5 JUMPI DUP1 PUSH1 0x1F LT PUSH2 0x26BC JUMPI PUSH2 0x100 DUP1 DUP4 SLOAD DIV MUL DUP4 MSTORE SWAP2 PUSH1 0x20 ADD SWAP2 PUSH2 0x26E5 JUMP JUMPDEST DUP3 ADD SWAP2 SWAP1 PUSH0 MSTORE PUSH1 0x20 PUSH0 KECCAK256 SWAP1 JUMPDEST DUP2 SLOAD DUP2 MSTORE SWAP1 PUSH1 0x1 ADD SWAP1 PUSH1 0x20 ADD DUP1 DUP4 GT PUSH2 0x26C8 JUMPI DUP3 SWAP1 SUB PUSH1 0x1F AND DUP3 ADD SWAP2 JUMPDEST POP POP POP POP POP SWAP1 DUP1 PUSH1 0x3 ADD DUP1 SLOAD PUSH2 0x26FA SWAP1 PUSH2 0x52C3 JUMP JUMPDEST DUP1 PUSH1 0x1F ADD PUSH1 0x20 DUP1 SWAP2 DIV MUL PUSH1 0x20 ADD PUSH1 0x40 MLOAD SWAP1 DUP2 ADD PUSH1 0x40 MSTORE DUP1 SWAP3 SWAP2 SWAP1 DUP2 DUP2 MSTORE PUSH1 0x20 ADD DUP3 DUP1 SLOAD PUSH2 0x2726 SWAP1 PUSH2 0x52C3 JUMP JUMPDEST DUP1 ISZERO PUSH2 0x2771 JUMPI DUP1 PUSH1 0x1F LT PUSH2 0x2748 JUMPI PUSH2 0x100 DUP1 DUP4 SLOAD DIV MUL DUP4 MSTORE SWAP2 PUSH1 0x20 ADD SWAP2 PUSH2 0x2771 JUMP JUMPDEST DUP3 ADD SWAP2 SWAP1 PUSH0 MSTORE PUSH1 0x20 PUSH0 KECCAK256 SWAP1 JUMPDEST DUP2 SLOAD DUP2 MSTORE SWAP1 PUSH1 0x1 ADD SWAP1 PUSH1 0x20 ADD DUP1 DUP4 GT PUSH2 0x2754 JUMPI DUP3 SWAP1 SUB PUSH1 0x1F AND DUP3 ADD SWAP2 JUMPDEST POP POP POP POP POP SWAP1 DUP1 PUSH1 0x4 ADD SLOAD SWAP1 DUP1 PUSH1 0x5 ADD DUP1 SLOAD PUSH2 0x278C SWAP1 PUSH2 0x52C3 JUMP JUMPDEST DUP1 PUSH1 0x1F ADD PUSH1 0x20 DUP1 SWAP2 DIV MUL PUSH1 0x20 ADD PUSH1 0x40 MLOAD SWAP1 DUP2 ADD PUSH1 0x40 MSTORE DUP1 SWAP3 SWAP2 SWAP1 DUP2 DUP2 MSTORE PUSH1 0x20 ADD DUP3 DUP1 SLOAD PUSH2 0x27B8 SWAP1 PUSH2 0x52C3 JUMP JUMPDEST DUP1 ISZERO PUSH2 0x2803 JUMPI DUP1 PUSH1 0x1F LT PUSH2 0x27DA JUMPI PUSH2 0x100 DUP1 DUP4 SLOAD DIV MUL DUP4 MSTORE SWAP2 PUSH1 0x20 ADD SWAP2 PUSH2 0x2803 JUMP JUMPDEST DUP3 ADD SWAP2 SWAP1 PUSH0 MSTORE PUSH1 0x20 PUSH0 KECCAK256 SWAP1 JUMPDEST DUP2 SLOAD DUP2 MSTORE SWAP1 PUSH1 0x1 ADD SWAP1 PUSH1 0x20 ADD DUP1 DUP4 GT PUSH2 0x27E6 JUMPI DUP3 SWAP1 SUB PUSH1 0x1F AND DUP3 ADD SWAP2 JUMPDEST POP POP POP POP POP SWAP1 DUP1 PUSH1 0x6 ADD PUSH0 SWAP1 SLOAD SWAP1 PUSH2 0x100 EXP SWAP1 DIV PUSH20 0xFFFFFFFFFFFFFFFFFFFFFFFFFFFFFFFFFFFFFFFF AND SWAP1 DUP1 PUSH1 0x7 ADD SLOAD SWAP1 DUP1 PUSH1 0x8 ADD DUP1 SLOAD PUSH2 0x2843 SWAP1 PUSH2 0x52C3 JUMP JUMPDEST DUP1 PUSH1 0x1F ADD PUSH1 0x20 DUP1 SWAP2 DIV MUL PUSH1 0x20 ADD PUSH1 0x40 MLOAD SWAP1 DUP2 ADD PUSH1 0x40 MSTORE DUP1 SWAP3 SWAP2 SWAP1 DUP2 DUP2 MSTORE PUSH1 0x20 ADD DUP3 DUP1 SLOAD PUSH2 0x286F SWAP1 PUSH2 0x52C3 JUMP JUMPDEST DUP1 ISZERO PUSH2 0x28BA JUMPI DUP1 PUSH1 0x1F LT PUSH2 0x2891 JUMPI PUSH2 0x100 DUP1 DUP4 SLOAD DIV MUL DUP4 MSTORE SWAP2 PUSH1 0x20 ADD SWAP2 PUSH2 0x28BA JUMP JUMPDEST DUP3 ADD SWAP2 SWAP1 PUSH0 MSTORE PUSH1 0x20 PUSH0 KECCAK256 SWAP1 JUMPDEST DUP2 SLOAD DUP2 MSTORE SWAP1 PUSH1 0x1 ADD SWAP1 PUSH1 0x20 ADD DUP1 DUP4 GT PUSH2 0x289D JUMPI DUP3 SWAP1 SUB PUSH1 0x1F AND DUP3 ADD SWAP2 JUMPDEST POP POP POP POP POP SWAP1 DUP1 PUSH1 0x9 ADD DUP1 SLOAD PUSH2 0x28CF SWAP1 PUSH2 0x52C3 JUMP JUMPDEST DUP1 PUSH1 0x1F ADD PUSH1 0x20 DUP1 SWAP2 DIV MUL PUSH1 0x20 ADD PUSH1 0x40 MLOAD SWAP1 DUP2 ADD PUSH1 0x40 MSTORE DUP1 SWAP3 SWAP2 SWAP1 DUP2 DUP2 MSTORE PUSH1 0x20 ADD DUP3 DUP1 SLOAD PUSH2 0x28FB SWAP1 PUSH2 0x52C3 JUMP JUMPDEST DUP1 ISZERO PUSH2 0x2946 JUMPI DUP1 PUSH1 0x1F LT PUSH2 0x291D JUMPI PUSH2 0x100 DUP1 DUP4 SLOAD DIV MUL DUP4 MSTORE SWAP2 PUSH1 0x20 ADD SWAP2 PUSH2 0x2946 JUMP JUMPDEST DUP3 ADD SWAP2 SWAP1 PUSH0 MSTORE PUSH1 0x20 PUSH0 KECCAK256 SWAP1 JUMPDEST DUP2 SLOAD DUP2 MSTORE SWAP1 PUSH1 0x1 ADD SWAP1 PUSH1 0x20 ADD DUP1 DUP4 GT PUSH2 0x2929 JUMPI DUP3 SWAP1 SUB PUSH1 0x1F AND DUP3 ADD SWAP2 JUMPDEST POP POP POP POP POP SWAP1 DUP1 PUSH1 0xA ADD SLOAD SWAP1 POP DUP12 JUMP JUMPDEST PUSH1 0x60 PUSH1 0x7 DUP1 SLOAD DUP1 PUSH1 0x20 MUL PUSH1 0x20 ADD PUSH1 0x40 MLOAD SWAP1 DUP2 ADD PUSH1 0x40 MSTORE DUP1 SWAP3 SWAP2 SWAP1 DUP2 DUP2 MSTORE PUSH1 0x20 ADD PUSH0 SWAP1 JUMPDEST DUP3 DUP3 LT ISZERO PUSH2 0x2BE8 JUMPI DUP4 DUP3 SWAP1 PUSH0 MSTORE PUSH1 0x20 PUSH0 KECCAK256 SWAP1 PUSH1 0x4 MUL ADD PUSH1 0x40 MLOAD DUP1 PUSH1 0x80 ADD PUSH1 0x40 MSTORE SWAP1 DUP2 PUSH0 DUP3 ADD DUP1 SLOAD PUSH2 0x29A9 SWAP1 PUSH2 0x52C3 JUMP JUMPDEST DUP1 PUSH1 0x1F ADD PUSH1 0x20 DUP1 SWAP2 DIV MUL PUSH1 0x20 ADD PUSH1 0x40 MLOAD SWAP1 DUP2 ADD PUSH1 0x40 MSTORE DUP1 SWAP3 SWAP2 SWAP1 DUP2 DUP2 MSTORE PUSH1 0x20 ADD DUP3 DUP1 SLOAD PUSH2 0x29D5 SWAP1 PUSH2 0x52C3 JUMP JUMPDEST DUP1 ISZERO PUSH2 0x2A20 JUMPI DUP1 PUSH1 0x1F LT PUSH2 0x29F7 JUMPI PUSH2 0x100 DUP1 DUP4 SLOAD DIV MUL DUP4 MSTORE SWAP2 PUSH1 0x20 ADD SWAP2 PUSH2 0x2A20 JUMP JUMPDEST DUP3 ADD SWAP2 SWAP1 PUSH0 MSTORE PUSH1 0x20 PUSH0 KECCAK256 SWAP1 JUMPDEST DUP2 SLOAD DUP2 MSTORE SWAP1 PUSH1 0x1 ADD SWAP1 PUSH1 0x20 ADD DUP1 DUP4 GT PUSH2 0x2A03 JUMPI DUP3 SWAP1 SUB PUSH1 0x1F AND DUP3 ADD SWAP2 JUMPDEST POP POP POP POP POP DUP2 MSTORE PUSH1 0x20 ADD PUSH1 0x1 DUP3 ADD DUP1 SLOAD PUSH2 0x2A39 SWAP1 PUSH2 0x52C3 JUMP JUMPDEST DUP1 PUSH1 0x1F ADD PUSH1 0x20 DUP1 SWAP2 DIV MUL PUSH1 0x20 ADD PUSH1 0x40 MLOAD SWAP1 DUP2 ADD PUSH1 0x40 MSTORE DUP1 SWAP3 SWAP2 SWAP1 DUP2 DUP2 MSTORE PUSH1 0x20 ADD DUP3 DUP1 SLOAD PUSH2 0x2A65 SWAP1 PUSH2 0x52C3 JUMP JUMPDEST DUP1 ISZERO PUSH2 0x2AB0 JUMPI DUP1 PUSH1 0x1F LT PUSH2 0x2A87 JUMPI PUSH2 0x100 DUP1 DUP4 SLOAD DIV MUL DUP4 MSTORE SWAP2 PUSH1 0x20 ADD SWAP2 PUSH2 0x2AB0 JUMP JUMPDEST DUP3 ADD SWAP2 SWAP1 PUSH0 MSTORE PUSH1 0x20 PUSH0 KECCAK256 SWAP1 JUMPDEST DUP2 SLOAD DUP2 MSTORE SWAP1 PUSH1 0x1 ADD SWAP1 PUSH1 0x20 ADD DUP1 DUP4 GT PUSH2 0x2A93 JUMPI DUP3 SWAP1 SUB PUSH1 0x1F AND DUP3 ADD SWAP2 JUMPDEST POP POP POP POP POP DUP2 MSTORE PUSH1 0x20 ADD PUSH1 0x2 DUP3 ADD DUP1 SLOAD PUSH2 0x2AC9 SWAP1 PUSH2 0x52C3 JUMP JUMPDEST DUP1 PUSH1 0x1F ADD PUSH1 0x20 DUP1 SWAP2 DIV MUL PUSH1 0x20 ADD PUSH1 0x40 MLOAD SWAP1 DUP2 ADD PUSH1 0x40 MSTORE DUP1 SWAP3 SWAP2 SWAP1 DUP2 DUP2 MSTORE PUSH1 0x20 ADD DUP3 DUP1 SLOAD PUSH2 0x2AF5 SWAP1 PUSH2 0x52C3 JUMP JUMPDEST DUP1 ISZERO PUSH2 0x2B40 JUMPI DUP1 PUSH1 0x1F LT PUSH2 0x2B17 JUMPI PUSH2 0x100 DUP1 DUP4 SLOAD DIV MUL DUP4 MSTORE SWAP2 PUSH1 0x20 ADD SWAP2 PUSH2 0x2B40 JUMP JUMPDEST DUP3 ADD SWAP2 SWAP1 PUSH0 MSTORE PUSH1 0x20 PUSH0 KECCAK256 SWAP1 JUMPDEST DUP2 SLOAD DUP2 MSTORE SWAP1 PUSH1 0x1 ADD SWAP1 PUSH1 0x20 ADD DUP1 DUP4 GT PUSH2 0x2B23 JUMPI DUP3 SWAP1 SUB PUSH1 0x1F AND DUP3 ADD SWAP2 JUMPDEST POP POP POP POP POP DUP2 MSTORE PUSH1 0x20 ADD PUSH1 0x3 DUP3 ADD DUP1 SLOAD PUSH2 0x2B59 SWAP1 PUSH2 0x52C3 JUMP JUMPDEST DUP1 PUSH1 0x1F ADD PUSH1 0x20 DUP1 SWAP2 DIV MUL PUSH1 0x20 ADD PUSH1 0x40 MLOAD SWAP1 DUP2 ADD PUSH1 0x40 MSTORE DUP1 SWAP3 SWAP2 SWAP1 DUP2 DUP2 MSTORE PUSH1 0x20 ADD DUP3 DUP1 SLOAD PUSH2 0x2B85 SWAP1 PUSH2 0x52C3 JUMP JUMPDEST DUP1 ISZERO PUSH2 0x2BD0 JUMPI DUP1 PUSH1 0x1F LT PUSH2 0x2BA7 JUMPI PUSH2 0x100 DUP1 DUP4 SLOAD DIV MUL DUP4 MSTORE SWAP2 PUSH1 0x20 ADD SWAP2 PUSH2 0x2BD0 JUMP JUMPDEST DUP3 ADD SWAP2 SWAP1 PUSH0 MSTORE PUSH1 0x20 PUSH0 KECCAK256 SWAP1 JUMPDEST DUP2 SLOAD DUP2 MSTORE SWAP1 PUSH1 0x1 ADD SWAP1 PUSH1 0x20 ADD DUP1 DUP4 GT PUSH2 0x2BB3 JUMPI DUP3 SWAP1 SUB PUSH1 0x1F AND DUP3 ADD SWAP2 JUMPDEST POP POP POP POP POP DUP2 MSTORE POP POP DUP2 MSTORE PUSH1 0x20 ADD SWAP1 PUSH1 0x1 ADD SWAP1 PUSH2 0x2979 JUMP JUMPDEST POP POP POP POP SWAP1 POP SWAP1 JUMP JUMPDEST PUSH0 DUP1 PUSH1 0xC DUP4 PUSH1 0x40 MLOAD PUSH2 0x2C03 SWAP2 SWAP1 PUSH2 0x532D JUMP JUMPDEST SWAP1 DUP2 MSTORE PUSH1 0x20 ADD PUSH1 0x40 MLOAD DUP1 SWAP2 SUB SWAP1 KECCAK256 SWAP1 POP PUSH0 DUP2 PUSH1 0xA ADD SLOAD SWAP1 POP PUSH0 DUP3 PUSH1 0x9 ADD DUP1 SLOAD PUSH2 0x2C2B SWAP1 PUSH2 0x52C3 JUMP JUMPDEST DUP1 PUSH1 0x1F ADD PUSH1 0x20 DUP1 SWAP2 DIV MUL PUSH1 0x20 ADD PUSH1 0x40 MLOAD SWAP1 DUP2 ADD PUSH1 0x40 MSTORE DUP1 SWAP3 SWAP2 SWAP1 DUP2 DUP2 MSTORE PUSH1 0x20 ADD DUP3 DUP1 SLOAD PUSH2 0x2C57 SWAP1 PUSH2 0x52C3 JUMP JUMPDEST DUP1 ISZERO PUSH2 0x2CA2 JUMPI DUP1 PUSH1 0x1F LT PUSH2 0x2C79 JUMPI PUSH2 0x100 DUP1 DUP4 SLOAD DIV MUL DUP4 MSTORE SWAP2 PUSH1 0x20 ADD SWAP2 PUSH2 0x2CA2 JUMP JUMPDEST DUP3 ADD SWAP2 SWAP1 PUSH0 MSTORE PUSH1 0x20 PUSH0 KECCAK256 SWAP1 JUMPDEST DUP2 SLOAD DUP2 MSTORE SWAP1 PUSH1 0x1 ADD SWAP1 PUSH1 0x20 ADD DUP1 DUP4 GT PUSH2 0x2C85 JUMPI DUP3 SWAP1 SUB PUSH1 0x1F AND DUP3 ADD SWAP2 JUMPDEST POP POP POP POP POP SWAP1 POP PUSH0 DUP4 PUSH1 0x8 ADD DUP1 SLOAD PUSH2 0x2CB9 SWAP1 PUSH2 0x52C3 JUMP JUMPDEST DUP1 PUSH1 0x1F ADD PUSH1 0x20 DUP1 SWAP2 DIV MUL PUSH1 0x20 ADD PUSH1 0x40 MLOAD SWAP1 DUP2 ADD PUSH1 0x40 MSTORE DUP1 SWAP3 SWAP2 SWAP1 DUP2 DUP2 MSTORE PUSH1 0x20 ADD DUP3 DUP1 SLOAD PUSH2 0x2CE5 SWAP1 PUSH2 0x52C3 JUMP JUMPDEST DUP1 ISZERO PUSH2 0x2D30 JUMPI DUP1 PUSH1 0x1F LT PUSH2 0x2D07 JUMPI PUSH2 0x100 DUP1 DUP4 SLOAD DIV MUL DUP4 MSTORE SWAP2 PUSH1 0x20 ADD SWAP2 PUSH2 0x2D30 JUMP JUMPDEST DUP3 ADD SWAP2 SWAP1 PUSH0 MSTORE PUSH1 0x20 PUSH0 KECCAK256 SWAP1 JUMPDEST DUP2 SLOAD DUP2 MSTORE SWAP1 PUSH1 0x1 ADD SWAP1 PUSH1 0x20 ADD DUP1 DUP4 GT PUSH2 0x2D13 JUMPI DUP3 SWAP1 SUB PUSH1 0x1F AND DUP3 ADD SWAP2 JUMPDEST POP POP POP POP POP SWAP1 POP PUSH0 PUSH2 0x2D42 DUP3 DUP6 PUSH2 0x3F84 JUMP JUMPDEST SWAP1 POP DUP1 PUSH2 0x344B JUMPI PUSH2 0x2D53 DUP3 DUP5 PUSH2 0x3D69 JUMP JUMPDEST ISZERO PUSH2 0x313B JUMPI PUSH2 0x2E21 DUP6 PUSH1 0x5 ADD DUP1 SLOAD PUSH2 0x2D6A SWAP1 PUSH2 0x52C3 JUMP JUMPDEST DUP1 PUSH1 0x1F ADD PUSH1 0x20 DUP1 SWAP2 DIV MUL PUSH1 0x20 ADD PUSH1 0x40 MLOAD SWAP1 DUP2 ADD PUSH1 0x40 MSTORE DUP1 SWAP3 SWAP2 SWAP1 DUP2 DUP2 MSTORE PUSH1 0x20 ADD DUP3 DUP1 SLOAD PUSH2 0x2D96 SWAP1 PUSH2 0x52C3 JUMP JUMPDEST DUP1 ISZERO PUSH2 0x2DE1 JUMPI DUP1 PUSH1 0x1F LT PUSH2 0x2DB8 JUMPI PUSH2 0x100 DUP1 DUP4 SLOAD DIV MUL DUP4 MSTORE SWAP2 PUSH1 0x20 ADD SWAP2 PUSH2 0x2DE1 JUMP JUMPDEST DUP3 ADD SWAP2 SWAP1 PUSH0 MSTORE PUSH1 0x20 PUSH0 KECCAK256 SWAP1 JUMPDEST DUP2 SLOAD DUP2 MSTORE SWAP1 PUSH1 0x1 ADD SWAP1 PUSH1 0x20 ADD DUP1 DUP4 GT PUSH2 0x2DC4 JUMPI DUP3 SWAP1 SUB PUSH1 0x1F AND DUP3 ADD SWAP2 JUMPDEST POP POP POP POP POP PUSH1 0x40 MLOAD DUP1 PUSH1 0x40 ADD PUSH1 0x40 MSTORE DUP1 PUSH1 0x7 DUP2 MSTORE PUSH1 0x20 ADD PUSH32 0x4558504952454400000000000000000000000000000000000000000000000000 DUP2 MSTORE POP PUSH2 0x3D69 JUMP JUMPDEST PUSH2 0x312E JUMPI PUSH1 0x40 MLOAD DUP1 PUSH1 0x40 ADD PUSH1 0x40 MSTORE DUP1 PUSH1 0x7 DUP2 MSTORE PUSH1 0x20 ADD PUSH32 0x4558504952454400000000000000000000000000000000000000000000000000 DUP2 MSTORE POP DUP6 PUSH1 0x5 ADD SWAP1 DUP2 PUSH2 0x2E6B SWAP2 SWAP1 PUSH2 0x563A JUMP JUMPDEST POP PUSH0 JUMPDEST PUSH1 0x9 DUP1 SLOAD SWAP1 POP DUP2 LT ISZERO PUSH2 0x2FBD JUMPI PUSH0 PUSH1 0xB PUSH0 PUSH1 0x9 DUP5 DUP2 SLOAD DUP2 LT PUSH2 0x2E93 JUMPI PUSH2 0x2E92 PUSH2 0x5940 JUMP JUMPDEST JUMPDEST SWAP1 PUSH0 MSTORE PUSH1 0x20 PUSH0 KECCAK256 ADD PUSH0 SWAP1 SLOAD SWAP1 PUSH2 0x100 EXP SWAP1 DIV PUSH20 0xFFFFFFFFFFFFFFFFFFFFFFFFFFFFFFFFFFFFFFFF AND PUSH20 0xFFFFFFFFFFFFFFFFFFFFFFFFFFFFFFFFFFFFFFFF AND PUSH20 0xFFFFFFFFFFFFFFFFFFFFFFFFFFFFFFFFFFFFFFFF AND DUP2 MSTORE PUSH1 0x20 ADD SWAP1 DUP2 MSTORE PUSH1 0x20 ADD PUSH0 KECCAK256 SWAP1 POP PUSH2 0x2F8A DUP2 PUSH1 0x1 ADD DUP1 SLOAD PUSH2 0x2F08 SWAP1 PUSH2 0x52C3 JUMP JUMPDEST DUP1 PUSH1 0x1F ADD PUSH1 0x20 DUP1 SWAP2 DIV MUL PUSH1 0x20 ADD PUSH1 0x40 MLOAD SWAP1 DUP2 ADD PUSH1 0x40 MSTORE DUP1 SWAP3 SWAP2 SWAP1 DUP2 DUP2 MSTORE PUSH1 0x20 ADD DUP3 DUP1 SLOAD PUSH2 0x2F34 SWAP1 PUSH2 0x52C3 JUMP JUMPDEST DUP1 ISZERO PUSH2 0x2F7F JUMPI DUP1 PUSH1 0x1F LT PUSH2 0x2F56 JUMPI PUSH2 0x100 DUP1 DUP4 SLOAD DIV MUL DUP4 MSTORE SWAP2 PUSH1 0x20 ADD SWAP2 PUSH2 0x2F7F JUMP JUMPDEST DUP3 ADD SWAP2 SWAP1 PUSH0 MSTORE PUSH1 0x20 PUSH0 KECCAK256 SWAP1 JUMPDEST DUP2 SLOAD DUP2 MSTORE SWAP1 PUSH1 0x1 ADD SWAP1 PUSH1 0x20 ADD DUP1 DUP4 GT PUSH2 0x2F62 JUMPI DUP3 SWAP1 SUB PUSH1 0x1F AND DUP3 ADD SWAP2 JUMPDEST POP POP POP POP POP DUP6 PUSH2 0x3D69 JUMP JUMPDEST ISZERO PUSH2 0x2FA9 JUMPI PUSH1 0x1 DUP2 PUSH1 0x6 ADD SLOAD PUSH2 0x2FA0 SWAP2 SWAP1 PUSH2 0x5607 JUMP JUMPDEST DUP2 PUSH1 0x6 ADD DUP2 SWAP1 SSTORE POP JUMPDEST POP DUP1 DUP1 PUSH2 0x2FB5 SWAP1 PUSH2 0x596D JUMP JUMPDEST SWAP2 POP POP PUSH2 0x2E6E JUMP JUMPDEST POP PUSH0 PUSH1 0xD DUP9 PUSH1 0x40 MLOAD PUSH2 0x2FCF SWAP2 SWAP1 PUSH2 0x532D JUMP JUMPDEST SWAP1 DUP2 MSTORE PUSH1 0x20 ADD PUSH1 0x40 MLOAD DUP1 SWAP2 SUB SWAP1 KECCAK256 SWAP1 POP PUSH1 0x40 MLOAD DUP1 PUSH1 0x40 ADD PUSH1 0x40 MSTORE DUP1 PUSH1 0x13 DUP2 MSTORE PUSH1 0x20 ADD PUSH32 0x5472616E73616374696F6E204578706972656400000000000000000000000000 DUP2 MSTORE POP DUP2 PUSH0 ADD SWAP1 DUP2 PUSH2 0x3024 SWAP2 SWAP1 PUSH2 0x563A JUMP JUMPDEST POP DUP8 PUSH1 0x40 MLOAD PUSH1 0x20 ADD PUSH2 0x3036 SWAP2 SWAP1 PUSH2 0x59FE JUMP JUMPDEST PUSH1 0x40 MLOAD PUSH1 0x20 DUP2 DUP4 SUB SUB DUP2 MSTORE SWAP1 PUSH1 0x40 MSTORE DUP2 PUSH1 0x1 ADD SWAP1 DUP2 PUSH2 0x3055 SWAP2 SWAP1 PUSH2 0x563A JUMP JUMPDEST POP DUP8 DUP2 PUSH1 0x2 ADD SWAP1 DUP2 PUSH2 0x3067 SWAP2 SWAP1 PUSH2 0x563A JUMP JUMPDEST POP PUSH1 0x40 MLOAD DUP1 PUSH1 0x40 ADD PUSH1 0x40 MSTORE DUP1 PUSH1 0x7 DUP2 MSTORE PUSH1 0x20 ADD PUSH32 0x4558504952454400000000000000000000000000000000000000000000000000 DUP2 MSTORE POP DUP2 PUSH1 0x3 ADD SWAP1 DUP2 PUSH2 0x30AE SWAP2 SWAP1 PUSH2 0x563A JUMP JUMPDEST POP PUSH1 0x7 DUP2 SWAP1 DUP1 PUSH1 0x1 DUP2 SLOAD ADD DUP1 DUP3 SSTORE DUP1 SWAP2 POP POP PUSH1 0x1 SWAP1 SUB SWAP1 PUSH0 MSTORE PUSH1 0x20 PUSH0 KECCAK256 SWAP1 PUSH1 0x4 MUL ADD PUSH0 SWAP1 SWAP2 SWAP1 SWAP2 SWAP1 SWAP2 POP PUSH0 DUP3 ADD DUP2 PUSH0 ADD SWAP1 DUP2 PUSH2 0x30EA SWAP2 SWAP1 PUSH2 0x54F5 JUMP JUMPDEST POP PUSH1 0x1 DUP3 ADD DUP2 PUSH1 0x1 ADD SWAP1 DUP2 PUSH2 0x30FF SWAP2 SWAP1 PUSH2 0x54F5 JUMP JUMPDEST POP PUSH1 0x2 DUP3 ADD DUP2 PUSH1 0x2 ADD SWAP1 DUP2 PUSH2 0x3114 SWAP2 SWAP1 PUSH2 0x54F5 JUMP JUMPDEST POP PUSH1 0x3 DUP3 ADD DUP2 PUSH1 0x3 ADD SWAP1 DUP2 PUSH2 0x3129 SWAP2 SWAP1 PUSH2 0x54F5 JUMP JUMPDEST POP POP POP POP JUMPDEST PUSH0 SWAP6 POP POP POP POP POP POP PUSH2 0x3455 JUMP JUMPDEST PUSH2 0x3144 DUP3 PUSH2 0x3DC1 JUMP JUMPDEST DUP6 PUSH1 0x8 ADD SWAP1 DUP2 PUSH2 0x3154 SWAP2 SWAP1 PUSH2 0x563A JUMP JUMPDEST POP PUSH0 JUMPDEST PUSH1 0x9 DUP1 SLOAD SWAP1 POP DUP2 LT ISZERO PUSH2 0x32A6 JUMPI PUSH0 PUSH1 0xB PUSH0 PUSH1 0x9 DUP5 DUP2 SLOAD DUP2 LT PUSH2 0x317C JUMPI PUSH2 0x317B PUSH2 0x5940 JUMP JUMPDEST JUMPDEST SWAP1 PUSH0 MSTORE PUSH1 0x20 PUSH0 KECCAK256 ADD PUSH0 SWAP1 SLOAD SWAP1 PUSH2 0x100 EXP SWAP1 DIV PUSH20 0xFFFFFFFFFFFFFFFFFFFFFFFFFFFFFFFFFFFFFFFF AND PUSH20 0xFFFFFFFFFFFFFFFFFFFFFFFFFFFFFFFFFFFFFFFF AND PUSH20 0xFFFFFFFFFFFFFFFFFFFFFFFFFFFFFFFFFFFFFFFF AND DUP2 MSTORE PUSH1 0x20 ADD SWAP1 DUP2 MSTORE PUSH1 0x20 ADD PUSH0 KECCAK256 SWAP1 POP PUSH2 0x3273 DUP2 PUSH1 0x1 ADD DUP1 SLOAD PUSH2 0x31F1 SWAP1 PUSH2 0x52C3 JUMP JUMPDEST DUP1 PUSH1 0x1F ADD PUSH1 0x20 DUP1 SWAP2 DIV MUL PUSH1 0x20 ADD PUSH1 0x40 MLOAD SWAP1 DUP2 ADD PUSH1 0x40 MSTORE DUP1 SWAP3 SWAP2 SWAP1 DUP2 DUP2 MSTORE PUSH1 0x20 ADD DUP3 DUP1 SLOAD PUSH2 0x321D SWAP1 PUSH2 0x52C3 JUMP JUMPDEST DUP1 ISZERO PUSH2 0x3268 JUMPI DUP1 PUSH1 0x1F LT PUSH2 0x323F JUMPI PUSH2 0x100 DUP1 DUP4 SLOAD DIV MUL DUP4 MSTORE SWAP2 PUSH1 0x20 ADD SWAP2 PUSH2 0x3268 JUMP JUMPDEST DUP3 ADD SWAP2 SWAP1 PUSH0 MSTORE PUSH1 0x20 PUSH0 KECCAK256 SWAP1 JUMPDEST DUP2 SLOAD DUP2 MSTORE SWAP1 PUSH1 0x1 ADD SWAP1 PUSH1 0x20 ADD DUP1 DUP4 GT PUSH2 0x324B JUMPI DUP3 SWAP1 SUB PUSH1 0x1F AND DUP3 ADD SWAP2 JUMPDEST POP POP POP POP POP DUP6 PUSH2 0x3D69 JUMP JUMPDEST ISZERO PUSH2 0x3292 JUMPI PUSH1 0x1 DUP2 PUSH1 0x6 ADD SLOAD PUSH2 0x3289 SWAP2 SWAP1 PUSH2 0x5607 JUMP JUMPDEST DUP2 PUSH1 0x6 ADD DUP2 SWAP1 SSTORE POP JUMPDEST POP DUP1 DUP1 PUSH2 0x329E SWAP1 PUSH2 0x596D JUMP JUMPDEST SWAP2 POP POP PUSH2 0x3157 JUMP JUMPDEST POP PUSH0 PUSH1 0xA DUP4 PUSH1 0x40 MLOAD PUSH2 0x32B8 SWAP2 SWAP1 PUSH2 0x532D JUMP JUMPDEST SWAP1 DUP2 MSTORE PUSH1 0x20 ADD PUSH1 0x40 MLOAD DUP1 SWAP2 SUB SWAP1 KECCAK256 SWAP1 POP PUSH0 PUSH1 0xD DUP10 PUSH1 0x40 MLOAD PUSH2 0x32D9 SWAP2 SWAP1 PUSH2 0x532D JUMP JUMPDEST SWAP1 DUP2 MSTORE PUSH1 0x20 ADD PUSH1 0x40 MLOAD DUP1 SWAP2 SUB SWAP1 KECCAK256 SWAP1 POP PUSH1 0x40 MLOAD DUP1 PUSH1 0x40 ADD PUSH1 0x40 MSTORE DUP1 PUSH1 0x17 DUP2 MSTORE PUSH1 0x20 ADD PUSH32 0x5472616E73616374696F6E205472616E73666572726564000000000000000000 DUP2 MSTORE POP DUP2 PUSH0 ADD SWAP1 DUP2 PUSH2 0x332E SWAP2 SWAP1 PUSH2 0x563A JUMP JUMPDEST POP DUP9 DUP3 PUSH1 0x2 ADD PUSH1 0x40 MLOAD PUSH1 0x20 ADD PUSH2 0x3345 SWAP3 SWAP2 SWAP1 PUSH2 0x5B64 JUMP JUMPDEST PUSH1 0x40 MLOAD PUSH1 0x20 DUP2 DUP4 SUB SUB DUP2 MSTORE SWAP1 PUSH1 0x40 MSTORE DUP2 PUSH1 0x1 ADD SWAP1 DUP2 PUSH2 0x3364 SWAP2 SWAP1 PUSH2 0x563A JUMP JUMPDEST POP DUP9 DUP2 PUSH1 0x2 ADD SWAP1 DUP2 PUSH2 0x3376 SWAP2 SWAP1 PUSH2 0x563A JUMP JUMPDEST POP PUSH1 0x40 MLOAD DUP1 PUSH1 0x40 ADD PUSH1 0x40 MSTORE DUP1 PUSH1 0x7 DUP2 MSTORE PUSH1 0x20 ADD PUSH32 0x50454E44494E4700000000000000000000000000000000000000000000000000 DUP2 MSTORE POP DUP2 PUSH1 0x3 ADD SWAP1 DUP2 PUSH2 0x33BD SWAP2 SWAP1 PUSH2 0x563A JUMP JUMPDEST POP PUSH1 0x7 DUP2 SWAP1 DUP1 PUSH1 0x1 DUP2 SLOAD ADD DUP1 DUP3 SSTORE DUP1 SWAP2 POP POP PUSH1 0x1 SWAP1 SUB SWAP1 PUSH0 MSTORE PUSH1 0x20 PUSH0 KECCAK256 SWAP1 PUSH1 0x4 MUL ADD PUSH0 SWAP1 SWAP2 SWAP1 SWAP2 SWAP1 SWAP2 POP PUSH0 DUP3 ADD DUP2 PUSH0 ADD SWAP1 DUP2 PUSH2 0x33F9 SWAP2 SWAP1 PUSH2 0x54F5 JUMP JUMPDEST POP PUSH1 0x1 DUP3 ADD DUP2 PUSH1 0x1 ADD SWAP1 DUP2 PUSH2 0x340E SWAP2 SWAP1 PUSH2 0x54F5 JUMP JUMPDEST POP PUSH1 0x2 DUP3 ADD DUP2 PUSH1 0x2 ADD SWAP1 DUP2 PUSH2 0x3423 SWAP2 SWAP1 PUSH2 0x54F5 JUMP JUMPDEST POP PUSH1 0x3 DUP3 ADD DUP2 PUSH1 0x3 ADD SWAP1 DUP2 PUSH2 0x3438 SWAP2 SWAP1 PUSH2 0x54F5 JUMP JUMPDEST POP POP POP PUSH1 0x2 SWAP8 POP POP POP POP POP POP POP POP PUSH2 0x3455 JUMP JUMPDEST PUSH1 0x1 SWAP6 POP POP POP POP POP POP JUMPDEST SWAP2 SWAP1 POP JUMP JUMPDEST PUSH1 0xB PUSH0 CALLER PUSH20 0xFFFFFFFFFFFFFFFFFFFFFFFFFFFFFFFFFFFFFFFF AND PUSH20 0xFFFFFFFFFFFFFFFFFFFFFFFFFFFFFFFFFFFFFFFF AND DUP2 MSTORE PUSH1 0x20 ADD SWAP1 DUP2 MSTORE PUSH1 0x20 ADD PUSH0 KECCAK256 PUSH1 0x2 ADD PUSH0 SWAP1 SLOAD SWAP1 PUSH2 0x100 EXP SWAP1 DIV PUSH20 0xFFFFFFFFFFFFFFFFFFFFFFFFFFFFFFFFFFFFFFFF AND PUSH20 0xFFFFFFFFFFFFFFFFFFFFFFFFFFFFFFFFFFFFFFFF AND CALLER PUSH20 0xFFFFFFFFFFFFFFFFFFFFFFFFFFFFFFFFFFFFFFFF AND EQ PUSH2 0x34F0 JUMPI PUSH0 DUP1 REVERT JUMPDEST PUSH0 PUSH1 0xC DUP6 PUSH1 0x40 MLOAD PUSH2 0x3501 SWAP2 SWAP1 PUSH2 0x532D JUMP JUMPDEST SWAP1 DUP2 MSTORE PUSH1 0x20 ADD PUSH1 0x40 MLOAD DUP1 SWAP2 SUB SWAP1 KECCAK256 SWAP1 POP DUP6 DUP2 PUSH0 ADD SWAP1 DUP2 PUSH2 0x3521 SWAP2 SWAP1 PUSH2 0x563A JUMP JUMPDEST POP DUP5 DUP2 PUSH1 0x1 ADD SWAP1 DUP2 PUSH2 0x3533 SWAP2 SWAP1 PUSH2 0x563A JUMP JUMPDEST POP DUP4 DUP2 PUSH1 0x2 ADD SWAP1 DUP2 PUSH2 0x3545 SWAP2 SWAP1 PUSH2 0x563A JUMP JUMPDEST POP DUP3 DUP2 PUSH1 0x3 ADD SWAP1 DUP2 PUSH2 0x3557 SWAP2 SWAP1 PUSH2 0x563A JUMP JUMPDEST POP PUSH1 0x3 PUSH0 DUP2 SLOAD DUP1 SWAP3 SWAP2 SWAP1 PUSH2 0x356A SWAP1 PUSH2 0x596D JUMP JUMPDEST SWAP2 SWAP1 POP SSTORE DUP2 PUSH1 0x4 ADD DUP2 SWAP1 SSTORE POP PUSH1 0x40 MLOAD DUP1 PUSH1 0x40 ADD PUSH1 0x40 MSTORE DUP1 PUSH1 0x7 DUP2 MSTORE PUSH1 0x20 ADD PUSH32 0x50454E44494E4700000000000000000000000000000000000000000000000000 DUP2 MSTORE POP DUP2 PUSH1 0x5 ADD SWAP1 DUP2 PUSH2 0x35BC SWAP2 SWAP1 PUSH2 0x563A JUMP JUMPDEST POP CALLER DUP2 PUSH1 0x6 ADD PUSH0 PUSH2 0x100 EXP DUP2 SLOAD DUP2 PUSH20 0xFFFFFFFFFFFFFFFFFFFFFFFFFFFFFFFFFFFFFFFF MUL NOT AND SWAP1 DUP4 PUSH20 0xFFFFFFFFFFFFFFFFFFFFFFFFFFFFFFFFFFFFFFFF AND MUL OR SWAP1 SSTORE POP DUP2 DUP2 PUSH1 0x7 ADD DUP2 SWAP1 SSTORE POP PUSH1 0x40 MLOAD DUP1 PUSH1 0x40 ADD PUSH1 0x40 MSTORE DUP1 PUSH1 0x3 DUP2 MSTORE PUSH1 0x20 ADD PUSH32 0x484F440000000000000000000000000000000000000000000000000000000000 DUP2 MSTORE POP DUP2 PUSH1 0x8 ADD SWAP1 DUP2 PUSH2 0x364E SWAP2 SWAP1 PUSH2 0x563A JUMP JUMPDEST POP PUSH0 PUSH2 0x3659 DUP4 PUSH2 0x41C2 JUMP JUMPDEST SWAP1 POP DUP1 DUP3 PUSH1 0x9 ADD SWAP1 DUP2 PUSH2 0x366C SWAP2 SWAP1 PUSH2 0x563A JUMP JUMPDEST POP PUSH0 PUSH1 0xE DUP8 PUSH1 0x40 MLOAD PUSH2 0x367E SWAP2 SWAP1 PUSH2 0x532D JUMP JUMPDEST SWAP1 DUP2 MSTORE PUSH1 0x20 ADD PUSH1 0x40 MLOAD DUP1 SWAP2 SUB SWAP1 KECCAK256 SWAP1 POP DUP7 DUP2 PUSH0 ADD SWAP1 DUP2 PUSH2 0x369E SWAP2 SWAP1 PUSH2 0x563A JUMP JUMPDEST POP PUSH0 PUSH1 0xB PUSH0 CALLER PUSH20 0xFFFFFFFFFFFFFFFFFFFFFFFFFFFFFFFFFFFFFFFF AND PUSH20 0xFFFFFFFFFFFFFFFFFFFFFFFFFFFFFFFFFFFFFFFF AND DUP2 MSTORE PUSH1 0x20 ADD SWAP1 DUP2 MSTORE PUSH1 0x20 ADD PUSH0 KECCAK256 SWAP1 POP DUP2 PUSH1 0x1 ADD DUP2 SWAP1 DUP1 PUSH1 0x1 DUP2 SLOAD ADD DUP1 DUP3 SSTORE DUP1 SWAP2 POP POP PUSH1 0x1 SWAP1 SUB SWAP1 PUSH0 MSTORE PUSH1 0x20 PUSH0 KECCAK256 SWAP1 PUSH1 0x7 MUL ADD PUSH0 SWAP1 SWAP2 SWAP1 SWAP2 SWAP1 SWAP2 POP PUSH0 DUP3 ADD DUP2 PUSH0 ADD SWAP1 DUP2 PUSH2 0x371C SWAP2 SWAP1 PUSH2 0x54F5 JUMP JUMPDEST POP PUSH1 0x1 DUP3 ADD DUP2 PUSH1 0x1 ADD SWAP1 DUP2 PUSH2 0x3731 SWAP2 SWAP1 PUSH2 0x54F5 JUMP JUMPDEST POP PUSH1 0x2 DUP3 ADD PUSH0 SWAP1 SLOAD SWAP1 PUSH2 0x100 EXP SWAP1 DIV PUSH20 0xFFFFFFFFFFFFFFFFFFFFFFFFFFFFFFFFFFFFFFFF AND DUP2 PUSH1 0x2 ADD PUSH0 PUSH2 0x100 EXP DUP2 SLOAD DUP2 PUSH20 0xFFFFFFFFFFFFFFFFFFFFFFFFFFFFFFFFFFFFFFFF MUL NOT AND SWAP1 DUP4 PUSH20 0xFFFFFFFFFFFFFFFFFFFFFFFFFFFFFFFFFFFFFFFF AND MUL OR SWAP1 SSTORE POP PUSH1 0x3 DUP3 ADD SLOAD DUP2 PUSH1 0x3 ADD SSTORE PUSH1 0x4 DUP3 ADD SLOAD DUP2 PUSH1 0x4 ADD SSTORE PUSH1 0x5 DUP3 ADD SLOAD DUP2 PUSH1 0x5 ADD SSTORE PUSH1 0x6 DUP3 ADD SLOAD DUP2 PUSH1 0x6 ADD SSTORE POP POP TIMESTAMP DUP5 PUSH1 0xA ADD DUP2 SWAP1 SSTORE POP PUSH1 0x6 DUP5 SWAP1 DUP1 PUSH1 0x1 DUP2 SLOAD ADD DUP1 DUP3 SSTORE DUP1 SWAP2 POP POP PUSH1 0x1 SWAP1 SUB SWAP1 PUSH0 MSTORE PUSH1 0x20 PUSH0 KECCAK256 SWAP1 PUSH1 0xB MUL ADD PUSH0 SWAP1 SWAP2 SWAP1 SWAP2 SWAP1 SWAP2 POP PUSH0 DUP3 ADD DUP2 PUSH0 ADD SWAP1 DUP2 PUSH2 0x3805 SWAP2 SWAP1 PUSH2 0x54F5 JUMP JUMPDEST POP PUSH1 0x1 DUP3 ADD DUP2 PUSH1 0x1 ADD SWAP1 DUP2 PUSH2 0x381A SWAP2 SWAP1 PUSH2 0x54F5 JUMP JUMPDEST POP PUSH1 0x2 DUP3 ADD DUP2 PUSH1 0x2 ADD SWAP1 DUP2 PUSH2 0x382F SWAP2 SWAP1 PUSH2 0x54F5 JUMP JUMPDEST POP PUSH1 0x3 DUP3 ADD DUP2 PUSH1 0x3 ADD SWAP1 DUP2 PUSH2 0x3844 SWAP2 SWAP1 PUSH2 0x54F5 JUMP JUMPDEST POP PUSH1 0x4 DUP3 ADD SLOAD DUP2 PUSH1 0x4 ADD SSTORE PUSH1 0x5 DUP3 ADD DUP2 PUSH1 0x5 ADD SWAP1 DUP2 PUSH2 0x3863 SWAP2 SWAP1 PUSH2 0x54F5 JUMP JUMPDEST POP PUSH1 0x6 DUP3 ADD PUSH0 SWAP1 SLOAD SWAP1 PUSH2 0x100 EXP SWAP1 DIV PUSH20 0xFFFFFFFFFFFFFFFFFFFFFFFFFFFFFFFFFFFFFFFF AND DUP2 PUSH1 0x6 ADD PUSH0 PUSH2 0x100 EXP DUP2 SLOAD DUP2 PUSH20 0xFFFFFFFFFFFFFFFFFFFFFFFFFFFFFFFFFFFFFFFF MUL NOT AND SWAP1 DUP4 PUSH20 0xFFFFFFFFFFFFFFFFFFFFFFFFFFFFFFFFFFFFFFFF AND MUL OR SWAP1 SSTORE POP PUSH1 0x7 DUP3 ADD SLOAD DUP2 PUSH1 0x7 ADD SSTORE PUSH1 0x8 DUP3 ADD DUP2 PUSH1 0x8 ADD SWAP1 DUP2 PUSH2 0x38E7 SWAP2 SWAP1 PUSH2 0x54F5 JUMP JUMPDEST POP PUSH1 0x9 DUP3 ADD DUP2 PUSH1 0x9 ADD SWAP1 DUP2 PUSH2 0x38FC SWAP2 SWAP1 PUSH2 0x54F5 JUMP JUMPDEST POP PUSH1 0xA DUP3 ADD SLOAD DUP2 PUSH1 0xA ADD SSTORE POP POP PUSH0 PUSH1 0xD DUP10 PUSH1 0x40 MLOAD PUSH2 0x391A SWAP2 SWAP1 PUSH2 0x532D JUMP JUMPDEST SWAP1 DUP2 MSTORE PUSH1 0x20 ADD PUSH1 0x40 MLOAD DUP1 SWAP2 SUB SWAP1 KECCAK256 SWAP1 POP PUSH1 0x40 MLOAD DUP1 PUSH1 0x40 ADD PUSH1 0x40 MSTORE DUP1 PUSH1 0x13 DUP2 MSTORE PUSH1 0x20 ADD PUSH32 0x5472616E73616374696F6E204372656174656400000000000000000000000000 DUP2 MSTORE POP DUP2 PUSH0 ADD SWAP1 DUP2 PUSH2 0x396F SWAP2 SWAP1 PUSH2 0x563A JUMP JUMPDEST POP DUP9 PUSH1 0x40 MLOAD PUSH1 0x20 ADD PUSH2 0x3981 SWAP2 SWAP1 PUSH2 0x5C3C JUMP JUMPDEST PUSH1 0x40 MLOAD PUSH1 0x20 DUP2 DUP4 SUB SUB DUP2 MSTORE SWAP1 PUSH1 0x40 MSTORE DUP2 PUSH1 0x1 ADD SWAP1 DUP2 PUSH2 0x39A0 SWAP2 SWAP1 PUSH2 0x563A JUMP JUMPDEST POP DUP9 DUP2 PUSH1 0x2 ADD SWAP1 DUP2 PUSH2 0x39B2 SWAP2 SWAP1 PUSH2 0x563A JUMP JUMPDEST POP PUSH1 0x40 MLOAD DUP1 PUSH1 0x40 ADD PUSH1 0x40 MSTORE DUP1 PUSH1 0x6 DUP2 MSTORE PUSH1 0x20 ADD PUSH32 0x6372656174650000000000000000000000000000000000000000000000000000 DUP2 MSTORE POP DUP2 PUSH1 0x3 ADD SWAP1 DUP2 PUSH2 0x39F9 SWAP2 SWAP1 PUSH2 0x563A JUMP JUMPDEST POP PUSH1 0x7 DUP2 SWAP1 DUP1 PUSH1 0x1 DUP2 SLOAD ADD DUP1 DUP3 SSTORE DUP1 SWAP2 POP POP PUSH1 0x1 SWAP1 SUB SWAP1 PUSH0 MSTORE PUSH1 0x20 PUSH0 KECCAK256 SWAP1 PUSH1 0x4 MUL ADD PUSH0 SWAP1 SWAP2 SWAP1 SWAP2 SWAP1 SWAP2 POP PUSH0 DUP3 ADD DUP2 PUSH0 ADD SWAP1 DUP2 PUSH2 0x3A35 SWAP2 SWAP1 PUSH2 0x54F5 JUMP JUMPDEST POP PUSH1 0x1 DUP3 ADD DUP2 PUSH1 0x1 ADD SWAP1 DUP2 PUSH2 0x3A4A SWAP2 SWAP1 PUSH2 0x54F5 JUMP JUMPDEST POP PUSH1 0x2 DUP3 ADD DUP2 PUSH1 0x2 ADD SWAP1 DUP2 PUSH2 0x3A5F SWAP2 SWAP1 PUSH2 0x54F5 JUMP JUMPDEST POP PUSH1 0x3 DUP3 ADD DUP2 PUSH1 0x3 ADD SWAP1 DUP2 PUSH2 0x3A74 SWAP2 SWAP1 PUSH2 0x54F5 JUMP JUMPDEST POP POP POP POP POP POP POP POP POP POP POP POP POP JUMP JUMPDEST PUSH1 0x8 DUP2 DUP2 SLOAD DUP2 LT PUSH2 0x3A92 JUMPI PUSH0 DUP1 REVERT JUMPDEST SWAP1 PUSH0 MSTORE PUSH1 0x20 PUSH0 KECCAK256 SWAP1 PUSH1 0x5 MUL ADD PUSH0 SWAP2 POP SWAP1 POP DUP1 PUSH0 ADD SLOAD SWAP1 DUP1 PUSH1 0x1 ADD DUP1 SLOAD PUSH2 0x3AB7 SWAP1 PUSH2 0x52C3 JUMP JUMPDEST DUP1 PUSH1 0x1F ADD PUSH1 0x20 DUP1 SWAP2 DIV MUL PUSH1 0x20 ADD PUSH1 0x40 MLOAD SWAP1 DUP2 ADD PUSH1 0x40 MSTORE DUP1 SWAP3 SWAP2 SWAP1 DUP2 DUP2 MSTORE PUSH1 0x20 ADD DUP3 DUP1 SLOAD PUSH2 0x3AE3 SWAP1 PUSH2 0x52C3 JUMP JUMPDEST DUP1 ISZERO PUSH2 0x3B2E JUMPI DUP1 PUSH1 0x1F LT PUSH2 0x3B05 JUMPI PUSH2 0x100 DUP1 DUP4 SLOAD DIV MUL DUP4 MSTORE SWAP2 PUSH1 0x20 ADD SWAP2 PUSH2 0x3B2E JUMP JUMPDEST DUP3 ADD SWAP2 SWAP1 PUSH0 MSTORE PUSH1 0x20 PUSH0 KECCAK256 SWAP1 JUMPDEST DUP2 SLOAD DUP2 MSTORE SWAP1 PUSH1 0x1 ADD SWAP1 PUSH1 0x20 ADD DUP1 DUP4 GT PUSH2 0x3B11 JUMPI DUP3 SWAP1 SUB PUSH1 0x1F AND DUP3 ADD SWAP2 JUMPDEST POP POP POP POP POP SWAP1 DUP1 PUSH1 0x2 ADD DUP1 SLOAD PUSH2 0x3B43 SWAP1 PUSH2 0x52C3 JUMP JUMPDEST DUP1 PUSH1 0x1F ADD PUSH1 0x20 DUP1 SWAP2 DIV MUL PUSH1 0x20 ADD PUSH1 0x40 MLOAD SWAP1 DUP2 ADD PUSH1 0x40 MSTORE DUP1 SWAP3 SWAP2 SWAP1 DUP2 DUP2 MSTORE PUSH1 0x20 ADD DUP3 DUP1 SLOAD PUSH2 0x3B6F SWAP1 PUSH2 0x52C3 JUMP JUMPDEST DUP1 ISZERO PUSH2 0x3BBA JUMPI DUP1 PUSH1 0x1F LT PUSH2 0x3B91 JUMPI PUSH2 0x100 DUP1 DUP4 SLOAD DIV MUL DUP4 MSTORE SWAP2 PUSH1 0x20 ADD SWAP2 PUSH2 0x3BBA JUMP JUMPDEST DUP3 ADD SWAP2 SWAP1 PUSH0 MSTORE PUSH1 0x20 PUSH0 KECCAK256 SWAP1 JUMPDEST DUP2 SLOAD DUP2 MSTORE SWAP1 PUSH1 0x1 ADD SWAP1 PUSH1 0x20 ADD DUP1 DUP4 GT PUSH2 0x3B9D JUMPI DUP3 SWAP1 SUB PUSH1 0x1F AND DUP3 ADD SWAP2 JUMPDEST POP POP POP POP POP SWAP1 DUP1 PUSH1 0x3 ADD SLOAD SWAP1 DUP1 PUSH1 0x4 ADD SLOAD SWAP1 POP DUP6 JUMP JUMPDEST PUSH1 0x60 PUSH1 0x8 DUP1 SLOAD DUP1 PUSH1 0x20 MUL PUSH1 0x20 ADD PUSH1 0x40 MLOAD SWAP1 DUP2 ADD PUSH1 0x40 MSTORE DUP1 SWAP3 SWAP2 SWAP1 DUP2 DUP2 MSTORE PUSH1 0x20 ADD PUSH0 SWAP1 JUMPDEST DUP3 DUP3 LT ISZERO PUSH2 0x3D60 JUMPI DUP4 DUP3 SWAP1 PUSH0 MSTORE PUSH1 0x20 PUSH0 KECCAK256 SWAP1 PUSH1 0x5 MUL ADD PUSH1 0x40 MLOAD DUP1 PUSH1 0xA0 ADD PUSH1 0x40 MSTORE SWAP1 DUP2 PUSH0 DUP3 ADD SLOAD DUP2 MSTORE PUSH1 0x20 ADD PUSH1 0x1 DUP3 ADD DUP1 SLOAD PUSH2 0x3C2D SWAP1 PUSH2 0x52C3 JUMP JUMPDEST DUP1 PUSH1 0x1F ADD PUSH1 0x20 DUP1 SWAP2 DIV MUL PUSH1 0x20 ADD PUSH1 0x40 MLOAD SWAP1 DUP2 ADD PUSH1 0x40 MSTORE DUP1 SWAP3 SWAP2 SWAP1 DUP2 DUP2 MSTORE PUSH1 0x20 ADD DUP3 DUP1 SLOAD PUSH2 0x3C59 SWAP1 PUSH2 0x52C3 JUMP JUMPDEST DUP1 ISZERO PUSH2 0x3CA4 JUMPI DUP1 PUSH1 0x1F LT PUSH2 0x3C7B JUMPI PUSH2 0x100 DUP1 DUP4 SLOAD DIV MUL DUP4 MSTORE SWAP2 PUSH1 0x20 ADD SWAP2 PUSH2 0x3CA4 JUMP JUMPDEST DUP3 ADD SWAP2 SWAP1 PUSH0 MSTORE PUSH1 0x20 PUSH0 KECCAK256 SWAP1 JUMPDEST DUP2 SLOAD DUP2 MSTORE SWAP1 PUSH1 0x1 ADD SWAP1 PUSH1 0x20 ADD DUP1 DUP4 GT PUSH2 0x3C87 JUMPI DUP3 SWAP1 SUB PUSH1 0x1F AND DUP3 ADD SWAP2 JUMPDEST POP POP POP POP POP DUP2 MSTORE PUSH1 0x20 ADD PUSH1 0x2 DUP3 ADD DUP1 SLOAD PUSH2 0x3CBD SWAP1 PUSH2 0x52C3 JUMP JUMPDEST DUP1 PUSH1 0x1F ADD PUSH1 0x20 DUP1 SWAP2 DIV MUL PUSH1 0x20 ADD PUSH1 0x40 MLOAD SWAP1 DUP2 ADD PUSH1 0x40 MSTORE DUP1 SWAP3 SWAP2 SWAP1 DUP2 DUP2 MSTORE PUSH1 0x20 ADD DUP3 DUP1 SLOAD PUSH2 0x3CE9 SWAP1 PUSH2 0x52C3 JUMP JUMPDEST DUP1 ISZERO PUSH2 0x3D34 JUMPI DUP1 PUSH1 0x1F LT PUSH2 0x3D0B JUMPI PUSH2 0x100 DUP1 DUP4 SLOAD DIV MUL DUP4 MSTORE SWAP2 PUSH1 0x20 ADD SWAP2 PUSH2 0x3D34 JUMP JUMPDEST DUP3 ADD SWAP2 SWAP1 PUSH0 MSTORE PUSH1 0x20 PUSH0 KECCAK256 SWAP1 JUMPDEST DUP2 SLOAD DUP2 MSTORE SWAP1 PUSH1 0x1 ADD SWAP1 PUSH1 0x20 ADD DUP1 DUP4 GT PUSH2 0x3D17 JUMPI DUP3 SWAP1 SUB PUSH1 0x1F AND DUP3 ADD SWAP2 JUMPDEST POP POP POP POP POP DUP2 MSTORE PUSH1 0x20 ADD PUSH1 0x3 DUP3 ADD SLOAD DUP2 MSTORE PUSH1 0x20 ADD PUSH1 0x4 DUP3 ADD SLOAD DUP2 MSTORE POP POP DUP2 MSTORE PUSH1 0x20 ADD SWAP1 PUSH1 0x1 ADD SWAP1 PUSH2 0x3BF3 JUMP JUMPDEST POP POP POP POP SWAP1 POP SWAP1 JUMP JUMPDEST PUSH0 DUP2 PUSH1 0x40 MLOAD PUSH1 0x20 ADD PUSH2 0x3D7B SWAP2 SWAP1 PUSH2 0x532D JUMP JUMPDEST PUSH1 0x40 MLOAD PUSH1 0x20 DUP2 DUP4 SUB SUB DUP2 MSTORE SWAP1 PUSH1 0x40 MSTORE DUP1 MLOAD SWAP1 PUSH1 0x20 ADD KECCAK256 DUP4 PUSH1 0x40 MLOAD PUSH1 0x20 ADD PUSH2 0x3DA2 SWAP2 SWAP1 PUSH2 0x532D JUMP JUMPDEST PUSH1 0x40 MLOAD PUSH1 0x20 DUP2 DUP4 SUB SUB DUP2 MSTORE SWAP1 PUSH1 0x40 MSTORE DUP1 MLOAD SWAP1 PUSH1 0x20 ADD KECCAK256 EQ SWAP1 POP SWAP3 SWAP2 POP POP JUMP JUMPDEST PUSH1 0x60 PUSH2 0x3E02 DUP3 PUSH1 0x40 MLOAD DUP1 PUSH1 0x40 ADD PUSH1 0x40 MSTORE DUP1 PUSH1 0x3 DUP2 MSTORE PUSH1 0x20 ADD PUSH32 0x484F440000000000000000000000000000000000000000000000000000000000 DUP2 MSTORE POP PUSH2 0x3D69 JUMP JUMPDEST ISZERO PUSH2 0x3E44 JUMPI PUSH1 0x40 MLOAD DUP1 PUSH1 0x40 ADD PUSH1 0x40 MSTORE DUP1 PUSH1 0x2 DUP2 MSTORE PUSH1 0x20 ADD PUSH32 0x464F000000000000000000000000000000000000000000000000000000000000 DUP2 MSTORE POP SWAP1 POP PUSH2 0x3F7F JUMP JUMPDEST PUSH2 0x3E83 DUP3 PUSH1 0x40 MLOAD DUP1 PUSH1 0x40 ADD PUSH1 0x40 MSTORE DUP1 PUSH1 0x2 DUP2 MSTORE PUSH1 0x20 ADD PUSH32 0x464F000000000000000000000000000000000000000000000000000000000000 DUP2 MSTORE POP PUSH2 0x3D69 JUMP JUMPDEST ISZERO PUSH2 0x3EC5 JUMPI PUSH1 0x40 MLOAD DUP1 PUSH1 0x40 ADD PUSH1 0x40 MSTORE DUP1 PUSH1 0x3 DUP2 MSTORE PUSH1 0x20 ADD PUSH32 0x5245470000000000000000000000000000000000000000000000000000000000 DUP2 MSTORE POP SWAP1 POP PUSH2 0x3F7F JUMP JUMPDEST PUSH2 0x3F04 DUP3 PUSH1 0x40 MLOAD DUP1 PUSH1 0x40 ADD PUSH1 0x40 MSTORE DUP1 PUSH1 0x3 DUP2 MSTORE PUSH1 0x20 ADD PUSH32 0x5245470000000000000000000000000000000000000000000000000000000000 DUP2 MSTORE POP PUSH2 0x3D69 JUMP JUMPDEST ISZERO PUSH2 0x3F46 JUMPI PUSH1 0x40 MLOAD DUP1 PUSH1 0x40 ADD PUSH1 0x40 MSTORE DUP1 PUSH1 0x2 DUP2 MSTORE PUSH1 0x20 ADD PUSH32 0x5643000000000000000000000000000000000000000000000000000000000000 DUP2 MSTORE POP SWAP1 POP PUSH2 0x3F7F JUMP JUMPDEST PUSH1 0x40 MLOAD DUP1 PUSH1 0x40 ADD PUSH1 0x40 MSTORE DUP1 PUSH1 0x2 DUP2 MSTORE PUSH1 0x20 ADD PUSH32 0x4343000000000000000000000000000000000000000000000000000000000000 DUP2 MSTORE POP SWAP1 POP JUMPDEST SWAP2 SWAP1 POP JUMP JUMPDEST PUSH0 DUP1 TIMESTAMP SWAP1 POP PUSH2 0x3FC8 DUP5 PUSH1 0x40 MLOAD DUP1 PUSH1 0x40 ADD PUSH1 0x40 MSTORE DUP1 PUSH1 0x3 DUP2 MSTORE PUSH1 0x20 ADD PUSH32 0x484F440000000000000000000000000000000000000000000000000000000000 DUP2 MSTORE POP PUSH2 0x3D69 JUMP JUMPDEST DUP1 ISZERO PUSH2 0x3FE0 JUMPI POP DUP1 PUSH1 0x5 SLOAD DUP5 PUSH2 0x3FDE SWAP2 SWAP1 PUSH2 0x5607 JUMP JUMPDEST GT JUMPDEST ISZERO PUSH2 0x3FEF JUMPI PUSH1 0x1 SWAP2 POP POP PUSH2 0x41BC JUMP JUMPDEST PUSH2 0x402E DUP5 PUSH1 0x40 MLOAD DUP1 PUSH1 0x40 ADD PUSH1 0x40 MSTORE DUP1 PUSH1 0x2 DUP2 MSTORE PUSH1 0x20 ADD PUSH32 0x464F000000000000000000000000000000000000000000000000000000000000 DUP2 MSTORE POP PUSH2 0x3D69 JUMP JUMPDEST DUP1 ISZERO PUSH2 0x4052 JUMPI POP DUP1 PUSH1 0x5 SLOAD PUSH1 0x3 PUSH2 0x4045 SWAP2 SWAP1 PUSH2 0x5C73 JUMP JUMPDEST DUP5 PUSH2 0x4050 SWAP2 SWAP1 PUSH2 0x5607 JUMP JUMPDEST GT JUMPDEST ISZERO PUSH2 0x4061 JUMPI PUSH1 0x1 SWAP2 POP POP PUSH2 0x41BC JUMP JUMPDEST PUSH2 0x40A0 DUP5 PUSH1 0x40 MLOAD DUP1 PUSH1 0x40 ADD PUSH1 0x40 MSTORE DUP1 PUSH1 0x3 DUP2 MSTORE PUSH1 0x20 ADD PUSH32 0x5245470000000000000000000000000000000000000000000000000000000000 DUP2 MSTORE POP PUSH2 0x3D69 JUMP JUMPDEST DUP1 ISZERO PUSH2 0x40C4 JUMPI POP DUP1 PUSH1 0x5 SLOAD PUSH1 0x5 PUSH2 0x40B7 SWAP2 SWAP1 PUSH2 0x5C73 JUMP JUMPDEST DUP5 PUSH2 0x40C2 SWAP2 SWAP1 PUSH2 0x5607 JUMP JUMPDEST GT JUMPDEST ISZERO PUSH2 0x40D3 JUMPI PUSH1 0x1 SWAP2 POP POP PUSH2 0x41BC JUMP JUMPDEST PUSH2 0x4112 DUP5 PUSH1 0x40 MLOAD DUP1 PUSH1 0x40 ADD PUSH1 0x40 MSTORE DUP1 PUSH1 0x2 DUP2 MSTORE PUSH1 0x20 ADD PUSH32 0x5643000000000000000000000000000000000000000000000000000000000000 DUP2 MSTORE POP PUSH2 0x3D69 JUMP JUMPDEST DUP1 ISZERO PUSH2 0x4136 JUMPI POP DUP1 PUSH1 0x5 SLOAD PUSH1 0x7 PUSH2 0x4129 SWAP2 SWAP1 PUSH2 0x5C73 JUMP JUMPDEST DUP5 PUSH2 0x4134 SWAP2 SWAP1 PUSH2 0x5607 JUMP JUMPDEST GT JUMPDEST ISZERO PUSH2 0x4145 JUMPI PUSH1 0x1 SWAP2 POP POP PUSH2 0x41BC JUMP JUMPDEST PUSH2 0x4184 DUP5 PUSH1 0x40 MLOAD DUP1 PUSH1 0x40 ADD PUSH1 0x40 MSTORE DUP1 PUSH1 0x2 DUP2 MSTORE PUSH1 0x20 ADD PUSH32 0x4343000000000000000000000000000000000000000000000000000000000000 DUP2 MSTORE POP PUSH2 0x3D69 JUMP JUMPDEST DUP1 ISZERO PUSH2 0x41A8 JUMPI POP DUP1 PUSH1 0x5 SLOAD PUSH1 0xA PUSH2 0x419B SWAP2 SWAP1 PUSH2 0x5C73 JUMP JUMPDEST DUP5 PUSH2 0x41A6 SWAP2 SWAP1 PUSH2 0x5607 JUMP JUMPDEST GT JUMPDEST ISZERO PUSH2 0x41B7 JUMPI PUSH1 0x1 SWAP2 POP POP PUSH2 0x41BC JUMP JUMPDEST PUSH0 SWAP2 POP POP JUMPDEST SWAP3 SWAP2 POP POP JUMP JUMPDEST PUSH1 0x60 PUSH2 0x1388 DUP3 GT PUSH2 0x420A JUMPI PUSH1 0x40 MLOAD DUP1 PUSH1 0x40 ADD PUSH1 0x40 MSTORE DUP1 PUSH1 0x3 DUP2 MSTORE PUSH1 0x20 ADD PUSH32 0x484F440000000000000000000000000000000000000000000000000000000000 DUP2 MSTORE POP SWAP1 POP PUSH2 0x4345 JUMP JUMPDEST PUSH2 0x1388 DUP3 GT DUP1 ISZERO PUSH2 0x421D JUMPI POP PUSH2 0x2710 DUP3 GT ISZERO JUMPDEST ISZERO PUSH2 0x425F JUMPI PUSH1 0x40 MLOAD DUP1 PUSH1 0x40 ADD PUSH1 0x40 MSTORE DUP1 PUSH1 0x2 DUP2 MSTORE PUSH1 0x20 ADD PUSH32 0x464F000000000000000000000000000000000000000000000000000000000000 DUP2 MSTORE POP SWAP1 POP PUSH2 0x4345 JUMP JUMPDEST PUSH2 0x2710 DUP3 GT DUP1 ISZERO PUSH2 0x4273 JUMPI POP PUSH3 0x124F8 DUP3 GT ISZERO JUMPDEST ISZERO PUSH2 0x42B5 JUMPI PUSH1 0x40 MLOAD DUP1 PUSH1 0x40 ADD PUSH1 0x40 MSTORE DUP1 PUSH1 0x3 DUP2 MSTORE PUSH1 0x20 ADD PUSH32 0x5245470000000000000000000000000000000000000000000000000000000000 DUP2 MSTORE POP SWAP1 POP PUSH2 0x4345 JUMP JUMPDEST PUSH3 0x124F8 DUP3 GT DUP1 ISZERO PUSH2 0x42CA JUMPI POP PUSH3 0x493E0 DUP3 GT ISZERO JUMPDEST ISZERO PUSH2 0x430C JUMPI PUSH1 0x40 MLOAD DUP1 PUSH1 0x40 ADD PUSH1 0x40 MSTORE DUP1 PUSH1 0x2 DUP2 MSTORE PUSH1 0x20 ADD PUSH32 0x5643000000000000000000000000000000000000000000000000000000000000 DUP2 MSTORE POP SWAP1 POP PUSH2 0x4345 JUMP JUMPDEST PUSH1 0x40 MLOAD DUP1 PUSH1 0x40 ADD PUSH1 0x40 MSTORE DUP1 PUSH1 0x2 DUP2 MSTORE PUSH1 0x20 ADD PUSH32 0x4343000000000000000000000000000000000000000000000000000000000000 DUP2 MSTORE POP SWAP1 POP JUMPDEST SWAP2 SWAP1 POP JUMP JUMPDEST PUSH1 0x40 MLOAD DUP1 PUSH1 0x40 ADD PUSH1 0x40 MSTORE DUP1 PUSH1 0x60 DUP2 MSTORE PUSH1 0x20 ADD PUSH1 0x60 DUP2 MSTORE POP SWAP1 JUMP JUMPDEST PUSH0 PUSH1 0x40 MLOAD SWAP1 POP SWAP1 JUMP JUMPDEST PUSH0 DUP1 REVERT JUMPDEST PUSH0 DUP1 REVERT JUMPDEST PUSH0 DUP1 REVERT JUMPDEST PUSH0 DUP1 REVERT JUMPDEST PUSH0 PUSH1 0x1F NOT PUSH1 0x1F DUP4 ADD AND SWAP1 POP SWAP2 SWAP1 POP JUMP JUMPDEST PUSH32 0x4E487B7100000000000000000000000000000000000000000000000000000000 PUSH0 MSTORE PUSH1 0x41 PUSH1 0x4 MSTORE PUSH1 0x24 PUSH0 REVERT JUMPDEST PUSH2 0x43C3 DUP3 PUSH2 0x437D JUMP JUMPDEST DUP2 ADD DUP2 DUP2 LT PUSH8 0xFFFFFFFFFFFFFFFF DUP3 GT OR ISZERO PUSH2 0x43E2 JUMPI PUSH2 0x43E1 PUSH2 0x438D JUMP JUMPDEST JUMPDEST DUP1 PUSH1 0x40 MSTORE POP POP POP JUMP JUMPDEST PUSH0 PUSH2 0x43F4 PUSH2 0x4364 JUMP JUMPDEST SWAP1 POP PUSH2 0x4400 DUP3 DUP3 PUSH2 0x43BA JUMP JUMPDEST SWAP2 SWAP1 POP JUMP JUMPDEST PUSH0 PUSH8 0xFFFFFFFFFFFFFFFF DUP3 GT ISZERO PUSH2 0x441F JUMPI PUSH2 0x441E PUSH2 0x438D JUMP JUMPDEST JUMPDEST PUSH2 0x4428 DUP3 PUSH2 0x437D JUMP JUMPDEST SWAP1 POP PUSH1 0x20 DUP2 ADD SWAP1 POP SWAP2 SWAP1 POP JUMP JUMPDEST DUP3 DUP2 DUP4 CALLDATACOPY PUSH0 DUP4 DUP4 ADD MSTORE POP POP POP JUMP JUMPDEST PUSH0 PUSH2 0x4455 PUSH2 0x4450 DUP5 PUSH2 0x4405 JUMP JUMPDEST PUSH2 0x43EB JUMP JUMPDEST SWAP1 POP DUP3 DUP2 MSTORE PUSH1 0x20 DUP2 ADD DUP5 DUP5 DUP5 ADD GT ISZERO PUSH2 0x4471 JUMPI PUSH2 0x4470 PUSH2 0x4379 JUMP JUMPDEST JUMPDEST PUSH2 0x447C DUP5 DUP3 DUP6 PUSH2 0x4435 JUMP JUMPDEST POP SWAP4 SWAP3 POP POP POP JUMP JUMPDEST PUSH0 DUP3 PUSH1 0x1F DUP4 ADD SLT PUSH2 0x4498 JUMPI PUSH2 0x4497 PUSH2 0x4375 JUMP JUMPDEST JUMPDEST DUP2 CALLDATALOAD PUSH2 0x44A8 DUP5 DUP3 PUSH1 0x20 DUP7 ADD PUSH2 0x4443 JUMP JUMPDEST SWAP2 POP POP SWAP3 SWAP2 POP POP JUMP JUMPDEST PUSH0 PUSH1 0x20 DUP3 DUP5 SUB SLT ISZERO PUSH2 0x44C6 JUMPI PUSH2 0x44C5 PUSH2 0x436D JUMP JUMPDEST JUMPDEST PUSH0 DUP3 ADD CALLDATALOAD PUSH8 0xFFFFFFFFFFFFFFFF DUP2 GT ISZERO PUSH2 0x44E3 JUMPI PUSH2 0x44E2 PUSH2 0x4371 JUMP JUMPDEST JUMPDEST PUSH2 0x44EF DUP5 DUP3 DUP6 ADD PUSH2 0x4484 JUMP JUMPDEST SWAP2 POP POP SWAP3 SWAP2 POP POP JUMP JUMPDEST PUSH0 DUP2 MLOAD SWAP1 POP SWAP2 SWAP1 POP JUMP JUMPDEST PUSH0 DUP3 DUP3 MSTORE PUSH1 0x20 DUP3 ADD SWAP1 POP SWAP3 SWAP2 POP POP JUMP JUMPDEST PUSH0 JUMPDEST DUP4 DUP2 LT ISZERO PUSH2 0x452F JUMPI DUP1 DUP3 ADD MLOAD DUP2 DUP5 ADD MSTORE PUSH1 0x20 DUP2 ADD SWAP1 POP PUSH2 0x4514 JUMP JUMPDEST PUSH0 DUP5 DUP5 ADD MSTORE POP POP POP POP JUMP JUMPDEST PUSH0 PUSH2 0x4544 DUP3 PUSH2 0x44F8 JUMP JUMPDEST PUSH2 0x454E DUP2 DUP6 PUSH2 0x4502 JUMP JUMPDEST SWAP4 POP PUSH2 0x455E DUP2 DUP6 PUSH1 0x20 DUP7 ADD PUSH2 0x4512 JUMP JUMPDEST PUSH2 0x4567 DUP2 PUSH2 0x437D JUMP JUMPDEST DUP5 ADD SWAP2 POP POP SWAP3 SWAP2 POP POP JUMP JUMPDEST PUSH0 PUSH1 0x80 DUP3 ADD SWAP1 POP DUP2 DUP2 SUB PUSH0 DUP4 ADD MSTORE PUSH2 0x458A DUP2 DUP8 PUSH2 0x453A JUMP JUMPDEST SWAP1 POP DUP2 DUP2 SUB PUSH1 0x20 DUP4 ADD MSTORE PUSH2 0x459E DUP2 DUP7 PUSH2 0x453A JUMP JUMPDEST SWAP1 POP DUP2 DUP2 SUB PUSH1 0x40 DUP4 ADD MSTORE PUSH2 0x45B2 DUP2 DUP6 PUSH2 0x453A JUMP JUMPDEST SWAP1 POP DUP2 DUP2 SUB PUSH1 0x60 DUP4 ADD MSTORE PUSH2 0x45C6 DUP2 DUP5 PUSH2 0x453A JUMP JUMPDEST SWAP1 POP SWAP6 SWAP5 POP POP POP POP POP JUMP JUMPDEST PUSH0 PUSH20 0xFFFFFFFFFFFFFFFFFFFFFFFFFFFFFFFFFFFFFFFF DUP3 AND SWAP1 POP SWAP2 SWAP1 POP JUMP JUMPDEST PUSH0 PUSH2 0x45FA DUP3 PUSH2 0x45D1 JUMP JUMPDEST SWAP1 POP SWAP2 SWAP1 POP JUMP JUMPDEST PUSH2 0x460A DUP2 PUSH2 0x45F0 JUMP JUMPDEST DUP3 MSTORE POP POP JUMP JUMPDEST PUSH0 PUSH1 0x20 DUP3 ADD SWAP1 POP PUSH2 0x4623 PUSH0 DUP4 ADD DUP5 PUSH2 0x4601 JUMP JUMPDEST SWAP3 SWAP2 POP POP JUMP JUMPDEST PUSH0 DUP2 SWAP1 POP SWAP2 SWAP1 POP JUMP JUMPDEST PUSH2 0x463B DUP2 PUSH2 0x4629 JUMP JUMPDEST DUP2 EQ PUSH2 0x4645 JUMPI PUSH0 DUP1 REVERT JUMPDEST POP JUMP JUMPDEST PUSH0 DUP2 CALLDATALOAD SWAP1 POP PUSH2 0x4656 DUP2 PUSH2 0x4632 JUMP JUMPDEST SWAP3 SWAP2 POP POP JUMP JUMPDEST PUSH0 PUSH1 0x20 DUP3 DUP5 SUB SLT ISZERO PUSH2 0x4671 JUMPI PUSH2 0x4670 PUSH2 0x436D JUMP JUMPDEST JUMPDEST PUSH0 PUSH2 0x467E DUP5 DUP3 DUP6 ADD PUSH2 0x4648 JUMP JUMPDEST SWAP2 POP POP SWAP3 SWAP2 POP POP JUMP JUMPDEST PUSH2 0x4690 DUP2 PUSH2 0x4629 JUMP JUMPDEST DUP3 MSTORE POP POP JUMP JUMPDEST PUSH0 PUSH2 0x160 DUP3 ADD SWAP1 POP DUP2 DUP2 SUB PUSH0 DUP4 ADD MSTORE PUSH2 0x46AF DUP2 DUP15 PUSH2 0x453A JUMP JUMPDEST SWAP1 POP DUP2 DUP2 SUB PUSH1 0x20 DUP4 ADD MSTORE PUSH2 0x46C3 DUP2 DUP14 PUSH2 0x453A JUMP JUMPDEST SWAP1 POP DUP2 DUP2 SUB PUSH1 0x40 DUP4 ADD MSTORE PUSH2 0x46D7 DUP2 DUP13 PUSH2 0x453A JUMP JUMPDEST SWAP1 POP DUP2 DUP2 SUB PUSH1 0x60 DUP4 ADD MSTORE PUSH2 0x46EB DUP2 DUP12 PUSH2 0x453A JUMP JUMPDEST SWAP1 POP PUSH2 0x46FA PUSH1 0x80 DUP4 ADD DUP11 PUSH2 0x4687 JUMP JUMPDEST DUP2 DUP2 SUB PUSH1 0xA0 DUP4 ADD MSTORE PUSH2 0x470C DUP2 DUP10 PUSH2 0x453A JUMP JUMPDEST SWAP1 POP PUSH2 0x471B PUSH1 0xC0 DUP4 ADD DUP9 PUSH2 0x4601 JUMP JUMPDEST PUSH2 0x4728 PUSH1 0xE0 DUP4 ADD DUP8 PUSH2 0x4687 JUMP JUMPDEST DUP2 DUP2 SUB PUSH2 0x100 DUP4 ADD MSTORE PUSH2 0x473B DUP2 DUP7 PUSH2 0x453A JUMP JUMPDEST SWAP1 POP DUP2 DUP2 SUB PUSH2 0x120 DUP4 ADD MSTORE PUSH2 0x4750 DUP2 DUP6 PUSH2 0x453A JUMP JUMPDEST SWAP1 POP PUSH2 0x4760 PUSH2 0x140 DUP4 ADD DUP5 PUSH2 0x4687 JUMP JUMPDEST SWAP13 SWAP12 POP POP POP POP POP POP POP POP POP POP POP POP JUMP JUMPDEST PUSH0 PUSH1 0xA0 DUP3 ADD SWAP1 POP PUSH2 0x4783 PUSH0 DUP4 ADD DUP9 PUSH2 0x4687 JUMP JUMPDEST DUP2 DUP2 SUB PUSH1 0x20 DUP4 ADD MSTORE PUSH2 0x4795 DUP2 DUP8 PUSH2 0x453A JUMP JUMPDEST SWAP1 POP DUP2 DUP2 SUB PUSH1 0x40 DUP4 ADD MSTORE PUSH2 0x47A9 DUP2 DUP7 PUSH2 0x453A JUMP JUMPDEST SWAP1 POP PUSH2 0x47B8 PUSH1 0x60 DUP4 ADD DUP6 PUSH2 0x4687 JUMP JUMPDEST PUSH2 0x47C5 PUSH1 0x80 DUP4 ADD DUP5 PUSH2 0x4687 JUMP JUMPDEST SWAP7 SWAP6 POP POP POP POP POP POP JUMP JUMPDEST PUSH0 DUP2 MLOAD SWAP1 POP SWAP2 SWAP1 POP JUMP JUMPDEST PUSH0 DUP3 DUP3 MSTORE PUSH1 0x20 DUP3 ADD SWAP1 POP SWAP3 SWAP2 POP POP JUMP JUMPDEST PUSH0 DUP2 SWAP1 POP PUSH1 0x20 DUP3 ADD SWAP1 POP SWAP2 SWAP1 POP JUMP JUMPDEST PUSH0 DUP3 DUP3 MSTORE PUSH1 0x20 DUP3 ADD SWAP1 POP SWAP3 SWAP2 POP POP JUMP JUMPDEST PUSH0 PUSH2 0x4812 DUP3 PUSH2 0x44F8 JUMP JUMPDEST PUSH2 0x481C DUP2 DUP6 PUSH2 0x47F8 JUMP JUMPDEST SWAP4 POP PUSH2 0x482C DUP2 DUP6 PUSH1 0x20 DUP7 ADD PUSH2 0x4512 JUMP JUMPDEST PUSH2 0x4835 DUP2 PUSH2 0x437D JUMP JUMPDEST DUP5 ADD SWAP2 POP POP SWAP3 SWAP2 POP POP JUMP JUMPDEST PUSH2 0x4849 DUP2 PUSH2 0x4629 JUMP JUMPDEST DUP3 MSTORE POP POP JUMP JUMPDEST PUSH2 0x4858 DUP2 PUSH2 0x45F0 JUMP JUMPDEST DUP3 MSTORE POP POP JUMP JUMPDEST PUSH0 PUSH2 0x160 DUP4 ADD PUSH0 DUP4 ADD MLOAD DUP5 DUP3 SUB PUSH0 DUP7 ADD MSTORE PUSH2 0x4879 DUP3 DUP3 PUSH2 0x4808 JUMP JUMPDEST SWAP2 POP POP PUSH1 0x20 DUP4 ADD MLOAD DUP5 DUP3 SUB PUSH1 0x20 DUP7 ADD MSTORE PUSH2 0x4893 DUP3 DUP3 PUSH2 0x4808 JUMP JUMPDEST SWAP2 POP POP PUSH1 0x40 DUP4 ADD MLOAD DUP5 DUP3 SUB PUSH1 0x40 DUP7 ADD MSTORE PUSH2 0x48AD DUP3 DUP3 PUSH2 0x4808 JUMP JUMPDEST SWAP2 POP POP PUSH1 0x60 DUP4 ADD MLOAD DUP5 DUP3 SUB PUSH1 0x60 DUP7 ADD MSTORE PUSH2 0x48C7 DUP3 DUP3 PUSH2 0x4808 JUMP JUMPDEST SWAP2 POP POP PUSH1 0x80 DUP4 ADD MLOAD PUSH2 0x48DC PUSH1 0x80 DUP7 ADD DUP3 PUSH2 0x4840 JUMP JUMPDEST POP PUSH1 0xA0 DUP4 ADD MLOAD DUP5 DUP3 SUB PUSH1 0xA0 DUP7 ADD MSTORE PUSH2 0x48F4 DUP3 DUP3 PUSH2 0x4808 JUMP JUMPDEST SWAP2 POP POP PUSH1 0xC0 DUP4 ADD MLOAD PUSH2 0x4909 PUSH1 0xC0 DUP7 ADD DUP3 PUSH2 0x484F JUMP JUMPDEST POP PUSH1 0xE0 DUP4 ADD MLOAD PUSH2 0x491C PUSH1 0xE0 DUP7 ADD DUP3 PUSH2 0x4840 JUMP JUMPDEST POP PUSH2 0x100 DUP4 ADD MLOAD DUP5 DUP3 SUB PUSH2 0x100 DUP7 ADD MSTORE PUSH2 0x4936 DUP3 DUP3 PUSH2 0x4808 JUMP JUMPDEST SWAP2 POP POP PUSH2 0x120 DUP4 ADD MLOAD DUP5 DUP3 SUB PUSH2 0x120 DUP7 ADD MSTORE PUSH2 0x4952 DUP3 DUP3 PUSH2 0x4808 JUMP JUMPDEST SWAP2 POP POP PUSH2 0x140 DUP4 ADD MLOAD PUSH2 0x4969 PUSH2 0x140 DUP7 ADD DUP3 PUSH2 0x4840 JUMP JUMPDEST POP DUP1 SWAP2 POP POP SWAP3 SWAP2 POP POP JUMP JUMPDEST PUSH0 PUSH2 0x497F DUP4 DUP4 PUSH2 0x485E JUMP JUMPDEST SWAP1 POP SWAP3 SWAP2 POP POP JUMP JUMPDEST PUSH0 PUSH1 0x20 DUP3 ADD SWAP1 POP SWAP2 SWAP1 POP JUMP JUMPDEST PUSH0 PUSH2 0x499D DUP3 PUSH2 0x47CF JUMP JUMPDEST PUSH2 0x49A7 DUP2 DUP6 PUSH2 0x47D9 JUMP JUMPDEST SWAP4 POP DUP4 PUSH1 0x20 DUP3 MUL DUP6 ADD PUSH2 0x49B9 DUP6 PUSH2 0x47E9 JUMP JUMPDEST DUP1 PUSH0 JUMPDEST DUP6 DUP2 LT ISZERO PUSH2 0x49F4 JUMPI DUP5 DUP5 SUB DUP10 MSTORE DUP2 MLOAD PUSH2 0x49D5 DUP6 DUP3 PUSH2 0x4974 JUMP JUMPDEST SWAP5 POP PUSH2 0x49E0 DUP4 PUSH2 0x4987 JUMP JUMPDEST SWAP3 POP PUSH1 0x20 DUP11 ADD SWAP10 POP POP PUSH1 0x1 DUP2 ADD SWAP1 POP PUSH2 0x49BC JUMP JUMPDEST POP DUP3 SWAP8 POP DUP8 SWAP6 POP POP POP POP POP POP SWAP3 SWAP2 POP POP JUMP JUMPDEST PUSH0 PUSH1 0x20 DUP3 ADD SWAP1 POP DUP2 DUP2 SUB PUSH0 DUP4 ADD MSTORE PUSH2 0x4A1E DUP2 DUP5 PUSH2 0x4993 JUMP JUMPDEST SWAP1 POP SWAP3 SWAP2 POP POP JUMP JUMPDEST PUSH2 0x4A2F DUP2 PUSH2 0x45F0 JUMP JUMPDEST DUP2 EQ PUSH2 0x4A39 JUMPI PUSH0 DUP1 REVERT JUMPDEST POP JUMP JUMPDEST PUSH0 DUP2 CALLDATALOAD SWAP1 POP PUSH2 0x4A4A DUP2 PUSH2 0x4A26 JUMP JUMPDEST SWAP3 SWAP2 POP POP JUMP JUMPDEST PUSH0 PUSH1 0x20 DUP3 DUP5 SUB SLT ISZERO PUSH2 0x4A65 JUMPI PUSH2 0x4A64 PUSH2 0x436D JUMP JUMPDEST JUMPDEST PUSH0 PUSH2 0x4A72 DUP5 DUP3 DUP6 ADD PUSH2 0x4A3C JUMP JUMPDEST SWAP2 POP POP SWAP3 SWAP2 POP POP JUMP JUMPDEST PUSH0 PUSH1 0xE0 DUP3 ADD SWAP1 POP DUP2 DUP2 SUB PUSH0 DUP4 ADD MSTORE PUSH2 0x4A93 DUP2 DUP11 PUSH2 0x453A JUMP JUMPDEST SWAP1 POP DUP2 DUP2 SUB PUSH1 0x20 DUP4 ADD MSTORE PUSH2 0x4AA7 DUP2 DUP10 PUSH2 0x453A JUMP JUMPDEST SWAP1 POP PUSH2 0x4AB6 PUSH1 0x40 DUP4 ADD DUP9 PUSH2 0x4601 JUMP JUMPDEST PUSH2 0x4AC3 PUSH1 0x60 DUP4 ADD DUP8 PUSH2 0x4687 JUMP JUMPDEST PUSH2 0x4AD0 PUSH1 0x80 DUP4 ADD DUP7 PUSH2 0x4687 JUMP JUMPDEST PUSH2 0x4ADD PUSH1 0xA0 DUP4 ADD DUP6 PUSH2 0x4687 JUMP JUMPDEST PUSH2 0x4AEA PUSH1 0xC0 DUP4 ADD DUP5 PUSH2 0x4687 JUMP JUMPDEST SWAP9 SWAP8 POP POP POP POP POP POP POP POP JUMP JUMPDEST PUSH0 DUP2 MLOAD SWAP1 POP SWAP2 SWAP1 POP JUMP JUMPDEST PUSH0 DUP3 DUP3 MSTORE PUSH1 0x20 DUP3 ADD SWAP1 POP SWAP3 SWAP2 POP POP JUMP JUMPDEST PUSH0 DUP2 SWAP1 POP PUSH1 0x20 DUP3 ADD SWAP1 POP SWAP2 SWAP1 POP JUMP JUMPDEST PUSH0 PUSH1 0xE0 DUP4 ADD PUSH0 DUP4 ADD MLOAD DUP5 DUP3 SUB PUSH0 DUP7 ADD MSTORE PUSH2 0x4B39 DUP3 DUP3 PUSH2 0x4808 JUMP JUMPDEST SWAP2 POP POP PUSH1 0x20 DUP4 ADD MLOAD DUP5 DUP3 SUB PUSH1 0x20 DUP7 ADD MSTORE PUSH2 0x4B53 DUP3 DUP3 PUSH2 0x4808 JUMP JUMPDEST SWAP2 POP POP PUSH1 0x40 DUP4 ADD MLOAD PUSH2 0x4B68 PUSH1 0x40 DUP7 ADD DUP3 PUSH2 0x484F JUMP JUMPDEST POP PUSH1 0x60 DUP4 ADD MLOAD PUSH2 0x4B7B PUSH1 0x60 DUP7 ADD DUP3 PUSH2 0x4840 JUMP JUMPDEST POP PUSH1 0x80 DUP4 ADD MLOAD PUSH2 0x4B8E PUSH1 0x80 DUP7 ADD DUP3 PUSH2 0x4840 JUMP JUMPDEST POP PUSH1 0xA0 DUP4 ADD MLOAD PUSH2 0x4BA1 PUSH1 0xA0 DUP7 ADD DUP3 PUSH2 0x4840 JUMP JUMPDEST POP PUSH1 0xC0 DUP4 ADD MLOAD PUSH2 0x4BB4 PUSH1 0xC0 DUP7 ADD DUP3 PUSH2 0x4840 JUMP JUMPDEST POP DUP1 SWAP2 POP POP SWAP3 SWAP2 POP POP JUMP JUMPDEST PUSH0 PUSH2 0x4BCA DUP4 DUP4 PUSH2 0x4B1F JUMP JUMPDEST SWAP1 POP SWAP3 SWAP2 POP POP JUMP JUMPDEST PUSH0 PUSH1 0x20 DUP3 ADD SWAP1 POP SWAP2 SWAP1 POP JUMP JUMPDEST PUSH0 PUSH2 0x4BE8 DUP3 PUSH2 0x4AF6 JUMP JUMPDEST PUSH2 0x4BF2 DUP2 DUP6 PUSH2 0x4B00 JUMP JUMPDEST SWAP4 POP DUP4 PUSH1 0x20 DUP3 MUL DUP6 ADD PUSH2 0x4C04 DUP6 PUSH2 0x4B10 JUMP JUMPDEST DUP1 PUSH0 JUMPDEST DUP6 DUP2 LT ISZERO PUSH2 0x4C3F JUMPI DUP5 DUP5 SUB DUP10 MSTORE DUP2 MLOAD PUSH2 0x4C20 DUP6 DUP3 PUSH2 0x4BBF JUMP JUMPDEST SWAP5 POP PUSH2 0x4C2B DUP4 PUSH2 0x4BD2 JUMP JUMPDEST SWAP3 POP PUSH1 0x20 DUP11 ADD SWAP10 POP POP PUSH1 0x1 DUP2 ADD SWAP1 POP PUSH2 0x4C07 JUMP JUMPDEST POP DUP3 SWAP8 POP DUP8 SWAP6 POP POP POP POP POP POP SWAP3 SWAP2 POP POP JUMP JUMPDEST PUSH0 PUSH1 0x40 DUP4 ADD PUSH0 DUP4 ADD MLOAD DUP5 DUP3 SUB PUSH0 DUP7 ADD MSTORE PUSH2 0x4C6B DUP3 DUP3 PUSH2 0x4808 JUMP JUMPDEST SWAP2 POP POP PUSH1 0x20 DUP4 ADD MLOAD DUP5 DUP3 SUB PUSH1 0x20 DUP7 ADD MSTORE PUSH2 0x4C85 DUP3 DUP3 PUSH2 0x4BDE JUMP JUMPDEST SWAP2 POP POP DUP1 SWAP2 POP POP SWAP3 SWAP2 POP POP JUMP JUMPDEST PUSH0 PUSH1 0x20 DUP3 ADD SWAP1 POP DUP2 DUP2 SUB PUSH0 DUP4 ADD MSTORE PUSH2 0x4CAA DUP2 DUP5 PUSH2 0x4C51 JUMP JUMPDEST SWAP1 POP SWAP3 SWAP2 POP POP JUMP JUMPDEST PUSH0 DUP2 ISZERO ISZERO SWAP1 POP SWAP2 SWAP1 POP JUMP JUMPDEST PUSH2 0x4CC6 DUP2 PUSH2 0x4CB2 JUMP JUMPDEST DUP3 MSTORE POP POP JUMP JUMPDEST PUSH0 PUSH1 0x20 DUP3 ADD SWAP1 POP PUSH2 0x4CDF PUSH0 DUP4 ADD DUP5 PUSH2 0x4CBD JUMP JUMPDEST SWAP3 SWAP2 POP POP JUMP JUMPDEST PUSH0 PUSH1 0x20 DUP3 ADD SWAP1 POP PUSH2 0x4CF8 PUSH0 DUP4 ADD DUP5 PUSH2 0x4687 JUMP JUMPDEST SWAP3 SWAP2 POP POP JUMP JUMPDEST PUSH0 DUP2 MLOAD SWAP1 POP SWAP2 SWAP1 POP JUMP JUMPDEST PUSH0 DUP3 DUP3 MSTORE PUSH1 0x20 DUP3 ADD SWAP1 POP SWAP3 SWAP2 POP POP JUMP JUMPDEST PUSH0 DUP2 SWAP1 POP PUSH1 0x20 DUP3 ADD SWAP1 POP SWAP2 SWAP1 POP JUMP JUMPDEST PUSH0 PUSH2 0x4D32 DUP4 DUP4 PUSH2 0x484F JUMP JUMPDEST PUSH1 0x20 DUP4 ADD SWAP1 POP SWAP3 SWAP2 POP POP JUMP JUMPDEST PUSH0 PUSH1 0x20 DUP3 ADD SWAP1 POP SWAP2 SWAP1 POP JUMP JUMPDEST PUSH0 PUSH2 0x4D54 DUP3 PUSH2 0x4CFE JUMP JUMPDEST PUSH2 0x4D5E DUP2 DUP6 PUSH2 0x4D08 JUMP JUMPDEST SWAP4 POP PUSH2 0x4D69 DUP4 PUSH2 0x4D18 JUMP JUMPDEST DUP1 PUSH0 JUMPDEST DUP4 DUP2 LT ISZERO PUSH2 0x4D99 JUMPI DUP2 MLOAD PUSH2 0x4D80 DUP9 DUP3 PUSH2 0x4D27 JUMP JUMPDEST SWAP8 POP PUSH2 0x4D8B DUP4 PUSH2 0x4D3E JUMP JUMPDEST SWAP3 POP POP PUSH1 0x1 DUP2 ADD SWAP1 POP PUSH2 0x4D6C JUMP JUMPDEST POP DUP6 SWAP4 POP POP POP POP SWAP3 SWAP2 POP POP JUMP JUMPDEST PUSH0 PUSH1 0x20 DUP3 ADD SWAP1 POP DUP2 DUP2 SUB PUSH0 DUP4 ADD MSTORE PUSH2 0x4DBE DUP2 DUP5 PUSH2 0x4D4A JUMP JUMPDEST SWAP1 POP SWAP3 SWAP2 POP POP JUMP JUMPDEST PUSH0 DUP1 PUSH0 DUP1 PUSH1 0x80 DUP6 DUP8 SUB SLT ISZERO PUSH2 0x4DDE JUMPI PUSH2 0x4DDD PUSH2 0x436D JUMP JUMPDEST JUMPDEST PUSH0 DUP6 ADD CALLDATALOAD PUSH8 0xFFFFFFFFFFFFFFFF DUP2 GT ISZERO PUSH2 0x4DFB JUMPI PUSH2 0x4DFA PUSH2 0x4371 JUMP JUMPDEST JUMPDEST PUSH2 0x4E07 DUP8 DUP3 DUP9 ADD PUSH2 0x4484 JUMP JUMPDEST SWAP5 POP POP PUSH1 0x20 DUP6 ADD CALLDATALOAD PUSH8 0xFFFFFFFFFFFFFFFF DUP2 GT ISZERO PUSH2 0x4E28 JUMPI PUSH2 0x4E27 PUSH2 0x4371 JUMP JUMPDEST JUMPDEST PUSH2 0x4E34 DUP8 DUP3 DUP9 ADD PUSH2 0x4484 JUMP JUMPDEST SWAP4 POP POP PUSH1 0x40 PUSH2 0x4E45 DUP8 DUP3 DUP9 ADD PUSH2 0x4648 JUMP JUMPDEST SWAP3 POP POP PUSH1 0x60 PUSH2 0x4E56 DUP8 DUP3 DUP9 ADD PUSH2 0x4648 JUMP JUMPDEST SWAP2 POP POP SWAP3 SWAP6 SWAP2 SWAP5 POP SWAP3 POP JUMP JUMPDEST PUSH0 PUSH1 0x20 DUP3 ADD SWAP1 POP DUP2 DUP2 SUB PUSH0 DUP4 ADD MSTORE PUSH2 0x4E7A DUP2 DUP5 PUSH2 0x453A JUMP JUMPDEST SWAP1 POP SWAP3 SWAP2 POP POP JUMP JUMPDEST PUSH0 DUP1 PUSH0 PUSH1 0x60 DUP5 DUP7 SUB SLT ISZERO PUSH2 0x4E99 JUMPI PUSH2 0x4E98 PUSH2 0x436D JUMP JUMPDEST JUMPDEST PUSH0 DUP5 ADD CALLDATALOAD PUSH8 0xFFFFFFFFFFFFFFFF DUP2 GT ISZERO PUSH2 0x4EB6 JUMPI PUSH2 0x4EB5 PUSH2 0x4371 JUMP JUMPDEST JUMPDEST PUSH2 0x4EC2 DUP7 DUP3 DUP8 ADD PUSH2 0x4484 JUMP JUMPDEST SWAP4 POP POP PUSH1 0x20 PUSH2 0x4ED3 DUP7 DUP3 DUP8 ADD PUSH2 0x4A3C JUMP JUMPDEST SWAP3 POP POP PUSH1 0x40 DUP5 ADD CALLDATALOAD PUSH8 0xFFFFFFFFFFFFFFFF DUP2 GT ISZERO PUSH2 0x4EF4 JUMPI PUSH2 0x4EF3 PUSH2 0x4371 JUMP JUMPDEST JUMPDEST PUSH2 0x4F00 DUP7 DUP3 DUP8 ADD PUSH2 0x4484 JUMP JUMPDEST SWAP2 POP POP SWAP3 POP SWAP3 POP SWAP3 JUMP JUMPDEST PUSH0 DUP2 MLOAD SWAP1 POP SWAP2 SWAP1 POP JUMP JUMPDEST PUSH0 DUP3 DUP3 MSTORE PUSH1 0x20 DUP3 ADD SWAP1 POP SWAP3 SWAP2 POP POP JUMP JUMPDEST PUSH0 DUP2 SWAP1 POP PUSH1 0x20 DUP3 ADD SWAP1 POP SWAP2 SWAP1 POP JUMP JUMPDEST PUSH0 PUSH1 0x80 DUP4 ADD PUSH0 DUP4 ADD MLOAD DUP5 DUP3 SUB PUSH0 DUP7 ADD MSTORE PUSH2 0x4F4D DUP3 DUP3 PUSH2 0x4808 JUMP JUMPDEST SWAP2 POP POP PUSH1 0x20 DUP4 ADD MLOAD DUP5 DUP3 SUB PUSH1 0x20 DUP7 ADD MSTORE PUSH2 0x4F67 DUP3 DUP3 PUSH2 0x4808 JUMP JUMPDEST SWAP2 POP POP PUSH1 0x40 DUP4 ADD MLOAD DUP5 DUP3 SUB PUSH1 0x40 DUP7 ADD MSTORE PUSH2 0x4F81 DUP3 DUP3 PUSH2 0x4808 JUMP JUMPDEST SWAP2 POP POP PUSH1 0x60 DUP4 ADD MLOAD DUP5 DUP3 SUB PUSH1 0x60 DUP7 ADD MSTORE PUSH2 0x4F9B DUP3 DUP3 PUSH2 0x4808 JUMP JUMPDEST SWAP2 POP POP DUP1 SWAP2 POP POP SWAP3 SWAP2 POP POP JUMP JUMPDEST PUSH0 PUSH2 0x4FB3 DUP4 DUP4 PUSH2 0x4F33 JUMP JUMPDEST SWAP1 POP SWAP3 SWAP2 POP POP JUMP JUMPDEST PUSH0 PUSH1 0x20 DUP3 ADD SWAP1 POP SWAP2 SWAP1 POP JUMP JUMPDEST PUSH0 PUSH2 0x4FD1 DUP3 PUSH2 0x4F0A JUMP JUMPDEST PUSH2 0x4FDB DUP2 DUP6 PUSH2 0x4F14 JUMP JUMPDEST SWAP4 POP DUP4 PUSH1 0x20 DUP3 MUL DUP6 ADD PUSH2 0x4FED DUP6 PUSH2 0x4F24 JUMP JUMPDEST DUP1 PUSH0 JUMPDEST DUP6 DUP2 LT ISZERO PUSH2 0x5028 JUMPI DUP5 DUP5 SUB DUP10 MSTORE DUP2 MLOAD PUSH2 0x5009 DUP6 DUP3 PUSH2 0x4FA8 JUMP JUMPDEST SWAP5 POP PUSH2 0x5014 DUP4 PUSH2 0x4FBB JUMP JUMPDEST SWAP3 POP PUSH1 0x20 DUP11 ADD SWAP10 POP POP PUSH1 0x1 DUP2 ADD SWAP1 POP PUSH2 0x4FF0 JUMP JUMPDEST POP DUP3 SWAP8 POP DUP8 SWAP6 POP POP POP POP POP POP SWAP3 SWAP2 POP POP JUMP JUMPDEST PUSH0 PUSH1 0x20 DUP3 ADD SWAP1 POP DUP2 DUP2 SUB PUSH0 DUP4 ADD MSTORE PUSH2 0x5052 DUP2 DUP5 PUSH2 0x4FC7 JUMP JUMPDEST SWAP1 POP SWAP3 SWAP2 POP POP JUMP JUMPDEST PUSH0 DUP1 PUSH0 DUP1 PUSH0 PUSH1 0xA0 DUP7 DUP9 SUB SLT ISZERO PUSH2 0x5073 JUMPI PUSH2 0x5072 PUSH2 0x436D JUMP JUMPDEST JUMPDEST PUSH0 DUP7 ADD CALLDATALOAD PUSH8 0xFFFFFFFFFFFFFFFF DUP2 GT ISZERO PUSH2 0x5090 JUMPI PUSH2 0x508F PUSH2 0x4371 JUMP JUMPDEST JUMPDEST PUSH2 0x509C DUP9 DUP3 DUP10 ADD PUSH2 0x4484 JUMP JUMPDEST SWAP6 POP POP PUSH1 0x20 DUP7 ADD CALLDATALOAD PUSH8 0xFFFFFFFFFFFFFFFF DUP2 GT ISZERO PUSH2 0x50BD JUMPI PUSH2 0x50BC PUSH2 0x4371 JUMP JUMPDEST JUMPDEST PUSH2 0x50C9 DUP9 DUP3 DUP10 ADD PUSH2 0x4484 JUMP JUMPDEST SWAP5 POP POP PUSH1 0x40 DUP7 ADD CALLDATALOAD PUSH8 0xFFFFFFFFFFFFFFFF DUP2 GT ISZERO PUSH2 0x50EA JUMPI PUSH2 0x50E9 PUSH2 0x4371 JUMP JUMPDEST JUMPDEST PUSH2 0x50F6 DUP9 DUP3 DUP10 ADD PUSH2 0x4484 JUMP JUMPDEST SWAP4 POP POP PUSH1 0x60 DUP7 ADD CALLDATALOAD PUSH8 0xFFFFFFFFFFFFFFFF DUP2 GT ISZERO PUSH2 0x5117 JUMPI PUSH2 0x5116 PUSH2 0x4371 JUMP JUMPDEST JUMPDEST PUSH2 0x5123 DUP9 DUP3 DUP10 ADD PUSH2 0x4484 JUMP JUMPDEST SWAP3 POP POP PUSH1 0x80 PUSH2 0x5134 DUP9 DUP3 DUP10 ADD PUSH2 0x4648 JUMP JUMPDEST SWAP2 POP POP SWAP3 SWAP6 POP SWAP3 SWAP6 SWAP1 SWAP4 POP JUMP JUMPDEST PUSH0 DUP2 MLOAD SWAP1 POP SWAP2 SWAP1 POP JUMP JUMPDEST PUSH0 DUP3 DUP3 MSTORE PUSH1 0x20 DUP3 ADD SWAP1 POP SWAP3 SWAP2 POP POP JUMP JUMPDEST PUSH0 DUP2 SWAP1 POP PUSH1 0x20 DUP3 ADD SWAP1 POP SWAP2 SWAP1 POP JUMP JUMPDEST PUSH0 PUSH1 0xA0 DUP4 ADD PUSH0 DUP4 ADD MLOAD PUSH2 0x517F PUSH0 DUP7 ADD DUP3 PUSH2 0x4840 JUMP JUMPDEST POP PUSH1 0x20 DUP4 ADD MLOAD DUP5 DUP3 SUB PUSH1 0x20 DUP7 ADD MSTORE PUSH2 0x5197 DUP3 DUP3 PUSH2 0x4808 JUMP JUMPDEST SWAP2 POP POP PUSH1 0x40 DUP4 ADD MLOAD DUP5 DUP3 SUB PUSH1 0x40 DUP7 ADD MSTORE PUSH2 0x51B1 DUP3 DUP3 PUSH2 0x4808 JUMP JUMPDEST SWAP2 POP POP PUSH1 0x60 DUP4 ADD MLOAD PUSH2 0x51C6 PUSH1 0x60 DUP7 ADD DUP3 PUSH2 0x4840 JUMP JUMPDEST POP PUSH1 0x80 DUP4 ADD MLOAD PUSH2 0x51D9 PUSH1 0x80 DUP7 ADD DUP3 PUSH2 0x4840 JUMP JUMPDEST POP DUP1 SWAP2 POP POP SWAP3 SWAP2 POP POP JUMP JUMPDEST PUSH0 PUSH2 0x51EF DUP4 DUP4 PUSH2 0x516A JUMP JUMPDEST SWAP1 POP SWAP3 SWAP2 POP POP JUMP JUMPDEST PUSH0 PUSH1 0x20 DUP3 ADD SWAP1 POP SWAP2 SWAP1 POP JUMP JUMPDEST PUSH0 PUSH2 0x520D DUP3 PUSH2 0x5141 JUMP JUMPDEST PUSH2 0x5217 DUP2 DUP6 PUSH2 0x514B JUMP JUMPDEST SWAP4 POP DUP4 PUSH1 0x20 DUP3 MUL DUP6 ADD PUSH2 0x5229 DUP6 PUSH2 0x515B JUMP JUMPDEST DUP1 PUSH0 JUMPDEST DUP6 DUP2 LT ISZERO PUSH2 0x5264 JUMPI DUP5 DUP5 SUB DUP10 MSTORE DUP2 MLOAD PUSH2 0x5245 DUP6 DUP3 PUSH2 0x51E4 JUMP JUMPDEST SWAP5 POP PUSH2 0x5250 DUP4 PUSH2 0x51F7 JUMP JUMPDEST SWAP3 POP PUSH1 0x20 DUP11 ADD SWAP10 POP POP PUSH1 0x1 DUP2 ADD SWAP1 POP PUSH2 0x522C JUMP JUMPDEST POP DUP3 SWAP8 POP DUP8 SWAP6 POP POP POP POP POP POP SWAP3 SWAP2 POP POP JUMP JUMPDEST PUSH0 PUSH1 0x20 DUP3 ADD SWAP1 POP DUP2 DUP2 SUB PUSH0 DUP4 ADD MSTORE PUSH2 0x528E DUP2 DUP5 PUSH2 0x5203 JUMP JUMPDEST SWAP1 POP SWAP3 SWAP2 POP POP JUMP JUMPDEST PUSH32 0x4E487B7100000000000000000000000000000000000000000000000000000000 PUSH0 MSTORE PUSH1 0x22 PUSH1 0x4 MSTORE PUSH1 0x24 PUSH0 REVERT JUMPDEST PUSH0 PUSH1 0x2 DUP3 DIV SWAP1 POP PUSH1 0x1 DUP3 AND DUP1 PUSH2 0x52DA JUMPI PUSH1 0x7F DUP3 AND SWAP2 POP JUMPDEST PUSH1 0x20 DUP3 LT DUP2 SUB PUSH2 0x52ED JUMPI PUSH2 0x52EC PUSH2 0x5296 JUMP JUMPDEST JUMPDEST POP SWAP2 SWAP1 POP JUMP JUMPDEST PUSH0 DUP2 SWAP1 POP SWAP3 SWAP2 POP POP JUMP JUMPDEST PUSH0 PUSH2 0x5307 DUP3 PUSH2 0x44F8 JUMP JUMPDEST PUSH2 0x5311 DUP2 DUP6 PUSH2 0x52F3 JUMP JUMPDEST SWAP4 POP PUSH2 0x5321 DUP2 DUP6 PUSH1 0x20 DUP7 ADD PUSH2 0x4512 JUMP JUMPDEST DUP1 DUP5 ADD SWAP2 POP POP SWAP3 SWAP2 POP POP JUMP JUMPDEST PUSH0 PUSH2 0x5338 DUP3 DUP5 PUSH2 0x52FD JUMP JUMPDEST SWAP2 POP DUP2 SWAP1 POP SWAP3 SWAP2 POP POP JUMP JUMPDEST PUSH0 DUP2 SLOAD SWAP1 POP PUSH2 0x5351 DUP2 PUSH2 0x52C3 JUMP JUMPDEST SWAP1 POP SWAP2 SWAP1 POP JUMP JUMPDEST PUSH0 DUP2 SWAP1 POP DUP2 PUSH0 MSTORE PUSH1 0x20 PUSH0 KECCAK256 SWAP1 POP SWAP2 SWAP1 POP JUMP JUMPDEST PUSH0 PUSH1 0x20 PUSH1 0x1F DUP4 ADD DIV SWAP1 POP SWAP2 SWAP1 POP JUMP JUMPDEST PUSH0 DUP3 DUP3 SHL SWAP1 POP SWAP3 SWAP2 POP POP JUMP JUMPDEST PUSH0 PUSH1 0x8 DUP4 MUL PUSH2 0x53B4 PUSH32 0xFFFFFFFFFFFFFFFFFFFFFFFFFFFFFFFFFFFFFFFFFFFFFFFFFFFFFFFFFFFFFFFF DUP3 PUSH2 0x5379 JUMP JUMPDEST PUSH2 0x53BE DUP7 DUP4 PUSH2 0x5379 JUMP JUMPDEST SWAP6 POP DUP1 NOT DUP5 AND SWAP4 POP DUP1 DUP7 AND DUP5 OR SWAP3 POP POP POP SWAP4 SWAP3 POP POP POP JUMP JUMPDEST PUSH0 DUP2 SWAP1 POP SWAP2 SWAP1 POP JUMP JUMPDEST PUSH0 PUSH2 0x53F9 PUSH2 0x53F4 PUSH2 0x53EF DUP5 PUSH2 0x4629 JUMP JUMPDEST PUSH2 0x53D6 JUMP JUMPDEST PUSH2 0x4629 JUMP JUMPDEST SWAP1 POP SWAP2 SWAP1 POP JUMP JUMPDEST PUSH0 DUP2 SWAP1 POP SWAP2 SWAP1 POP JUMP JUMPDEST PUSH2 0x5412 DUP4 PUSH2 0x53DF JUMP JUMPDEST PUSH2 0x5426 PUSH2 0x541E DUP3 PUSH2 0x5400 JUMP JUMPDEST DUP5 DUP5 SLOAD PUSH2 0x5385 JUMP JUMPDEST DUP3 SSTORE POP POP POP POP JUMP JUMPDEST PUSH0 SWAP1 JUMP JUMPDEST PUSH2 0x543A PUSH2 0x542E JUMP JUMPDEST PUSH2 0x5445 DUP2 DUP5 DUP5 PUSH2 0x5409 JUMP JUMPDEST POP POP POP JUMP JUMPDEST JUMPDEST DUP2 DUP2 LT ISZERO PUSH2 0x5468 JUMPI PUSH2 0x545D PUSH0 DUP3 PUSH2 0x5432 JUMP JUMPDEST PUSH1 0x1 DUP2 ADD SWAP1 POP PUSH2 0x544B JUMP JUMPDEST POP POP JUMP JUMPDEST PUSH1 0x1F DUP3 GT ISZERO PUSH2 0x54AD JUMPI PUSH2 0x547E DUP2 PUSH2 0x5358 JUMP JUMPDEST PUSH2 0x5487 DUP5 PUSH2 0x536A JUMP JUMPDEST DUP2 ADD PUSH1 0x20 DUP6 LT ISZERO PUSH2 0x5496 JUMPI DUP2 SWAP1 POP JUMPDEST PUSH2 0x54AA PUSH2 0x54A2 DUP6 PUSH2 0x536A JUMP JUMPDEST DUP4 ADD DUP3 PUSH2 0x544A JUMP JUMPDEST POP POP JUMPDEST POP POP POP JUMP JUMPDEST PUSH0 DUP3 DUP3 SHR SWAP1 POP SWAP3 SWAP2 POP POP JUMP JUMPDEST PUSH0 PUSH2 0x54CD PUSH0 NOT DUP5 PUSH1 0x8 MUL PUSH2 0x54B2 JUMP JUMPDEST NOT DUP1 DUP4 AND SWAP2 POP POP SWAP3 SWAP2 POP POP JUMP JUMPDEST PUSH0 PUSH2 0x54E5 DUP4 DUP4 PUSH2 0x54BE JUMP JUMPDEST SWAP2 POP DUP3 PUSH1 0x2 MUL DUP3 OR SWAP1 POP SWAP3 SWAP2 POP POP JUMP JUMPDEST DUP2 DUP2 SUB PUSH2 0x5503 JUMPI POP POP PUSH2 0x55D8 JUMP JUMPDEST PUSH2 0x550C DUP3 PUSH2 0x5343 JUMP JUMPDEST PUSH8 0xFFFFFFFFFFFFFFFF DUP2 GT ISZERO PUSH2 0x5525 JUMPI PUSH2 0x5524 PUSH2 0x438D JUMP JUMPDEST JUMPDEST PUSH2 0x552F DUP3 SLOAD PUSH2 0x52C3 JUMP JUMPDEST PUSH2 0x553A DUP3 DUP3 DUP6 PUSH2 0x546C JUMP JUMPDEST PUSH0 PUSH1 0x1F DUP4 GT PUSH1 0x1 DUP2 EQ PUSH2 0x5567 JUMPI PUSH0 DUP5 ISZERO PUSH2 0x5555 JUMPI DUP3 DUP8 ADD SLOAD SWAP1 POP JUMPDEST PUSH2 0x555F DUP6 DUP3 PUSH2 0x54DA JUMP JUMPDEST DUP7 SSTORE POP PUSH2 0x55D1 JUMP JUMPDEST PUSH1 0x1F NOT DUP5 AND PUSH2 0x5575 DUP8 PUSH2 0x5358 JUMP JUMPDEST SWAP7 POP PUSH2 0x5580 DUP7 PUSH2 0x5358 JUMP JUMPDEST PUSH0 JUMPDEST DUP3 DUP2 LT ISZERO PUSH2 0x55A7 JUMPI DUP5 DUP10 ADD SLOAD DUP3 SSTORE PUSH1 0x1 DUP3 ADD SWAP2 POP PUSH1 0x1 DUP6 ADD SWAP5 POP PUSH1 0x20 DUP2 ADD SWAP1 POP PUSH2 0x5582 JUMP JUMPDEST DUP7 DUP4 LT ISZERO PUSH2 0x55C4 JUMPI DUP5 DUP10 ADD SLOAD PUSH2 0x55C0 PUSH1 0x1F DUP10 AND DUP3 PUSH2 0x54BE JUMP JUMPDEST DUP4 SSTORE POP JUMPDEST PUSH1 0x1 PUSH1 0x2 DUP9 MUL ADD DUP9 SSTORE POP POP POP JUMPDEST POP POP POP POP POP POP JUMPDEST JUMP JUMPDEST PUSH32 0x4E487B7100000000000000000000000000000000000000000000000000000000 PUSH0 MSTORE PUSH1 0x11 PUSH1 0x4 MSTORE PUSH1 0x24 PUSH0 REVERT JUMPDEST PUSH0 PUSH2 0x5611 DUP3 PUSH2 0x4629 JUMP JUMPDEST SWAP2 POP PUSH2 0x561C DUP4 PUSH2 0x4629 JUMP JUMPDEST SWAP3 POP DUP3 DUP3 ADD SWAP1 POP DUP1 DUP3 GT ISZERO PUSH2 0x5634 JUMPI PUSH2 0x5633 PUSH2 0x55DA JUMP JUMPDEST JUMPDEST SWAP3 SWAP2 POP POP JUMP JUMPDEST PUSH2 0x5643 DUP3 PUSH2 0x44F8 JUMP JUMPDEST PUSH8 0xFFFFFFFFFFFFFFFF DUP2 GT ISZERO PUSH2 0x565C JUMPI PUSH2 0x565B PUSH2 0x438D JUMP JUMPDEST JUMPDEST PUSH2 0x5666 DUP3 SLOAD PUSH2 0x52C3 JUMP JUMPDEST PUSH2 0x5671 DUP3 DUP3 DUP6 PUSH2 0x546C JUMP JUMPDEST PUSH0 PUSH1 0x20 SWAP1 POP PUSH1 0x1F DUP4 GT PUSH1 0x1 DUP2 EQ PUSH2 0x56A2 JUMPI PUSH0 DUP5 ISZERO PUSH2 0x5690 JUMPI DUP3 DUP8 ADD MLOAD SWAP1 POP JUMPDEST PUSH2 0x569A DUP6 DUP3 PUSH2 0x54DA JUMP JUMPDEST DUP7 SSTORE POP PUSH2 0x5701 JUMP JUMPDEST PUSH1 0x1F NOT DUP5 AND PUSH2 0x56B0 DUP7 PUSH2 0x5358 JUMP JUMPDEST PUSH0 JUMPDEST DUP3 DUP2 LT ISZERO PUSH2 0x56D7 JUMPI DUP5 DUP10 ADD MLOAD DUP3 SSTORE PUSH1 0x1 DUP3 ADD SWAP2 POP PUSH1 0x20 DUP6 ADD SWAP5 POP PUSH1 0x20 DUP2 ADD SWAP1 POP PUSH2 0x56B2 JUMP JUMPDEST DUP7 DUP4 LT ISZERO PUSH2 0x56F4 JUMPI DUP5 DUP10 ADD MLOAD PUSH2 0x56F0 PUSH1 0x1F DUP10 AND DUP3 PUSH2 0x54BE JUMP JUMPDEST DUP4 SSTORE POP JUMPDEST PUSH1 0x1 PUSH1 0x2 DUP9 MUL ADD DUP9 SSTORE POP POP POP JUMPDEST POP POP POP POP POP POP JUMP JUMPDEST PUSH32 0x5472616E73616374696F6E2077697468207472616E73616374696F6E20686173 PUSH0 DUP3 ADD MSTORE PUSH32 0x6820000000000000000000000000000000000000000000000000000000000000 PUSH1 0x20 DUP3 ADD MSTORE POP JUMP JUMPDEST PUSH0 PUSH2 0x5763 PUSH1 0x22 DUP4 PUSH2 0x52F3 JUMP JUMPDEST SWAP2 POP PUSH2 0x576E DUP3 PUSH2 0x5709 JUMP JUMPDEST PUSH1 0x22 DUP3 ADD SWAP1 POP SWAP2 SWAP1 POP JUMP JUMPDEST PUSH32 0x20697320636F6D706C6574656420616E6420617070726F76656420627920616C PUSH0 DUP3 ADD MSTORE PUSH32 0x6C2074686520617574686F726974696573000000000000000000000000000000 PUSH1 0x20 DUP3 ADD MSTORE POP JUMP JUMPDEST PUSH0 PUSH2 0x57D3 PUSH1 0x31 DUP4 PUSH2 0x52F3 JUMP JUMPDEST SWAP2 POP PUSH2 0x57DE DUP3 PUSH2 0x5779 JUMP JUMPDEST PUSH1 0x31 DUP3 ADD SWAP1 POP SWAP2 SWAP1 POP JUMP JUMPDEST PUSH0 PUSH2 0x57F3 DUP3 PUSH2 0x5757 JUMP JUMPDEST SWAP2 POP PUSH2 0x57FF DUP3 DUP5 PUSH2 0x52FD JUMP JUMPDEST SWAP2 POP PUSH2 0x580A DUP3 PUSH2 0x57C7 JUMP JUMPDEST SWAP2 POP DUP2 SWAP1 POP SWAP3 SWAP2 POP POP JUMP JUMPDEST PUSH0 DUP2 SWAP1 POP DUP2 PUSH0 MSTORE PUSH1 0x20 PUSH0 KECCAK256 SWAP1 POP SWAP2 SWAP1 POP JUMP JUMPDEST PUSH0 DUP2 SLOAD PUSH2 0x5833 DUP2 PUSH2 0x52C3 JUMP JUMPDEST PUSH2 0x583D DUP2 DUP7 PUSH2 0x52F3 JUMP JUMPDEST SWAP5 POP PUSH1 0x1 DUP3 AND PUSH0 DUP2 EQ PUSH2 0x5857 JUMPI PUSH1 0x1 DUP2 EQ PUSH2 0x586C JUMPI PUSH2 0x589E JUMP JUMPDEST PUSH1 0xFF NOT DUP4 AND DUP7 MSTORE DUP2 ISZERO ISZERO DUP3 MUL DUP7 ADD SWAP4 POP PUSH2 0x589E JUMP JUMPDEST PUSH2 0x5875 DUP6 PUSH2 0x5815 JUMP JUMPDEST PUSH0 JUMPDEST DUP4 DUP2 LT ISZERO PUSH2 0x5896 JUMPI DUP2 SLOAD DUP2 DUP10 ADD MSTORE PUSH1 0x1 DUP3 ADD SWAP2 POP PUSH1 0x20 DUP2 ADD SWAP1 POP PUSH2 0x5877 JUMP JUMPDEST DUP4 DUP9 ADD SWAP6 POP POP POP JUMPDEST POP POP POP SWAP3 SWAP2 POP POP JUMP JUMPDEST PUSH0 PUSH2 0x58B2 DUP3 DUP5 PUSH2 0x5827 JUMP JUMPDEST SWAP2 POP DUP2 SWAP1 POP SWAP3 SWAP2 POP POP JUMP JUMPDEST PUSH32 0x20697320617070726F7665642062792000000000000000000000000000000000 PUSH0 DUP3 ADD MSTORE POP JUMP JUMPDEST PUSH0 PUSH2 0x58F1 PUSH1 0x10 DUP4 PUSH2 0x52F3 JUMP JUMPDEST SWAP2 POP PUSH2 0x58FC DUP3 PUSH2 0x58BD JUMP JUMPDEST PUSH1 0x10 DUP3 ADD SWAP1 POP SWAP2 SWAP1 POP JUMP JUMPDEST PUSH0 PUSH2 0x5911 DUP3 PUSH2 0x5757 JUMP JUMPDEST SWAP2 POP PUSH2 0x591D DUP3 DUP6 PUSH2 0x52FD JUMP JUMPDEST SWAP2 POP PUSH2 0x5928 DUP3 PUSH2 0x58E5 JUMP JUMPDEST SWAP2 POP PUSH2 0x5934 DUP3 DUP5 PUSH2 0x5827 JUMP JUMPDEST SWAP2 POP DUP2 SWAP1 POP SWAP4 SWAP3 POP POP POP JUMP JUMPDEST PUSH32 0x4E487B7100000000000000000000000000000000000000000000000000000000 PUSH0 MSTORE PUSH1 0x32 PUSH1 0x4 MSTORE PUSH1 0x24 PUSH0 REVERT JUMPDEST PUSH0 PUSH2 0x5977 DUP3 PUSH2 0x4629 JUMP JUMPDEST SWAP2 POP PUSH32 0xFFFFFFFFFFFFFFFFFFFFFFFFFFFFFFFFFFFFFFFFFFFFFFFFFFFFFFFFFFFFFFFF DUP3 SUB PUSH2 0x59A9 JUMPI PUSH2 0x59A8 PUSH2 0x55DA JUMP JUMPDEST JUMPDEST PUSH1 0x1 DUP3 ADD SWAP1 POP SWAP2 SWAP1 POP JUMP JUMPDEST PUSH32 0x2069732065787069726564000000000000000000000000000000000000000000 PUSH0 DUP3 ADD MSTORE POP JUMP JUMPDEST PUSH0 PUSH2 0x59E8 PUSH1 0xB DUP4 PUSH2 0x52F3 JUMP JUMPDEST SWAP2 POP PUSH2 0x59F3 DUP3 PUSH2 0x59B4 JUMP JUMPDEST PUSH1 0xB DUP3 ADD SWAP1 POP SWAP2 SWAP1 POP JUMP JUMPDEST PUSH0 PUSH2 0x5A08 DUP3 PUSH2 0x5757 JUMP JUMPDEST SWAP2 POP PUSH2 0x5A14 DUP3 DUP5 PUSH2 0x52FD JUMP JUMPDEST SWAP2 POP PUSH2 0x5A1F DUP3 PUSH2 0x59DC JUMP JUMPDEST SWAP2 POP DUP2 SWAP1 POP SWAP3 SWAP2 POP POP JUMP JUMPDEST PUSH32 0x206973206578706972656420666F722000000000000000000000000000000000 PUSH0 DUP3 ADD MSTORE POP JUMP JUMPDEST PUSH0 PUSH2 0x5A5E PUSH1 0x10 DUP4 PUSH2 0x52F3 JUMP JUMPDEST SWAP2 POP PUSH2 0x5A69 DUP3 PUSH2 0x5A2A JUMP JUMPDEST PUSH1 0x10 DUP3 ADD SWAP1 POP SWAP2 SWAP1 POP JUMP JUMPDEST PUSH0 DUP2 SLOAD PUSH2 0x5A80 DUP2 PUSH2 0x52C3 JUMP JUMPDEST PUSH2 0x5A8A DUP2 DUP7 PUSH2 0x52F3 JUMP JUMPDEST SWAP5 POP PUSH1 0x1 DUP3 AND PUSH0 DUP2 EQ PUSH2 0x5AA4 JUMPI PUSH1 0x1 DUP2 EQ PUSH2 0x5AB9 JUMPI PUSH2 0x5AEB JUMP JUMPDEST PUSH1 0xFF NOT DUP4 AND DUP7 MSTORE DUP2 ISZERO ISZERO DUP3 MUL DUP7 ADD SWAP4 POP PUSH2 0x5AEB JUMP JUMPDEST PUSH2 0x5AC2 DUP6 PUSH2 0x5358 JUMP JUMPDEST PUSH0 JUMPDEST DUP4 DUP2 LT ISZERO PUSH2 0x5AE3 JUMPI DUP2 SLOAD DUP2 DUP10 ADD MSTORE PUSH1 0x1 DUP3 ADD SWAP2 POP PUSH1 0x20 DUP2 ADD SWAP1 POP PUSH2 0x5AC4 JUMP JUMPDEST DUP4 DUP9 ADD SWAP6 POP POP POP JUMPDEST POP POP POP SWAP3 SWAP2 POP POP JUMP JUMPDEST PUSH32 0x20616E6420686173206265656E207472616E7366657272656420746F20746865 PUSH0 DUP3 ADD MSTORE PUSH32 0x2068696768657220617574686F72697479000000000000000000000000000000 PUSH1 0x20 DUP3 ADD MSTORE POP JUMP JUMPDEST PUSH0 PUSH2 0x5B4E PUSH1 0x31 DUP4 PUSH2 0x52F3 JUMP JUMPDEST SWAP2 POP PUSH2 0x5B59 DUP3 PUSH2 0x5AF4 JUMP JUMPDEST PUSH1 0x31 DUP3 ADD SWAP1 POP SWAP2 SWAP1 POP JUMP JUMPDEST PUSH0 PUSH2 0x5B6E DUP3 PUSH2 0x5757 JUMP JUMPDEST SWAP2 POP PUSH2 0x5B7A DUP3 DUP6 PUSH2 0x52FD JUMP JUMPDEST SWAP2 POP PUSH2 0x5B85 DUP3 PUSH2 0x5A52 JUMP JUMPDEST SWAP2 POP PUSH2 0x5B91 DUP3 DUP5 PUSH2 0x5A74 JUMP JUMPDEST SWAP2 POP PUSH2 0x5B9C DUP3 PUSH2 0x5B42 JUMP JUMPDEST SWAP2 POP DUP2 SWAP1 POP SWAP4 SWAP3 POP POP POP JUMP JUMPDEST PUSH32 0x2000000000000000000000000000000000000000000000000000000000000000 PUSH0 DUP3 ADD MSTORE POP JUMP JUMPDEST PUSH0 PUSH2 0x5BDC PUSH1 0x1 DUP4 PUSH2 0x52F3 JUMP JUMPDEST SWAP2 POP PUSH2 0x5BE7 DUP3 PUSH2 0x5BA8 JUMP JUMPDEST PUSH1 0x1 DUP3 ADD SWAP1 POP SWAP2 SWAP1 POP JUMP JUMPDEST PUSH32 0x2069732063726561746564000000000000000000000000000000000000000000 PUSH0 DUP3 ADD MSTORE POP JUMP JUMPDEST PUSH0 PUSH2 0x5C26 PUSH1 0xB DUP4 PUSH2 0x52F3 JUMP JUMPDEST SWAP2 POP PUSH2 0x5C31 DUP3 PUSH2 0x5BF2 JUMP JUMPDEST PUSH1 0xB DUP3 ADD SWAP1 POP SWAP2 SWAP1 POP JUMP JUMPDEST PUSH0 PUSH2 0x5C46 DUP3 PUSH2 0x5757 JUMP JUMPDEST SWAP2 POP PUSH2 0x5C52 DUP3 DUP5 PUSH2 0x52FD JUMP JUMPDEST SWAP2 POP PUSH2 0x5C5D DUP3 PUSH2 0x5BD0 JUMP JUMPDEST SWAP2 POP PUSH2 0x5C68 DUP3 PUSH2 0x5C1A JUMP JUMPDEST SWAP2 POP DUP2 SWAP1 POP SWAP3 SWAP2 POP POP JUMP JUMPDEST PUSH0 PUSH2 0x5C7D DUP3 PUSH2 0x4629 JUMP JUMPDEST SWAP2 POP PUSH2 0x5C88 DUP4 PUSH2 0x4629 JUMP JUMPDEST SWAP3 POP DUP3 DUP3 MUL PUSH2 0x5C96 DUP2 PUSH2 0x4629 JUMP JUMPDEST SWAP2 POP DUP3 DUP3 DIV DUP5 EQ DUP4 ISZERO OR PUSH2 0x5CAD JUMPI PUSH2 0x5CAC PUSH2 0x55DA JUMP JUMPDEST JUMPDEST POP SWAP3 SWAP2 POP POP JUMP INVALID LOG2 PUSH5 0x6970667358 0x22 SLT KECCAK256 0xDC DUP5 SWAP15 PUSH26 0xE96624D4F7AD84BF265CA099C6A830EACC2603D128E21D38D1A 0xF7 PUSH27 0x64736F6C6343000815003300000000000000000000000000000000 "},"gasEstimates":{"creation":{"codeDepositCost":"4757200","executionCost":"infinite","totalCost":"infinite"},"external":{"approvalMap(string)":"infinite","approveTransaction(string)":"infinite","authCreator()":"2552","authMember()":"2623","createRole(string,string,uint256,uint256)":"infinite","createTransaction(string,string,string,string,uint256)":"infinite","createUser(string,address,string)":"infinite","creator()":"2551","declineTransaction(string)":"infinite","deleteUser(uint256)":"26931","listApprovals(string)":"infinite","listNotification()":"infinite","listRoles()":"infinite","listTransaction()":"infinite","listUsers()":"infinite","notificationList(uint256)":"infinite","notificationMap(string)":"infinite","roleList(uint256)":"infinite","roleMap(string)":"infinite","transaction()":"2553","transactionList(uint256)":"infinite","transactionMap(string)":"infinite","userList(uint256)":"5011","userMap(address)":"infinite","validateTxDuration(string)":"infinite"},"internal":{"compareStrings(string memory,string memory)":"infinite","getNextRole(string memory)":"infinite","getUptoApprovalRole(uint256)":"infinite","isTimeWindowOverForRole(string memory,uint256)":"infinite"}},"methodIdentifiers":{"approvalMap(string)":"a848bf8b","approveTransaction(string)":"2e69619c","authCreator()":"2cddaa86","authMember()":"89d7c784","createRole(string,string,uint256,uint256)":"a1cb091f","createTransaction(string,string,string,string,uint256)":"f2cf5ec7","createUser(string,address,string)":"b17e8964","creator()":"02d05d3f","declineTransaction(string)":"8406830a","deleteUser(uint256)":"38f14845","listApprovals(string)":"2c040681","listNotification()":"e0528b7c","listRoles()":"f59badad","listTransaction()":"220fd618","listUsers()":"8ad257b7","notificationList(uint256)":"35b9ea5b","notificationMap(string)":"00a032f0","roleList(uint256)":"f4558ef9","roleMap(string)":"0f44f0b8","transaction()":"c99de57e","transactionList(uint256)":"04ef5b21","transactionMap(string)":"ccc590f2","userList(uint256)":"9f4216e8","userMap(address)":"2bcc23f8","validateTxDuration(string)":"e08491cd"}}}