{"abi":[{"inputs":[{"internalType":"address","name":"owner","type":"address"}],"stateMutability":"nonpayable","type":"constructor"},{"inputs":[{"internalType":"string","name":"","type":"string"}],"name":"approvalMap","outputs":[{"internalType":"string","name":"docHash","type":"string"}],"stateMutability":"view","type":"function"},{"inputs":[{"internalType":"string","name":"_hash","type":"string"}],"name":"approveTransaction","outputs":[{"internalType":"uint256","name":"","type":"uint256"}],"stateMutability":"nonpayable","type":"function"},{"inputs":[],"name":"authCreator","outputs":[{"internalType":"bool","name":"","type":"bool"}],"stateMutability":"view","type":"function"},{"inputs":[],"name":"authMember","outputs":[{"internalType":"bool","name":"","type":"bool"}],"stateMutability":"view","type":"function"},{"inputs":[{"internalType":"string","name":"_role","type":"string"},{"internalType":"string","name":"_name","type":"string"},{"internalType":"uint256","name":"_maxAmount","type":"uint256"},{"internalType":"uint256","name":"_minAmount","type":"uint256"}],"name":"createRole","outputs":[],"stateMutability":"nonpayable","type":"function"},{"inputs":[{"internalType":"string","name":"_id","type":"string"},{"internalType":"string","name":"_hash","type":"string"},{"internalType":"string","name":"_url","type":"string"},{"internalType":"string","name":"_comment","type":"string"},{"internalType":"uint256","name":"_amount","type":"uint256"}],"name":"createTransaction","outputs":[],"stateMutability":"nonpayable","type":"function"},{"inputs":[{"internalType":"string","name":"_role","type":"string"},{"internalType":"address","name":"_id","type":"address"},{"internalType":"string","name":"_name","type":"string"}],"name":"createUser","outputs":[],"stateMutability":"nonpayable","type":"function"},{"inputs":[],"name":"creator","outputs":[{"internalType":"address","name":"","type":"address"}],"stateMutability":"view","type":"function"},{"inputs":[{"internalType":"string","name":"_hash","type":"string"}],"name":"declineTransaction","outputs":[{"internalType":"uint256","name":"","type":"uint256"}],"stateMutability":"nonpayable","type":"function"},{"inputs":[{"internalType":"uint256","name":"number","type":"uint256"}],"name":"deleteUser","outputs":[],"stateMutability":"nonpayable","type":"function"},{"inputs":[{"internalType":"string","name":"_hash","type":"string"}],"name":"listApprovals","outputs":[{"components":[{"internalType":"string","name":"docHash","type":"string"},{"components":[{"internalType":"string","name":"name","type":"string"},{"internalType":"string","name":"role","type":"string"},{"internalType":"address","name":"id","type":"address"},{"internalType":"uint256","name":"number","type":"uint256"},{"internalType":"uint256","name":"approveCount","type":"uint256"},{"internalType":"uint256","name":"declineCount","type":"uint256"},{"internalType":"uint256","name":"slipCount","type":"uint256"}],"internalType":"struct BatuFi.User[]","name":"approvalList","type":"tuple[]"}],"internalType":"struct BatuFi.Approval","name":"","type":"tuple"}],"stateMutability":"view","type":"function"},{"inputs":[],"name":"listNotification","outputs":[{"components":[{"internalType":"string","name":"title","type":"string"},{"internalType":"string","name":"message","type":"string"},{"internalType":"string","name":"docHash","type":"string"},{"internalType":"string","name":"status","type":"string"}],"internalType":"struct BatuFi.Notification[]","name":"","type":"tuple[]"}],"stateMutability":"view","type":"function"},{"inputs":[],"name":"listRoles","outputs":[{"components":[{"internalType":"uint256","name":"number","type":"uint256"},{"internalType":"string","name":"role","type":"string"},{"internalType":"string","name":"name","type":"string"},{"internalType":"uint256","name":"maxAmount","type":"uint256"},{"internalType":"uint256","name":"minAmount","type":"uint256"}],"internalType":"struct BatuFi.Role[]","name":"","type":"tuple[]"}],"stateMutability":"view","type":"function"},{"inputs":[],"name":"listTransaction","outputs":[{"components":[{"internalType":"string","name":"id","type":"string"},{"internalType":"string","name":"docHash","type":"string"},{"internalType":"string","name":"url","type":"string"},{"internalType":"string","name":"comment","type":"string"},{"internalType":"uint256","name":"number","type":"uint256"},{"internalType":"string","name":"status","type":"string"},{"internalType":"address","name":"creator","type":"address"},{"internalType":"uint256","name":"amount","type":"uint256"},{"internalType":"string","name":"currentApprovalRole","type":"string"},{"internalType":"string","name":"uptoApprovalRole","type":"string"},{"internalType":"uint256","name":"timestamp","type":"uint256"}],"internalType":"struct BatuFi.Transaction[]","name":"","type":"tuple[]"}],"stateMutability":"view","type":"function"},{"inputs":[],"name":"listUsers","outputs":[{"internalType":"address[]","name":"","type":"address[]"}],"stateMutability":"view","type":"function"},{"inputs":[{"internalType":"uint256","name":"","type":"uint256"}],"name":"notificationList","outputs":[{"internalType":"string","name":"title","type":"string"},{"internalType":"string","name":"message","type":"string"},{"internalType":"string","name":"docHash","type":"string"},{"internalType":"string","name":"status","type":"string"}],"stateMutability":"view","type":"function"},{"inputs":[{"internalType":"string","name":"","type":"string"}],"name":"notificationMap","outputs":[{"internalType":"string","name":"title","type":"string"},{"internalType":"string","name":"message","type":"string"},{"internalType":"string","name":"docHash","type":"string"},{"internalType":"string","name":"status","type":"string"}],"stateMutability":"view","type":"function"},{"inputs":[{"internalType":"uint256","name":"","type":"uint256"}],"name":"roleList","outputs":[{"internalType":"uint256","name":"number","type":"uint256"},{"internalType":"string","name":"role","type":"string"},{"internalType":"string","name":"name","type":"string"},{"internalType":"uint256","name":"maxAmount","type":"uint256"},{"internalType":"uint256","name":"minAmount","type":"uint256"}],"stateMutability":"view","type":"function"},{"inputs":[{"internalType":"string","name":"","type":"string"}],"name":"roleMap","outputs":[{"internalType":"uint256","name":"number","type":"uint256"},{"internalType":"string","name":"role","type":"string"},{"internalType":"string","name":"name","type":"string"},{"internalType":"uint256","name":"maxAmount","type":"uint256"},{"internalType":"uint256","name":"minAmount","type":"uint256"}],"stateMutability":"view","type":"function"},{"inputs":[],"name":"transaction","outputs":[{"internalType":"address","name":"","type":"address"}],"stateMutability":"view","type":"function"},{"inputs":[{"internalType":"uint256","name":"","type":"uint256"}],"name":"transactionList","outputs":[{"internalType":"string","name":"id","type":"string"},{"internalType":"string","name":"docHash","type":"string"},{"internalType":"string","name":"url","type":"string"},{"internalType":"string","name":"comment","type":"string"},{"internalType":"uint256","name":"number","type":"uint256"},{"internalType":"string","name":"status","type":"string"},{"internalType":"address","name":"creator","type":"address"},{"internalType":"uint256","name":"amount","type":"uint256"},{"internalType":"string","name":"currentApprovalRole","type":"string"},{"internalType":"string","name":"uptoApprovalRole","type":"string"},{"internalType":"uint256","name":"timestamp","type":"uint256"}],"stateMutability":"view","type":"function"},{"inputs":[{"internalType":"string","name":"","type":"string"}],"name":"transactionMap","outputs":[{"internalType":"string","name":"id","type":"string"},{"internalType":"string","name":"docHash","type":"string"},{"internalType":"string","name":"url","type":"string"},{"internalType":"string","name":"comment","type":"string"},{"internalType":"uint256","name":"number","type":"uint256"},{"internalType":"string","name":"status","type":"string"},{"internalType":"address","name":"creator","type":"address"},{"internalType":"uint256","name":"amount","type":"uint256"},{"internalType":"string","name":"currentApprovalRole","type":"string"},{"internalType":"string","name":"uptoApprovalRole","type":"string"},{"internalType":"uint256","name":"timestamp","type":"uint256"}],"stateMutability":"view","type":"function"},{"inputs":[{"internalType":"uint256","name":"","type":"uint256"}],"name":"userList","outputs":[{"internalType":"address","name":"","type":"address"}],"stateMutability":"view","type":"function"},{"inputs":[{"internalType":"address","name":"","type":"address"}],"name":"userMap","outputs":[{"internalType":"string","name":"name","type":"string"},{"internalType":"string","name":"role","type":"string"},{"internalType":"address","name":"id","type":"address"},{"internalType":"uint256","name":"number","type":"uint256"},{"internalType":"uint256","name":"approveCount","type":"uint256"},{"internalType":"uint256","name":"declineCount","type":"uint256"},{"internalType":"uint256","name":"slipCount","type":"uint256"}],"stateMutability":"view","type":"function"},{"inputs":[{"internalType":"string","name":"_docHash","type":"string"}],"name":"validateTxDuration","outputs":[{"internalType":"uint256","name":"","type":"uint256"}],"stateMutability":"nonpayable","type":"function"}],"evm":{"assembly":"    /* \"BatuFi.sol\":74:12649  contract BatuFi {\r... */\n  mstore(0x40, 0x80)\n    /* \"BatuFi.sol\":1150:1155  86400 */\n  0x015180\n    /* \"BatuFi.sol\":1136:1155  uint256 day = 86400 */\n  0x05\n  sstore\n    /* \"BatuFi.sol\":1815:1922  constructor(address owner) {\r... */\n  callvalue\n  dup1\n  iszero\n  tag_1\n  jumpi\n  0x00\n  dup1\n  revert\ntag_1:\n  pop\n  mload(0x40)\n  sub(codesize, bytecodeSize)\n  dup1\n  bytecodeSize\n  dup4\n  codecopy\n  dup2\n  dup2\n  add\n  0x40\n  mstore\n  dup2\n  add\n  swap1\n  tag_2\n  swap2\n  swap1\n  tag_3\n  jump\t// in\ntag_2:\n    /* \"BatuFi.sol\":1863:1868  owner */\n  dup1\n    /* \"BatuFi.sol\":1853:1860  creator */\n  0x00\n  dup1\n    /* \"BatuFi.sol\":1853:1868  creator = owner */\n  0x0100\n  exp\n  dup2\n  sload\n  dup2\n  0xffffffffffffffffffffffffffffffffffffffff\n  mul\n  not\n  and\n  swap1\n  dup4\n  0xffffffffffffffffffffffffffffffffffffffff\n  and\n  mul\n  or\n  swap1\n  sstore\n  pop\n    /* \"BatuFi.sol\":1879:1914  createUser(\"Owner\", owner, \"Admin\") */\n  tag_6\n  mload(0x40)\n  dup1\n  0x40\n  add\n  0x40\n  mstore\n  dup1\n  0x05\n  dup2\n  mstore\n  0x20\n  add\n  0x4f776e6572000000000000000000000000000000000000000000000000000000\n  dup2\n  mstore\n  pop\n    /* \"BatuFi.sol\":1899:1904  owner */\n  dup3\n    /* \"BatuFi.sol\":1879:1914  createUser(\"Owner\", owner, \"Admin\") */\n  mload(0x40)\n  dup1\n  0x40\n  add\n  0x40\n  mstore\n  dup1\n  0x05\n  dup2\n  mstore\n  0x20\n  add\n  0x41646d696e000000000000000000000000000000000000000000000000000000\n  dup2\n  mstore\n  pop\n    /* \"BatuFi.sol\":1879:1889  createUser */\n  shl(0x20, tag_7)\n    /* \"BatuFi.sol\":1879:1914  createUser(\"Owner\", owner, \"Admin\") */\n  0x20\n  shr\n  jump\t// in\ntag_6:\n    /* \"BatuFi.sol\":1815:1922  constructor(address owner) {\r... */\n  pop\n    /* \"BatuFi.sol\":74:12649  contract BatuFi {\r... */\n  jump(tag_8)\n    /* \"BatuFi.sol\":2537:2800  function createUser(string memory _role, address _id, string memory _name) public {\r... */\ntag_7:\n    /* \"BatuFi.sol\":2630:2644  User storage u */\n  0x00\n    /* \"BatuFi.sol\":2647:2654  userMap */\n  0x0b\n    /* \"BatuFi.sol\":2647:2659  userMap[_id] */\n  0x00\n    /* \"BatuFi.sol\":2655:2658  _id */\n  dup5\n    /* \"BatuFi.sol\":2647:2659  userMap[_id] */\n  0xffffffffffffffffffffffffffffffffffffffff\n  and\n  0xffffffffffffffffffffffffffffffffffffffff\n  and\n  dup2\n  mstore\n  0x20\n  add\n  swap1\n  dup2\n  mstore\n  0x20\n  add\n  0x00\n  keccak256\n    /* \"BatuFi.sol\":2630:2659  User storage u = userMap[_id] */\n  swap1\n  pop\n    /* \"BatuFi.sol\":2679:2684  _role */\n  dup4\n    /* \"BatuFi.sol\":2670:2671  u */\n  dup2\n    /* \"BatuFi.sol\":2670:2676  u.role */\n  0x01\n  add\n    /* \"BatuFi.sol\":2670:2684  u.role = _role */\n  swap1\n  dup1\n  mload\n  swap1\n  0x20\n  add\n  swap1\n  tag_10\n  swap3\n  swap2\n  swap1\n  tag_11\n  jump\t// in\ntag_10:\n  pop\n    /* \"BatuFi.sol\":2702:2705  _id */\n  dup3\n    /* \"BatuFi.sol\":2695:2696  u */\n  dup2\n    /* \"BatuFi.sol\":2695:2699  u.id */\n  0x02\n  add\n  0x00\n    /* \"BatuFi.sol\":2695:2705  u.id = _id */\n  0x0100\n  exp\n  dup2\n  sload\n  dup2\n  0xffffffffffffffffffffffffffffffffffffffff\n  mul\n  not\n  and\n  swap1\n  dup4\n  0xffffffffffffffffffffffffffffffffffffffff\n  and\n  mul\n  or\n  swap1\n  sstore\n  pop\n    /* \"BatuFi.sol\":2725:2730  _name */\n  dup2\n    /* \"BatuFi.sol\":2716:2717  u */\n  dup2\n    /* \"BatuFi.sol\":2716:2722  u.name */\n  0x00\n  add\n    /* \"BatuFi.sol\":2716:2730  u.name = _name */\n  swap1\n  dup1\n  mload\n  swap1\n  0x20\n  add\n  swap1\n  tag_12\n  swap3\n  swap2\n  swap1\n  tag_11\n  jump\t// in\ntag_12:\n  pop\n    /* \"BatuFi.sol\":2752:2761  userCount */\n  0x02\n  0x00\n    /* \"BatuFi.sol\":2752:2763  userCount++ */\n  dup2\n  sload\n  dup1\n  swap3\n  swap2\n  swap1\n  tag_13\n  swap1\n  tag_14\n  jump\t// in\ntag_13:\n  swap2\n  swap1\n  pop\n  sstore\n    /* \"BatuFi.sol\":2741:2742  u */\n  dup2\n    /* \"BatuFi.sol\":2741:2749  u.number */\n  0x03\n  add\n    /* \"BatuFi.sol\":2741:2763  u.number = userCount++ */\n  dup2\n  swap1\n  sstore\n  pop\n    /* \"BatuFi.sol\":2774:2782  userList */\n  0x09\n    /* \"BatuFi.sol\":2788:2791  _id */\n  dup4\n    /* \"BatuFi.sol\":2774:2792  userList.push(_id) */\n  swap1\n  dup1\n  0x01\n  dup2\n  sload\n  add\n  dup1\n  dup3\n  sstore\n  dup1\n  swap2\n  pop\n  pop\n  0x01\n  swap1\n  sub\n  swap1\n  0x00\n  mstore\n  keccak256(0x00, 0x20)\n  add\n  0x00\n  swap1\n  swap2\n  swap1\n  swap2\n  swap1\n  swap2\n  0x0100\n  exp\n  dup2\n  sload\n  dup2\n  0xffffffffffffffffffffffffffffffffffffffff\n  mul\n  not\n  and\n  swap1\n  dup4\n  0xffffffffffffffffffffffffffffffffffffffff\n  and\n  mul\n  or\n  swap1\n  sstore\n  pop\n    /* \"BatuFi.sol\":2537:2800  function createUser(string memory _role, address _id, string memory _name) public {\r... */\n  pop\n  pop\n  pop\n  pop\n  jump\t// out\n    /* \"BatuFi.sol\":74:12649  contract BatuFi {\r... */\ntag_11:\n  dup3\n  dup1\n  sload\n  tag_16\n  swap1\n  tag_17\n  jump\t// in\ntag_16:\n  swap1\n  0x00\n  mstore\n  keccak256(0x00, 0x20)\n  swap1\n  0x1f\n  add\n  0x20\n  swap1\n  div\n  dup2\n  add\n  swap3\n  dup3\n  tag_19\n  jumpi\n  0x00\n  dup6\n  sstore\n  jump(tag_18)\ntag_19:\n  dup3\n  0x1f\n  lt\n  tag_20\n  jumpi\n  dup1\n  mload\n  not(0xff)\n  and\n  dup4\n  dup1\n  add\n  or\n  dup6\n  sstore\n  jump(tag_18)\ntag_20:\n  dup3\n  dup1\n  add\n  0x01\n  add\n  dup6\n  sstore\n  dup3\n  iszero\n  tag_18\n  jumpi\n  swap2\n  dup3\n  add\ntag_21:\n  dup3\n  dup2\n  gt\n  iszero\n  tag_22\n  jumpi\n  dup3\n  mload\n  dup3\n  sstore\n  swap2\n  0x20\n  add\n  swap2\n  swap1\n  0x01\n  add\n  swap1\n  jump(tag_21)\ntag_22:\ntag_18:\n  pop\n  swap1\n  pop\n  tag_23\n  swap2\n  swap1\n  tag_24\n  jump\t// in\ntag_23:\n  pop\n  swap1\n  jump\t// out\ntag_24:\ntag_25:\n  dup1\n  dup3\n  gt\n  iszero\n  tag_26\n  jumpi\n  0x00\n  dup2\n  0x00\n  swap1\n  sstore\n  pop\n  0x01\n  add\n  jump(tag_25)\ntag_26:\n  pop\n  swap1\n  jump\t// out\n    /* \"#utility.yul\":7:150   */\ntag_28:\n    /* \"#utility.yul\":64:69   */\n  0x00\n    /* \"#utility.yul\":95:101   */\n  dup2\n    /* \"#utility.yul\":89:102   */\n  mload\n    /* \"#utility.yul\":80:102   */\n  swap1\n  pop\n    /* \"#utility.yul\":111:144   */\n  tag_30\n    /* \"#utility.yul\":138:143   */\n  dup2\n    /* \"#utility.yul\":111:144   */\n  tag_31\n  jump\t// in\ntag_30:\n    /* \"#utility.yul\":70:150   */\n  swap3\n  swap2\n  pop\n  pop\n  jump\t// out\n    /* \"#utility.yul\":156:440   */\ntag_3:\n    /* \"#utility.yul\":226:232   */\n  0x00\n    /* \"#utility.yul\":275:277   */\n  0x20\n    /* \"#utility.yul\":263:272   */\n  dup3\n    /* \"#utility.yul\":254:261   */\n  dup5\n    /* \"#utility.yul\":250:273   */\n  sub\n    /* \"#utility.yul\":246:278   */\n  slt\n    /* \"#utility.yul\":243:245   */\n  iszero\n  tag_33\n  jumpi\n    /* \"#utility.yul\":291:292   */\n  0x00\n    /* \"#utility.yul\":288:289   */\n  dup1\n    /* \"#utility.yul\":281:293   */\n  revert\n    /* \"#utility.yul\":243:245   */\ntag_33:\n    /* \"#utility.yul\":334:335   */\n  0x00\n    /* \"#utility.yul\":359:423   */\n  tag_34\n    /* \"#utility.yul\":415:422   */\n  dup5\n    /* \"#utility.yul\":406:412   */\n  dup3\n    /* \"#utility.yul\":395:404   */\n  dup6\n    /* \"#utility.yul\":391:413   */\n  add\n    /* \"#utility.yul\":359:423   */\n  tag_28\n  jump\t// in\ntag_34:\n    /* \"#utility.yul\":349:423   */\n  swap2\n  pop\n    /* \"#utility.yul\":305:433   */\n  pop\n    /* \"#utility.yul\":233:440   */\n  swap3\n  swap2\n  pop\n  pop\n  jump\t// out\n    /* \"#utility.yul\":446:542   */\ntag_35:\n    /* \"#utility.yul\":483:490   */\n  0x00\n    /* \"#utility.yul\":512:536   */\n  tag_37\n    /* \"#utility.yul\":530:535   */\n  dup3\n    /* \"#utility.yul\":512:536   */\n  tag_38\n  jump\t// in\ntag_37:\n    /* \"#utility.yul\":501:536   */\n  swap1\n  pop\n    /* \"#utility.yul\":491:542   */\n  swap2\n  swap1\n  pop\n  jump\t// out\n    /* \"#utility.yul\":548:674   */\ntag_38:\n    /* \"#utility.yul\":585:592   */\n  0x00\n    /* \"#utility.yul\":625:667   */\n  0xffffffffffffffffffffffffffffffffffffffff\n    /* \"#utility.yul\":618:623   */\n  dup3\n    /* \"#utility.yul\":614:668   */\n  and\n    /* \"#utility.yul\":603:668   */\n  swap1\n  pop\n    /* \"#utility.yul\":593:674   */\n  swap2\n  swap1\n  pop\n  jump\t// out\n    /* \"#utility.yul\":680:757   */\ntag_40:\n    /* \"#utility.yul\":717:724   */\n  0x00\n    /* \"#utility.yul\":746:751   */\n  dup2\n    /* \"#utility.yul\":735:751   */\n  swap1\n  pop\n    /* \"#utility.yul\":725:757   */\n  swap2\n  swap1\n  pop\n  jump\t// out\n    /* \"#utility.yul\":763:1083   */\ntag_17:\n    /* \"#utility.yul\":807:813   */\n  0x00\n    /* \"#utility.yul\":844:845   */\n  0x02\n    /* \"#utility.yul\":838:842   */\n  dup3\n    /* \"#utility.yul\":834:846   */\n  div\n    /* \"#utility.yul\":824:846   */\n  swap1\n  pop\n    /* \"#utility.yul\":891:892   */\n  0x01\n    /* \"#utility.yul\":885:889   */\n  dup3\n    /* \"#utility.yul\":881:893   */\n  and\n    /* \"#utility.yul\":912:930   */\n  dup1\n    /* \"#utility.yul\":902:904   */\n  tag_43\n  jumpi\n    /* \"#utility.yul\":968:972   */\n  0x7f\n    /* \"#utility.yul\":960:966   */\n  dup3\n    /* \"#utility.yul\":956:973   */\n  and\n    /* \"#utility.yul\":946:973   */\n  swap2\n  pop\n    /* \"#utility.yul\":902:904   */\ntag_43:\n    /* \"#utility.yul\":1030:1032   */\n  0x20\n    /* \"#utility.yul\":1022:1028   */\n  dup3\n    /* \"#utility.yul\":1019:1033   */\n  lt\n    /* \"#utility.yul\":999:1017   */\n  dup2\n    /* \"#utility.yul\":996:1034   */\n  eq\n    /* \"#utility.yul\":993:995   */\n  iszero\n  tag_44\n  jumpi\n    /* \"#utility.yul\":1049:1067   */\n  tag_45\n  tag_46\n  jump\t// in\ntag_45:\n    /* \"#utility.yul\":993:995   */\ntag_44:\n    /* \"#utility.yul\":814:1083   */\n  pop\n  swap2\n  swap1\n  pop\n  jump\t// out\n    /* \"#utility.yul\":1089:1322   */\ntag_14:\n    /* \"#utility.yul\":1128:1131   */\n  0x00\n    /* \"#utility.yul\":1151:1175   */\n  tag_48\n    /* \"#utility.yul\":1169:1174   */\n  dup3\n    /* \"#utility.yul\":1151:1175   */\n  tag_40\n  jump\t// in\ntag_48:\n    /* \"#utility.yul\":1142:1175   */\n  swap2\n  pop\n    /* \"#utility.yul\":1197:1263   */\n  0xffffffffffffffffffffffffffffffffffffffffffffffffffffffffffffffff\n    /* \"#utility.yul\":1190:1195   */\n  dup3\n    /* \"#utility.yul\":1187:1264   */\n  eq\n    /* \"#utility.yul\":1184:1186   */\n  iszero\n  tag_49\n  jumpi\n    /* \"#utility.yul\":1267:1285   */\n  tag_50\n  tag_51\n  jump\t// in\ntag_50:\n    /* \"#utility.yul\":1184:1186   */\ntag_49:\n    /* \"#utility.yul\":1314:1315   */\n  0x01\n    /* \"#utility.yul\":1307:1312   */\n  dup3\n    /* \"#utility.yul\":1303:1316   */\n  add\n    /* \"#utility.yul\":1296:1316   */\n  swap1\n  pop\n    /* \"#utility.yul\":1132:1322   */\n  swap2\n  swap1\n  pop\n  jump\t// out\n    /* \"#utility.yul\":1328:1508   */\ntag_51:\n    /* \"#utility.yul\":1376:1453   */\n  0x4e487b7100000000000000000000000000000000000000000000000000000000\n    /* \"#utility.yul\":1373:1374   */\n  0x00\n    /* \"#utility.yul\":1366:1454   */\n  mstore\n    /* \"#utility.yul\":1473:1477   */\n  0x11\n    /* \"#utility.yul\":1470:1471   */\n  0x04\n    /* \"#utility.yul\":1463:1478   */\n  mstore\n    /* \"#utility.yul\":1497:1501   */\n  0x24\n    /* \"#utility.yul\":1494:1495   */\n  0x00\n    /* \"#utility.yul\":1487:1502   */\n  revert\n    /* \"#utility.yul\":1514:1694   */\ntag_46:\n    /* \"#utility.yul\":1562:1639   */\n  0x4e487b7100000000000000000000000000000000000000000000000000000000\n    /* \"#utility.yul\":1559:1560   */\n  0x00\n    /* \"#utility.yul\":1552:1640   */\n  mstore\n    /* \"#utility.yul\":1659:1663   */\n  0x22\n    /* \"#utility.yul\":1656:1657   */\n  0x04\n    /* \"#utility.yul\":1649:1664   */\n  mstore\n    /* \"#utility.yul\":1683:1687   */\n  0x24\n    /* \"#utility.yul\":1680:1681   */\n  0x00\n    /* \"#utility.yul\":1673:1688   */\n  revert\n    /* \"#utility.yul\":1700:1822   */\ntag_31:\n    /* \"#utility.yul\":1773:1797   */\n  tag_55\n    /* \"#utility.yul\":1791:1796   */\n  dup2\n    /* \"#utility.yul\":1773:1797   */\n  tag_35\n  jump\t// in\ntag_55:\n    /* \"#utility.yul\":1766:1771   */\n  dup2\n    /* \"#utility.yul\":1763:1798   */\n  eq\n    /* \"#utility.yul\":1753:1755   */\n  tag_56\n  jumpi\n    /* \"#utility.yul\":1812:1813   */\n  0x00\n    /* \"#utility.yul\":1809:1810   */\n  dup1\n    /* \"#utility.yul\":1802:1814   */\n  revert\n    /* \"#utility.yul\":1753:1755   */\ntag_56:\n    /* \"#utility.yul\":1743:1822   */\n  pop\n  jump\t// out\n    /* \"BatuFi.sol\":74:12649  contract BatuFi {\r... */\ntag_8:\n  dataSize(sub_0)\n  dup1\n  dataOffset(sub_0)\n  0x00\n  codecopy\n  0x00\n  return\nstop\n\nsub_0: assembly {\n        /* \"BatuFi.sol\":74:12649  contract BatuFi {\r... */\n      mstore(0x40, 0x80)\n      callvalue\n      dup1\n      iszero\n      tag_1\n      jumpi\n      0x00\n      dup1\n      revert\n    tag_1:\n      pop\n      jumpi(tag_2, lt(calldatasize, 0x04))\n      shr(0xe0, calldataload(0x00))\n      dup1\n      0x89d7c784\n      gt\n      tag_28\n      jumpi\n      dup1\n      0xc99de57e\n      gt\n      tag_29\n      jumpi\n      dup1\n      0xe08491cd\n      gt\n      tag_30\n      jumpi\n      dup1\n      0xe08491cd\n      eq\n      tag_24\n      jumpi\n      dup1\n      0xf2cf5ec7\n      eq\n      tag_25\n      jumpi\n      dup1\n      0xf4558ef9\n      eq\n      tag_26\n      jumpi\n      dup1\n      0xf59badad\n      eq\n      tag_27\n      jumpi\n      jump(tag_2)\n    tag_30:\n      dup1\n      0xc99de57e\n      eq\n      tag_21\n      jumpi\n      dup1\n      0xccc590f2\n      eq\n      tag_22\n      jumpi\n      dup1\n      0xe0528b7c\n      eq\n      tag_23\n      jumpi\n      jump(tag_2)\n    tag_29:\n      dup1\n      0x89d7c784\n      eq\n      tag_15\n      jumpi\n      dup1\n      0x8ad257b7\n      eq\n      tag_16\n      jumpi\n      dup1\n      0x9f4216e8\n      eq\n      tag_17\n      jumpi\n      dup1\n      0xa1cb091f\n      eq\n      tag_18\n      jumpi\n      dup1\n      0xa848bf8b\n      eq\n      tag_19\n      jumpi\n      dup1\n      0xb17e8964\n      eq\n      tag_20\n      jumpi\n      jump(tag_2)\n    tag_28:\n      dup1\n      0x2c040681\n      gt\n      tag_31\n      jumpi\n      dup1\n      0x2c040681\n      eq\n      tag_9\n      jumpi\n      dup1\n      0x2cddaa86\n      eq\n      tag_10\n      jumpi\n      dup1\n      0x2e69619c\n      eq\n      tag_11\n      jumpi\n      dup1\n      0x35b9ea5b\n      eq\n      tag_12\n      jumpi\n      dup1\n      0x38f14845\n      eq\n      tag_13\n      jumpi\n      dup1\n      0x8406830a\n      eq\n      tag_14\n      jumpi\n      jump(tag_2)\n    tag_31:\n      dup1\n      0xa032f0\n      eq\n      tag_3\n      jumpi\n      dup1\n      0x02d05d3f\n      eq\n      tag_4\n      jumpi\n      dup1\n      0x04ef5b21\n      eq\n      tag_5\n      jumpi\n      dup1\n      0x0f44f0b8\n      eq\n      tag_6\n      jumpi\n      dup1\n      0x220fd618\n      eq\n      tag_7\n      jumpi\n      dup1\n      0x2bcc23f8\n      eq\n      tag_8\n      jumpi\n    tag_2:\n      0x00\n      dup1\n      revert\n        /* \"BatuFi.sol\":1461:1515  mapping(string => Notification) public notificationMap */\n    tag_3:\n      tag_32\n      0x04\n      dup1\n      calldatasize\n      sub\n      dup2\n      add\n      swap1\n      tag_33\n      swap2\n      swap1\n      tag_34\n      jump\t// in\n    tag_33:\n      tag_35\n      jump\t// in\n    tag_32:\n      mload(0x40)\n      tag_36\n      swap5\n      swap4\n      swap3\n      swap2\n      swap1\n      tag_37\n      jump\t// in\n    tag_36:\n      mload(0x40)\n      dup1\n      swap2\n      sub\n      swap1\n      return\n        /* \"BatuFi.sol\":995:1017  address public creator */\n    tag_4:\n      tag_38\n      tag_39\n      jump\t// in\n    tag_38:\n      mload(0x40)\n      tag_40\n      swap2\n      swap1\n      tag_41\n      jump\t// in\n    tag_40:\n      mload(0x40)\n      dup1\n      swap2\n      sub\n      swap1\n      return\n        /* \"BatuFi.sol\":1162:1198  Transaction[] public transactionList */\n    tag_5:\n      tag_42\n      0x04\n      dup1\n      calldatasize\n      sub\n      dup2\n      add\n      swap1\n      tag_43\n      swap2\n      swap1\n      tag_44\n      jump\t// in\n    tag_43:\n      tag_45\n      jump\t// in\n    tag_42:\n      mload(0x40)\n      tag_46\n      swap12\n      swap11\n      swap10\n      swap9\n      swap8\n      swap7\n      swap6\n      swap5\n      swap4\n      swap3\n      swap2\n      swap1\n      tag_47\n      jump\t// in\n    tag_46:\n      mload(0x40)\n      dup1\n      swap2\n      sub\n      swap1\n      return\n        /* \"BatuFi.sol\":1311:1349  mapping(string => Role) public roleMap */\n    tag_6:\n      tag_48\n      0x04\n      dup1\n      calldatasize\n      sub\n      dup2\n      add\n      swap1\n      tag_49\n      swap2\n      swap1\n      tag_34\n      jump\t// in\n    tag_49:\n      tag_50\n      jump\t// in\n    tag_48:\n      mload(0x40)\n      tag_51\n      swap6\n      swap5\n      swap4\n      swap3\n      swap2\n      swap1\n      tag_52\n      jump\t// in\n    tag_51:\n      mload(0x40)\n      dup1\n      swap2\n      sub\n      swap1\n      return\n        /* \"BatuFi.sol\":12202:12312  function listTransaction() public view returns(Transaction[] memory) {\r... */\n    tag_7:\n      tag_53\n      tag_54\n      jump\t// in\n    tag_53:\n      mload(0x40)\n      tag_55\n      swap2\n      swap1\n      tag_56\n      jump\t// in\n    tag_55:\n      mload(0x40)\n      dup1\n      swap2\n      sub\n      swap1\n      return\n        /* \"BatuFi.sol\":1356:1395  mapping(address => User) public userMap */\n    tag_8:\n      tag_57\n      0x04\n      dup1\n      calldatasize\n      sub\n      dup2\n      add\n      swap1\n      tag_58\n      swap2\n      swap1\n      tag_59\n      jump\t// in\n    tag_58:\n      tag_60\n      jump\t// in\n    tag_57:\n      mload(0x40)\n      tag_61\n      swap8\n      swap7\n      swap6\n      swap5\n      swap4\n      swap3\n      swap2\n      swap1\n      tag_62\n      jump\t// in\n    tag_61:\n      mload(0x40)\n      dup1\n      swap2\n      sub\n      swap1\n      return\n        /* \"BatuFi.sol\":12032:12190  function listApprovals(string memory _hash) public view returns(Approval memory) {\r... */\n    tag_9:\n      tag_63\n      0x04\n      dup1\n      calldatasize\n      sub\n      dup2\n      add\n      swap1\n      tag_64\n      swap2\n      swap1\n      tag_34\n      jump\t// in\n    tag_64:\n      tag_65\n      jump\t// in\n    tag_63:\n      mload(0x40)\n      tag_66\n      swap2\n      swap1\n      tag_67\n      jump\t// in\n    tag_66:\n      mload(0x40)\n      dup1\n      swap2\n      sub\n      swap1\n      return\n        /* \"BatuFi.sol\":2433:2525  function authCreator() public view creatorOnly returns (bool) {\r... */\n    tag_10:\n      tag_68\n      tag_69\n      jump\t// in\n    tag_68:\n      mload(0x40)\n      tag_70\n      swap2\n      swap1\n      tag_71\n      jump\t// in\n    tag_70:\n      mload(0x40)\n      dup1\n      swap2\n      sub\n      swap1\n      return\n        /* \"BatuFi.sol\":9607:11695  function approveTransaction(string memory _hash) public returns(uint) {\r... */\n    tag_11:\n      tag_72\n      0x04\n      dup1\n      calldatasize\n      sub\n      dup2\n      add\n      swap1\n      tag_73\n      swap2\n      swap1\n      tag_34\n      jump\t// in\n    tag_73:\n      tag_74\n      jump\t// in\n    tag_72:\n      mload(0x40)\n      tag_75\n      swap2\n      swap1\n      tag_76\n      jump\t// in\n    tag_75:\n      mload(0x40)\n      dup1\n      swap2\n      sub\n      swap1\n      return\n        /* \"BatuFi.sol\":1205:1243  Notification[] public notificationList */\n    tag_12:\n      tag_77\n      0x04\n      dup1\n      calldatasize\n      sub\n      dup2\n      add\n      swap1\n      tag_78\n      swap2\n      swap1\n      tag_44\n      jump\t// in\n    tag_78:\n      tag_79\n      jump\t// in\n    tag_77:\n      mload(0x40)\n      tag_80\n      swap5\n      swap4\n      swap3\n      swap2\n      swap1\n      tag_37\n      jump\t// in\n    tag_80:\n      mload(0x40)\n      dup1\n      swap2\n      sub\n      swap1\n      return\n        /* \"BatuFi.sol\":5883:5968  function deleteUser(uint256 number) public {\r... */\n    tag_13:\n      tag_81\n      0x04\n      dup1\n      calldatasize\n      sub\n      dup2\n      add\n      swap1\n      tag_82\n      swap2\n      swap1\n      tag_44\n      jump\t// in\n    tag_82:\n      tag_83\n      jump\t// in\n    tag_81:\n      stop\n        /* \"BatuFi.sol\":11703:12020  function declineTransaction(string memory _hash) public returns(uint) {\r... */\n    tag_14:\n      tag_84\n      0x04\n      dup1\n      calldatasize\n      sub\n      dup2\n      add\n      swap1\n      tag_85\n      swap2\n      swap1\n      tag_34\n      jump\t// in\n    tag_85:\n      tag_86\n      jump\t// in\n    tag_84:\n      mload(0x40)\n      tag_87\n      swap2\n      swap1\n      tag_76\n      jump\t// in\n    tag_87:\n      mload(0x40)\n      dup1\n      swap2\n      sub\n      swap1\n      return\n        /* \"BatuFi.sol\":2331:2421  function authMember() public view memberOnly returns (bool) {\r... */\n    tag_15:\n      tag_88\n      tag_89\n      jump\t// in\n    tag_88:\n      mload(0x40)\n      tag_90\n      swap2\n      swap1\n      tag_71\n      jump\t// in\n    tag_90:\n      mload(0x40)\n      dup1\n      swap2\n      sub\n      swap1\n      return\n        /* \"BatuFi.sol\":12445:12538  function listUsers() public view returns(address[] memory) {\r... */\n    tag_16:\n      tag_91\n      tag_92\n      jump\t// in\n    tag_91:\n      mload(0x40)\n      tag_93\n      swap2\n      swap1\n      tag_94\n      jump\t// in\n    tag_93:\n      mload(0x40)\n      dup1\n      swap2\n      sub\n      swap1\n      return\n        /* \"BatuFi.sol\":1279:1304  address[] public userList */\n    tag_17:\n      tag_95\n      0x04\n      dup1\n      calldatasize\n      sub\n      dup2\n      add\n      swap1\n      tag_96\n      swap2\n      swap1\n      tag_44\n      jump\t// in\n    tag_96:\n      tag_97\n      jump\t// in\n    tag_95:\n      mload(0x40)\n      tag_98\n      swap2\n      swap1\n      tag_41\n      jump\t// in\n    tag_98:\n      mload(0x40)\n      dup1\n      swap2\n      sub\n      swap1\n      return\n        /* \"BatuFi.sol\":2812:3151  function createRole(string memory _role, string memory _name, uint256 _maxAmount, uint256 _minAmount) public {\r... */\n    tag_18:\n      tag_99\n      0x04\n      dup1\n      calldatasize\n      sub\n      dup2\n      add\n      swap1\n      tag_100\n      swap2\n      swap1\n      tag_101\n      jump\t// in\n    tag_100:\n      tag_102\n      jump\t// in\n    tag_99:\n      stop\n        /* \"BatuFi.sol\":1522:1568  mapping(string => Approval) public approvalMap */\n    tag_19:\n      tag_103\n      0x04\n      dup1\n      calldatasize\n      sub\n      dup2\n      add\n      swap1\n      tag_104\n      swap2\n      swap1\n      tag_34\n      jump\t// in\n    tag_104:\n      tag_105\n      jump\t// in\n    tag_103:\n      mload(0x40)\n      tag_106\n      swap2\n      swap1\n      tag_107\n      jump\t// in\n    tag_106:\n      mload(0x40)\n      dup1\n      swap2\n      sub\n      swap1\n      return\n        /* \"BatuFi.sol\":2537:2800  function createUser(string memory _role, address _id, string memory _name) public {\r... */\n    tag_20:\n      tag_108\n      0x04\n      dup1\n      calldatasize\n      sub\n      dup2\n      add\n      swap1\n      tag_109\n      swap2\n      swap1\n      tag_110\n      jump\t// in\n    tag_109:\n      tag_111\n      jump\t// in\n    tag_108:\n      stop\n        /* \"BatuFi.sol\":1024:1050  address public transaction */\n    tag_21:\n      tag_112\n      tag_113\n      jump\t// in\n    tag_112:\n      mload(0x40)\n      tag_114\n      swap2\n      swap1\n      tag_41\n      jump\t// in\n    tag_114:\n      mload(0x40)\n      dup1\n      swap2\n      sub\n      swap1\n      return\n        /* \"BatuFi.sol\":1402:1454  mapping(string => Transaction) public transactionMap */\n    tag_22:\n      tag_115\n      0x04\n      dup1\n      calldatasize\n      sub\n      dup2\n      add\n      swap1\n      tag_116\n      swap2\n      swap1\n      tag_34\n      jump\t// in\n    tag_116:\n      tag_117\n      jump\t// in\n    tag_115:\n      mload(0x40)\n      tag_118\n      swap12\n      swap11\n      swap10\n      swap9\n      swap8\n      swap7\n      swap6\n      swap5\n      swap4\n      swap3\n      swap2\n      swap1\n      tag_47\n      jump\t// in\n    tag_118:\n      mload(0x40)\n      dup1\n      swap2\n      sub\n      swap1\n      return\n        /* \"BatuFi.sol\":12320:12433  function listNotification() public view returns(Notification[] memory) {\r... */\n    tag_23:\n      tag_119\n      tag_120\n      jump\t// in\n    tag_119:\n      mload(0x40)\n      tag_121\n      swap2\n      swap1\n      tag_122\n      jump\t// in\n    tag_121:\n      mload(0x40)\n      dup1\n      swap2\n      sub\n      swap1\n      return\n        /* \"BatuFi.sol\":3159:5871  function validateTxDuration(string memory _docHash) public returns(uint) {\r... */\n    tag_24:\n      tag_123\n      0x04\n      dup1\n      calldatasize\n      sub\n      dup2\n      add\n      swap1\n      tag_124\n      swap2\n      swap1\n      tag_34\n      jump\t// in\n    tag_124:\n      tag_125\n      jump\t// in\n    tag_123:\n      mload(0x40)\n      tag_126\n      swap2\n      swap1\n      tag_76\n      jump\t// in\n    tag_126:\n      mload(0x40)\n      dup1\n      swap2\n      sub\n      swap1\n      return\n        /* \"BatuFi.sol\":8165:9599  function createTransaction(string memory _id, string memory _hash, string memory _url, string memory _comment, uint256 _amount) public memberOnly {\r... */\n    tag_25:\n      tag_127\n      0x04\n      dup1\n      calldatasize\n      sub\n      dup2\n      add\n      swap1\n      tag_128\n      swap2\n      swap1\n      tag_129\n      jump\t// in\n    tag_128:\n      tag_130\n      jump\t// in\n    tag_127:\n      stop\n        /* \"BatuFi.sol\":1250:1272  Role[] public roleList */\n    tag_26:\n      tag_131\n      0x04\n      dup1\n      calldatasize\n      sub\n      dup2\n      add\n      swap1\n      tag_132\n      swap2\n      swap1\n      tag_44\n      jump\t// in\n    tag_132:\n      tag_133\n      jump\t// in\n    tag_131:\n      mload(0x40)\n      tag_134\n      swap6\n      swap5\n      swap4\n      swap3\n      swap2\n      swap1\n      tag_52\n      jump\t// in\n    tag_134:\n      mload(0x40)\n      dup1\n      swap2\n      sub\n      swap1\n      return\n        /* \"BatuFi.sol\":12550:12640  function listRoles() public view returns(Role[] memory) {\r... */\n    tag_27:\n      tag_135\n      tag_136\n      jump\t// in\n    tag_135:\n      mload(0x40)\n      tag_137\n      swap2\n      swap1\n      tag_138\n      jump\t// in\n    tag_137:\n      mload(0x40)\n      dup1\n      swap2\n      sub\n      swap1\n      return\n        /* \"BatuFi.sol\":1461:1515  mapping(string => Notification) public notificationMap */\n    tag_35:\n      0x0d\n      dup2\n      dup1\n      mload\n      0x20\n      dup2\n      add\n      dup3\n      add\n      dup1\n      mload\n      dup5\n      dup3\n      mstore\n      0x20\n      dup4\n      add\n      0x20\n      dup6\n      add\n      keccak256\n      dup2\n      dup4\n      mstore\n      dup1\n      swap6\n      pop\n      pop\n      pop\n      pop\n      pop\n      pop\n      0x00\n      swap2\n      pop\n      swap1\n      pop\n      dup1\n      0x00\n      add\n      dup1\n      sload\n      tag_139\n      swap1\n      tag_140\n      jump\t// in\n    tag_139:\n      dup1\n      0x1f\n      add\n      0x20\n      dup1\n      swap2\n      div\n      mul\n      0x20\n      add\n      mload(0x40)\n      swap1\n      dup2\n      add\n      0x40\n      mstore\n      dup1\n      swap3\n      swap2\n      swap1\n      dup2\n      dup2\n      mstore\n      0x20\n      add\n      dup3\n      dup1\n      sload\n      tag_141\n      swap1\n      tag_140\n      jump\t// in\n    tag_141:\n      dup1\n      iszero\n      tag_142\n      jumpi\n      dup1\n      0x1f\n      lt\n      tag_143\n      jumpi\n      0x0100\n      dup1\n      dup4\n      sload\n      div\n      mul\n      dup4\n      mstore\n      swap2\n      0x20\n      add\n      swap2\n      jump(tag_142)\n    tag_143:\n      dup3\n      add\n      swap2\n      swap1\n      0x00\n      mstore\n      keccak256(0x00, 0x20)\n      swap1\n    tag_144:\n      dup2\n      sload\n      dup2\n      mstore\n      swap1\n      0x01\n      add\n      swap1\n      0x20\n      add\n      dup1\n      dup4\n      gt\n      tag_144\n      jumpi\n      dup3\n      swap1\n      sub\n      0x1f\n      and\n      dup3\n      add\n      swap2\n    tag_142:\n      pop\n      pop\n      pop\n      pop\n      pop\n      swap1\n      dup1\n      0x01\n      add\n      dup1\n      sload\n      tag_145\n      swap1\n      tag_140\n      jump\t// in\n    tag_145:\n      dup1\n      0x1f\n      add\n      0x20\n      dup1\n      swap2\n      div\n      mul\n      0x20\n      add\n      mload(0x40)\n      swap1\n      dup2\n      add\n      0x40\n      mstore\n      dup1\n      swap3\n      swap2\n      swap1\n      dup2\n      dup2\n      mstore\n      0x20\n      add\n      dup3\n      dup1\n      sload\n      tag_146\n      swap1\n      tag_140\n      jump\t// in\n    tag_146:\n      dup1\n      iszero\n      tag_147\n      jumpi\n      dup1\n      0x1f\n      lt\n      tag_148\n      jumpi\n      0x0100\n      dup1\n      dup4\n      sload\n      div\n      mul\n      dup4\n      mstore\n      swap2\n      0x20\n      add\n      swap2\n      jump(tag_147)\n    tag_148:\n      dup3\n      add\n      swap2\n      swap1\n      0x00\n      mstore\n      keccak256(0x00, 0x20)\n      swap1\n    tag_149:\n      dup2\n      sload\n      dup2\n      mstore\n      swap1\n      0x01\n      add\n      swap1\n      0x20\n      add\n      dup1\n      dup4\n      gt\n      tag_149\n      jumpi\n      dup3\n      swap1\n      sub\n      0x1f\n      and\n      dup3\n      add\n      swap2\n    tag_147:\n      pop\n      pop\n      pop\n      pop\n      pop\n      swap1\n      dup1\n      0x02\n      add\n      dup1\n      sload\n      tag_150\n      swap1\n      tag_140\n      jump\t// in\n    tag_150:\n      dup1\n      0x1f\n      add\n      0x20\n      dup1\n      swap2\n      div\n      mul\n      0x20\n      add\n      mload(0x40)\n      swap1\n      dup2\n      add\n      0x40\n      mstore\n      dup1\n      swap3\n      swap2\n      swap1\n      dup2\n      dup2\n      mstore\n      0x20\n      add\n      dup3\n      dup1\n      sload\n      tag_151\n      swap1\n      tag_140\n      jump\t// in\n    tag_151:\n      dup1\n      iszero\n      tag_152\n      jumpi\n      dup1\n      0x1f\n      lt\n      tag_153\n      jumpi\n      0x0100\n      dup1\n      dup4\n      sload\n      div\n      mul\n      dup4\n      mstore\n      swap2\n      0x20\n      add\n      swap2\n      jump(tag_152)\n    tag_153:\n      dup3\n      add\n      swap2\n      swap1\n      0x00\n      mstore\n      keccak256(0x00, 0x20)\n      swap1\n    tag_154:\n      dup2\n      sload\n      dup2\n      mstore\n      swap1\n      0x01\n      add\n      swap1\n      0x20\n      add\n      dup1\n      dup4\n      gt\n      tag_154\n      jumpi\n      dup3\n      swap1\n      sub\n      0x1f\n      and\n      dup3\n      add\n      swap2\n    tag_152:\n      pop\n      pop\n      pop\n      pop\n      pop\n      swap1\n      dup1\n      0x03\n      add\n      dup1\n      sload\n      tag_155\n      swap1\n      tag_140\n      jump\t// in\n    tag_155:\n      dup1\n      0x1f\n      add\n      0x20\n      dup1\n      swap2\n      div\n      mul\n      0x20\n      add\n      mload(0x40)\n      swap1\n      dup2\n      add\n      0x40\n      mstore\n      dup1\n      swap3\n      swap2\n      swap1\n      dup2\n      dup2\n      mstore\n      0x20\n      add\n      dup3\n      dup1\n      sload\n      tag_156\n      swap1\n      tag_140\n      jump\t// in\n    tag_156:\n      dup1\n      iszero\n      tag_157\n      jumpi\n      dup1\n      0x1f\n      lt\n      tag_158\n      jumpi\n      0x0100\n      dup1\n      dup4\n      sload\n      div\n      mul\n      dup4\n      mstore\n      swap2\n      0x20\n      add\n      swap2\n      jump(tag_157)\n    tag_158:\n      dup3\n      add\n      swap2\n      swap1\n      0x00\n      mstore\n      keccak256(0x00, 0x20)\n      swap1\n    tag_159:\n      dup2\n      sload\n      dup2\n      mstore\n      swap1\n      0x01\n      add\n      swap1\n      0x20\n      add\n      dup1\n      dup4\n      gt\n      tag_159\n      jumpi\n      dup3\n      swap1\n      sub\n      0x1f\n      and\n      dup3\n      add\n      swap2\n    tag_157:\n      pop\n      pop\n      pop\n      pop\n      pop\n      swap1\n      pop\n      dup5\n      jump\t// out\n        /* \"BatuFi.sol\":995:1017  address public creator */\n    tag_39:\n      0x00\n      dup1\n      sload\n      swap1\n      0x0100\n      exp\n      swap1\n      div\n      0xffffffffffffffffffffffffffffffffffffffff\n      and\n      dup2\n      jump\t// out\n        /* \"BatuFi.sol\":1162:1198  Transaction[] public transactionList */\n    tag_45:\n      0x06\n      dup2\n      dup2\n      sload\n      dup2\n      lt\n      tag_160\n      jumpi\n      0x00\n      dup1\n      revert\n    tag_160:\n      swap1\n      0x00\n      mstore\n      keccak256(0x00, 0x20)\n      swap1\n      0x0b\n      mul\n      add\n      0x00\n      swap2\n      pop\n      swap1\n      pop\n      dup1\n      0x00\n      add\n      dup1\n      sload\n      tag_162\n      swap1\n      tag_140\n      jump\t// in\n    tag_162:\n      dup1\n      0x1f\n      add\n      0x20\n      dup1\n      swap2\n      div\n      mul\n      0x20\n      add\n      mload(0x40)\n      swap1\n      dup2\n      add\n      0x40\n      mstore\n      dup1\n      swap3\n      swap2\n      swap1\n      dup2\n      dup2\n      mstore\n      0x20\n      add\n      dup3\n      dup1\n      sload\n      tag_163\n      swap1\n      tag_140\n      jump\t// in\n    tag_163:\n      dup1\n      iszero\n      tag_164\n      jumpi\n      dup1\n      0x1f\n      lt\n      tag_165\n      jumpi\n      0x0100\n      dup1\n      dup4\n      sload\n      div\n      mul\n      dup4\n      mstore\n      swap2\n      0x20\n      add\n      swap2\n      jump(tag_164)\n    tag_165:\n      dup3\n      add\n      swap2\n      swap1\n      0x00\n      mstore\n      keccak256(0x00, 0x20)\n      swap1\n    tag_166:\n      dup2\n      sload\n      dup2\n      mstore\n      swap1\n      0x01\n      add\n      swap1\n      0x20\n      add\n      dup1\n      dup4\n      gt\n      tag_166\n      jumpi\n      dup3\n      swap1\n      sub\n      0x1f\n      and\n      dup3\n      add\n      swap2\n    tag_164:\n      pop\n      pop\n      pop\n      pop\n      pop\n      swap1\n      dup1\n      0x01\n      add\n      dup1\n      sload\n      tag_167\n      swap1\n      tag_140\n      jump\t// in\n    tag_167:\n      dup1\n      0x1f\n      add\n      0x20\n      dup1\n      swap2\n      div\n      mul\n      0x20\n      add\n      mload(0x40)\n      swap1\n      dup2\n      add\n      0x40\n      mstore\n      dup1\n      swap3\n      swap2\n      swap1\n      dup2\n      dup2\n      mstore\n      0x20\n      add\n      dup3\n      dup1\n      sload\n      tag_168\n      swap1\n      tag_140\n      jump\t// in\n    tag_168:\n      dup1\n      iszero\n      tag_169\n      jumpi\n      dup1\n      0x1f\n      lt\n      tag_170\n      jumpi\n      0x0100\n      dup1\n      dup4\n      sload\n      div\n      mul\n      dup4\n      mstore\n      swap2\n      0x20\n      add\n      swap2\n      jump(tag_169)\n    tag_170:\n      dup3\n      add\n      swap2\n      swap1\n      0x00\n      mstore\n      keccak256(0x00, 0x20)\n      swap1\n    tag_171:\n      dup2\n      sload\n      dup2\n      mstore\n      swap1\n      0x01\n      add\n      swap1\n      0x20\n      add\n      dup1\n      dup4\n      gt\n      tag_171\n      jumpi\n      dup3\n      swap1\n      sub\n      0x1f\n      and\n      dup3\n      add\n      swap2\n    tag_169:\n      pop\n      pop\n      pop\n      pop\n      pop\n      swap1\n      dup1\n      0x02\n      add\n      dup1\n      sload\n      tag_172\n      swap1\n      tag_140\n      jump\t// in\n    tag_172:\n      dup1\n      0x1f\n      add\n      0x20\n      dup1\n      swap2\n      div\n      mul\n      0x20\n      add\n      mload(0x40)\n      swap1\n      dup2\n      add\n      0x40\n      mstore\n      dup1\n      swap3\n      swap2\n      swap1\n      dup2\n      dup2\n      mstore\n      0x20\n      add\n      dup3\n      dup1\n      sload\n      tag_173\n      swap1\n      tag_140\n      jump\t// in\n    tag_173:\n      dup1\n      iszero\n      tag_174\n      jumpi\n      dup1\n      0x1f\n      lt\n      tag_175\n      jumpi\n      0x0100\n      dup1\n      dup4\n      sload\n      div\n      mul\n      dup4\n      mstore\n      swap2\n      0x20\n      add\n      swap2\n      jump(tag_174)\n    tag_175:\n      dup3\n      add\n      swap2\n      swap1\n      0x00\n      mstore\n      keccak256(0x00, 0x20)\n      swap1\n    tag_176:\n      dup2\n      sload\n      dup2\n      mstore\n      swap1\n      0x01\n      add\n      swap1\n      0x20\n      add\n      dup1\n      dup4\n      gt\n      tag_176\n      jumpi\n      dup3\n      swap1\n      sub\n      0x1f\n      and\n      dup3\n      add\n      swap2\n    tag_174:\n      pop\n      pop\n      pop\n      pop\n      pop\n      swap1\n      dup1\n      0x03\n      add\n      dup1\n      sload\n      tag_177\n      swap1\n      tag_140\n      jump\t// in\n    tag_177:\n      dup1\n      0x1f\n      add\n      0x20\n      dup1\n      swap2\n      div\n      mul\n      0x20\n      add\n      mload(0x40)\n      swap1\n      dup2\n      add\n      0x40\n      mstore\n      dup1\n      swap3\n      swap2\n      swap1\n      dup2\n      dup2\n      mstore\n      0x20\n      add\n      dup3\n      dup1\n      sload\n      tag_178\n      swap1\n      tag_140\n      jump\t// in\n    tag_178:\n      dup1\n      iszero\n      tag_179\n      jumpi\n      dup1\n      0x1f\n      lt\n      tag_180\n      jumpi\n      0x0100\n      dup1\n      dup4\n      sload\n      div\n      mul\n      dup4\n      mstore\n      swap2\n      0x20\n      add\n      swap2\n      jump(tag_179)\n    tag_180:\n      dup3\n      add\n      swap2\n      swap1\n      0x00\n      mstore\n      keccak256(0x00, 0x20)\n      swap1\n    tag_181:\n      dup2\n      sload\n      dup2\n      mstore\n      swap1\n      0x01\n      add\n      swap1\n      0x20\n      add\n      dup1\n      dup4\n      gt\n      tag_181\n      jumpi\n      dup3\n      swap1\n      sub\n      0x1f\n      and\n      dup3\n      add\n      swap2\n    tag_179:\n      pop\n      pop\n      pop\n      pop\n      pop\n      swap1\n      dup1\n      0x04\n      add\n      sload\n      swap1\n      dup1\n      0x05\n      add\n      dup1\n      sload\n      tag_182\n      swap1\n      tag_140\n      jump\t// in\n    tag_182:\n      dup1\n      0x1f\n      add\n      0x20\n      dup1\n      swap2\n      div\n      mul\n      0x20\n      add\n      mload(0x40)\n      swap1\n      dup2\n      add\n      0x40\n      mstore\n      dup1\n      swap3\n      swap2\n      swap1\n      dup2\n      dup2\n      mstore\n      0x20\n      add\n      dup3\n      dup1\n      sload\n      tag_183\n      swap1\n      tag_140\n      jump\t// in\n    tag_183:\n      dup1\n      iszero\n      tag_184\n      jumpi\n      dup1\n      0x1f\n      lt\n      tag_185\n      jumpi\n      0x0100\n      dup1\n      dup4\n      sload\n      div\n      mul\n      dup4\n      mstore\n      swap2\n      0x20\n      add\n      swap2\n      jump(tag_184)\n    tag_185:\n      dup3\n      add\n      swap2\n      swap1\n      0x00\n      mstore\n      keccak256(0x00, 0x20)\n      swap1\n    tag_186:\n      dup2\n      sload\n      dup2\n      mstore\n      swap1\n      0x01\n      add\n      swap1\n      0x20\n      add\n      dup1\n      dup4\n      gt\n      tag_186\n      jumpi\n      dup3\n      swap1\n      sub\n      0x1f\n      and\n      dup3\n      add\n      swap2\n    tag_184:\n      pop\n      pop\n      pop\n      pop\n      pop\n      swap1\n      dup1\n      0x06\n      add\n      0x00\n      swap1\n      sload\n      swap1\n      0x0100\n      exp\n      swap1\n      div\n      0xffffffffffffffffffffffffffffffffffffffff\n      and\n      swap1\n      dup1\n      0x07\n      add\n      sload\n      swap1\n      dup1\n      0x08\n      add\n      dup1\n      sload\n      tag_187\n      swap1\n      tag_140\n      jump\t// in\n    tag_187:\n      dup1\n      0x1f\n      add\n      0x20\n      dup1\n      swap2\n      div\n      mul\n      0x20\n      add\n      mload(0x40)\n      swap1\n      dup2\n      add\n      0x40\n      mstore\n      dup1\n      swap3\n      swap2\n      swap1\n      dup2\n      dup2\n      mstore\n      0x20\n      add\n      dup3\n      dup1\n      sload\n      tag_188\n      swap1\n      tag_140\n      jump\t// in\n    tag_188:\n      dup1\n      iszero\n      tag_189\n      jumpi\n      dup1\n      0x1f\n      lt\n      tag_190\n      jumpi\n      0x0100\n      dup1\n      dup4\n      sload\n      div\n      mul\n      dup4\n      mstore\n      swap2\n      0x20\n      add\n      swap2\n      jump(tag_189)\n    tag_190:\n      dup3\n      add\n      swap2\n      swap1\n      0x00\n      mstore\n      keccak256(0x00, 0x20)\n      swap1\n    tag_191:\n      dup2\n      sload\n      dup2\n      mstore\n      swap1\n      0x01\n      add\n      swap1\n      0x20\n      add\n      dup1\n      dup4\n      gt\n      tag_191\n      jumpi\n      dup3\n      swap1\n      sub\n      0x1f\n      and\n      dup3\n      add\n      swap2\n    tag_189:\n      pop\n      pop\n      pop\n      pop\n      pop\n      swap1\n      dup1\n      0x09\n      add\n      dup1\n      sload\n      tag_192\n      swap1\n      tag_140\n      jump\t// in\n    tag_192:\n      dup1\n      0x1f\n      add\n      0x20\n      dup1\n      swap2\n      div\n      mul\n      0x20\n      add\n      mload(0x40)\n      swap1\n      dup2\n      add\n      0x40\n      mstore\n      dup1\n      swap3\n      swap2\n      swap1\n      dup2\n      dup2\n      mstore\n      0x20\n      add\n      dup3\n      dup1\n      sload\n      tag_193\n      swap1\n      tag_140\n      jump\t// in\n    tag_193:\n      dup1\n      iszero\n      tag_194\n      jumpi\n      dup1\n      0x1f\n      lt\n      tag_195\n      jumpi\n      0x0100\n      dup1\n      dup4\n      sload\n      div\n      mul\n      dup4\n      mstore\n      swap2\n      0x20\n      add\n      swap2\n      jump(tag_194)\n    tag_195:\n      dup3\n      add\n      swap2\n      swap1\n      0x00\n      mstore\n      keccak256(0x00, 0x20)\n      swap1\n    tag_196:\n      dup2\n      sload\n      dup2\n      mstore\n      swap1\n      0x01\n      add\n      swap1\n      0x20\n      add\n      dup1\n      dup4\n      gt\n      tag_196\n      jumpi\n      dup3\n      swap1\n      sub\n      0x1f\n      and\n      dup3\n      add\n      swap2\n    tag_194:\n      pop\n      pop\n      pop\n      pop\n      pop\n      swap1\n      dup1\n      0x0a\n      add\n      sload\n      swap1\n      pop\n      dup12\n      jump\t// out\n        /* \"BatuFi.sol\":1311:1349  mapping(string => Role) public roleMap */\n    tag_50:\n      0x0a\n      dup2\n      dup1\n      mload\n      0x20\n      dup2\n      add\n      dup3\n      add\n      dup1\n      mload\n      dup5\n      dup3\n      mstore\n      0x20\n      dup4\n      add\n      0x20\n      dup6\n      add\n      keccak256\n      dup2\n      dup4\n      mstore\n      dup1\n      swap6\n      pop\n      pop\n      pop\n      pop\n      pop\n      pop\n      0x00\n      swap2\n      pop\n      swap1\n      pop\n      dup1\n      0x00\n      add\n      sload\n      swap1\n      dup1\n      0x01\n      add\n      dup1\n      sload\n      tag_197\n      swap1\n      tag_140\n      jump\t// in\n    tag_197:\n      dup1\n      0x1f\n      add\n      0x20\n      dup1\n      swap2\n      div\n      mul\n      0x20\n      add\n      mload(0x40)\n      swap1\n      dup2\n      add\n      0x40\n      mstore\n      dup1\n      swap3\n      swap2\n      swap1\n      dup2\n      dup2\n      mstore\n      0x20\n      add\n      dup3\n      dup1\n      sload\n      tag_198\n      swap1\n      tag_140\n      jump\t// in\n    tag_198:\n      dup1\n      iszero\n      tag_199\n      jumpi\n      dup1\n      0x1f\n      lt\n      tag_200\n      jumpi\n      0x0100\n      dup1\n      dup4\n      sload\n      div\n      mul\n      dup4\n      mstore\n      swap2\n      0x20\n      add\n      swap2\n      jump(tag_199)\n    tag_200:\n      dup3\n      add\n      swap2\n      swap1\n      0x00\n      mstore\n      keccak256(0x00, 0x20)\n      swap1\n    tag_201:\n      dup2\n      sload\n      dup2\n      mstore\n      swap1\n      0x01\n      add\n      swap1\n      0x20\n      add\n      dup1\n      dup4\n      gt\n      tag_201\n      jumpi\n      dup3\n      swap1\n      sub\n      0x1f\n      and\n      dup3\n      add\n      swap2\n    tag_199:\n      pop\n      pop\n      pop\n      pop\n      pop\n      swap1\n      dup1\n      0x02\n      add\n      dup1\n      sload\n      tag_202\n      swap1\n      tag_140\n      jump\t// in\n    tag_202:\n      dup1\n      0x1f\n      add\n      0x20\n      dup1\n      swap2\n      div\n      mul\n      0x20\n      add\n      mload(0x40)\n      swap1\n      dup2\n      add\n      0x40\n      mstore\n      dup1\n      swap3\n      swap2\n      swap1\n      dup2\n      dup2\n      mstore\n      0x20\n      add\n      dup3\n      dup1\n      sload\n      tag_203\n      swap1\n      tag_140\n      jump\t// in\n    tag_203:\n      dup1\n      iszero\n      tag_204\n      jumpi\n      dup1\n      0x1f\n      lt\n      tag_205\n      jumpi\n      0x0100\n      dup1\n      dup4\n      sload\n      div\n      mul\n      dup4\n      mstore\n      swap2\n      0x20\n      add\n      swap2\n      jump(tag_204)\n    tag_205:\n      dup3\n      add\n      swap2\n      swap1\n      0x00\n      mstore\n      keccak256(0x00, 0x20)\n      swap1\n    tag_206:\n      dup2\n      sload\n      dup2\n      mstore\n      swap1\n      0x01\n      add\n      swap1\n      0x20\n      add\n      dup1\n      dup4\n      gt\n      tag_206\n      jumpi\n      dup3\n      swap1\n      sub\n      0x1f\n      and\n      dup3\n      add\n      swap2\n    tag_204:\n      pop\n      pop\n      pop\n      pop\n      pop\n      swap1\n      dup1\n      0x03\n      add\n      sload\n      swap1\n      dup1\n      0x04\n      add\n      sload\n      swap1\n      pop\n      dup6\n      jump\t// out\n        /* \"BatuFi.sol\":12202:12312  function listTransaction() public view returns(Transaction[] memory) {\r... */\n    tag_54:\n        /* \"BatuFi.sol\":12249:12269  Transaction[] memory */\n      0x60\n        /* \"BatuFi.sol\":12289:12304  transactionList */\n      0x06\n        /* \"BatuFi.sol\":12282:12304  return transactionList */\n      dup1\n      sload\n      dup1\n      0x20\n      mul\n      0x20\n      add\n      mload(0x40)\n      swap1\n      dup2\n      add\n      0x40\n      mstore\n      dup1\n      swap3\n      swap2\n      swap1\n      dup2\n      dup2\n      mstore\n      0x20\n      add\n      0x00\n      swap1\n    tag_208:\n      dup3\n      dup3\n      lt\n      iszero\n      tag_209\n      jumpi\n      dup4\n      dup3\n      swap1\n      0x00\n      mstore\n      keccak256(0x00, 0x20)\n      swap1\n      0x0b\n      mul\n      add\n      mload(0x40)\n      dup1\n      0x0160\n      add\n      0x40\n      mstore\n      swap1\n      dup2\n      0x00\n      dup3\n      add\n      dup1\n      sload\n      tag_211\n      swap1\n      tag_140\n      jump\t// in\n    tag_211:\n      dup1\n      0x1f\n      add\n      0x20\n      dup1\n      swap2\n      div\n      mul\n      0x20\n      add\n      mload(0x40)\n      swap1\n      dup2\n      add\n      0x40\n      mstore\n      dup1\n      swap3\n      swap2\n      swap1\n      dup2\n      dup2\n      mstore\n      0x20\n      add\n      dup3\n      dup1\n      sload\n      tag_212\n      swap1\n      tag_140\n      jump\t// in\n    tag_212:\n      dup1\n      iszero\n      tag_213\n      jumpi\n      dup1\n      0x1f\n      lt\n      tag_214\n      jumpi\n      0x0100\n      dup1\n      dup4\n      sload\n      div\n      mul\n      dup4\n      mstore\n      swap2\n      0x20\n      add\n      swap2\n      jump(tag_213)\n    tag_214:\n      dup3\n      add\n      swap2\n      swap1\n      0x00\n      mstore\n      keccak256(0x00, 0x20)\n      swap1\n    tag_215:\n      dup2\n      sload\n      dup2\n      mstore\n      swap1\n      0x01\n      add\n      swap1\n      0x20\n      add\n      dup1\n      dup4\n      gt\n      tag_215\n      jumpi\n      dup3\n      swap1\n      sub\n      0x1f\n      and\n      dup3\n      add\n      swap2\n    tag_213:\n      pop\n      pop\n      pop\n      pop\n      pop\n      dup2\n      mstore\n      0x20\n      add\n      0x01\n      dup3\n      add\n      dup1\n      sload\n      tag_216\n      swap1\n      tag_140\n      jump\t// in\n    tag_216:\n      dup1\n      0x1f\n      add\n      0x20\n      dup1\n      swap2\n      div\n      mul\n      0x20\n      add\n      mload(0x40)\n      swap1\n      dup2\n      add\n      0x40\n      mstore\n      dup1\n      swap3\n      swap2\n      swap1\n      dup2\n      dup2\n      mstore\n      0x20\n      add\n      dup3\n      dup1\n      sload\n      tag_217\n      swap1\n      tag_140\n      jump\t// in\n    tag_217:\n      dup1\n      iszero\n      tag_218\n      jumpi\n      dup1\n      0x1f\n      lt\n      tag_219\n      jumpi\n      0x0100\n      dup1\n      dup4\n      sload\n      div\n      mul\n      dup4\n      mstore\n      swap2\n      0x20\n      add\n      swap2\n      jump(tag_218)\n    tag_219:\n      dup3\n      add\n      swap2\n      swap1\n      0x00\n      mstore\n      keccak256(0x00, 0x20)\n      swap1\n    tag_220:\n      dup2\n      sload\n      dup2\n      mstore\n      swap1\n      0x01\n      add\n      swap1\n      0x20\n      add\n      dup1\n      dup4\n      gt\n      tag_220\n      jumpi\n      dup3\n      swap1\n      sub\n      0x1f\n      and\n      dup3\n      add\n      swap2\n    tag_218:\n      pop\n      pop\n      pop\n      pop\n      pop\n      dup2\n      mstore\n      0x20\n      add\n      0x02\n      dup3\n      add\n      dup1\n      sload\n      tag_221\n      swap1\n      tag_140\n      jump\t// in\n    tag_221:\n      dup1\n      0x1f\n      add\n      0x20\n      dup1\n      swap2\n      div\n      mul\n      0x20\n      add\n      mload(0x40)\n      swap1\n      dup2\n      add\n      0x40\n      mstore\n      dup1\n      swap3\n      swap2\n      swap1\n      dup2\n      dup2\n      mstore\n      0x20\n      add\n      dup3\n      dup1\n      sload\n      tag_222\n      swap1\n      tag_140\n      jump\t// in\n    tag_222:\n      dup1\n      iszero\n      tag_223\n      jumpi\n      dup1\n      0x1f\n      lt\n      tag_224\n      jumpi\n      0x0100\n      dup1\n      dup4\n      sload\n      div\n      mul\n      dup4\n      mstore\n      swap2\n      0x20\n      add\n      swap2\n      jump(tag_223)\n    tag_224:\n      dup3\n      add\n      swap2\n      swap1\n      0x00\n      mstore\n      keccak256(0x00, 0x20)\n      swap1\n    tag_225:\n      dup2\n      sload\n      dup2\n      mstore\n      swap1\n      0x01\n      add\n      swap1\n      0x20\n      add\n      dup1\n      dup4\n      gt\n      tag_225\n      jumpi\n      dup3\n      swap1\n      sub\n      0x1f\n      and\n      dup3\n      add\n      swap2\n    tag_223:\n      pop\n      pop\n      pop\n      pop\n      pop\n      dup2\n      mstore\n      0x20\n      add\n      0x03\n      dup3\n      add\n      dup1\n      sload\n      tag_226\n      swap1\n      tag_140\n      jump\t// in\n    tag_226:\n      dup1\n      0x1f\n      add\n      0x20\n      dup1\n      swap2\n      div\n      mul\n      0x20\n      add\n      mload(0x40)\n      swap1\n      dup2\n      add\n      0x40\n      mstore\n      dup1\n      swap3\n      swap2\n      swap1\n      dup2\n      dup2\n      mstore\n      0x20\n      add\n      dup3\n      dup1\n      sload\n      tag_227\n      swap1\n      tag_140\n      jump\t// in\n    tag_227:\n      dup1\n      iszero\n      tag_228\n      jumpi\n      dup1\n      0x1f\n      lt\n      tag_229\n      jumpi\n      0x0100\n      dup1\n      dup4\n      sload\n      div\n      mul\n      dup4\n      mstore\n      swap2\n      0x20\n      add\n      swap2\n      jump(tag_228)\n    tag_229:\n      dup3\n      add\n      swap2\n      swap1\n      0x00\n      mstore\n      keccak256(0x00, 0x20)\n      swap1\n    tag_230:\n      dup2\n      sload\n      dup2\n      mstore\n      swap1\n      0x01\n      add\n      swap1\n      0x20\n      add\n      dup1\n      dup4\n      gt\n      tag_230\n      jumpi\n      dup3\n      swap1\n      sub\n      0x1f\n      and\n      dup3\n      add\n      swap2\n    tag_228:\n      pop\n      pop\n      pop\n      pop\n      pop\n      dup2\n      mstore\n      0x20\n      add\n      0x04\n      dup3\n      add\n      sload\n      dup2\n      mstore\n      0x20\n      add\n      0x05\n      dup3\n      add\n      dup1\n      sload\n      tag_231\n      swap1\n      tag_140\n      jump\t// in\n    tag_231:\n      dup1\n      0x1f\n      add\n      0x20\n      dup1\n      swap2\n      div\n      mul\n      0x20\n      add\n      mload(0x40)\n      swap1\n      dup2\n      add\n      0x40\n      mstore\n      dup1\n      swap3\n      swap2\n      swap1\n      dup2\n      dup2\n      mstore\n      0x20\n      add\n      dup3\n      dup1\n      sload\n      tag_232\n      swap1\n      tag_140\n      jump\t// in\n    tag_232:\n      dup1\n      iszero\n      tag_233\n      jumpi\n      dup1\n      0x1f\n      lt\n      tag_234\n      jumpi\n      0x0100\n      dup1\n      dup4\n      sload\n      div\n      mul\n      dup4\n      mstore\n      swap2\n      0x20\n      add\n      swap2\n      jump(tag_233)\n    tag_234:\n      dup3\n      add\n      swap2\n      swap1\n      0x00\n      mstore\n      keccak256(0x00, 0x20)\n      swap1\n    tag_235:\n      dup2\n      sload\n      dup2\n      mstore\n      swap1\n      0x01\n      add\n      swap1\n      0x20\n      add\n      dup1\n      dup4\n      gt\n      tag_235\n      jumpi\n      dup3\n      swap1\n      sub\n      0x1f\n      and\n      dup3\n      add\n      swap2\n    tag_233:\n      pop\n      pop\n      pop\n      pop\n      pop\n      dup2\n      mstore\n      0x20\n      add\n      0x06\n      dup3\n      add\n      0x00\n      swap1\n      sload\n      swap1\n      0x0100\n      exp\n      swap1\n      div\n      0xffffffffffffffffffffffffffffffffffffffff\n      and\n      0xffffffffffffffffffffffffffffffffffffffff\n      and\n      0xffffffffffffffffffffffffffffffffffffffff\n      and\n      dup2\n      mstore\n      0x20\n      add\n      0x07\n      dup3\n      add\n      sload\n      dup2\n      mstore\n      0x20\n      add\n      0x08\n      dup3\n      add\n      dup1\n      sload\n      tag_236\n      swap1\n      tag_140\n      jump\t// in\n    tag_236:\n      dup1\n      0x1f\n      add\n      0x20\n      dup1\n      swap2\n      div\n      mul\n      0x20\n      add\n      mload(0x40)\n      swap1\n      dup2\n      add\n      0x40\n      mstore\n      dup1\n      swap3\n      swap2\n      swap1\n      dup2\n      dup2\n      mstore\n      0x20\n      add\n      dup3\n      dup1\n      sload\n      tag_237\n      swap1\n      tag_140\n      jump\t// in\n    tag_237:\n      dup1\n      iszero\n      tag_238\n      jumpi\n      dup1\n      0x1f\n      lt\n      tag_239\n      jumpi\n      0x0100\n      dup1\n      dup4\n      sload\n      div\n      mul\n      dup4\n      mstore\n      swap2\n      0x20\n      add\n      swap2\n      jump(tag_238)\n    tag_239:\n      dup3\n      add\n      swap2\n      swap1\n      0x00\n      mstore\n      keccak256(0x00, 0x20)\n      swap1\n    tag_240:\n      dup2\n      sload\n      dup2\n      mstore\n      swap1\n      0x01\n      add\n      swap1\n      0x20\n      add\n      dup1\n      dup4\n      gt\n      tag_240\n      jumpi\n      dup3\n      swap1\n      sub\n      0x1f\n      and\n      dup3\n      add\n      swap2\n    tag_238:\n      pop\n      pop\n      pop\n      pop\n      pop\n      dup2\n      mstore\n      0x20\n      add\n      0x09\n      dup3\n      add\n      dup1\n      sload\n      tag_241\n      swap1\n      tag_140\n      jump\t// in\n    tag_241:\n      dup1\n      0x1f\n      add\n      0x20\n      dup1\n      swap2\n      div\n      mul\n      0x20\n      add\n      mload(0x40)\n      swap1\n      dup2\n      add\n      0x40\n      mstore\n      dup1\n      swap3\n      swap2\n      swap1\n      dup2\n      dup2\n      mstore\n      0x20\n      add\n      dup3\n      dup1\n      sload\n      tag_242\n      swap1\n      tag_140\n      jump\t// in\n    tag_242:\n      dup1\n      iszero\n      tag_243\n      jumpi\n      dup1\n      0x1f\n      lt\n      tag_244\n      jumpi\n      0x0100\n      dup1\n      dup4\n      sload\n      div\n      mul\n      dup4\n      mstore\n      swap2\n      0x20\n      add\n      swap2\n      jump(tag_243)\n    tag_244:\n      dup3\n      add\n      swap2\n      swap1\n      0x00\n      mstore\n      keccak256(0x00, 0x20)\n      swap1\n    tag_245:\n      dup2\n      sload\n      dup2\n      mstore\n      swap1\n      0x01\n      add\n      swap1\n      0x20\n      add\n      dup1\n      dup4\n      gt\n      tag_245\n      jumpi\n      dup3\n      swap1\n      sub\n      0x1f\n      and\n      dup3\n      add\n      swap2\n    tag_243:\n      pop\n      pop\n      pop\n      pop\n      pop\n      dup2\n      mstore\n      0x20\n      add\n      0x0a\n      dup3\n      add\n      sload\n      dup2\n      mstore\n      pop\n      pop\n      dup2\n      mstore\n      0x20\n      add\n      swap1\n      0x01\n      add\n      swap1\n      jump(tag_208)\n    tag_209:\n      pop\n      pop\n      pop\n      pop\n      swap1\n      pop\n        /* \"BatuFi.sol\":12202:12312  function listTransaction() public view returns(Transaction[] memory) {\r... */\n      swap1\n      jump\t// out\n        /* \"BatuFi.sol\":1356:1395  mapping(address => User) public userMap */\n    tag_60:\n      mstore(0x20, 0x0b)\n      dup1\n      0x00\n      mstore\n      keccak256(0x00, 0x40)\n      0x00\n      swap2\n      pop\n      swap1\n      pop\n      dup1\n      0x00\n      add\n      dup1\n      sload\n      tag_246\n      swap1\n      tag_140\n      jump\t// in\n    tag_246:\n      dup1\n      0x1f\n      add\n      0x20\n      dup1\n      swap2\n      div\n      mul\n      0x20\n      add\n      mload(0x40)\n      swap1\n      dup2\n      add\n      0x40\n      mstore\n      dup1\n      swap3\n      swap2\n      swap1\n      dup2\n      dup2\n      mstore\n      0x20\n      add\n      dup3\n      dup1\n      sload\n      tag_247\n      swap1\n      tag_140\n      jump\t// in\n    tag_247:\n      dup1\n      iszero\n      tag_248\n      jumpi\n      dup1\n      0x1f\n      lt\n      tag_249\n      jumpi\n      0x0100\n      dup1\n      dup4\n      sload\n      div\n      mul\n      dup4\n      mstore\n      swap2\n      0x20\n      add\n      swap2\n      jump(tag_248)\n    tag_249:\n      dup3\n      add\n      swap2\n      swap1\n      0x00\n      mstore\n      keccak256(0x00, 0x20)\n      swap1\n    tag_250:\n      dup2\n      sload\n      dup2\n      mstore\n      swap1\n      0x01\n      add\n      swap1\n      0x20\n      add\n      dup1\n      dup4\n      gt\n      tag_250\n      jumpi\n      dup3\n      swap1\n      sub\n      0x1f\n      and\n      dup3\n      add\n      swap2\n    tag_248:\n      pop\n      pop\n      pop\n      pop\n      pop\n      swap1\n      dup1\n      0x01\n      add\n      dup1\n      sload\n      tag_251\n      swap1\n      tag_140\n      jump\t// in\n    tag_251:\n      dup1\n      0x1f\n      add\n      0x20\n      dup1\n      swap2\n      div\n      mul\n      0x20\n      add\n      mload(0x40)\n      swap1\n      dup2\n      add\n      0x40\n      mstore\n      dup1\n      swap3\n      swap2\n      swap1\n      dup2\n      dup2\n      mstore\n      0x20\n      add\n      dup3\n      dup1\n      sload\n      tag_252\n      swap1\n      tag_140\n      jump\t// in\n    tag_252:\n      dup1\n      iszero\n      tag_253\n      jumpi\n      dup1\n      0x1f\n      lt\n      tag_254\n      jumpi\n      0x0100\n      dup1\n      dup4\n      sload\n      div\n      mul\n      dup4\n      mstore\n      swap2\n      0x20\n      add\n      swap2\n      jump(tag_253)\n    tag_254:\n      dup3\n      add\n      swap2\n      swap1\n      0x00\n      mstore\n      keccak256(0x00, 0x20)\n      swap1\n    tag_255:\n      dup2\n      sload\n      dup2\n      mstore\n      swap1\n      0x01\n      add\n      swap1\n      0x20\n      add\n      dup1\n      dup4\n      gt\n      tag_255\n      jumpi\n      dup3\n      swap1\n      sub\n      0x1f\n      and\n      dup3\n      add\n      swap2\n    tag_253:\n      pop\n      pop\n      pop\n      pop\n      pop\n      swap1\n      dup1\n      0x02\n      add\n      0x00\n      swap1\n      sload\n      swap1\n      0x0100\n      exp\n      swap1\n      div\n      0xffffffffffffffffffffffffffffffffffffffff\n      and\n      swap1\n      dup1\n      0x03\n      add\n      sload\n      swap1\n      dup1\n      0x04\n      add\n      sload\n      swap1\n      dup1\n      0x05\n      add\n      sload\n      swap1\n      dup1\n      0x06\n      add\n      sload\n      swap1\n      pop\n      dup8\n      jump\t// out\n        /* \"BatuFi.sol\":12032:12190  function listApprovals(string memory _hash) public view returns(Approval memory) {\r... */\n    tag_65:\n        /* \"BatuFi.sol\":12096:12111  Approval memory */\n      tag_256\n      tag_257\n      jump\t// in\n    tag_256:\n        /* \"BatuFi.sol\":12124:12142  Approval storage a */\n      0x00\n        /* \"BatuFi.sol\":12145:12156  approvalMap */\n      0x0e\n        /* \"BatuFi.sol\":12157:12162  _hash */\n      dup4\n        /* \"BatuFi.sol\":12145:12163  approvalMap[_hash] */\n      mload(0x40)\n      tag_259\n      swap2\n      swap1\n      tag_260\n      jump\t// in\n    tag_259:\n      swap1\n      dup2\n      mstore\n      0x20\n      add\n      mload(0x40)\n      dup1\n      swap2\n      sub\n      swap1\n      keccak256\n        /* \"BatuFi.sol\":12124:12163  Approval storage a = approvalMap[_hash] */\n      swap1\n      pop\n        /* \"BatuFi.sol\":12181:12182  a */\n      dup1\n        /* \"BatuFi.sol\":12174:12182  return a */\n      mload(0x40)\n      dup1\n      0x40\n      add\n      0x40\n      mstore\n      swap1\n      dup2\n      0x00\n      dup3\n      add\n      dup1\n      sload\n      tag_261\n      swap1\n      tag_140\n      jump\t// in\n    tag_261:\n      dup1\n      0x1f\n      add\n      0x20\n      dup1\n      swap2\n      div\n      mul\n      0x20\n      add\n      mload(0x40)\n      swap1\n      dup2\n      add\n      0x40\n      mstore\n      dup1\n      swap3\n      swap2\n      swap1\n      dup2\n      dup2\n      mstore\n      0x20\n      add\n      dup3\n      dup1\n      sload\n      tag_262\n      swap1\n      tag_140\n      jump\t// in\n    tag_262:\n      dup1\n      iszero\n      tag_263\n      jumpi\n      dup1\n      0x1f\n      lt\n      tag_264\n      jumpi\n      0x0100\n      dup1\n      dup4\n      sload\n      div\n      mul\n      dup4\n      mstore\n      swap2\n      0x20\n      add\n      swap2\n      jump(tag_263)\n    tag_264:\n      dup3\n      add\n      swap2\n      swap1\n      0x00\n      mstore\n      keccak256(0x00, 0x20)\n      swap1\n    tag_265:\n      dup2\n      sload\n      dup2\n      mstore\n      swap1\n      0x01\n      add\n      swap1\n      0x20\n      add\n      dup1\n      dup4\n      gt\n      tag_265\n      jumpi\n      dup3\n      swap1\n      sub\n      0x1f\n      and\n      dup3\n      add\n      swap2\n    tag_263:\n      pop\n      pop\n      pop\n      pop\n      pop\n      dup2\n      mstore\n      0x20\n      add\n      0x01\n      dup3\n      add\n      dup1\n      sload\n      dup1\n      0x20\n      mul\n      0x20\n      add\n      mload(0x40)\n      swap1\n      dup2\n      add\n      0x40\n      mstore\n      dup1\n      swap3\n      swap2\n      swap1\n      dup2\n      dup2\n      mstore\n      0x20\n      add\n      0x00\n      swap1\n    tag_266:\n      dup3\n      dup3\n      lt\n      iszero\n      tag_267\n      jumpi\n      dup4\n      dup3\n      swap1\n      0x00\n      mstore\n      keccak256(0x00, 0x20)\n      swap1\n      0x07\n      mul\n      add\n      mload(0x40)\n      dup1\n      0xe0\n      add\n      0x40\n      mstore\n      swap1\n      dup2\n      0x00\n      dup3\n      add\n      dup1\n      sload\n      tag_269\n      swap1\n      tag_140\n      jump\t// in\n    tag_269:\n      dup1\n      0x1f\n      add\n      0x20\n      dup1\n      swap2\n      div\n      mul\n      0x20\n      add\n      mload(0x40)\n      swap1\n      dup2\n      add\n      0x40\n      mstore\n      dup1\n      swap3\n      swap2\n      swap1\n      dup2\n      dup2\n      mstore\n      0x20\n      add\n      dup3\n      dup1\n      sload\n      tag_270\n      swap1\n      tag_140\n      jump\t// in\n    tag_270:\n      dup1\n      iszero\n      tag_271\n      jumpi\n      dup1\n      0x1f\n      lt\n      tag_272\n      jumpi\n      0x0100\n      dup1\n      dup4\n      sload\n      div\n      mul\n      dup4\n      mstore\n      swap2\n      0x20\n      add\n      swap2\n      jump(tag_271)\n    tag_272:\n      dup3\n      add\n      swap2\n      swap1\n      0x00\n      mstore\n      keccak256(0x00, 0x20)\n      swap1\n    tag_273:\n      dup2\n      sload\n      dup2\n      mstore\n      swap1\n      0x01\n      add\n      swap1\n      0x20\n      add\n      dup1\n      dup4\n      gt\n      tag_273\n      jumpi\n      dup3\n      swap1\n      sub\n      0x1f\n      and\n      dup3\n      add\n      swap2\n    tag_271:\n      pop\n      pop\n      pop\n      pop\n      pop\n      dup2\n      mstore\n      0x20\n      add\n      0x01\n      dup3\n      add\n      dup1\n      sload\n      tag_274\n      swap1\n      tag_140\n      jump\t// in\n    tag_274:\n      dup1\n      0x1f\n      add\n      0x20\n      dup1\n      swap2\n      div\n      mul\n      0x20\n      add\n      mload(0x40)\n      swap1\n      dup2\n      add\n      0x40\n      mstore\n      dup1\n      swap3\n      swap2\n      swap1\n      dup2\n      dup2\n      mstore\n      0x20\n      add\n      dup3\n      dup1\n      sload\n      tag_275\n      swap1\n      tag_140\n      jump\t// in\n    tag_275:\n      dup1\n      iszero\n      tag_276\n      jumpi\n      dup1\n      0x1f\n      lt\n      tag_277\n      jumpi\n      0x0100\n      dup1\n      dup4\n      sload\n      div\n      mul\n      dup4\n      mstore\n      swap2\n      0x20\n      add\n      swap2\n      jump(tag_276)\n    tag_277:\n      dup3\n      add\n      swap2\n      swap1\n      0x00\n      mstore\n      keccak256(0x00, 0x20)\n      swap1\n    tag_278:\n      dup2\n      sload\n      dup2\n      mstore\n      swap1\n      0x01\n      add\n      swap1\n      0x20\n      add\n      dup1\n      dup4\n      gt\n      tag_278\n      jumpi\n      dup3\n      swap1\n      sub\n      0x1f\n      and\n      dup3\n      add\n      swap2\n    tag_276:\n      pop\n      pop\n      pop\n      pop\n      pop\n      dup2\n      mstore\n      0x20\n      add\n      0x02\n      dup3\n      add\n      0x00\n      swap1\n      sload\n      swap1\n      0x0100\n      exp\n      swap1\n      div\n      0xffffffffffffffffffffffffffffffffffffffff\n      and\n      0xffffffffffffffffffffffffffffffffffffffff\n      and\n      0xffffffffffffffffffffffffffffffffffffffff\n      and\n      dup2\n      mstore\n      0x20\n      add\n      0x03\n      dup3\n      add\n      sload\n      dup2\n      mstore\n      0x20\n      add\n      0x04\n      dup3\n      add\n      sload\n      dup2\n      mstore\n      0x20\n      add\n      0x05\n      dup3\n      add\n      sload\n      dup2\n      mstore\n      0x20\n      add\n      0x06\n      dup3\n      add\n      sload\n      dup2\n      mstore\n      pop\n      pop\n      dup2\n      mstore\n      0x20\n      add\n      swap1\n      0x01\n      add\n      swap1\n      jump(tag_266)\n    tag_267:\n      pop\n      pop\n      pop\n      pop\n      dup2\n      mstore\n      pop\n      pop\n      swap2\n      pop\n      pop\n        /* \"BatuFi.sol\":12032:12190  function listApprovals(string memory _hash) public view returns(Approval memory) {\r... */\n      swap2\n      swap1\n      pop\n      jump\t// out\n        /* \"BatuFi.sol\":2433:2525  function authCreator() public view creatorOnly returns (bool) {\r... */\n    tag_69:\n        /* \"BatuFi.sol\":2489:2493  bool */\n      0x00\n        /* \"BatuFi.sol\":1990:1997  creator */\n      dup1\n      0x00\n      swap1\n      sload\n      swap1\n      0x0100\n      exp\n      swap1\n      div\n      0xffffffffffffffffffffffffffffffffffffffff\n      and\n        /* \"BatuFi.sol\":1976:1997  msg.sender == creator */\n      0xffffffffffffffffffffffffffffffffffffffff\n      and\n        /* \"BatuFi.sol\":1976:1986  msg.sender */\n      caller\n        /* \"BatuFi.sol\":1976:1997  msg.sender == creator */\n      0xffffffffffffffffffffffffffffffffffffffff\n      and\n      eq\n        /* \"BatuFi.sol\":1968:1998  require(msg.sender == creator) */\n      tag_280\n      jumpi\n      0x00\n      dup1\n      revert\n    tag_280:\n        /* \"BatuFi.sol\":2513:2517  true */\n      0x01\n        /* \"BatuFi.sol\":2506:2517  return true */\n      swap1\n      pop\n        /* \"BatuFi.sol\":2433:2525  function authCreator() public view creatorOnly returns (bool) {\r... */\n      swap1\n      jump\t// out\n        /* \"BatuFi.sol\":9607:11695  function approveTransaction(string memory _hash) public returns(uint) {\r... */\n    tag_74:\n        /* \"BatuFi.sol\":9671:9675  uint */\n      0x00\n        /* \"BatuFi.sol\":9688:9709  Transaction storage t */\n      dup1\n        /* \"BatuFi.sol\":9712:9726  transactionMap */\n      0x0c\n        /* \"BatuFi.sol\":9727:9732  _hash */\n      dup4\n        /* \"BatuFi.sol\":9712:9733  transactionMap[_hash] */\n      mload(0x40)\n      tag_283\n      swap2\n      swap1\n      tag_260\n      jump\t// in\n    tag_283:\n      swap1\n      dup2\n      mstore\n      0x20\n      add\n      mload(0x40)\n      dup1\n      swap2\n      sub\n      swap1\n      keccak256\n        /* \"BatuFi.sol\":9688:9733  Transaction storage t = transactionMap[_hash] */\n      swap1\n      pop\n        /* \"BatuFi.sol\":9744:9774  string storage currentApproval */\n      0x00\n        /* \"BatuFi.sol\":9777:9778  t */\n      dup2\n        /* \"BatuFi.sol\":9777:9798  t.currentApprovalRole */\n      0x08\n      add\n        /* \"BatuFi.sol\":9744:9798  string storage currentApproval = t.currentApprovalRole */\n      swap1\n      pop\n        /* \"BatuFi.sol\":9809:9836  string storage uptoApproval */\n      0x00\n        /* \"BatuFi.sol\":9839:9840  t */\n      dup3\n        /* \"BatuFi.sol\":9839:9857  t.uptoApprovalRole */\n      0x09\n      add\n        /* \"BatuFi.sol\":9809:9857  string storage uptoApproval = t.uptoApprovalRole */\n      swap1\n      pop\n        /* \"BatuFi.sol\":9868:9887  uint validationCode */\n      0x00\n        /* \"BatuFi.sol\":9890:9915  validateTxDuration(_hash) */\n      tag_284\n        /* \"BatuFi.sol\":9909:9914  _hash */\n      dup7\n        /* \"BatuFi.sol\":9890:9908  validateTxDuration */\n      tag_125\n        /* \"BatuFi.sol\":9890:9915  validateTxDuration(_hash) */\n      jump\t// in\n    tag_284:\n        /* \"BatuFi.sol\":9868:9915  uint validationCode = validateTxDuration(_hash) */\n      swap1\n      pop\n        /* \"BatuFi.sol\":9949:9950  1 */\n      0x01\n        /* \"BatuFi.sol\":9931:9945  validationCode */\n      dup2\n        /* \"BatuFi.sol\":9931:9950  validationCode == 1 */\n      eq\n        /* \"BatuFi.sol\":9928:11688  if(validationCode == 1) {\r... */\n      iszero\n      tag_285\n      jumpi\n        /* \"BatuFi.sol\":10096:10114  Approval storage a */\n      0x00\n        /* \"BatuFi.sol\":10117:10128  approvalMap */\n      0x0e\n        /* \"BatuFi.sol\":10129:10134  _hash */\n      dup8\n        /* \"BatuFi.sol\":10117:10135  approvalMap[_hash] */\n      mload(0x40)\n      tag_286\n      swap2\n      swap1\n      tag_260\n      jump\t// in\n    tag_286:\n      swap1\n      dup2\n      mstore\n      0x20\n      add\n      mload(0x40)\n      dup1\n      swap2\n      sub\n      swap1\n      keccak256\n        /* \"BatuFi.sol\":10096:10135  Approval storage a = approvalMap[_hash] */\n      swap1\n      pop\n        /* \"BatuFi.sol\":10150:10164  User storage u */\n      0x00\n        /* \"BatuFi.sol\":10167:10174  userMap */\n      0x0b\n        /* \"BatuFi.sol\":10167:10186  userMap[msg.sender] */\n      0x00\n        /* \"BatuFi.sol\":10175:10185  msg.sender */\n      caller\n        /* \"BatuFi.sol\":10167:10186  userMap[msg.sender] */\n      0xffffffffffffffffffffffffffffffffffffffff\n      and\n      0xffffffffffffffffffffffffffffffffffffffff\n      and\n      dup2\n      mstore\n      0x20\n      add\n      swap1\n      dup2\n      mstore\n      0x20\n      add\n      0x00\n      keccak256\n        /* \"BatuFi.sol\":10150:10186  User storage u = userMap[msg.sender] */\n      swap1\n      pop\n        /* \"BatuFi.sol\":10201:10202  a */\n      dup2\n        /* \"BatuFi.sol\":10201:10215  a.approvalList */\n      0x01\n      add\n        /* \"BatuFi.sol\":10221:10222  u */\n      dup2\n        /* \"BatuFi.sol\":10201:10223  a.approvalList.push(u) */\n      swap1\n      dup1\n      0x01\n      dup2\n      sload\n      add\n      dup1\n      dup3\n      sstore\n      dup1\n      swap2\n      pop\n      pop\n      0x01\n      swap1\n      sub\n      swap1\n      0x00\n      mstore\n      keccak256(0x00, 0x20)\n      swap1\n      0x07\n      mul\n      add\n      0x00\n      swap1\n      swap2\n      swap1\n      swap2\n      swap1\n      swap2\n      pop\n      0x00\n      dup3\n      add\n      dup2\n      0x00\n      add\n      swap1\n      dup1\n      sload\n      tag_288\n      swap1\n      tag_140\n      jump\t// in\n    tag_288:\n      tag_289\n      swap3\n      swap2\n      swap1\n      tag_290\n      jump\t// in\n    tag_289:\n      pop\n      0x01\n      dup3\n      add\n      dup2\n      0x01\n      add\n      swap1\n      dup1\n      sload\n      tag_291\n      swap1\n      tag_140\n      jump\t// in\n    tag_291:\n      tag_292\n      swap3\n      swap2\n      swap1\n      tag_290\n      jump\t// in\n    tag_292:\n      pop\n      0x02\n      dup3\n      add\n      0x00\n      swap1\n      sload\n      swap1\n      0x0100\n      exp\n      swap1\n      div\n      0xffffffffffffffffffffffffffffffffffffffff\n      and\n      dup2\n      0x02\n      add\n      exp(0x0100, 0x00)\n      dup2\n      sload\n      dup2\n      0xffffffffffffffffffffffffffffffffffffffff\n      mul\n      not\n      and\n      swap1\n      dup4\n      0xffffffffffffffffffffffffffffffffffffffff\n      and\n      mul\n      or\n      swap1\n      sstore\n      pop\n      0x03\n      dup3\n      add\n      sload\n      dup2\n      0x03\n      add\n      sstore\n      0x04\n      dup3\n      add\n      sload\n      dup2\n      0x04\n      add\n      sstore\n      0x05\n      dup3\n      add\n      sload\n      dup2\n      0x05\n      add\n      sstore\n      0x06\n      dup3\n      add\n      sload\n      dup2\n      0x06\n      add\n      sstore\n      pop\n      pop\n        /* \"BatuFi.sol\":10317:10318  1 */\n      0x01\n        /* \"BatuFi.sol\":10302:10303  u */\n      dup2\n        /* \"BatuFi.sol\":10302:10316  u.approveCount */\n      0x04\n      add\n      sload\n        /* \"BatuFi.sol\":10302:10318  u.approveCount+1 */\n      tag_293\n      swap2\n      swap1\n      tag_294\n      jump\t// in\n    tag_293:\n        /* \"BatuFi.sol\":10285:10286  u */\n      dup2\n        /* \"BatuFi.sol\":10285:10299  u.approveCount */\n      0x04\n      add\n        /* \"BatuFi.sol\":10285:10318  u.approveCount = u.approveCount+1 */\n      dup2\n      swap1\n      sstore\n      pop\n        /* \"BatuFi.sol\":10335:10358  Notification storage n1 */\n      0x00\n        /* \"BatuFi.sol\":10361:10376  notificationMap */\n      0x0d\n        /* \"BatuFi.sol\":10377:10382  _hash */\n      dup10\n        /* \"BatuFi.sol\":10361:10383  notificationMap[_hash] */\n      mload(0x40)\n      tag_295\n      swap2\n      swap1\n      tag_260\n      jump\t// in\n    tag_295:\n      swap1\n      dup2\n      mstore\n      0x20\n      add\n      mload(0x40)\n      dup1\n      swap2\n      sub\n      swap1\n      keccak256\n        /* \"BatuFi.sol\":10335:10383  Notification storage n1 = notificationMap[_hash] */\n      swap1\n      pop\n        /* \"BatuFi.sol\":10401:10446  compareStrings(currentApproval, uptoApproval) */\n      tag_296\n        /* \"BatuFi.sol\":10416:10431  currentApproval */\n      dup7\n        /* \"BatuFi.sol\":10401:10446  compareStrings(currentApproval, uptoApproval) */\n      dup1\n      sload\n      tag_297\n      swap1\n      tag_140\n      jump\t// in\n    tag_297:\n      dup1\n      0x1f\n      add\n      0x20\n      dup1\n      swap2\n      div\n      mul\n      0x20\n      add\n      mload(0x40)\n      swap1\n      dup2\n      add\n      0x40\n      mstore\n      dup1\n      swap3\n      swap2\n      swap1\n      dup2\n      dup2\n      mstore\n      0x20\n      add\n      dup3\n      dup1\n      sload\n      tag_298\n      swap1\n      tag_140\n      jump\t// in\n    tag_298:\n      dup1\n      iszero\n      tag_299\n      jumpi\n      dup1\n      0x1f\n      lt\n      tag_300\n      jumpi\n      0x0100\n      dup1\n      dup4\n      sload\n      div\n      mul\n      dup4\n      mstore\n      swap2\n      0x20\n      add\n      swap2\n      jump(tag_299)\n    tag_300:\n      dup3\n      add\n      swap2\n      swap1\n      0x00\n      mstore\n      keccak256(0x00, 0x20)\n      swap1\n    tag_301:\n      dup2\n      sload\n      dup2\n      mstore\n      swap1\n      0x01\n      add\n      swap1\n      0x20\n      add\n      dup1\n      dup4\n      gt\n      tag_301\n      jumpi\n      dup3\n      swap1\n      sub\n      0x1f\n      and\n      dup3\n      add\n      swap2\n    tag_299:\n      pop\n      pop\n      pop\n      pop\n      pop\n        /* \"BatuFi.sol\":10433:10445  uptoApproval */\n      dup7\n        /* \"BatuFi.sol\":10401:10446  compareStrings(currentApproval, uptoApproval) */\n      dup1\n      sload\n      tag_302\n      swap1\n      tag_140\n      jump\t// in\n    tag_302:\n      dup1\n      0x1f\n      add\n      0x20\n      dup1\n      swap2\n      div\n      mul\n      0x20\n      add\n      mload(0x40)\n      swap1\n      dup2\n      add\n      0x40\n      mstore\n      dup1\n      swap3\n      swap2\n      swap1\n      dup2\n      dup2\n      mstore\n      0x20\n      add\n      dup3\n      dup1\n      sload\n      tag_303\n      swap1\n      tag_140\n      jump\t// in\n    tag_303:\n      dup1\n      iszero\n      tag_304\n      jumpi\n      dup1\n      0x1f\n      lt\n      tag_305\n      jumpi\n      0x0100\n      dup1\n      dup4\n      sload\n      div\n      mul\n      dup4\n      mstore\n      swap2\n      0x20\n      add\n      swap2\n      jump(tag_304)\n    tag_305:\n      dup3\n      add\n      swap2\n      swap1\n      0x00\n      mstore\n      keccak256(0x00, 0x20)\n      swap1\n    tag_306:\n      dup2\n      sload\n      dup2\n      mstore\n      swap1\n      0x01\n      add\n      swap1\n      0x20\n      add\n      dup1\n      dup4\n      gt\n      tag_306\n      jumpi\n      dup3\n      swap1\n      sub\n      0x1f\n      and\n      dup3\n      add\n      swap2\n    tag_304:\n      pop\n      pop\n      pop\n      pop\n      pop\n        /* \"BatuFi.sol\":10401:10415  compareStrings */\n      tag_307\n        /* \"BatuFi.sol\":10401:10446  compareStrings(currentApproval, uptoApproval) */\n      jump\t// in\n    tag_296:\n        /* \"BatuFi.sol\":10398:11588  if(compareStrings(currentApproval, uptoApproval)) {\r... */\n      iszero\n      tag_308\n      jumpi\n        /* \"BatuFi.sol\":10616:10637  t.status = \"APPROVED\" */\n      mload(0x40)\n      dup1\n      0x40\n      add\n      0x40\n      mstore\n      dup1\n      0x08\n      dup2\n      mstore\n      0x20\n      add\n      0x415050524f564544000000000000000000000000000000000000000000000000\n      dup2\n      mstore\n      pop\n        /* \"BatuFi.sol\":10616:10617  t */\n      dup8\n        /* \"BatuFi.sol\":10616:10624  t.status */\n      0x05\n      add\n        /* \"BatuFi.sol\":10616:10637  t.status = \"APPROVED\" */\n      swap1\n      dup1\n      mload\n      swap1\n      0x20\n      add\n      swap1\n      tag_309\n      swap3\n      swap2\n      swap1\n      tag_310\n      jump\t// in\n    tag_309:\n      pop\n        /* \"BatuFi.sol\":10658:10692  n1.title = \"Transaction Completed\" */\n      mload(0x40)\n      dup1\n      0x40\n      add\n      0x40\n      mstore\n      dup1\n      0x15\n      dup2\n      mstore\n      0x20\n      add\n      0x5472616e73616374696f6e20436f6d706c657465640000000000000000000000\n      dup2\n      mstore\n      pop\n        /* \"BatuFi.sol\":10658:10660  n1 */\n      dup2\n        /* \"BatuFi.sol\":10658:10666  n1.title */\n      0x00\n      add\n        /* \"BatuFi.sol\":10658:10692  n1.title = \"Transaction Completed\" */\n      swap1\n      dup1\n      mload\n      swap1\n      0x20\n      add\n      swap1\n      tag_311\n      swap3\n      swap2\n      swap1\n      tag_310\n      jump\t// in\n    tag_311:\n      pop\n        /* \"BatuFi.sol\":10786:10791  _hash */\n      dup9\n        /* \"BatuFi.sol\":10731:10845  abi.encodePacked(\"Transaction with transaction hash \", _hash, \" is completed and approved by all the authorities\") */\n      add(0x20, mload(0x40))\n      tag_312\n      swap2\n      swap1\n      tag_313\n      jump\t// in\n    tag_312:\n      mload(0x40)\n      0x20\n      dup2\n      dup4\n      sub\n      sub\n      dup2\n      mstore\n      swap1\n      0x40\n      mstore\n        /* \"BatuFi.sol\":10711:10713  n1 */\n      dup2\n        /* \"BatuFi.sol\":10711:10721  n1.message */\n      0x01\n      add\n        /* \"BatuFi.sol\":10711:10846  n1.message = string(abi.encodePacked(\"Transaction with transaction hash \", _hash, \" is completed and approved by all the authorities\")) */\n      swap1\n      dup1\n      mload\n      swap1\n      0x20\n      add\n      swap1\n      tag_314\n      swap3\n      swap2\n      swap1\n      tag_310\n      jump\t// in\n    tag_314:\n      pop\n        /* \"BatuFi.sol\":10878:10883  _hash */\n      dup9\n        /* \"BatuFi.sol\":10865:10867  n1 */\n      dup2\n        /* \"BatuFi.sol\":10865:10875  n1.docHash */\n      0x02\n      add\n        /* \"BatuFi.sol\":10865:10883  n1.docHash = _hash */\n      swap1\n      dup1\n      mload\n      swap1\n      0x20\n      add\n      swap1\n      tag_315\n      swap3\n      swap2\n      swap1\n      tag_310\n      jump\t// in\n    tag_315:\n      pop\n        /* \"BatuFi.sol\":10902:10924  n1.status = \"APPROVED\" */\n      mload(0x40)\n      dup1\n      0x40\n      add\n      0x40\n      mstore\n      dup1\n      0x08\n      dup2\n      mstore\n      0x20\n      add\n      0x415050524f564544000000000000000000000000000000000000000000000000\n      dup2\n      mstore\n      pop\n        /* \"BatuFi.sol\":10902:10904  n1 */\n      dup2\n        /* \"BatuFi.sol\":10902:10911  n1.status */\n      0x03\n      add\n        /* \"BatuFi.sol\":10902:10924  n1.status = \"APPROVED\" */\n      swap1\n      dup1\n      mload\n      swap1\n      0x20\n      add\n      swap1\n      tag_316\n      swap3\n      swap2\n      swap1\n      tag_310\n      jump\t// in\n    tag_316:\n      pop\n        /* \"BatuFi.sol\":10943:10959  notificationList */\n      0x07\n        /* \"BatuFi.sol\":10965:10967  n1 */\n      dup2\n        /* \"BatuFi.sol\":10943:10968  notificationList.push(n1) */\n      swap1\n      dup1\n      0x01\n      dup2\n      sload\n      add\n      dup1\n      dup3\n      sstore\n      dup1\n      swap2\n      pop\n      pop\n      0x01\n      swap1\n      sub\n      swap1\n      0x00\n      mstore\n      keccak256(0x00, 0x20)\n      swap1\n      0x04\n      mul\n      add\n      0x00\n      swap1\n      swap2\n      swap1\n      swap2\n      swap1\n      swap2\n      pop\n      0x00\n      dup3\n      add\n      dup2\n      0x00\n      add\n      swap1\n      dup1\n      sload\n      tag_318\n      swap1\n      tag_140\n      jump\t// in\n    tag_318:\n      tag_319\n      swap3\n      swap2\n      swap1\n      tag_290\n      jump\t// in\n    tag_319:\n      pop\n      0x01\n      dup3\n      add\n      dup2\n      0x01\n      add\n      swap1\n      dup1\n      sload\n      tag_320\n      swap1\n      tag_140\n      jump\t// in\n    tag_320:\n      tag_321\n      swap3\n      swap2\n      swap1\n      tag_290\n      jump\t// in\n    tag_321:\n      pop\n      0x02\n      dup3\n      add\n      dup2\n      0x02\n      add\n      swap1\n      dup1\n      sload\n      tag_322\n      swap1\n      tag_140\n      jump\t// in\n    tag_322:\n      tag_323\n      swap3\n      swap2\n      swap1\n      tag_290\n      jump\t// in\n    tag_323:\n      pop\n      0x03\n      dup3\n      add\n      dup2\n      0x03\n      add\n      swap1\n      dup1\n      sload\n      tag_324\n      swap1\n      tag_140\n      jump\t// in\n    tag_324:\n      tag_325\n      swap3\n      swap2\n      swap1\n      tag_290\n      jump\t// in\n    tag_325:\n      pop\n      pop\n      pop\n        /* \"BatuFi.sol\":10398:11588  if(compareStrings(currentApproval, uptoApproval)) {\r... */\n      jump(tag_326)\n    tag_308:\n        /* \"BatuFi.sol\":11094:11108  Role storage r */\n      0x00\n        /* \"BatuFi.sol\":11111:11118  roleMap */\n      0x0a\n        /* \"BatuFi.sol\":11119:11134  currentApproval */\n      dup8\n        /* \"BatuFi.sol\":11111:11135  roleMap[currentApproval] */\n      mload(0x40)\n      tag_327\n      swap2\n      swap1\n      tag_328\n      jump\t// in\n    tag_327:\n      swap1\n      dup2\n      mstore\n      0x20\n      add\n      mload(0x40)\n      dup1\n      swap2\n      sub\n      swap1\n      keccak256\n        /* \"BatuFi.sol\":11094:11135  Role storage r = roleMap[currentApproval] */\n      swap1\n      pop\n        /* \"BatuFi.sol\":11154:11181  string storage approvalName */\n      0x00\n        /* \"BatuFi.sol\":11184:11185  r */\n      dup2\n        /* \"BatuFi.sol\":11184:11190  r.name */\n      0x02\n      add\n        /* \"BatuFi.sol\":11154:11190  string storage approvalName = r.name */\n      swap1\n      pop\n        /* \"BatuFi.sol\":11233:11261  getNextRole(currentApproval) */\n      tag_329\n        /* \"BatuFi.sol\":11245:11260  currentApproval */\n      dup9\n        /* \"BatuFi.sol\":11233:11261  getNextRole(currentApproval) */\n      dup1\n      sload\n      tag_330\n      swap1\n      tag_140\n      jump\t// in\n    tag_330:\n      dup1\n      0x1f\n      add\n      0x20\n      dup1\n      swap2\n      div\n      mul\n      0x20\n      add\n      mload(0x40)\n      swap1\n      dup2\n      add\n      0x40\n      mstore\n      dup1\n      swap3\n      swap2\n      swap1\n      dup2\n      dup2\n      mstore\n      0x20\n      add\n      dup3\n      dup1\n      sload\n      tag_331\n      swap1\n      tag_140\n      jump\t// in\n    tag_331:\n      dup1\n      iszero\n      tag_332\n      jumpi\n      dup1\n      0x1f\n      lt\n      tag_333\n      jumpi\n      0x0100\n      dup1\n      dup4\n      sload\n      div\n      mul\n      dup4\n      mstore\n      swap2\n      0x20\n      add\n      swap2\n      jump(tag_332)\n    tag_333:\n      dup3\n      add\n      swap2\n      swap1\n      0x00\n      mstore\n      keccak256(0x00, 0x20)\n      swap1\n    tag_334:\n      dup2\n      sload\n      dup2\n      mstore\n      swap1\n      0x01\n      add\n      swap1\n      0x20\n      add\n      dup1\n      dup4\n      gt\n      tag_334\n      jumpi\n      dup3\n      swap1\n      sub\n      0x1f\n      and\n      dup3\n      add\n      swap2\n    tag_332:\n      pop\n      pop\n      pop\n      pop\n      pop\n        /* \"BatuFi.sol\":11233:11244  getNextRole */\n      tag_335\n        /* \"BatuFi.sol\":11233:11261  getNextRole(currentApproval) */\n      jump\t// in\n    tag_329:\n        /* \"BatuFi.sol\":11209:11210  t */\n      dup10\n        /* \"BatuFi.sol\":11209:11230  t.currentApprovalRole */\n      0x08\n      add\n        /* \"BatuFi.sol\":11209:11261  t.currentApprovalRole = getNextRole(currentApproval) */\n      swap1\n      dup1\n      mload\n      swap1\n      0x20\n      add\n      swap1\n      tag_336\n      swap3\n      swap2\n      swap1\n      tag_310\n      jump\t// in\n    tag_336:\n      pop\n        /* \"BatuFi.sol\":11282:11315  n1.title = \"Transaction Approved\" */\n      mload(0x40)\n      dup1\n      0x40\n      add\n      0x40\n      mstore\n      dup1\n      0x14\n      dup2\n      mstore\n      0x20\n      add\n      0x5472616e73616374696f6e20417070726f766564000000000000000000000000\n      dup2\n      mstore\n      pop\n        /* \"BatuFi.sol\":11282:11284  n1 */\n      dup4\n        /* \"BatuFi.sol\":11282:11290  n1.title */\n      0x00\n      add\n        /* \"BatuFi.sol\":11282:11315  n1.title = \"Transaction Approved\" */\n      swap1\n      dup1\n      mload\n      swap1\n      0x20\n      add\n      swap1\n      tag_337\n      swap3\n      swap2\n      swap1\n      tag_310\n      jump\t// in\n    tag_337:\n      pop\n        /* \"BatuFi.sol\":11409:11414  _hash */\n      dup11\n        /* \"BatuFi.sol\":11436:11448  approvalName */\n      dup2\n        /* \"BatuFi.sol\":11354:11449  abi.encodePacked(\"Transaction with transaction hash \", _hash, \" is approved by \", approvalName) */\n      add(0x20, mload(0x40))\n      tag_338\n      swap3\n      swap2\n      swap1\n      tag_339\n      jump\t// in\n    tag_338:\n      mload(0x40)\n      0x20\n      dup2\n      dup4\n      sub\n      sub\n      dup2\n      mstore\n      swap1\n      0x40\n      mstore\n        /* \"BatuFi.sol\":11334:11336  n1 */\n      dup4\n        /* \"BatuFi.sol\":11334:11344  n1.message */\n      0x01\n      add\n        /* \"BatuFi.sol\":11334:11450  n1.message = string(abi.encodePacked(\"Transaction with transaction hash \", _hash, \" is approved by \", approvalName)) */\n      swap1\n      dup1\n      mload\n      swap1\n      0x20\n      add\n      swap1\n      tag_340\n      swap3\n      swap2\n      swap1\n      tag_310\n      jump\t// in\n    tag_340:\n      pop\n        /* \"BatuFi.sol\":11482:11487  _hash */\n      dup11\n        /* \"BatuFi.sol\":11469:11471  n1 */\n      dup4\n        /* \"BatuFi.sol\":11469:11479  n1.docHash */\n      0x02\n      add\n        /* \"BatuFi.sol\":11469:11487  n1.docHash = _hash */\n      swap1\n      dup1\n      mload\n      swap1\n      0x20\n      add\n      swap1\n      tag_341\n      swap3\n      swap2\n      swap1\n      tag_310\n      jump\t// in\n    tag_341:\n      pop\n        /* \"BatuFi.sol\":11506:11528  n1.status = \"APPROVED\" */\n      mload(0x40)\n      dup1\n      0x40\n      add\n      0x40\n      mstore\n      dup1\n      0x08\n      dup2\n      mstore\n      0x20\n      add\n      0x415050524f564544000000000000000000000000000000000000000000000000\n      dup2\n      mstore\n      pop\n        /* \"BatuFi.sol\":11506:11508  n1 */\n      dup4\n        /* \"BatuFi.sol\":11506:11515  n1.status */\n      0x03\n      add\n        /* \"BatuFi.sol\":11506:11528  n1.status = \"APPROVED\" */\n      swap1\n      dup1\n      mload\n      swap1\n      0x20\n      add\n      swap1\n      tag_342\n      swap3\n      swap2\n      swap1\n      tag_310\n      jump\t// in\n    tag_342:\n      pop\n        /* \"BatuFi.sol\":11547:11563  notificationList */\n      0x07\n        /* \"BatuFi.sol\":11569:11571  n1 */\n      dup4\n        /* \"BatuFi.sol\":11547:11572  notificationList.push(n1) */\n      swap1\n      dup1\n      0x01\n      dup2\n      sload\n      add\n      dup1\n      dup3\n      sstore\n      dup1\n      swap2\n      pop\n      pop\n      0x01\n      swap1\n      sub\n      swap1\n      0x00\n      mstore\n      keccak256(0x00, 0x20)\n      swap1\n      0x04\n      mul\n      add\n      0x00\n      swap1\n      swap2\n      swap1\n      swap2\n      swap1\n      swap2\n      pop\n      0x00\n      dup3\n      add\n      dup2\n      0x00\n      add\n      swap1\n      dup1\n      sload\n      tag_344\n      swap1\n      tag_140\n      jump\t// in\n    tag_344:\n      tag_345\n      swap3\n      swap2\n      swap1\n      tag_290\n      jump\t// in\n    tag_345:\n      pop\n      0x01\n      dup3\n      add\n      dup2\n      0x01\n      add\n      swap1\n      dup1\n      sload\n      tag_346\n      swap1\n      tag_140\n      jump\t// in\n    tag_346:\n      tag_347\n      swap3\n      swap2\n      swap1\n      tag_290\n      jump\t// in\n    tag_347:\n      pop\n      0x02\n      dup3\n      add\n      dup2\n      0x02\n      add\n      swap1\n      dup1\n      sload\n      tag_348\n      swap1\n      tag_140\n      jump\t// in\n    tag_348:\n      tag_349\n      swap3\n      swap2\n      swap1\n      tag_290\n      jump\t// in\n    tag_349:\n      pop\n      0x03\n      dup3\n      add\n      dup2\n      0x03\n      add\n      swap1\n      dup1\n      sload\n      tag_350\n      swap1\n      tag_140\n      jump\t// in\n    tag_350:\n      tag_351\n      swap3\n      swap2\n      swap1\n      tag_290\n      jump\t// in\n    tag_351:\n      pop\n      pop\n      pop\n        /* \"BatuFi.sol\":10398:11588  if(compareStrings(currentApproval, uptoApproval)) {\r... */\n      pop\n      pop\n    tag_326:\n        /* \"BatuFi.sol\":11609:11623  validationCode */\n      dup4\n        /* \"BatuFi.sol\":11602:11623  return validationCode */\n      swap8\n      pop\n      pop\n      pop\n      pop\n      pop\n      pop\n      pop\n      pop\n      jump(tag_282)\n        /* \"BatuFi.sol\":9928:11688  if(validationCode == 1) {\r... */\n    tag_285:\n        /* \"BatuFi.sol\":11662:11676  validationCode */\n      dup1\n        /* \"BatuFi.sol\":11655:11676  return validationCode */\n      swap5\n      pop\n      pop\n      pop\n      pop\n      pop\n        /* \"BatuFi.sol\":9607:11695  function approveTransaction(string memory _hash) public returns(uint) {\r... */\n    tag_282:\n      swap2\n      swap1\n      pop\n      jump\t// out\n        /* \"BatuFi.sol\":1205:1243  Notification[] public notificationList */\n    tag_79:\n      0x07\n      dup2\n      dup2\n      sload\n      dup2\n      lt\n      tag_353\n      jumpi\n      0x00\n      dup1\n      revert\n    tag_353:\n      swap1\n      0x00\n      mstore\n      keccak256(0x00, 0x20)\n      swap1\n      0x04\n      mul\n      add\n      0x00\n      swap2\n      pop\n      swap1\n      pop\n      dup1\n      0x00\n      add\n      dup1\n      sload\n      tag_355\n      swap1\n      tag_140\n      jump\t// in\n    tag_355:\n      dup1\n      0x1f\n      add\n      0x20\n      dup1\n      swap2\n      div\n      mul\n      0x20\n      add\n      mload(0x40)\n      swap1\n      dup2\n      add\n      0x40\n      mstore\n      dup1\n      swap3\n      swap2\n      swap1\n      dup2\n      dup2\n      mstore\n      0x20\n      add\n      dup3\n      dup1\n      sload\n      tag_356\n      swap1\n      tag_140\n      jump\t// in\n    tag_356:\n      dup1\n      iszero\n      tag_357\n      jumpi\n      dup1\n      0x1f\n      lt\n      tag_358\n      jumpi\n      0x0100\n      dup1\n      dup4\n      sload\n      div\n      mul\n      dup4\n      mstore\n      swap2\n      0x20\n      add\n      swap2\n      jump(tag_357)\n    tag_358:\n      dup3\n      add\n      swap2\n      swap1\n      0x00\n      mstore\n      keccak256(0x00, 0x20)\n      swap1\n    tag_359:\n      dup2\n      sload\n      dup2\n      mstore\n      swap1\n      0x01\n      add\n      swap1\n      0x20\n      add\n      dup1\n      dup4\n      gt\n      tag_359\n      jumpi\n      dup3\n      swap1\n      sub\n      0x1f\n      and\n      dup3\n      add\n      swap2\n    tag_357:\n      pop\n      pop\n      pop\n      pop\n      pop\n      swap1\n      dup1\n      0x01\n      add\n      dup1\n      sload\n      tag_360\n      swap1\n      tag_140\n      jump\t// in\n    tag_360:\n      dup1\n      0x1f\n      add\n      0x20\n      dup1\n      swap2\n      div\n      mul\n      0x20\n      add\n      mload(0x40)\n      swap1\n      dup2\n      add\n      0x40\n      mstore\n      dup1\n      swap3\n      swap2\n      swap1\n      dup2\n      dup2\n      mstore\n      0x20\n      add\n      dup3\n      dup1\n      sload\n      tag_361\n      swap1\n      tag_140\n      jump\t// in\n    tag_361:\n      dup1\n      iszero\n      tag_362\n      jumpi\n      dup1\n      0x1f\n      lt\n      tag_363\n      jumpi\n      0x0100\n      dup1\n      dup4\n      sload\n      div\n      mul\n      dup4\n      mstore\n      swap2\n      0x20\n      add\n      swap2\n      jump(tag_362)\n    tag_363:\n      dup3\n      add\n      swap2\n      swap1\n      0x00\n      mstore\n      keccak256(0x00, 0x20)\n      swap1\n    tag_364:\n      dup2\n      sload\n      dup2\n      mstore\n      swap1\n      0x01\n      add\n      swap1\n      0x20\n      add\n      dup1\n      dup4\n      gt\n      tag_364\n      jumpi\n      dup3\n      swap1\n      sub\n      0x1f\n      and\n      dup3\n      add\n      swap2\n    tag_362:\n      pop\n      pop\n      pop\n      pop\n      pop\n      swap1\n      dup1\n      0x02\n      add\n      dup1\n      sload\n      tag_365\n      swap1\n      tag_140\n      jump\t// in\n    tag_365:\n      dup1\n      0x1f\n      add\n      0x20\n      dup1\n      swap2\n      div\n      mul\n      0x20\n      add\n      mload(0x40)\n      swap1\n      dup2\n      add\n      0x40\n      mstore\n      dup1\n      swap3\n      swap2\n      swap1\n      dup2\n      dup2\n      mstore\n      0x20\n      add\n      dup3\n      dup1\n      sload\n      tag_366\n      swap1\n      tag_140\n      jump\t// in\n    tag_366:\n      dup1\n      iszero\n      tag_367\n      jumpi\n      dup1\n      0x1f\n      lt\n      tag_368\n      jumpi\n      0x0100\n      dup1\n      dup4\n      sload\n      div\n      mul\n      dup4\n      mstore\n      swap2\n      0x20\n      add\n      swap2\n      jump(tag_367)\n    tag_368:\n      dup3\n      add\n      swap2\n      swap1\n      0x00\n      mstore\n      keccak256(0x00, 0x20)\n      swap1\n    tag_369:\n      dup2\n      sload\n      dup2\n      mstore\n      swap1\n      0x01\n      add\n      swap1\n      0x20\n      add\n      dup1\n      dup4\n      gt\n      tag_369\n      jumpi\n      dup3\n      swap1\n      sub\n      0x1f\n      and\n      dup3\n      add\n      swap2\n    tag_367:\n      pop\n      pop\n      pop\n      pop\n      pop\n      swap1\n      dup1\n      0x03\n      add\n      dup1\n      sload\n      tag_370\n      swap1\n      tag_140\n      jump\t// in\n    tag_370:\n      dup1\n      0x1f\n      add\n      0x20\n      dup1\n      swap2\n      div\n      mul\n      0x20\n      add\n      mload(0x40)\n      swap1\n      dup2\n      add\n      0x40\n      mstore\n      dup1\n      swap3\n      swap2\n      swap1\n      dup2\n      dup2\n      mstore\n      0x20\n      add\n      dup3\n      dup1\n      sload\n      tag_371\n      swap1\n      tag_140\n      jump\t// in\n    tag_371:\n      dup1\n      iszero\n      tag_372\n      jumpi\n      dup1\n      0x1f\n      lt\n      tag_373\n      jumpi\n      0x0100\n      dup1\n      dup4\n      sload\n      div\n      mul\n      dup4\n      mstore\n      swap2\n      0x20\n      add\n      swap2\n      jump(tag_372)\n    tag_373:\n      dup3\n      add\n      swap2\n      swap1\n      0x00\n      mstore\n      keccak256(0x00, 0x20)\n      swap1\n    tag_374:\n      dup2\n      sload\n      dup2\n      mstore\n      swap1\n      0x01\n      add\n      swap1\n      0x20\n      add\n      dup1\n      dup4\n      gt\n      tag_374\n      jumpi\n      dup3\n      swap1\n      sub\n      0x1f\n      and\n      dup3\n      add\n      swap2\n    tag_372:\n      pop\n      pop\n      pop\n      pop\n      pop\n      swap1\n      pop\n      dup5\n      jump\t// out\n        /* \"BatuFi.sol\":5883:5968  function deleteUser(uint256 number) public {\r... */\n    tag_83:\n        /* \"BatuFi.sol\":5944:5952  userList */\n      0x09\n        /* \"BatuFi.sol\":5953:5959  number */\n      dup2\n        /* \"BatuFi.sol\":5944:5960  userList[number] */\n      dup2\n      sload\n      dup2\n      lt\n      tag_376\n      jumpi\n      mstore(0x00, 0x4e487b7100000000000000000000000000000000000000000000000000000000)\n      mstore(0x04, 0x32)\n      revert(0x00, 0x24)\n    tag_376:\n      swap1\n      0x00\n      mstore\n      keccak256(0x00, 0x20)\n      add\n      0x00\n        /* \"BatuFi.sol\":5937:5960  delete userList[number] */\n      0x0100\n      exp\n      dup2\n      sload\n      swap1\n      0xffffffffffffffffffffffffffffffffffffffff\n      mul\n      not\n      and\n      swap1\n      sstore\n        /* \"BatuFi.sol\":5883:5968  function deleteUser(uint256 number) public {\r... */\n      pop\n      jump\t// out\n        /* \"BatuFi.sol\":11703:12020  function declineTransaction(string memory _hash) public returns(uint) {\r... */\n    tag_86:\n        /* \"BatuFi.sol\":11767:11771  uint */\n      0x00\n        /* \"BatuFi.sol\":11784:11798  User storage u */\n      dup1\n        /* \"BatuFi.sol\":11801:11808  userMap */\n      0x0b\n        /* \"BatuFi.sol\":11801:11820  userMap[msg.sender] */\n      0x00\n        /* \"BatuFi.sol\":11809:11819  msg.sender */\n      caller\n        /* \"BatuFi.sol\":11801:11820  userMap[msg.sender] */\n      0xffffffffffffffffffffffffffffffffffffffff\n      and\n      0xffffffffffffffffffffffffffffffffffffffff\n      and\n      dup2\n      mstore\n      0x20\n      add\n      swap1\n      dup2\n      mstore\n      0x20\n      add\n      0x00\n      keccak256\n        /* \"BatuFi.sol\":11784:11820  User storage u = userMap[msg.sender] */\n      swap1\n      pop\n        /* \"BatuFi.sol\":11904:11905  1 */\n      0x01\n        /* \"BatuFi.sol\":11889:11890  u */\n      dup2\n        /* \"BatuFi.sol\":11889:11903  u.declineCount */\n      0x05\n      add\n      sload\n        /* \"BatuFi.sol\":11889:11905  u.declineCount+1 */\n      tag_379\n      swap2\n      swap1\n      tag_294\n      jump\t// in\n    tag_379:\n        /* \"BatuFi.sol\":11872:11873  u */\n      dup2\n        /* \"BatuFi.sol\":11872:11886  u.declineCount */\n      0x05\n      add\n        /* \"BatuFi.sol\":11872:11905  u.declineCount = u.declineCount+1 */\n      dup2\n      swap1\n      sstore\n      pop\n        /* \"BatuFi.sol\":11916:11937  Transaction storage t */\n      0x00\n        /* \"BatuFi.sol\":11940:11954  transactionMap */\n      0x0c\n        /* \"BatuFi.sol\":11955:11960  _hash */\n      dup5\n        /* \"BatuFi.sol\":11940:11961  transactionMap[_hash] */\n      mload(0x40)\n      tag_380\n      swap2\n      swap1\n      tag_260\n      jump\t// in\n    tag_380:\n      swap1\n      dup2\n      mstore\n      0x20\n      add\n      mload(0x40)\n      dup1\n      swap2\n      sub\n      swap1\n      keccak256\n        /* \"BatuFi.sol\":11916:11961  Transaction storage t = transactionMap[_hash] */\n      swap1\n      pop\n        /* \"BatuFi.sol\":11972:11993  t.status = \"DECLINED\" */\n      mload(0x40)\n      dup1\n      0x40\n      add\n      0x40\n      mstore\n      dup1\n      0x08\n      dup2\n      mstore\n      0x20\n      add\n      0x4445434c494e4544000000000000000000000000000000000000000000000000\n      dup2\n      mstore\n      pop\n        /* \"BatuFi.sol\":11972:11973  t */\n      dup2\n        /* \"BatuFi.sol\":11972:11980  t.status */\n      0x05\n      add\n        /* \"BatuFi.sol\":11972:11993  t.status = \"DECLINED\" */\n      swap1\n      dup1\n      mload\n      swap1\n      0x20\n      add\n      swap1\n      tag_381\n      swap3\n      swap2\n      swap1\n      tag_310\n      jump\t// in\n    tag_381:\n      pop\n        /* \"BatuFi.sol\":12011:12012  1 */\n      0x01\n        /* \"BatuFi.sol\":12004:12012  return 1 */\n      swap3\n      pop\n      pop\n      pop\n        /* \"BatuFi.sol\":11703:12020  function declineTransaction(string memory _hash) public returns(uint) {\r... */\n      swap2\n      swap1\n      pop\n      jump\t// out\n        /* \"BatuFi.sol\":2331:2421  function authMember() public view memberOnly returns (bool) {\r... */\n    tag_89:\n        /* \"BatuFi.sol\":2385:2389  bool */\n      0x00\n        /* \"BatuFi.sol\":2085:2092  userMap */\n      0x0b\n        /* \"BatuFi.sol\":2085:2104  userMap[msg.sender] */\n      0x00\n        /* \"BatuFi.sol\":2093:2103  msg.sender */\n      caller\n        /* \"BatuFi.sol\":2085:2104  userMap[msg.sender] */\n      0xffffffffffffffffffffffffffffffffffffffff\n      and\n      0xffffffffffffffffffffffffffffffffffffffff\n      and\n      dup2\n      mstore\n      0x20\n      add\n      swap1\n      dup2\n      mstore\n      0x20\n      add\n      0x00\n      keccak256\n        /* \"BatuFi.sol\":2085:2107  userMap[msg.sender].id */\n      0x02\n      add\n      0x00\n      swap1\n      sload\n      swap1\n      0x0100\n      exp\n      swap1\n      div\n      0xffffffffffffffffffffffffffffffffffffffff\n      and\n        /* \"BatuFi.sol\":2071:2107  msg.sender == userMap[msg.sender].id */\n      0xffffffffffffffffffffffffffffffffffffffff\n      and\n        /* \"BatuFi.sol\":2071:2081  msg.sender */\n      caller\n        /* \"BatuFi.sol\":2071:2107  msg.sender == userMap[msg.sender].id */\n      0xffffffffffffffffffffffffffffffffffffffff\n      and\n      eq\n        /* \"BatuFi.sol\":2063:2108  require(msg.sender == userMap[msg.sender].id) */\n      tag_383\n      jumpi\n      0x00\n      dup1\n      revert\n    tag_383:\n        /* \"BatuFi.sol\":2409:2413  true */\n      0x01\n        /* \"BatuFi.sol\":2402:2413  return true */\n      swap1\n      pop\n        /* \"BatuFi.sol\":2331:2421  function authMember() public view memberOnly returns (bool) {\r... */\n      swap1\n      jump\t// out\n        /* \"BatuFi.sol\":12445:12538  function listUsers() public view returns(address[] memory) {\r... */\n    tag_92:\n        /* \"BatuFi.sol\":12486:12502  address[] memory */\n      0x60\n        /* \"BatuFi.sol\":12522:12530  userList */\n      0x09\n        /* \"BatuFi.sol\":12515:12530  return userList */\n      dup1\n      sload\n      dup1\n      0x20\n      mul\n      0x20\n      add\n      mload(0x40)\n      swap1\n      dup2\n      add\n      0x40\n      mstore\n      dup1\n      swap3\n      swap2\n      swap1\n      dup2\n      dup2\n      mstore\n      0x20\n      add\n      dup3\n      dup1\n      sload\n      dup1\n      iszero\n      tag_386\n      jumpi\n      0x20\n      mul\n      dup3\n      add\n      swap2\n      swap1\n      0x00\n      mstore\n      keccak256(0x00, 0x20)\n      swap1\n    tag_387:\n      dup2\n      0x00\n      swap1\n      sload\n      swap1\n      0x0100\n      exp\n      swap1\n      div\n      0xffffffffffffffffffffffffffffffffffffffff\n      and\n      0xffffffffffffffffffffffffffffffffffffffff\n      and\n      dup2\n      mstore\n      0x20\n      add\n      swap1\n      0x01\n      add\n      swap1\n      dup1\n      dup4\n      gt\n      tag_387\n      jumpi\n    tag_386:\n      pop\n      pop\n      pop\n      pop\n      pop\n      swap1\n      pop\n        /* \"BatuFi.sol\":12445:12538  function listUsers() public view returns(address[] memory) {\r... */\n      swap1\n      jump\t// out\n        /* \"BatuFi.sol\":1279:1304  address[] public userList */\n    tag_97:\n      0x09\n      dup2\n      dup2\n      sload\n      dup2\n      lt\n      tag_388\n      jumpi\n      0x00\n      dup1\n      revert\n    tag_388:\n      swap1\n      0x00\n      mstore\n      keccak256(0x00, 0x20)\n      add\n      0x00\n      swap2\n      pop\n      sload\n      swap1\n      0x0100\n      exp\n      swap1\n      div\n      0xffffffffffffffffffffffffffffffffffffffff\n      and\n      dup2\n      jump\t// out\n        /* \"BatuFi.sol\":2812:3151  function createRole(string memory _role, string memory _name, uint256 _maxAmount, uint256 _minAmount) public {\r... */\n    tag_102:\n        /* \"BatuFi.sol\":2932:2946  Role storage r */\n      0x00\n        /* \"BatuFi.sol\":2949:2956  roleMap */\n      0x0a\n        /* \"BatuFi.sol\":2957:2962  _role */\n      dup6\n        /* \"BatuFi.sol\":2949:2963  roleMap[_role] */\n      mload(0x40)\n      tag_391\n      swap2\n      swap1\n      tag_260\n      jump\t// in\n    tag_391:\n      swap1\n      dup2\n      mstore\n      0x20\n      add\n      mload(0x40)\n      dup1\n      swap2\n      sub\n      swap1\n      keccak256\n        /* \"BatuFi.sol\":2932:2963  Role storage r = roleMap[_role] */\n      swap1\n      pop\n        /* \"BatuFi.sol\":2985:2994  roleCount */\n      0x04\n      0x00\n        /* \"BatuFi.sol\":2985:2996  roleCount++ */\n      dup2\n      sload\n      dup1\n      swap3\n      swap2\n      swap1\n      tag_392\n      swap1\n      tag_393\n      jump\t// in\n    tag_392:\n      swap2\n      swap1\n      pop\n      sstore\n        /* \"BatuFi.sol\":2974:2975  r */\n      dup2\n        /* \"BatuFi.sol\":2974:2982  r.number */\n      0x00\n      add\n        /* \"BatuFi.sol\":2974:2996  r.number = roleCount++ */\n      dup2\n      swap1\n      sstore\n      pop\n        /* \"BatuFi.sol\":3016:3021  _role */\n      dup5\n        /* \"BatuFi.sol\":3007:3008  r */\n      dup2\n        /* \"BatuFi.sol\":3007:3013  r.role */\n      0x01\n      add\n        /* \"BatuFi.sol\":3007:3021  r.role = _role */\n      swap1\n      dup1\n      mload\n      swap1\n      0x20\n      add\n      swap1\n      tag_394\n      swap3\n      swap2\n      swap1\n      tag_310\n      jump\t// in\n    tag_394:\n      pop\n        /* \"BatuFi.sol\":3041:3046  _name */\n      dup4\n        /* \"BatuFi.sol\":3032:3033  r */\n      dup2\n        /* \"BatuFi.sol\":3032:3038  r.name */\n      0x02\n      add\n        /* \"BatuFi.sol\":3032:3046  r.name = _name */\n      swap1\n      dup1\n      mload\n      swap1\n      0x20\n      add\n      swap1\n      tag_395\n      swap3\n      swap2\n      swap1\n      tag_310\n      jump\t// in\n    tag_395:\n      pop\n        /* \"BatuFi.sol\":3071:3081  _maxAmount */\n      dup3\n        /* \"BatuFi.sol\":3057:3058  r */\n      dup2\n        /* \"BatuFi.sol\":3057:3068  r.maxAmount */\n      0x03\n      add\n        /* \"BatuFi.sol\":3057:3081  r.maxAmount = _maxAmount */\n      dup2\n      swap1\n      sstore\n      pop\n        /* \"BatuFi.sol\":3106:3116  _minAmount */\n      dup2\n        /* \"BatuFi.sol\":3092:3093  r */\n      dup2\n        /* \"BatuFi.sol\":3092:3103  r.minAmount */\n      0x04\n      add\n        /* \"BatuFi.sol\":3092:3116  r.minAmount = _minAmount */\n      dup2\n      swap1\n      sstore\n      pop\n        /* \"BatuFi.sol\":3127:3135  roleList */\n      0x08\n        /* \"BatuFi.sol\":3141:3142  r */\n      dup2\n        /* \"BatuFi.sol\":3127:3143  roleList.push(r) */\n      swap1\n      dup1\n      0x01\n      dup2\n      sload\n      add\n      dup1\n      dup3\n      sstore\n      dup1\n      swap2\n      pop\n      pop\n      0x01\n      swap1\n      sub\n      swap1\n      0x00\n      mstore\n      keccak256(0x00, 0x20)\n      swap1\n      0x05\n      mul\n      add\n      0x00\n      swap1\n      swap2\n      swap1\n      swap2\n      swap1\n      swap2\n      pop\n      0x00\n      dup3\n      add\n      sload\n      dup2\n      0x00\n      add\n      sstore\n      0x01\n      dup3\n      add\n      dup2\n      0x01\n      add\n      swap1\n      dup1\n      sload\n      tag_397\n      swap1\n      tag_140\n      jump\t// in\n    tag_397:\n      tag_398\n      swap3\n      swap2\n      swap1\n      tag_290\n      jump\t// in\n    tag_398:\n      pop\n      0x02\n      dup3\n      add\n      dup2\n      0x02\n      add\n      swap1\n      dup1\n      sload\n      tag_399\n      swap1\n      tag_140\n      jump\t// in\n    tag_399:\n      tag_400\n      swap3\n      swap2\n      swap1\n      tag_290\n      jump\t// in\n    tag_400:\n      pop\n      0x03\n      dup3\n      add\n      sload\n      dup2\n      0x03\n      add\n      sstore\n      0x04\n      dup3\n      add\n      sload\n      dup2\n      0x04\n      add\n      sstore\n      pop\n      pop\n        /* \"BatuFi.sol\":2812:3151  function createRole(string memory _role, string memory _name, uint256 _maxAmount, uint256 _minAmount) public {\r... */\n      pop\n      pop\n      pop\n      pop\n      pop\n      jump\t// out\n        /* \"BatuFi.sol\":1522:1568  mapping(string => Approval) public approvalMap */\n    tag_105:\n      0x0e\n      dup2\n      dup1\n      mload\n      0x20\n      dup2\n      add\n      dup3\n      add\n      dup1\n      mload\n      dup5\n      dup3\n      mstore\n      0x20\n      dup4\n      add\n      0x20\n      dup6\n      add\n      keccak256\n      dup2\n      dup4\n      mstore\n      dup1\n      swap6\n      pop\n      pop\n      pop\n      pop\n      pop\n      pop\n      0x00\n      swap2\n      pop\n      swap1\n      pop\n      dup1\n      0x00\n      add\n      dup1\n      sload\n      tag_401\n      swap1\n      tag_140\n      jump\t// in\n    tag_401:\n      dup1\n      0x1f\n      add\n      0x20\n      dup1\n      swap2\n      div\n      mul\n      0x20\n      add\n      mload(0x40)\n      swap1\n      dup2\n      add\n      0x40\n      mstore\n      dup1\n      swap3\n      swap2\n      swap1\n      dup2\n      dup2\n      mstore\n      0x20\n      add\n      dup3\n      dup1\n      sload\n      tag_402\n      swap1\n      tag_140\n      jump\t// in\n    tag_402:\n      dup1\n      iszero\n      tag_403\n      jumpi\n      dup1\n      0x1f\n      lt\n      tag_404\n      jumpi\n      0x0100\n      dup1\n      dup4\n      sload\n      div\n      mul\n      dup4\n      mstore\n      swap2\n      0x20\n      add\n      swap2\n      jump(tag_403)\n    tag_404:\n      dup3\n      add\n      swap2\n      swap1\n      0x00\n      mstore\n      keccak256(0x00, 0x20)\n      swap1\n    tag_405:\n      dup2\n      sload\n      dup2\n      mstore\n      swap1\n      0x01\n      add\n      swap1\n      0x20\n      add\n      dup1\n      dup4\n      gt\n      tag_405\n      jumpi\n      dup3\n      swap1\n      sub\n      0x1f\n      and\n      dup3\n      add\n      swap2\n    tag_403:\n      pop\n      pop\n      pop\n      pop\n      pop\n      swap1\n      pop\n      dup2\n      jump\t// out\n        /* \"BatuFi.sol\":2537:2800  function createUser(string memory _role, address _id, string memory _name) public {\r... */\n    tag_111:\n        /* \"BatuFi.sol\":2630:2644  User storage u */\n      0x00\n        /* \"BatuFi.sol\":2647:2654  userMap */\n      0x0b\n        /* \"BatuFi.sol\":2647:2659  userMap[_id] */\n      0x00\n        /* \"BatuFi.sol\":2655:2658  _id */\n      dup5\n        /* \"BatuFi.sol\":2647:2659  userMap[_id] */\n      0xffffffffffffffffffffffffffffffffffffffff\n      and\n      0xffffffffffffffffffffffffffffffffffffffff\n      and\n      dup2\n      mstore\n      0x20\n      add\n      swap1\n      dup2\n      mstore\n      0x20\n      add\n      0x00\n      keccak256\n        /* \"BatuFi.sol\":2630:2659  User storage u = userMap[_id] */\n      swap1\n      pop\n        /* \"BatuFi.sol\":2679:2684  _role */\n      dup4\n        /* \"BatuFi.sol\":2670:2671  u */\n      dup2\n        /* \"BatuFi.sol\":2670:2676  u.role */\n      0x01\n      add\n        /* \"BatuFi.sol\":2670:2684  u.role = _role */\n      swap1\n      dup1\n      mload\n      swap1\n      0x20\n      add\n      swap1\n      tag_407\n      swap3\n      swap2\n      swap1\n      tag_310\n      jump\t// in\n    tag_407:\n      pop\n        /* \"BatuFi.sol\":2702:2705  _id */\n      dup3\n        /* \"BatuFi.sol\":2695:2696  u */\n      dup2\n        /* \"BatuFi.sol\":2695:2699  u.id */\n      0x02\n      add\n      0x00\n        /* \"BatuFi.sol\":2695:2705  u.id = _id */\n      0x0100\n      exp\n      dup2\n      sload\n      dup2\n      0xffffffffffffffffffffffffffffffffffffffff\n      mul\n      not\n      and\n      swap1\n      dup4\n      0xffffffffffffffffffffffffffffffffffffffff\n      and\n      mul\n      or\n      swap1\n      sstore\n      pop\n        /* \"BatuFi.sol\":2725:2730  _name */\n      dup2\n        /* \"BatuFi.sol\":2716:2717  u */\n      dup2\n        /* \"BatuFi.sol\":2716:2722  u.name */\n      0x00\n      add\n        /* \"BatuFi.sol\":2716:2730  u.name = _name */\n      swap1\n      dup1\n      mload\n      swap1\n      0x20\n      add\n      swap1\n      tag_408\n      swap3\n      swap2\n      swap1\n      tag_310\n      jump\t// in\n    tag_408:\n      pop\n        /* \"BatuFi.sol\":2752:2761  userCount */\n      0x02\n      0x00\n        /* \"BatuFi.sol\":2752:2763  userCount++ */\n      dup2\n      sload\n      dup1\n      swap3\n      swap2\n      swap1\n      tag_409\n      swap1\n      tag_393\n      jump\t// in\n    tag_409:\n      swap2\n      swap1\n      pop\n      sstore\n        /* \"BatuFi.sol\":2741:2742  u */\n      dup2\n        /* \"BatuFi.sol\":2741:2749  u.number */\n      0x03\n      add\n        /* \"BatuFi.sol\":2741:2763  u.number = userCount++ */\n      dup2\n      swap1\n      sstore\n      pop\n        /* \"BatuFi.sol\":2774:2782  userList */\n      0x09\n        /* \"BatuFi.sol\":2788:2791  _id */\n      dup4\n        /* \"BatuFi.sol\":2774:2792  userList.push(_id) */\n      swap1\n      dup1\n      0x01\n      dup2\n      sload\n      add\n      dup1\n      dup3\n      sstore\n      dup1\n      swap2\n      pop\n      pop\n      0x01\n      swap1\n      sub\n      swap1\n      0x00\n      mstore\n      keccak256(0x00, 0x20)\n      add\n      0x00\n      swap1\n      swap2\n      swap1\n      swap2\n      swap1\n      swap2\n      0x0100\n      exp\n      dup2\n      sload\n      dup2\n      0xffffffffffffffffffffffffffffffffffffffff\n      mul\n      not\n      and\n      swap1\n      dup4\n      0xffffffffffffffffffffffffffffffffffffffff\n      and\n      mul\n      or\n      swap1\n      sstore\n      pop\n        /* \"BatuFi.sol\":2537:2800  function createUser(string memory _role, address _id, string memory _name) public {\r... */\n      pop\n      pop\n      pop\n      pop\n      jump\t// out\n        /* \"BatuFi.sol\":1024:1050  address public transaction */\n    tag_113:\n      0x01\n      0x00\n      swap1\n      sload\n      swap1\n      0x0100\n      exp\n      swap1\n      div\n      0xffffffffffffffffffffffffffffffffffffffff\n      and\n      dup2\n      jump\t// out\n        /* \"BatuFi.sol\":1402:1454  mapping(string => Transaction) public transactionMap */\n    tag_117:\n      0x0c\n      dup2\n      dup1\n      mload\n      0x20\n      dup2\n      add\n      dup3\n      add\n      dup1\n      mload\n      dup5\n      dup3\n      mstore\n      0x20\n      dup4\n      add\n      0x20\n      dup6\n      add\n      keccak256\n      dup2\n      dup4\n      mstore\n      dup1\n      swap6\n      pop\n      pop\n      pop\n      pop\n      pop\n      pop\n      0x00\n      swap2\n      pop\n      swap1\n      pop\n      dup1\n      0x00\n      add\n      dup1\n      sload\n      tag_411\n      swap1\n      tag_140\n      jump\t// in\n    tag_411:\n      dup1\n      0x1f\n      add\n      0x20\n      dup1\n      swap2\n      div\n      mul\n      0x20\n      add\n      mload(0x40)\n      swap1\n      dup2\n      add\n      0x40\n      mstore\n      dup1\n      swap3\n      swap2\n      swap1\n      dup2\n      dup2\n      mstore\n      0x20\n      add\n      dup3\n      dup1\n      sload\n      tag_412\n      swap1\n      tag_140\n      jump\t// in\n    tag_412:\n      dup1\n      iszero\n      tag_413\n      jumpi\n      dup1\n      0x1f\n      lt\n      tag_414\n      jumpi\n      0x0100\n      dup1\n      dup4\n      sload\n      div\n      mul\n      dup4\n      mstore\n      swap2\n      0x20\n      add\n      swap2\n      jump(tag_413)\n    tag_414:\n      dup3\n      add\n      swap2\n      swap1\n      0x00\n      mstore\n      keccak256(0x00, 0x20)\n      swap1\n    tag_415:\n      dup2\n      sload\n      dup2\n      mstore\n      swap1\n      0x01\n      add\n      swap1\n      0x20\n      add\n      dup1\n      dup4\n      gt\n      tag_415\n      jumpi\n      dup3\n      swap1\n      sub\n      0x1f\n      and\n      dup3\n      add\n      swap2\n    tag_413:\n      pop\n      pop\n      pop\n      pop\n      pop\n      swap1\n      dup1\n      0x01\n      add\n      dup1\n      sload\n      tag_416\n      swap1\n      tag_140\n      jump\t// in\n    tag_416:\n      dup1\n      0x1f\n      add\n      0x20\n      dup1\n      swap2\n      div\n      mul\n      0x20\n      add\n      mload(0x40)\n      swap1\n      dup2\n      add\n      0x40\n      mstore\n      dup1\n      swap3\n      swap2\n      swap1\n      dup2\n      dup2\n      mstore\n      0x20\n      add\n      dup3\n      dup1\n      sload\n      tag_417\n      swap1\n      tag_140\n      jump\t// in\n    tag_417:\n      dup1\n      iszero\n      tag_418\n      jumpi\n      dup1\n      0x1f\n      lt\n      tag_419\n      jumpi\n      0x0100\n      dup1\n      dup4\n      sload\n      div\n      mul\n      dup4\n      mstore\n      swap2\n      0x20\n      add\n      swap2\n      jump(tag_418)\n    tag_419:\n      dup3\n      add\n      swap2\n      swap1\n      0x00\n      mstore\n      keccak256(0x00, 0x20)\n      swap1\n    tag_420:\n      dup2\n      sload\n      dup2\n      mstore\n      swap1\n      0x01\n      add\n      swap1\n      0x20\n      add\n      dup1\n      dup4\n      gt\n      tag_420\n      jumpi\n      dup3\n      swap1\n      sub\n      0x1f\n      and\n      dup3\n      add\n      swap2\n    tag_418:\n      pop\n      pop\n      pop\n      pop\n      pop\n      swap1\n      dup1\n      0x02\n      add\n      dup1\n      sload\n      tag_421\n      swap1\n      tag_140\n      jump\t// in\n    tag_421:\n      dup1\n      0x1f\n      add\n      0x20\n      dup1\n      swap2\n      div\n      mul\n      0x20\n      add\n      mload(0x40)\n      swap1\n      dup2\n      add\n      0x40\n      mstore\n      dup1\n      swap3\n      swap2\n      swap1\n      dup2\n      dup2\n      mstore\n      0x20\n      add\n      dup3\n      dup1\n      sload\n      tag_422\n      swap1\n      tag_140\n      jump\t// in\n    tag_422:\n      dup1\n      iszero\n      tag_423\n      jumpi\n      dup1\n      0x1f\n      lt\n      tag_424\n      jumpi\n      0x0100\n      dup1\n      dup4\n      sload\n      div\n      mul\n      dup4\n      mstore\n      swap2\n      0x20\n      add\n      swap2\n      jump(tag_423)\n    tag_424:\n      dup3\n      add\n      swap2\n      swap1\n      0x00\n      mstore\n      keccak256(0x00, 0x20)\n      swap1\n    tag_425:\n      dup2\n      sload\n      dup2\n      mstore\n      swap1\n      0x01\n      add\n      swap1\n      0x20\n      add\n      dup1\n      dup4\n      gt\n      tag_425\n      jumpi\n      dup3\n      swap1\n      sub\n      0x1f\n      and\n      dup3\n      add\n      swap2\n    tag_423:\n      pop\n      pop\n      pop\n      pop\n      pop\n      swap1\n      dup1\n      0x03\n      add\n      dup1\n      sload\n      tag_426\n      swap1\n      tag_140\n      jump\t// in\n    tag_426:\n      dup1\n      0x1f\n      add\n      0x20\n      dup1\n      swap2\n      div\n      mul\n      0x20\n      add\n      mload(0x40)\n      swap1\n      dup2\n      add\n      0x40\n      mstore\n      dup1\n      swap3\n      swap2\n      swap1\n      dup2\n      dup2\n      mstore\n      0x20\n      add\n      dup3\n      dup1\n      sload\n      tag_427\n      swap1\n      tag_140\n      jump\t// in\n    tag_427:\n      dup1\n      iszero\n      tag_428\n      jumpi\n      dup1\n      0x1f\n      lt\n      tag_429\n      jumpi\n      0x0100\n      dup1\n      dup4\n      sload\n      div\n      mul\n      dup4\n      mstore\n      swap2\n      0x20\n      add\n      swap2\n      jump(tag_428)\n    tag_429:\n      dup3\n      add\n      swap2\n      swap1\n      0x00\n      mstore\n      keccak256(0x00, 0x20)\n      swap1\n    tag_430:\n      dup2\n      sload\n      dup2\n      mstore\n      swap1\n      0x01\n      add\n      swap1\n      0x20\n      add\n      dup1\n      dup4\n      gt\n      tag_430\n      jumpi\n      dup3\n      swap1\n      sub\n      0x1f\n      and\n      dup3\n      add\n      swap2\n    tag_428:\n      pop\n      pop\n      pop\n      pop\n      pop\n      swap1\n      dup1\n      0x04\n      add\n      sload\n      swap1\n      dup1\n      0x05\n      add\n      dup1\n      sload\n      tag_431\n      swap1\n      tag_140\n      jump\t// in\n    tag_431:\n      dup1\n      0x1f\n      add\n      0x20\n      dup1\n      swap2\n      div\n      mul\n      0x20\n      add\n      mload(0x40)\n      swap1\n      dup2\n      add\n      0x40\n      mstore\n      dup1\n      swap3\n      swap2\n      swap1\n      dup2\n      dup2\n      mstore\n      0x20\n      add\n      dup3\n      dup1\n      sload\n      tag_432\n      swap1\n      tag_140\n      jump\t// in\n    tag_432:\n      dup1\n      iszero\n      tag_433\n      jumpi\n      dup1\n      0x1f\n      lt\n      tag_434\n      jumpi\n      0x0100\n      dup1\n      dup4\n      sload\n      div\n      mul\n      dup4\n      mstore\n      swap2\n      0x20\n      add\n      swap2\n      jump(tag_433)\n    tag_434:\n      dup3\n      add\n      swap2\n      swap1\n      0x00\n      mstore\n      keccak256(0x00, 0x20)\n      swap1\n    tag_435:\n      dup2\n      sload\n      dup2\n      mstore\n      swap1\n      0x01\n      add\n      swap1\n      0x20\n      add\n      dup1\n      dup4\n      gt\n      tag_435\n      jumpi\n      dup3\n      swap1\n      sub\n      0x1f\n      and\n      dup3\n      add\n      swap2\n    tag_433:\n      pop\n      pop\n      pop\n      pop\n      pop\n      swap1\n      dup1\n      0x06\n      add\n      0x00\n      swap1\n      sload\n      swap1\n      0x0100\n      exp\n      swap1\n      div\n      0xffffffffffffffffffffffffffffffffffffffff\n      and\n      swap1\n      dup1\n      0x07\n      add\n      sload\n      swap1\n      dup1\n      0x08\n      add\n      dup1\n      sload\n      tag_436\n      swap1\n      tag_140\n      jump\t// in\n    tag_436:\n      dup1\n      0x1f\n      add\n      0x20\n      dup1\n      swap2\n      div\n      mul\n      0x20\n      add\n      mload(0x40)\n      swap1\n      dup2\n      add\n      0x40\n      mstore\n      dup1\n      swap3\n      swap2\n      swap1\n      dup2\n      dup2\n      mstore\n      0x20\n      add\n      dup3\n      dup1\n      sload\n      tag_437\n      swap1\n      tag_140\n      jump\t// in\n    tag_437:\n      dup1\n      iszero\n      tag_438\n      jumpi\n      dup1\n      0x1f\n      lt\n      tag_439\n      jumpi\n      0x0100\n      dup1\n      dup4\n      sload\n      div\n      mul\n      dup4\n      mstore\n      swap2\n      0x20\n      add\n      swap2\n      jump(tag_438)\n    tag_439:\n      dup3\n      add\n      swap2\n      swap1\n      0x00\n      mstore\n      keccak256(0x00, 0x20)\n      swap1\n    tag_440:\n      dup2\n      sload\n      dup2\n      mstore\n      swap1\n      0x01\n      add\n      swap1\n      0x20\n      add\n      dup1\n      dup4\n      gt\n      tag_440\n      jumpi\n      dup3\n      swap1\n      sub\n      0x1f\n      and\n      dup3\n      add\n      swap2\n    tag_438:\n      pop\n      pop\n      pop\n      pop\n      pop\n      swap1\n      dup1\n      0x09\n      add\n      dup1\n      sload\n      tag_441\n      swap1\n      tag_140\n      jump\t// in\n    tag_441:\n      dup1\n      0x1f\n      add\n      0x20\n      dup1\n      swap2\n      div\n      mul\n      0x20\n      add\n      mload(0x40)\n      swap1\n      dup2\n      add\n      0x40\n      mstore\n      dup1\n      swap3\n      swap2\n      swap1\n      dup2\n      dup2\n      mstore\n      0x20\n      add\n      dup3\n      dup1\n      sload\n      tag_442\n      swap1\n      tag_140\n      jump\t// in\n    tag_442:\n      dup1\n      iszero\n      tag_443\n      jumpi\n      dup1\n      0x1f\n      lt\n      tag_444\n      jumpi\n      0x0100\n      dup1\n      dup4\n      sload\n      div\n      mul\n      dup4\n      mstore\n      swap2\n      0x20\n      add\n      swap2\n      jump(tag_443)\n    tag_444:\n      dup3\n      add\n      swap2\n      swap1\n      0x00\n      mstore\n      keccak256(0x00, 0x20)\n      swap1\n    tag_445:\n      dup2\n      sload\n      dup2\n      mstore\n      swap1\n      0x01\n      add\n      swap1\n      0x20\n      add\n      dup1\n      dup4\n      gt\n      tag_445\n      jumpi\n      dup3\n      swap1\n      sub\n      0x1f\n      and\n      dup3\n      add\n      swap2\n    tag_443:\n      pop\n      pop\n      pop\n      pop\n      pop\n      swap1\n      dup1\n      0x0a\n      add\n      sload\n      swap1\n      pop\n      dup12\n      jump\t// out\n        /* \"BatuFi.sol\":12320:12433  function listNotification() public view returns(Notification[] memory) {\r... */\n    tag_120:\n        /* \"BatuFi.sol\":12368:12389  Notification[] memory */\n      0x60\n        /* \"BatuFi.sol\":12409:12425  notificationList */\n      0x07\n        /* \"BatuFi.sol\":12402:12425  return notificationList */\n      dup1\n      sload\n      dup1\n      0x20\n      mul\n      0x20\n      add\n      mload(0x40)\n      swap1\n      dup2\n      add\n      0x40\n      mstore\n      dup1\n      swap3\n      swap2\n      swap1\n      dup2\n      dup2\n      mstore\n      0x20\n      add\n      0x00\n      swap1\n    tag_447:\n      dup3\n      dup3\n      lt\n      iszero\n      tag_448\n      jumpi\n      dup4\n      dup3\n      swap1\n      0x00\n      mstore\n      keccak256(0x00, 0x20)\n      swap1\n      0x04\n      mul\n      add\n      mload(0x40)\n      dup1\n      0x80\n      add\n      0x40\n      mstore\n      swap1\n      dup2\n      0x00\n      dup3\n      add\n      dup1\n      sload\n      tag_450\n      swap1\n      tag_140\n      jump\t// in\n    tag_450:\n      dup1\n      0x1f\n      add\n      0x20\n      dup1\n      swap2\n      div\n      mul\n      0x20\n      add\n      mload(0x40)\n      swap1\n      dup2\n      add\n      0x40\n      mstore\n      dup1\n      swap3\n      swap2\n      swap1\n      dup2\n      dup2\n      mstore\n      0x20\n      add\n      dup3\n      dup1\n      sload\n      tag_451\n      swap1\n      tag_140\n      jump\t// in\n    tag_451:\n      dup1\n      iszero\n      tag_452\n      jumpi\n      dup1\n      0x1f\n      lt\n      tag_453\n      jumpi\n      0x0100\n      dup1\n      dup4\n      sload\n      div\n      mul\n      dup4\n      mstore\n      swap2\n      0x20\n      add\n      swap2\n      jump(tag_452)\n    tag_453:\n      dup3\n      add\n      swap2\n      swap1\n      0x00\n      mstore\n      keccak256(0x00, 0x20)\n      swap1\n    tag_454:\n      dup2\n      sload\n      dup2\n      mstore\n      swap1\n      0x01\n      add\n      swap1\n      0x20\n      add\n      dup1\n      dup4\n      gt\n      tag_454\n      jumpi\n      dup3\n      swap1\n      sub\n      0x1f\n      and\n      dup3\n      add\n      swap2\n    tag_452:\n      pop\n      pop\n      pop\n      pop\n      pop\n      dup2\n      mstore\n      0x20\n      add\n      0x01\n      dup3\n      add\n      dup1\n      sload\n      tag_455\n      swap1\n      tag_140\n      jump\t// in\n    tag_455:\n      dup1\n      0x1f\n      add\n      0x20\n      dup1\n      swap2\n      div\n      mul\n      0x20\n      add\n      mload(0x40)\n      swap1\n      dup2\n      add\n      0x40\n      mstore\n      dup1\n      swap3\n      swap2\n      swap1\n      dup2\n      dup2\n      mstore\n      0x20\n      add\n      dup3\n      dup1\n      sload\n      tag_456\n      swap1\n      tag_140\n      jump\t// in\n    tag_456:\n      dup1\n      iszero\n      tag_457\n      jumpi\n      dup1\n      0x1f\n      lt\n      tag_458\n      jumpi\n      0x0100\n      dup1\n      dup4\n      sload\n      div\n      mul\n      dup4\n      mstore\n      swap2\n      0x20\n      add\n      swap2\n      jump(tag_457)\n    tag_458:\n      dup3\n      add\n      swap2\n      swap1\n      0x00\n      mstore\n      keccak256(0x00, 0x20)\n      swap1\n    tag_459:\n      dup2\n      sload\n      dup2\n      mstore\n      swap1\n      0x01\n      add\n      swap1\n      0x20\n      add\n      dup1\n      dup4\n      gt\n      tag_459\n      jumpi\n      dup3\n      swap1\n      sub\n      0x1f\n      and\n      dup3\n      add\n      swap2\n    tag_457:\n      pop\n      pop\n      pop\n      pop\n      pop\n      dup2\n      mstore\n      0x20\n      add\n      0x02\n      dup3\n      add\n      dup1\n      sload\n      tag_460\n      swap1\n      tag_140\n      jump\t// in\n    tag_460:\n      dup1\n      0x1f\n      add\n      0x20\n      dup1\n      swap2\n      div\n      mul\n      0x20\n      add\n      mload(0x40)\n      swap1\n      dup2\n      add\n      0x40\n      mstore\n      dup1\n      swap3\n      swap2\n      swap1\n      dup2\n      dup2\n      mstore\n      0x20\n      add\n      dup3\n      dup1\n      sload\n      tag_461\n      swap1\n      tag_140\n      jump\t// in\n    tag_461:\n      dup1\n      iszero\n      tag_462\n      jumpi\n      dup1\n      0x1f\n      lt\n      tag_463\n      jumpi\n      0x0100\n      dup1\n      dup4\n      sload\n      div\n      mul\n      dup4\n      mstore\n      swap2\n      0x20\n      add\n      swap2\n      jump(tag_462)\n    tag_463:\n      dup3\n      add\n      swap2\n      swap1\n      0x00\n      mstore\n      keccak256(0x00, 0x20)\n      swap1\n    tag_464:\n      dup2\n      sload\n      dup2\n      mstore\n      swap1\n      0x01\n      add\n      swap1\n      0x20\n      add\n      dup1\n      dup4\n      gt\n      tag_464\n      jumpi\n      dup3\n      swap1\n      sub\n      0x1f\n      and\n      dup3\n      add\n      swap2\n    tag_462:\n      pop\n      pop\n      pop\n      pop\n      pop\n      dup2\n      mstore\n      0x20\n      add\n      0x03\n      dup3\n      add\n      dup1\n      sload\n      tag_465\n      swap1\n      tag_140\n      jump\t// in\n    tag_465:\n      dup1\n      0x1f\n      add\n      0x20\n      dup1\n      swap2\n      div\n      mul\n      0x20\n      add\n      mload(0x40)\n      swap1\n      dup2\n      add\n      0x40\n      mstore\n      dup1\n      swap3\n      swap2\n      swap1\n      dup2\n      dup2\n      mstore\n      0x20\n      add\n      dup3\n      dup1\n      sload\n      tag_466\n      swap1\n      tag_140\n      jump\t// in\n    tag_466:\n      dup1\n      iszero\n      tag_467\n      jumpi\n      dup1\n      0x1f\n      lt\n      tag_468\n      jumpi\n      0x0100\n      dup1\n      dup4\n      sload\n      div\n      mul\n      dup4\n      mstore\n      swap2\n      0x20\n      add\n      swap2\n      jump(tag_467)\n    tag_468:\n      dup3\n      add\n      swap2\n      swap1\n      0x00\n      mstore\n      keccak256(0x00, 0x20)\n      swap1\n    tag_469:\n      dup2\n      sload\n      dup2\n      mstore\n      swap1\n      0x01\n      add\n      swap1\n      0x20\n      add\n      dup1\n      dup4\n      gt\n      tag_469\n      jumpi\n      dup3\n      swap1\n      sub\n      0x1f\n      and\n      dup3\n      add\n      swap2\n    tag_467:\n      pop\n      pop\n      pop\n      pop\n      pop\n      dup2\n      mstore\n      pop\n      pop\n      dup2\n      mstore\n      0x20\n      add\n      swap1\n      0x01\n      add\n      swap1\n      jump(tag_447)\n    tag_448:\n      pop\n      pop\n      pop\n      pop\n      swap1\n      pop\n        /* \"BatuFi.sol\":12320:12433  function listNotification() public view returns(Notification[] memory) {\r... */\n      swap1\n      jump\t// out\n        /* \"BatuFi.sol\":3159:5871  function validateTxDuration(string memory _docHash) public returns(uint) {\r... */\n    tag_125:\n        /* \"BatuFi.sol\":3226:3230  uint */\n      0x00\n        /* \"BatuFi.sol\":3243:3264  Transaction storage t */\n      dup1\n        /* \"BatuFi.sol\":3267:3281  transactionMap */\n      0x0c\n        /* \"BatuFi.sol\":3282:3290  _docHash */\n      dup4\n        /* \"BatuFi.sol\":3267:3291  transactionMap[_docHash] */\n      mload(0x40)\n      tag_471\n      swap2\n      swap1\n      tag_260\n      jump\t// in\n    tag_471:\n      swap1\n      dup2\n      mstore\n      0x20\n      add\n      mload(0x40)\n      dup1\n      swap2\n      sub\n      swap1\n      keccak256\n        /* \"BatuFi.sol\":3243:3291  Transaction storage t = transactionMap[_docHash] */\n      swap1\n      pop\n        /* \"BatuFi.sol\":3302:3319  uint256 timestamp */\n      0x00\n        /* \"BatuFi.sol\":3322:3323  t */\n      dup2\n        /* \"BatuFi.sol\":3322:3333  t.timestamp */\n      0x0a\n      add\n      sload\n        /* \"BatuFi.sol\":3302:3333  uint256 timestamp = t.timestamp */\n      swap1\n      pop\n        /* \"BatuFi.sol\":3344:3370  string memory uptoApproval */\n      0x00\n        /* \"BatuFi.sol\":3373:3374  t */\n      dup3\n        /* \"BatuFi.sol\":3373:3391  t.uptoApprovalRole */\n      0x09\n      add\n        /* \"BatuFi.sol\":3344:3391  string memory uptoApproval = t.uptoApprovalRole */\n      dup1\n      sload\n      tag_472\n      swap1\n      tag_140\n      jump\t// in\n    tag_472:\n      dup1\n      0x1f\n      add\n      0x20\n      dup1\n      swap2\n      div\n      mul\n      0x20\n      add\n      mload(0x40)\n      swap1\n      dup2\n      add\n      0x40\n      mstore\n      dup1\n      swap3\n      swap2\n      swap1\n      dup2\n      dup2\n      mstore\n      0x20\n      add\n      dup3\n      dup1\n      sload\n      tag_473\n      swap1\n      tag_140\n      jump\t// in\n    tag_473:\n      dup1\n      iszero\n      tag_474\n      jumpi\n      dup1\n      0x1f\n      lt\n      tag_475\n      jumpi\n      0x0100\n      dup1\n      dup4\n      sload\n      div\n      mul\n      dup4\n      mstore\n      swap2\n      0x20\n      add\n      swap2\n      jump(tag_474)\n    tag_475:\n      dup3\n      add\n      swap2\n      swap1\n      0x00\n      mstore\n      keccak256(0x00, 0x20)\n      swap1\n    tag_476:\n      dup2\n      sload\n      dup2\n      mstore\n      swap1\n      0x01\n      add\n      swap1\n      0x20\n      add\n      dup1\n      dup4\n      gt\n      tag_476\n      jumpi\n      dup3\n      swap1\n      sub\n      0x1f\n      and\n      dup3\n      add\n      swap2\n    tag_474:\n      pop\n      pop\n      pop\n      pop\n      pop\n      swap1\n      pop\n        /* \"BatuFi.sol\":3402:3431  string memory currentApproval */\n      0x00\n        /* \"BatuFi.sol\":3434:3435  t */\n      dup4\n        /* \"BatuFi.sol\":3434:3455  t.currentApprovalRole */\n      0x08\n      add\n        /* \"BatuFi.sol\":3402:3455  string memory currentApproval = t.currentApprovalRole */\n      dup1\n      sload\n      tag_477\n      swap1\n      tag_140\n      jump\t// in\n    tag_477:\n      dup1\n      0x1f\n      add\n      0x20\n      dup1\n      swap2\n      div\n      mul\n      0x20\n      add\n      mload(0x40)\n      swap1\n      dup2\n      add\n      0x40\n      mstore\n      dup1\n      swap3\n      swap2\n      swap1\n      dup2\n      dup2\n      mstore\n      0x20\n      add\n      dup3\n      dup1\n      sload\n      tag_478\n      swap1\n      tag_140\n      jump\t// in\n    tag_478:\n      dup1\n      iszero\n      tag_479\n      jumpi\n      dup1\n      0x1f\n      lt\n      tag_480\n      jumpi\n      0x0100\n      dup1\n      dup4\n      sload\n      div\n      mul\n      dup4\n      mstore\n      swap2\n      0x20\n      add\n      swap2\n      jump(tag_479)\n    tag_480:\n      dup3\n      add\n      swap2\n      swap1\n      0x00\n      mstore\n      keccak256(0x00, 0x20)\n      swap1\n    tag_481:\n      dup2\n      sload\n      dup2\n      mstore\n      swap1\n      0x01\n      add\n      swap1\n      0x20\n      add\n      dup1\n      dup4\n      gt\n      tag_481\n      jumpi\n      dup3\n      swap1\n      sub\n      0x1f\n      and\n      dup3\n      add\n      swap2\n    tag_479:\n      pop\n      pop\n      pop\n      pop\n      pop\n      swap1\n      pop\n        /* \"BatuFi.sol\":3533:3550  bool isWindowOpen */\n      0x00\n        /* \"BatuFi.sol\":3553:3604  isTimeWindowOverForRole(currentApproval, timestamp) */\n      tag_482\n        /* \"BatuFi.sol\":3577:3592  currentApproval */\n      dup3\n        /* \"BatuFi.sol\":3594:3603  timestamp */\n      dup6\n        /* \"BatuFi.sol\":3553:3576  isTimeWindowOverForRole */\n      tag_483\n        /* \"BatuFi.sol\":3553:3604  isTimeWindowOverForRole(currentApproval, timestamp) */\n      jump\t// in\n    tag_482:\n        /* \"BatuFi.sol\":3533:3604  bool isWindowOpen = isTimeWindowOverForRole(currentApproval, timestamp) */\n      swap1\n      pop\n        /* \"BatuFi.sol\":3621:3633  isWindowOpen */\n      dup1\n        /* \"BatuFi.sol\":3617:5843  if(!isWindowOpen) {\r... */\n      tag_484\n      jumpi\n        /* \"BatuFi.sol\":3693:3738  compareStrings(currentApproval, uptoApproval) */\n      tag_485\n        /* \"BatuFi.sol\":3708:3723  currentApproval */\n      dup3\n        /* \"BatuFi.sol\":3725:3737  uptoApproval */\n      dup5\n        /* \"BatuFi.sol\":3693:3707  compareStrings */\n      tag_307\n        /* \"BatuFi.sol\":3693:3738  compareStrings(currentApproval, uptoApproval) */\n      jump\t// in\n    tag_485:\n        /* \"BatuFi.sol\":3690:5829  if(compareStrings(currentApproval, uptoApproval)) {\r... */\n      iszero\n      tag_486\n      jumpi\n        /* \"BatuFi.sol\":3897:3932  compareStrings(t.status, \"EXPIRED\") */\n      tag_487\n        /* \"BatuFi.sol\":3912:3913  t */\n      dup6\n        /* \"BatuFi.sol\":3912:3920  t.status */\n      0x05\n      add\n        /* \"BatuFi.sol\":3897:3932  compareStrings(t.status, \"EXPIRED\") */\n      dup1\n      sload\n      tag_488\n      swap1\n      tag_140\n      jump\t// in\n    tag_488:\n      dup1\n      0x1f\n      add\n      0x20\n      dup1\n      swap2\n      div\n      mul\n      0x20\n      add\n      mload(0x40)\n      swap1\n      dup2\n      add\n      0x40\n      mstore\n      dup1\n      swap3\n      swap2\n      swap1\n      dup2\n      dup2\n      mstore\n      0x20\n      add\n      dup3\n      dup1\n      sload\n      tag_489\n      swap1\n      tag_140\n      jump\t// in\n    tag_489:\n      dup1\n      iszero\n      tag_490\n      jumpi\n      dup1\n      0x1f\n      lt\n      tag_491\n      jumpi\n      0x0100\n      dup1\n      dup4\n      sload\n      div\n      mul\n      dup4\n      mstore\n      swap2\n      0x20\n      add\n      swap2\n      jump(tag_490)\n    tag_491:\n      dup3\n      add\n      swap2\n      swap1\n      0x00\n      mstore\n      keccak256(0x00, 0x20)\n      swap1\n    tag_492:\n      dup2\n      sload\n      dup2\n      mstore\n      swap1\n      0x01\n      add\n      swap1\n      0x20\n      add\n      dup1\n      dup4\n      gt\n      tag_492\n      jumpi\n      dup3\n      swap1\n      sub\n      0x1f\n      and\n      dup3\n      add\n      swap2\n    tag_490:\n      pop\n      pop\n      pop\n      pop\n      pop\n      mload(0x40)\n      dup1\n      0x40\n      add\n      0x40\n      mstore\n      dup1\n      0x07\n      dup2\n      mstore\n      0x20\n      add\n      0x4558504952454400000000000000000000000000000000000000000000000000\n      dup2\n      mstore\n      pop\n        /* \"BatuFi.sol\":3897:3911  compareStrings */\n      tag_307\n        /* \"BatuFi.sol\":3897:3932  compareStrings(t.status, \"EXPIRED\") */\n      jump\t// in\n    tag_487:\n        /* \"BatuFi.sol\":3893:4750  if(!compareStrings(t.status, \"EXPIRED\")) {\r... */\n      tag_493\n      jumpi\n        /* \"BatuFi.sol\":3957:3977  t.status = \"EXPIRED\" */\n      mload(0x40)\n      dup1\n      0x40\n      add\n      0x40\n      mstore\n      dup1\n      0x07\n      dup2\n      mstore\n      0x20\n      add\n      0x4558504952454400000000000000000000000000000000000000000000000000\n      dup2\n      mstore\n      pop\n        /* \"BatuFi.sol\":3957:3958  t */\n      dup6\n        /* \"BatuFi.sol\":3957:3965  t.status */\n      0x05\n      add\n        /* \"BatuFi.sol\":3957:3977  t.status = \"EXPIRED\" */\n      swap1\n      dup1\n      mload\n      swap1\n      0x20\n      add\n      swap1\n      tag_494\n      swap3\n      swap2\n      swap1\n      tag_310\n      jump\t// in\n    tag_494:\n      pop\n        /* \"BatuFi.sol\":4005:4011  uint i */\n      0x00\n        /* \"BatuFi.sol\":4000:4283  for (uint i=0; i<userList.length; i++) {\r... */\n    tag_495:\n        /* \"BatuFi.sol\":4017:4025  userList */\n      0x09\n        /* \"BatuFi.sol\":4017:4032  userList.length */\n      dup1\n      sload\n      swap1\n      pop\n        /* \"BatuFi.sol\":4015:4016  i */\n      dup2\n        /* \"BatuFi.sol\":4015:4032  i<userList.length */\n      lt\n        /* \"BatuFi.sol\":4000:4283  for (uint i=0; i<userList.length; i++) {\r... */\n      iszero\n      tag_496\n      jumpi\n        /* \"BatuFi.sol\":4066:4080  User storage u */\n      0x00\n        /* \"BatuFi.sol\":4083:4090  userMap */\n      0x0b\n        /* \"BatuFi.sol\":4083:4103  userMap[userList[i]] */\n      0x00\n        /* \"BatuFi.sol\":4091:4099  userList */\n      0x09\n        /* \"BatuFi.sol\":4100:4101  i */\n      dup5\n        /* \"BatuFi.sol\":4091:4102  userList[i] */\n      dup2\n      sload\n      dup2\n      lt\n      tag_498\n      jumpi\n      mstore(0x00, 0x4e487b7100000000000000000000000000000000000000000000000000000000)\n      mstore(0x04, 0x32)\n      revert(0x00, 0x24)\n    tag_498:\n      swap1\n      0x00\n      mstore\n      keccak256(0x00, 0x20)\n      add\n      0x00\n      swap1\n      sload\n      swap1\n      0x0100\n      exp\n      swap1\n      div\n      0xffffffffffffffffffffffffffffffffffffffff\n      and\n        /* \"BatuFi.sol\":4083:4103  userMap[userList[i]] */\n      0xffffffffffffffffffffffffffffffffffffffff\n      and\n      0xffffffffffffffffffffffffffffffffffffffff\n      and\n      dup2\n      mstore\n      0x20\n      add\n      swap1\n      dup2\n      mstore\n      0x20\n      add\n      0x00\n      keccak256\n        /* \"BatuFi.sol\":4066:4103  User storage u = userMap[userList[i]] */\n      swap1\n      pop\n        /* \"BatuFi.sol\":4133:4172  compareStrings(u.role, currentApproval) */\n      tag_500\n        /* \"BatuFi.sol\":4148:4149  u */\n      dup2\n        /* \"BatuFi.sol\":4148:4154  u.role */\n      0x01\n      add\n        /* \"BatuFi.sol\":4133:4172  compareStrings(u.role, currentApproval) */\n      dup1\n      sload\n      tag_501\n      swap1\n      tag_140\n      jump\t// in\n    tag_501:\n      dup1\n      0x1f\n      add\n      0x20\n      dup1\n      swap2\n      div\n      mul\n      0x20\n      add\n      mload(0x40)\n      swap1\n      dup2\n      add\n      0x40\n      mstore\n      dup1\n      swap3\n      swap2\n      swap1\n      dup2\n      dup2\n      mstore\n      0x20\n      add\n      dup3\n      dup1\n      sload\n      tag_502\n      swap1\n      tag_140\n      jump\t// in\n    tag_502:\n      dup1\n      iszero\n      tag_503\n      jumpi\n      dup1\n      0x1f\n      lt\n      tag_504\n      jumpi\n      0x0100\n      dup1\n      dup4\n      sload\n      div\n      mul\n      dup4\n      mstore\n      swap2\n      0x20\n      add\n      swap2\n      jump(tag_503)\n    tag_504:\n      dup3\n      add\n      swap2\n      swap1\n      0x00\n      mstore\n      keccak256(0x00, 0x20)\n      swap1\n    tag_505:\n      dup2\n      sload\n      dup2\n      mstore\n      swap1\n      0x01\n      add\n      swap1\n      0x20\n      add\n      dup1\n      dup4\n      gt\n      tag_505\n      jumpi\n      dup3\n      swap1\n      sub\n      0x1f\n      and\n      dup3\n      add\n      swap2\n    tag_503:\n      pop\n      pop\n      pop\n      pop\n      pop\n        /* \"BatuFi.sol\":4156:4171  currentApproval */\n      dup6\n        /* \"BatuFi.sol\":4133:4147  compareStrings */\n      tag_307\n        /* \"BatuFi.sol\":4133:4172  compareStrings(u.role, currentApproval) */\n      jump\t// in\n    tag_500:\n        /* \"BatuFi.sol\":4130:4260  if(compareStrings(u.role, currentApproval)) {\r... */\n      iszero\n      tag_506\n      jumpi\n        /* \"BatuFi.sol\":4231:4232  1 */\n      0x01\n        /* \"BatuFi.sol\":4219:4220  u */\n      dup2\n        /* \"BatuFi.sol\":4219:4230  u.slipCount */\n      0x06\n      add\n      sload\n        /* \"BatuFi.sol\":4219:4232  u.slipCount+1 */\n      tag_507\n      swap2\n      swap1\n      tag_294\n      jump\t// in\n    tag_507:\n        /* \"BatuFi.sol\":4205:4206  u */\n      dup2\n        /* \"BatuFi.sol\":4205:4216  u.slipCount */\n      0x06\n      add\n        /* \"BatuFi.sol\":4205:4232  u.slipCount = u.slipCount+1 */\n      dup2\n      swap1\n      sstore\n      pop\n        /* \"BatuFi.sol\":4130:4260  if(compareStrings(u.role, currentApproval)) {\r... */\n    tag_506:\n        /* \"BatuFi.sol\":4000:4283  for (uint i=0; i<userList.length; i++) {\r... */\n      pop\n        /* \"BatuFi.sol\":4034:4037  i++ */\n      dup1\n      dup1\n      tag_508\n      swap1\n      tag_393\n      jump\t// in\n    tag_508:\n      swap2\n      pop\n      pop\n        /* \"BatuFi.sol\":4000:4283  for (uint i=0; i<userList.length; i++) {\r... */\n      jump(tag_495)\n    tag_496:\n      pop\n        /* \"BatuFi.sol\":4365:4388  Notification storage n0 */\n      0x00\n        /* \"BatuFi.sol\":4391:4406  notificationMap */\n      0x0d\n        /* \"BatuFi.sol\":4407:4415  _docHash */\n      dup9\n        /* \"BatuFi.sol\":4391:4416  notificationMap[_docHash] */\n      mload(0x40)\n      tag_509\n      swap2\n      swap1\n      tag_260\n      jump\t// in\n    tag_509:\n      swap1\n      dup2\n      mstore\n      0x20\n      add\n      mload(0x40)\n      dup1\n      swap2\n      sub\n      swap1\n      keccak256\n        /* \"BatuFi.sol\":4365:4416  Notification storage n0 = notificationMap[_docHash] */\n      swap1\n      pop\n        /* \"BatuFi.sol\":4439:4471  n0.title = \"Transaction Expired\" */\n      mload(0x40)\n      dup1\n      0x40\n      add\n      0x40\n      mstore\n      dup1\n      0x13\n      dup2\n      mstore\n      0x20\n      add\n      0x5472616e73616374696f6e204578706972656400000000000000000000000000\n      dup2\n      mstore\n      pop\n        /* \"BatuFi.sol\":4439:4441  n0 */\n      dup2\n        /* \"BatuFi.sol\":4439:4447  n0.title */\n      0x00\n      add\n        /* \"BatuFi.sol\":4439:4471  n0.title = \"Transaction Expired\" */\n      swap1\n      dup1\n      mload\n      swap1\n      0x20\n      add\n      swap1\n      tag_510\n      swap3\n      swap2\n      swap1\n      tag_310\n      jump\t// in\n    tag_510:\n      pop\n        /* \"BatuFi.sol\":4569:4577  _docHash */\n      dup8\n        /* \"BatuFi.sol\":4514:4593  abi.encodePacked(\"Transaction with transaction hash \", _docHash, \" is expired\") */\n      add(0x20, mload(0x40))\n      tag_511\n      swap2\n      swap1\n      tag_512\n      jump\t// in\n    tag_511:\n      mload(0x40)\n      0x20\n      dup2\n      dup4\n      sub\n      sub\n      dup2\n      mstore\n      swap1\n      0x40\n      mstore\n        /* \"BatuFi.sol\":4494:4496  n0 */\n      dup2\n        /* \"BatuFi.sol\":4494:4504  n0.message */\n      0x01\n      add\n        /* \"BatuFi.sol\":4494:4594  n0.message = string(abi.encodePacked(\"Transaction with transaction hash \", _docHash, \" is expired\")) */\n      swap1\n      dup1\n      mload\n      swap1\n      0x20\n      add\n      swap1\n      tag_513\n      swap3\n      swap2\n      swap1\n      tag_310\n      jump\t// in\n    tag_513:\n      pop\n        /* \"BatuFi.sol\":4630:4638  _docHash */\n      dup8\n        /* \"BatuFi.sol\":4617:4619  n0 */\n      dup2\n        /* \"BatuFi.sol\":4617:4627  n0.docHash */\n      0x02\n      add\n        /* \"BatuFi.sol\":4617:4638  n0.docHash = _docHash */\n      swap1\n      dup1\n      mload\n      swap1\n      0x20\n      add\n      swap1\n      tag_514\n      swap3\n      swap2\n      swap1\n      tag_310\n      jump\t// in\n    tag_514:\n      pop\n        /* \"BatuFi.sol\":4661:4682  n0.status = \"EXPIRED\" */\n      mload(0x40)\n      dup1\n      0x40\n      add\n      0x40\n      mstore\n      dup1\n      0x07\n      dup2\n      mstore\n      0x20\n      add\n      0x4558504952454400000000000000000000000000000000000000000000000000\n      dup2\n      mstore\n      pop\n        /* \"BatuFi.sol\":4661:4663  n0 */\n      dup2\n        /* \"BatuFi.sol\":4661:4670  n0.status */\n      0x03\n      add\n        /* \"BatuFi.sol\":4661:4682  n0.status = \"EXPIRED\" */\n      swap1\n      dup1\n      mload\n      swap1\n      0x20\n      add\n      swap1\n      tag_515\n      swap3\n      swap2\n      swap1\n      tag_310\n      jump\t// in\n    tag_515:\n      pop\n        /* \"BatuFi.sol\":4705:4721  notificationList */\n      0x07\n        /* \"BatuFi.sol\":4727:4729  n0 */\n      dup2\n        /* \"BatuFi.sol\":4705:4730  notificationList.push(n0) */\n      swap1\n      dup1\n      0x01\n      dup2\n      sload\n      add\n      dup1\n      dup3\n      sstore\n      dup1\n      swap2\n      pop\n      pop\n      0x01\n      swap1\n      sub\n      swap1\n      0x00\n      mstore\n      keccak256(0x00, 0x20)\n      swap1\n      0x04\n      mul\n      add\n      0x00\n      swap1\n      swap2\n      swap1\n      swap2\n      swap1\n      swap2\n      pop\n      0x00\n      dup3\n      add\n      dup2\n      0x00\n      add\n      swap1\n      dup1\n      sload\n      tag_517\n      swap1\n      tag_140\n      jump\t// in\n    tag_517:\n      tag_518\n      swap3\n      swap2\n      swap1\n      tag_290\n      jump\t// in\n    tag_518:\n      pop\n      0x01\n      dup3\n      add\n      dup2\n      0x01\n      add\n      swap1\n      dup1\n      sload\n      tag_519\n      swap1\n      tag_140\n      jump\t// in\n    tag_519:\n      tag_520\n      swap3\n      swap2\n      swap1\n      tag_290\n      jump\t// in\n    tag_520:\n      pop\n      0x02\n      dup3\n      add\n      dup2\n      0x02\n      add\n      swap1\n      dup1\n      sload\n      tag_521\n      swap1\n      tag_140\n      jump\t// in\n    tag_521:\n      tag_522\n      swap3\n      swap2\n      swap1\n      tag_290\n      jump\t// in\n    tag_522:\n      pop\n      0x03\n      dup3\n      add\n      dup2\n      0x03\n      add\n      swap1\n      dup1\n      sload\n      tag_523\n      swap1\n      tag_140\n      jump\t// in\n    tag_523:\n      tag_524\n      swap3\n      swap2\n      swap1\n      tag_290\n      jump\t// in\n    tag_524:\n      pop\n      pop\n      pop\n        /* \"BatuFi.sol\":3893:4750  if(!compareStrings(t.status, \"EXPIRED\")) {\r... */\n      pop\n    tag_493:\n        /* \"BatuFi.sol\":4775:4776  0 */\n      0x00\n        /* \"BatuFi.sol\":4768:4776  return 0 */\n      swap6\n      pop\n      pop\n      pop\n      pop\n      pop\n      pop\n      jump(tag_470)\n        /* \"BatuFi.sol\":3690:5829  if(compareStrings(currentApproval, uptoApproval)) {\r... */\n    tag_486:\n        /* \"BatuFi.sol\":4895:4923  getNextRole(currentApproval) */\n      tag_526\n        /* \"BatuFi.sol\":4907:4922  currentApproval */\n      dup3\n        /* \"BatuFi.sol\":4895:4906  getNextRole */\n      tag_335\n        /* \"BatuFi.sol\":4895:4923  getNextRole(currentApproval) */\n      jump\t// in\n    tag_526:\n        /* \"BatuFi.sol\":4871:4872  t */\n      dup6\n        /* \"BatuFi.sol\":4871:4892  t.currentApprovalRole */\n      0x08\n      add\n        /* \"BatuFi.sol\":4871:4923  t.currentApprovalRole = getNextRole(currentApproval) */\n      swap1\n      dup1\n      mload\n      swap1\n      0x20\n      add\n      swap1\n      tag_527\n      swap3\n      swap2\n      swap1\n      tag_310\n      jump\t// in\n    tag_527:\n      pop\n        /* \"BatuFi.sol\":4947:4953  uint i */\n      0x00\n        /* \"BatuFi.sol\":4942:5205  for (uint i=0; i<userList.length; i++) {\r... */\n    tag_528:\n        /* \"BatuFi.sol\":4959:4967  userList */\n      0x09\n        /* \"BatuFi.sol\":4959:4974  userList.length */\n      dup1\n      sload\n      swap1\n      pop\n        /* \"BatuFi.sol\":4957:4958  i */\n      dup2\n        /* \"BatuFi.sol\":4957:4974  i<userList.length */\n      lt\n        /* \"BatuFi.sol\":4942:5205  for (uint i=0; i<userList.length; i++) {\r... */\n      iszero\n      tag_529\n      jumpi\n        /* \"BatuFi.sol\":5004:5018  User storage u */\n      0x00\n        /* \"BatuFi.sol\":5021:5028  userMap */\n      0x0b\n        /* \"BatuFi.sol\":5021:5041  userMap[userList[i]] */\n      0x00\n        /* \"BatuFi.sol\":5029:5037  userList */\n      0x09\n        /* \"BatuFi.sol\":5038:5039  i */\n      dup5\n        /* \"BatuFi.sol\":5029:5040  userList[i] */\n      dup2\n      sload\n      dup2\n      lt\n      tag_531\n      jumpi\n      mstore(0x00, 0x4e487b7100000000000000000000000000000000000000000000000000000000)\n      mstore(0x04, 0x32)\n      revert(0x00, 0x24)\n    tag_531:\n      swap1\n      0x00\n      mstore\n      keccak256(0x00, 0x20)\n      add\n      0x00\n      swap1\n      sload\n      swap1\n      0x0100\n      exp\n      swap1\n      div\n      0xffffffffffffffffffffffffffffffffffffffff\n      and\n        /* \"BatuFi.sol\":5021:5041  userMap[userList[i]] */\n      0xffffffffffffffffffffffffffffffffffffffff\n      and\n      0xffffffffffffffffffffffffffffffffffffffff\n      and\n      dup2\n      mstore\n      0x20\n      add\n      swap1\n      dup2\n      mstore\n      0x20\n      add\n      0x00\n      keccak256\n        /* \"BatuFi.sol\":5004:5041  User storage u = userMap[userList[i]] */\n      swap1\n      pop\n        /* \"BatuFi.sol\":5067:5106  compareStrings(u.role, currentApproval) */\n      tag_533\n        /* \"BatuFi.sol\":5082:5083  u */\n      dup2\n        /* \"BatuFi.sol\":5082:5088  u.role */\n      0x01\n      add\n        /* \"BatuFi.sol\":5067:5106  compareStrings(u.role, currentApproval) */\n      dup1\n      sload\n      tag_534\n      swap1\n      tag_140\n      jump\t// in\n    tag_534:\n      dup1\n      0x1f\n      add\n      0x20\n      dup1\n      swap2\n      div\n      mul\n      0x20\n      add\n      mload(0x40)\n      swap1\n      dup2\n      add\n      0x40\n      mstore\n      dup1\n      swap3\n      swap2\n      swap1\n      dup2\n      dup2\n      mstore\n      0x20\n      add\n      dup3\n      dup1\n      sload\n      tag_535\n      swap1\n      tag_140\n      jump\t// in\n    tag_535:\n      dup1\n      iszero\n      tag_536\n      jumpi\n      dup1\n      0x1f\n      lt\n      tag_537\n      jumpi\n      0x0100\n      dup1\n      dup4\n      sload\n      div\n      mul\n      dup4\n      mstore\n      swap2\n      0x20\n      add\n      swap2\n      jump(tag_536)\n    tag_537:\n      dup3\n      add\n      swap2\n      swap1\n      0x00\n      mstore\n      keccak256(0x00, 0x20)\n      swap1\n    tag_538:\n      dup2\n      sload\n      dup2\n      mstore\n      swap1\n      0x01\n      add\n      swap1\n      0x20\n      add\n      dup1\n      dup4\n      gt\n      tag_538\n      jumpi\n      dup3\n      swap1\n      sub\n      0x1f\n      and\n      dup3\n      add\n      swap2\n    tag_536:\n      pop\n      pop\n      pop\n      pop\n      pop\n        /* \"BatuFi.sol\":5090:5105  currentApproval */\n      dup6\n        /* \"BatuFi.sol\":5067:5081  compareStrings */\n      tag_307\n        /* \"BatuFi.sol\":5067:5106  compareStrings(u.role, currentApproval) */\n      jump\t// in\n    tag_533:\n        /* \"BatuFi.sol\":5064:5186  if(compareStrings(u.role, currentApproval)) {\r... */\n      iszero\n      tag_539\n      jumpi\n        /* \"BatuFi.sol\":5161:5162  1 */\n      0x01\n        /* \"BatuFi.sol\":5149:5150  u */\n      dup2\n        /* \"BatuFi.sol\":5149:5160  u.slipCount */\n      0x06\n      add\n      sload\n        /* \"BatuFi.sol\":5149:5162  u.slipCount+1 */\n      tag_540\n      swap2\n      swap1\n      tag_294\n      jump\t// in\n    tag_540:\n        /* \"BatuFi.sol\":5135:5136  u */\n      dup2\n        /* \"BatuFi.sol\":5135:5146  u.slipCount */\n      0x06\n      add\n        /* \"BatuFi.sol\":5135:5162  u.slipCount = u.slipCount+1 */\n      dup2\n      swap1\n      sstore\n      pop\n        /* \"BatuFi.sol\":5064:5186  if(compareStrings(u.role, currentApproval)) {\r... */\n    tag_539:\n        /* \"BatuFi.sol\":4942:5205  for (uint i=0; i<userList.length; i++) {\r... */\n      pop\n        /* \"BatuFi.sol\":4976:4979  i++ */\n      dup1\n      dup1\n      tag_541\n      swap1\n      tag_393\n      jump\t// in\n    tag_541:\n      swap2\n      pop\n      pop\n        /* \"BatuFi.sol\":4942:5205  for (uint i=0; i<userList.length; i++) {\r... */\n      jump(tag_528)\n    tag_529:\n      pop\n        /* \"BatuFi.sol\":5223:5237  Role storage r */\n      0x00\n        /* \"BatuFi.sol\":5240:5247  roleMap */\n      0x0a\n        /* \"BatuFi.sol\":5248:5263  currentApproval */\n      dup4\n        /* \"BatuFi.sol\":5240:5264  roleMap[currentApproval] */\n      mload(0x40)\n      tag_542\n      swap2\n      swap1\n      tag_260\n      jump\t// in\n    tag_542:\n      swap1\n      dup2\n      mstore\n      0x20\n      add\n      mload(0x40)\n      dup1\n      swap2\n      sub\n      swap1\n      keccak256\n        /* \"BatuFi.sol\":5223:5264  Role storage r = roleMap[currentApproval] */\n      swap1\n      pop\n        /* \"BatuFi.sol\":5369:5392  Notification storage n2 */\n      0x00\n        /* \"BatuFi.sol\":5395:5410  notificationMap */\n      0x0d\n        /* \"BatuFi.sol\":5411:5419  _docHash */\n      dup10\n        /* \"BatuFi.sol\":5395:5420  notificationMap[_docHash] */\n      mload(0x40)\n      tag_543\n      swap2\n      swap1\n      tag_260\n      jump\t// in\n    tag_543:\n      swap1\n      dup2\n      mstore\n      0x20\n      add\n      mload(0x40)\n      dup1\n      swap2\n      sub\n      swap1\n      keccak256\n        /* \"BatuFi.sol\":5369:5420  Notification storage n2 = notificationMap[_docHash] */\n      swap1\n      pop\n        /* \"BatuFi.sol\":5439:5475  n2.title = \"Transaction Transferred\" */\n      mload(0x40)\n      dup1\n      0x40\n      add\n      0x40\n      mstore\n      dup1\n      0x17\n      dup2\n      mstore\n      0x20\n      add\n      0x5472616e73616374696f6e205472616e73666572726564000000000000000000\n      dup2\n      mstore\n      pop\n        /* \"BatuFi.sol\":5439:5441  n2 */\n      dup2\n        /* \"BatuFi.sol\":5439:5447  n2.title */\n      0x00\n      add\n        /* \"BatuFi.sol\":5439:5475  n2.title = \"Transaction Transferred\" */\n      swap1\n      dup1\n      mload\n      swap1\n      0x20\n      add\n      swap1\n      tag_544\n      swap3\n      swap2\n      swap1\n      tag_310\n      jump\t// in\n    tag_544:\n      pop\n        /* \"BatuFi.sol\":5569:5577  _docHash */\n      dup9\n        /* \"BatuFi.sol\":5599:5600  r */\n      dup3\n        /* \"BatuFi.sol\":5599:5605  r.name */\n      0x02\n      add\n        /* \"BatuFi.sol\":5514:5659  abi.encodePacked(\"Transaction with transaction hash \", _docHash, \" is expired for \", r.name, \" and has been transferred to the higher authority\") */\n      add(0x20, mload(0x40))\n      tag_545\n      swap3\n      swap2\n      swap1\n      tag_546\n      jump\t// in\n    tag_545:\n      mload(0x40)\n      0x20\n      dup2\n      dup4\n      sub\n      sub\n      dup2\n      mstore\n      swap1\n      0x40\n      mstore\n        /* \"BatuFi.sol\":5494:5496  n2 */\n      dup2\n        /* \"BatuFi.sol\":5494:5504  n2.message */\n      0x01\n      add\n        /* \"BatuFi.sol\":5494:5660  n2.message = string(abi.encodePacked(\"Transaction with transaction hash \", _docHash, \" is expired for \", r.name, \" and has been transferred to the higher authority\")) */\n      swap1\n      dup1\n      mload\n      swap1\n      0x20\n      add\n      swap1\n      tag_547\n      swap3\n      swap2\n      swap1\n      tag_310\n      jump\t// in\n    tag_547:\n      pop\n        /* \"BatuFi.sol\":5692:5700  _docHash */\n      dup9\n        /* \"BatuFi.sol\":5679:5681  n2 */\n      dup2\n        /* \"BatuFi.sol\":5679:5689  n2.docHash */\n      0x02\n      add\n        /* \"BatuFi.sol\":5679:5700  n2.docHash = _docHash */\n      swap1\n      dup1\n      mload\n      swap1\n      0x20\n      add\n      swap1\n      tag_548\n      swap3\n      swap2\n      swap1\n      tag_310\n      jump\t// in\n    tag_548:\n      pop\n        /* \"BatuFi.sol\":5719:5740  n2.status = \"PENDING\" */\n      mload(0x40)\n      dup1\n      0x40\n      add\n      0x40\n      mstore\n      dup1\n      0x07\n      dup2\n      mstore\n      0x20\n      add\n      0x50454e44494e4700000000000000000000000000000000000000000000000000\n      dup2\n      mstore\n      pop\n        /* \"BatuFi.sol\":5719:5721  n2 */\n      dup2\n        /* \"BatuFi.sol\":5719:5728  n2.status */\n      0x03\n      add\n        /* \"BatuFi.sol\":5719:5740  n2.status = \"PENDING\" */\n      swap1\n      dup1\n      mload\n      swap1\n      0x20\n      add\n      swap1\n      tag_549\n      swap3\n      swap2\n      swap1\n      tag_310\n      jump\t// in\n    tag_549:\n      pop\n        /* \"BatuFi.sol\":5759:5775  notificationList */\n      0x07\n        /* \"BatuFi.sol\":5781:5783  n2 */\n      dup2\n        /* \"BatuFi.sol\":5759:5784  notificationList.push(n2) */\n      swap1\n      dup1\n      0x01\n      dup2\n      sload\n      add\n      dup1\n      dup3\n      sstore\n      dup1\n      swap2\n      pop\n      pop\n      0x01\n      swap1\n      sub\n      swap1\n      0x00\n      mstore\n      keccak256(0x00, 0x20)\n      swap1\n      0x04\n      mul\n      add\n      0x00\n      swap1\n      swap2\n      swap1\n      swap2\n      swap1\n      swap2\n      pop\n      0x00\n      dup3\n      add\n      dup2\n      0x00\n      add\n      swap1\n      dup1\n      sload\n      tag_551\n      swap1\n      tag_140\n      jump\t// in\n    tag_551:\n      tag_552\n      swap3\n      swap2\n      swap1\n      tag_290\n      jump\t// in\n    tag_552:\n      pop\n      0x01\n      dup3\n      add\n      dup2\n      0x01\n      add\n      swap1\n      dup1\n      sload\n      tag_553\n      swap1\n      tag_140\n      jump\t// in\n    tag_553:\n      tag_554\n      swap3\n      swap2\n      swap1\n      tag_290\n      jump\t// in\n    tag_554:\n      pop\n      0x02\n      dup3\n      add\n      dup2\n      0x02\n      add\n      swap1\n      dup1\n      sload\n      tag_555\n      swap1\n      tag_140\n      jump\t// in\n    tag_555:\n      tag_556\n      swap3\n      swap2\n      swap1\n      tag_290\n      jump\t// in\n    tag_556:\n      pop\n      0x03\n      dup3\n      add\n      dup2\n      0x03\n      add\n      swap1\n      dup1\n      sload\n      tag_557\n      swap1\n      tag_140\n      jump\t// in\n    tag_557:\n      tag_558\n      swap3\n      swap2\n      swap1\n      tag_290\n      jump\t// in\n    tag_558:\n      pop\n      pop\n      pop\n        /* \"BatuFi.sol\":5812:5813  2 */\n      0x02\n        /* \"BatuFi.sol\":5805:5813  return 2 */\n      swap8\n      pop\n      pop\n      pop\n      pop\n      pop\n      pop\n      pop\n      pop\n      jump(tag_470)\n        /* \"BatuFi.sol\":3617:5843  if(!isWindowOpen) {\r... */\n    tag_484:\n        /* \"BatuFi.sol\":5862:5863  1 */\n      0x01\n        /* \"BatuFi.sol\":5855:5863  return 1 */\n      swap6\n      pop\n      pop\n      pop\n      pop\n      pop\n      pop\n        /* \"BatuFi.sol\":3159:5871  function validateTxDuration(string memory _docHash) public returns(uint) {\r... */\n    tag_470:\n      swap2\n      swap1\n      pop\n      jump\t// out\n        /* \"BatuFi.sol\":8165:9599  function createTransaction(string memory _id, string memory _hash, string memory _url, string memory _comment, uint256 _amount) public memberOnly {\r... */\n    tag_130:\n        /* \"BatuFi.sol\":2085:2092  userMap */\n      0x0b\n        /* \"BatuFi.sol\":2085:2104  userMap[msg.sender] */\n      0x00\n        /* \"BatuFi.sol\":2093:2103  msg.sender */\n      caller\n        /* \"BatuFi.sol\":2085:2104  userMap[msg.sender] */\n      0xffffffffffffffffffffffffffffffffffffffff\n      and\n      0xffffffffffffffffffffffffffffffffffffffff\n      and\n      dup2\n      mstore\n      0x20\n      add\n      swap1\n      dup2\n      mstore\n      0x20\n      add\n      0x00\n      keccak256\n        /* \"BatuFi.sol\":2085:2107  userMap[msg.sender].id */\n      0x02\n      add\n      0x00\n      swap1\n      sload\n      swap1\n      0x0100\n      exp\n      swap1\n      div\n      0xffffffffffffffffffffffffffffffffffffffff\n      and\n        /* \"BatuFi.sol\":2071:2107  msg.sender == userMap[msg.sender].id */\n      0xffffffffffffffffffffffffffffffffffffffff\n      and\n        /* \"BatuFi.sol\":2071:2081  msg.sender */\n      caller\n        /* \"BatuFi.sol\":2071:2107  msg.sender == userMap[msg.sender].id */\n      0xffffffffffffffffffffffffffffffffffffffff\n      and\n      eq\n        /* \"BatuFi.sol\":2063:2108  require(msg.sender == userMap[msg.sender].id) */\n      tag_560\n      jumpi\n      0x00\n      dup1\n      revert\n    tag_560:\n        /* \"BatuFi.sol\":8381:8402  Transaction storage t */\n      0x00\n        /* \"BatuFi.sol\":8405:8419  transactionMap */\n      0x0c\n        /* \"BatuFi.sol\":8420:8425  _hash */\n      dup6\n        /* \"BatuFi.sol\":8405:8426  transactionMap[_hash] */\n      mload(0x40)\n      tag_562\n      swap2\n      swap1\n      tag_260\n      jump\t// in\n    tag_562:\n      swap1\n      dup2\n      mstore\n      0x20\n      add\n      mload(0x40)\n      dup1\n      swap2\n      sub\n      swap1\n      keccak256\n        /* \"BatuFi.sol\":8381:8426  Transaction storage t = transactionMap[_hash] */\n      swap1\n      pop\n        /* \"BatuFi.sol\":8444:8447  _id */\n      dup6\n        /* \"BatuFi.sol\":8437:8438  t */\n      dup2\n        /* \"BatuFi.sol\":8437:8441  t.id */\n      0x00\n      add\n        /* \"BatuFi.sol\":8437:8447  t.id = _id */\n      swap1\n      dup1\n      mload\n      swap1\n      0x20\n      add\n      swap1\n      tag_563\n      swap3\n      swap2\n      swap1\n      tag_310\n      jump\t// in\n    tag_563:\n      pop\n        /* \"BatuFi.sol\":8470:8475  _hash */\n      dup5\n        /* \"BatuFi.sol\":8458:8459  t */\n      dup2\n        /* \"BatuFi.sol\":8458:8467  t.docHash */\n      0x01\n      add\n        /* \"BatuFi.sol\":8458:8475  t.docHash = _hash */\n      swap1\n      dup1\n      mload\n      swap1\n      0x20\n      add\n      swap1\n      tag_564\n      swap3\n      swap2\n      swap1\n      tag_310\n      jump\t// in\n    tag_564:\n      pop\n        /* \"BatuFi.sol\":8494:8498  _url */\n      dup4\n        /* \"BatuFi.sol\":8486:8487  t */\n      dup2\n        /* \"BatuFi.sol\":8486:8491  t.url */\n      0x02\n      add\n        /* \"BatuFi.sol\":8486:8498  t.url = _url */\n      swap1\n      dup1\n      mload\n      swap1\n      0x20\n      add\n      swap1\n      tag_565\n      swap3\n      swap2\n      swap1\n      tag_310\n      jump\t// in\n    tag_565:\n      pop\n        /* \"BatuFi.sol\":8521:8529  _comment */\n      dup3\n        /* \"BatuFi.sol\":8509:8510  t */\n      dup2\n        /* \"BatuFi.sol\":8509:8518  t.comment */\n      0x03\n      add\n        /* \"BatuFi.sol\":8509:8529  t.comment = _comment */\n      swap1\n      dup1\n      mload\n      swap1\n      0x20\n      add\n      swap1\n      tag_566\n      swap3\n      swap2\n      swap1\n      tag_310\n      jump\t// in\n    tag_566:\n      pop\n        /* \"BatuFi.sol\":8551:8567  transactionCount */\n      0x03\n      0x00\n        /* \"BatuFi.sol\":8551:8569  transactionCount++ */\n      dup2\n      sload\n      dup1\n      swap3\n      swap2\n      swap1\n      tag_567\n      swap1\n      tag_393\n      jump\t// in\n    tag_567:\n      swap2\n      swap1\n      pop\n      sstore\n        /* \"BatuFi.sol\":8540:8541  t */\n      dup2\n        /* \"BatuFi.sol\":8540:8548  t.number */\n      0x04\n      add\n        /* \"BatuFi.sol\":8540:8569  t.number = transactionCount++ */\n      dup2\n      swap1\n      sstore\n      pop\n        /* \"BatuFi.sol\":8580:8600  t.status = \"PENDING\" */\n      mload(0x40)\n      dup1\n      0x40\n      add\n      0x40\n      mstore\n      dup1\n      0x07\n      dup2\n      mstore\n      0x20\n      add\n      0x50454e44494e4700000000000000000000000000000000000000000000000000\n      dup2\n      mstore\n      pop\n        /* \"BatuFi.sol\":8580:8581  t */\n      dup2\n        /* \"BatuFi.sol\":8580:8588  t.status */\n      0x05\n      add\n        /* \"BatuFi.sol\":8580:8600  t.status = \"PENDING\" */\n      swap1\n      dup1\n      mload\n      swap1\n      0x20\n      add\n      swap1\n      tag_568\n      swap3\n      swap2\n      swap1\n      tag_310\n      jump\t// in\n    tag_568:\n      pop\n        /* \"BatuFi.sol\":8623:8633  msg.sender */\n      caller\n        /* \"BatuFi.sol\":8611:8612  t */\n      dup2\n        /* \"BatuFi.sol\":8611:8620  t.creator */\n      0x06\n      add\n      0x00\n        /* \"BatuFi.sol\":8611:8633  t.creator = msg.sender */\n      0x0100\n      exp\n      dup2\n      sload\n      dup2\n      0xffffffffffffffffffffffffffffffffffffffff\n      mul\n      not\n      and\n      swap1\n      dup4\n      0xffffffffffffffffffffffffffffffffffffffff\n      and\n      mul\n      or\n      swap1\n      sstore\n      pop\n        /* \"BatuFi.sol\":8655:8662  _amount */\n      dup2\n        /* \"BatuFi.sol\":8644:8645  t */\n      dup2\n        /* \"BatuFi.sol\":8644:8652  t.amount */\n      0x07\n      add\n        /* \"BatuFi.sol\":8644:8662  t.amount = _amount */\n      dup2\n      swap1\n      sstore\n      pop\n        /* \"BatuFi.sol\":8673:8702  t.currentApprovalRole = \"HOD\" */\n      mload(0x40)\n      dup1\n      0x40\n      add\n      0x40\n      mstore\n      dup1\n      0x03\n      dup2\n      mstore\n      0x20\n      add\n      0x484f440000000000000000000000000000000000000000000000000000000000\n      dup2\n      mstore\n      pop\n        /* \"BatuFi.sol\":8673:8674  t */\n      dup2\n        /* \"BatuFi.sol\":8673:8694  t.currentApprovalRole */\n      0x08\n      add\n        /* \"BatuFi.sol\":8673:8702  t.currentApprovalRole = \"HOD\" */\n      swap1\n      dup1\n      mload\n      swap1\n      0x20\n      add\n      swap1\n      tag_569\n      swap3\n      swap2\n      swap1\n      tag_310\n      jump\t// in\n    tag_569:\n      pop\n        /* \"BatuFi.sol\":8775:8797  string memory uptoRole */\n      0x00\n        /* \"BatuFi.sol\":8800:8828  getUptoApprovalRole(_amount) */\n      tag_570\n        /* \"BatuFi.sol\":8820:8827  _amount */\n      dup4\n        /* \"BatuFi.sol\":8800:8819  getUptoApprovalRole */\n      tag_571\n        /* \"BatuFi.sol\":8800:8828  getUptoApprovalRole(_amount) */\n      jump\t// in\n    tag_570:\n        /* \"BatuFi.sol\":8775:8828  string memory uptoRole = getUptoApprovalRole(_amount) */\n      swap1\n      pop\n        /* \"BatuFi.sol\":8860:8868  uptoRole */\n      dup1\n        /* \"BatuFi.sol\":8839:8840  t */\n      dup3\n        /* \"BatuFi.sol\":8839:8857  t.uptoApprovalRole */\n      0x09\n      add\n        /* \"BatuFi.sol\":8839:8868  t.uptoApprovalRole = uptoRole */\n      swap1\n      dup1\n      mload\n      swap1\n      0x20\n      add\n      swap1\n      tag_572\n      swap3\n      swap2\n      swap1\n      tag_310\n      jump\t// in\n    tag_572:\n      pop\n        /* \"BatuFi.sol\":8918:8936  Approval storage a */\n      0x00\n        /* \"BatuFi.sol\":8939:8950  approvalMap */\n      0x0e\n        /* \"BatuFi.sol\":8951:8956  _hash */\n      dup8\n        /* \"BatuFi.sol\":8939:8957  approvalMap[_hash] */\n      mload(0x40)\n      tag_573\n      swap2\n      swap1\n      tag_260\n      jump\t// in\n    tag_573:\n      swap1\n      dup2\n      mstore\n      0x20\n      add\n      mload(0x40)\n      dup1\n      swap2\n      sub\n      swap1\n      keccak256\n        /* \"BatuFi.sol\":8918:8957  Approval storage a = approvalMap[_hash] */\n      swap1\n      pop\n        /* \"BatuFi.sol\":8980:8985  _hash */\n      dup7\n        /* \"BatuFi.sol\":8968:8969  a */\n      dup2\n        /* \"BatuFi.sol\":8968:8977  a.docHash */\n      0x00\n      add\n        /* \"BatuFi.sol\":8968:8985  a.docHash = _hash */\n      swap1\n      dup1\n      mload\n      swap1\n      0x20\n      add\n      swap1\n      tag_574\n      swap3\n      swap2\n      swap1\n      tag_310\n      jump\t// in\n    tag_574:\n      pop\n        /* \"BatuFi.sol\":8996:9010  User storage u */\n      0x00\n        /* \"BatuFi.sol\":9013:9020  userMap */\n      0x0b\n        /* \"BatuFi.sol\":9013:9032  userMap[msg.sender] */\n      0x00\n        /* \"BatuFi.sol\":9021:9031  msg.sender */\n      caller\n        /* \"BatuFi.sol\":9013:9032  userMap[msg.sender] */\n      0xffffffffffffffffffffffffffffffffffffffff\n      and\n      0xffffffffffffffffffffffffffffffffffffffff\n      and\n      dup2\n      mstore\n      0x20\n      add\n      swap1\n      dup2\n      mstore\n      0x20\n      add\n      0x00\n      keccak256\n        /* \"BatuFi.sol\":8996:9032  User storage u = userMap[msg.sender] */\n      swap1\n      pop\n        /* \"BatuFi.sol\":9043:9044  a */\n      dup2\n        /* \"BatuFi.sol\":9043:9057  a.approvalList */\n      0x01\n      add\n        /* \"BatuFi.sol\":9063:9064  u */\n      dup2\n        /* \"BatuFi.sol\":9043:9065  a.approvalList.push(u) */\n      swap1\n      dup1\n      0x01\n      dup2\n      sload\n      add\n      dup1\n      dup3\n      sstore\n      dup1\n      swap2\n      pop\n      pop\n      0x01\n      swap1\n      sub\n      swap1\n      0x00\n      mstore\n      keccak256(0x00, 0x20)\n      swap1\n      0x07\n      mul\n      add\n      0x00\n      swap1\n      swap2\n      swap1\n      swap2\n      swap1\n      swap2\n      pop\n      0x00\n      dup3\n      add\n      dup2\n      0x00\n      add\n      swap1\n      dup1\n      sload\n      tag_576\n      swap1\n      tag_140\n      jump\t// in\n    tag_576:\n      tag_577\n      swap3\n      swap2\n      swap1\n      tag_290\n      jump\t// in\n    tag_577:\n      pop\n      0x01\n      dup3\n      add\n      dup2\n      0x01\n      add\n      swap1\n      dup1\n      sload\n      tag_578\n      swap1\n      tag_140\n      jump\t// in\n    tag_578:\n      tag_579\n      swap3\n      swap2\n      swap1\n      tag_290\n      jump\t// in\n    tag_579:\n      pop\n      0x02\n      dup3\n      add\n      0x00\n      swap1\n      sload\n      swap1\n      0x0100\n      exp\n      swap1\n      div\n      0xffffffffffffffffffffffffffffffffffffffff\n      and\n      dup2\n      0x02\n      add\n      exp(0x0100, 0x00)\n      dup2\n      sload\n      dup2\n      0xffffffffffffffffffffffffffffffffffffffff\n      mul\n      not\n      and\n      swap1\n      dup4\n      0xffffffffffffffffffffffffffffffffffffffff\n      and\n      mul\n      or\n      swap1\n      sstore\n      pop\n      0x03\n      dup3\n      add\n      sload\n      dup2\n      0x03\n      add\n      sstore\n      0x04\n      dup3\n      add\n      sload\n      dup2\n      0x04\n      add\n      sstore\n      0x05\n      dup3\n      add\n      sload\n      dup2\n      0x05\n      add\n      sstore\n      0x06\n      dup3\n      add\n      sload\n      dup2\n      0x06\n      add\n      sstore\n      pop\n      pop\n        /* \"BatuFi.sol\":9092:9107  block.timestamp */\n      timestamp\n        /* \"BatuFi.sol\":9078:9079  t */\n      dup5\n        /* \"BatuFi.sol\":9078:9089  t.timestamp */\n      0x0a\n      add\n        /* \"BatuFi.sol\":9078:9107  t.timestamp = block.timestamp */\n      dup2\n      swap1\n      sstore\n      pop\n        /* \"BatuFi.sol\":9159:9174  transactionList */\n      0x06\n        /* \"BatuFi.sol\":9180:9181  t */\n      dup5\n        /* \"BatuFi.sol\":9159:9182  transactionList.push(t) */\n      swap1\n      dup1\n      0x01\n      dup2\n      sload\n      add\n      dup1\n      dup3\n      sstore\n      dup1\n      swap2\n      pop\n      pop\n      0x01\n      swap1\n      sub\n      swap1\n      0x00\n      mstore\n      keccak256(0x00, 0x20)\n      swap1\n      0x0b\n      mul\n      add\n      0x00\n      swap1\n      swap2\n      swap1\n      swap2\n      swap1\n      swap2\n      pop\n      0x00\n      dup3\n      add\n      dup2\n      0x00\n      add\n      swap1\n      dup1\n      sload\n      tag_581\n      swap1\n      tag_140\n      jump\t// in\n    tag_581:\n      tag_582\n      swap3\n      swap2\n      swap1\n      tag_290\n      jump\t// in\n    tag_582:\n      pop\n      0x01\n      dup3\n      add\n      dup2\n      0x01\n      add\n      swap1\n      dup1\n      sload\n      tag_583\n      swap1\n      tag_140\n      jump\t// in\n    tag_583:\n      tag_584\n      swap3\n      swap2\n      swap1\n      tag_290\n      jump\t// in\n    tag_584:\n      pop\n      0x02\n      dup3\n      add\n      dup2\n      0x02\n      add\n      swap1\n      dup1\n      sload\n      tag_585\n      swap1\n      tag_140\n      jump\t// in\n    tag_585:\n      tag_586\n      swap3\n      swap2\n      swap1\n      tag_290\n      jump\t// in\n    tag_586:\n      pop\n      0x03\n      dup3\n      add\n      dup2\n      0x03\n      add\n      swap1\n      dup1\n      sload\n      tag_587\n      swap1\n      tag_140\n      jump\t// in\n    tag_587:\n      tag_588\n      swap3\n      swap2\n      swap1\n      tag_290\n      jump\t// in\n    tag_588:\n      pop\n      0x04\n      dup3\n      add\n      sload\n      dup2\n      0x04\n      add\n      sstore\n      0x05\n      dup3\n      add\n      dup2\n      0x05\n      add\n      swap1\n      dup1\n      sload\n      tag_589\n      swap1\n      tag_140\n      jump\t// in\n    tag_589:\n      tag_590\n      swap3\n      swap2\n      swap1\n      tag_290\n      jump\t// in\n    tag_590:\n      pop\n      0x06\n      dup3\n      add\n      0x00\n      swap1\n      sload\n      swap1\n      0x0100\n      exp\n      swap1\n      div\n      0xffffffffffffffffffffffffffffffffffffffff\n      and\n      dup2\n      0x06\n      add\n      exp(0x0100, 0x00)\n      dup2\n      sload\n      dup2\n      0xffffffffffffffffffffffffffffffffffffffff\n      mul\n      not\n      and\n      swap1\n      dup4\n      0xffffffffffffffffffffffffffffffffffffffff\n      and\n      mul\n      or\n      swap1\n      sstore\n      pop\n      0x07\n      dup3\n      add\n      sload\n      dup2\n      0x07\n      add\n      sstore\n      0x08\n      dup3\n      add\n      dup2\n      0x08\n      add\n      swap1\n      dup1\n      sload\n      tag_591\n      swap1\n      tag_140\n      jump\t// in\n    tag_591:\n      tag_592\n      swap3\n      swap2\n      swap1\n      tag_290\n      jump\t// in\n    tag_592:\n      pop\n      0x09\n      dup3\n      add\n      dup2\n      0x09\n      add\n      swap1\n      dup1\n      sload\n      tag_593\n      swap1\n      tag_140\n      jump\t// in\n    tag_593:\n      tag_594\n      swap3\n      swap2\n      swap1\n      tag_290\n      jump\t// in\n    tag_594:\n      pop\n      0x0a\n      dup3\n      add\n      sload\n      dup2\n      0x0a\n      add\n      sstore\n      pop\n      pop\n        /* \"BatuFi.sol\":9255:9277  Notification storage n */\n      0x00\n        /* \"BatuFi.sol\":9280:9295  notificationMap */\n      0x0d\n        /* \"BatuFi.sol\":9296:9301  _hash */\n      dup10\n        /* \"BatuFi.sol\":9280:9302  notificationMap[_hash] */\n      mload(0x40)\n      tag_595\n      swap2\n      swap1\n      tag_260\n      jump\t// in\n    tag_595:\n      swap1\n      dup2\n      mstore\n      0x20\n      add\n      mload(0x40)\n      dup1\n      swap2\n      sub\n      swap1\n      keccak256\n        /* \"BatuFi.sol\":9255:9302  Notification storage n = notificationMap[_hash] */\n      swap1\n      pop\n        /* \"BatuFi.sol\":9313:9344  n.title = \"Transaction Created\" */\n      mload(0x40)\n      dup1\n      0x40\n      add\n      0x40\n      mstore\n      dup1\n      0x13\n      dup2\n      mstore\n      0x20\n      add\n      0x5472616e73616374696f6e204372656174656400000000000000000000000000\n      dup2\n      mstore\n      pop\n        /* \"BatuFi.sol\":9313:9314  n */\n      dup2\n        /* \"BatuFi.sol\":9313:9320  n.title */\n      0x00\n      add\n        /* \"BatuFi.sol\":9313:9344  n.title = \"Transaction Created\" */\n      swap1\n      dup1\n      mload\n      swap1\n      0x20\n      add\n      swap1\n      tag_596\n      swap3\n      swap2\n      swap1\n      tag_310\n      jump\t// in\n    tag_596:\n      pop\n        /* \"BatuFi.sol\":9429:9434  _hash */\n      dup9\n        /* \"BatuFi.sol\":9374:9455  abi.encodePacked(\"Transaction with transaction hash \", _hash, \" \", \" is created\") */\n      add(0x20, mload(0x40))\n      tag_597\n      swap2\n      swap1\n      tag_598\n      jump\t// in\n    tag_597:\n      mload(0x40)\n      0x20\n      dup2\n      dup4\n      sub\n      sub\n      dup2\n      mstore\n      swap1\n      0x40\n      mstore\n        /* \"BatuFi.sol\":9355:9356  n */\n      dup2\n        /* \"BatuFi.sol\":9355:9364  n.message */\n      0x01\n      add\n        /* \"BatuFi.sol\":9355:9456  n.message = string(abi.encodePacked(\"Transaction with transaction hash \", _hash, \" \", \" is created\")) */\n      swap1\n      dup1\n      mload\n      swap1\n      0x20\n      add\n      swap1\n      tag_599\n      swap3\n      swap2\n      swap1\n      tag_310\n      jump\t// in\n    tag_599:\n      pop\n        /* \"BatuFi.sol\":9479:9484  _hash */\n      dup9\n        /* \"BatuFi.sol\":9467:9468  n */\n      dup2\n        /* \"BatuFi.sol\":9467:9476  n.docHash */\n      0x02\n      add\n        /* \"BatuFi.sol\":9467:9484  n.docHash = _hash */\n      swap1\n      dup1\n      mload\n      swap1\n      0x20\n      add\n      swap1\n      tag_600\n      swap3\n      swap2\n      swap1\n      tag_310\n      jump\t// in\n    tag_600:\n      pop\n        /* \"BatuFi.sol\":9495:9514  n.status = \"create\" */\n      mload(0x40)\n      dup1\n      0x40\n      add\n      0x40\n      mstore\n      dup1\n      0x06\n      dup2\n      mstore\n      0x20\n      add\n      0x6372656174650000000000000000000000000000000000000000000000000000\n      dup2\n      mstore\n      pop\n        /* \"BatuFi.sol\":9495:9496  n */\n      dup2\n        /* \"BatuFi.sol\":9495:9503  n.status */\n      0x03\n      add\n        /* \"BatuFi.sol\":9495:9514  n.status = \"create\" */\n      swap1\n      dup1\n      mload\n      swap1\n      0x20\n      add\n      swap1\n      tag_601\n      swap3\n      swap2\n      swap1\n      tag_310\n      jump\t// in\n    tag_601:\n      pop\n        /* \"BatuFi.sol\":9567:9583  notificationList */\n      0x07\n        /* \"BatuFi.sol\":9589:9590  n */\n      dup2\n        /* \"BatuFi.sol\":9567:9591  notificationList.push(n) */\n      swap1\n      dup1\n      0x01\n      dup2\n      sload\n      add\n      dup1\n      dup3\n      sstore\n      dup1\n      swap2\n      pop\n      pop\n      0x01\n      swap1\n      sub\n      swap1\n      0x00\n      mstore\n      keccak256(0x00, 0x20)\n      swap1\n      0x04\n      mul\n      add\n      0x00\n      swap1\n      swap2\n      swap1\n      swap2\n      swap1\n      swap2\n      pop\n      0x00\n      dup3\n      add\n      dup2\n      0x00\n      add\n      swap1\n      dup1\n      sload\n      tag_603\n      swap1\n      tag_140\n      jump\t// in\n    tag_603:\n      tag_604\n      swap3\n      swap2\n      swap1\n      tag_290\n      jump\t// in\n    tag_604:\n      pop\n      0x01\n      dup3\n      add\n      dup2\n      0x01\n      add\n      swap1\n      dup1\n      sload\n      tag_605\n      swap1\n      tag_140\n      jump\t// in\n    tag_605:\n      tag_606\n      swap3\n      swap2\n      swap1\n      tag_290\n      jump\t// in\n    tag_606:\n      pop\n      0x02\n      dup3\n      add\n      dup2\n      0x02\n      add\n      swap1\n      dup1\n      sload\n      tag_607\n      swap1\n      tag_140\n      jump\t// in\n    tag_607:\n      tag_608\n      swap3\n      swap2\n      swap1\n      tag_290\n      jump\t// in\n    tag_608:\n      pop\n      0x03\n      dup3\n      add\n      dup2\n      0x03\n      add\n      swap1\n      dup1\n      sload\n      tag_609\n      swap1\n      tag_140\n      jump\t// in\n    tag_609:\n      tag_610\n      swap3\n      swap2\n      swap1\n      tag_290\n      jump\t// in\n    tag_610:\n      pop\n      pop\n      pop\n        /* \"BatuFi.sol\":2119:2120  _ */\n      pop\n      pop\n      pop\n      pop\n      pop\n        /* \"BatuFi.sol\":8165:9599  function createTransaction(string memory _id, string memory _hash, string memory _url, string memory _comment, uint256 _amount) public memberOnly {\r... */\n      pop\n      pop\n      pop\n      pop\n      pop\n      jump\t// out\n        /* \"BatuFi.sol\":1250:1272  Role[] public roleList */\n    tag_133:\n      0x08\n      dup2\n      dup2\n      sload\n      dup2\n      lt\n      tag_611\n      jumpi\n      0x00\n      dup1\n      revert\n    tag_611:\n      swap1\n      0x00\n      mstore\n      keccak256(0x00, 0x20)\n      swap1\n      0x05\n      mul\n      add\n      0x00\n      swap2\n      pop\n      swap1\n      pop\n      dup1\n      0x00\n      add\n      sload\n      swap1\n      dup1\n      0x01\n      add\n      dup1\n      sload\n      tag_613\n      swap1\n      tag_140\n      jump\t// in\n    tag_613:\n      dup1\n      0x1f\n      add\n      0x20\n      dup1\n      swap2\n      div\n      mul\n      0x20\n      add\n      mload(0x40)\n      swap1\n      dup2\n      add\n      0x40\n      mstore\n      dup1\n      swap3\n      swap2\n      swap1\n      dup2\n      dup2\n      mstore\n      0x20\n      add\n      dup3\n      dup1\n      sload\n      tag_614\n      swap1\n      tag_140\n      jump\t// in\n    tag_614:\n      dup1\n      iszero\n      tag_615\n      jumpi\n      dup1\n      0x1f\n      lt\n      tag_616\n      jumpi\n      0x0100\n      dup1\n      dup4\n      sload\n      div\n      mul\n      dup4\n      mstore\n      swap2\n      0x20\n      add\n      swap2\n      jump(tag_615)\n    tag_616:\n      dup3\n      add\n      swap2\n      swap1\n      0x00\n      mstore\n      keccak256(0x00, 0x20)\n      swap1\n    tag_617:\n      dup2\n      sload\n      dup2\n      mstore\n      swap1\n      0x01\n      add\n      swap1\n      0x20\n      add\n      dup1\n      dup4\n      gt\n      tag_617\n      jumpi\n      dup3\n      swap1\n      sub\n      0x1f\n      and\n      dup3\n      add\n      swap2\n    tag_615:\n      pop\n      pop\n      pop\n      pop\n      pop\n      swap1\n      dup1\n      0x02\n      add\n      dup1\n      sload\n      tag_618\n      swap1\n      tag_140\n      jump\t// in\n    tag_618:\n      dup1\n      0x1f\n      add\n      0x20\n      dup1\n      swap2\n      div\n      mul\n      0x20\n      add\n      mload(0x40)\n      swap1\n      dup2\n      add\n      0x40\n      mstore\n      dup1\n      swap3\n      swap2\n      swap1\n      dup2\n      dup2\n      mstore\n      0x20\n      add\n      dup3\n      dup1\n      sload\n      tag_619\n      swap1\n      tag_140\n      jump\t// in\n    tag_619:\n      dup1\n      iszero\n      tag_620\n      jumpi\n      dup1\n      0x1f\n      lt\n      tag_621\n      jumpi\n      0x0100\n      dup1\n      dup4\n      sload\n      div\n      mul\n      dup4\n      mstore\n      swap2\n      0x20\n      add\n      swap2\n      jump(tag_620)\n    tag_621:\n      dup3\n      add\n      swap2\n      swap1\n      0x00\n      mstore\n      keccak256(0x00, 0x20)\n      swap1\n    tag_622:\n      dup2\n      sload\n      dup2\n      mstore\n      swap1\n      0x01\n      add\n      swap1\n      0x20\n      add\n      dup1\n      dup4\n      gt\n      tag_622\n      jumpi\n      dup3\n      swap1\n      sub\n      0x1f\n      and\n      dup3\n      add\n      swap2\n    tag_620:\n      pop\n      pop\n      pop\n      pop\n      pop\n      swap1\n      dup1\n      0x03\n      add\n      sload\n      swap1\n      dup1\n      0x04\n      add\n      sload\n      swap1\n      pop\n      dup6\n      jump\t// out\n        /* \"BatuFi.sol\":12550:12640  function listRoles() public view returns(Role[] memory) {\r... */\n    tag_136:\n        /* \"BatuFi.sol\":12591:12604  Role[] memory */\n      0x60\n        /* \"BatuFi.sol\":12624:12632  roleList */\n      0x08\n        /* \"BatuFi.sol\":12617:12632  return roleList */\n      dup1\n      sload\n      dup1\n      0x20\n      mul\n      0x20\n      add\n      mload(0x40)\n      swap1\n      dup2\n      add\n      0x40\n      mstore\n      dup1\n      swap3\n      swap2\n      swap1\n      dup2\n      dup2\n      mstore\n      0x20\n      add\n      0x00\n      swap1\n    tag_624:\n      dup3\n      dup3\n      lt\n      iszero\n      tag_625\n      jumpi\n      dup4\n      dup3\n      swap1\n      0x00\n      mstore\n      keccak256(0x00, 0x20)\n      swap1\n      0x05\n      mul\n      add\n      mload(0x40)\n      dup1\n      0xa0\n      add\n      0x40\n      mstore\n      swap1\n      dup2\n      0x00\n      dup3\n      add\n      sload\n      dup2\n      mstore\n      0x20\n      add\n      0x01\n      dup3\n      add\n      dup1\n      sload\n      tag_627\n      swap1\n      tag_140\n      jump\t// in\n    tag_627:\n      dup1\n      0x1f\n      add\n      0x20\n      dup1\n      swap2\n      div\n      mul\n      0x20\n      add\n      mload(0x40)\n      swap1\n      dup2\n      add\n      0x40\n      mstore\n      dup1\n      swap3\n      swap2\n      swap1\n      dup2\n      dup2\n      mstore\n      0x20\n      add\n      dup3\n      dup1\n      sload\n      tag_628\n      swap1\n      tag_140\n      jump\t// in\n    tag_628:\n      dup1\n      iszero\n      tag_629\n      jumpi\n      dup1\n      0x1f\n      lt\n      tag_630\n      jumpi\n      0x0100\n      dup1\n      dup4\n      sload\n      div\n      mul\n      dup4\n      mstore\n      swap2\n      0x20\n      add\n      swap2\n      jump(tag_629)\n    tag_630:\n      dup3\n      add\n      swap2\n      swap1\n      0x00\n      mstore\n      keccak256(0x00, 0x20)\n      swap1\n    tag_631:\n      dup2\n      sload\n      dup2\n      mstore\n      swap1\n      0x01\n      add\n      swap1\n      0x20\n      add\n      dup1\n      dup4\n      gt\n      tag_631\n      jumpi\n      dup3\n      swap1\n      sub\n      0x1f\n      and\n      dup3\n      add\n      swap2\n    tag_629:\n      pop\n      pop\n      pop\n      pop\n      pop\n      dup2\n      mstore\n      0x20\n      add\n      0x02\n      dup3\n      add\n      dup1\n      sload\n      tag_632\n      swap1\n      tag_140\n      jump\t// in\n    tag_632:\n      dup1\n      0x1f\n      add\n      0x20\n      dup1\n      swap2\n      div\n      mul\n      0x20\n      add\n      mload(0x40)\n      swap1\n      dup2\n      add\n      0x40\n      mstore\n      dup1\n      swap3\n      swap2\n      swap1\n      dup2\n      dup2\n      mstore\n      0x20\n      add\n      dup3\n      dup1\n      sload\n      tag_633\n      swap1\n      tag_140\n      jump\t// in\n    tag_633:\n      dup1\n      iszero\n      tag_634\n      jumpi\n      dup1\n      0x1f\n      lt\n      tag_635\n      jumpi\n      0x0100\n      dup1\n      dup4\n      sload\n      div\n      mul\n      dup4\n      mstore\n      swap2\n      0x20\n      add\n      swap2\n      jump(tag_634)\n    tag_635:\n      dup3\n      add\n      swap2\n      swap1\n      0x00\n      mstore\n      keccak256(0x00, 0x20)\n      swap1\n    tag_636:\n      dup2\n      sload\n      dup2\n      mstore\n      swap1\n      0x01\n      add\n      swap1\n      0x20\n      add\n      dup1\n      dup4\n      gt\n      tag_636\n      jumpi\n      dup3\n      swap1\n      sub\n      0x1f\n      and\n      dup3\n      add\n      swap2\n    tag_634:\n      pop\n      pop\n      pop\n      pop\n      pop\n      dup2\n      mstore\n      0x20\n      add\n      0x03\n      dup3\n      add\n      sload\n      dup2\n      mstore\n      0x20\n      add\n      0x04\n      dup3\n      add\n      sload\n      dup2\n      mstore\n      pop\n      pop\n      dup2\n      mstore\n      0x20\n      add\n      swap1\n      0x01\n      add\n      swap1\n      jump(tag_624)\n    tag_625:\n      pop\n      pop\n      pop\n      pop\n      swap1\n      pop\n        /* \"BatuFi.sol\":12550:12640  function listRoles() public view returns(Role[] memory) {\r... */\n      swap1\n      jump\t// out\n        /* \"BatuFi.sol\":2136:2319  function compareStrings(string memory a, string memory b) internal pure returns (bool) {\r... */\n    tag_307:\n        /* \"BatuFi.sol\":2217:2221  bool */\n      0x00\n        /* \"BatuFi.sol\":2306:2307  b */\n      dup2\n        /* \"BatuFi.sol\":2288:2309  abi.encodePacked((b)) */\n      add(0x20, mload(0x40))\n      tag_638\n      swap2\n      swap1\n      tag_260\n      jump\t// in\n    tag_638:\n      mload(0x40)\n      0x20\n      dup2\n      dup4\n      sub\n      sub\n      dup2\n      mstore\n      swap1\n      0x40\n      mstore\n        /* \"BatuFi.sol\":2278:2310  keccak256(abi.encodePacked((b))) */\n      dup1\n      mload\n      swap1\n      0x20\n      add\n      keccak256\n        /* \"BatuFi.sol\":2270:2271  a */\n      dup4\n        /* \"BatuFi.sol\":2252:2273  abi.encodePacked((a)) */\n      add(0x20, mload(0x40))\n      tag_639\n      swap2\n      swap1\n      tag_260\n      jump\t// in\n    tag_639:\n      mload(0x40)\n      0x20\n      dup2\n      dup4\n      sub\n      sub\n      dup2\n      mstore\n      swap1\n      0x40\n      mstore\n        /* \"BatuFi.sol\":2242:2274  keccak256(abi.encodePacked((a))) */\n      dup1\n      mload\n      swap1\n      0x20\n      add\n      keccak256\n        /* \"BatuFi.sol\":2242:2310  keccak256(abi.encodePacked((a))) == keccak256(abi.encodePacked((b))) */\n      eq\n        /* \"BatuFi.sol\":2234:2311  return (keccak256(abi.encodePacked((a))) == keccak256(abi.encodePacked((b)))) */\n      swap1\n      pop\n        /* \"BatuFi.sol\":2136:2319  function compareStrings(string memory a, string memory b) internal pure returns (bool) {\r... */\n      swap3\n      swap2\n      pop\n      pop\n      jump\t// out\n        /* \"BatuFi.sol\":6584:6978  function getNextRole(string memory _currentRole) internal pure returns (string memory) {\r... */\n    tag_335:\n        /* \"BatuFi.sol\":6656:6669  string memory */\n      0x60\n        /* \"BatuFi.sol\":6685:6720  compareStrings(_currentRole, \"HOD\") */\n      tag_641\n        /* \"BatuFi.sol\":6700:6712  _currentRole */\n      dup3\n        /* \"BatuFi.sol\":6685:6720  compareStrings(_currentRole, \"HOD\") */\n      mload(0x40)\n      dup1\n      0x40\n      add\n      0x40\n      mstore\n      dup1\n      0x03\n      dup2\n      mstore\n      0x20\n      add\n      0x484f440000000000000000000000000000000000000000000000000000000000\n      dup2\n      mstore\n      pop\n        /* \"BatuFi.sol\":6685:6699  compareStrings */\n      tag_307\n        /* \"BatuFi.sol\":6685:6720  compareStrings(_currentRole, \"HOD\") */\n      jump\t// in\n    tag_641:\n        /* \"BatuFi.sol\":6682:6971  if(compareStrings(_currentRole, \"HOD\")) {\r... */\n      iszero\n      tag_642\n      jumpi\n        /* \"BatuFi.sol\":6737:6748  return \"FO\" */\n      mload(0x40)\n      dup1\n      0x40\n      add\n      0x40\n      mstore\n      dup1\n      0x02\n      dup2\n      mstore\n      0x20\n      add\n      0x464f000000000000000000000000000000000000000000000000000000000000\n      dup2\n      mstore\n      pop\n      swap1\n      pop\n      jump(tag_640)\n        /* \"BatuFi.sol\":6682:6971  if(compareStrings(_currentRole, \"HOD\")) {\r... */\n    tag_642:\n        /* \"BatuFi.sol\":6769:6803  compareStrings(_currentRole, \"FO\") */\n      tag_644\n        /* \"BatuFi.sol\":6784:6796  _currentRole */\n      dup3\n        /* \"BatuFi.sol\":6769:6803  compareStrings(_currentRole, \"FO\") */\n      mload(0x40)\n      dup1\n      0x40\n      add\n      0x40\n      mstore\n      dup1\n      0x02\n      dup2\n      mstore\n      0x20\n      add\n      0x464f000000000000000000000000000000000000000000000000000000000000\n      dup2\n      mstore\n      pop\n        /* \"BatuFi.sol\":6769:6783  compareStrings */\n      tag_307\n        /* \"BatuFi.sol\":6769:6803  compareStrings(_currentRole, \"FO\") */\n      jump\t// in\n    tag_644:\n        /* \"BatuFi.sol\":6765:6971  if (compareStrings(_currentRole, \"FO\")) {\r... */\n      iszero\n      tag_645\n      jumpi\n        /* \"BatuFi.sol\":6820:6832  return \"REG\" */\n      mload(0x40)\n      dup1\n      0x40\n      add\n      0x40\n      mstore\n      dup1\n      0x03\n      dup2\n      mstore\n      0x20\n      add\n      0x5245470000000000000000000000000000000000000000000000000000000000\n      dup2\n      mstore\n      pop\n      swap1\n      pop\n      jump(tag_640)\n        /* \"BatuFi.sol\":6765:6971  if (compareStrings(_currentRole, \"FO\")) {\r... */\n    tag_645:\n        /* \"BatuFi.sol\":6853:6888  compareStrings(_currentRole, \"REG\") */\n      tag_647\n        /* \"BatuFi.sol\":6868:6880  _currentRole */\n      dup3\n        /* \"BatuFi.sol\":6853:6888  compareStrings(_currentRole, \"REG\") */\n      mload(0x40)\n      dup1\n      0x40\n      add\n      0x40\n      mstore\n      dup1\n      0x03\n      dup2\n      mstore\n      0x20\n      add\n      0x5245470000000000000000000000000000000000000000000000000000000000\n      dup2\n      mstore\n      pop\n        /* \"BatuFi.sol\":6853:6867  compareStrings */\n      tag_307\n        /* \"BatuFi.sol\":6853:6888  compareStrings(_currentRole, \"REG\") */\n      jump\t// in\n    tag_647:\n        /* \"BatuFi.sol\":6849:6971  if (compareStrings(_currentRole, \"REG\")) {\r... */\n      iszero\n      tag_648\n      jumpi\n        /* \"BatuFi.sol\":6905:6916  return \"VC\" */\n      mload(0x40)\n      dup1\n      0x40\n      add\n      0x40\n      mstore\n      dup1\n      0x02\n      dup2\n      mstore\n      0x20\n      add\n      0x5643000000000000000000000000000000000000000000000000000000000000\n      dup2\n      mstore\n      pop\n      swap1\n      pop\n      jump(tag_640)\n        /* \"BatuFi.sol\":6849:6971  if (compareStrings(_currentRole, \"REG\")) {\r... */\n    tag_648:\n        /* \"BatuFi.sol\":6948:6959  return \"CC\" */\n      mload(0x40)\n      dup1\n      0x40\n      add\n      0x40\n      mstore\n      dup1\n      0x02\n      dup2\n      mstore\n      0x20\n      add\n      0x4343000000000000000000000000000000000000000000000000000000000000\n      dup2\n      mstore\n      pop\n      swap1\n      pop\n        /* \"BatuFi.sol\":6584:6978  function getNextRole(string memory _currentRole) internal pure returns (string memory) {\r... */\n    tag_640:\n      swap2\n      swap1\n      pop\n      jump\t// out\n        /* \"BatuFi.sol\":6986:8153  function isTimeWindowOverForRole(string memory _role, uint256 _createdTime) internal view returns (bool) {\r... */\n    tag_483:\n        /* \"BatuFi.sol\":7085:7089  bool */\n      0x00\n        /* \"BatuFi.sol\":7102:7126  uint256 currentTimestamp */\n      dup1\n        /* \"BatuFi.sol\":7129:7144  block.timestamp */\n      timestamp\n        /* \"BatuFi.sol\":7102:7144  uint256 currentTimestamp = block.timestamp */\n      swap1\n      pop\n        /* \"BatuFi.sol\":7191:7219  compareStrings(_role, \"HOD\") */\n      tag_651\n        /* \"BatuFi.sol\":7206:7211  _role */\n      dup5\n        /* \"BatuFi.sol\":7191:7219  compareStrings(_role, \"HOD\") */\n      mload(0x40)\n      dup1\n      0x40\n      add\n      0x40\n      mstore\n      dup1\n      0x03\n      dup2\n      mstore\n      0x20\n      add\n      0x484f440000000000000000000000000000000000000000000000000000000000\n      dup2\n      mstore\n      pop\n        /* \"BatuFi.sol\":7191:7205  compareStrings */\n      tag_307\n        /* \"BatuFi.sol\":7191:7219  compareStrings(_role, \"HOD\") */\n      jump\t// in\n    tag_651:\n        /* \"BatuFi.sol\":7191:7264  compareStrings(_role, \"HOD\") && ((_createdTime + day) > currentTimestamp) */\n      dup1\n      iszero\n      tag_652\n      jumpi\n      pop\n        /* \"BatuFi.sol\":7247:7263  currentTimestamp */\n      dup1\n        /* \"BatuFi.sol\":7240:7243  day */\n      sload(0x05)\n        /* \"BatuFi.sol\":7225:7237  _createdTime */\n      dup5\n        /* \"BatuFi.sol\":7225:7243  _createdTime + day */\n      tag_653\n      swap2\n      swap1\n      tag_294\n      jump\t// in\n    tag_653:\n        /* \"BatuFi.sol\":7224:7263  (_createdTime + day) > currentTimestamp */\n      gt\n        /* \"BatuFi.sol\":7191:7264  compareStrings(_role, \"HOD\") && ((_createdTime + day) > currentTimestamp) */\n    tag_652:\n        /* \"BatuFi.sol\":7188:8146  if(compareStrings(_role, \"HOD\") && ((_createdTime + day) > currentTimestamp)) {\r... */\n      iszero\n      tag_654\n      jumpi\n        /* \"BatuFi.sol\":7347:7351  true */\n      0x01\n        /* \"BatuFi.sol\":7340:7351  return true */\n      swap2\n      pop\n      pop\n      jump(tag_650)\n        /* \"BatuFi.sol\":7188:8146  if(compareStrings(_role, \"HOD\") && ((_createdTime + day) > currentTimestamp)) {\r... */\n    tag_654:\n        /* \"BatuFi.sol\":7371:7398  compareStrings(_role, \"FO\") */\n      tag_656\n        /* \"BatuFi.sol\":7386:7391  _role */\n      dup5\n        /* \"BatuFi.sol\":7371:7398  compareStrings(_role, \"FO\") */\n      mload(0x40)\n      dup1\n      0x40\n      add\n      0x40\n      mstore\n      dup1\n      0x02\n      dup2\n      mstore\n      0x20\n      add\n      0x464f000000000000000000000000000000000000000000000000000000000000\n      dup2\n      mstore\n      pop\n        /* \"BatuFi.sol\":7371:7385  compareStrings */\n      tag_307\n        /* \"BatuFi.sol\":7371:7398  compareStrings(_role, \"FO\") */\n      jump\t// in\n    tag_656:\n        /* \"BatuFi.sol\":7371:7445  compareStrings(_role, \"FO\") && ((_createdTime + 3*day) > currentTimestamp) */\n      dup1\n      iszero\n      tag_657\n      jumpi\n      pop\n        /* \"BatuFi.sol\":7428:7444  currentTimestamp */\n      dup1\n        /* \"BatuFi.sol\":7421:7424  day */\n      sload(0x05)\n        /* \"BatuFi.sol\":7419:7420  3 */\n      0x03\n        /* \"BatuFi.sol\":7419:7424  3*day */\n      tag_658\n      swap2\n      swap1\n      tag_659\n      jump\t// in\n    tag_658:\n        /* \"BatuFi.sol\":7404:7416  _createdTime */\n      dup5\n        /* \"BatuFi.sol\":7404:7424  _createdTime + 3*day */\n      tag_660\n      swap2\n      swap1\n      tag_294\n      jump\t// in\n    tag_660:\n        /* \"BatuFi.sol\":7403:7444  (_createdTime + 3*day) > currentTimestamp */\n      gt\n        /* \"BatuFi.sol\":7371:7445  compareStrings(_role, \"FO\") && ((_createdTime + 3*day) > currentTimestamp) */\n    tag_657:\n        /* \"BatuFi.sol\":7368:8146  if(compareStrings(_role, \"FO\") && ((_createdTime + 3*day) > currentTimestamp)) {\r... */\n      iszero\n      tag_661\n      jumpi\n        /* \"BatuFi.sol\":7530:7534  true */\n      0x01\n        /* \"BatuFi.sol\":7523:7534  return true */\n      swap2\n      pop\n      pop\n      jump(tag_650)\n        /* \"BatuFi.sol\":7368:8146  if(compareStrings(_role, \"FO\") && ((_createdTime + 3*day) > currentTimestamp)) {\r... */\n    tag_661:\n        /* \"BatuFi.sol\":7554:7582  compareStrings(_role, \"REG\") */\n      tag_663\n        /* \"BatuFi.sol\":7569:7574  _role */\n      dup5\n        /* \"BatuFi.sol\":7554:7582  compareStrings(_role, \"REG\") */\n      mload(0x40)\n      dup1\n      0x40\n      add\n      0x40\n      mstore\n      dup1\n      0x03\n      dup2\n      mstore\n      0x20\n      add\n      0x5245470000000000000000000000000000000000000000000000000000000000\n      dup2\n      mstore\n      pop\n        /* \"BatuFi.sol\":7554:7568  compareStrings */\n      tag_307\n        /* \"BatuFi.sol\":7554:7582  compareStrings(_role, \"REG\") */\n      jump\t// in\n    tag_663:\n        /* \"BatuFi.sol\":7554:7629  compareStrings(_role, \"REG\") && ((_createdTime + 5*day) > currentTimestamp) */\n      dup1\n      iszero\n      tag_664\n      jumpi\n      pop\n        /* \"BatuFi.sol\":7612:7628  currentTimestamp */\n      dup1\n        /* \"BatuFi.sol\":7605:7608  day */\n      sload(0x05)\n        /* \"BatuFi.sol\":7603:7604  5 */\n      0x05\n        /* \"BatuFi.sol\":7603:7608  5*day */\n      tag_665\n      swap2\n      swap1\n      tag_659\n      jump\t// in\n    tag_665:\n        /* \"BatuFi.sol\":7588:7600  _createdTime */\n      dup5\n        /* \"BatuFi.sol\":7588:7608  _createdTime + 5*day */\n      tag_666\n      swap2\n      swap1\n      tag_294\n      jump\t// in\n    tag_666:\n        /* \"BatuFi.sol\":7587:7628  (_createdTime + 5*day) > currentTimestamp */\n      gt\n        /* \"BatuFi.sol\":7554:7629  compareStrings(_role, \"REG\") && ((_createdTime + 5*day) > currentTimestamp) */\n    tag_664:\n        /* \"BatuFi.sol\":7551:8146  if(compareStrings(_role, \"REG\") && ((_createdTime + 5*day) > currentTimestamp)) {\r... */\n      iszero\n      tag_667\n      jumpi\n        /* \"BatuFi.sol\":7712:7716  true */\n      0x01\n        /* \"BatuFi.sol\":7705:7716  return true */\n      swap2\n      pop\n      pop\n      jump(tag_650)\n        /* \"BatuFi.sol\":7551:8146  if(compareStrings(_role, \"REG\") && ((_createdTime + 5*day) > currentTimestamp)) {\r... */\n    tag_667:\n        /* \"BatuFi.sol\":7736:7763  compareStrings(_role, \"VC\") */\n      tag_669\n        /* \"BatuFi.sol\":7751:7756  _role */\n      dup5\n        /* \"BatuFi.sol\":7736:7763  compareStrings(_role, \"VC\") */\n      mload(0x40)\n      dup1\n      0x40\n      add\n      0x40\n      mstore\n      dup1\n      0x02\n      dup2\n      mstore\n      0x20\n      add\n      0x5643000000000000000000000000000000000000000000000000000000000000\n      dup2\n      mstore\n      pop\n        /* \"BatuFi.sol\":7736:7750  compareStrings */\n      tag_307\n        /* \"BatuFi.sol\":7736:7763  compareStrings(_role, \"VC\") */\n      jump\t// in\n    tag_669:\n        /* \"BatuFi.sol\":7736:7810  compareStrings(_role, \"VC\") && ((_createdTime + 7*day) > currentTimestamp) */\n      dup1\n      iszero\n      tag_670\n      jumpi\n      pop\n        /* \"BatuFi.sol\":7793:7809  currentTimestamp */\n      dup1\n        /* \"BatuFi.sol\":7786:7789  day */\n      sload(0x05)\n        /* \"BatuFi.sol\":7784:7785  7 */\n      0x07\n        /* \"BatuFi.sol\":7784:7789  7*day */\n      tag_671\n      swap2\n      swap1\n      tag_659\n      jump\t// in\n    tag_671:\n        /* \"BatuFi.sol\":7769:7781  _createdTime */\n      dup5\n        /* \"BatuFi.sol\":7769:7789  _createdTime + 7*day */\n      tag_672\n      swap2\n      swap1\n      tag_294\n      jump\t// in\n    tag_672:\n        /* \"BatuFi.sol\":7768:7809  (_createdTime + 7*day) > currentTimestamp */\n      gt\n        /* \"BatuFi.sol\":7736:7810  compareStrings(_role, \"VC\") && ((_createdTime + 7*day) > currentTimestamp) */\n    tag_670:\n        /* \"BatuFi.sol\":7733:8146  if(compareStrings(_role, \"VC\") && ((_createdTime + 7*day) > currentTimestamp)) {\r... */\n      iszero\n      tag_673\n      jumpi\n        /* \"BatuFi.sol\":7893:7897  true */\n      0x01\n        /* \"BatuFi.sol\":7886:7897  return true */\n      swap2\n      pop\n      pop\n      jump(tag_650)\n        /* \"BatuFi.sol\":7733:8146  if(compareStrings(_role, \"VC\") && ((_createdTime + 7*day) > currentTimestamp)) {\r... */\n    tag_673:\n        /* \"BatuFi.sol\":7917:7944  compareStrings(_role, \"CC\") */\n      tag_675\n        /* \"BatuFi.sol\":7932:7937  _role */\n      dup5\n        /* \"BatuFi.sol\":7917:7944  compareStrings(_role, \"CC\") */\n      mload(0x40)\n      dup1\n      0x40\n      add\n      0x40\n      mstore\n      dup1\n      0x02\n      dup2\n      mstore\n      0x20\n      add\n      0x4343000000000000000000000000000000000000000000000000000000000000\n      dup2\n      mstore\n      pop\n        /* \"BatuFi.sol\":7917:7931  compareStrings */\n      tag_307\n        /* \"BatuFi.sol\":7917:7944  compareStrings(_role, \"CC\") */\n      jump\t// in\n    tag_675:\n        /* \"BatuFi.sol\":7917:7992  compareStrings(_role, \"CC\") && ((_createdTime + 10*day) > currentTimestamp) */\n      dup1\n      iszero\n      tag_676\n      jumpi\n      pop\n        /* \"BatuFi.sol\":7975:7991  currentTimestamp */\n      dup1\n        /* \"BatuFi.sol\":7968:7971  day */\n      sload(0x05)\n        /* \"BatuFi.sol\":7965:7967  10 */\n      0x0a\n        /* \"BatuFi.sol\":7965:7971  10*day */\n      tag_677\n      swap2\n      swap1\n      tag_659\n      jump\t// in\n    tag_677:\n        /* \"BatuFi.sol\":7950:7962  _createdTime */\n      dup5\n        /* \"BatuFi.sol\":7950:7971  _createdTime + 10*day */\n      tag_678\n      swap2\n      swap1\n      tag_294\n      jump\t// in\n    tag_678:\n        /* \"BatuFi.sol\":7949:7991  (_createdTime + 10*day) > currentTimestamp */\n      gt\n        /* \"BatuFi.sol\":7917:7992  compareStrings(_role, \"CC\") && ((_createdTime + 10*day) > currentTimestamp) */\n    tag_676:\n        /* \"BatuFi.sol\":7914:8146  if(compareStrings(_role, \"CC\") && ((_createdTime + 10*day) > currentTimestamp)) {\r... */\n      iszero\n      tag_679\n      jumpi\n        /* \"BatuFi.sol\":8076:8080  true */\n      0x01\n        /* \"BatuFi.sol\":8069:8080  return true */\n      swap2\n      pop\n      pop\n      jump(tag_650)\n        /* \"BatuFi.sol\":7914:8146  if(compareStrings(_role, \"CC\") && ((_createdTime + 10*day) > currentTimestamp)) {\r... */\n    tag_679:\n        /* \"BatuFi.sol\":8129:8134  false */\n      0x00\n        /* \"BatuFi.sol\":8122:8134  return false */\n      swap2\n      pop\n      pop\n        /* \"BatuFi.sol\":6986:8153  function isTimeWindowOverForRole(string memory _role, uint256 _createdTime) internal view returns (bool) {\r... */\n    tag_650:\n      swap3\n      swap2\n      pop\n      pop\n      jump\t// out\n        /* \"BatuFi.sol\":5976:6572  function getUptoApprovalRole(uint256 _amount) internal pure returns(string memory) {\r... */\n    tag_571:\n        /* \"BatuFi.sol\":6044:6057  string memory */\n      0x60\n        /* \"BatuFi.sol\":6084:6088  5000 */\n      0x1388\n        /* \"BatuFi.sol\":6073:6080  _amount */\n      dup3\n        /* \"BatuFi.sol\":6073:6088  _amount <= 5000 */\n      gt\n        /* \"BatuFi.sol\":6070:6565  if(_amount <= 5000 ) {\r... */\n      tag_682\n      jumpi\n        /* \"BatuFi.sol\":6134:6146  return \"HOD\" */\n      mload(0x40)\n      dup1\n      0x40\n      add\n      0x40\n      mstore\n      dup1\n      0x03\n      dup2\n      mstore\n      0x20\n      add\n      0x484f440000000000000000000000000000000000000000000000000000000000\n      dup2\n      mstore\n      pop\n      swap1\n      pop\n      jump(tag_681)\n        /* \"BatuFi.sol\":6070:6565  if(_amount <= 5000 ) {\r... */\n    tag_682:\n        /* \"BatuFi.sol\":6177:6181  5000 */\n      0x1388\n        /* \"BatuFi.sol\":6167:6174  _amount */\n      dup3\n        /* \"BatuFi.sol\":6167:6181  _amount > 5000 */\n      gt\n        /* \"BatuFi.sol\":6167:6201  _amount > 5000 && _amount <= 10000 */\n      dup1\n      iszero\n      tag_684\n      jumpi\n      pop\n        /* \"BatuFi.sol\":6196:6201  10000 */\n      0x2710\n        /* \"BatuFi.sol\":6185:6192  _amount */\n      dup3\n        /* \"BatuFi.sol\":6185:6201  _amount <= 10000 */\n      gt\n      iszero\n        /* \"BatuFi.sol\":6167:6201  _amount > 5000 && _amount <= 10000 */\n    tag_684:\n        /* \"BatuFi.sol\":6163:6565  if (_amount > 5000 && _amount <= 10000 ) {\r... */\n      iszero\n      tag_685\n      jumpi\n        /* \"BatuFi.sol\":6247:6258  return \"FO\" */\n      mload(0x40)\n      dup1\n      0x40\n      add\n      0x40\n      mstore\n      dup1\n      0x02\n      dup2\n      mstore\n      0x20\n      add\n      0x464f000000000000000000000000000000000000000000000000000000000000\n      dup2\n      mstore\n      pop\n      swap1\n      pop\n      jump(tag_681)\n        /* \"BatuFi.sol\":6163:6565  if (_amount > 5000 && _amount <= 10000 ) {\r... */\n    tag_685:\n        /* \"BatuFi.sol\":6289:6294  10000 */\n      0x2710\n        /* \"BatuFi.sol\":6279:6286  _amount */\n      dup3\n        /* \"BatuFi.sol\":6279:6294  _amount > 10000 */\n      gt\n        /* \"BatuFi.sol\":6279:6314  _amount > 10000 && _amount <= 75000 */\n      dup1\n      iszero\n      tag_687\n      jumpi\n      pop\n        /* \"BatuFi.sol\":6309:6314  75000 */\n      0x0124f8\n        /* \"BatuFi.sol\":6298:6305  _amount */\n      dup3\n        /* \"BatuFi.sol\":6298:6314  _amount <= 75000 */\n      gt\n      iszero\n        /* \"BatuFi.sol\":6279:6314  _amount > 10000 && _amount <= 75000 */\n    tag_687:\n        /* \"BatuFi.sol\":6275:6565  if (_amount > 10000 && _amount <= 75000) {\r... */\n      iszero\n      tag_688\n      jumpi\n        /* \"BatuFi.sol\":6359:6371  return \"REG\" */\n      mload(0x40)\n      dup1\n      0x40\n      add\n      0x40\n      mstore\n      dup1\n      0x03\n      dup2\n      mstore\n      0x20\n      add\n      0x5245470000000000000000000000000000000000000000000000000000000000\n      dup2\n      mstore\n      pop\n      swap1\n      pop\n      jump(tag_681)\n        /* \"BatuFi.sol\":6275:6565  if (_amount > 10000 && _amount <= 75000) {\r... */\n    tag_688:\n        /* \"BatuFi.sol\":6402:6407  75000 */\n      0x0124f8\n        /* \"BatuFi.sol\":6392:6399  _amount */\n      dup3\n        /* \"BatuFi.sol\":6392:6407  _amount > 75000 */\n      gt\n        /* \"BatuFi.sol\":6392:6428  _amount > 75000 && _amount <= 300000 */\n      dup1\n      iszero\n      tag_690\n      jumpi\n      pop\n        /* \"BatuFi.sol\":6422:6428  300000 */\n      0x0493e0\n        /* \"BatuFi.sol\":6411:6418  _amount */\n      dup3\n        /* \"BatuFi.sol\":6411:6428  _amount <= 300000 */\n      gt\n      iszero\n        /* \"BatuFi.sol\":6392:6428  _amount > 75000 && _amount <= 300000 */\n    tag_690:\n        /* \"BatuFi.sol\":6388:6565  if (_amount > 75000 && _amount <= 300000) {\r... */\n      iszero\n      tag_691\n      jumpi\n        /* \"BatuFi.sol\":6472:6483  return \"VC\" */\n      mload(0x40)\n      dup1\n      0x40\n      add\n      0x40\n      mstore\n      dup1\n      0x02\n      dup2\n      mstore\n      0x20\n      add\n      0x5643000000000000000000000000000000000000000000000000000000000000\n      dup2\n      mstore\n      pop\n      swap1\n      pop\n      jump(tag_681)\n        /* \"BatuFi.sol\":6388:6565  if (_amount > 75000 && _amount <= 300000) {\r... */\n    tag_691:\n        /* \"BatuFi.sol\":6542:6553  return \"CC\" */\n      mload(0x40)\n      dup1\n      0x40\n      add\n      0x40\n      mstore\n      dup1\n      0x02\n      dup2\n      mstore\n      0x20\n      add\n      0x4343000000000000000000000000000000000000000000000000000000000000\n      dup2\n      mstore\n      pop\n      swap1\n      pop\n        /* \"BatuFi.sol\":5976:6572  function getUptoApprovalRole(uint256 _amount) internal pure returns(string memory) {\r... */\n    tag_681:\n      swap2\n      swap1\n      pop\n      jump\t// out\n    tag_257:\n      mload(0x40)\n      dup1\n      0x40\n      add\n      0x40\n      mstore\n      dup1\n      0x60\n      dup2\n      mstore\n      0x20\n      add\n      0x60\n      dup2\n      mstore\n      pop\n      swap1\n      jump\t// out\n    tag_290:\n      dup3\n      dup1\n      sload\n      tag_693\n      swap1\n      tag_140\n      jump\t// in\n    tag_693:\n      swap1\n      0x00\n      mstore\n      keccak256(0x00, 0x20)\n      swap1\n      0x1f\n      add\n      0x20\n      swap1\n      div\n      dup2\n      add\n      swap3\n      dup3\n      tag_695\n      jumpi\n      0x00\n      dup6\n      sstore\n      jump(tag_694)\n    tag_695:\n      dup3\n      0x1f\n      lt\n      tag_696\n      jumpi\n      dup1\n      sload\n      dup6\n      sstore\n      jump(tag_694)\n    tag_696:\n      dup3\n      dup1\n      add\n      0x01\n      add\n      dup6\n      sstore\n      dup3\n      iszero\n      tag_694\n      jumpi\n      0x00\n      mstore\n      keccak256(0x00, 0x20)\n      swap2\n      0x1f\n      add\n      0x20\n      swap1\n      div\n      dup3\n      add\n    tag_697:\n      dup3\n      dup2\n      gt\n      iszero\n      tag_698\n      jumpi\n      dup3\n      sload\n      dup3\n      sstore\n      swap2\n      0x01\n      add\n      swap2\n      swap1\n      0x01\n      add\n      swap1\n      jump(tag_697)\n    tag_698:\n    tag_694:\n      pop\n      swap1\n      pop\n      tag_699\n      swap2\n      swap1\n      tag_700\n      jump\t// in\n    tag_699:\n      pop\n      swap1\n      jump\t// out\n    tag_310:\n      dup3\n      dup1\n      sload\n      tag_701\n      swap1\n      tag_140\n      jump\t// in\n    tag_701:\n      swap1\n      0x00\n      mstore\n      keccak256(0x00, 0x20)\n      swap1\n      0x1f\n      add\n      0x20\n      swap1\n      div\n      dup2\n      add\n      swap3\n      dup3\n      tag_703\n      jumpi\n      0x00\n      dup6\n      sstore\n      jump(tag_702)\n    tag_703:\n      dup3\n      0x1f\n      lt\n      tag_704\n      jumpi\n      dup1\n      mload\n      not(0xff)\n      and\n      dup4\n      dup1\n      add\n      or\n      dup6\n      sstore\n      jump(tag_702)\n    tag_704:\n      dup3\n      dup1\n      add\n      0x01\n      add\n      dup6\n      sstore\n      dup3\n      iszero\n      tag_702\n      jumpi\n      swap2\n      dup3\n      add\n    tag_705:\n      dup3\n      dup2\n      gt\n      iszero\n      tag_706\n      jumpi\n      dup3\n      mload\n      dup3\n      sstore\n      swap2\n      0x20\n      add\n      swap2\n      swap1\n      0x01\n      add\n      swap1\n      jump(tag_705)\n    tag_706:\n    tag_702:\n      pop\n      swap1\n      pop\n      tag_707\n      swap2\n      swap1\n      tag_700\n      jump\t// in\n    tag_707:\n      pop\n      swap1\n      jump\t// out\n    tag_700:\n    tag_708:\n      dup1\n      dup3\n      gt\n      iszero\n      tag_709\n      jumpi\n      0x00\n      dup2\n      0x00\n      swap1\n      sstore\n      pop\n      0x01\n      add\n      jump(tag_708)\n    tag_709:\n      pop\n      swap1\n      jump\t// out\n        /* \"#utility.yul\":7:352   */\n    tag_711:\n        /* \"#utility.yul\":85:90   */\n      0x00\n        /* \"#utility.yul\":110:176   */\n      tag_713\n        /* \"#utility.yul\":126:175   */\n      tag_714\n        /* \"#utility.yul\":168:174   */\n      dup5\n        /* \"#utility.yul\":126:175   */\n      tag_715\n      jump\t// in\n    tag_714:\n        /* \"#utility.yul\":110:176   */\n      tag_716\n      jump\t// in\n    tag_713:\n        /* \"#utility.yul\":101:176   */\n      swap1\n      pop\n        /* \"#utility.yul\":199:205   */\n      dup3\n        /* \"#utility.yul\":192:197   */\n      dup2\n        /* \"#utility.yul\":185:206   */\n      mstore\n        /* \"#utility.yul\":237:241   */\n      0x20\n        /* \"#utility.yul\":230:235   */\n      dup2\n        /* \"#utility.yul\":226:242   */\n      add\n        /* \"#utility.yul\":275:278   */\n      dup5\n        /* \"#utility.yul\":266:272   */\n      dup5\n        /* \"#utility.yul\":261:264   */\n      dup5\n        /* \"#utility.yul\":257:273   */\n      add\n        /* \"#utility.yul\":254:279   */\n      gt\n        /* \"#utility.yul\":251:253   */\n      iszero\n      tag_717\n      jumpi\n        /* \"#utility.yul\":292:293   */\n      0x00\n        /* \"#utility.yul\":289:290   */\n      dup1\n        /* \"#utility.yul\":282:294   */\n      revert\n        /* \"#utility.yul\":251:253   */\n    tag_717:\n        /* \"#utility.yul\":305:346   */\n      tag_718\n        /* \"#utility.yul\":339:345   */\n      dup5\n        /* \"#utility.yul\":334:337   */\n      dup3\n        /* \"#utility.yul\":329:332   */\n      dup6\n        /* \"#utility.yul\":305:346   */\n      tag_719\n      jump\t// in\n    tag_718:\n        /* \"#utility.yul\":91:352   */\n      pop\n      swap4\n      swap3\n      pop\n      pop\n      pop\n      jump\t// out\n        /* \"#utility.yul\":358:497   */\n    tag_720:\n        /* \"#utility.yul\":404:409   */\n      0x00\n        /* \"#utility.yul\":442:448   */\n      dup2\n        /* \"#utility.yul\":429:449   */\n      calldataload\n        /* \"#utility.yul\":420:449   */\n      swap1\n      pop\n        /* \"#utility.yul\":458:491   */\n      tag_722\n        /* \"#utility.yul\":485:490   */\n      dup2\n        /* \"#utility.yul\":458:491   */\n      tag_723\n      jump\t// in\n    tag_722:\n        /* \"#utility.yul\":410:497   */\n      swap3\n      swap2\n      pop\n      pop\n      jump\t// out\n        /* \"#utility.yul\":517:790   */\n    tag_724:\n        /* \"#utility.yul\":573:578   */\n      0x00\n        /* \"#utility.yul\":622:625   */\n      dup3\n        /* \"#utility.yul\":615:619   */\n      0x1f\n        /* \"#utility.yul\":607:613   */\n      dup4\n        /* \"#utility.yul\":603:620   */\n      add\n        /* \"#utility.yul\":599:626   */\n      slt\n        /* \"#utility.yul\":589:591   */\n      tag_726\n      jumpi\n        /* \"#utility.yul\":640:641   */\n      0x00\n        /* \"#utility.yul\":637:638   */\n      dup1\n        /* \"#utility.yul\":630:642   */\n      revert\n        /* \"#utility.yul\":589:591   */\n    tag_726:\n        /* \"#utility.yul\":680:686   */\n      dup2\n        /* \"#utility.yul\":667:687   */\n      calldataload\n        /* \"#utility.yul\":705:784   */\n      tag_727\n        /* \"#utility.yul\":780:783   */\n      dup5\n        /* \"#utility.yul\":772:778   */\n      dup3\n        /* \"#utility.yul\":765:769   */\n      0x20\n        /* \"#utility.yul\":757:763   */\n      dup7\n        /* \"#utility.yul\":753:770   */\n      add\n        /* \"#utility.yul\":705:784   */\n      tag_711\n      jump\t// in\n    tag_727:\n        /* \"#utility.yul\":696:784   */\n      swap2\n      pop\n        /* \"#utility.yul\":579:790   */\n      pop\n      swap3\n      swap2\n      pop\n      pop\n      jump\t// out\n        /* \"#utility.yul\":796:935   */\n    tag_728:\n        /* \"#utility.yul\":842:847   */\n      0x00\n        /* \"#utility.yul\":880:886   */\n      dup2\n        /* \"#utility.yul\":867:887   */\n      calldataload\n        /* \"#utility.yul\":858:887   */\n      swap1\n      pop\n        /* \"#utility.yul\":896:929   */\n      tag_730\n        /* \"#utility.yul\":923:928   */\n      dup2\n        /* \"#utility.yul\":896:929   */\n      tag_731\n      jump\t// in\n    tag_730:\n        /* \"#utility.yul\":848:935   */\n      swap3\n      swap2\n      pop\n      pop\n      jump\t// out\n        /* \"#utility.yul\":941:1203   */\n    tag_59:\n        /* \"#utility.yul\":1000:1006   */\n      0x00\n        /* \"#utility.yul\":1049:1051   */\n      0x20\n        /* \"#utility.yul\":1037:1046   */\n      dup3\n        /* \"#utility.yul\":1028:1035   */\n      dup5\n        /* \"#utility.yul\":1024:1047   */\n      sub\n        /* \"#utility.yul\":1020:1052   */\n      slt\n        /* \"#utility.yul\":1017:1019   */\n      iszero\n      tag_733\n      jumpi\n        /* \"#utility.yul\":1065:1066   */\n      0x00\n        /* \"#utility.yul\":1062:1063   */\n      dup1\n        /* \"#utility.yul\":1055:1067   */\n      revert\n        /* \"#utility.yul\":1017:1019   */\n    tag_733:\n        /* \"#utility.yul\":1108:1109   */\n      0x00\n        /* \"#utility.yul\":1133:1186   */\n      tag_734\n        /* \"#utility.yul\":1178:1185   */\n      dup5\n        /* \"#utility.yul\":1169:1175   */\n      dup3\n        /* \"#utility.yul\":1158:1167   */\n      dup6\n        /* \"#utility.yul\":1154:1176   */\n      add\n        /* \"#utility.yul\":1133:1186   */\n      tag_720\n      jump\t// in\n    tag_734:\n        /* \"#utility.yul\":1123:1186   */\n      swap2\n      pop\n        /* \"#utility.yul\":1079:1196   */\n      pop\n        /* \"#utility.yul\":1007:1203   */\n      swap3\n      swap2\n      pop\n      pop\n      jump\t// out\n        /* \"#utility.yul\":1209:1584   */\n    tag_34:\n        /* \"#utility.yul\":1278:1284   */\n      0x00\n        /* \"#utility.yul\":1327:1329   */\n      0x20\n        /* \"#utility.yul\":1315:1324   */\n      dup3\n        /* \"#utility.yul\":1306:1313   */\n      dup5\n        /* \"#utility.yul\":1302:1325   */\n      sub\n        /* \"#utility.yul\":1298:1330   */\n      slt\n        /* \"#utility.yul\":1295:1297   */\n      iszero\n      tag_736\n      jumpi\n        /* \"#utility.yul\":1343:1344   */\n      0x00\n        /* \"#utility.yul\":1340:1341   */\n      dup1\n        /* \"#utility.yul\":1333:1345   */\n      revert\n        /* \"#utility.yul\":1295:1297   */\n    tag_736:\n        /* \"#utility.yul\":1414:1415   */\n      0x00\n        /* \"#utility.yul\":1403:1412   */\n      dup3\n        /* \"#utility.yul\":1399:1416   */\n      add\n        /* \"#utility.yul\":1386:1417   */\n      calldataload\n        /* \"#utility.yul\":1444:1462   */\n      0xffffffffffffffff\n        /* \"#utility.yul\":1436:1442   */\n      dup2\n        /* \"#utility.yul\":1433:1463   */\n      gt\n        /* \"#utility.yul\":1430:1432   */\n      iszero\n      tag_737\n      jumpi\n        /* \"#utility.yul\":1476:1477   */\n      0x00\n        /* \"#utility.yul\":1473:1474   */\n      dup1\n        /* \"#utility.yul\":1466:1478   */\n      revert\n        /* \"#utility.yul\":1430:1432   */\n    tag_737:\n        /* \"#utility.yul\":1504:1567   */\n      tag_738\n        /* \"#utility.yul\":1559:1566   */\n      dup5\n        /* \"#utility.yul\":1550:1556   */\n      dup3\n        /* \"#utility.yul\":1539:1548   */\n      dup6\n        /* \"#utility.yul\":1535:1557   */\n      add\n        /* \"#utility.yul\":1504:1567   */\n      tag_724\n      jump\t// in\n    tag_738:\n        /* \"#utility.yul\":1494:1567   */\n      swap2\n      pop\n        /* \"#utility.yul\":1357:1577   */\n      pop\n        /* \"#utility.yul\":1285:1584   */\n      swap3\n      swap2\n      pop\n      pop\n      jump\t// out\n        /* \"#utility.yul\":1590:2368   */\n    tag_110:\n        /* \"#utility.yul\":1687:1693   */\n      0x00\n        /* \"#utility.yul\":1695:1701   */\n      dup1\n        /* \"#utility.yul\":1703:1709   */\n      0x00\n        /* \"#utility.yul\":1752:1754   */\n      0x60\n        /* \"#utility.yul\":1740:1749   */\n      dup5\n        /* \"#utility.yul\":1731:1738   */\n      dup7\n        /* \"#utility.yul\":1727:1750   */\n      sub\n        /* \"#utility.yul\":1723:1755   */\n      slt\n        /* \"#utility.yul\":1720:1722   */\n      iszero\n      tag_740\n      jumpi\n        /* \"#utility.yul\":1768:1769   */\n      0x00\n        /* \"#utility.yul\":1765:1766   */\n      dup1\n        /* \"#utility.yul\":1758:1770   */\n      revert\n        /* \"#utility.yul\":1720:1722   */\n    tag_740:\n        /* \"#utility.yul\":1839:1840   */\n      0x00\n        /* \"#utility.yul\":1828:1837   */\n      dup5\n        /* \"#utility.yul\":1824:1841   */\n      add\n        /* \"#utility.yul\":1811:1842   */\n      calldataload\n        /* \"#utility.yul\":1869:1887   */\n      0xffffffffffffffff\n        /* \"#utility.yul\":1861:1867   */\n      dup2\n        /* \"#utility.yul\":1858:1888   */\n      gt\n        /* \"#utility.yul\":1855:1857   */\n      iszero\n      tag_741\n      jumpi\n        /* \"#utility.yul\":1901:1902   */\n      0x00\n        /* \"#utility.yul\":1898:1899   */\n      dup1\n        /* \"#utility.yul\":1891:1903   */\n      revert\n        /* \"#utility.yul\":1855:1857   */\n    tag_741:\n        /* \"#utility.yul\":1929:1992   */\n      tag_742\n        /* \"#utility.yul\":1984:1991   */\n      dup7\n        /* \"#utility.yul\":1975:1981   */\n      dup3\n        /* \"#utility.yul\":1964:1973   */\n      dup8\n        /* \"#utility.yul\":1960:1982   */\n      add\n        /* \"#utility.yul\":1929:1992   */\n      tag_724\n      jump\t// in\n    tag_742:\n        /* \"#utility.yul\":1919:1992   */\n      swap4\n      pop\n        /* \"#utility.yul\":1782:2002   */\n      pop\n        /* \"#utility.yul\":2041:2043   */\n      0x20\n        /* \"#utility.yul\":2067:2120   */\n      tag_743\n        /* \"#utility.yul\":2112:2119   */\n      dup7\n        /* \"#utility.yul\":2103:2109   */\n      dup3\n        /* \"#utility.yul\":2092:2101   */\n      dup8\n        /* \"#utility.yul\":2088:2110   */\n      add\n        /* \"#utility.yul\":2067:2120   */\n      tag_720\n      jump\t// in\n    tag_743:\n        /* \"#utility.yul\":2057:2120   */\n      swap3\n      pop\n        /* \"#utility.yul\":2012:2130   */\n      pop\n        /* \"#utility.yul\":2197:2199   */\n      0x40\n        /* \"#utility.yul\":2186:2195   */\n      dup5\n        /* \"#utility.yul\":2182:2200   */\n      add\n        /* \"#utility.yul\":2169:2201   */\n      calldataload\n        /* \"#utility.yul\":2228:2246   */\n      0xffffffffffffffff\n        /* \"#utility.yul\":2220:2226   */\n      dup2\n        /* \"#utility.yul\":2217:2247   */\n      gt\n        /* \"#utility.yul\":2214:2216   */\n      iszero\n      tag_744\n      jumpi\n        /* \"#utility.yul\":2260:2261   */\n      0x00\n        /* \"#utility.yul\":2257:2258   */\n      dup1\n        /* \"#utility.yul\":2250:2262   */\n      revert\n        /* \"#utility.yul\":2214:2216   */\n    tag_744:\n        /* \"#utility.yul\":2288:2351   */\n      tag_745\n        /* \"#utility.yul\":2343:2350   */\n      dup7\n        /* \"#utility.yul\":2334:2340   */\n      dup3\n        /* \"#utility.yul\":2323:2332   */\n      dup8\n        /* \"#utility.yul\":2319:2341   */\n      add\n        /* \"#utility.yul\":2288:2351   */\n      tag_724\n      jump\t// in\n    tag_745:\n        /* \"#utility.yul\":2278:2351   */\n      swap2\n      pop\n        /* \"#utility.yul\":2140:2361   */\n      pop\n        /* \"#utility.yul\":1710:2368   */\n      swap3\n      pop\n      swap3\n      pop\n      swap3\n      jump\t// out\n        /* \"#utility.yul\":2374:3670   */\n    tag_129:\n        /* \"#utility.yul\":2509:2515   */\n      0x00\n        /* \"#utility.yul\":2517:2523   */\n      dup1\n        /* \"#utility.yul\":2525:2531   */\n      0x00\n        /* \"#utility.yul\":2533:2539   */\n      dup1\n        /* \"#utility.yul\":2541:2547   */\n      0x00\n        /* \"#utility.yul\":2590:2593   */\n      0xa0\n        /* \"#utility.yul\":2578:2587   */\n      dup7\n        /* \"#utility.yul\":2569:2576   */\n      dup9\n        /* \"#utility.yul\":2565:2588   */\n      sub\n        /* \"#utility.yul\":2561:2594   */\n      slt\n        /* \"#utility.yul\":2558:2560   */\n      iszero\n      tag_747\n      jumpi\n        /* \"#utility.yul\":2607:2608   */\n      0x00\n        /* \"#utility.yul\":2604:2605   */\n      dup1\n        /* \"#utility.yul\":2597:2609   */\n      revert\n        /* \"#utility.yul\":2558:2560   */\n    tag_747:\n        /* \"#utility.yul\":2678:2679   */\n      0x00\n        /* \"#utility.yul\":2667:2676   */\n      dup7\n        /* \"#utility.yul\":2663:2680   */\n      add\n        /* \"#utility.yul\":2650:2681   */\n      calldataload\n        /* \"#utility.yul\":2708:2726   */\n      0xffffffffffffffff\n        /* \"#utility.yul\":2700:2706   */\n      dup2\n        /* \"#utility.yul\":2697:2727   */\n      gt\n        /* \"#utility.yul\":2694:2696   */\n      iszero\n      tag_748\n      jumpi\n        /* \"#utility.yul\":2740:2741   */\n      0x00\n        /* \"#utility.yul\":2737:2738   */\n      dup1\n        /* \"#utility.yul\":2730:2742   */\n      revert\n        /* \"#utility.yul\":2694:2696   */\n    tag_748:\n        /* \"#utility.yul\":2768:2831   */\n      tag_749\n        /* \"#utility.yul\":2823:2830   */\n      dup9\n        /* \"#utility.yul\":2814:2820   */\n      dup3\n        /* \"#utility.yul\":2803:2812   */\n      dup10\n        /* \"#utility.yul\":2799:2821   */\n      add\n        /* \"#utility.yul\":2768:2831   */\n      tag_724\n      jump\t// in\n    tag_749:\n        /* \"#utility.yul\":2758:2831   */\n      swap6\n      pop\n        /* \"#utility.yul\":2621:2841   */\n      pop\n        /* \"#utility.yul\":2908:2910   */\n      0x20\n        /* \"#utility.yul\":2897:2906   */\n      dup7\n        /* \"#utility.yul\":2893:2911   */\n      add\n        /* \"#utility.yul\":2880:2912   */\n      calldataload\n        /* \"#utility.yul\":2939:2957   */\n      0xffffffffffffffff\n        /* \"#utility.yul\":2931:2937   */\n      dup2\n        /* \"#utility.yul\":2928:2958   */\n      gt\n        /* \"#utility.yul\":2925:2927   */\n      iszero\n      tag_750\n      jumpi\n        /* \"#utility.yul\":2971:2972   */\n      0x00\n        /* \"#utility.yul\":2968:2969   */\n      dup1\n        /* \"#utility.yul\":2961:2973   */\n      revert\n        /* \"#utility.yul\":2925:2927   */\n    tag_750:\n        /* \"#utility.yul\":2999:3062   */\n      tag_751\n        /* \"#utility.yul\":3054:3061   */\n      dup9\n        /* \"#utility.yul\":3045:3051   */\n      dup3\n        /* \"#utility.yul\":3034:3043   */\n      dup10\n        /* \"#utility.yul\":3030:3052   */\n      add\n        /* \"#utility.yul\":2999:3062   */\n      tag_724\n      jump\t// in\n    tag_751:\n        /* \"#utility.yul\":2989:3062   */\n      swap5\n      pop\n        /* \"#utility.yul\":2851:3072   */\n      pop\n        /* \"#utility.yul\":3139:3141   */\n      0x40\n        /* \"#utility.yul\":3128:3137   */\n      dup7\n        /* \"#utility.yul\":3124:3142   */\n      add\n        /* \"#utility.yul\":3111:3143   */\n      calldataload\n        /* \"#utility.yul\":3170:3188   */\n      0xffffffffffffffff\n        /* \"#utility.yul\":3162:3168   */\n      dup2\n        /* \"#utility.yul\":3159:3189   */\n      gt\n        /* \"#utility.yul\":3156:3158   */\n      iszero\n      tag_752\n      jumpi\n        /* \"#utility.yul\":3202:3203   */\n      0x00\n        /* \"#utility.yul\":3199:3200   */\n      dup1\n        /* \"#utility.yul\":3192:3204   */\n      revert\n        /* \"#utility.yul\":3156:3158   */\n    tag_752:\n        /* \"#utility.yul\":3230:3293   */\n      tag_753\n        /* \"#utility.yul\":3285:3292   */\n      dup9\n        /* \"#utility.yul\":3276:3282   */\n      dup3\n        /* \"#utility.yul\":3265:3274   */\n      dup10\n        /* \"#utility.yul\":3261:3283   */\n      add\n        /* \"#utility.yul\":3230:3293   */\n      tag_724\n      jump\t// in\n    tag_753:\n        /* \"#utility.yul\":3220:3293   */\n      swap4\n      pop\n        /* \"#utility.yul\":3082:3303   */\n      pop\n        /* \"#utility.yul\":3370:3372   */\n      0x60\n        /* \"#utility.yul\":3359:3368   */\n      dup7\n        /* \"#utility.yul\":3355:3373   */\n      add\n        /* \"#utility.yul\":3342:3374   */\n      calldataload\n        /* \"#utility.yul\":3401:3419   */\n      0xffffffffffffffff\n        /* \"#utility.yul\":3393:3399   */\n      dup2\n        /* \"#utility.yul\":3390:3420   */\n      gt\n        /* \"#utility.yul\":3387:3389   */\n      iszero\n      tag_754\n      jumpi\n        /* \"#utility.yul\":3433:3434   */\n      0x00\n        /* \"#utility.yul\":3430:3431   */\n      dup1\n        /* \"#utility.yul\":3423:3435   */\n      revert\n        /* \"#utility.yul\":3387:3389   */\n    tag_754:\n        /* \"#utility.yul\":3461:3524   */\n      tag_755\n        /* \"#utility.yul\":3516:3523   */\n      dup9\n        /* \"#utility.yul\":3507:3513   */\n      dup3\n        /* \"#utility.yul\":3496:3505   */\n      dup10\n        /* \"#utility.yul\":3492:3514   */\n      add\n        /* \"#utility.yul\":3461:3524   */\n      tag_724\n      jump\t// in\n    tag_755:\n        /* \"#utility.yul\":3451:3524   */\n      swap3\n      pop\n        /* \"#utility.yul\":3313:3534   */\n      pop\n        /* \"#utility.yul\":3573:3576   */\n      0x80\n        /* \"#utility.yul\":3600:3653   */\n      tag_756\n        /* \"#utility.yul\":3645:3652   */\n      dup9\n        /* \"#utility.yul\":3636:3642   */\n      dup3\n        /* \"#utility.yul\":3625:3634   */\n      dup10\n        /* \"#utility.yul\":3621:3643   */\n      add\n        /* \"#utility.yul\":3600:3653   */\n      tag_728\n      jump\t// in\n    tag_756:\n        /* \"#utility.yul\":3590:3653   */\n      swap2\n      pop\n        /* \"#utility.yul\":3544:3663   */\n      pop\n        /* \"#utility.yul\":2548:3670   */\n      swap3\n      swap6\n      pop\n      swap3\n      swap6\n      swap1\n      swap4\n      pop\n      jump\t// out\n        /* \"#utility.yul\":3676:4600   */\n    tag_101:\n        /* \"#utility.yul\":3782:3788   */\n      0x00\n        /* \"#utility.yul\":3790:3796   */\n      dup1\n        /* \"#utility.yul\":3798:3804   */\n      0x00\n        /* \"#utility.yul\":3806:3812   */\n      dup1\n        /* \"#utility.yul\":3855:3858   */\n      0x80\n        /* \"#utility.yul\":3843:3852   */\n      dup6\n        /* \"#utility.yul\":3834:3841   */\n      dup8\n        /* \"#utility.yul\":3830:3853   */\n      sub\n        /* \"#utility.yul\":3826:3859   */\n      slt\n        /* \"#utility.yul\":3823:3825   */\n      iszero\n      tag_758\n      jumpi\n        /* \"#utility.yul\":3872:3873   */\n      0x00\n        /* \"#utility.yul\":3869:3870   */\n      dup1\n        /* \"#utility.yul\":3862:3874   */\n      revert\n        /* \"#utility.yul\":3823:3825   */\n    tag_758:\n        /* \"#utility.yul\":3943:3944   */\n      0x00\n        /* \"#utility.yul\":3932:3941   */\n      dup6\n        /* \"#utility.yul\":3928:3945   */\n      add\n        /* \"#utility.yul\":3915:3946   */\n      calldataload\n        /* \"#utility.yul\":3973:3991   */\n      0xffffffffffffffff\n        /* \"#utility.yul\":3965:3971   */\n      dup2\n        /* \"#utility.yul\":3962:3992   */\n      gt\n        /* \"#utility.yul\":3959:3961   */\n      iszero\n      tag_759\n      jumpi\n        /* \"#utility.yul\":4005:4006   */\n      0x00\n        /* \"#utility.yul\":4002:4003   */\n      dup1\n        /* \"#utility.yul\":3995:4007   */\n      revert\n        /* \"#utility.yul\":3959:3961   */\n    tag_759:\n        /* \"#utility.yul\":4033:4096   */\n      tag_760\n        /* \"#utility.yul\":4088:4095   */\n      dup8\n        /* \"#utility.yul\":4079:4085   */\n      dup3\n        /* \"#utility.yul\":4068:4077   */\n      dup9\n        /* \"#utility.yul\":4064:4086   */\n      add\n        /* \"#utility.yul\":4033:4096   */\n      tag_724\n      jump\t// in\n    tag_760:\n        /* \"#utility.yul\":4023:4096   */\n      swap5\n      pop\n        /* \"#utility.yul\":3886:4106   */\n      pop\n        /* \"#utility.yul\":4173:4175   */\n      0x20\n        /* \"#utility.yul\":4162:4171   */\n      dup6\n        /* \"#utility.yul\":4158:4176   */\n      add\n        /* \"#utility.yul\":4145:4177   */\n      calldataload\n        /* \"#utility.yul\":4204:4222   */\n      0xffffffffffffffff\n        /* \"#utility.yul\":4196:4202   */\n      dup2\n        /* \"#utility.yul\":4193:4223   */\n      gt\n        /* \"#utility.yul\":4190:4192   */\n      iszero\n      tag_761\n      jumpi\n        /* \"#utility.yul\":4236:4237   */\n      0x00\n        /* \"#utility.yul\":4233:4234   */\n      dup1\n        /* \"#utility.yul\":4226:4238   */\n      revert\n        /* \"#utility.yul\":4190:4192   */\n    tag_761:\n        /* \"#utility.yul\":4264:4327   */\n      tag_762\n        /* \"#utility.yul\":4319:4326   */\n      dup8\n        /* \"#utility.yul\":4310:4316   */\n      dup3\n        /* \"#utility.yul\":4299:4308   */\n      dup9\n        /* \"#utility.yul\":4295:4317   */\n      add\n        /* \"#utility.yul\":4264:4327   */\n      tag_724\n      jump\t// in\n    tag_762:\n        /* \"#utility.yul\":4254:4327   */\n      swap4\n      pop\n        /* \"#utility.yul\":4116:4337   */\n      pop\n        /* \"#utility.yul\":4376:4378   */\n      0x40\n        /* \"#utility.yul\":4402:4455   */\n      tag_763\n        /* \"#utility.yul\":4447:4454   */\n      dup8\n        /* \"#utility.yul\":4438:4444   */\n      dup3\n        /* \"#utility.yul\":4427:4436   */\n      dup9\n        /* \"#utility.yul\":4423:4445   */\n      add\n        /* \"#utility.yul\":4402:4455   */\n      tag_728\n      jump\t// in\n    tag_763:\n        /* \"#utility.yul\":4392:4455   */\n      swap3\n      pop\n        /* \"#utility.yul\":4347:4465   */\n      pop\n        /* \"#utility.yul\":4504:4506   */\n      0x60\n        /* \"#utility.yul\":4530:4583   */\n      tag_764\n        /* \"#utility.yul\":4575:4582   */\n      dup8\n        /* \"#utility.yul\":4566:4572   */\n      dup3\n        /* \"#utility.yul\":4555:4564   */\n      dup9\n        /* \"#utility.yul\":4551:4573   */\n      add\n        /* \"#utility.yul\":4530:4583   */\n      tag_728\n      jump\t// in\n    tag_764:\n        /* \"#utility.yul\":4520:4583   */\n      swap2\n      pop\n        /* \"#utility.yul\":4475:4593   */\n      pop\n        /* \"#utility.yul\":3813:4600   */\n      swap3\n      swap6\n      swap2\n      swap5\n      pop\n      swap3\n      pop\n      jump\t// out\n        /* \"#utility.yul\":4606:4868   */\n    tag_44:\n        /* \"#utility.yul\":4665:4671   */\n      0x00\n        /* \"#utility.yul\":4714:4716   */\n      0x20\n        /* \"#utility.yul\":4702:4711   */\n      dup3\n        /* \"#utility.yul\":4693:4700   */\n      dup5\n        /* \"#utility.yul\":4689:4712   */\n      sub\n        /* \"#utility.yul\":4685:4717   */\n      slt\n        /* \"#utility.yul\":4682:4684   */\n      iszero\n      tag_766\n      jumpi\n        /* \"#utility.yul\":4730:4731   */\n      0x00\n        /* \"#utility.yul\":4727:4728   */\n      dup1\n        /* \"#utility.yul\":4720:4732   */\n      revert\n        /* \"#utility.yul\":4682:4684   */\n    tag_766:\n        /* \"#utility.yul\":4773:4774   */\n      0x00\n        /* \"#utility.yul\":4798:4851   */\n      tag_767\n        /* \"#utility.yul\":4843:4850   */\n      dup5\n        /* \"#utility.yul\":4834:4840   */\n      dup3\n        /* \"#utility.yul\":4823:4832   */\n      dup6\n        /* \"#utility.yul\":4819:4841   */\n      add\n        /* \"#utility.yul\":4798:4851   */\n      tag_728\n      jump\t// in\n    tag_767:\n        /* \"#utility.yul\":4788:4851   */\n      swap2\n      pop\n        /* \"#utility.yul\":4744:4861   */\n      pop\n        /* \"#utility.yul\":4672:4868   */\n      swap3\n      swap2\n      pop\n      pop\n      jump\t// out\n        /* \"#utility.yul\":4874:5053   */\n    tag_768:\n        /* \"#utility.yul\":4943:4953   */\n      0x00\n        /* \"#utility.yul\":4964:5010   */\n      tag_770\n        /* \"#utility.yul\":5006:5009   */\n      dup4\n        /* \"#utility.yul\":4998:5004   */\n      dup4\n        /* \"#utility.yul\":4964:5010   */\n      tag_771\n      jump\t// in\n    tag_770:\n        /* \"#utility.yul\":5042:5046   */\n      0x20\n        /* \"#utility.yul\":5037:5040   */\n      dup4\n        /* \"#utility.yul\":5033:5047   */\n      add\n        /* \"#utility.yul\":5019:5047   */\n      swap1\n      pop\n        /* \"#utility.yul\":4954:5053   */\n      swap3\n      swap2\n      pop\n      pop\n      jump\t// out\n        /* \"#utility.yul\":5059:5327   */\n    tag_772:\n        /* \"#utility.yul\":5184:5194   */\n      0x00\n        /* \"#utility.yul\":5219:5321   */\n      tag_774\n        /* \"#utility.yul\":5317:5320   */\n      dup4\n        /* \"#utility.yul\":5309:5315   */\n      dup4\n        /* \"#utility.yul\":5219:5321   */\n      tag_775\n      jump\t// in\n    tag_774:\n        /* \"#utility.yul\":5205:5321   */\n      swap1\n      pop\n        /* \"#utility.yul\":5195:5327   */\n      swap3\n      swap2\n      pop\n      pop\n      jump\t// out\n        /* \"#utility.yul\":5333:5569   */\n    tag_776:\n        /* \"#utility.yul\":5442:5452   */\n      0x00\n        /* \"#utility.yul\":5477:5563   */\n      tag_778\n        /* \"#utility.yul\":5559:5562   */\n      dup4\n        /* \"#utility.yul\":5551:5557   */\n      dup4\n        /* \"#utility.yul\":5477:5563   */\n      tag_779\n      jump\t// in\n    tag_778:\n        /* \"#utility.yul\":5463:5563   */\n      swap1\n      pop\n        /* \"#utility.yul\":5453:5569   */\n      swap3\n      swap2\n      pop\n      pop\n      jump\t// out\n        /* \"#utility.yul\":5575:5839   */\n    tag_780:\n        /* \"#utility.yul\":5698:5708   */\n      0x00\n        /* \"#utility.yul\":5733:5833   */\n      tag_782\n        /* \"#utility.yul\":5829:5832   */\n      dup4\n        /* \"#utility.yul\":5821:5827   */\n      dup4\n        /* \"#utility.yul\":5733:5833   */\n      tag_783\n      jump\t// in\n    tag_782:\n        /* \"#utility.yul\":5719:5833   */\n      swap1\n      pop\n        /* \"#utility.yul\":5709:5839   */\n      swap3\n      swap2\n      pop\n      pop\n      jump\t// out\n        /* \"#utility.yul\":5845:6081   */\n    tag_784:\n        /* \"#utility.yul\":5954:5964   */\n      0x00\n        /* \"#utility.yul\":5989:6075   */\n      tag_786\n        /* \"#utility.yul\":6071:6074   */\n      dup4\n        /* \"#utility.yul\":6063:6069   */\n      dup4\n        /* \"#utility.yul\":5989:6075   */\n      tag_787\n      jump\t// in\n    tag_786:\n        /* \"#utility.yul\":5975:6075   */\n      swap1\n      pop\n        /* \"#utility.yul\":5965:6081   */\n      swap3\n      swap2\n      pop\n      pop\n      jump\t// out\n        /* \"#utility.yul\":6087:6195   */\n    tag_771:\n        /* \"#utility.yul\":6164:6188   */\n      tag_789\n        /* \"#utility.yul\":6182:6187   */\n      dup2\n        /* \"#utility.yul\":6164:6188   */\n      tag_790\n      jump\t// in\n    tag_789:\n        /* \"#utility.yul\":6159:6162   */\n      dup3\n        /* \"#utility.yul\":6152:6189   */\n      mstore\n        /* \"#utility.yul\":6142:6195   */\n      pop\n      pop\n      jump\t// out\n        /* \"#utility.yul\":6201:6319   */\n    tag_791:\n        /* \"#utility.yul\":6288:6312   */\n      tag_793\n        /* \"#utility.yul\":6306:6311   */\n      dup2\n        /* \"#utility.yul\":6288:6312   */\n      tag_790\n      jump\t// in\n    tag_793:\n        /* \"#utility.yul\":6283:6286   */\n      dup3\n        /* \"#utility.yul\":6276:6313   */\n      mstore\n        /* \"#utility.yul\":6266:6319   */\n      pop\n      pop\n      jump\t// out\n        /* \"#utility.yul\":6355:7087   */\n    tag_794:\n        /* \"#utility.yul\":6474:6477   */\n      0x00\n        /* \"#utility.yul\":6503:6557   */\n      tag_796\n        /* \"#utility.yul\":6551:6556   */\n      dup3\n        /* \"#utility.yul\":6503:6557   */\n      tag_797\n      jump\t// in\n    tag_796:\n        /* \"#utility.yul\":6573:6659   */\n      tag_798\n        /* \"#utility.yul\":6652:6658   */\n      dup2\n        /* \"#utility.yul\":6647:6650   */\n      dup6\n        /* \"#utility.yul\":6573:6659   */\n      tag_799\n      jump\t// in\n    tag_798:\n        /* \"#utility.yul\":6566:6659   */\n      swap4\n      pop\n        /* \"#utility.yul\":6683:6739   */\n      tag_800\n        /* \"#utility.yul\":6733:6738   */\n      dup4\n        /* \"#utility.yul\":6683:6739   */\n      tag_801\n      jump\t// in\n    tag_800:\n        /* \"#utility.yul\":6762:6769   */\n      dup1\n        /* \"#utility.yul\":6793:6794   */\n      0x00\n        /* \"#utility.yul\":6778:7062   */\n    tag_802:\n        /* \"#utility.yul\":6803:6809   */\n      dup4\n        /* \"#utility.yul\":6800:6801   */\n      dup2\n        /* \"#utility.yul\":6797:6810   */\n      lt\n        /* \"#utility.yul\":6778:7062   */\n      iszero\n      tag_804\n      jumpi\n        /* \"#utility.yul\":6879:6885   */\n      dup2\n        /* \"#utility.yul\":6873:6886   */\n      mload\n        /* \"#utility.yul\":6906:6969   */\n      tag_805\n        /* \"#utility.yul\":6965:6968   */\n      dup9\n        /* \"#utility.yul\":6950:6963   */\n      dup3\n        /* \"#utility.yul\":6906:6969   */\n      tag_768\n      jump\t// in\n    tag_805:\n        /* \"#utility.yul\":6899:6969   */\n      swap8\n      pop\n        /* \"#utility.yul\":6992:7052   */\n      tag_806\n        /* \"#utility.yul\":7045:7051   */\n      dup4\n        /* \"#utility.yul\":6992:7052   */\n      tag_807\n      jump\t// in\n    tag_806:\n        /* \"#utility.yul\":6982:7052   */\n      swap3\n      pop\n        /* \"#utility.yul\":6838:7062   */\n      pop\n        /* \"#utility.yul\":6825:6826   */\n      0x01\n        /* \"#utility.yul\":6822:6823   */\n      dup2\n        /* \"#utility.yul\":6818:6827   */\n      add\n        /* \"#utility.yul\":6813:6827   */\n      swap1\n      pop\n        /* \"#utility.yul\":6778:7062   */\n      jump(tag_802)\n    tag_804:\n        /* \"#utility.yul\":6782:6796   */\n      pop\n        /* \"#utility.yul\":7078:7081   */\n      dup6\n        /* \"#utility.yul\":7071:7081   */\n      swap4\n      pop\n        /* \"#utility.yul\":6479:7087   */\n      pop\n      pop\n      pop\n      swap3\n      swap2\n      pop\n      pop\n      jump\t// out\n        /* \"#utility.yul\":7161:8296   */\n    tag_808:\n        /* \"#utility.yul\":7336:7339   */\n      0x00\n        /* \"#utility.yul\":7365:7447   */\n      tag_810\n        /* \"#utility.yul\":7441:7446   */\n      dup3\n        /* \"#utility.yul\":7365:7447   */\n      tag_811\n      jump\t// in\n    tag_810:\n        /* \"#utility.yul\":7463:7577   */\n      tag_812\n        /* \"#utility.yul\":7570:7576   */\n      dup2\n        /* \"#utility.yul\":7565:7568   */\n      dup6\n        /* \"#utility.yul\":7463:7577   */\n      tag_813\n      jump\t// in\n    tag_812:\n        /* \"#utility.yul\":7456:7577   */\n      swap4\n      pop\n        /* \"#utility.yul\":7603:7606   */\n      dup4\n        /* \"#utility.yul\":7648:7652   */\n      0x20\n        /* \"#utility.yul\":7640:7646   */\n      dup3\n        /* \"#utility.yul\":7636:7653   */\n      mul\n        /* \"#utility.yul\":7631:7634   */\n      dup6\n        /* \"#utility.yul\":7627:7654   */\n      add\n        /* \"#utility.yul\":7678:7762   */\n      tag_814\n        /* \"#utility.yul\":7756:7761   */\n      dup6\n        /* \"#utility.yul\":7678:7762   */\n      tag_815\n      jump\t// in\n    tag_814:\n        /* \"#utility.yul\":7785:7792   */\n      dup1\n        /* \"#utility.yul\":7816:7817   */\n      0x00\n        /* \"#utility.yul\":7801:8251   */\n    tag_816:\n        /* \"#utility.yul\":7826:7832   */\n      dup6\n        /* \"#utility.yul\":7823:7824   */\n      dup2\n        /* \"#utility.yul\":7820:7833   */\n      lt\n        /* \"#utility.yul\":7801:8251   */\n      iszero\n      tag_818\n      jumpi\n        /* \"#utility.yul\":7897:7906   */\n      dup5\n        /* \"#utility.yul\":7891:7895   */\n      dup5\n        /* \"#utility.yul\":7887:7907   */\n      sub\n        /* \"#utility.yul\":7882:7885   */\n      dup10\n        /* \"#utility.yul\":7875:7908   */\n      mstore\n        /* \"#utility.yul\":7948:7954   */\n      dup2\n        /* \"#utility.yul\":7942:7955   */\n      mload\n        /* \"#utility.yul\":7976:8096   */\n      tag_819\n        /* \"#utility.yul\":8091:8095   */\n      dup6\n        /* \"#utility.yul\":8076:8089   */\n      dup3\n        /* \"#utility.yul\":7976:8096   */\n      tag_772\n      jump\t// in\n    tag_819:\n        /* \"#utility.yul\":7968:8096   */\n      swap5\n      pop\n        /* \"#utility.yul\":8119:8207   */\n      tag_820\n        /* \"#utility.yul\":8200:8206   */\n      dup4\n        /* \"#utility.yul\":8119:8207   */\n      tag_821\n      jump\t// in\n    tag_820:\n        /* \"#utility.yul\":8109:8207   */\n      swap3\n      pop\n        /* \"#utility.yul\":8236:8240   */\n      0x20\n        /* \"#utility.yul\":8231:8234   */\n      dup11\n        /* \"#utility.yul\":8227:8241   */\n      add\n        /* \"#utility.yul\":8220:8241   */\n      swap10\n      pop\n        /* \"#utility.yul\":7861:8251   */\n      pop\n        /* \"#utility.yul\":7848:7849   */\n      0x01\n        /* \"#utility.yul\":7845:7846   */\n      dup2\n        /* \"#utility.yul\":7841:7850   */\n      add\n        /* \"#utility.yul\":7836:7850   */\n      swap1\n      pop\n        /* \"#utility.yul\":7801:8251   */\n      jump(tag_816)\n    tag_818:\n        /* \"#utility.yul\":7805:7819   */\n      pop\n        /* \"#utility.yul\":8267:8271   */\n      dup3\n        /* \"#utility.yul\":8260:8271   */\n      swap8\n      pop\n        /* \"#utility.yul\":8287:8290   */\n      dup8\n        /* \"#utility.yul\":8280:8290   */\n      swap6\n      pop\n        /* \"#utility.yul\":7341:8296   */\n      pop\n      pop\n      pop\n      pop\n      pop\n      swap3\n      swap2\n      pop\n      pop\n      jump\t// out\n        /* \"#utility.yul\":8354:9425   */\n    tag_822:\n        /* \"#utility.yul\":8513:8516   */\n      0x00\n        /* \"#utility.yul\":8542:8616   */\n      tag_824\n        /* \"#utility.yul\":8610:8615   */\n      dup3\n        /* \"#utility.yul\":8542:8616   */\n      tag_825\n      jump\t// in\n    tag_824:\n        /* \"#utility.yul\":8632:8738   */\n      tag_826\n        /* \"#utility.yul\":8731:8737   */\n      dup2\n        /* \"#utility.yul\":8726:8729   */\n      dup6\n        /* \"#utility.yul\":8632:8738   */\n      tag_827\n      jump\t// in\n    tag_826:\n        /* \"#utility.yul\":8625:8738   */\n      swap4\n      pop\n        /* \"#utility.yul\":8764:8767   */\n      dup4\n        /* \"#utility.yul\":8809:8813   */\n      0x20\n        /* \"#utility.yul\":8801:8807   */\n      dup3\n        /* \"#utility.yul\":8797:8814   */\n      mul\n        /* \"#utility.yul\":8792:8795   */\n      dup6\n        /* \"#utility.yul\":8788:8815   */\n      add\n        /* \"#utility.yul\":8839:8915   */\n      tag_828\n        /* \"#utility.yul\":8909:8914   */\n      dup6\n        /* \"#utility.yul\":8839:8915   */\n      tag_829\n      jump\t// in\n    tag_828:\n        /* \"#utility.yul\":8938:8945   */\n      dup1\n        /* \"#utility.yul\":8969:8970   */\n      0x00\n        /* \"#utility.yul\":8954:9380   */\n    tag_830:\n        /* \"#utility.yul\":8979:8985   */\n      dup6\n        /* \"#utility.yul\":8976:8977   */\n      dup2\n        /* \"#utility.yul\":8973:8986   */\n      lt\n        /* \"#utility.yul\":8954:9380   */\n      iszero\n      tag_832\n      jumpi\n        /* \"#utility.yul\":9050:9059   */\n      dup5\n        /* \"#utility.yul\":9044:9048   */\n      dup5\n        /* \"#utility.yul\":9040:9060   */\n      sub\n        /* \"#utility.yul\":9035:9038   */\n      dup10\n        /* \"#utility.yul\":9028:9061   */\n      mstore\n        /* \"#utility.yul\":9101:9107   */\n      dup2\n        /* \"#utility.yul\":9095:9108   */\n      mload\n        /* \"#utility.yul\":9129:9233   */\n      tag_833\n        /* \"#utility.yul\":9228:9232   */\n      dup6\n        /* \"#utility.yul\":9213:9226   */\n      dup3\n        /* \"#utility.yul\":9129:9233   */\n      tag_776\n      jump\t// in\n    tag_833:\n        /* \"#utility.yul\":9121:9233   */\n      swap5\n      pop\n        /* \"#utility.yul\":9256:9336   */\n      tag_834\n        /* \"#utility.yul\":9329:9335   */\n      dup4\n        /* \"#utility.yul\":9256:9336   */\n      tag_835\n      jump\t// in\n    tag_834:\n        /* \"#utility.yul\":9246:9336   */\n      swap3\n      pop\n        /* \"#utility.yul\":9365:9369   */\n      0x20\n        /* \"#utility.yul\":9360:9363   */\n      dup11\n        /* \"#utility.yul\":9356:9370   */\n      add\n        /* \"#utility.yul\":9349:9370   */\n      swap10\n      pop\n        /* \"#utility.yul\":9014:9380   */\n      pop\n        /* \"#utility.yul\":9001:9002   */\n      0x01\n        /* \"#utility.yul\":8998:8999   */\n      dup2\n        /* \"#utility.yul\":8994:9003   */\n      add\n        /* \"#utility.yul\":8989:9003   */\n      swap1\n      pop\n        /* \"#utility.yul\":8954:9380   */\n      jump(tag_830)\n    tag_832:\n        /* \"#utility.yul\":8958:8972   */\n      pop\n        /* \"#utility.yul\":9396:9400   */\n      dup3\n        /* \"#utility.yul\":9389:9400   */\n      swap8\n      pop\n        /* \"#utility.yul\":9416:9419   */\n      dup8\n        /* \"#utility.yul\":9409:9419   */\n      swap6\n      pop\n        /* \"#utility.yul\":8518:9425   */\n      pop\n      pop\n      pop\n      pop\n      pop\n      swap3\n      swap2\n      pop\n      pop\n      jump\t// out\n        /* \"#utility.yul\":9497:10624   */\n    tag_836:\n        /* \"#utility.yul\":9670:9673   */\n      0x00\n        /* \"#utility.yul\":9699:9780   */\n      tag_838\n        /* \"#utility.yul\":9774:9779   */\n      dup3\n        /* \"#utility.yul\":9699:9780   */\n      tag_839\n      jump\t// in\n    tag_838:\n        /* \"#utility.yul\":9796:9909   */\n      tag_840\n        /* \"#utility.yul\":9902:9908   */\n      dup2\n        /* \"#utility.yul\":9897:9900   */\n      dup6\n        /* \"#utility.yul\":9796:9909   */\n      tag_841\n      jump\t// in\n    tag_840:\n        /* \"#utility.yul\":9789:9909   */\n      swap4\n      pop\n        /* \"#utility.yul\":9935:9938   */\n      dup4\n        /* \"#utility.yul\":9980:9984   */\n      0x20\n        /* \"#utility.yul\":9972:9978   */\n      dup3\n        /* \"#utility.yul\":9968:9985   */\n      mul\n        /* \"#utility.yul\":9963:9966   */\n      dup6\n        /* \"#utility.yul\":9959:9986   */\n      add\n        /* \"#utility.yul\":10010:10093   */\n      tag_842\n        /* \"#utility.yul\":10087:10092   */\n      dup6\n        /* \"#utility.yul\":10010:10093   */\n      tag_843\n      jump\t// in\n    tag_842:\n        /* \"#utility.yul\":10116:10123   */\n      dup1\n        /* \"#utility.yul\":10147:10148   */\n      0x00\n        /* \"#utility.yul\":10132:10579   */\n    tag_844:\n        /* \"#utility.yul\":10157:10163   */\n      dup6\n        /* \"#utility.yul\":10154:10155   */\n      dup2\n        /* \"#utility.yul\":10151:10164   */\n      lt\n        /* \"#utility.yul\":10132:10579   */\n      iszero\n      tag_846\n      jumpi\n        /* \"#utility.yul\":10228:10237   */\n      dup5\n        /* \"#utility.yul\":10222:10226   */\n      dup5\n        /* \"#utility.yul\":10218:10238   */\n      sub\n        /* \"#utility.yul\":10213:10216   */\n      dup10\n        /* \"#utility.yul\":10206:10239   */\n      mstore\n        /* \"#utility.yul\":10279:10285   */\n      dup2\n        /* \"#utility.yul\":10273:10286   */\n      mload\n        /* \"#utility.yul\":10307:10425   */\n      tag_847\n        /* \"#utility.yul\":10420:10424   */\n      dup6\n        /* \"#utility.yul\":10405:10418   */\n      dup3\n        /* \"#utility.yul\":10307:10425   */\n      tag_780\n      jump\t// in\n    tag_847:\n        /* \"#utility.yul\":10299:10425   */\n      swap5\n      pop\n        /* \"#utility.yul\":10448:10535   */\n      tag_848\n        /* \"#utility.yul\":10528:10534   */\n      dup4\n        /* \"#utility.yul\":10448:10535   */\n      tag_849\n      jump\t// in\n    tag_848:\n        /* \"#utility.yul\":10438:10535   */\n      swap3\n      pop\n        /* \"#utility.yul\":10564:10568   */\n      0x20\n        /* \"#utility.yul\":10559:10562   */\n      dup11\n        /* \"#utility.yul\":10555:10569   */\n      add\n        /* \"#utility.yul\":10548:10569   */\n      swap10\n      pop\n        /* \"#utility.yul\":10192:10579   */\n      pop\n        /* \"#utility.yul\":10179:10180   */\n      0x01\n        /* \"#utility.yul\":10176:10177   */\n      dup2\n        /* \"#utility.yul\":10172:10181   */\n      add\n        /* \"#utility.yul\":10167:10181   */\n      swap1\n      pop\n        /* \"#utility.yul\":10132:10579   */\n      jump(tag_844)\n    tag_846:\n        /* \"#utility.yul\":10136:10150   */\n      pop\n        /* \"#utility.yul\":10595:10599   */\n      dup3\n        /* \"#utility.yul\":10588:10599   */\n      swap8\n      pop\n        /* \"#utility.yul\":10615:10618   */\n      dup8\n        /* \"#utility.yul\":10608:10618   */\n      swap6\n      pop\n        /* \"#utility.yul\":9675:10624   */\n      pop\n      pop\n      pop\n      pop\n      pop\n      swap3\n      swap2\n      pop\n      pop\n      jump\t// out\n        /* \"#utility.yul\":10682:11733   */\n    tag_850:\n        /* \"#utility.yul\":10831:10834   */\n      0x00\n        /* \"#utility.yul\":10860:10934   */\n      tag_852\n        /* \"#utility.yul\":10928:10933   */\n      dup3\n        /* \"#utility.yul\":10860:10934   */\n      tag_853\n      jump\t// in\n    tag_852:\n        /* \"#utility.yul\":10950:11046   */\n      tag_854\n        /* \"#utility.yul\":11039:11045   */\n      dup2\n        /* \"#utility.yul\":11034:11037   */\n      dup6\n        /* \"#utility.yul\":10950:11046   */\n      tag_855\n      jump\t// in\n    tag_854:\n        /* \"#utility.yul\":10943:11046   */\n      swap4\n      pop\n        /* \"#utility.yul\":11072:11075   */\n      dup4\n        /* \"#utility.yul\":11117:11121   */\n      0x20\n        /* \"#utility.yul\":11109:11115   */\n      dup3\n        /* \"#utility.yul\":11105:11122   */\n      mul\n        /* \"#utility.yul\":11100:11103   */\n      dup6\n        /* \"#utility.yul\":11096:11123   */\n      add\n        /* \"#utility.yul\":11147:11223   */\n      tag_856\n        /* \"#utility.yul\":11217:11222   */\n      dup6\n        /* \"#utility.yul\":11147:11223   */\n      tag_857\n      jump\t// in\n    tag_856:\n        /* \"#utility.yul\":11246:11253   */\n      dup1\n        /* \"#utility.yul\":11277:11278   */\n      0x00\n        /* \"#utility.yul\":11262:11688   */\n    tag_858:\n        /* \"#utility.yul\":11287:11293   */\n      dup6\n        /* \"#utility.yul\":11284:11285   */\n      dup2\n        /* \"#utility.yul\":11281:11294   */\n      lt\n        /* \"#utility.yul\":11262:11688   */\n      iszero\n      tag_860\n      jumpi\n        /* \"#utility.yul\":11358:11367   */\n      dup5\n        /* \"#utility.yul\":11352:11356   */\n      dup5\n        /* \"#utility.yul\":11348:11368   */\n      sub\n        /* \"#utility.yul\":11343:11346   */\n      dup10\n        /* \"#utility.yul\":11336:11369   */\n      mstore\n        /* \"#utility.yul\":11409:11415   */\n      dup2\n        /* \"#utility.yul\":11403:11416   */\n      mload\n        /* \"#utility.yul\":11437:11541   */\n      tag_861\n        /* \"#utility.yul\":11536:11540   */\n      dup6\n        /* \"#utility.yul\":11521:11534   */\n      dup3\n        /* \"#utility.yul\":11437:11541   */\n      tag_784\n      jump\t// in\n    tag_861:\n        /* \"#utility.yul\":11429:11541   */\n      swap5\n      pop\n        /* \"#utility.yul\":11564:11644   */\n      tag_862\n        /* \"#utility.yul\":11637:11643   */\n      dup4\n        /* \"#utility.yul\":11564:11644   */\n      tag_863\n      jump\t// in\n    tag_862:\n        /* \"#utility.yul\":11554:11644   */\n      swap3\n      pop\n        /* \"#utility.yul\":11673:11677   */\n      0x20\n        /* \"#utility.yul\":11668:11671   */\n      dup11\n        /* \"#utility.yul\":11664:11678   */\n      add\n        /* \"#utility.yul\":11657:11678   */\n      swap10\n      pop\n        /* \"#utility.yul\":11322:11688   */\n      pop\n        /* \"#utility.yul\":11309:11310   */\n      0x01\n        /* \"#utility.yul\":11306:11307   */\n      dup2\n        /* \"#utility.yul\":11302:11311   */\n      add\n        /* \"#utility.yul\":11297:11311   */\n      swap1\n      pop\n        /* \"#utility.yul\":11262:11688   */\n      jump(tag_858)\n    tag_860:\n        /* \"#utility.yul\":11266:11280   */\n      pop\n        /* \"#utility.yul\":11704:11708   */\n      dup3\n        /* \"#utility.yul\":11697:11708   */\n      swap8\n      pop\n        /* \"#utility.yul\":11724:11727   */\n      dup8\n        /* \"#utility.yul\":11717:11727   */\n      swap6\n      pop\n        /* \"#utility.yul\":10836:11733   */\n      pop\n      pop\n      pop\n      pop\n      pop\n      swap3\n      swap2\n      pop\n      pop\n      jump\t// out\n        /* \"#utility.yul\":11739:11848   */\n    tag_864:\n        /* \"#utility.yul\":11820:11841   */\n      tag_866\n        /* \"#utility.yul\":11835:11840   */\n      dup2\n        /* \"#utility.yul\":11820:11841   */\n      tag_867\n      jump\t// in\n    tag_866:\n        /* \"#utility.yul\":11815:11818   */\n      dup3\n        /* \"#utility.yul\":11808:11842   */\n      mstore\n        /* \"#utility.yul\":11798:11848   */\n      pop\n      pop\n      jump\t// out\n        /* \"#utility.yul\":11854:12198   */\n    tag_868:\n        /* \"#utility.yul\":11932:11935   */\n      0x00\n        /* \"#utility.yul\":11960:11999   */\n      tag_870\n        /* \"#utility.yul\":11993:11998   */\n      dup3\n        /* \"#utility.yul\":11960:11999   */\n      tag_871\n      jump\t// in\n    tag_870:\n        /* \"#utility.yul\":12015:12076   */\n      tag_872\n        /* \"#utility.yul\":12069:12075   */\n      dup2\n        /* \"#utility.yul\":12064:12067   */\n      dup6\n        /* \"#utility.yul\":12015:12076   */\n      tag_873\n      jump\t// in\n    tag_872:\n        /* \"#utility.yul\":12008:12076   */\n      swap4\n      pop\n        /* \"#utility.yul\":12085:12137   */\n      tag_874\n        /* \"#utility.yul\":12130:12136   */\n      dup2\n        /* \"#utility.yul\":12125:12128   */\n      dup6\n        /* \"#utility.yul\":12118:12122   */\n      0x20\n        /* \"#utility.yul\":12111:12116   */\n      dup7\n        /* \"#utility.yul\":12107:12123   */\n      add\n        /* \"#utility.yul\":12085:12137   */\n      tag_875\n      jump\t// in\n    tag_874:\n        /* \"#utility.yul\":12162:12191   */\n      tag_876\n        /* \"#utility.yul\":12184:12190   */\n      dup2\n        /* \"#utility.yul\":12162:12191   */\n      tag_877\n      jump\t// in\n    tag_876:\n        /* \"#utility.yul\":12157:12160   */\n      dup5\n        /* \"#utility.yul\":12153:12192   */\n      add\n        /* \"#utility.yul\":12146:12192   */\n      swap2\n      pop\n        /* \"#utility.yul\":11936:12198   */\n      pop\n      swap3\n      swap2\n      pop\n      pop\n      jump\t// out\n        /* \"#utility.yul\":12204:12568   */\n    tag_878:\n        /* \"#utility.yul\":12292:12295   */\n      0x00\n        /* \"#utility.yul\":12320:12359   */\n      tag_880\n        /* \"#utility.yul\":12353:12358   */\n      dup3\n        /* \"#utility.yul\":12320:12359   */\n      tag_871\n      jump\t// in\n    tag_880:\n        /* \"#utility.yul\":12375:12446   */\n      tag_881\n        /* \"#utility.yul\":12439:12445   */\n      dup2\n        /* \"#utility.yul\":12434:12437   */\n      dup6\n        /* \"#utility.yul\":12375:12446   */\n      tag_882\n      jump\t// in\n    tag_881:\n        /* \"#utility.yul\":12368:12446   */\n      swap4\n      pop\n        /* \"#utility.yul\":12455:12507   */\n      tag_883\n        /* \"#utility.yul\":12500:12506   */\n      dup2\n        /* \"#utility.yul\":12495:12498   */\n      dup6\n        /* \"#utility.yul\":12488:12492   */\n      0x20\n        /* \"#utility.yul\":12481:12486   */\n      dup7\n        /* \"#utility.yul\":12477:12493   */\n      add\n        /* \"#utility.yul\":12455:12507   */\n      tag_875\n      jump\t// in\n    tag_883:\n        /* \"#utility.yul\":12532:12561   */\n      tag_884\n        /* \"#utility.yul\":12554:12560   */\n      dup2\n        /* \"#utility.yul\":12532:12561   */\n      tag_877\n      jump\t// in\n    tag_884:\n        /* \"#utility.yul\":12527:12530   */\n      dup5\n        /* \"#utility.yul\":12523:12562   */\n      add\n        /* \"#utility.yul\":12516:12562   */\n      swap2\n      pop\n        /* \"#utility.yul\":12296:12568   */\n      pop\n      swap3\n      swap2\n      pop\n      pop\n      jump\t// out\n        /* \"#utility.yul\":12574:12951   */\n    tag_885:\n        /* \"#utility.yul\":12680:12683   */\n      0x00\n        /* \"#utility.yul\":12708:12747   */\n      tag_887\n        /* \"#utility.yul\":12741:12746   */\n      dup3\n        /* \"#utility.yul\":12708:12747   */\n      tag_871\n      jump\t// in\n    tag_887:\n        /* \"#utility.yul\":12763:12852   */\n      tag_888\n        /* \"#utility.yul\":12845:12851   */\n      dup2\n        /* \"#utility.yul\":12840:12843   */\n      dup6\n        /* \"#utility.yul\":12763:12852   */\n      tag_889\n      jump\t// in\n    tag_888:\n        /* \"#utility.yul\":12756:12852   */\n      swap4\n      pop\n        /* \"#utility.yul\":12861:12913   */\n      tag_890\n        /* \"#utility.yul\":12906:12912   */\n      dup2\n        /* \"#utility.yul\":12901:12904   */\n      dup6\n        /* \"#utility.yul\":12894:12898   */\n      0x20\n        /* \"#utility.yul\":12887:12892   */\n      dup7\n        /* \"#utility.yul\":12883:12899   */\n      add\n        /* \"#utility.yul\":12861:12913   */\n      tag_875\n      jump\t// in\n    tag_890:\n        /* \"#utility.yul\":12938:12944   */\n      dup1\n        /* \"#utility.yul\":12933:12936   */\n      dup5\n        /* \"#utility.yul\":12929:12945   */\n      add\n        /* \"#utility.yul\":12922:12945   */\n      swap2\n      pop\n        /* \"#utility.yul\":12684:12951   */\n      pop\n      swap3\n      swap2\n      pop\n      pop\n      jump\t// out\n        /* \"#utility.yul\":12981:13834   */\n    tag_891:\n        /* \"#utility.yul\":13088:13091   */\n      0x00\n        /* \"#utility.yul\":13125:13130   */\n      dup2\n        /* \"#utility.yul\":13119:13131   */\n      sload\n        /* \"#utility.yul\":13154:13190   */\n      tag_893\n        /* \"#utility.yul\":13180:13189   */\n      dup2\n        /* \"#utility.yul\":13154:13190   */\n      tag_140\n      jump\t// in\n    tag_893:\n        /* \"#utility.yul\":13206:13295   */\n      tag_894\n        /* \"#utility.yul\":13288:13294   */\n      dup2\n        /* \"#utility.yul\":13283:13286   */\n      dup7\n        /* \"#utility.yul\":13206:13295   */\n      tag_889\n      jump\t// in\n    tag_894:\n        /* \"#utility.yul\":13199:13295   */\n      swap5\n      pop\n        /* \"#utility.yul\":13326:13327   */\n      0x01\n        /* \"#utility.yul\":13315:13324   */\n      dup3\n        /* \"#utility.yul\":13311:13328   */\n      and\n        /* \"#utility.yul\":13342:13343   */\n      0x00\n        /* \"#utility.yul\":13337:13474   */\n      dup2\n      eq\n      tag_896\n      jumpi\n        /* \"#utility.yul\":13488:13489   */\n      0x01\n        /* \"#utility.yul\":13483:13828   */\n      dup2\n      eq\n      tag_897\n      jumpi\n        /* \"#utility.yul\":13304:13828   */\n      jump(tag_895)\n        /* \"#utility.yul\":13337:13474   */\n    tag_896:\n        /* \"#utility.yul\":13421:13425   */\n      0xff\n        /* \"#utility.yul\":13417:13426   */\n      not\n        /* \"#utility.yul\":13406:13415   */\n      dup4\n        /* \"#utility.yul\":13402:13427   */\n      and\n        /* \"#utility.yul\":13397:13400   */\n      dup7\n        /* \"#utility.yul\":13390:13428   */\n      mstore\n        /* \"#utility.yul\":13457:13463   */\n      dup2\n        /* \"#utility.yul\":13452:13455   */\n      dup7\n        /* \"#utility.yul\":13448:13464   */\n      add\n        /* \"#utility.yul\":13441:13464   */\n      swap4\n      pop\n        /* \"#utility.yul\":13337:13474   */\n      jump(tag_895)\n        /* \"#utility.yul\":13483:13828   */\n    tag_897:\n        /* \"#utility.yul\":13550:13592   */\n      tag_898\n        /* \"#utility.yul\":13586:13591   */\n      dup6\n        /* \"#utility.yul\":13550:13592   */\n      tag_899\n      jump\t// in\n    tag_898:\n        /* \"#utility.yul\":13614:13615   */\n      0x00\n        /* \"#utility.yul\":13628:13782   */\n    tag_900:\n        /* \"#utility.yul\":13642:13648   */\n      dup4\n        /* \"#utility.yul\":13639:13640   */\n      dup2\n        /* \"#utility.yul\":13636:13649   */\n      lt\n        /* \"#utility.yul\":13628:13782   */\n      iszero\n      tag_902\n      jumpi\n        /* \"#utility.yul\":13716:13723   */\n      dup2\n        /* \"#utility.yul\":13710:13724   */\n      sload\n        /* \"#utility.yul\":13706:13707   */\n      dup2\n        /* \"#utility.yul\":13701:13704   */\n      dup10\n        /* \"#utility.yul\":13697:13708   */\n      add\n        /* \"#utility.yul\":13690:13725   */\n      mstore\n        /* \"#utility.yul\":13766:13767   */\n      0x01\n        /* \"#utility.yul\":13757:13764   */\n      dup3\n        /* \"#utility.yul\":13753:13768   */\n      add\n        /* \"#utility.yul\":13742:13768   */\n      swap2\n      pop\n        /* \"#utility.yul\":13664:13668   */\n      0x20\n        /* \"#utility.yul\":13661:13662   */\n      dup2\n        /* \"#utility.yul\":13657:13669   */\n      add\n        /* \"#utility.yul\":13652:13669   */\n      swap1\n      pop\n        /* \"#utility.yul\":13628:13782   */\n      jump(tag_900)\n    tag_902:\n        /* \"#utility.yul\":13811:13817   */\n      dup4\n        /* \"#utility.yul\":13806:13809   */\n      dup9\n        /* \"#utility.yul\":13802:13818   */\n      add\n        /* \"#utility.yul\":13795:13818   */\n      swap6\n      pop\n        /* \"#utility.yul\":13490:13828   */\n      pop\n      pop\n        /* \"#utility.yul\":13304:13828   */\n    tag_895:\n      pop\n        /* \"#utility.yul\":13092:13834   */\n      pop\n      pop\n      swap3\n      swap2\n      pop\n      pop\n      jump\t// out\n        /* \"#utility.yul\":13864:14709   */\n    tag_903:\n        /* \"#utility.yul\":13967:13970   */\n      0x00\n        /* \"#utility.yul\":14004:14009   */\n      dup2\n        /* \"#utility.yul\":13998:14010   */\n      sload\n        /* \"#utility.yul\":14033:14069   */\n      tag_905\n        /* \"#utility.yul\":14059:14068   */\n      dup2\n        /* \"#utility.yul\":14033:14069   */\n      tag_140\n      jump\t// in\n    tag_905:\n        /* \"#utility.yul\":14085:14174   */\n      tag_906\n        /* \"#utility.yul\":14167:14173   */\n      dup2\n        /* \"#utility.yul\":14162:14165   */\n      dup7\n        /* \"#utility.yul\":14085:14174   */\n      tag_889\n      jump\t// in\n    tag_906:\n        /* \"#utility.yul\":14078:14174   */\n      swap5\n      pop\n        /* \"#utility.yul\":14205:14206   */\n      0x01\n        /* \"#utility.yul\":14194:14203   */\n      dup3\n        /* \"#utility.yul\":14190:14207   */\n      and\n        /* \"#utility.yul\":14221:14222   */\n      0x00\n        /* \"#utility.yul\":14216:14353   */\n      dup2\n      eq\n      tag_908\n      jumpi\n        /* \"#utility.yul\":14367:14368   */\n      0x01\n        /* \"#utility.yul\":14362:14703   */\n      dup2\n      eq\n      tag_909\n      jumpi\n        /* \"#utility.yul\":14183:14703   */\n      jump(tag_907)\n        /* \"#utility.yul\":14216:14353   */\n    tag_908:\n        /* \"#utility.yul\":14300:14304   */\n      0xff\n        /* \"#utility.yul\":14296:14305   */\n      not\n        /* \"#utility.yul\":14285:14294   */\n      dup4\n        /* \"#utility.yul\":14281:14306   */\n      and\n        /* \"#utility.yul\":14276:14279   */\n      dup7\n        /* \"#utility.yul\":14269:14307   */\n      mstore\n        /* \"#utility.yul\":14336:14342   */\n      dup2\n        /* \"#utility.yul\":14331:14334   */\n      dup7\n        /* \"#utility.yul\":14327:14343   */\n      add\n        /* \"#utility.yul\":14320:14343   */\n      swap4\n      pop\n        /* \"#utility.yul\":14216:14353   */\n      jump(tag_907)\n        /* \"#utility.yul\":14362:14703   */\n    tag_909:\n        /* \"#utility.yul\":14429:14467   */\n      tag_910\n        /* \"#utility.yul\":14461:14466   */\n      dup6\n        /* \"#utility.yul\":14429:14467   */\n      tag_911\n      jump\t// in\n    tag_910:\n        /* \"#utility.yul\":14489:14490   */\n      0x00\n        /* \"#utility.yul\":14503:14657   */\n    tag_912:\n        /* \"#utility.yul\":14517:14523   */\n      dup4\n        /* \"#utility.yul\":14514:14515   */\n      dup2\n        /* \"#utility.yul\":14511:14524   */\n      lt\n        /* \"#utility.yul\":14503:14657   */\n      iszero\n      tag_914\n      jumpi\n        /* \"#utility.yul\":14591:14598   */\n      dup2\n        /* \"#utility.yul\":14585:14599   */\n      sload\n        /* \"#utility.yul\":14581:14582   */\n      dup2\n        /* \"#utility.yul\":14576:14579   */\n      dup10\n        /* \"#utility.yul\":14572:14583   */\n      add\n        /* \"#utility.yul\":14565:14600   */\n      mstore\n        /* \"#utility.yul\":14641:14642   */\n      0x01\n        /* \"#utility.yul\":14632:14639   */\n      dup3\n        /* \"#utility.yul\":14628:14643   */\n      add\n        /* \"#utility.yul\":14617:14643   */\n      swap2\n      pop\n        /* \"#utility.yul\":14539:14543   */\n      0x20\n        /* \"#utility.yul\":14536:14537   */\n      dup2\n        /* \"#utility.yul\":14532:14544   */\n      add\n        /* \"#utility.yul\":14527:14544   */\n      swap1\n      pop\n        /* \"#utility.yul\":14503:14657   */\n      jump(tag_912)\n    tag_914:\n        /* \"#utility.yul\":14686:14692   */\n      dup4\n        /* \"#utility.yul\":14681:14684   */\n      dup9\n        /* \"#utility.yul\":14677:14693   */\n      add\n        /* \"#utility.yul\":14670:14693   */\n      swap6\n      pop\n        /* \"#utility.yul\":14369:14703   */\n      pop\n      pop\n        /* \"#utility.yul\":14183:14703   */\n    tag_907:\n      pop\n        /* \"#utility.yul\":13971:14709   */\n      pop\n      pop\n      swap3\n      swap2\n      pop\n      pop\n      jump\t// out\n        /* \"#utility.yul\":14715:15117   */\n    tag_915:\n        /* \"#utility.yul\":14875:14878   */\n      0x00\n        /* \"#utility.yul\":14896:14981   */\n      tag_917\n        /* \"#utility.yul\":14978:14980   */\n      0x10\n        /* \"#utility.yul\":14973:14976   */\n      dup4\n        /* \"#utility.yul\":14896:14981   */\n      tag_889\n      jump\t// in\n    tag_917:\n        /* \"#utility.yul\":14889:14981   */\n      swap2\n      pop\n        /* \"#utility.yul\":14990:15083   */\n      tag_918\n        /* \"#utility.yul\":15079:15082   */\n      dup3\n        /* \"#utility.yul\":14990:15083   */\n      tag_919\n      jump\t// in\n    tag_918:\n        /* \"#utility.yul\":15108:15110   */\n      0x10\n        /* \"#utility.yul\":15103:15106   */\n      dup3\n        /* \"#utility.yul\":15099:15111   */\n      add\n        /* \"#utility.yul\":15092:15111   */\n      swap1\n      pop\n        /* \"#utility.yul\":14879:15117   */\n      swap2\n      swap1\n      pop\n      jump\t// out\n        /* \"#utility.yul\":15123:15525   */\n    tag_920:\n        /* \"#utility.yul\":15283:15286   */\n      0x00\n        /* \"#utility.yul\":15304:15389   */\n      tag_922\n        /* \"#utility.yul\":15386:15388   */\n      0x0b\n        /* \"#utility.yul\":15381:15384   */\n      dup4\n        /* \"#utility.yul\":15304:15389   */\n      tag_889\n      jump\t// in\n    tag_922:\n        /* \"#utility.yul\":15297:15389   */\n      swap2\n      pop\n        /* \"#utility.yul\":15398:15491   */\n      tag_923\n        /* \"#utility.yul\":15487:15490   */\n      dup3\n        /* \"#utility.yul\":15398:15491   */\n      tag_924\n      jump\t// in\n    tag_923:\n        /* \"#utility.yul\":15516:15518   */\n      0x0b\n        /* \"#utility.yul\":15511:15514   */\n      dup3\n        /* \"#utility.yul\":15507:15519   */\n      add\n        /* \"#utility.yul\":15500:15519   */\n      swap1\n      pop\n        /* \"#utility.yul\":15287:15525   */\n      swap2\n      swap1\n      pop\n      jump\t// out\n        /* \"#utility.yul\":15531:15933   */\n    tag_925:\n        /* \"#utility.yul\":15691:15694   */\n      0x00\n        /* \"#utility.yul\":15712:15797   */\n      tag_927\n        /* \"#utility.yul\":15794:15796   */\n      0x22\n        /* \"#utility.yul\":15789:15792   */\n      dup4\n        /* \"#utility.yul\":15712:15797   */\n      tag_889\n      jump\t// in\n    tag_927:\n        /* \"#utility.yul\":15705:15797   */\n      swap2\n      pop\n        /* \"#utility.yul\":15806:15899   */\n      tag_928\n        /* \"#utility.yul\":15895:15898   */\n      dup3\n        /* \"#utility.yul\":15806:15899   */\n      tag_929\n      jump\t// in\n    tag_928:\n        /* \"#utility.yul\":15924:15926   */\n      0x22\n        /* \"#utility.yul\":15919:15922   */\n      dup3\n        /* \"#utility.yul\":15915:15927   */\n      add\n        /* \"#utility.yul\":15908:15927   */\n      swap1\n      pop\n        /* \"#utility.yul\":15695:15933   */\n      swap2\n      swap1\n      pop\n      jump\t// out\n        /* \"#utility.yul\":15939:16341   */\n    tag_930:\n        /* \"#utility.yul\":16099:16102   */\n      0x00\n        /* \"#utility.yul\":16120:16205   */\n      tag_932\n        /* \"#utility.yul\":16202:16204   */\n      0x10\n        /* \"#utility.yul\":16197:16200   */\n      dup4\n        /* \"#utility.yul\":16120:16205   */\n      tag_889\n      jump\t// in\n    tag_932:\n        /* \"#utility.yul\":16113:16205   */\n      swap2\n      pop\n        /* \"#utility.yul\":16214:16307   */\n      tag_933\n        /* \"#utility.yul\":16303:16306   */\n      dup3\n        /* \"#utility.yul\":16214:16307   */\n      tag_934\n      jump\t// in\n    tag_933:\n        /* \"#utility.yul\":16332:16334   */\n      0x10\n        /* \"#utility.yul\":16327:16330   */\n      dup3\n        /* \"#utility.yul\":16323:16335   */\n      add\n        /* \"#utility.yul\":16316:16335   */\n      swap1\n      pop\n        /* \"#utility.yul\":16103:16341   */\n      swap2\n      swap1\n      pop\n      jump\t// out\n        /* \"#utility.yul\":16347:16749   */\n    tag_935:\n        /* \"#utility.yul\":16507:16510   */\n      0x00\n        /* \"#utility.yul\":16528:16613   */\n      tag_937\n        /* \"#utility.yul\":16610:16612   */\n      0x31\n        /* \"#utility.yul\":16605:16608   */\n      dup4\n        /* \"#utility.yul\":16528:16613   */\n      tag_889\n      jump\t// in\n    tag_937:\n        /* \"#utility.yul\":16521:16613   */\n      swap2\n      pop\n        /* \"#utility.yul\":16622:16715   */\n      tag_938\n        /* \"#utility.yul\":16711:16714   */\n      dup3\n        /* \"#utility.yul\":16622:16715   */\n      tag_939\n      jump\t// in\n    tag_938:\n        /* \"#utility.yul\":16740:16742   */\n      0x31\n        /* \"#utility.yul\":16735:16738   */\n      dup3\n        /* \"#utility.yul\":16731:16743   */\n      add\n        /* \"#utility.yul\":16724:16743   */\n      swap1\n      pop\n        /* \"#utility.yul\":16511:16749   */\n      swap2\n      swap1\n      pop\n      jump\t// out\n        /* \"#utility.yul\":16755:17157   */\n    tag_940:\n        /* \"#utility.yul\":16915:16918   */\n      0x00\n        /* \"#utility.yul\":16936:17021   */\n      tag_942\n        /* \"#utility.yul\":17018:17020   */\n      0x31\n        /* \"#utility.yul\":17013:17016   */\n      dup4\n        /* \"#utility.yul\":16936:17021   */\n      tag_889\n      jump\t// in\n    tag_942:\n        /* \"#utility.yul\":16929:17021   */\n      swap2\n      pop\n        /* \"#utility.yul\":17030:17123   */\n      tag_943\n        /* \"#utility.yul\":17119:17122   */\n      dup3\n        /* \"#utility.yul\":17030:17123   */\n      tag_944\n      jump\t// in\n    tag_943:\n        /* \"#utility.yul\":17148:17150   */\n      0x31\n        /* \"#utility.yul\":17143:17146   */\n      dup3\n        /* \"#utility.yul\":17139:17151   */\n      add\n        /* \"#utility.yul\":17132:17151   */\n      swap1\n      pop\n        /* \"#utility.yul\":16919:17157   */\n      swap2\n      swap1\n      pop\n      jump\t// out\n        /* \"#utility.yul\":17163:17563   */\n    tag_945:\n        /* \"#utility.yul\":17323:17326   */\n      0x00\n        /* \"#utility.yul\":17344:17428   */\n      tag_947\n        /* \"#utility.yul\":17426:17427   */\n      0x01\n        /* \"#utility.yul\":17421:17424   */\n      dup4\n        /* \"#utility.yul\":17344:17428   */\n      tag_889\n      jump\t// in\n    tag_947:\n        /* \"#utility.yul\":17337:17428   */\n      swap2\n      pop\n        /* \"#utility.yul\":17437:17530   */\n      tag_948\n        /* \"#utility.yul\":17526:17529   */\n      dup3\n        /* \"#utility.yul\":17437:17530   */\n      tag_949\n      jump\t// in\n    tag_948:\n        /* \"#utility.yul\":17555:17556   */\n      0x01\n        /* \"#utility.yul\":17550:17553   */\n      dup3\n        /* \"#utility.yul\":17546:17557   */\n      add\n        /* \"#utility.yul\":17539:17557   */\n      swap1\n      pop\n        /* \"#utility.yul\":17327:17563   */\n      swap2\n      swap1\n      pop\n      jump\t// out\n        /* \"#utility.yul\":17569:17971   */\n    tag_950:\n        /* \"#utility.yul\":17729:17732   */\n      0x00\n        /* \"#utility.yul\":17750:17835   */\n      tag_952\n        /* \"#utility.yul\":17832:17834   */\n      0x0b\n        /* \"#utility.yul\":17827:17830   */\n      dup4\n        /* \"#utility.yul\":17750:17835   */\n      tag_889\n      jump\t// in\n    tag_952:\n        /* \"#utility.yul\":17743:17835   */\n      swap2\n      pop\n        /* \"#utility.yul\":17844:17937   */\n      tag_953\n        /* \"#utility.yul\":17933:17936   */\n      dup3\n        /* \"#utility.yul\":17844:17937   */\n      tag_954\n      jump\t// in\n    tag_953:\n        /* \"#utility.yul\":17962:17964   */\n      0x0b\n        /* \"#utility.yul\":17957:17960   */\n      dup3\n        /* \"#utility.yul\":17953:17965   */\n      add\n        /* \"#utility.yul\":17946:17965   */\n      swap1\n      pop\n        /* \"#utility.yul\":17733:17971   */\n      swap2\n      swap1\n      pop\n      jump\t// out\n        /* \"#utility.yul\":18033:18789   */\n    tag_955:\n        /* \"#utility.yul\":18150:18153   */\n      0x00\n        /* \"#utility.yul\":18186:18190   */\n      0x40\n        /* \"#utility.yul\":18181:18184   */\n      dup4\n        /* \"#utility.yul\":18177:18191   */\n      add\n        /* \"#utility.yul\":18276:18280   */\n      0x00\n        /* \"#utility.yul\":18269:18274   */\n      dup4\n        /* \"#utility.yul\":18265:18281   */\n      add\n        /* \"#utility.yul\":18259:18282   */\n      mload\n        /* \"#utility.yul\":18329:18332   */\n      dup5\n        /* \"#utility.yul\":18323:18327   */\n      dup3\n        /* \"#utility.yul\":18319:18333   */\n      sub\n        /* \"#utility.yul\":18312:18316   */\n      0x00\n        /* \"#utility.yul\":18307:18310   */\n      dup7\n        /* \"#utility.yul\":18303:18317   */\n      add\n        /* \"#utility.yul\":18296:18334   */\n      mstore\n        /* \"#utility.yul\":18355:18428   */\n      tag_957\n        /* \"#utility.yul\":18423:18427   */\n      dup3\n        /* \"#utility.yul\":18409:18421   */\n      dup3\n        /* \"#utility.yul\":18355:18428   */\n      tag_868\n      jump\t// in\n    tag_957:\n        /* \"#utility.yul\":18347:18428   */\n      swap2\n      pop\n        /* \"#utility.yul\":18201:18439   */\n      pop\n        /* \"#utility.yul\":18529:18533   */\n      0x20\n        /* \"#utility.yul\":18522:18527   */\n      dup4\n        /* \"#utility.yul\":18518:18534   */\n      add\n        /* \"#utility.yul\":18512:18535   */\n      mload\n        /* \"#utility.yul\":18582:18585   */\n      dup5\n        /* \"#utility.yul\":18576:18580   */\n      dup3\n        /* \"#utility.yul\":18572:18586   */\n      sub\n        /* \"#utility.yul\":18565:18569   */\n      0x20\n        /* \"#utility.yul\":18560:18563   */\n      dup7\n        /* \"#utility.yul\":18556:18570   */\n      add\n        /* \"#utility.yul\":18549:18587   */\n      mstore\n        /* \"#utility.yul\":18608:18751   */\n      tag_958\n        /* \"#utility.yul\":18746:18750   */\n      dup3\n        /* \"#utility.yul\":18732:18744   */\n      dup3\n        /* \"#utility.yul\":18608:18751   */\n      tag_850\n      jump\t// in\n    tag_958:\n        /* \"#utility.yul\":18600:18751   */\n      swap2\n      pop\n        /* \"#utility.yul\":18449:18762   */\n      pop\n        /* \"#utility.yul\":18779:18783   */\n      dup1\n        /* \"#utility.yul\":18772:18783   */\n      swap2\n      pop\n        /* \"#utility.yul\":18155:18789   */\n      pop\n      swap3\n      swap2\n      pop\n      pop\n      jump\t// out\n        /* \"#utility.yul\":18859:20031   */\n    tag_775:\n        /* \"#utility.yul\":18974:18977   */\n      0x00\n        /* \"#utility.yul\":19010:19014   */\n      0x80\n        /* \"#utility.yul\":19005:19008   */\n      dup4\n        /* \"#utility.yul\":19001:19015   */\n      add\n        /* \"#utility.yul\":19098:19102   */\n      0x00\n        /* \"#utility.yul\":19091:19096   */\n      dup4\n        /* \"#utility.yul\":19087:19103   */\n      add\n        /* \"#utility.yul\":19081:19104   */\n      mload\n        /* \"#utility.yul\":19151:19154   */\n      dup5\n        /* \"#utility.yul\":19145:19149   */\n      dup3\n        /* \"#utility.yul\":19141:19155   */\n      sub\n        /* \"#utility.yul\":19134:19138   */\n      0x00\n        /* \"#utility.yul\":19129:19132   */\n      dup7\n        /* \"#utility.yul\":19125:19139   */\n      add\n        /* \"#utility.yul\":19118:19156   */\n      mstore\n        /* \"#utility.yul\":19177:19250   */\n      tag_960\n        /* \"#utility.yul\":19245:19249   */\n      dup3\n        /* \"#utility.yul\":19231:19243   */\n      dup3\n        /* \"#utility.yul\":19177:19250   */\n      tag_868\n      jump\t// in\n    tag_960:\n        /* \"#utility.yul\":19169:19250   */\n      swap2\n      pop\n        /* \"#utility.yul\":19025:19261   */\n      pop\n        /* \"#utility.yul\":19346:19350   */\n      0x20\n        /* \"#utility.yul\":19339:19344   */\n      dup4\n        /* \"#utility.yul\":19335:19351   */\n      add\n        /* \"#utility.yul\":19329:19352   */\n      mload\n        /* \"#utility.yul\":19399:19402   */\n      dup5\n        /* \"#utility.yul\":19393:19397   */\n      dup3\n        /* \"#utility.yul\":19389:19403   */\n      sub\n        /* \"#utility.yul\":19382:19386   */\n      0x20\n        /* \"#utility.yul\":19377:19380   */\n      dup7\n        /* \"#utility.yul\":19373:19387   */\n      add\n        /* \"#utility.yul\":19366:19404   */\n      mstore\n        /* \"#utility.yul\":19425:19498   */\n      tag_961\n        /* \"#utility.yul\":19493:19497   */\n      dup3\n        /* \"#utility.yul\":19479:19491   */\n      dup3\n        /* \"#utility.yul\":19425:19498   */\n      tag_868\n      jump\t// in\n    tag_961:\n        /* \"#utility.yul\":19417:19498   */\n      swap2\n      pop\n        /* \"#utility.yul\":19271:19509   */\n      pop\n        /* \"#utility.yul\":19594:19598   */\n      0x40\n        /* \"#utility.yul\":19587:19592   */\n      dup4\n        /* \"#utility.yul\":19583:19599   */\n      add\n        /* \"#utility.yul\":19577:19600   */\n      mload\n        /* \"#utility.yul\":19647:19650   */\n      dup5\n        /* \"#utility.yul\":19641:19645   */\n      dup3\n        /* \"#utility.yul\":19637:19651   */\n      sub\n        /* \"#utility.yul\":19630:19634   */\n      0x40\n        /* \"#utility.yul\":19625:19628   */\n      dup7\n        /* \"#utility.yul\":19621:19635   */\n      add\n        /* \"#utility.yul\":19614:19652   */\n      mstore\n        /* \"#utility.yul\":19673:19746   */\n      tag_962\n        /* \"#utility.yul\":19741:19745   */\n      dup3\n        /* \"#utility.yul\":19727:19739   */\n      dup3\n        /* \"#utility.yul\":19673:19746   */\n      tag_868\n      jump\t// in\n    tag_962:\n        /* \"#utility.yul\":19665:19746   */\n      swap2\n      pop\n        /* \"#utility.yul\":19519:19757   */\n      pop\n        /* \"#utility.yul\":19841:19845   */\n      0x60\n        /* \"#utility.yul\":19834:19839   */\n      dup4\n        /* \"#utility.yul\":19830:19846   */\n      add\n        /* \"#utility.yul\":19824:19847   */\n      mload\n        /* \"#utility.yul\":19894:19897   */\n      dup5\n        /* \"#utility.yul\":19888:19892   */\n      dup3\n        /* \"#utility.yul\":19884:19898   */\n      sub\n        /* \"#utility.yul\":19877:19881   */\n      0x60\n        /* \"#utility.yul\":19872:19875   */\n      dup7\n        /* \"#utility.yul\":19868:19882   */\n      add\n        /* \"#utility.yul\":19861:19899   */\n      mstore\n        /* \"#utility.yul\":19920:19993   */\n      tag_963\n        /* \"#utility.yul\":19988:19992   */\n      dup3\n        /* \"#utility.yul\":19974:19986   */\n      dup3\n        /* \"#utility.yul\":19920:19993   */\n      tag_868\n      jump\t// in\n    tag_963:\n        /* \"#utility.yul\":19912:19993   */\n      swap2\n      pop\n        /* \"#utility.yul\":19767:20004   */\n      pop\n        /* \"#utility.yul\":20021:20025   */\n      dup1\n        /* \"#utility.yul\":20014:20025   */\n      swap2\n      pop\n        /* \"#utility.yul\":18979:20031   */\n      pop\n      swap3\n      swap2\n      pop\n      pop\n      jump\t// out\n        /* \"#utility.yul\":20085:21276   */\n    tag_779:\n        /* \"#utility.yul\":20184:20187   */\n      0x00\n        /* \"#utility.yul\":20220:20224   */\n      0xa0\n        /* \"#utility.yul\":20215:20218   */\n      dup4\n        /* \"#utility.yul\":20211:20225   */\n      add\n        /* \"#utility.yul\":20309:20313   */\n      0x00\n        /* \"#utility.yul\":20302:20307   */\n      dup4\n        /* \"#utility.yul\":20298:20314   */\n      add\n        /* \"#utility.yul\":20292:20315   */\n      mload\n        /* \"#utility.yul\":20328:20391   */\n      tag_965\n        /* \"#utility.yul\":20385:20389   */\n      0x00\n        /* \"#utility.yul\":20380:20383   */\n      dup7\n        /* \"#utility.yul\":20376:20390   */\n      add\n        /* \"#utility.yul\":20362:20374   */\n      dup3\n        /* \"#utility.yul\":20328:20391   */\n      tag_966\n      jump\t// in\n    tag_965:\n        /* \"#utility.yul\":20235:20401   */\n      pop\n        /* \"#utility.yul\":20483:20487   */\n      0x20\n        /* \"#utility.yul\":20476:20481   */\n      dup4\n        /* \"#utility.yul\":20472:20488   */\n      add\n        /* \"#utility.yul\":20466:20489   */\n      mload\n        /* \"#utility.yul\":20536:20539   */\n      dup5\n        /* \"#utility.yul\":20530:20534   */\n      dup3\n        /* \"#utility.yul\":20526:20540   */\n      sub\n        /* \"#utility.yul\":20519:20523   */\n      0x20\n        /* \"#utility.yul\":20514:20517   */\n      dup7\n        /* \"#utility.yul\":20510:20524   */\n      add\n        /* \"#utility.yul\":20503:20541   */\n      mstore\n        /* \"#utility.yul\":20562:20635   */\n      tag_967\n        /* \"#utility.yul\":20630:20634   */\n      dup3\n        /* \"#utility.yul\":20616:20628   */\n      dup3\n        /* \"#utility.yul\":20562:20635   */\n      tag_868\n      jump\t// in\n    tag_967:\n        /* \"#utility.yul\":20554:20635   */\n      swap2\n      pop\n        /* \"#utility.yul\":20411:20646   */\n      pop\n        /* \"#utility.yul\":20728:20732   */\n      0x40\n        /* \"#utility.yul\":20721:20726   */\n      dup4\n        /* \"#utility.yul\":20717:20733   */\n      add\n        /* \"#utility.yul\":20711:20734   */\n      mload\n        /* \"#utility.yul\":20781:20784   */\n      dup5\n        /* \"#utility.yul\":20775:20779   */\n      dup3\n        /* \"#utility.yul\":20771:20785   */\n      sub\n        /* \"#utility.yul\":20764:20768   */\n      0x40\n        /* \"#utility.yul\":20759:20762   */\n      dup7\n        /* \"#utility.yul\":20755:20769   */\n      add\n        /* \"#utility.yul\":20748:20786   */\n      mstore\n        /* \"#utility.yul\":20807:20880   */\n      tag_968\n        /* \"#utility.yul\":20875:20879   */\n      dup3\n        /* \"#utility.yul\":20861:20873   */\n      dup3\n        /* \"#utility.yul\":20807:20880   */\n      tag_868\n      jump\t// in\n    tag_968:\n        /* \"#utility.yul\":20799:20880   */\n      swap2\n      pop\n        /* \"#utility.yul\":20656:20891   */\n      pop\n        /* \"#utility.yul\":20978:20982   */\n      0x60\n        /* \"#utility.yul\":20971:20976   */\n      dup4\n        /* \"#utility.yul\":20967:20983   */\n      add\n        /* \"#utility.yul\":20961:20984   */\n      mload\n        /* \"#utility.yul\":20997:21060   */\n      tag_969\n        /* \"#utility.yul\":21054:21058   */\n      0x60\n        /* \"#utility.yul\":21049:21052   */\n      dup7\n        /* \"#utility.yul\":21045:21059   */\n      add\n        /* \"#utility.yul\":21031:21043   */\n      dup3\n        /* \"#utility.yul\":20997:21060   */\n      tag_966\n      jump\t// in\n    tag_969:\n        /* \"#utility.yul\":20901:21070   */\n      pop\n        /* \"#utility.yul\":21157:21161   */\n      0x80\n        /* \"#utility.yul\":21150:21155   */\n      dup4\n        /* \"#utility.yul\":21146:21162   */\n      add\n        /* \"#utility.yul\":21140:21163   */\n      mload\n        /* \"#utility.yul\":21176:21239   */\n      tag_970\n        /* \"#utility.yul\":21233:21237   */\n      0x80\n        /* \"#utility.yul\":21228:21231   */\n      dup7\n        /* \"#utility.yul\":21224:21238   */\n      add\n        /* \"#utility.yul\":21210:21222   */\n      dup3\n        /* \"#utility.yul\":21176:21239   */\n      tag_966\n      jump\t// in\n    tag_970:\n        /* \"#utility.yul\":21080:21249   */\n      pop\n        /* \"#utility.yul\":21266:21270   */\n      dup1\n        /* \"#utility.yul\":21259:21270   */\n      swap2\n      pop\n        /* \"#utility.yul\":20189:21276   */\n      pop\n      swap3\n      swap2\n      pop\n      pop\n      jump\t// out\n        /* \"#utility.yul\":21344:23994   */\n    tag_783:\n        /* \"#utility.yul\":21457:21460   */\n      0x00\n        /* \"#utility.yul\":21493:21499   */\n      0x0160\n        /* \"#utility.yul\":21488:21491   */\n      dup4\n        /* \"#utility.yul\":21484:21500   */\n      add\n        /* \"#utility.yul\":21580:21584   */\n      0x00\n        /* \"#utility.yul\":21573:21578   */\n      dup4\n        /* \"#utility.yul\":21569:21585   */\n      add\n        /* \"#utility.yul\":21563:21586   */\n      mload\n        /* \"#utility.yul\":21633:21636   */\n      dup5\n        /* \"#utility.yul\":21627:21631   */\n      dup3\n        /* \"#utility.yul\":21623:21637   */\n      sub\n        /* \"#utility.yul\":21616:21620   */\n      0x00\n        /* \"#utility.yul\":21611:21614   */\n      dup7\n        /* \"#utility.yul\":21607:21621   */\n      add\n        /* \"#utility.yul\":21600:21638   */\n      mstore\n        /* \"#utility.yul\":21659:21732   */\n      tag_972\n        /* \"#utility.yul\":21727:21731   */\n      dup3\n        /* \"#utility.yul\":21713:21725   */\n      dup3\n        /* \"#utility.yul\":21659:21732   */\n      tag_868\n      jump\t// in\n    tag_972:\n        /* \"#utility.yul\":21651:21732   */\n      swap2\n      pop\n        /* \"#utility.yul\":21510:21743   */\n      pop\n        /* \"#utility.yul\":21828:21832   */\n      0x20\n        /* \"#utility.yul\":21821:21826   */\n      dup4\n        /* \"#utility.yul\":21817:21833   */\n      add\n        /* \"#utility.yul\":21811:21834   */\n      mload\n        /* \"#utility.yul\":21881:21884   */\n      dup5\n        /* \"#utility.yul\":21875:21879   */\n      dup3\n        /* \"#utility.yul\":21871:21885   */\n      sub\n        /* \"#utility.yul\":21864:21868   */\n      0x20\n        /* \"#utility.yul\":21859:21862   */\n      dup7\n        /* \"#utility.yul\":21855:21869   */\n      add\n        /* \"#utility.yul\":21848:21886   */\n      mstore\n        /* \"#utility.yul\":21907:21980   */\n      tag_973\n        /* \"#utility.yul\":21975:21979   */\n      dup3\n        /* \"#utility.yul\":21961:21973   */\n      dup3\n        /* \"#utility.yul\":21907:21980   */\n      tag_868\n      jump\t// in\n    tag_973:\n        /* \"#utility.yul\":21899:21980   */\n      swap2\n      pop\n        /* \"#utility.yul\":21753:21991   */\n      pop\n        /* \"#utility.yul\":22072:22076   */\n      0x40\n        /* \"#utility.yul\":22065:22070   */\n      dup4\n        /* \"#utility.yul\":22061:22077   */\n      add\n        /* \"#utility.yul\":22055:22078   */\n      mload\n        /* \"#utility.yul\":22125:22128   */\n      dup5\n        /* \"#utility.yul\":22119:22123   */\n      dup3\n        /* \"#utility.yul\":22115:22129   */\n      sub\n        /* \"#utility.yul\":22108:22112   */\n      0x40\n        /* \"#utility.yul\":22103:22106   */\n      dup7\n        /* \"#utility.yul\":22099:22113   */\n      add\n        /* \"#utility.yul\":22092:22130   */\n      mstore\n        /* \"#utility.yul\":22151:22224   */\n      tag_974\n        /* \"#utility.yul\":22219:22223   */\n      dup3\n        /* \"#utility.yul\":22205:22217   */\n      dup3\n        /* \"#utility.yul\":22151:22224   */\n      tag_868\n      jump\t// in\n    tag_974:\n        /* \"#utility.yul\":22143:22224   */\n      swap2\n      pop\n        /* \"#utility.yul\":22001:22235   */\n      pop\n        /* \"#utility.yul\":22320:22324   */\n      0x60\n        /* \"#utility.yul\":22313:22318   */\n      dup4\n        /* \"#utility.yul\":22309:22325   */\n      add\n        /* \"#utility.yul\":22303:22326   */\n      mload\n        /* \"#utility.yul\":22373:22376   */\n      dup5\n        /* \"#utility.yul\":22367:22371   */\n      dup3\n        /* \"#utility.yul\":22363:22377   */\n      sub\n        /* \"#utility.yul\":22356:22360   */\n      0x60\n        /* \"#utility.yul\":22351:22354   */\n      dup7\n        /* \"#utility.yul\":22347:22361   */\n      add\n        /* \"#utility.yul\":22340:22378   */\n      mstore\n        /* \"#utility.yul\":22399:22472   */\n      tag_975\n        /* \"#utility.yul\":22467:22471   */\n      dup3\n        /* \"#utility.yul\":22453:22465   */\n      dup3\n        /* \"#utility.yul\":22399:22472   */\n      tag_868\n      jump\t// in\n    tag_975:\n        /* \"#utility.yul\":22391:22472   */\n      swap2\n      pop\n        /* \"#utility.yul\":22245:22483   */\n      pop\n        /* \"#utility.yul\":22567:22571   */\n      0x80\n        /* \"#utility.yul\":22560:22565   */\n      dup4\n        /* \"#utility.yul\":22556:22572   */\n      add\n        /* \"#utility.yul\":22550:22573   */\n      mload\n        /* \"#utility.yul\":22586:22649   */\n      tag_976\n        /* \"#utility.yul\":22643:22647   */\n      0x80\n        /* \"#utility.yul\":22638:22641   */\n      dup7\n        /* \"#utility.yul\":22634:22648   */\n      add\n        /* \"#utility.yul\":22620:22632   */\n      dup3\n        /* \"#utility.yul\":22586:22649   */\n      tag_966\n      jump\t// in\n    tag_976:\n        /* \"#utility.yul\":22493:22659   */\n      pop\n        /* \"#utility.yul\":22743:22747   */\n      0xa0\n        /* \"#utility.yul\":22736:22741   */\n      dup4\n        /* \"#utility.yul\":22732:22748   */\n      add\n        /* \"#utility.yul\":22726:22749   */\n      mload\n        /* \"#utility.yul\":22796:22799   */\n      dup5\n        /* \"#utility.yul\":22790:22794   */\n      dup3\n        /* \"#utility.yul\":22786:22800   */\n      sub\n        /* \"#utility.yul\":22779:22783   */\n      0xa0\n        /* \"#utility.yul\":22774:22777   */\n      dup7\n        /* \"#utility.yul\":22770:22784   */\n      add\n        /* \"#utility.yul\":22763:22801   */\n      mstore\n        /* \"#utility.yul\":22822:22895   */\n      tag_977\n        /* \"#utility.yul\":22890:22894   */\n      dup3\n        /* \"#utility.yul\":22876:22888   */\n      dup3\n        /* \"#utility.yul\":22822:22895   */\n      tag_868\n      jump\t// in\n    tag_977:\n        /* \"#utility.yul\":22814:22895   */\n      swap2\n      pop\n        /* \"#utility.yul\":22669:22906   */\n      pop\n        /* \"#utility.yul\":22991:22995   */\n      0xc0\n        /* \"#utility.yul\":22984:22989   */\n      dup4\n        /* \"#utility.yul\":22980:22996   */\n      add\n        /* \"#utility.yul\":22974:22997   */\n      mload\n        /* \"#utility.yul\":23010:23073   */\n      tag_978\n        /* \"#utility.yul\":23067:23071   */\n      0xc0\n        /* \"#utility.yul\":23062:23065   */\n      dup7\n        /* \"#utility.yul\":23058:23072   */\n      add\n        /* \"#utility.yul\":23044:23056   */\n      dup3\n        /* \"#utility.yul\":23010:23073   */\n      tag_771\n      jump\t// in\n    tag_978:\n        /* \"#utility.yul\":22916:23083   */\n      pop\n        /* \"#utility.yul\":23167:23171   */\n      0xe0\n        /* \"#utility.yul\":23160:23165   */\n      dup4\n        /* \"#utility.yul\":23156:23172   */\n      add\n        /* \"#utility.yul\":23150:23173   */\n      mload\n        /* \"#utility.yul\":23186:23249   */\n      tag_979\n        /* \"#utility.yul\":23243:23247   */\n      0xe0\n        /* \"#utility.yul\":23238:23241   */\n      dup7\n        /* \"#utility.yul\":23234:23248   */\n      add\n        /* \"#utility.yul\":23220:23232   */\n      dup3\n        /* \"#utility.yul\":23186:23249   */\n      tag_966\n      jump\t// in\n    tag_979:\n        /* \"#utility.yul\":23093:23259   */\n      pop\n        /* \"#utility.yul\":23356:23362   */\n      0x0100\n        /* \"#utility.yul\":23349:23354   */\n      dup4\n        /* \"#utility.yul\":23345:23363   */\n      add\n        /* \"#utility.yul\":23339:23364   */\n      mload\n        /* \"#utility.yul\":23413:23416   */\n      dup5\n        /* \"#utility.yul\":23407:23411   */\n      dup3\n        /* \"#utility.yul\":23403:23417   */\n      sub\n        /* \"#utility.yul\":23394:23400   */\n      0x0100\n        /* \"#utility.yul\":23389:23392   */\n      dup7\n        /* \"#utility.yul\":23385:23401   */\n      add\n        /* \"#utility.yul\":23378:23418   */\n      mstore\n        /* \"#utility.yul\":23439:23512   */\n      tag_980\n        /* \"#utility.yul\":23507:23511   */\n      dup3\n        /* \"#utility.yul\":23493:23505   */\n      dup3\n        /* \"#utility.yul\":23439:23512   */\n      tag_868\n      jump\t// in\n    tag_980:\n        /* \"#utility.yul\":23431:23512   */\n      swap2\n      pop\n        /* \"#utility.yul\":23269:23523   */\n      pop\n        /* \"#utility.yul\":23617:23623   */\n      0x0120\n        /* \"#utility.yul\":23610:23615   */\n      dup4\n        /* \"#utility.yul\":23606:23624   */\n      add\n        /* \"#utility.yul\":23600:23625   */\n      mload\n        /* \"#utility.yul\":23674:23677   */\n      dup5\n        /* \"#utility.yul\":23668:23672   */\n      dup3\n        /* \"#utility.yul\":23664:23678   */\n      sub\n        /* \"#utility.yul\":23655:23661   */\n      0x0120\n        /* \"#utility.yul\":23650:23653   */\n      dup7\n        /* \"#utility.yul\":23646:23662   */\n      add\n        /* \"#utility.yul\":23639:23679   */\n      mstore\n        /* \"#utility.yul\":23700:23773   */\n      tag_981\n        /* \"#utility.yul\":23768:23772   */\n      dup3\n        /* \"#utility.yul\":23754:23766   */\n      dup3\n        /* \"#utility.yul\":23700:23773   */\n      tag_868\n      jump\t// in\n    tag_981:\n        /* \"#utility.yul\":23692:23773   */\n      swap2\n      pop\n        /* \"#utility.yul\":23533:23784   */\n      pop\n        /* \"#utility.yul\":23871:23877   */\n      0x0140\n        /* \"#utility.yul\":23864:23869   */\n      dup4\n        /* \"#utility.yul\":23860:23878   */\n      add\n        /* \"#utility.yul\":23854:23879   */\n      mload\n        /* \"#utility.yul\":23892:23957   */\n      tag_982\n        /* \"#utility.yul\":23949:23955   */\n      0x0140\n        /* \"#utility.yul\":23944:23947   */\n      dup7\n        /* \"#utility.yul\":23940:23956   */\n      add\n        /* \"#utility.yul\":23926:23938   */\n      dup3\n        /* \"#utility.yul\":23892:23957   */\n      tag_966\n      jump\t// in\n    tag_982:\n        /* \"#utility.yul\":23794:23967   */\n      pop\n        /* \"#utility.yul\":23984:23988   */\n      dup1\n        /* \"#utility.yul\":23977:23988   */\n      swap2\n      pop\n        /* \"#utility.yul\":21462:23994   */\n      pop\n      swap3\n      swap2\n      pop\n      pop\n      jump\t// out\n        /* \"#utility.yul\":24048:25596   */\n    tag_787:\n        /* \"#utility.yul\":24147:24150   */\n      0x00\n        /* \"#utility.yul\":24183:24187   */\n      0xe0\n        /* \"#utility.yul\":24178:24181   */\n      dup4\n        /* \"#utility.yul\":24174:24188   */\n      add\n        /* \"#utility.yul\":24270:24274   */\n      0x00\n        /* \"#utility.yul\":24263:24268   */\n      dup4\n        /* \"#utility.yul\":24259:24275   */\n      add\n        /* \"#utility.yul\":24253:24276   */\n      mload\n        /* \"#utility.yul\":24323:24326   */\n      dup5\n        /* \"#utility.yul\":24317:24321   */\n      dup3\n        /* \"#utility.yul\":24313:24327   */\n      sub\n        /* \"#utility.yul\":24306:24310   */\n      0x00\n        /* \"#utility.yul\":24301:24304   */\n      dup7\n        /* \"#utility.yul\":24297:24311   */\n      add\n        /* \"#utility.yul\":24290:24328   */\n      mstore\n        /* \"#utility.yul\":24349:24422   */\n      tag_984\n        /* \"#utility.yul\":24417:24421   */\n      dup3\n        /* \"#utility.yul\":24403:24415   */\n      dup3\n        /* \"#utility.yul\":24349:24422   */\n      tag_868\n      jump\t// in\n    tag_984:\n        /* \"#utility.yul\":24341:24422   */\n      swap2\n      pop\n        /* \"#utility.yul\":24198:24433   */\n      pop\n        /* \"#utility.yul\":24515:24519   */\n      0x20\n        /* \"#utility.yul\":24508:24513   */\n      dup4\n        /* \"#utility.yul\":24504:24520   */\n      add\n        /* \"#utility.yul\":24498:24521   */\n      mload\n        /* \"#utility.yul\":24568:24571   */\n      dup5\n        /* \"#utility.yul\":24562:24566   */\n      dup3\n        /* \"#utility.yul\":24558:24572   */\n      sub\n        /* \"#utility.yul\":24551:24555   */\n      0x20\n        /* \"#utility.yul\":24546:24549   */\n      dup7\n        /* \"#utility.yul\":24542:24556   */\n      add\n        /* \"#utility.yul\":24535:24573   */\n      mstore\n        /* \"#utility.yul\":24594:24667   */\n      tag_985\n        /* \"#utility.yul\":24662:24666   */\n      dup3\n        /* \"#utility.yul\":24648:24660   */\n      dup3\n        /* \"#utility.yul\":24594:24667   */\n      tag_868\n      jump\t// in\n    tag_985:\n        /* \"#utility.yul\":24586:24667   */\n      swap2\n      pop\n        /* \"#utility.yul\":24443:24678   */\n      pop\n        /* \"#utility.yul\":24758:24762   */\n      0x40\n        /* \"#utility.yul\":24751:24756   */\n      dup4\n        /* \"#utility.yul\":24747:24763   */\n      add\n        /* \"#utility.yul\":24741:24764   */\n      mload\n        /* \"#utility.yul\":24777:24840   */\n      tag_986\n        /* \"#utility.yul\":24834:24838   */\n      0x40\n        /* \"#utility.yul\":24829:24832   */\n      dup7\n        /* \"#utility.yul\":24825:24839   */\n      add\n        /* \"#utility.yul\":24811:24823   */\n      dup3\n        /* \"#utility.yul\":24777:24840   */\n      tag_771\n      jump\t// in\n    tag_986:\n        /* \"#utility.yul\":24688:24850   */\n      pop\n        /* \"#utility.yul\":24934:24938   */\n      0x60\n        /* \"#utility.yul\":24927:24932   */\n      dup4\n        /* \"#utility.yul\":24923:24939   */\n      add\n        /* \"#utility.yul\":24917:24940   */\n      mload\n        /* \"#utility.yul\":24953:25016   */\n      tag_987\n        /* \"#utility.yul\":25010:25014   */\n      0x60\n        /* \"#utility.yul\":25005:25008   */\n      dup7\n        /* \"#utility.yul\":25001:25015   */\n      add\n        /* \"#utility.yul\":24987:24999   */\n      dup3\n        /* \"#utility.yul\":24953:25016   */\n      tag_966\n      jump\t// in\n    tag_987:\n        /* \"#utility.yul\":24860:25026   */\n      pop\n        /* \"#utility.yul\":25116:25120   */\n      0x80\n        /* \"#utility.yul\":25109:25114   */\n      dup4\n        /* \"#utility.yul\":25105:25121   */\n      add\n        /* \"#utility.yul\":25099:25122   */\n      mload\n        /* \"#utility.yul\":25135:25198   */\n      tag_988\n        /* \"#utility.yul\":25192:25196   */\n      0x80\n        /* \"#utility.yul\":25187:25190   */\n      dup7\n        /* \"#utility.yul\":25183:25197   */\n      add\n        /* \"#utility.yul\":25169:25181   */\n      dup3\n        /* \"#utility.yul\":25135:25198   */\n      tag_966\n      jump\t// in\n    tag_988:\n        /* \"#utility.yul\":25036:25208   */\n      pop\n        /* \"#utility.yul\":25298:25302   */\n      0xa0\n        /* \"#utility.yul\":25291:25296   */\n      dup4\n        /* \"#utility.yul\":25287:25303   */\n      add\n        /* \"#utility.yul\":25281:25304   */\n      mload\n        /* \"#utility.yul\":25317:25380   */\n      tag_989\n        /* \"#utility.yul\":25374:25378   */\n      0xa0\n        /* \"#utility.yul\":25369:25372   */\n      dup7\n        /* \"#utility.yul\":25365:25379   */\n      add\n        /* \"#utility.yul\":25351:25363   */\n      dup3\n        /* \"#utility.yul\":25317:25380   */\n      tag_966\n      jump\t// in\n    tag_989:\n        /* \"#utility.yul\":25218:25390   */\n      pop\n        /* \"#utility.yul\":25477:25481   */\n      0xc0\n        /* \"#utility.yul\":25470:25475   */\n      dup4\n        /* \"#utility.yul\":25466:25482   */\n      add\n        /* \"#utility.yul\":25460:25483   */\n      mload\n        /* \"#utility.yul\":25496:25559   */\n      tag_990\n        /* \"#utility.yul\":25553:25557   */\n      0xc0\n        /* \"#utility.yul\":25548:25551   */\n      dup7\n        /* \"#utility.yul\":25544:25558   */\n      add\n        /* \"#utility.yul\":25530:25542   */\n      dup3\n        /* \"#utility.yul\":25496:25559   */\n      tag_966\n      jump\t// in\n    tag_990:\n        /* \"#utility.yul\":25400:25569   */\n      pop\n        /* \"#utility.yul\":25586:25590   */\n      dup1\n        /* \"#utility.yul\":25579:25590   */\n      swap2\n      pop\n        /* \"#utility.yul\":24152:25596   */\n      pop\n      swap3\n      swap2\n      pop\n      pop\n      jump\t// out\n        /* \"#utility.yul\":25602:25710   */\n    tag_966:\n        /* \"#utility.yul\":25679:25703   */\n      tag_992\n        /* \"#utility.yul\":25697:25702   */\n      dup2\n        /* \"#utility.yul\":25679:25703   */\n      tag_993\n      jump\t// in\n    tag_992:\n        /* \"#utility.yul\":25674:25677   */\n      dup3\n        /* \"#utility.yul\":25667:25704   */\n      mstore\n        /* \"#utility.yul\":25657:25710   */\n      pop\n      pop\n      jump\t// out\n        /* \"#utility.yul\":25716:25834   */\n    tag_994:\n        /* \"#utility.yul\":25803:25827   */\n      tag_996\n        /* \"#utility.yul\":25821:25826   */\n      dup2\n        /* \"#utility.yul\":25803:25827   */\n      tag_993\n      jump\t// in\n    tag_996:\n        /* \"#utility.yul\":25798:25801   */\n      dup3\n        /* \"#utility.yul\":25791:25828   */\n      mstore\n        /* \"#utility.yul\":25781:25834   */\n      pop\n      pop\n      jump\t// out\n        /* \"#utility.yul\":25840:26115   */\n    tag_260:\n        /* \"#utility.yul\":25972:25975   */\n      0x00\n        /* \"#utility.yul\":25994:26089   */\n      tag_998\n        /* \"#utility.yul\":26085:26088   */\n      dup3\n        /* \"#utility.yul\":26076:26082   */\n      dup5\n        /* \"#utility.yul\":25994:26089   */\n      tag_885\n      jump\t// in\n    tag_998:\n        /* \"#utility.yul\":25987:26089   */\n      swap2\n      pop\n        /* \"#utility.yul\":26106:26109   */\n      dup2\n        /* \"#utility.yul\":26099:26109   */\n      swap1\n      pop\n        /* \"#utility.yul\":25976:26115   */\n      swap3\n      swap2\n      pop\n      pop\n      jump\t// out\n        /* \"#utility.yul\":26121:26398   */\n    tag_328:\n        /* \"#utility.yul\":26254:26257   */\n      0x00\n        /* \"#utility.yul\":26276:26372   */\n      tag_1000\n        /* \"#utility.yul\":26368:26371   */\n      dup3\n        /* \"#utility.yul\":26359:26365   */\n      dup5\n        /* \"#utility.yul\":26276:26372   */\n      tag_891\n      jump\t// in\n    tag_1000:\n        /* \"#utility.yul\":26269:26372   */\n      swap2\n      pop\n        /* \"#utility.yul\":26389:26392   */\n      dup2\n        /* \"#utility.yul\":26382:26392   */\n      swap1\n      pop\n        /* \"#utility.yul\":26258:26398   */\n      swap3\n      swap2\n      pop\n      pop\n      jump\t// out\n        /* \"#utility.yul\":26404:27631   */\n    tag_546:\n        /* \"#utility.yul\":26884:26887   */\n      0x00\n        /* \"#utility.yul\":26906:27054   */\n      tag_1002\n        /* \"#utility.yul\":27050:27053   */\n      dup3\n        /* \"#utility.yul\":26906:27054   */\n      tag_925\n      jump\t// in\n    tag_1002:\n        /* \"#utility.yul\":26899:27054   */\n      swap2\n      pop\n        /* \"#utility.yul\":27071:27166   */\n      tag_1003\n        /* \"#utility.yul\":27162:27165   */\n      dup3\n        /* \"#utility.yul\":27153:27159   */\n      dup6\n        /* \"#utility.yul\":27071:27166   */\n      tag_885\n      jump\t// in\n    tag_1003:\n        /* \"#utility.yul\":27064:27166   */\n      swap2\n      pop\n        /* \"#utility.yul\":27183:27331   */\n      tag_1004\n        /* \"#utility.yul\":27327:27330   */\n      dup3\n        /* \"#utility.yul\":27183:27331   */\n      tag_915\n      jump\t// in\n    tag_1004:\n        /* \"#utility.yul\":27176:27331   */\n      swap2\n      pop\n        /* \"#utility.yul\":27348:27440   */\n      tag_1005\n        /* \"#utility.yul\":27436:27439   */\n      dup3\n        /* \"#utility.yul\":27427:27433   */\n      dup5\n        /* \"#utility.yul\":27348:27440   */\n      tag_903\n      jump\t// in\n    tag_1005:\n        /* \"#utility.yul\":27341:27440   */\n      swap2\n      pop\n        /* \"#utility.yul\":27457:27605   */\n      tag_1006\n        /* \"#utility.yul\":27601:27604   */\n      dup3\n        /* \"#utility.yul\":27457:27605   */\n      tag_935\n      jump\t// in\n    tag_1006:\n        /* \"#utility.yul\":27450:27605   */\n      swap2\n      pop\n        /* \"#utility.yul\":27622:27625   */\n      dup2\n        /* \"#utility.yul\":27615:27625   */\n      swap1\n      pop\n        /* \"#utility.yul\":26888:27631   */\n      swap4\n      swap3\n      pop\n      pop\n      pop\n      jump\t// out\n        /* \"#utility.yul\":27637:28606   */\n    tag_339:\n        /* \"#utility.yul\":28020:28023   */\n      0x00\n        /* \"#utility.yul\":28042:28190   */\n      tag_1008\n        /* \"#utility.yul\":28186:28189   */\n      dup3\n        /* \"#utility.yul\":28042:28190   */\n      tag_925\n      jump\t// in\n    tag_1008:\n        /* \"#utility.yul\":28035:28190   */\n      swap2\n      pop\n        /* \"#utility.yul\":28207:28302   */\n      tag_1009\n        /* \"#utility.yul\":28298:28301   */\n      dup3\n        /* \"#utility.yul\":28289:28295   */\n      dup6\n        /* \"#utility.yul\":28207:28302   */\n      tag_885\n      jump\t// in\n    tag_1009:\n        /* \"#utility.yul\":28200:28302   */\n      swap2\n      pop\n        /* \"#utility.yul\":28319:28467   */\n      tag_1010\n        /* \"#utility.yul\":28463:28466   */\n      dup3\n        /* \"#utility.yul\":28319:28467   */\n      tag_930\n      jump\t// in\n    tag_1010:\n        /* \"#utility.yul\":28312:28467   */\n      swap2\n      pop\n        /* \"#utility.yul\":28484:28580   */\n      tag_1011\n        /* \"#utility.yul\":28576:28579   */\n      dup3\n        /* \"#utility.yul\":28567:28573   */\n      dup5\n        /* \"#utility.yul\":28484:28580   */\n      tag_891\n      jump\t// in\n    tag_1011:\n        /* \"#utility.yul\":28477:28580   */\n      swap2\n      pop\n        /* \"#utility.yul\":28597:28600   */\n      dup2\n        /* \"#utility.yul\":28590:28600   */\n      swap1\n      pop\n        /* \"#utility.yul\":28024:28606   */\n      swap4\n      swap3\n      pop\n      pop\n      pop\n      jump\t// out\n        /* \"#utility.yul\":28612:29419   */\n    tag_313:\n        /* \"#utility.yul\":28946:28949   */\n      0x00\n        /* \"#utility.yul\":28968:29116   */\n      tag_1013\n        /* \"#utility.yul\":29112:29115   */\n      dup3\n        /* \"#utility.yul\":28968:29116   */\n      tag_925\n      jump\t// in\n    tag_1013:\n        /* \"#utility.yul\":28961:29116   */\n      swap2\n      pop\n        /* \"#utility.yul\":29133:29228   */\n      tag_1014\n        /* \"#utility.yul\":29224:29227   */\n      dup3\n        /* \"#utility.yul\":29215:29221   */\n      dup5\n        /* \"#utility.yul\":29133:29228   */\n      tag_885\n      jump\t// in\n    tag_1014:\n        /* \"#utility.yul\":29126:29228   */\n      swap2\n      pop\n        /* \"#utility.yul\":29245:29393   */\n      tag_1015\n        /* \"#utility.yul\":29389:29392   */\n      dup3\n        /* \"#utility.yul\":29245:29393   */\n      tag_940\n      jump\t// in\n    tag_1015:\n        /* \"#utility.yul\":29238:29393   */\n      swap2\n      pop\n        /* \"#utility.yul\":29410:29413   */\n      dup2\n        /* \"#utility.yul\":29403:29413   */\n      swap1\n      pop\n        /* \"#utility.yul\":28950:29419   */\n      swap3\n      swap2\n      pop\n      pop\n      jump\t// out\n        /* \"#utility.yul\":29425:30498   */\n    tag_598:\n        /* \"#utility.yul\":29860:29863   */\n      0x00\n        /* \"#utility.yul\":29882:30030   */\n      tag_1017\n        /* \"#utility.yul\":30026:30029   */\n      dup3\n        /* \"#utility.yul\":29882:30030   */\n      tag_925\n      jump\t// in\n    tag_1017:\n        /* \"#utility.yul\":29875:30030   */\n      swap2\n      pop\n        /* \"#utility.yul\":30047:30142   */\n      tag_1018\n        /* \"#utility.yul\":30138:30141   */\n      dup3\n        /* \"#utility.yul\":30129:30135   */\n      dup5\n        /* \"#utility.yul\":30047:30142   */\n      tag_885\n      jump\t// in\n    tag_1018:\n        /* \"#utility.yul\":30040:30142   */\n      swap2\n      pop\n        /* \"#utility.yul\":30159:30307   */\n      tag_1019\n        /* \"#utility.yul\":30303:30306   */\n      dup3\n        /* \"#utility.yul\":30159:30307   */\n      tag_945\n      jump\t// in\n    tag_1019:\n        /* \"#utility.yul\":30152:30307   */\n      swap2\n      pop\n        /* \"#utility.yul\":30324:30472   */\n      tag_1020\n        /* \"#utility.yul\":30468:30471   */\n      dup3\n        /* \"#utility.yul\":30324:30472   */\n      tag_920\n      jump\t// in\n    tag_1020:\n        /* \"#utility.yul\":30317:30472   */\n      swap2\n      pop\n        /* \"#utility.yul\":30489:30492   */\n      dup2\n        /* \"#utility.yul\":30482:30492   */\n      swap1\n      pop\n        /* \"#utility.yul\":29864:30498   */\n      swap3\n      swap2\n      pop\n      pop\n      jump\t// out\n        /* \"#utility.yul\":30504:31311   */\n    tag_512:\n        /* \"#utility.yul\":30838:30841   */\n      0x00\n        /* \"#utility.yul\":30860:31008   */\n      tag_1022\n        /* \"#utility.yul\":31004:31007   */\n      dup3\n        /* \"#utility.yul\":30860:31008   */\n      tag_925\n      jump\t// in\n    tag_1022:\n        /* \"#utility.yul\":30853:31008   */\n      swap2\n      pop\n        /* \"#utility.yul\":31025:31120   */\n      tag_1023\n        /* \"#utility.yul\":31116:31119   */\n      dup3\n        /* \"#utility.yul\":31107:31113   */\n      dup5\n        /* \"#utility.yul\":31025:31120   */\n      tag_885\n      jump\t// in\n    tag_1023:\n        /* \"#utility.yul\":31018:31120   */\n      swap2\n      pop\n        /* \"#utility.yul\":31137:31285   */\n      tag_1024\n        /* \"#utility.yul\":31281:31284   */\n      dup3\n        /* \"#utility.yul\":31137:31285   */\n      tag_950\n      jump\t// in\n    tag_1024:\n        /* \"#utility.yul\":31130:31285   */\n      swap2\n      pop\n        /* \"#utility.yul\":31302:31305   */\n      dup2\n        /* \"#utility.yul\":31295:31305   */\n      swap1\n      pop\n        /* \"#utility.yul\":30842:31311   */\n      swap3\n      swap2\n      pop\n      pop\n      jump\t// out\n        /* \"#utility.yul\":31317:31539   */\n    tag_41:\n        /* \"#utility.yul\":31410:31414   */\n      0x00\n        /* \"#utility.yul\":31448:31450   */\n      0x20\n        /* \"#utility.yul\":31437:31446   */\n      dup3\n        /* \"#utility.yul\":31433:31451   */\n      add\n        /* \"#utility.yul\":31425:31451   */\n      swap1\n      pop\n        /* \"#utility.yul\":31461:31532   */\n      tag_1026\n        /* \"#utility.yul\":31529:31530   */\n      0x00\n        /* \"#utility.yul\":31518:31527   */\n      dup4\n        /* \"#utility.yul\":31514:31531   */\n      add\n        /* \"#utility.yul\":31505:31511   */\n      dup5\n        /* \"#utility.yul\":31461:31532   */\n      tag_791\n      jump\t// in\n    tag_1026:\n        /* \"#utility.yul\":31415:31539   */\n      swap3\n      swap2\n      pop\n      pop\n      jump\t// out\n        /* \"#utility.yul\":31545:31918   */\n    tag_94:\n        /* \"#utility.yul\":31688:31692   */\n      0x00\n        /* \"#utility.yul\":31726:31728   */\n      0x20\n        /* \"#utility.yul\":31715:31724   */\n      dup3\n        /* \"#utility.yul\":31711:31729   */\n      add\n        /* \"#utility.yul\":31703:31729   */\n      swap1\n      pop\n        /* \"#utility.yul\":31775:31784   */\n      dup2\n        /* \"#utility.yul\":31769:31773   */\n      dup2\n        /* \"#utility.yul\":31765:31785   */\n      sub\n        /* \"#utility.yul\":31761:31762   */\n      0x00\n        /* \"#utility.yul\":31750:31759   */\n      dup4\n        /* \"#utility.yul\":31746:31763   */\n      add\n        /* \"#utility.yul\":31739:31786   */\n      mstore\n        /* \"#utility.yul\":31803:31911   */\n      tag_1028\n        /* \"#utility.yul\":31906:31910   */\n      dup2\n        /* \"#utility.yul\":31897:31903   */\n      dup5\n        /* \"#utility.yul\":31803:31911   */\n      tag_794\n      jump\t// in\n    tag_1028:\n        /* \"#utility.yul\":31795:31911   */\n      swap1\n      pop\n        /* \"#utility.yul\":31693:31918   */\n      swap3\n      swap2\n      pop\n      pop\n      jump\t// out\n        /* \"#utility.yul\":31924:32409   */\n    tag_122:\n        /* \"#utility.yul\":32123:32127   */\n      0x00\n        /* \"#utility.yul\":32161:32163   */\n      0x20\n        /* \"#utility.yul\":32150:32159   */\n      dup3\n        /* \"#utility.yul\":32146:32164   */\n      add\n        /* \"#utility.yul\":32138:32164   */\n      swap1\n      pop\n        /* \"#utility.yul\":32210:32219   */\n      dup2\n        /* \"#utility.yul\":32204:32208   */\n      dup2\n        /* \"#utility.yul\":32200:32220   */\n      sub\n        /* \"#utility.yul\":32196:32197   */\n      0x00\n        /* \"#utility.yul\":32185:32194   */\n      dup4\n        /* \"#utility.yul\":32181:32198   */\n      add\n        /* \"#utility.yul\":32174:32221   */\n      mstore\n        /* \"#utility.yul\":32238:32402   */\n      tag_1030\n        /* \"#utility.yul\":32397:32401   */\n      dup2\n        /* \"#utility.yul\":32388:32394   */\n      dup5\n        /* \"#utility.yul\":32238:32402   */\n      tag_808\n      jump\t// in\n    tag_1030:\n        /* \"#utility.yul\":32230:32402   */\n      swap1\n      pop\n        /* \"#utility.yul\":32128:32409   */\n      swap3\n      swap2\n      pop\n      pop\n      jump\t// out\n        /* \"#utility.yul\":32415:32868   */\n    tag_138:\n        /* \"#utility.yul\":32598:32602   */\n      0x00\n        /* \"#utility.yul\":32636:32638   */\n      0x20\n        /* \"#utility.yul\":32625:32634   */\n      dup3\n        /* \"#utility.yul\":32621:32639   */\n      add\n        /* \"#utility.yul\":32613:32639   */\n      swap1\n      pop\n        /* \"#utility.yul\":32685:32694   */\n      dup2\n        /* \"#utility.yul\":32679:32683   */\n      dup2\n        /* \"#utility.yul\":32675:32695   */\n      sub\n        /* \"#utility.yul\":32671:32672   */\n      0x00\n        /* \"#utility.yul\":32660:32669   */\n      dup4\n        /* \"#utility.yul\":32656:32673   */\n      add\n        /* \"#utility.yul\":32649:32696   */\n      mstore\n        /* \"#utility.yul\":32713:32861   */\n      tag_1032\n        /* \"#utility.yul\":32856:32860   */\n      dup2\n        /* \"#utility.yul\":32847:32853   */\n      dup5\n        /* \"#utility.yul\":32713:32861   */\n      tag_822\n      jump\t// in\n    tag_1032:\n        /* \"#utility.yul\":32705:32861   */\n      swap1\n      pop\n        /* \"#utility.yul\":32603:32868   */\n      swap3\n      swap2\n      pop\n      pop\n      jump\t// out\n        /* \"#utility.yul\":32874:33355   */\n    tag_56:\n        /* \"#utility.yul\":33071:33075   */\n      0x00\n        /* \"#utility.yul\":33109:33111   */\n      0x20\n        /* \"#utility.yul\":33098:33107   */\n      dup3\n        /* \"#utility.yul\":33094:33112   */\n      add\n        /* \"#utility.yul\":33086:33112   */\n      swap1\n      pop\n        /* \"#utility.yul\":33158:33167   */\n      dup2\n        /* \"#utility.yul\":33152:33156   */\n      dup2\n        /* \"#utility.yul\":33148:33168   */\n      sub\n        /* \"#utility.yul\":33144:33145   */\n      0x00\n        /* \"#utility.yul\":33133:33142   */\n      dup4\n        /* \"#utility.yul\":33129:33146   */\n      add\n        /* \"#utility.yul\":33122:33169   */\n      mstore\n        /* \"#utility.yul\":33186:33348   */\n      tag_1034\n        /* \"#utility.yul\":33343:33347   */\n      dup2\n        /* \"#utility.yul\":33334:33340   */\n      dup5\n        /* \"#utility.yul\":33186:33348   */\n      tag_836\n      jump\t// in\n    tag_1034:\n        /* \"#utility.yul\":33178:33348   */\n      swap1\n      pop\n        /* \"#utility.yul\":33076:33355   */\n      swap3\n      swap2\n      pop\n      pop\n      jump\t// out\n        /* \"#utility.yul\":33361:33571   */\n    tag_71:\n        /* \"#utility.yul\":33448:33452   */\n      0x00\n        /* \"#utility.yul\":33486:33488   */\n      0x20\n        /* \"#utility.yul\":33475:33484   */\n      dup3\n        /* \"#utility.yul\":33471:33489   */\n      add\n        /* \"#utility.yul\":33463:33489   */\n      swap1\n      pop\n        /* \"#utility.yul\":33499:33564   */\n      tag_1036\n        /* \"#utility.yul\":33561:33562   */\n      0x00\n        /* \"#utility.yul\":33550:33559   */\n      dup4\n        /* \"#utility.yul\":33546:33563   */\n      add\n        /* \"#utility.yul\":33537:33543   */\n      dup5\n        /* \"#utility.yul\":33499:33564   */\n      tag_864\n      jump\t// in\n    tag_1036:\n        /* \"#utility.yul\":33453:33571   */\n      swap3\n      swap2\n      pop\n      pop\n      jump\t// out\n        /* \"#utility.yul\":33577:33890   */\n    tag_107:\n        /* \"#utility.yul\":33690:33694   */\n      0x00\n        /* \"#utility.yul\":33728:33730   */\n      0x20\n        /* \"#utility.yul\":33717:33726   */\n      dup3\n        /* \"#utility.yul\":33713:33731   */\n      add\n        /* \"#utility.yul\":33705:33731   */\n      swap1\n      pop\n        /* \"#utility.yul\":33777:33786   */\n      dup2\n        /* \"#utility.yul\":33771:33775   */\n      dup2\n        /* \"#utility.yul\":33767:33787   */\n      sub\n        /* \"#utility.yul\":33763:33764   */\n      0x00\n        /* \"#utility.yul\":33752:33761   */\n      dup4\n        /* \"#utility.yul\":33748:33765   */\n      add\n        /* \"#utility.yul\":33741:33788   */\n      mstore\n        /* \"#utility.yul\":33805:33883   */\n      tag_1038\n        /* \"#utility.yul\":33878:33882   */\n      dup2\n        /* \"#utility.yul\":33869:33875   */\n      dup5\n        /* \"#utility.yul\":33805:33883   */\n      tag_878\n      jump\t// in\n    tag_1038:\n        /* \"#utility.yul\":33797:33883   */\n      swap1\n      pop\n        /* \"#utility.yul\":33695:33890   */\n      swap3\n      swap2\n      pop\n      pop\n      jump\t// out\n        /* \"#utility.yul\":33896:34964   */\n    tag_62:\n        /* \"#utility.yul\":34197:34201   */\n      0x00\n        /* \"#utility.yul\":34235:34238   */\n      0xe0\n        /* \"#utility.yul\":34224:34233   */\n      dup3\n        /* \"#utility.yul\":34220:34239   */\n      add\n        /* \"#utility.yul\":34212:34239   */\n      swap1\n      pop\n        /* \"#utility.yul\":34285:34294   */\n      dup2\n        /* \"#utility.yul\":34279:34283   */\n      dup2\n        /* \"#utility.yul\":34275:34295   */\n      sub\n        /* \"#utility.yul\":34271:34272   */\n      0x00\n        /* \"#utility.yul\":34260:34269   */\n      dup4\n        /* \"#utility.yul\":34256:34273   */\n      add\n        /* \"#utility.yul\":34249:34296   */\n      mstore\n        /* \"#utility.yul\":34313:34391   */\n      tag_1040\n        /* \"#utility.yul\":34386:34390   */\n      dup2\n        /* \"#utility.yul\":34377:34383   */\n      dup11\n        /* \"#utility.yul\":34313:34391   */\n      tag_878\n      jump\t// in\n    tag_1040:\n        /* \"#utility.yul\":34305:34391   */\n      swap1\n      pop\n        /* \"#utility.yul\":34438:34447   */\n      dup2\n        /* \"#utility.yul\":34432:34436   */\n      dup2\n        /* \"#utility.yul\":34428:34448   */\n      sub\n        /* \"#utility.yul\":34423:34425   */\n      0x20\n        /* \"#utility.yul\":34412:34421   */\n      dup4\n        /* \"#utility.yul\":34408:34426   */\n      add\n        /* \"#utility.yul\":34401:34449   */\n      mstore\n        /* \"#utility.yul\":34466:34544   */\n      tag_1041\n        /* \"#utility.yul\":34539:34543   */\n      dup2\n        /* \"#utility.yul\":34530:34536   */\n      dup10\n        /* \"#utility.yul\":34466:34544   */\n      tag_878\n      jump\t// in\n    tag_1041:\n        /* \"#utility.yul\":34458:34544   */\n      swap1\n      pop\n        /* \"#utility.yul\":34554:34626   */\n      tag_1042\n        /* \"#utility.yul\":34622:34624   */\n      0x40\n        /* \"#utility.yul\":34611:34620   */\n      dup4\n        /* \"#utility.yul\":34607:34625   */\n      add\n        /* \"#utility.yul\":34598:34604   */\n      dup9\n        /* \"#utility.yul\":34554:34626   */\n      tag_791\n      jump\t// in\n    tag_1042:\n        /* \"#utility.yul\":34636:34708   */\n      tag_1043\n        /* \"#utility.yul\":34704:34706   */\n      0x60\n        /* \"#utility.yul\":34693:34702   */\n      dup4\n        /* \"#utility.yul\":34689:34707   */\n      add\n        /* \"#utility.yul\":34680:34686   */\n      dup8\n        /* \"#utility.yul\":34636:34708   */\n      tag_994\n      jump\t// in\n    tag_1043:\n        /* \"#utility.yul\":34718:34791   */\n      tag_1044\n        /* \"#utility.yul\":34786:34789   */\n      0x80\n        /* \"#utility.yul\":34775:34784   */\n      dup4\n        /* \"#utility.yul\":34771:34790   */\n      add\n        /* \"#utility.yul\":34762:34768   */\n      dup7\n        /* \"#utility.yul\":34718:34791   */\n      tag_994\n      jump\t// in\n    tag_1044:\n        /* \"#utility.yul\":34801:34874   */\n      tag_1045\n        /* \"#utility.yul\":34869:34872   */\n      0xa0\n        /* \"#utility.yul\":34858:34867   */\n      dup4\n        /* \"#utility.yul\":34854:34873   */\n      add\n        /* \"#utility.yul\":34845:34851   */\n      dup6\n        /* \"#utility.yul\":34801:34874   */\n      tag_994\n      jump\t// in\n    tag_1045:\n        /* \"#utility.yul\":34884:34957   */\n      tag_1046\n        /* \"#utility.yul\":34952:34955   */\n      0xc0\n        /* \"#utility.yul\":34941:34950   */\n      dup4\n        /* \"#utility.yul\":34937:34956   */\n      add\n        /* \"#utility.yul\":34928:34934   */\n      dup5\n        /* \"#utility.yul\":34884:34957   */\n      tag_994\n      jump\t// in\n    tag_1046:\n        /* \"#utility.yul\":34202:34964   */\n      swap9\n      swap8\n      pop\n      pop\n      pop\n      pop\n      pop\n      pop\n      pop\n      pop\n      jump\t// out\n        /* \"#utility.yul\":34970:35887   */\n    tag_37:\n        /* \"#utility.yul\":35227:35231   */\n      0x00\n        /* \"#utility.yul\":35265:35268   */\n      0x80\n        /* \"#utility.yul\":35254:35263   */\n      dup3\n        /* \"#utility.yul\":35250:35269   */\n      add\n        /* \"#utility.yul\":35242:35269   */\n      swap1\n      pop\n        /* \"#utility.yul\":35315:35324   */\n      dup2\n        /* \"#utility.yul\":35309:35313   */\n      dup2\n        /* \"#utility.yul\":35305:35325   */\n      sub\n        /* \"#utility.yul\":35301:35302   */\n      0x00\n        /* \"#utility.yul\":35290:35299   */\n      dup4\n        /* \"#utility.yul\":35286:35303   */\n      add\n        /* \"#utility.yul\":35279:35326   */\n      mstore\n        /* \"#utility.yul\":35343:35421   */\n      tag_1048\n        /* \"#utility.yul\":35416:35420   */\n      dup2\n        /* \"#utility.yul\":35407:35413   */\n      dup8\n        /* \"#utility.yul\":35343:35421   */\n      tag_878\n      jump\t// in\n    tag_1048:\n        /* \"#utility.yul\":35335:35421   */\n      swap1\n      pop\n        /* \"#utility.yul\":35468:35477   */\n      dup2\n        /* \"#utility.yul\":35462:35466   */\n      dup2\n        /* \"#utility.yul\":35458:35478   */\n      sub\n        /* \"#utility.yul\":35453:35455   */\n      0x20\n        /* \"#utility.yul\":35442:35451   */\n      dup4\n        /* \"#utility.yul\":35438:35456   */\n      add\n        /* \"#utility.yul\":35431:35479   */\n      mstore\n        /* \"#utility.yul\":35496:35574   */\n      tag_1049\n        /* \"#utility.yul\":35569:35573   */\n      dup2\n        /* \"#utility.yul\":35560:35566   */\n      dup7\n        /* \"#utility.yul\":35496:35574   */\n      tag_878\n      jump\t// in\n    tag_1049:\n        /* \"#utility.yul\":35488:35574   */\n      swap1\n      pop\n        /* \"#utility.yul\":35621:35630   */\n      dup2\n        /* \"#utility.yul\":35615:35619   */\n      dup2\n        /* \"#utility.yul\":35611:35631   */\n      sub\n        /* \"#utility.yul\":35606:35608   */\n      0x40\n        /* \"#utility.yul\":35595:35604   */\n      dup4\n        /* \"#utility.yul\":35591:35609   */\n      add\n        /* \"#utility.yul\":35584:35632   */\n      mstore\n        /* \"#utility.yul\":35649:35727   */\n      tag_1050\n        /* \"#utility.yul\":35722:35726   */\n      dup2\n        /* \"#utility.yul\":35713:35719   */\n      dup6\n        /* \"#utility.yul\":35649:35727   */\n      tag_878\n      jump\t// in\n    tag_1050:\n        /* \"#utility.yul\":35641:35727   */\n      swap1\n      pop\n        /* \"#utility.yul\":35774:35783   */\n      dup2\n        /* \"#utility.yul\":35768:35772   */\n      dup2\n        /* \"#utility.yul\":35764:35784   */\n      sub\n        /* \"#utility.yul\":35759:35761   */\n      0x60\n        /* \"#utility.yul\":35748:35757   */\n      dup4\n        /* \"#utility.yul\":35744:35762   */\n      add\n        /* \"#utility.yul\":35737:35785   */\n      mstore\n        /* \"#utility.yul\":35802:35880   */\n      tag_1051\n        /* \"#utility.yul\":35875:35879   */\n      dup2\n        /* \"#utility.yul\":35866:35872   */\n      dup5\n        /* \"#utility.yul\":35802:35880   */\n      tag_878\n      jump\t// in\n    tag_1051:\n        /* \"#utility.yul\":35794:35880   */\n      swap1\n      pop\n        /* \"#utility.yul\":35232:35887   */\n      swap6\n      swap5\n      pop\n      pop\n      pop\n      pop\n      pop\n      jump\t// out\n        /* \"#utility.yul\":35893:37862   */\n    tag_47:\n        /* \"#utility.yul\":36407:36411   */\n      0x00\n        /* \"#utility.yul\":36445:36448   */\n      0x0160\n        /* \"#utility.yul\":36434:36443   */\n      dup3\n        /* \"#utility.yul\":36430:36449   */\n      add\n        /* \"#utility.yul\":36422:36449   */\n      swap1\n      pop\n        /* \"#utility.yul\":36495:36504   */\n      dup2\n        /* \"#utility.yul\":36489:36493   */\n      dup2\n        /* \"#utility.yul\":36485:36505   */\n      sub\n        /* \"#utility.yul\":36481:36482   */\n      0x00\n        /* \"#utility.yul\":36470:36479   */\n      dup4\n        /* \"#utility.yul\":36466:36483   */\n      add\n        /* \"#utility.yul\":36459:36506   */\n      mstore\n        /* \"#utility.yul\":36523:36601   */\n      tag_1053\n        /* \"#utility.yul\":36596:36600   */\n      dup2\n        /* \"#utility.yul\":36587:36593   */\n      dup15\n        /* \"#utility.yul\":36523:36601   */\n      tag_878\n      jump\t// in\n    tag_1053:\n        /* \"#utility.yul\":36515:36601   */\n      swap1\n      pop\n        /* \"#utility.yul\":36648:36657   */\n      dup2\n        /* \"#utility.yul\":36642:36646   */\n      dup2\n        /* \"#utility.yul\":36638:36658   */\n      sub\n        /* \"#utility.yul\":36633:36635   */\n      0x20\n        /* \"#utility.yul\":36622:36631   */\n      dup4\n        /* \"#utility.yul\":36618:36636   */\n      add\n        /* \"#utility.yul\":36611:36659   */\n      mstore\n        /* \"#utility.yul\":36676:36754   */\n      tag_1054\n        /* \"#utility.yul\":36749:36753   */\n      dup2\n        /* \"#utility.yul\":36740:36746   */\n      dup14\n        /* \"#utility.yul\":36676:36754   */\n      tag_878\n      jump\t// in\n    tag_1054:\n        /* \"#utility.yul\":36668:36754   */\n      swap1\n      pop\n        /* \"#utility.yul\":36801:36810   */\n      dup2\n        /* \"#utility.yul\":36795:36799   */\n      dup2\n        /* \"#utility.yul\":36791:36811   */\n      sub\n        /* \"#utility.yul\":36786:36788   */\n      0x40\n        /* \"#utility.yul\":36775:36784   */\n      dup4\n        /* \"#utility.yul\":36771:36789   */\n      add\n        /* \"#utility.yul\":36764:36812   */\n      mstore\n        /* \"#utility.yul\":36829:36907   */\n      tag_1055\n        /* \"#utility.yul\":36902:36906   */\n      dup2\n        /* \"#utility.yul\":36893:36899   */\n      dup13\n        /* \"#utility.yul\":36829:36907   */\n      tag_878\n      jump\t// in\n    tag_1055:\n        /* \"#utility.yul\":36821:36907   */\n      swap1\n      pop\n        /* \"#utility.yul\":36954:36963   */\n      dup2\n        /* \"#utility.yul\":36948:36952   */\n      dup2\n        /* \"#utility.yul\":36944:36964   */\n      sub\n        /* \"#utility.yul\":36939:36941   */\n      0x60\n        /* \"#utility.yul\":36928:36937   */\n      dup4\n        /* \"#utility.yul\":36924:36942   */\n      add\n        /* \"#utility.yul\":36917:36965   */\n      mstore\n        /* \"#utility.yul\":36982:37060   */\n      tag_1056\n        /* \"#utility.yul\":37055:37059   */\n      dup2\n        /* \"#utility.yul\":37046:37052   */\n      dup12\n        /* \"#utility.yul\":36982:37060   */\n      tag_878\n      jump\t// in\n    tag_1056:\n        /* \"#utility.yul\":36974:37060   */\n      swap1\n      pop\n        /* \"#utility.yul\":37070:37143   */\n      tag_1057\n        /* \"#utility.yul\":37138:37141   */\n      0x80\n        /* \"#utility.yul\":37127:37136   */\n      dup4\n        /* \"#utility.yul\":37123:37142   */\n      add\n        /* \"#utility.yul\":37114:37120   */\n      dup11\n        /* \"#utility.yul\":37070:37143   */\n      tag_994\n      jump\t// in\n    tag_1057:\n        /* \"#utility.yul\":37191:37200   */\n      dup2\n        /* \"#utility.yul\":37185:37189   */\n      dup2\n        /* \"#utility.yul\":37181:37201   */\n      sub\n        /* \"#utility.yul\":37175:37178   */\n      0xa0\n        /* \"#utility.yul\":37164:37173   */\n      dup4\n        /* \"#utility.yul\":37160:37179   */\n      add\n        /* \"#utility.yul\":37153:37202   */\n      mstore\n        /* \"#utility.yul\":37219:37297   */\n      tag_1058\n        /* \"#utility.yul\":37292:37296   */\n      dup2\n        /* \"#utility.yul\":37283:37289   */\n      dup10\n        /* \"#utility.yul\":37219:37297   */\n      tag_878\n      jump\t// in\n    tag_1058:\n        /* \"#utility.yul\":37211:37297   */\n      swap1\n      pop\n        /* \"#utility.yul\":37307:37380   */\n      tag_1059\n        /* \"#utility.yul\":37375:37378   */\n      0xc0\n        /* \"#utility.yul\":37364:37373   */\n      dup4\n        /* \"#utility.yul\":37360:37379   */\n      add\n        /* \"#utility.yul\":37351:37357   */\n      dup9\n        /* \"#utility.yul\":37307:37380   */\n      tag_791\n      jump\t// in\n    tag_1059:\n        /* \"#utility.yul\":37390:37463   */\n      tag_1060\n        /* \"#utility.yul\":37458:37461   */\n      0xe0\n        /* \"#utility.yul\":37447:37456   */\n      dup4\n        /* \"#utility.yul\":37443:37462   */\n      add\n        /* \"#utility.yul\":37434:37440   */\n      dup8\n        /* \"#utility.yul\":37390:37463   */\n      tag_994\n      jump\t// in\n    tag_1060:\n        /* \"#utility.yul\":37511:37520   */\n      dup2\n        /* \"#utility.yul\":37505:37509   */\n      dup2\n        /* \"#utility.yul\":37501:37521   */\n      sub\n        /* \"#utility.yul\":37495:37498   */\n      0x0100\n        /* \"#utility.yul\":37484:37493   */\n      dup4\n        /* \"#utility.yul\":37480:37499   */\n      add\n        /* \"#utility.yul\":37473:37522   */\n      mstore\n        /* \"#utility.yul\":37539:37617   */\n      tag_1061\n        /* \"#utility.yul\":37612:37616   */\n      dup2\n        /* \"#utility.yul\":37603:37609   */\n      dup7\n        /* \"#utility.yul\":37539:37617   */\n      tag_878\n      jump\t// in\n    tag_1061:\n        /* \"#utility.yul\":37531:37617   */\n      swap1\n      pop\n        /* \"#utility.yul\":37665:37674   */\n      dup2\n        /* \"#utility.yul\":37659:37663   */\n      dup2\n        /* \"#utility.yul\":37655:37675   */\n      sub\n        /* \"#utility.yul\":37649:37652   */\n      0x0120\n        /* \"#utility.yul\":37638:37647   */\n      dup4\n        /* \"#utility.yul\":37634:37653   */\n      add\n        /* \"#utility.yul\":37627:37676   */\n      mstore\n        /* \"#utility.yul\":37693:37771   */\n      tag_1062\n        /* \"#utility.yul\":37766:37770   */\n      dup2\n        /* \"#utility.yul\":37757:37763   */\n      dup6\n        /* \"#utility.yul\":37693:37771   */\n      tag_878\n      jump\t// in\n    tag_1062:\n        /* \"#utility.yul\":37685:37771   */\n      swap1\n      pop\n        /* \"#utility.yul\":37781:37855   */\n      tag_1063\n        /* \"#utility.yul\":37850:37853   */\n      0x0140\n        /* \"#utility.yul\":37839:37848   */\n      dup4\n        /* \"#utility.yul\":37835:37854   */\n      add\n        /* \"#utility.yul\":37825:37832   */\n      dup5\n        /* \"#utility.yul\":37781:37855   */\n      tag_994\n      jump\t// in\n    tag_1063:\n        /* \"#utility.yul\":36412:37862   */\n      swap13\n      swap12\n      pop\n      pop\n      pop\n      pop\n      pop\n      pop\n      pop\n      pop\n      pop\n      pop\n      pop\n      pop\n      jump\t// out\n        /* \"#utility.yul\":37868:38237   */\n    tag_67:\n        /* \"#utility.yul\":38009:38013   */\n      0x00\n        /* \"#utility.yul\":38047:38049   */\n      0x20\n        /* \"#utility.yul\":38036:38045   */\n      dup3\n        /* \"#utility.yul\":38032:38050   */\n      add\n        /* \"#utility.yul\":38024:38050   */\n      swap1\n      pop\n        /* \"#utility.yul\":38096:38105   */\n      dup2\n        /* \"#utility.yul\":38090:38094   */\n      dup2\n        /* \"#utility.yul\":38086:38106   */\n      sub\n        /* \"#utility.yul\":38082:38083   */\n      0x00\n        /* \"#utility.yul\":38071:38080   */\n      dup4\n        /* \"#utility.yul\":38067:38084   */\n      add\n        /* \"#utility.yul\":38060:38107   */\n      mstore\n        /* \"#utility.yul\":38124:38230   */\n      tag_1065\n        /* \"#utility.yul\":38225:38229   */\n      dup2\n        /* \"#utility.yul\":38216:38222   */\n      dup5\n        /* \"#utility.yul\":38124:38230   */\n      tag_955\n      jump\t// in\n    tag_1065:\n        /* \"#utility.yul\":38116:38230   */\n      swap1\n      pop\n        /* \"#utility.yul\":38014:38237   */\n      swap3\n      swap2\n      pop\n      pop\n      jump\t// out\n        /* \"#utility.yul\":38243:38465   */\n    tag_76:\n        /* \"#utility.yul\":38336:38340   */\n      0x00\n        /* \"#utility.yul\":38374:38376   */\n      0x20\n        /* \"#utility.yul\":38363:38372   */\n      dup3\n        /* \"#utility.yul\":38359:38377   */\n      add\n        /* \"#utility.yul\":38351:38377   */\n      swap1\n      pop\n        /* \"#utility.yul\":38387:38458   */\n      tag_1067\n        /* \"#utility.yul\":38455:38456   */\n      0x00\n        /* \"#utility.yul\":38444:38453   */\n      dup4\n        /* \"#utility.yul\":38440:38457   */\n      add\n        /* \"#utility.yul\":38431:38437   */\n      dup5\n        /* \"#utility.yul\":38387:38458   */\n      tag_994\n      jump\t// in\n    tag_1067:\n        /* \"#utility.yul\":38341:38465   */\n      swap3\n      swap2\n      pop\n      pop\n      jump\t// out\n        /* \"#utility.yul\":38471:39317   */\n    tag_52:\n        /* \"#utility.yul\":38716:38720   */\n      0x00\n        /* \"#utility.yul\":38754:38757   */\n      0xa0\n        /* \"#utility.yul\":38743:38752   */\n      dup3\n        /* \"#utility.yul\":38739:38758   */\n      add\n        /* \"#utility.yul\":38731:38758   */\n      swap1\n      pop\n        /* \"#utility.yul\":38768:38839   */\n      tag_1069\n        /* \"#utility.yul\":38836:38837   */\n      0x00\n        /* \"#utility.yul\":38825:38834   */\n      dup4\n        /* \"#utility.yul\":38821:38838   */\n      add\n        /* \"#utility.yul\":38812:38818   */\n      dup9\n        /* \"#utility.yul\":38768:38839   */\n      tag_994\n      jump\t// in\n    tag_1069:\n        /* \"#utility.yul\":38886:38895   */\n      dup2\n        /* \"#utility.yul\":38880:38884   */\n      dup2\n        /* \"#utility.yul\":38876:38896   */\n      sub\n        /* \"#utility.yul\":38871:38873   */\n      0x20\n        /* \"#utility.yul\":38860:38869   */\n      dup4\n        /* \"#utility.yul\":38856:38874   */\n      add\n        /* \"#utility.yul\":38849:38897   */\n      mstore\n        /* \"#utility.yul\":38914:38992   */\n      tag_1070\n        /* \"#utility.yul\":38987:38991   */\n      dup2\n        /* \"#utility.yul\":38978:38984   */\n      dup8\n        /* \"#utility.yul\":38914:38992   */\n      tag_878\n      jump\t// in\n    tag_1070:\n        /* \"#utility.yul\":38906:38992   */\n      swap1\n      pop\n        /* \"#utility.yul\":39039:39048   */\n      dup2\n        /* \"#utility.yul\":39033:39037   */\n      dup2\n        /* \"#utility.yul\":39029:39049   */\n      sub\n        /* \"#utility.yul\":39024:39026   */\n      0x40\n        /* \"#utility.yul\":39013:39022   */\n      dup4\n        /* \"#utility.yul\":39009:39027   */\n      add\n        /* \"#utility.yul\":39002:39050   */\n      mstore\n        /* \"#utility.yul\":39067:39145   */\n      tag_1071\n        /* \"#utility.yul\":39140:39144   */\n      dup2\n        /* \"#utility.yul\":39131:39137   */\n      dup7\n        /* \"#utility.yul\":39067:39145   */\n      tag_878\n      jump\t// in\n    tag_1071:\n        /* \"#utility.yul\":39059:39145   */\n      swap1\n      pop\n        /* \"#utility.yul\":39155:39227   */\n      tag_1072\n        /* \"#utility.yul\":39223:39225   */\n      0x60\n        /* \"#utility.yul\":39212:39221   */\n      dup4\n        /* \"#utility.yul\":39208:39226   */\n      add\n        /* \"#utility.yul\":39199:39205   */\n      dup6\n        /* \"#utility.yul\":39155:39227   */\n      tag_994\n      jump\t// in\n    tag_1072:\n        /* \"#utility.yul\":39237:39310   */\n      tag_1073\n        /* \"#utility.yul\":39305:39308   */\n      0x80\n        /* \"#utility.yul\":39294:39303   */\n      dup4\n        /* \"#utility.yul\":39290:39309   */\n      add\n        /* \"#utility.yul\":39281:39287   */\n      dup5\n        /* \"#utility.yul\":39237:39310   */\n      tag_994\n      jump\t// in\n    tag_1073:\n        /* \"#utility.yul\":38721:39317   */\n      swap7\n      swap6\n      pop\n      pop\n      pop\n      pop\n      pop\n      pop\n      jump\t// out\n        /* \"#utility.yul\":39323:39452   */\n    tag_716:\n        /* \"#utility.yul\":39357:39363   */\n      0x00\n        /* \"#utility.yul\":39384:39404   */\n      tag_1075\n      tag_1076\n      jump\t// in\n    tag_1075:\n        /* \"#utility.yul\":39374:39404   */\n      swap1\n      pop\n        /* \"#utility.yul\":39413:39446   */\n      tag_1077\n        /* \"#utility.yul\":39441:39445   */\n      dup3\n        /* \"#utility.yul\":39433:39439   */\n      dup3\n        /* \"#utility.yul\":39413:39446   */\n      tag_1078\n      jump\t// in\n    tag_1077:\n        /* \"#utility.yul\":39364:39452   */\n      swap2\n      swap1\n      pop\n      jump\t// out\n        /* \"#utility.yul\":39458:39533   */\n    tag_1076:\n        /* \"#utility.yul\":39491:39497   */\n      0x00\n        /* \"#utility.yul\":39524:39526   */\n      0x40\n        /* \"#utility.yul\":39518:39527   */\n      mload\n        /* \"#utility.yul\":39508:39527   */\n      swap1\n      pop\n        /* \"#utility.yul\":39498:39533   */\n      swap1\n      jump\t// out\n        /* \"#utility.yul\":39539:39847   */\n    tag_715:\n        /* \"#utility.yul\":39601:39605   */\n      0x00\n        /* \"#utility.yul\":39691:39709   */\n      0xffffffffffffffff\n        /* \"#utility.yul\":39683:39689   */\n      dup3\n        /* \"#utility.yul\":39680:39710   */\n      gt\n        /* \"#utility.yul\":39677:39679   */\n      iszero\n      tag_1081\n      jumpi\n        /* \"#utility.yul\":39713:39731   */\n      tag_1082\n      tag_1083\n      jump\t// in\n    tag_1082:\n        /* \"#utility.yul\":39677:39679   */\n    tag_1081:\n        /* \"#utility.yul\":39751:39780   */\n      tag_1084\n        /* \"#utility.yul\":39773:39779   */\n      dup3\n        /* \"#utility.yul\":39751:39780   */\n      tag_877\n      jump\t// in\n    tag_1084:\n        /* \"#utility.yul\":39743:39780   */\n      swap1\n      pop\n        /* \"#utility.yul\":39835:39839   */\n      0x20\n        /* \"#utility.yul\":39829:39833   */\n      dup2\n        /* \"#utility.yul\":39825:39840   */\n      add\n        /* \"#utility.yul\":39817:39840   */\n      swap1\n      pop\n        /* \"#utility.yul\":39606:39847   */\n      swap2\n      swap1\n      pop\n      jump\t// out\n        /* \"#utility.yul\":39853:39985   */\n    tag_801:\n        /* \"#utility.yul\":39920:39924   */\n      0x00\n        /* \"#utility.yul\":39943:39946   */\n      dup2\n        /* \"#utility.yul\":39935:39946   */\n      swap1\n      pop\n        /* \"#utility.yul\":39973:39977   */\n      0x20\n        /* \"#utility.yul\":39968:39971   */\n      dup3\n        /* \"#utility.yul\":39964:39978   */\n      add\n        /* \"#utility.yul\":39956:39978   */\n      swap1\n      pop\n        /* \"#utility.yul\":39925:39985   */\n      swap2\n      swap1\n      pop\n      jump\t// out\n        /* \"#utility.yul\":39991:40151   */\n    tag_815:\n        /* \"#utility.yul\":40086:40090   */\n      0x00\n        /* \"#utility.yul\":40109:40112   */\n      dup2\n        /* \"#utility.yul\":40101:40112   */\n      swap1\n      pop\n        /* \"#utility.yul\":40139:40143   */\n      0x20\n        /* \"#utility.yul\":40134:40137   */\n      dup3\n        /* \"#utility.yul\":40130:40144   */\n      add\n        /* \"#utility.yul\":40122:40144   */\n      swap1\n      pop\n        /* \"#utility.yul\":40091:40151   */\n      swap2\n      swap1\n      pop\n      jump\t// out\n        /* \"#utility.yul\":40157:40309   */\n    tag_829:\n        /* \"#utility.yul\":40244:40248   */\n      0x00\n        /* \"#utility.yul\":40267:40270   */\n      dup2\n        /* \"#utility.yul\":40259:40270   */\n      swap1\n      pop\n        /* \"#utility.yul\":40297:40301   */\n      0x20\n        /* \"#utility.yul\":40292:40295   */\n      dup3\n        /* \"#utility.yul\":40288:40302   */\n      add\n        /* \"#utility.yul\":40280:40302   */\n      swap1\n      pop\n        /* \"#utility.yul\":40249:40309   */\n      swap2\n      swap1\n      pop\n      jump\t// out\n        /* \"#utility.yul\":40315:40474   */\n    tag_843:\n        /* \"#utility.yul\":40409:40413   */\n      0x00\n        /* \"#utility.yul\":40432:40435   */\n      dup2\n        /* \"#utility.yul\":40424:40435   */\n      swap1\n      pop\n        /* \"#utility.yul\":40462:40466   */\n      0x20\n        /* \"#utility.yul\":40457:40460   */\n      dup3\n        /* \"#utility.yul\":40453:40467   */\n      add\n        /* \"#utility.yul\":40445:40467   */\n      swap1\n      pop\n        /* \"#utility.yul\":40414:40474   */\n      swap2\n      swap1\n      pop\n      jump\t// out\n        /* \"#utility.yul\":40480:40632   */\n    tag_857:\n        /* \"#utility.yul\":40567:40571   */\n      0x00\n        /* \"#utility.yul\":40590:40593   */\n      dup2\n        /* \"#utility.yul\":40582:40593   */\n      swap1\n      pop\n        /* \"#utility.yul\":40620:40624   */\n      0x20\n        /* \"#utility.yul\":40615:40618   */\n      dup3\n        /* \"#utility.yul\":40611:40625   */\n      add\n        /* \"#utility.yul\":40603:40625   */\n      swap1\n      pop\n        /* \"#utility.yul\":40572:40632   */\n      swap2\n      swap1\n      pop\n      jump\t// out\n        /* \"#utility.yul\":40638:40779   */\n    tag_911:\n        /* \"#utility.yul\":40687:40691   */\n      0x00\n        /* \"#utility.yul\":40710:40713   */\n      dup2\n        /* \"#utility.yul\":40702:40713   */\n      swap1\n      pop\n        /* \"#utility.yul\":40733:40736   */\n      dup2\n        /* \"#utility.yul\":40730:40731   */\n      0x00\n        /* \"#utility.yul\":40723:40737   */\n      mstore\n        /* \"#utility.yul\":40767:40771   */\n      0x20\n        /* \"#utility.yul\":40764:40765   */\n      0x00\n        /* \"#utility.yul\":40754:40772   */\n      keccak256\n        /* \"#utility.yul\":40746:40772   */\n      swap1\n      pop\n        /* \"#utility.yul\":40692:40779   */\n      swap2\n      swap1\n      pop\n      jump\t// out\n        /* \"#utility.yul\":40785:40930   */\n    tag_899:\n        /* \"#utility.yul\":40838:40842   */\n      0x00\n        /* \"#utility.yul\":40861:40864   */\n      dup2\n        /* \"#utility.yul\":40853:40864   */\n      swap1\n      pop\n        /* \"#utility.yul\":40884:40887   */\n      dup2\n        /* \"#utility.yul\":40881:40882   */\n      0x00\n        /* \"#utility.yul\":40874:40888   */\n      mstore\n        /* \"#utility.yul\":40918:40922   */\n      0x20\n        /* \"#utility.yul\":40915:40916   */\n      0x00\n        /* \"#utility.yul\":40905:40923   */\n      keccak256\n        /* \"#utility.yul\":40897:40923   */\n      swap1\n      pop\n        /* \"#utility.yul\":40843:40930   */\n      swap2\n      swap1\n      pop\n      jump\t// out\n        /* \"#utility.yul\":40936:41050   */\n    tag_797:\n        /* \"#utility.yul\":41003:41009   */\n      0x00\n        /* \"#utility.yul\":41037:41042   */\n      dup2\n        /* \"#utility.yul\":41031:41043   */\n      mload\n        /* \"#utility.yul\":41021:41043   */\n      swap1\n      pop\n        /* \"#utility.yul\":41010:41050   */\n      swap2\n      swap1\n      pop\n      jump\t// out\n        /* \"#utility.yul\":41056:41198   */\n    tag_811:\n        /* \"#utility.yul\":41151:41157   */\n      0x00\n        /* \"#utility.yul\":41185:41190   */\n      dup2\n        /* \"#utility.yul\":41179:41191   */\n      mload\n        /* \"#utility.yul\":41169:41191   */\n      swap1\n      pop\n        /* \"#utility.yul\":41158:41198   */\n      swap2\n      swap1\n      pop\n      jump\t// out\n        /* \"#utility.yul\":41204:41338   */\n    tag_825:\n        /* \"#utility.yul\":41291:41297   */\n      0x00\n        /* \"#utility.yul\":41325:41330   */\n      dup2\n        /* \"#utility.yul\":41319:41331   */\n      mload\n        /* \"#utility.yul\":41309:41331   */\n      swap1\n      pop\n        /* \"#utility.yul\":41298:41338   */\n      swap2\n      swap1\n      pop\n      jump\t// out\n        /* \"#utility.yul\":41344:41485   */\n    tag_839:\n        /* \"#utility.yul\":41438:41444   */\n      0x00\n        /* \"#utility.yul\":41472:41477   */\n      dup2\n        /* \"#utility.yul\":41466:41478   */\n      mload\n        /* \"#utility.yul\":41456:41478   */\n      swap1\n      pop\n        /* \"#utility.yul\":41445:41485   */\n      swap2\n      swap1\n      pop\n      jump\t// out\n        /* \"#utility.yul\":41491:41625   */\n    tag_853:\n        /* \"#utility.yul\":41578:41584   */\n      0x00\n        /* \"#utility.yul\":41612:41617   */\n      dup2\n        /* \"#utility.yul\":41606:41618   */\n      mload\n        /* \"#utility.yul\":41596:41618   */\n      swap1\n      pop\n        /* \"#utility.yul\":41585:41625   */\n      swap2\n      swap1\n      pop\n      jump\t// out\n        /* \"#utility.yul\":41631:41730   */\n    tag_871:\n        /* \"#utility.yul\":41683:41689   */\n      0x00\n        /* \"#utility.yul\":41717:41722   */\n      dup2\n        /* \"#utility.yul\":41711:41723   */\n      mload\n        /* \"#utility.yul\":41701:41723   */\n      swap1\n      pop\n        /* \"#utility.yul\":41690:41730   */\n      swap2\n      swap1\n      pop\n      jump\t// out\n        /* \"#utility.yul\":41736:41849   */\n    tag_807:\n        /* \"#utility.yul\":41806:41810   */\n      0x00\n        /* \"#utility.yul\":41838:41842   */\n      0x20\n        /* \"#utility.yul\":41833:41836   */\n      dup3\n        /* \"#utility.yul\":41829:41843   */\n      add\n        /* \"#utility.yul\":41821:41843   */\n      swap1\n      pop\n        /* \"#utility.yul\":41811:41849   */\n      swap2\n      swap1\n      pop\n      jump\t// out\n        /* \"#utility.yul\":41855:41996   */\n    tag_821:\n        /* \"#utility.yul\":41953:41957   */\n      0x00\n        /* \"#utility.yul\":41985:41989   */\n      0x20\n        /* \"#utility.yul\":41980:41983   */\n      dup3\n        /* \"#utility.yul\":41976:41990   */\n      add\n        /* \"#utility.yul\":41968:41990   */\n      swap1\n      pop\n        /* \"#utility.yul\":41958:41996   */\n      swap2\n      swap1\n      pop\n      jump\t// out\n        /* \"#utility.yul\":42002:42135   */\n    tag_835:\n        /* \"#utility.yul\":42092:42096   */\n      0x00\n        /* \"#utility.yul\":42124:42128   */\n      0x20\n        /* \"#utility.yul\":42119:42122   */\n      dup3\n        /* \"#utility.yul\":42115:42129   */\n      add\n        /* \"#utility.yul\":42107:42129   */\n      swap1\n      pop\n        /* \"#utility.yul\":42097:42135   */\n      swap2\n      swap1\n      pop\n      jump\t// out\n        /* \"#utility.yul\":42141:42281   */\n    tag_849:\n        /* \"#utility.yul\":42238:42242   */\n      0x00\n        /* \"#utility.yul\":42270:42274   */\n      0x20\n        /* \"#utility.yul\":42265:42268   */\n      dup3\n        /* \"#utility.yul\":42261:42275   */\n      add\n        /* \"#utility.yul\":42253:42275   */\n      swap1\n      pop\n        /* \"#utility.yul\":42243:42281   */\n      swap2\n      swap1\n      pop\n      jump\t// out\n        /* \"#utility.yul\":42287:42420   */\n    tag_863:\n        /* \"#utility.yul\":42377:42381   */\n      0x00\n        /* \"#utility.yul\":42409:42413   */\n      0x20\n        /* \"#utility.yul\":42404:42407   */\n      dup3\n        /* \"#utility.yul\":42400:42414   */\n      add\n        /* \"#utility.yul\":42392:42414   */\n      swap1\n      pop\n        /* \"#utility.yul\":42382:42420   */\n      swap2\n      swap1\n      pop\n      jump\t// out\n        /* \"#utility.yul\":42426:42610   */\n    tag_799:\n        /* \"#utility.yul\":42525:42536   */\n      0x00\n        /* \"#utility.yul\":42559:42565   */\n      dup3\n        /* \"#utility.yul\":42554:42557   */\n      dup3\n        /* \"#utility.yul\":42547:42566   */\n      mstore\n        /* \"#utility.yul\":42599:42603   */\n      0x20\n        /* \"#utility.yul\":42594:42597   */\n      dup3\n        /* \"#utility.yul\":42590:42604   */\n      add\n        /* \"#utility.yul\":42575:42604   */\n      swap1\n      pop\n        /* \"#utility.yul\":42537:42610   */\n      swap3\n      swap2\n      pop\n      pop\n      jump\t// out\n        /* \"#utility.yul\":42616:42828   */\n    tag_813:\n        /* \"#utility.yul\":42743:42754   */\n      0x00\n        /* \"#utility.yul\":42777:42783   */\n      dup3\n        /* \"#utility.yul\":42772:42775   */\n      dup3\n        /* \"#utility.yul\":42765:42784   */\n      mstore\n        /* \"#utility.yul\":42817:42821   */\n      0x20\n        /* \"#utility.yul\":42812:42815   */\n      dup3\n        /* \"#utility.yul\":42808:42822   */\n      add\n        /* \"#utility.yul\":42793:42822   */\n      swap1\n      pop\n        /* \"#utility.yul\":42755:42828   */\n      swap3\n      swap2\n      pop\n      pop\n      jump\t// out\n        /* \"#utility.yul\":42834:43038   */\n    tag_827:\n        /* \"#utility.yul\":42953:42964   */\n      0x00\n        /* \"#utility.yul\":42987:42993   */\n      dup3\n        /* \"#utility.yul\":42982:42985   */\n      dup3\n        /* \"#utility.yul\":42975:42994   */\n      mstore\n        /* \"#utility.yul\":43027:43031   */\n      0x20\n        /* \"#utility.yul\":43022:43025   */\n      dup3\n        /* \"#utility.yul\":43018:43032   */\n      add\n        /* \"#utility.yul\":43003:43032   */\n      swap1\n      pop\n        /* \"#utility.yul\":42965:43038   */\n      swap3\n      swap2\n      pop\n      pop\n      jump\t// out\n        /* \"#utility.yul\":43044:43255   */\n    tag_841:\n        /* \"#utility.yul\":43170:43181   */\n      0x00\n        /* \"#utility.yul\":43204:43210   */\n      dup3\n        /* \"#utility.yul\":43199:43202   */\n      dup3\n        /* \"#utility.yul\":43192:43211   */\n      mstore\n        /* \"#utility.yul\":43244:43248   */\n      0x20\n        /* \"#utility.yul\":43239:43242   */\n      dup3\n        /* \"#utility.yul\":43235:43249   */\n      add\n        /* \"#utility.yul\":43220:43249   */\n      swap1\n      pop\n        /* \"#utility.yul\":43182:43255   */\n      swap3\n      swap2\n      pop\n      pop\n      jump\t// out\n        /* \"#utility.yul\":43261:43455   */\n    tag_855:\n        /* \"#utility.yul\":43370:43381   */\n      0x00\n        /* \"#utility.yul\":43404:43410   */\n      dup3\n        /* \"#utility.yul\":43399:43402   */\n      dup3\n        /* \"#utility.yul\":43392:43411   */\n      mstore\n        /* \"#utility.yul\":43444:43448   */\n      0x20\n        /* \"#utility.yul\":43439:43442   */\n      dup3\n        /* \"#utility.yul\":43435:43449   */\n      add\n        /* \"#utility.yul\":43420:43449   */\n      swap1\n      pop\n        /* \"#utility.yul\":43382:43455   */\n      swap3\n      swap2\n      pop\n      pop\n      jump\t// out\n        /* \"#utility.yul\":43461:43620   */\n    tag_873:\n        /* \"#utility.yul\":43535:43546   */\n      0x00\n        /* \"#utility.yul\":43569:43575   */\n      dup3\n        /* \"#utility.yul\":43564:43567   */\n      dup3\n        /* \"#utility.yul\":43557:43576   */\n      mstore\n        /* \"#utility.yul\":43609:43613   */\n      0x20\n        /* \"#utility.yul\":43604:43607   */\n      dup3\n        /* \"#utility.yul\":43600:43614   */\n      add\n        /* \"#utility.yul\":43585:43614   */\n      swap1\n      pop\n        /* \"#utility.yul\":43547:43620   */\n      swap3\n      swap2\n      pop\n      pop\n      jump\t// out\n        /* \"#utility.yul\":43626:43795   */\n    tag_882:\n        /* \"#utility.yul\":43710:43721   */\n      0x00\n        /* \"#utility.yul\":43744:43750   */\n      dup3\n        /* \"#utility.yul\":43739:43742   */\n      dup3\n        /* \"#utility.yul\":43732:43751   */\n      mstore\n        /* \"#utility.yul\":43784:43788   */\n      0x20\n        /* \"#utility.yul\":43779:43782   */\n      dup3\n        /* \"#utility.yul\":43775:43789   */\n      add\n        /* \"#utility.yul\":43760:43789   */\n      swap1\n      pop\n        /* \"#utility.yul\":43722:43795   */\n      swap3\n      swap2\n      pop\n      pop\n      jump\t// out\n        /* \"#utility.yul\":43801:43949   */\n    tag_889:\n        /* \"#utility.yul\":43903:43914   */\n      0x00\n        /* \"#utility.yul\":43940:43943   */\n      dup2\n        /* \"#utility.yul\":43925:43943   */\n      swap1\n      pop\n        /* \"#utility.yul\":43915:43949   */\n      swap3\n      swap2\n      pop\n      pop\n      jump\t// out\n        /* \"#utility.yul\":43955:44260   */\n    tag_294:\n        /* \"#utility.yul\":43995:43998   */\n      0x00\n        /* \"#utility.yul\":44014:44034   */\n      tag_1112\n        /* \"#utility.yul\":44032:44033   */\n      dup3\n        /* \"#utility.yul\":44014:44034   */\n      tag_993\n      jump\t// in\n    tag_1112:\n        /* \"#utility.yul\":44009:44034   */\n      swap2\n      pop\n        /* \"#utility.yul\":44048:44068   */\n      tag_1113\n        /* \"#utility.yul\":44066:44067   */\n      dup4\n        /* \"#utility.yul\":44048:44068   */\n      tag_993\n      jump\t// in\n    tag_1113:\n        /* \"#utility.yul\":44043:44068   */\n      swap3\n      pop\n        /* \"#utility.yul\":44202:44203   */\n      dup3\n        /* \"#utility.yul\":44134:44200   */\n      0xffffffffffffffffffffffffffffffffffffffffffffffffffffffffffffffff\n        /* \"#utility.yul\":44130:44204   */\n      sub\n        /* \"#utility.yul\":44127:44128   */\n      dup3\n        /* \"#utility.yul\":44124:44205   */\n      gt\n        /* \"#utility.yul\":44121:44123   */\n      iszero\n      tag_1114\n      jumpi\n        /* \"#utility.yul\":44208:44226   */\n      tag_1115\n      tag_1116\n      jump\t// in\n    tag_1115:\n        /* \"#utility.yul\":44121:44123   */\n    tag_1114:\n        /* \"#utility.yul\":44252:44253   */\n      dup3\n        /* \"#utility.yul\":44249:44250   */\n      dup3\n        /* \"#utility.yul\":44245:44254   */\n      add\n        /* \"#utility.yul\":44238:44254   */\n      swap1\n      pop\n        /* \"#utility.yul\":43999:44260   */\n      swap3\n      swap2\n      pop\n      pop\n      jump\t// out\n        /* \"#utility.yul\":44266:44614   */\n    tag_659:\n        /* \"#utility.yul\":44306:44313   */\n      0x00\n        /* \"#utility.yul\":44329:44349   */\n      tag_1118\n        /* \"#utility.yul\":44347:44348   */\n      dup3\n        /* \"#utility.yul\":44329:44349   */\n      tag_993\n      jump\t// in\n    tag_1118:\n        /* \"#utility.yul\":44324:44349   */\n      swap2\n      pop\n        /* \"#utility.yul\":44363:44383   */\n      tag_1119\n        /* \"#utility.yul\":44381:44382   */\n      dup4\n        /* \"#utility.yul\":44363:44383   */\n      tag_993\n      jump\t// in\n    tag_1119:\n        /* \"#utility.yul\":44358:44383   */\n      swap3\n      pop\n        /* \"#utility.yul\":44551:44552   */\n      dup2\n        /* \"#utility.yul\":44483:44549   */\n      0xffffffffffffffffffffffffffffffffffffffffffffffffffffffffffffffff\n        /* \"#utility.yul\":44479:44553   */\n      div\n        /* \"#utility.yul\":44476:44477   */\n      dup4\n        /* \"#utility.yul\":44473:44554   */\n      gt\n        /* \"#utility.yul\":44468:44469   */\n      dup3\n        /* \"#utility.yul\":44461:44470   */\n      iszero\n        /* \"#utility.yul\":44454:44471   */\n      iszero\n        /* \"#utility.yul\":44450:44555   */\n      and\n        /* \"#utility.yul\":44447:44449   */\n      iszero\n      tag_1120\n      jumpi\n        /* \"#utility.yul\":44558:44576   */\n      tag_1121\n      tag_1116\n      jump\t// in\n    tag_1121:\n        /* \"#utility.yul\":44447:44449   */\n    tag_1120:\n        /* \"#utility.yul\":44606:44607   */\n      dup3\n        /* \"#utility.yul\":44603:44604   */\n      dup3\n        /* \"#utility.yul\":44599:44608   */\n      mul\n        /* \"#utility.yul\":44588:44608   */\n      swap1\n      pop\n        /* \"#utility.yul\":44314:44614   */\n      swap3\n      swap2\n      pop\n      pop\n      jump\t// out\n        /* \"#utility.yul\":44620:44716   */\n    tag_790:\n        /* \"#utility.yul\":44657:44664   */\n      0x00\n        /* \"#utility.yul\":44686:44710   */\n      tag_1123\n        /* \"#utility.yul\":44704:44709   */\n      dup3\n        /* \"#utility.yul\":44686:44710   */\n      tag_1124\n      jump\t// in\n    tag_1123:\n        /* \"#utility.yul\":44675:44710   */\n      swap1\n      pop\n        /* \"#utility.yul\":44665:44716   */\n      swap2\n      swap1\n      pop\n      jump\t// out\n        /* \"#utility.yul\":44722:44812   */\n    tag_867:\n        /* \"#utility.yul\":44756:44763   */\n      0x00\n        /* \"#utility.yul\":44799:44804   */\n      dup2\n        /* \"#utility.yul\":44792:44805   */\n      iszero\n        /* \"#utility.yul\":44785:44806   */\n      iszero\n        /* \"#utility.yul\":44774:44806   */\n      swap1\n      pop\n        /* \"#utility.yul\":44764:44812   */\n      swap2\n      swap1\n      pop\n      jump\t// out\n        /* \"#utility.yul\":44818:44944   */\n    tag_1124:\n        /* \"#utility.yul\":44855:44862   */\n      0x00\n        /* \"#utility.yul\":44895:44937   */\n      0xffffffffffffffffffffffffffffffffffffffff\n        /* \"#utility.yul\":44888:44893   */\n      dup3\n        /* \"#utility.yul\":44884:44938   */\n      and\n        /* \"#utility.yul\":44873:44938   */\n      swap1\n      pop\n        /* \"#utility.yul\":44863:44944   */\n      swap2\n      swap1\n      pop\n      jump\t// out\n        /* \"#utility.yul\":44950:45027   */\n    tag_993:\n        /* \"#utility.yul\":44987:44994   */\n      0x00\n        /* \"#utility.yul\":45016:45021   */\n      dup2\n        /* \"#utility.yul\":45005:45021   */\n      swap1\n      pop\n        /* \"#utility.yul\":44995:45027   */\n      swap2\n      swap1\n      pop\n      jump\t// out\n        /* \"#utility.yul\":45033:45187   */\n    tag_719:\n        /* \"#utility.yul\":45117:45123   */\n      dup3\n        /* \"#utility.yul\":45112:45115   */\n      dup2\n        /* \"#utility.yul\":45107:45110   */\n      dup4\n        /* \"#utility.yul\":45094:45124   */\n      calldatacopy\n        /* \"#utility.yul\":45179:45180   */\n      0x00\n        /* \"#utility.yul\":45170:45176   */\n      dup4\n        /* \"#utility.yul\":45165:45168   */\n      dup4\n        /* \"#utility.yul\":45161:45177   */\n      add\n        /* \"#utility.yul\":45154:45181   */\n      mstore\n        /* \"#utility.yul\":45084:45187   */\n      pop\n      pop\n      pop\n      jump\t// out\n        /* \"#utility.yul\":45193:45500   */\n    tag_875:\n        /* \"#utility.yul\":45261:45262   */\n      0x00\n        /* \"#utility.yul\":45271:45384   */\n    tag_1130:\n        /* \"#utility.yul\":45285:45291   */\n      dup4\n        /* \"#utility.yul\":45282:45283   */\n      dup2\n        /* \"#utility.yul\":45279:45292   */\n      lt\n        /* \"#utility.yul\":45271:45384   */\n      iszero\n      tag_1132\n      jumpi\n        /* \"#utility.yul\":45370:45371   */\n      dup1\n        /* \"#utility.yul\":45365:45368   */\n      dup3\n        /* \"#utility.yul\":45361:45372   */\n      add\n        /* \"#utility.yul\":45355:45373   */\n      mload\n        /* \"#utility.yul\":45351:45352   */\n      dup2\n        /* \"#utility.yul\":45346:45349   */\n      dup5\n        /* \"#utility.yul\":45342:45353   */\n      add\n        /* \"#utility.yul\":45335:45374   */\n      mstore\n        /* \"#utility.yul\":45307:45309   */\n      0x20\n        /* \"#utility.yul\":45304:45305   */\n      dup2\n        /* \"#utility.yul\":45300:45310   */\n      add\n        /* \"#utility.yul\":45295:45310   */\n      swap1\n      pop\n        /* \"#utility.yul\":45271:45384   */\n      jump(tag_1130)\n    tag_1132:\n        /* \"#utility.yul\":45402:45408   */\n      dup4\n        /* \"#utility.yul\":45399:45400   */\n      dup2\n        /* \"#utility.yul\":45396:45409   */\n      gt\n        /* \"#utility.yul\":45393:45395   */\n      iszero\n      tag_1133\n      jumpi\n        /* \"#utility.yul\":45482:45483   */\n      0x00\n        /* \"#utility.yul\":45473:45479   */\n      dup5\n        /* \"#utility.yul\":45468:45471   */\n      dup5\n        /* \"#utility.yul\":45464:45480   */\n      add\n        /* \"#utility.yul\":45457:45484   */\n      mstore\n        /* \"#utility.yul\":45393:45395   */\n    tag_1133:\n        /* \"#utility.yul\":45242:45500   */\n      pop\n      pop\n      pop\n      pop\n      jump\t// out\n        /* \"#utility.yul\":45506:45826   */\n    tag_140:\n        /* \"#utility.yul\":45550:45556   */\n      0x00\n        /* \"#utility.yul\":45587:45588   */\n      0x02\n        /* \"#utility.yul\":45581:45585   */\n      dup3\n        /* \"#utility.yul\":45577:45589   */\n      div\n        /* \"#utility.yul\":45567:45589   */\n      swap1\n      pop\n        /* \"#utility.yul\":45634:45635   */\n      0x01\n        /* \"#utility.yul\":45628:45632   */\n      dup3\n        /* \"#utility.yul\":45624:45636   */\n      and\n        /* \"#utility.yul\":45655:45673   */\n      dup1\n        /* \"#utility.yul\":45645:45647   */\n      tag_1135\n      jumpi\n        /* \"#utility.yul\":45711:45715   */\n      0x7f\n        /* \"#utility.yul\":45703:45709   */\n      dup3\n        /* \"#utility.yul\":45699:45716   */\n      and\n        /* \"#utility.yul\":45689:45716   */\n      swap2\n      pop\n        /* \"#utility.yul\":45645:45647   */\n    tag_1135:\n        /* \"#utility.yul\":45773:45775   */\n      0x20\n        /* \"#utility.yul\":45765:45771   */\n      dup3\n        /* \"#utility.yul\":45762:45776   */\n      lt\n        /* \"#utility.yul\":45742:45760   */\n      dup2\n        /* \"#utility.yul\":45739:45777   */\n      eq\n        /* \"#utility.yul\":45736:45738   */\n      iszero\n      tag_1136\n      jumpi\n        /* \"#utility.yul\":45792:45810   */\n      tag_1137\n      tag_1138\n      jump\t// in\n    tag_1137:\n        /* \"#utility.yul\":45736:45738   */\n    tag_1136:\n        /* \"#utility.yul\":45557:45826   */\n      pop\n      swap2\n      swap1\n      pop\n      jump\t// out\n        /* \"#utility.yul\":45832:46113   */\n    tag_1078:\n        /* \"#utility.yul\":45915:45942   */\n      tag_1140\n        /* \"#utility.yul\":45937:45941   */\n      dup3\n        /* \"#utility.yul\":45915:45942   */\n      tag_877\n      jump\t// in\n    tag_1140:\n        /* \"#utility.yul\":45907:45913   */\n      dup2\n        /* \"#utility.yul\":45903:45943   */\n      add\n        /* \"#utility.yul\":46045:46051   */\n      dup2\n        /* \"#utility.yul\":46033:46043   */\n      dup2\n        /* \"#utility.yul\":46030:46052   */\n      lt\n        /* \"#utility.yul\":46009:46027   */\n      0xffffffffffffffff\n        /* \"#utility.yul\":45997:46007   */\n      dup3\n        /* \"#utility.yul\":45994:46028   */\n      gt\n        /* \"#utility.yul\":45991:46053   */\n      or\n        /* \"#utility.yul\":45988:45990   */\n      iszero\n      tag_1141\n      jumpi\n        /* \"#utility.yul\":46056:46074   */\n      tag_1142\n      tag_1083\n      jump\t// in\n    tag_1142:\n        /* \"#utility.yul\":45988:45990   */\n    tag_1141:\n        /* \"#utility.yul\":46096:46106   */\n      dup1\n        /* \"#utility.yul\":46092:46094   */\n      0x40\n        /* \"#utility.yul\":46085:46107   */\n      mstore\n        /* \"#utility.yul\":45875:46113   */\n      pop\n      pop\n      pop\n      jump\t// out\n        /* \"#utility.yul\":46119:46352   */\n    tag_393:\n        /* \"#utility.yul\":46158:46161   */\n      0x00\n        /* \"#utility.yul\":46181:46205   */\n      tag_1144\n        /* \"#utility.yul\":46199:46204   */\n      dup3\n        /* \"#utility.yul\":46181:46205   */\n      tag_993\n      jump\t// in\n    tag_1144:\n        /* \"#utility.yul\":46172:46205   */\n      swap2\n      pop\n        /* \"#utility.yul\":46227:46293   */\n      0xffffffffffffffffffffffffffffffffffffffffffffffffffffffffffffffff\n        /* \"#utility.yul\":46220:46225   */\n      dup3\n        /* \"#utility.yul\":46217:46294   */\n      eq\n        /* \"#utility.yul\":46214:46216   */\n      iszero\n      tag_1145\n      jumpi\n        /* \"#utility.yul\":46297:46315   */\n      tag_1146\n      tag_1116\n      jump\t// in\n    tag_1146:\n        /* \"#utility.yul\":46214:46216   */\n    tag_1145:\n        /* \"#utility.yul\":46344:46345   */\n      0x01\n        /* \"#utility.yul\":46337:46342   */\n      dup3\n        /* \"#utility.yul\":46333:46346   */\n      add\n        /* \"#utility.yul\":46326:46346   */\n      swap1\n      pop\n        /* \"#utility.yul\":46162:46352   */\n      swap2\n      swap1\n      pop\n      jump\t// out\n        /* \"#utility.yul\":46358:46538   */\n    tag_1116:\n        /* \"#utility.yul\":46406:46483   */\n      0x4e487b7100000000000000000000000000000000000000000000000000000000\n        /* \"#utility.yul\":46403:46404   */\n      0x00\n        /* \"#utility.yul\":46396:46484   */\n      mstore\n        /* \"#utility.yul\":46503:46507   */\n      0x11\n        /* \"#utility.yul\":46500:46501   */\n      0x04\n        /* \"#utility.yul\":46493:46508   */\n      mstore\n        /* \"#utility.yul\":46527:46531   */\n      0x24\n        /* \"#utility.yul\":46524:46525   */\n      0x00\n        /* \"#utility.yul\":46517:46532   */\n      revert\n        /* \"#utility.yul\":46544:46724   */\n    tag_1138:\n        /* \"#utility.yul\":46592:46669   */\n      0x4e487b7100000000000000000000000000000000000000000000000000000000\n        /* \"#utility.yul\":46589:46590   */\n      0x00\n        /* \"#utility.yul\":46582:46670   */\n      mstore\n        /* \"#utility.yul\":46689:46693   */\n      0x22\n        /* \"#utility.yul\":46686:46687   */\n      0x04\n        /* \"#utility.yul\":46679:46694   */\n      mstore\n        /* \"#utility.yul\":46713:46717   */\n      0x24\n        /* \"#utility.yul\":46710:46711   */\n      0x00\n        /* \"#utility.yul\":46703:46718   */\n      revert\n        /* \"#utility.yul\":46730:46910   */\n    tag_1083:\n        /* \"#utility.yul\":46778:46855   */\n      0x4e487b7100000000000000000000000000000000000000000000000000000000\n        /* \"#utility.yul\":46775:46776   */\n      0x00\n        /* \"#utility.yul\":46768:46856   */\n      mstore\n        /* \"#utility.yul\":46875:46879   */\n      0x41\n        /* \"#utility.yul\":46872:46873   */\n      0x04\n        /* \"#utility.yul\":46865:46880   */\n      mstore\n        /* \"#utility.yul\":46899:46903   */\n      0x24\n        /* \"#utility.yul\":46896:46897   */\n      0x00\n        /* \"#utility.yul\":46889:46904   */\n      revert\n        /* \"#utility.yul\":46916:47018   */\n    tag_877:\n        /* \"#utility.yul\":46957:46963   */\n      0x00\n        /* \"#utility.yul\":47008:47010   */\n      0x1f\n        /* \"#utility.yul\":47004:47011   */\n      not\n        /* \"#utility.yul\":46999:47001   */\n      0x1f\n        /* \"#utility.yul\":46992:46997   */\n      dup4\n        /* \"#utility.yul\":46988:47002   */\n      add\n        /* \"#utility.yul\":46984:47012   */\n      and\n        /* \"#utility.yul\":46974:47012   */\n      swap1\n      pop\n        /* \"#utility.yul\":46964:47018   */\n      swap2\n      swap1\n      pop\n      jump\t// out\n        /* \"#utility.yul\":47024:47190   */\n    tag_919:\n        /* \"#utility.yul\":47164:47182   */\n      0x206973206578706972656420666f722000000000000000000000000000000000\n        /* \"#utility.yul\":47160:47161   */\n      0x00\n        /* \"#utility.yul\":47152:47158   */\n      dup3\n        /* \"#utility.yul\":47148:47162   */\n      add\n        /* \"#utility.yul\":47141:47183   */\n      mstore\n        /* \"#utility.yul\":47130:47190   */\n      pop\n      jump\t// out\n        /* \"#utility.yul\":47196:47357   */\n    tag_924:\n        /* \"#utility.yul\":47336:47349   */\n      0x2069732063726561746564000000000000000000000000000000000000000000\n        /* \"#utility.yul\":47332:47333   */\n      0x00\n        /* \"#utility.yul\":47324:47330   */\n      dup3\n        /* \"#utility.yul\":47320:47334   */\n      add\n        /* \"#utility.yul\":47313:47350   */\n      mstore\n        /* \"#utility.yul\":47302:47357   */\n      pop\n      jump\t// out\n        /* \"#utility.yul\":47363:47584   */\n    tag_929:\n        /* \"#utility.yul\":47503:47537   */\n      0x5472616e73616374696f6e2077697468207472616e73616374696f6e20686173\n        /* \"#utility.yul\":47499:47500   */\n      0x00\n        /* \"#utility.yul\":47491:47497   */\n      dup3\n        /* \"#utility.yul\":47487:47501   */\n      add\n        /* \"#utility.yul\":47480:47538   */\n      mstore\n        /* \"#utility.yul\":47572:47576   */\n      0x6820000000000000000000000000000000000000000000000000000000000000\n        /* \"#utility.yul\":47567:47569   */\n      0x20\n        /* \"#utility.yul\":47559:47565   */\n      dup3\n        /* \"#utility.yul\":47555:47570   */\n      add\n        /* \"#utility.yul\":47548:47577   */\n      mstore\n        /* \"#utility.yul\":47469:47584   */\n      pop\n      jump\t// out\n        /* \"#utility.yul\":47590:47756   */\n    tag_934:\n        /* \"#utility.yul\":47730:47748   */\n      0x20697320617070726f7665642062792000000000000000000000000000000000\n        /* \"#utility.yul\":47726:47727   */\n      0x00\n        /* \"#utility.yul\":47718:47724   */\n      dup3\n        /* \"#utility.yul\":47714:47728   */\n      add\n        /* \"#utility.yul\":47707:47749   */\n      mstore\n        /* \"#utility.yul\":47696:47756   */\n      pop\n      jump\t// out\n        /* \"#utility.yul\":47762:47998   */\n    tag_939:\n        /* \"#utility.yul\":47902:47936   */\n      0x20616e6420686173206265656e207472616e7366657272656420746f20746865\n        /* \"#utility.yul\":47898:47899   */\n      0x00\n        /* \"#utility.yul\":47890:47896   */\n      dup3\n        /* \"#utility.yul\":47886:47900   */\n      add\n        /* \"#utility.yul\":47879:47937   */\n      mstore\n        /* \"#utility.yul\":47971:47990   */\n      0x2068696768657220617574686f72697479000000000000000000000000000000\n        /* \"#utility.yul\":47966:47968   */\n      0x20\n        /* \"#utility.yul\":47958:47964   */\n      dup3\n        /* \"#utility.yul\":47954:47969   */\n      add\n        /* \"#utility.yul\":47947:47991   */\n      mstore\n        /* \"#utility.yul\":47868:47998   */\n      pop\n      jump\t// out\n        /* \"#utility.yul\":48004:48240   */\n    tag_944:\n        /* \"#utility.yul\":48144:48178   */\n      0x20697320636f6d706c6574656420616e6420617070726f76656420627920616c\n        /* \"#utility.yul\":48140:48141   */\n      0x00\n        /* \"#utility.yul\":48132:48138   */\n      dup3\n        /* \"#utility.yul\":48128:48142   */\n      add\n        /* \"#utility.yul\":48121:48179   */\n      mstore\n        /* \"#utility.yul\":48213:48232   */\n      0x6c2074686520617574686f726974696573000000000000000000000000000000\n        /* \"#utility.yul\":48208:48210   */\n      0x20\n        /* \"#utility.yul\":48200:48206   */\n      dup3\n        /* \"#utility.yul\":48196:48211   */\n      add\n        /* \"#utility.yul\":48189:48233   */\n      mstore\n        /* \"#utility.yul\":48110:48240   */\n      pop\n      jump\t// out\n        /* \"#utility.yul\":48246:48397   */\n    tag_949:\n        /* \"#utility.yul\":48386:48389   */\n      0x2000000000000000000000000000000000000000000000000000000000000000\n        /* \"#utility.yul\":48382:48383   */\n      0x00\n        /* \"#utility.yul\":48374:48380   */\n      dup3\n        /* \"#utility.yul\":48370:48384   */\n      add\n        /* \"#utility.yul\":48363:48390   */\n      mstore\n        /* \"#utility.yul\":48352:48397   */\n      pop\n      jump\t// out\n        /* \"#utility.yul\":48403:48564   */\n    tag_954:\n        /* \"#utility.yul\":48543:48556   */\n      0x2069732065787069726564000000000000000000000000000000000000000000\n        /* \"#utility.yul\":48539:48540   */\n      0x00\n        /* \"#utility.yul\":48531:48537   */\n      dup3\n        /* \"#utility.yul\":48527:48541   */\n      add\n        /* \"#utility.yul\":48520:48557   */\n      mstore\n        /* \"#utility.yul\":48509:48564   */\n      pop\n      jump\t// out\n        /* \"#utility.yul\":48570:48692   */\n    tag_723:\n        /* \"#utility.yul\":48643:48667   */\n      tag_1160\n        /* \"#utility.yul\":48661:48666   */\n      dup2\n        /* \"#utility.yul\":48643:48667   */\n      tag_790\n      jump\t// in\n    tag_1160:\n        /* \"#utility.yul\":48636:48641   */\n      dup2\n        /* \"#utility.yul\":48633:48668   */\n      eq\n        /* \"#utility.yul\":48623:48625   */\n      tag_1161\n      jumpi\n        /* \"#utility.yul\":48682:48683   */\n      0x00\n        /* \"#utility.yul\":48679:48680   */\n      dup1\n        /* \"#utility.yul\":48672:48684   */\n      revert\n        /* \"#utility.yul\":48623:48625   */\n    tag_1161:\n        /* \"#utility.yul\":48613:48692   */\n      pop\n      jump\t// out\n        /* \"#utility.yul\":48698:48820   */\n    tag_731:\n        /* \"#utility.yul\":48771:48795   */\n      tag_1163\n        /* \"#utility.yul\":48789:48794   */\n      dup2\n        /* \"#utility.yul\":48771:48795   */\n      tag_993\n      jump\t// in\n    tag_1163:\n        /* \"#utility.yul\":48764:48769   */\n      dup2\n        /* \"#utility.yul\":48761:48796   */\n      eq\n        /* \"#utility.yul\":48751:48753   */\n      tag_1164\n      jumpi\n        /* \"#utility.yul\":48810:48811   */\n      0x00\n        /* \"#utility.yul\":48807:48808   */\n      dup1\n        /* \"#utility.yul\":48800:48812   */\n      revert\n        /* \"#utility.yul\":48751:48753   */\n    tag_1164:\n        /* \"#utility.yul\":48741:48820   */\n      pop\n      jump\t// out\n\n    auxdata: 0xa26469706673582212209a1d560b45991fbeeb8bae8c383fb01855c7d487efb5d582d1a8d7415bee8b0a64736f6c63430008040033\n}\n","bytecode":{"linkReferences":{},"object":"6080604052620151806005553480156200001857600080fd5b50604051620063b8380380620063b883398181016040528101906200003e91906200030f565b806000806101000a81548173ffffffffffffffffffffffffffffffffffffffff021916908373ffffffffffffffffffffffffffffffffffffffff160217905550620000fb6040518060400160405280600581526020017f4f776e6572000000000000000000000000000000000000000000000000000000815250826040518060400160405280600581526020017f41646d696e0000000000000000000000000000000000000000000000000000008152506200010260201b60201c565b5062000475565b6000600b60008473ffffffffffffffffffffffffffffffffffffffff1673ffffffffffffffffffffffffffffffffffffffff1681526020019081526020016000209050838160010190805190602001906200015f92919062000248565b50828160020160006101000a81548173ffffffffffffffffffffffffffffffffffffffff021916908373ffffffffffffffffffffffffffffffffffffffff16021790555081816000019080519060200190620001bd92919062000248565b5060026000815480929190620001d390620003af565b9190505581600301819055506009839080600181540180825580915050600190039060005260206000200160009091909190916101000a81548173ffffffffffffffffffffffffffffffffffffffff021916908373ffffffffffffffffffffffffffffffffffffffff16021790555050505050565b828054620002569062000379565b90600052602060002090601f0160209004810192826200027a5760008555620002c6565b82601f106200029557805160ff1916838001178555620002c6565b82800160010185558215620002c6579182015b82811115620002c5578251825591602001919060010190620002a8565b5b509050620002d59190620002d9565b5090565b5b80821115620002f4576000816000905550600101620002da565b5090565b60008151905062000309816200045b565b92915050565b6000602082840312156200032257600080fd5b60006200033284828501620002f8565b91505092915050565b600062000348826200034f565b9050919050565b600073ffffffffffffffffffffffffffffffffffffffff82169050919050565b6000819050919050565b600060028204905060018216806200039257607f821691505b60208210811415620003a957620003a86200042c565b5b50919050565b6000620003bc826200036f565b91507fffffffffffffffffffffffffffffffffffffffffffffffffffffffffffffffff821415620003f257620003f1620003fd565b5b600182019050919050565b7f4e487b7100000000000000000000000000000000000000000000000000000000600052601160045260246000fd5b7f4e487b7100000000000000000000000000000000000000000000000000000000600052602260045260246000fd5b62000466816200033b565b81146200047257600080fd5b50565b615f3380620004856000396000f3fe608060405234801561001057600080fd5b50600436106101725760003560e01c806389d7c784116100de578063c99de57e11610097578063e08491cd11610071578063e08491cd146104d1578063f2cf5ec714610501578063f4558ef91461051d578063f59badad1461055157610172565b8063c99de57e1461045b578063ccc590f214610479578063e0528b7c146104b357610172565b806389d7c784146103875780638ad257b7146103a55780639f4216e8146103c3578063a1cb091f146103f3578063a848bf8b1461040f578063b17e89641461043f57610172565b80632c040681116101305780632c0406811461028a5780632cddaa86146102ba5780632e69619c146102d857806335b9ea5b1461030857806338f148451461033b5780638406830a1461035757610172565b8062a032f01461017757806302d05d3f146101aa57806304ef5b21146101c85780630f44f0b814610202578063220fd618146102365780632bcc23f814610254575b600080fd5b610191600480360381019061018c919061495f565b61056f565b6040516101a194939291906156e1565b60405180910390f35b6101b26107d5565b6040516101bf9190615584565b60405180910390f35b6101e260048036038101906101dd9190614b89565b6107f9565b6040516101f99b9a99989796959493929190615742565b60405180910390f35b61021c6004803603810190610217919061495f565b610c3b565b60405161022d95949392919061585b565b60405180910390f35b61023e610d97565b60405161024b9190615605565b60405180910390f35b61026e60048036038101906102699190614936565b611269565b6040516102819796959493929190615664565b60405180910390f35b6102a4600480360381019061029f919061495f565b6113db565b6040516102b1919061581e565b60405180910390f35b6102c26116ac565b6040516102cf9190615627565b60405180910390f35b6102f260048036038101906102ed919061495f565b61170e565b6040516102ff9190615840565b60405180910390f35b610322600480360381019061031d9190614b89565b611e95565b60405161033294939291906156e1565b60405180910390f35b61035560048036038101906103509190614b89565b6120f5565b005b610371600480360381019061036c919061495f565b61215f565b60405161037e9190615840565b60405180910390f35b61038f612237565b60405161039c9190615627565b60405180910390f35b6103ad6122da565b6040516103ba919061559f565b60405180910390f35b6103dd60048036038101906103d89190614b89565b612368565b6040516103ea9190615584565b60405180910390f35b61040d60048036038101906104089190614af6565b6123a7565b005b6104296004803603810190610424919061495f565b6124bf565b6040516104369190615642565b60405180910390f35b610459600480360381019061045491906149a0565b61257b565b005b6104636126bb565b6040516104709190615584565b60405180910390f35b610493600480360381019061048e919061495f565b6126e1565b6040516104aa9b9a99989796959493929190615742565b60405180910390f35b6104bb612b29565b6040516104c891906155c1565b60405180910390f35b6104eb60048036038101906104e6919061495f565b612dd0565b6040516104f89190615840565b60405180910390f35b61051b60048036038101906105169190614a1f565b613750565b005b61053760048036038101906105329190614b89565b613e7f565b60405161054895949392919061585b565b60405180910390f35b610559613fd5565b60405161056691906155e3565b60405180910390f35b600d818051602081018201805184825260208301602085012081835280955050505050506000915090508060000180546105a890615bcb565b80601f01602080910402602001604051908101604052809291908181526020018280546105d490615bcb565b80156106215780601f106105f657610100808354040283529160200191610621565b820191906000526020600020905b81548152906001019060200180831161060457829003601f168201915b50505050509080600101805461063690615bcb565b80601f016020809104026020016040519081016040528092919081815260200182805461066290615bcb565b80156106af5780601f10610684576101008083540402835291602001916106af565b820191906000526020600020905b81548152906001019060200180831161069257829003601f168201915b5050505050908060020180546106c490615bcb565b80601f01602080910402602001604051908101604052809291908181526020018280546106f090615bcb565b801561073d5780601f106107125761010080835404028352916020019161073d565b820191906000526020600020905b81548152906001019060200180831161072057829003601f168201915b50505050509080600301805461075290615bcb565b80601f016020809104026020016040519081016040528092919081815260200182805461077e90615bcb565b80156107cb5780601f106107a0576101008083540402835291602001916107cb565b820191906000526020600020905b8154815290600101906020018083116107ae57829003601f168201915b5050505050905084565b60008054906101000a900473ffffffffffffffffffffffffffffffffffffffff1681565b6006818154811061080957600080fd5b90600052602060002090600b020160009150905080600001805461082c90615bcb565b80601f016020809104026020016040519081016040528092919081815260200182805461085890615bcb565b80156108a55780601f1061087a576101008083540402835291602001916108a5565b820191906000526020600020905b81548152906001019060200180831161088857829003601f168201915b5050505050908060010180546108ba90615bcb565b80601f01602080910402602001604051908101604052809291908181526020018280546108e690615bcb565b80156109335780601f1061090857610100808354040283529160200191610933565b820191906000526020600020905b81548152906001019060200180831161091657829003601f168201915b50505050509080600201805461094890615bcb565b80601f016020809104026020016040519081016040528092919081815260200182805461097490615bcb565b80156109c15780601f10610996576101008083540402835291602001916109c1565b820191906000526020600020905b8154815290600101906020018083116109a457829003601f168201915b5050505050908060030180546109d690615bcb565b80601f0160208091040260200160405190810160405280929190818152602001828054610a0290615bcb565b8015610a4f5780601f10610a2457610100808354040283529160200191610a4f565b820191906000526020600020905b815481529060010190602001808311610a3257829003601f168201915b505050505090806004015490806005018054610a6a90615bcb565b80601f0160208091040260200160405190810160405280929190818152602001828054610a9690615bcb565b8015610ae35780601f10610ab857610100808354040283529160200191610ae3565b820191906000526020600020905b815481529060010190602001808311610ac657829003601f168201915b5050505050908060060160009054906101000a900473ffffffffffffffffffffffffffffffffffffffff1690806007015490806008018054610b2490615bcb565b80601f0160208091040260200160405190810160405280929190818152602001828054610b5090615bcb565b8015610b9d5780601f10610b7257610100808354040283529160200191610b9d565b820191906000526020600020905b815481529060010190602001808311610b8057829003601f168201915b505050505090806009018054610bb290615bcb565b80601f0160208091040260200160405190810160405280929190818152602001828054610bde90615bcb565b8015610c2b5780601f10610c0057610100808354040283529160200191610c2b565b820191906000526020600020905b815481529060010190602001808311610c0e57829003601f168201915b50505050509080600a015490508b565b600a81805160208101820180518482526020830160208501208183528095505050505050600091509050806000015490806001018054610c7a90615bcb565b80601f0160208091040260200160405190810160405280929190818152602001828054610ca690615bcb565b8015610cf35780601f10610cc857610100808354040283529160200191610cf3565b820191906000526020600020905b815481529060010190602001808311610cd657829003601f168201915b505050505090806002018054610d0890615bcb565b80601f0160208091040260200160405190810160405280929190818152602001828054610d3490615bcb565b8015610d815780601f10610d5657610100808354040283529160200191610d81565b820191906000526020600020905b815481529060010190602001808311610d6457829003601f168201915b5050505050908060030154908060040154905085565b60606006805480602002602001604051908101604052809291908181526020016000905b8282101561126057838290600052602060002090600b020160405180610160016040529081600082018054610def90615bcb565b80601f0160208091040260200160405190810160405280929190818152602001828054610e1b90615bcb565b8015610e685780601f10610e3d57610100808354040283529160200191610e68565b820191906000526020600020905b815481529060010190602001808311610e4b57829003601f168201915b50505050508152602001600182018054610e8190615bcb565b80601f0160208091040260200160405190810160405280929190818152602001828054610ead90615bcb565b8015610efa5780601f10610ecf57610100808354040283529160200191610efa565b820191906000526020600020905b815481529060010190602001808311610edd57829003601f168201915b50505050508152602001600282018054610f1390615bcb565b80601f0160208091040260200160405190810160405280929190818152602001828054610f3f90615bcb565b8015610f8c5780601f10610f6157610100808354040283529160200191610f8c565b820191906000526020600020905b815481529060010190602001808311610f6f57829003601f168201915b50505050508152602001600382018054610fa590615bcb565b80601f0160208091040260200160405190810160405280929190818152602001828054610fd190615bcb565b801561101e5780601f10610ff35761010080835404028352916020019161101e565b820191906000526020600020905b81548152906001019060200180831161100157829003601f168201915b505050505081526020016004820154815260200160058201805461104190615bcb565b80601f016020809104026020016040519081016040528092919081815260200182805461106d90615bcb565b80156110ba5780601f1061108f576101008083540402835291602001916110ba565b820191906000526020600020905b81548152906001019060200180831161109d57829003601f168201915b505050505081526020016006820160009054906101000a900473ffffffffffffffffffffffffffffffffffffffff1673ffffffffffffffffffffffffffffffffffffffff1673ffffffffffffffffffffffffffffffffffffffff1681526020016007820154815260200160088201805461113390615bcb565b80601f016020809104026020016040519081016040528092919081815260200182805461115f90615bcb565b80156111ac5780601f10611181576101008083540402835291602001916111ac565b820191906000526020600020905b81548152906001019060200180831161118f57829003601f168201915b505050505081526020016009820180546111c590615bcb565b80601f01602080910402602001604051908101604052809291908181526020018280546111f190615bcb565b801561123e5780601f106112135761010080835404028352916020019161123e565b820191906000526020600020905b81548152906001019060200180831161122157829003601f168201915b50505050508152602001600a8201548152505081526020019060010190610dbb565b50505050905090565b600b60205280600052604060002060009150905080600001805461128c90615bcb565b80601f01602080910402602001604051908101604052809291908181526020018280546112b890615bcb565b80156113055780601f106112da57610100808354040283529160200191611305565b820191906000526020600020905b8154815290600101906020018083116112e857829003601f168201915b50505050509080600101805461131a90615bcb565b80601f016020809104026020016040519081016040528092919081815260200182805461134690615bcb565b80156113935780601f1061136857610100808354040283529160200191611393565b820191906000526020600020905b81548152906001019060200180831161137657829003601f168201915b5050505050908060020160009054906101000a900473ffffffffffffffffffffffffffffffffffffffff16908060030154908060040154908060050154908060060154905087565b6113e361475a565b6000600e836040516113f59190615445565b908152602001604051809103902090508060405180604001604052908160008201805461142190615bcb565b80601f016020809104026020016040519081016040528092919081815260200182805461144d90615bcb565b801561149a5780601f1061146f5761010080835404028352916020019161149a565b820191906000526020600020905b81548152906001019060200180831161147d57829003601f168201915b5050505050815260200160018201805480602002602001604051908101604052809291908181526020016000905b8282101561169c57838290600052602060002090600702016040518060e00160405290816000820180546114fb90615bcb565b80601f016020809104026020016040519081016040528092919081815260200182805461152790615bcb565b80156115745780601f1061154957610100808354040283529160200191611574565b820191906000526020600020905b81548152906001019060200180831161155757829003601f168201915b5050505050815260200160018201805461158d90615bcb565b80601f01602080910402602001604051908101604052809291908181526020018280546115b990615bcb565b80156116065780601f106115db57610100808354040283529160200191611606565b820191906000526020600020905b8154815290600101906020018083116115e957829003601f168201915b505050505081526020016002820160009054906101000a900473ffffffffffffffffffffffffffffffffffffffff1673ffffffffffffffffffffffffffffffffffffffff1673ffffffffffffffffffffffffffffffffffffffff168152602001600382015481526020016004820154815260200160058201548152602001600682015481525050815260200190600101906114c8565b5050505081525050915050919050565b60008060009054906101000a900473ffffffffffffffffffffffffffffffffffffffff1673ffffffffffffffffffffffffffffffffffffffff163373ffffffffffffffffffffffffffffffffffffffff161461170757600080fd5b6001905090565b600080600c836040516117219190615445565b9081526020016040518091039020905060008160080190506000826009019050600061174c86612dd0565b90506001811415611e88576000600e876040516117699190615445565b908152602001604051809103902090506000600b60003373ffffffffffffffffffffffffffffffffffffffff1673ffffffffffffffffffffffffffffffffffffffff16815260200190815260200160002090508160010181908060018154018082558091505060019003906000526020600020906007020160009091909190915060008201816000019080546117fe90615bcb565b611809929190614774565b50600182018160010190805461181e90615bcb565b611829929190614774565b506002820160009054906101000a900473ffffffffffffffffffffffffffffffffffffffff168160020160006101000a81548173ffffffffffffffffffffffffffffffffffffffff021916908373ffffffffffffffffffffffffffffffffffffffff160217905550600382015481600301556004820154816004015560058201548160050155600682015481600601555050600181600401546118cc9190615a91565b81600401819055506000600d896040516118e69190615445565b90815260200160405180910390209050611a1286805461190590615bcb565b80601f016020809104026020016040519081016040528092919081815260200182805461193190615bcb565b801561197e5780601f106119535761010080835404028352916020019161197e565b820191906000526020600020905b81548152906001019060200180831161196157829003601f168201915b505050505086805461198f90615bcb565b80601f01602080910402602001604051908101604052809291908181526020018280546119bb90615bcb565b8015611a085780601f106119dd57610100808354040283529160200191611a08565b820191906000526020600020905b8154815290600101906020018083116119eb57829003601f168201915b5050505050614176565b15611c05576040518060400160405280600881526020017f415050524f564544000000000000000000000000000000000000000000000000815250876005019080519060200190611a64929190614801565b506040518060400160405280601581526020017f5472616e73616374696f6e20436f6d706c657465640000000000000000000000815250816000019080519060200190611ab2929190614801565b5088604051602001611ac491906154f2565b604051602081830303815290604052816001019080519060200190611aea929190614801565b5088816002019080519060200190611b03929190614801565b506040518060400160405280600881526020017f415050524f564544000000000000000000000000000000000000000000000000815250816003019080519060200190611b51929190614801565b5060078190806001815401808255809150506001900390600052602060002090600402016000909190919091506000820181600001908054611b9290615bcb565b611b9d929190614774565b506001820181600101908054611bb290615bcb565b611bbd929190614774565b506002820181600201908054611bd290615bcb565b611bdd929190614774565b506003820181600301908054611bf290615bcb565b611bfd929190614774565b505050611e79565b6000600a87604051611c17919061545c565b908152602001604051809103902090506000816002019050611cc1888054611c3e90615bcb565b80601f0160208091040260200160405190810160405280929190818152602001828054611c6a90615bcb565b8015611cb75780601f10611c8c57610100808354040283529160200191611cb7565b820191906000526020600020905b815481529060010190602001808311611c9a57829003601f168201915b50505050506141cf565b896008019080519060200190611cd8929190614801565b506040518060400160405280601481526020017f5472616e73616374696f6e20417070726f766564000000000000000000000000815250836000019080519060200190611d26929190614801565b508a81604051602001611d3a9291906154b8565b604051602081830303815290604052836001019080519060200190611d60929190614801565b508a836002019080519060200190611d79929190614801565b506040518060400160405280600881526020017f415050524f564544000000000000000000000000000000000000000000000000815250836003019080519060200190611dc7929190614801565b5060078390806001815401808255809150506001900390600052602060002090600402016000909190919091506000820181600001908054611e0890615bcb565b611e13929190614774565b506001820181600101908054611e2890615bcb565b611e33929190614774565b506002820181600201908054611e4890615bcb565b611e53929190614774565b506003820181600301908054611e6890615bcb565b611e73929190614774565b50505050505b83975050505050505050611e90565b809450505050505b919050565b60078181548110611ea557600080fd5b9060005260206000209060040201600091509050806000018054611ec890615bcb565b80601f0160208091040260200160405190810160405280929190818152602001828054611ef490615bcb565b8015611f415780601f10611f1657610100808354040283529160200191611f41565b820191906000526020600020905b815481529060010190602001808311611f2457829003601f168201915b505050505090806001018054611f5690615bcb565b80601f0160208091040260200160405190810160405280929190818152602001828054611f8290615bcb565b8015611fcf5780601f10611fa457610100808354040283529160200191611fcf565b820191906000526020600020905b815481529060010190602001808311611fb257829003601f168201915b505050505090806002018054611fe490615bcb565b80601f016020809104026020016040519081016040528092919081815260200182805461201090615bcb565b801561205d5780601f106120325761010080835404028352916020019161205d565b820191906000526020600020905b81548152906001019060200180831161204057829003601f168201915b50505050509080600301805461207290615bcb565b80601f016020809104026020016040519081016040528092919081815260200182805461209e90615bcb565b80156120eb5780601f106120c0576101008083540402835291602001916120eb565b820191906000526020600020905b8154815290600101906020018083116120ce57829003601f168201915b5050505050905084565b6009818154811061212f577f4e487b7100000000000000000000000000000000000000000000000000000000600052603260045260246000fd5b9060005260206000200160006101000a81549073ffffffffffffffffffffffffffffffffffffffff021916905550565b600080600b60003373ffffffffffffffffffffffffffffffffffffffff1673ffffffffffffffffffffffffffffffffffffffff1681526020019081526020016000209050600181600501546121b49190615a91565b81600501819055506000600c846040516121ce9190615445565b908152602001604051809103902090506040518060400160405280600881526020017f4445434c494e454400000000000000000000000000000000000000000000000081525081600501908051906020019061222b929190614801565b50600192505050919050565b6000600b60003373ffffffffffffffffffffffffffffffffffffffff1673ffffffffffffffffffffffffffffffffffffffff16815260200190815260200160002060020160009054906101000a900473ffffffffffffffffffffffffffffffffffffffff1673ffffffffffffffffffffffffffffffffffffffff163373ffffffffffffffffffffffffffffffffffffffff16146122d357600080fd5b6001905090565b6060600980548060200260200160405190810160405280929190818152602001828054801561235e57602002820191906000526020600020905b8160009054906101000a900473ffffffffffffffffffffffffffffffffffffffff1673ffffffffffffffffffffffffffffffffffffffff1681526020019060010190808311612314575b5050505050905090565b6009818154811061237857600080fd5b906000526020600020016000915054906101000a900473ffffffffffffffffffffffffffffffffffffffff1681565b6000600a856040516123b99190615445565b90815260200160405180910390209050600460008154809291906123dc90615c2e565b91905055816000018190555084816001019080519060200190612400929190614801565b5083816002019080519060200190612419929190614801565b50828160030181905550818160040181905550600881908060018154018082558091505060019003906000526020600020906005020160009091909190915060008201548160000155600182018160010190805461247690615bcb565b612481929190614774565b50600282018160020190805461249690615bcb565b6124a1929190614774565b50600382015481600301556004820154816004015550505050505050565b600e818051602081018201805184825260208301602085012081835280955050505050506000915090508060000180546124f890615bcb565b80601f016020809104026020016040519081016040528092919081815260200182805461252490615bcb565b80156125715780601f1061254657610100808354040283529160200191612571565b820191906000526020600020905b81548152906001019060200180831161255457829003601f168201915b5050505050905081565b6000600b60008473ffffffffffffffffffffffffffffffffffffffff1673ffffffffffffffffffffffffffffffffffffffff1681526020019081526020016000209050838160010190805190602001906125d6929190614801565b50828160020160006101000a81548173ffffffffffffffffffffffffffffffffffffffff021916908373ffffffffffffffffffffffffffffffffffffffff16021790555081816000019080519060200190612632929190614801565b506002600081548092919061264690615c2e565b9190505581600301819055506009839080600181540180825580915050600190039060005260206000200160009091909190916101000a81548173ffffffffffffffffffffffffffffffffffffffff021916908373ffffffffffffffffffffffffffffffffffffffff16021790555050505050565b600160009054906101000a900473ffffffffffffffffffffffffffffffffffffffff1681565b600c8180516020810182018051848252602083016020850120818352809550505050505060009150905080600001805461271a90615bcb565b80601f016020809104026020016040519081016040528092919081815260200182805461274690615bcb565b80156127935780601f1061276857610100808354040283529160200191612793565b820191906000526020600020905b81548152906001019060200180831161277657829003601f168201915b5050505050908060010180546127a890615bcb565b80601f01602080910402602001604051908101604052809291908181526020018280546127d490615bcb565b80156128215780601f106127f657610100808354040283529160200191612821565b820191906000526020600020905b81548152906001019060200180831161280457829003601f168201915b50505050509080600201805461283690615bcb565b80601f016020809104026020016040519081016040528092919081815260200182805461286290615bcb565b80156128af5780601f10612884576101008083540402835291602001916128af565b820191906000526020600020905b81548152906001019060200180831161289257829003601f168201915b5050505050908060030180546128c490615bcb565b80601f01602080910402602001604051908101604052809291908181526020018280546128f090615bcb565b801561293d5780601f106129125761010080835404028352916020019161293d565b820191906000526020600020905b81548152906001019060200180831161292057829003601f168201915b50505050509080600401549080600501805461295890615bcb565b80601f016020809104026020016040519081016040528092919081815260200182805461298490615bcb565b80156129d15780601f106129a6576101008083540402835291602001916129d1565b820191906000526020600020905b8154815290600101906020018083116129b457829003601f168201915b5050505050908060060160009054906101000a900473ffffffffffffffffffffffffffffffffffffffff1690806007015490806008018054612a1290615bcb565b80601f0160208091040260200160405190810160405280929190818152602001828054612a3e90615bcb565b8015612a8b5780601f10612a6057610100808354040283529160200191612a8b565b820191906000526020600020905b815481529060010190602001808311612a6e57829003601f168201915b505050505090806009018054612aa090615bcb565b80601f0160208091040260200160405190810160405280929190818152602001828054612acc90615bcb565b8015612b195780601f10612aee57610100808354040283529160200191612b19565b820191906000526020600020905b815481529060010190602001808311612afc57829003601f168201915b50505050509080600a015490508b565b60606007805480602002602001604051908101604052809291908181526020016000905b82821015612dc75783829060005260206000209060040201604051806080016040529081600082018054612b8090615bcb565b80601f0160208091040260200160405190810160405280929190818152602001828054612bac90615bcb565b8015612bf95780601f10612bce57610100808354040283529160200191612bf9565b820191906000526020600020905b815481529060010190602001808311612bdc57829003601f168201915b50505050508152602001600182018054612c1290615bcb565b80601f0160208091040260200160405190810160405280929190818152602001828054612c3e90615bcb565b8015612c8b5780601f10612c6057610100808354040283529160200191612c8b565b820191906000526020600020905b815481529060010190602001808311612c6e57829003601f168201915b50505050508152602001600282018054612ca490615bcb565b80601f0160208091040260200160405190810160405280929190818152602001828054612cd090615bcb565b8015612d1d5780601f10612cf257610100808354040283529160200191612d1d565b820191906000526020600020905b815481529060010190602001808311612d0057829003601f168201915b50505050508152602001600382018054612d3690615bcb565b80601f0160208091040260200160405190810160405280929190818152602001828054612d6290615bcb565b8015612daf5780601f10612d8457610100808354040283529160200191612daf565b820191906000526020600020905b815481529060010190602001808311612d9257829003601f168201915b50505050508152505081526020019060010190612b4d565b50505050905090565b600080600c83604051612de39190615445565b90815260200160405180910390209050600081600a015490506000826009018054612e0d90615bcb565b80601f0160208091040260200160405190810160405280929190818152602001828054612e3990615bcb565b8015612e865780601f10612e5b57610100808354040283529160200191612e86565b820191906000526020600020905b815481529060010190602001808311612e6957829003601f168201915b505050505090506000836008018054612e9e90615bcb565b80601f0160208091040260200160405190810160405280929190818152602001828054612eca90615bcb565b8015612f175780601f10612eec57610100808354040283529160200191612f17565b820191906000526020600020905b815481529060010190602001808311612efa57829003601f168201915b505050505090506000612f2a8285614392565b90508061374157612f3b8284614176565b156133ab5761300b856005018054612f5290615bcb565b80601f0160208091040260200160405190810160405280929190818152602001828054612f7e90615bcb565b8015612fcb5780601f10612fa057610100808354040283529160200191612fcb565b820191906000526020600020905b815481529060010190602001808311612fae57829003601f168201915b50505050506040518060400160405280600781526020017f4558504952454400000000000000000000000000000000000000000000000000815250614176565b61339d576040518060400160405280600781526020017f455850495245440000000000000000000000000000000000000000000000000081525085600501908051906020019061305c929190614801565b5060005b6009805490508110156131dd576000600b6000600984815481106130ad577f4e487b7100000000000000000000000000000000000000000000000000000000600052603260045260246000fd5b9060005260206000200160009054906101000a900473ffffffffffffffffffffffffffffffffffffffff1673ffffffffffffffffffffffffffffffffffffffff1673ffffffffffffffffffffffffffffffffffffffff16815260200190815260200160002090506131aa81600101805461312690615bcb565b80601f016020809104026020016040519081016040528092919081815260200182805461315290615bcb565b801561319f5780601f106131745761010080835404028352916020019161319f565b820191906000526020600020905b81548152906001019060200180831161318257829003601f168201915b505050505085614176565b156131c957600181600601546131c09190615a91565b81600601819055505b5080806131d590615c2e565b915050613060565b506000600d886040516131f09190615445565b908152602001604051809103902090506040518060400160405280601381526020017f5472616e73616374696f6e20457870697265640000000000000000000000000081525081600001908051906020019061324d929190614801565b508760405160200161325f9190615557565b604051602081830303815290604052816001019080519060200190613285929190614801565b508781600201908051906020019061329e929190614801565b506040518060400160405280600781526020017f45585049524544000000000000000000000000000000000000000000000000008152508160030190805190602001906132ec929190614801565b506007819080600181540180825580915050600190039060005260206000209060040201600090919091909150600082018160000190805461332d90615bcb565b613338929190614774565b50600182018160010190805461334d90615bcb565b613358929190614774565b50600282018160020190805461336d90615bcb565b613378929190614774565b50600382018160030190805461338d90615bcb565b613398929190614774565b505050505b60009550505050505061374b565b6133b4826141cf565b8560080190805190602001906133cb929190614801565b5060005b60098054905081101561354c576000600b60006009848154811061341c577f4e487b7100000000000000000000000000000000000000000000000000000000600052603260045260246000fd5b9060005260206000200160009054906101000a900473ffffffffffffffffffffffffffffffffffffffff1673ffffffffffffffffffffffffffffffffffffffff1673ffffffffffffffffffffffffffffffffffffffff168152602001908152602001600020905061351981600101805461349590615bcb565b80601f01602080910402602001604051908101604052809291908181526020018280546134c190615bcb565b801561350e5780601f106134e35761010080835404028352916020019161350e565b820191906000526020600020905b8154815290600101906020018083116134f157829003601f168201915b505050505085614176565b15613538576001816006015461352f9190615a91565b81600601819055505b50808061354490615c2e565b9150506133cf565b506000600a8360405161355f9190615445565b908152602001604051809103902090506000600d896040516135819190615445565b908152602001604051809103902090506040518060400160405280601781526020017f5472616e73616374696f6e205472616e736665727265640000000000000000008152508160000190805190602001906135de929190614801565b5088826002016040516020016135f5929190615473565b60405160208183030381529060405281600101908051906020019061361b929190614801565b5088816002019080519060200190613634929190614801565b506040518060400160405280600781526020017f50454e44494e4700000000000000000000000000000000000000000000000000815250816003019080519060200190613682929190614801565b50600781908060018154018082558091505060019003906000526020600020906004020160009091909190915060008201816000019080546136c390615bcb565b6136ce929190614774565b5060018201816001019080546136e390615bcb565b6136ee929190614774565b50600282018160020190805461370390615bcb565b61370e929190614774565b50600382018160030190805461372390615bcb565b61372e929190614774565b505050600297505050505050505061374b565b6001955050505050505b919050565b600b60003373ffffffffffffffffffffffffffffffffffffffff1673ffffffffffffffffffffffffffffffffffffffff16815260200190815260200160002060020160009054906101000a900473ffffffffffffffffffffffffffffffffffffffff1673ffffffffffffffffffffffffffffffffffffffff163373ffffffffffffffffffffffffffffffffffffffff16146137ea57600080fd5b6000600c856040516137fc9190615445565b9081526020016040518091039020905085816000019080519060200190613824929190614801565b508481600101908051906020019061383d929190614801565b5083816002019080519060200190613856929190614801565b508281600301908051906020019061386f929190614801565b506003600081548092919061388390615c2e565b9190505581600401819055506040518060400160405280600781526020017f50454e44494e47000000000000000000000000000000000000000000000000008152508160050190805190602001906138dc929190614801565b50338160060160006101000a81548173ffffffffffffffffffffffffffffffffffffffff021916908373ffffffffffffffffffffffffffffffffffffffff1602179055508181600701819055506040518060400160405280600381526020017f484f440000000000000000000000000000000000000000000000000000000000815250816008019080519060200190613976929190614801565b506000613982836145d2565b90508082600901908051906020019061399c929190614801565b506000600e876040516139af9190615445565b90815260200160405180910390209050868160000190805190602001906139d7929190614801565b506000600b60003373ffffffffffffffffffffffffffffffffffffffff1673ffffffffffffffffffffffffffffffffffffffff1681526020019081526020016000209050816001018190806001815401808255809150506001900390600052602060002090600702016000909190919091506000820181600001908054613a5d90615bcb565b613a68929190614774565b506001820181600101908054613a7d90615bcb565b613a88929190614774565b506002820160009054906101000a900473ffffffffffffffffffffffffffffffffffffffff168160020160006101000a81548173ffffffffffffffffffffffffffffffffffffffff021916908373ffffffffffffffffffffffffffffffffffffffff1602179055506003820154816003015560048201548160040155600582015481600501556006820154816006015550504284600a018190555060068490806001815401808255809150506001900390600052602060002090600b02016000909190919091506000820181600001908054613b6390615bcb565b613b6e929190614774565b506001820181600101908054613b8390615bcb565b613b8e929190614774565b506002820181600201908054613ba390615bcb565b613bae929190614774565b506003820181600301908054613bc390615bcb565b613bce929190614774565b50600482015481600401556005820181600501908054613bed90615bcb565b613bf8929190614774565b506006820160009054906101000a900473ffffffffffffffffffffffffffffffffffffffff168160060160006101000a81548173ffffffffffffffffffffffffffffffffffffffff021916908373ffffffffffffffffffffffffffffffffffffffff160217905550600782015481600701556008820181600801908054613c7e90615bcb565b613c89929190614774565b506009820181600901908054613c9e90615bcb565b613ca9929190614774565b50600a82015481600a015550506000600d89604051613cc89190615445565b908152602001604051809103902090506040518060400160405280601381526020017f5472616e73616374696f6e204372656174656400000000000000000000000000815250816000019080519060200190613d25929190614801565b5088604051602001613d37919061551f565b604051602081830303815290604052816001019080519060200190613d5d929190614801565b5088816002019080519060200190613d76929190614801565b506040518060400160405280600681526020017f6372656174650000000000000000000000000000000000000000000000000000815250816003019080519060200190613dc4929190614801565b5060078190806001815401808255809150506001900390600052602060002090600402016000909190919091506000820181600001908054613e0590615bcb565b613e10929190614774565b506001820181600101908054613e2590615bcb565b613e30929190614774565b506002820181600201908054613e4590615bcb565b613e50929190614774565b506003820181600301908054613e6590615bcb565b613e70929190614774565b50505050505050505050505050565b60088181548110613e8f57600080fd5b9060005260206000209060050201600091509050806000015490806001018054613eb890615bcb565b80601f0160208091040260200160405190810160405280929190818152602001828054613ee490615bcb565b8015613f315780601f10613f0657610100808354040283529160200191613f31565b820191906000526020600020905b815481529060010190602001808311613f1457829003601f168201915b505050505090806002018054613f4690615bcb565b80601f0160208091040260200160405190810160405280929190818152602001828054613f7290615bcb565b8015613fbf5780601f10613f9457610100808354040283529160200191613fbf565b820191906000526020600020905b815481529060010190602001808311613fa257829003601f168201915b5050505050908060030154908060040154905085565b60606008805480602002602001604051908101604052809291908181526020016000905b8282101561416d57838290600052602060002090600502016040518060a00160405290816000820154815260200160018201805461403690615bcb565b80601f016020809104026020016040519081016040528092919081815260200182805461406290615bcb565b80156140af5780601f10614084576101008083540402835291602001916140af565b820191906000526020600020905b81548152906001019060200180831161409257829003601f168201915b505050505081526020016002820180546140c890615bcb565b80601f01602080910402602001604051908101604052809291908181526020018280546140f490615bcb565b80156141415780601f1061411657610100808354040283529160200191614141565b820191906000526020600020905b81548152906001019060200180831161412457829003601f168201915b505050505081526020016003820154815260200160048201548152505081526020019060010190613ff9565b50505050905090565b6000816040516020016141899190615445565b60405160208183030381529060405280519060200120836040516020016141b09190615445565b6040516020818303038152906040528051906020012014905092915050565b6060614210826040518060400160405280600381526020017f484f440000000000000000000000000000000000000000000000000000000000815250614176565b15614252576040518060400160405280600281526020017f464f000000000000000000000000000000000000000000000000000000000000815250905061438d565b614291826040518060400160405280600281526020017f464f000000000000000000000000000000000000000000000000000000000000815250614176565b156142d3576040518060400160405280600381526020017f5245470000000000000000000000000000000000000000000000000000000000815250905061438d565b614312826040518060400160405280600381526020017f5245470000000000000000000000000000000000000000000000000000000000815250614176565b15614354576040518060400160405280600281526020017f5643000000000000000000000000000000000000000000000000000000000000815250905061438d565b6040518060400160405280600281526020017f434300000000000000000000000000000000000000000000000000000000000081525090505b919050565b6000804290506143d7846040518060400160405280600381526020017f484f440000000000000000000000000000000000000000000000000000000000815250614176565b80156143ef575080600554846143ed9190615a91565b115b156143fe5760019150506145cc565b61443d846040518060400160405280600281526020017f464f000000000000000000000000000000000000000000000000000000000000815250614176565b801561446157508060055460036144549190615ae7565b8461445f9190615a91565b115b156144705760019150506145cc565b6144af846040518060400160405280600381526020017f5245470000000000000000000000000000000000000000000000000000000000815250614176565b80156144d357508060055460056144c69190615ae7565b846144d19190615a91565b115b156144e25760019150506145cc565b614521846040518060400160405280600281526020017f5643000000000000000000000000000000000000000000000000000000000000815250614176565b801561454557508060055460076145389190615ae7565b846145439190615a91565b115b156145545760019150506145cc565b614593846040518060400160405280600281526020017f4343000000000000000000000000000000000000000000000000000000000000815250614176565b80156145b7575080600554600a6145aa9190615ae7565b846145b59190615a91565b115b156145c65760019150506145cc565b60009150505b92915050565b6060611388821161461a576040518060400160405280600381526020017f484f4400000000000000000000000000000000000000000000000000000000008152509050614755565b6113888211801561462d57506127108211155b1561466f576040518060400160405280600281526020017f464f0000000000000000000000000000000000000000000000000000000000008152509050614755565b612710821180156146835750620124f88211155b156146c5576040518060400160405280600381526020017f52454700000000000000000000000000000000000000000000000000000000008152509050614755565b620124f8821180156146da5750620493e08211155b1561471c576040518060400160405280600281526020017f56430000000000000000000000000000000000000000000000000000000000008152509050614755565b6040518060400160405280600281526020017f434300000000000000000000000000000000000000000000000000000000000081525090505b919050565b604051806040016040528060608152602001606081525090565b82805461478090615bcb565b90600052602060002090601f0160209004810192826147a257600085556147f0565b82601f106147b357805485556147f0565b828001600101855582156147f057600052602060002091601f016020900482015b828111156147ef5782548255916001019190600101906147d4565b5b5090506147fd9190614887565b5090565b82805461480d90615bcb565b90600052602060002090601f01602090048101928261482f5760008555614876565b82601f1061484857805160ff1916838001178555614876565b82800160010185558215614876579182015b8281111561487557825182559160200191906001019061485a565b5b5090506148839190614887565b5090565b5b808211156148a0576000816000905550600101614888565b5090565b60006148b76148b2846158e1565b6158bc565b9050828152602081018484840111156148cf57600080fd5b6148da848285615b89565b509392505050565b6000813590506148f181615ecf565b92915050565b600082601f83011261490857600080fd5b81356149188482602086016148a4565b91505092915050565b60008135905061493081615ee6565b92915050565b60006020828403121561494857600080fd5b6000614956848285016148e2565b91505092915050565b60006020828403121561497157600080fd5b600082013567ffffffffffffffff81111561498b57600080fd5b614997848285016148f7565b91505092915050565b6000806000606084860312156149b557600080fd5b600084013567ffffffffffffffff8111156149cf57600080fd5b6149db868287016148f7565b93505060206149ec868287016148e2565b925050604084013567ffffffffffffffff811115614a0957600080fd5b614a15868287016148f7565b9150509250925092565b600080600080600060a08688031215614a3757600080fd5b600086013567ffffffffffffffff811115614a5157600080fd5b614a5d888289016148f7565b955050602086013567ffffffffffffffff811115614a7a57600080fd5b614a86888289016148f7565b945050604086013567ffffffffffffffff811115614aa357600080fd5b614aaf888289016148f7565b935050606086013567ffffffffffffffff811115614acc57600080fd5b614ad8888289016148f7565b9250506080614ae988828901614921565b9150509295509295909350565b60008060008060808587031215614b0c57600080fd5b600085013567ffffffffffffffff811115614b2657600080fd5b614b32878288016148f7565b945050602085013567ffffffffffffffff811115614b4f57600080fd5b614b5b878288016148f7565b9350506040614b6c87828801614921565b9250506060614b7d87828801614921565b91505092959194509250565b600060208284031215614b9b57600080fd5b6000614ba984828501614921565b91505092915050565b6000614bbe8383614c1a565b60208301905092915050565b6000614bd68383615176565b905092915050565b6000614bea83836151ee565b905092915050565b6000614bfe838361526b565b905092915050565b6000614c128383615384565b905092915050565b614c2381615b41565b82525050565b614c3281615b41565b82525050565b6000614c438261598c565b614c4d8185615a0f565b9350614c5883615912565b8060005b83811015614c89578151614c708882614bb2565b9750614c7b836159ce565b925050600181019050614c5c565b5085935050505092915050565b6000614ca182615997565b614cab8185615a20565b935083602082028501614cbd85615922565b8060005b85811015614cf95784840389528151614cda8582614bca565b9450614ce5836159db565b925060208a01995050600181019050614cc1565b50829750879550505050505092915050565b6000614d16826159a2565b614d208185615a31565b935083602082028501614d3285615932565b8060005b85811015614d6e5784840389528151614d4f8582614bde565b9450614d5a836159e8565b925060208a01995050600181019050614d36565b50829750879550505050505092915050565b6000614d8b826159ad565b614d958185615a42565b935083602082028501614da785615942565b8060005b85811015614de35784840389528151614dc48582614bf2565b9450614dcf836159f5565b925060208a01995050600181019050614dab565b50829750879550505050505092915050565b6000614e00826159b8565b614e0a8185615a53565b935083602082028501614e1c85615952565b8060005b85811015614e585784840389528151614e398582614c06565b9450614e4483615a02565b925060208a01995050600181019050614e20565b50829750879550505050505092915050565b614e7381615b53565b82525050565b6000614e84826159c3565b614e8e8185615a64565b9350614e9e818560208601615b98565b614ea781615d04565b840191505092915050565b6000614ebd826159c3565b614ec78185615a75565b9350614ed7818560208601615b98565b614ee081615d04565b840191505092915050565b6000614ef6826159c3565b614f008185615a86565b9350614f10818560208601615b98565b80840191505092915050565b60008154614f2981615bcb565b614f338186615a86565b94506001821660008114614f4e5760018114614f5f57614f92565b60ff19831686528186019350614f92565b614f6885615977565b60005b83811015614f8a57815481890152600182019150602081019050614f6b565b838801955050505b50505092915050565b60008154614fa881615bcb565b614fb28186615a86565b94506001821660008114614fcd5760018114614fde57615011565b60ff19831686528186019350615011565b614fe785615962565b60005b8381101561500957815481890152600182019150602081019050614fea565b838801955050505b50505092915050565b6000615027601083615a86565b915061503282615d15565b601082019050919050565b600061504a600b83615a86565b915061505582615d3e565b600b82019050919050565b600061506d602283615a86565b915061507882615d67565b602282019050919050565b6000615090601083615a86565b915061509b82615db6565b601082019050919050565b60006150b3603183615a86565b91506150be82615ddf565b603182019050919050565b60006150d6603183615a86565b91506150e182615e2e565b603182019050919050565b60006150f9600183615a86565b915061510482615e7d565b600182019050919050565b600061511c600b83615a86565b915061512782615ea6565b600b82019050919050565b6000604083016000830151848203600086015261514f8282614e79565b915050602083015184820360208601526151698282614df5565b9150508091505092915050565b600060808301600083015184820360008601526151938282614e79565b915050602083015184820360208601526151ad8282614e79565b915050604083015184820360408601526151c78282614e79565b915050606083015184820360608601526151e18282614e79565b9150508091505092915050565b600060a0830160008301516152066000860182615427565b506020830151848203602086015261521e8282614e79565b915050604083015184820360408601526152388282614e79565b915050606083015161524d6060860182615427565b5060808301516152606080860182615427565b508091505092915050565b60006101608301600083015184820360008601526152898282614e79565b915050602083015184820360208601526152a38282614e79565b915050604083015184820360408601526152bd8282614e79565b915050606083015184820360608601526152d78282614e79565b91505060808301516152ec6080860182615427565b5060a083015184820360a08601526153048282614e79565b91505060c083015161531960c0860182614c1a565b5060e083015161532c60e0860182615427565b506101008301518482036101008601526153468282614e79565b9150506101208301518482036101208601526153628282614e79565b915050610140830151615379610140860182615427565b508091505092915050565b600060e08301600083015184820360008601526153a18282614e79565b915050602083015184820360208601526153bb8282614e79565b91505060408301516153d06040860182614c1a565b5060608301516153e36060860182615427565b5060808301516153f66080860182615427565b5060a083015161540960a0860182615427565b5060c083015161541c60c0860182615427565b508091505092915050565b61543081615b7f565b82525050565b61543f81615b7f565b82525050565b60006154518284614eeb565b915081905092915050565b60006154688284614f1c565b915081905092915050565b600061547e82615060565b915061548a8285614eeb565b91506154958261501a565b91506154a18284614f9b565b91506154ac826150a6565b91508190509392505050565b60006154c382615060565b91506154cf8285614eeb565b91506154da82615083565b91506154e68284614f1c565b91508190509392505050565b60006154fd82615060565b91506155098284614eeb565b9150615514826150c9565b915081905092915050565b600061552a82615060565b91506155368284614eeb565b9150615541826150ec565b915061554c8261503d565b915081905092915050565b600061556282615060565b915061556e8284614eeb565b91506155798261510f565b915081905092915050565b60006020820190506155996000830184614c29565b92915050565b600060208201905081810360008301526155b98184614c38565b905092915050565b600060208201905081810360008301526155db8184614c96565b905092915050565b600060208201905081810360008301526155fd8184614d0b565b905092915050565b6000602082019050818103600083015261561f8184614d80565b905092915050565b600060208201905061563c6000830184614e6a565b92915050565b6000602082019050818103600083015261565c8184614eb2565b905092915050565b600060e082019050818103600083015261567e818a614eb2565b905081810360208301526156928189614eb2565b90506156a16040830188614c29565b6156ae6060830187615436565b6156bb6080830186615436565b6156c860a0830185615436565b6156d560c0830184615436565b98975050505050505050565b600060808201905081810360008301526156fb8187614eb2565b9050818103602083015261570f8186614eb2565b905081810360408301526157238185614eb2565b905081810360608301526157378184614eb2565b905095945050505050565b600061016082019050818103600083015261575d818e614eb2565b90508181036020830152615771818d614eb2565b90508181036040830152615785818c614eb2565b90508181036060830152615799818b614eb2565b90506157a8608083018a615436565b81810360a08301526157ba8189614eb2565b90506157c960c0830188614c29565b6157d660e0830187615436565b8181036101008301526157e98186614eb2565b90508181036101208301526157fe8185614eb2565b905061580e610140830184615436565b9c9b505050505050505050505050565b600060208201905081810360008301526158388184615132565b905092915050565b60006020820190506158556000830184615436565b92915050565b600060a0820190506158706000830188615436565b81810360208301526158828187614eb2565b905081810360408301526158968186614eb2565b90506158a56060830185615436565b6158b26080830184615436565b9695505050505050565b60006158c66158d7565b90506158d28282615bfd565b919050565b6000604051905090565b600067ffffffffffffffff8211156158fc576158fb615cd5565b5b61590582615d04565b9050602081019050919050565b6000819050602082019050919050565b6000819050602082019050919050565b6000819050602082019050919050565b6000819050602082019050919050565b6000819050602082019050919050565b60008190508160005260206000209050919050565b60008190508160005260206000209050919050565b600081519050919050565b600081519050919050565b600081519050919050565b600081519050919050565b600081519050919050565b600081519050919050565b6000602082019050919050565b6000602082019050919050565b6000602082019050919050565b6000602082019050919050565b6000602082019050919050565b600082825260208201905092915050565b600082825260208201905092915050565b600082825260208201905092915050565b600082825260208201905092915050565b600082825260208201905092915050565b600082825260208201905092915050565b600082825260208201905092915050565b600081905092915050565b6000615a9c82615b7f565b9150615aa783615b7f565b9250827fffffffffffffffffffffffffffffffffffffffffffffffffffffffffffffffff03821115615adc57615adb615c77565b5b828201905092915050565b6000615af282615b7f565b9150615afd83615b7f565b9250817fffffffffffffffffffffffffffffffffffffffffffffffffffffffffffffffff0483118215151615615b3657615b35615c77565b5b828202905092915050565b6000615b4c82615b5f565b9050919050565b60008115159050919050565b600073ffffffffffffffffffffffffffffffffffffffff82169050919050565b6000819050919050565b82818337600083830152505050565b60005b83811015615bb6578082015181840152602081019050615b9b565b83811115615bc5576000848401525b50505050565b60006002820490506001821680615be357607f821691505b60208210811415615bf757615bf6615ca6565b5b50919050565b615c0682615d04565b810181811067ffffffffffffffff82111715615c2557615c24615cd5565b5b80604052505050565b6000615c3982615b7f565b91507fffffffffffffffffffffffffffffffffffffffffffffffffffffffffffffffff821415615c6c57615c6b615c77565b5b600182019050919050565b7f4e487b7100000000000000000000000000000000000000000000000000000000600052601160045260246000fd5b7f4e487b7100000000000000000000000000000000000000000000000000000000600052602260045260246000fd5b7f4e487b7100000000000000000000000000000000000000000000000000000000600052604160045260246000fd5b6000601f19601f8301169050919050565b7f206973206578706972656420666f722000000000000000000000000000000000600082015250565b7f2069732063726561746564000000000000000000000000000000000000000000600082015250565b7f5472616e73616374696f6e2077697468207472616e73616374696f6e2068617360008201527f6820000000000000000000000000000000000000000000000000000000000000602082015250565b7f20697320617070726f7665642062792000000000000000000000000000000000600082015250565b7f20616e6420686173206265656e207472616e7366657272656420746f2074686560008201527f2068696768657220617574686f72697479000000000000000000000000000000602082015250565b7f20697320636f6d706c6574656420616e6420617070726f76656420627920616c60008201527f6c2074686520617574686f726974696573000000000000000000000000000000602082015250565b7f2000000000000000000000000000000000000000000000000000000000000000600082015250565b7f2069732065787069726564000000000000000000000000000000000000000000600082015250565b615ed881615b41565b8114615ee357600080fd5b50565b615eef81615b7f565b8114615efa57600080fd5b5056fea26469706673582212209a1d560b45991fbeeb8bae8c383fb01855c7d487efb5d582d1a8d7415bee8b0a64736f6c63430008040033","opcodes":"PUSH1 0x80 PUSH1 0x40 MSTORE PUSH3 0x15180 PUSH1 0x5 SSTORE CALLVALUE DUP1 ISZERO PUSH3 0x18 JUMPI PUSH1 0x0 DUP1 REVERT JUMPDEST POP PUSH1 0x40 MLOAD PUSH3 0x63B8 CODESIZE SUB DUP1 PUSH3 0x63B8 DUP4 CODECOPY DUP2 DUP2 ADD PUSH1 0x40 MSTORE DUP2 ADD SWAP1 PUSH3 0x3E SWAP2 SWAP1 PUSH3 0x30F JUMP JUMPDEST DUP1 PUSH1 0x0 DUP1 PUSH2 0x100 EXP DUP2 SLOAD DUP2 PUSH20 0xFFFFFFFFFFFFFFFFFFFFFFFFFFFFFFFFFFFFFFFF MUL NOT AND SWAP1 DUP4 PUSH20 0xFFFFFFFFFFFFFFFFFFFFFFFFFFFFFFFFFFFFFFFF AND MUL OR SWAP1 SSTORE POP PUSH3 0xFB PUSH1 0x40 MLOAD DUP1 PUSH1 0x40 ADD PUSH1 0x40 MSTORE DUP1 PUSH1 0x5 DUP2 MSTORE PUSH1 0x20 ADD PUSH32 0x4F776E6572000000000000000000000000000000000000000000000000000000 DUP2 MSTORE POP DUP3 PUSH1 0x40 MLOAD DUP1 PUSH1 0x40 ADD PUSH1 0x40 MSTORE DUP1 PUSH1 0x5 DUP2 MSTORE PUSH1 0x20 ADD PUSH32 0x41646D696E000000000000000000000000000000000000000000000000000000 DUP2 MSTORE POP PUSH3 0x102 PUSH1 0x20 SHL PUSH1 0x20 SHR JUMP JUMPDEST POP PUSH3 0x475 JUMP JUMPDEST PUSH1 0x0 PUSH1 0xB PUSH1 0x0 DUP5 PUSH20 0xFFFFFFFFFFFFFFFFFFFFFFFFFFFFFFFFFFFFFFFF AND PUSH20 0xFFFFFFFFFFFFFFFFFFFFFFFFFFFFFFFFFFFFFFFF AND DUP2 MSTORE PUSH1 0x20 ADD SWAP1 DUP2 MSTORE PUSH1 0x20 ADD PUSH1 0x0 KECCAK256 SWAP1 POP DUP4 DUP2 PUSH1 0x1 ADD SWAP1 DUP1 MLOAD SWAP1 PUSH1 0x20 ADD SWAP1 PUSH3 0x15F SWAP3 SWAP2 SWAP1 PUSH3 0x248 JUMP JUMPDEST POP DUP3 DUP2 PUSH1 0x2 ADD PUSH1 0x0 PUSH2 0x100 EXP DUP2 SLOAD DUP2 PUSH20 0xFFFFFFFFFFFFFFFFFFFFFFFFFFFFFFFFFFFFFFFF MUL NOT AND SWAP1 DUP4 PUSH20 0xFFFFFFFFFFFFFFFFFFFFFFFFFFFFFFFFFFFFFFFF AND MUL OR SWAP1 SSTORE POP DUP2 DUP2 PUSH1 0x0 ADD SWAP1 DUP1 MLOAD SWAP1 PUSH1 0x20 ADD SWAP1 PUSH3 0x1BD SWAP3 SWAP2 SWAP1 PUSH3 0x248 JUMP JUMPDEST POP PUSH1 0x2 PUSH1 0x0 DUP2 SLOAD DUP1 SWAP3 SWAP2 SWAP1 PUSH3 0x1D3 SWAP1 PUSH3 0x3AF JUMP JUMPDEST SWAP2 SWAP1 POP SSTORE DUP2 PUSH1 0x3 ADD DUP2 SWAP1 SSTORE POP PUSH1 0x9 DUP4 SWAP1 DUP1 PUSH1 0x1 DUP2 SLOAD ADD DUP1 DUP3 SSTORE DUP1 SWAP2 POP POP PUSH1 0x1 SWAP1 SUB SWAP1 PUSH1 0x0 MSTORE PUSH1 0x20 PUSH1 0x0 KECCAK256 ADD PUSH1 0x0 SWAP1 SWAP2 SWAP1 SWAP2 SWAP1 SWAP2 PUSH2 0x100 EXP DUP2 SLOAD DUP2 PUSH20 0xFFFFFFFFFFFFFFFFFFFFFFFFFFFFFFFFFFFFFFFF MUL NOT AND SWAP1 DUP4 PUSH20 0xFFFFFFFFFFFFFFFFFFFFFFFFFFFFFFFFFFFFFFFF AND MUL OR SWAP1 SSTORE POP POP POP POP POP JUMP JUMPDEST DUP3 DUP1 SLOAD PUSH3 0x256 SWAP1 PUSH3 0x379 JUMP JUMPDEST SWAP1 PUSH1 0x0 MSTORE PUSH1 0x20 PUSH1 0x0 KECCAK256 SWAP1 PUSH1 0x1F ADD PUSH1 0x20 SWAP1 DIV DUP2 ADD SWAP3 DUP3 PUSH3 0x27A JUMPI PUSH1 0x0 DUP6 SSTORE PUSH3 0x2C6 JUMP JUMPDEST DUP3 PUSH1 0x1F LT PUSH3 0x295 JUMPI DUP1 MLOAD PUSH1 0xFF NOT AND DUP4 DUP1 ADD OR DUP6 SSTORE PUSH3 0x2C6 JUMP JUMPDEST DUP3 DUP1 ADD PUSH1 0x1 ADD DUP6 SSTORE DUP3 ISZERO PUSH3 0x2C6 JUMPI SWAP2 DUP3 ADD JUMPDEST DUP3 DUP2 GT ISZERO PUSH3 0x2C5 JUMPI DUP3 MLOAD DUP3 SSTORE SWAP2 PUSH1 0x20 ADD SWAP2 SWAP1 PUSH1 0x1 ADD SWAP1 PUSH3 0x2A8 JUMP JUMPDEST JUMPDEST POP SWAP1 POP PUSH3 0x2D5 SWAP2 SWAP1 PUSH3 0x2D9 JUMP JUMPDEST POP SWAP1 JUMP JUMPDEST JUMPDEST DUP1 DUP3 GT ISZERO PUSH3 0x2F4 JUMPI PUSH1 0x0 DUP2 PUSH1 0x0 SWAP1 SSTORE POP PUSH1 0x1 ADD PUSH3 0x2DA JUMP JUMPDEST POP SWAP1 JUMP JUMPDEST PUSH1 0x0 DUP2 MLOAD SWAP1 POP PUSH3 0x309 DUP2 PUSH3 0x45B JUMP JUMPDEST SWAP3 SWAP2 POP POP JUMP JUMPDEST PUSH1 0x0 PUSH1 0x20 DUP3 DUP5 SUB SLT ISZERO PUSH3 0x322 JUMPI PUSH1 0x0 DUP1 REVERT JUMPDEST PUSH1 0x0 PUSH3 0x332 DUP5 DUP3 DUP6 ADD PUSH3 0x2F8 JUMP JUMPDEST SWAP2 POP POP SWAP3 SWAP2 POP POP JUMP JUMPDEST PUSH1 0x0 PUSH3 0x348 DUP3 PUSH3 0x34F JUMP JUMPDEST SWAP1 POP SWAP2 SWAP1 POP JUMP JUMPDEST PUSH1 0x0 PUSH20 0xFFFFFFFFFFFFFFFFFFFFFFFFFFFFFFFFFFFFFFFF DUP3 AND SWAP1 POP SWAP2 SWAP1 POP JUMP JUMPDEST PUSH1 0x0 DUP2 SWAP1 POP SWAP2 SWAP1 POP JUMP JUMPDEST PUSH1 0x0 PUSH1 0x2 DUP3 DIV SWAP1 POP PUSH1 0x1 DUP3 AND DUP1 PUSH3 0x392 JUMPI PUSH1 0x7F DUP3 AND SWAP2 POP JUMPDEST PUSH1 0x20 DUP3 LT DUP2 EQ ISZERO PUSH3 0x3A9 JUMPI PUSH3 0x3A8 PUSH3 0x42C JUMP JUMPDEST JUMPDEST POP SWAP2 SWAP1 POP JUMP JUMPDEST PUSH1 0x0 PUSH3 0x3BC DUP3 PUSH3 0x36F JUMP JUMPDEST SWAP2 POP PUSH32 0xFFFFFFFFFFFFFFFFFFFFFFFFFFFFFFFFFFFFFFFFFFFFFFFFFFFFFFFFFFFFFFFF DUP3 EQ ISZERO PUSH3 0x3F2 JUMPI PUSH3 0x3F1 PUSH3 0x3FD JUMP JUMPDEST JUMPDEST PUSH1 0x1 DUP3 ADD SWAP1 POP SWAP2 SWAP1 POP JUMP JUMPDEST PUSH32 0x4E487B7100000000000000000000000000000000000000000000000000000000 PUSH1 0x0 MSTORE PUSH1 0x11 PUSH1 0x4 MSTORE PUSH1 0x24 PUSH1 0x0 REVERT JUMPDEST PUSH32 0x4E487B7100000000000000000000000000000000000000000000000000000000 PUSH1 0x0 MSTORE PUSH1 0x22 PUSH1 0x4 MSTORE PUSH1 0x24 PUSH1 0x0 REVERT JUMPDEST PUSH3 0x466 DUP2 PUSH3 0x33B JUMP JUMPDEST DUP2 EQ PUSH3 0x472 JUMPI PUSH1 0x0 DUP1 REVERT JUMPDEST POP JUMP JUMPDEST PUSH2 0x5F33 DUP1 PUSH3 0x485 PUSH1 0x0 CODECOPY PUSH1 0x0 RETURN INVALID PUSH1 0x80 PUSH1 0x40 MSTORE CALLVALUE DUP1 ISZERO PUSH2 0x10 JUMPI PUSH1 0x0 DUP1 REVERT JUMPDEST POP PUSH1 0x4 CALLDATASIZE LT PUSH2 0x172 JUMPI PUSH1 0x0 CALLDATALOAD PUSH1 0xE0 SHR DUP1 PUSH4 0x89D7C784 GT PUSH2 0xDE JUMPI DUP1 PUSH4 0xC99DE57E GT PUSH2 0x97 JUMPI DUP1 PUSH4 0xE08491CD GT PUSH2 0x71 JUMPI DUP1 PUSH4 0xE08491CD EQ PUSH2 0x4D1 JUMPI DUP1 PUSH4 0xF2CF5EC7 EQ PUSH2 0x501 JUMPI DUP1 PUSH4 0xF4558EF9 EQ PUSH2 0x51D JUMPI DUP1 PUSH4 0xF59BADAD EQ PUSH2 0x551 JUMPI PUSH2 0x172 JUMP JUMPDEST DUP1 PUSH4 0xC99DE57E EQ PUSH2 0x45B JUMPI DUP1 PUSH4 0xCCC590F2 EQ PUSH2 0x479 JUMPI DUP1 PUSH4 0xE0528B7C EQ PUSH2 0x4B3 JUMPI PUSH2 0x172 JUMP JUMPDEST DUP1 PUSH4 0x89D7C784 EQ PUSH2 0x387 JUMPI DUP1 PUSH4 0x8AD257B7 EQ PUSH2 0x3A5 JUMPI DUP1 PUSH4 0x9F4216E8 EQ PUSH2 0x3C3 JUMPI DUP1 PUSH4 0xA1CB091F EQ PUSH2 0x3F3 JUMPI DUP1 PUSH4 0xA848BF8B EQ PUSH2 0x40F JUMPI DUP1 PUSH4 0xB17E8964 EQ PUSH2 0x43F JUMPI PUSH2 0x172 JUMP JUMPDEST DUP1 PUSH4 0x2C040681 GT PUSH2 0x130 JUMPI DUP1 PUSH4 0x2C040681 EQ PUSH2 0x28A JUMPI DUP1 PUSH4 0x2CDDAA86 EQ PUSH2 0x2BA JUMPI DUP1 PUSH4 0x2E69619C EQ PUSH2 0x2D8 JUMPI DUP1 PUSH4 0x35B9EA5B EQ PUSH2 0x308 JUMPI DUP1 PUSH4 0x38F14845 EQ PUSH2 0x33B JUMPI DUP1 PUSH4 0x8406830A EQ PUSH2 0x357 JUMPI PUSH2 0x172 JUMP JUMPDEST DUP1 PUSH3 0xA032F0 EQ PUSH2 0x177 JUMPI DUP1 PUSH4 0x2D05D3F EQ PUSH2 0x1AA JUMPI DUP1 PUSH4 0x4EF5B21 EQ PUSH2 0x1C8 JUMPI DUP1 PUSH4 0xF44F0B8 EQ PUSH2 0x202 JUMPI DUP1 PUSH4 0x220FD618 EQ PUSH2 0x236 JUMPI DUP1 PUSH4 0x2BCC23F8 EQ PUSH2 0x254 JUMPI JUMPDEST PUSH1 0x0 DUP1 REVERT JUMPDEST PUSH2 0x191 PUSH1 0x4 DUP1 CALLDATASIZE SUB DUP2 ADD SWAP1 PUSH2 0x18C SWAP2 SWAP1 PUSH2 0x495F JUMP JUMPDEST PUSH2 0x56F JUMP JUMPDEST PUSH1 0x40 MLOAD PUSH2 0x1A1 SWAP5 SWAP4 SWAP3 SWAP2 SWAP1 PUSH2 0x56E1 JUMP JUMPDEST PUSH1 0x40 MLOAD DUP1 SWAP2 SUB SWAP1 RETURN JUMPDEST PUSH2 0x1B2 PUSH2 0x7D5 JUMP JUMPDEST PUSH1 0x40 MLOAD PUSH2 0x1BF SWAP2 SWAP1 PUSH2 0x5584 JUMP JUMPDEST PUSH1 0x40 MLOAD DUP1 SWAP2 SUB SWAP1 RETURN JUMPDEST PUSH2 0x1E2 PUSH1 0x4 DUP1 CALLDATASIZE SUB DUP2 ADD SWAP1 PUSH2 0x1DD SWAP2 SWAP1 PUSH2 0x4B89 JUMP JUMPDEST PUSH2 0x7F9 JUMP JUMPDEST PUSH1 0x40 MLOAD PUSH2 0x1F9 SWAP12 SWAP11 SWAP10 SWAP9 SWAP8 SWAP7 SWAP6 SWAP5 SWAP4 SWAP3 SWAP2 SWAP1 PUSH2 0x5742 JUMP JUMPDEST PUSH1 0x40 MLOAD DUP1 SWAP2 SUB SWAP1 RETURN JUMPDEST PUSH2 0x21C PUSH1 0x4 DUP1 CALLDATASIZE SUB DUP2 ADD SWAP1 PUSH2 0x217 SWAP2 SWAP1 PUSH2 0x495F JUMP JUMPDEST PUSH2 0xC3B JUMP JUMPDEST PUSH1 0x40 MLOAD PUSH2 0x22D SWAP6 SWAP5 SWAP4 SWAP3 SWAP2 SWAP1 PUSH2 0x585B JUMP JUMPDEST PUSH1 0x40 MLOAD DUP1 SWAP2 SUB SWAP1 RETURN JUMPDEST PUSH2 0x23E PUSH2 0xD97 JUMP JUMPDEST PUSH1 0x40 MLOAD PUSH2 0x24B SWAP2 SWAP1 PUSH2 0x5605 JUMP JUMPDEST PUSH1 0x40 MLOAD DUP1 SWAP2 SUB SWAP1 RETURN JUMPDEST PUSH2 0x26E PUSH1 0x4 DUP1 CALLDATASIZE SUB DUP2 ADD SWAP1 PUSH2 0x269 SWAP2 SWAP1 PUSH2 0x4936 JUMP JUMPDEST PUSH2 0x1269 JUMP JUMPDEST PUSH1 0x40 MLOAD PUSH2 0x281 SWAP8 SWAP7 SWAP6 SWAP5 SWAP4 SWAP3 SWAP2 SWAP1 PUSH2 0x5664 JUMP JUMPDEST PUSH1 0x40 MLOAD DUP1 SWAP2 SUB SWAP1 RETURN JUMPDEST PUSH2 0x2A4 PUSH1 0x4 DUP1 CALLDATASIZE SUB DUP2 ADD SWAP1 PUSH2 0x29F SWAP2 SWAP1 PUSH2 0x495F JUMP JUMPDEST PUSH2 0x13DB JUMP JUMPDEST PUSH1 0x40 MLOAD PUSH2 0x2B1 SWAP2 SWAP1 PUSH2 0x581E JUMP JUMPDEST PUSH1 0x40 MLOAD DUP1 SWAP2 SUB SWAP1 RETURN JUMPDEST PUSH2 0x2C2 PUSH2 0x16AC JUMP JUMPDEST PUSH1 0x40 MLOAD PUSH2 0x2CF SWAP2 SWAP1 PUSH2 0x5627 JUMP JUMPDEST PUSH1 0x40 MLOAD DUP1 SWAP2 SUB SWAP1 RETURN JUMPDEST PUSH2 0x2F2 PUSH1 0x4 DUP1 CALLDATASIZE SUB DUP2 ADD SWAP1 PUSH2 0x2ED SWAP2 SWAP1 PUSH2 0x495F JUMP JUMPDEST PUSH2 0x170E JUMP JUMPDEST PUSH1 0x40 MLOAD PUSH2 0x2FF SWAP2 SWAP1 PUSH2 0x5840 JUMP JUMPDEST PUSH1 0x40 MLOAD DUP1 SWAP2 SUB SWAP1 RETURN JUMPDEST PUSH2 0x322 PUSH1 0x4 DUP1 CALLDATASIZE SUB DUP2 ADD SWAP1 PUSH2 0x31D SWAP2 SWAP1 PUSH2 0x4B89 JUMP JUMPDEST PUSH2 0x1E95 JUMP JUMPDEST PUSH1 0x40 MLOAD PUSH2 0x332 SWAP5 SWAP4 SWAP3 SWAP2 SWAP1 PUSH2 0x56E1 JUMP JUMPDEST PUSH1 0x40 MLOAD DUP1 SWAP2 SUB SWAP1 RETURN JUMPDEST PUSH2 0x355 PUSH1 0x4 DUP1 CALLDATASIZE SUB DUP2 ADD SWAP1 PUSH2 0x350 SWAP2 SWAP1 PUSH2 0x4B89 JUMP JUMPDEST PUSH2 0x20F5 JUMP JUMPDEST STOP JUMPDEST PUSH2 0x371 PUSH1 0x4 DUP1 CALLDATASIZE SUB DUP2 ADD SWAP1 PUSH2 0x36C SWAP2 SWAP1 PUSH2 0x495F JUMP JUMPDEST PUSH2 0x215F JUMP JUMPDEST PUSH1 0x40 MLOAD PUSH2 0x37E SWAP2 SWAP1 PUSH2 0x5840 JUMP JUMPDEST PUSH1 0x40 MLOAD DUP1 SWAP2 SUB SWAP1 RETURN JUMPDEST PUSH2 0x38F PUSH2 0x2237 JUMP JUMPDEST PUSH1 0x40 MLOAD PUSH2 0x39C SWAP2 SWAP1 PUSH2 0x5627 JUMP JUMPDEST PUSH1 0x40 MLOAD DUP1 SWAP2 SUB SWAP1 RETURN JUMPDEST PUSH2 0x3AD PUSH2 0x22DA JUMP JUMPDEST PUSH1 0x40 MLOAD PUSH2 0x3BA SWAP2 SWAP1 PUSH2 0x559F JUMP JUMPDEST PUSH1 0x40 MLOAD DUP1 SWAP2 SUB SWAP1 RETURN JUMPDEST PUSH2 0x3DD PUSH1 0x4 DUP1 CALLDATASIZE SUB DUP2 ADD SWAP1 PUSH2 0x3D8 SWAP2 SWAP1 PUSH2 0x4B89 JUMP JUMPDEST PUSH2 0x2368 JUMP JUMPDEST PUSH1 0x40 MLOAD PUSH2 0x3EA SWAP2 SWAP1 PUSH2 0x5584 JUMP JUMPDEST PUSH1 0x40 MLOAD DUP1 SWAP2 SUB SWAP1 RETURN JUMPDEST PUSH2 0x40D PUSH1 0x4 DUP1 CALLDATASIZE SUB DUP2 ADD SWAP1 PUSH2 0x408 SWAP2 SWAP1 PUSH2 0x4AF6 JUMP JUMPDEST PUSH2 0x23A7 JUMP JUMPDEST STOP JUMPDEST PUSH2 0x429 PUSH1 0x4 DUP1 CALLDATASIZE SUB DUP2 ADD SWAP1 PUSH2 0x424 SWAP2 SWAP1 PUSH2 0x495F JUMP JUMPDEST PUSH2 0x24BF JUMP JUMPDEST PUSH1 0x40 MLOAD PUSH2 0x436 SWAP2 SWAP1 PUSH2 0x5642 JUMP JUMPDEST PUSH1 0x40 MLOAD DUP1 SWAP2 SUB SWAP1 RETURN JUMPDEST PUSH2 0x459 PUSH1 0x4 DUP1 CALLDATASIZE SUB DUP2 ADD SWAP1 PUSH2 0x454 SWAP2 SWAP1 PUSH2 0x49A0 JUMP JUMPDEST PUSH2 0x257B JUMP JUMPDEST STOP JUMPDEST PUSH2 0x463 PUSH2 0x26BB JUMP JUMPDEST PUSH1 0x40 MLOAD PUSH2 0x470 SWAP2 SWAP1 PUSH2 0x5584 JUMP JUMPDEST PUSH1 0x40 MLOAD DUP1 SWAP2 SUB SWAP1 RETURN JUMPDEST PUSH2 0x493 PUSH1 0x4 DUP1 CALLDATASIZE SUB DUP2 ADD SWAP1 PUSH2 0x48E SWAP2 SWAP1 PUSH2 0x495F JUMP JUMPDEST PUSH2 0x26E1 JUMP JUMPDEST PUSH1 0x40 MLOAD PUSH2 0x4AA SWAP12 SWAP11 SWAP10 SWAP9 SWAP8 SWAP7 SWAP6 SWAP5 SWAP4 SWAP3 SWAP2 SWAP1 PUSH2 0x5742 JUMP JUMPDEST PUSH1 0x40 MLOAD DUP1 SWAP2 SUB SWAP1 RETURN JUMPDEST PUSH2 0x4BB PUSH2 0x2B29 JUMP JUMPDEST PUSH1 0x40 MLOAD PUSH2 0x4C8 SWAP2 SWAP1 PUSH2 0x55C1 JUMP JUMPDEST PUSH1 0x40 MLOAD DUP1 SWAP2 SUB SWAP1 RETURN JUMPDEST PUSH2 0x4EB PUSH1 0x4 DUP1 CALLDATASIZE SUB DUP2 ADD SWAP1 PUSH2 0x4E6 SWAP2 SWAP1 PUSH2 0x495F JUMP JUMPDEST PUSH2 0x2DD0 JUMP JUMPDEST PUSH1 0x40 MLOAD PUSH2 0x4F8 SWAP2 SWAP1 PUSH2 0x5840 JUMP JUMPDEST PUSH1 0x40 MLOAD DUP1 SWAP2 SUB SWAP1 RETURN JUMPDEST PUSH2 0x51B PUSH1 0x4 DUP1 CALLDATASIZE SUB DUP2 ADD SWAP1 PUSH2 0x516 SWAP2 SWAP1 PUSH2 0x4A1F JUMP JUMPDEST PUSH2 0x3750 JUMP JUMPDEST STOP JUMPDEST PUSH2 0x537 PUSH1 0x4 DUP1 CALLDATASIZE SUB DUP2 ADD SWAP1 PUSH2 0x532 SWAP2 SWAP1 PUSH2 0x4B89 JUMP JUMPDEST PUSH2 0x3E7F JUMP JUMPDEST PUSH1 0x40 MLOAD PUSH2 0x548 SWAP6 SWAP5 SWAP4 SWAP3 SWAP2 SWAP1 PUSH2 0x585B JUMP JUMPDEST PUSH1 0x40 MLOAD DUP1 SWAP2 SUB SWAP1 RETURN JUMPDEST PUSH2 0x559 PUSH2 0x3FD5 JUMP JUMPDEST PUSH1 0x40 MLOAD PUSH2 0x566 SWAP2 SWAP1 PUSH2 0x55E3 JUMP JUMPDEST PUSH1 0x40 MLOAD DUP1 SWAP2 SUB SWAP1 RETURN JUMPDEST PUSH1 0xD DUP2 DUP1 MLOAD PUSH1 0x20 DUP2 ADD DUP3 ADD DUP1 MLOAD DUP5 DUP3 MSTORE PUSH1 0x20 DUP4 ADD PUSH1 0x20 DUP6 ADD KECCAK256 DUP2 DUP4 MSTORE DUP1 SWAP6 POP POP POP POP POP POP PUSH1 0x0 SWAP2 POP SWAP1 POP DUP1 PUSH1 0x0 ADD DUP1 SLOAD PUSH2 0x5A8 SWAP1 PUSH2 0x5BCB JUMP JUMPDEST DUP1 PUSH1 0x1F ADD PUSH1 0x20 DUP1 SWAP2 DIV MUL PUSH1 0x20 ADD PUSH1 0x40 MLOAD SWAP1 DUP2 ADD PUSH1 0x40 MSTORE DUP1 SWAP3 SWAP2 SWAP1 DUP2 DUP2 MSTORE PUSH1 0x20 ADD DUP3 DUP1 SLOAD PUSH2 0x5D4 SWAP1 PUSH2 0x5BCB JUMP JUMPDEST DUP1 ISZERO PUSH2 0x621 JUMPI DUP1 PUSH1 0x1F LT PUSH2 0x5F6 JUMPI PUSH2 0x100 DUP1 DUP4 SLOAD DIV MUL DUP4 MSTORE SWAP2 PUSH1 0x20 ADD SWAP2 PUSH2 0x621 JUMP JUMPDEST DUP3 ADD SWAP2 SWAP1 PUSH1 0x0 MSTORE PUSH1 0x20 PUSH1 0x0 KECCAK256 SWAP1 JUMPDEST DUP2 SLOAD DUP2 MSTORE SWAP1 PUSH1 0x1 ADD SWAP1 PUSH1 0x20 ADD DUP1 DUP4 GT PUSH2 0x604 JUMPI DUP3 SWAP1 SUB PUSH1 0x1F AND DUP3 ADD SWAP2 JUMPDEST POP POP POP POP POP SWAP1 DUP1 PUSH1 0x1 ADD DUP1 SLOAD PUSH2 0x636 SWAP1 PUSH2 0x5BCB JUMP JUMPDEST DUP1 PUSH1 0x1F ADD PUSH1 0x20 DUP1 SWAP2 DIV MUL PUSH1 0x20 ADD PUSH1 0x40 MLOAD SWAP1 DUP2 ADD PUSH1 0x40 MSTORE DUP1 SWAP3 SWAP2 SWAP1 DUP2 DUP2 MSTORE PUSH1 0x20 ADD DUP3 DUP1 SLOAD PUSH2 0x662 SWAP1 PUSH2 0x5BCB JUMP JUMPDEST DUP1 ISZERO PUSH2 0x6AF JUMPI DUP1 PUSH1 0x1F LT PUSH2 0x684 JUMPI PUSH2 0x100 DUP1 DUP4 SLOAD DIV MUL DUP4 MSTORE SWAP2 PUSH1 0x20 ADD SWAP2 PUSH2 0x6AF JUMP JUMPDEST DUP3 ADD SWAP2 SWAP1 PUSH1 0x0 MSTORE PUSH1 0x20 PUSH1 0x0 KECCAK256 SWAP1 JUMPDEST DUP2 SLOAD DUP2 MSTORE SWAP1 PUSH1 0x1 ADD SWAP1 PUSH1 0x20 ADD DUP1 DUP4 GT PUSH2 0x692 JUMPI DUP3 SWAP1 SUB PUSH1 0x1F AND DUP3 ADD SWAP2 JUMPDEST POP POP POP POP POP SWAP1 DUP1 PUSH1 0x2 ADD DUP1 SLOAD PUSH2 0x6C4 SWAP1 PUSH2 0x5BCB JUMP JUMPDEST DUP1 PUSH1 0x1F ADD PUSH1 0x20 DUP1 SWAP2 DIV MUL PUSH1 0x20 ADD PUSH1 0x40 MLOAD SWAP1 DUP2 ADD PUSH1 0x40 MSTORE DUP1 SWAP3 SWAP2 SWAP1 DUP2 DUP2 MSTORE PUSH1 0x20 ADD DUP3 DUP1 SLOAD PUSH2 0x6F0 SWAP1 PUSH2 0x5BCB JUMP JUMPDEST DUP1 ISZERO PUSH2 0x73D JUMPI DUP1 PUSH1 0x1F LT PUSH2 0x712 JUMPI PUSH2 0x100 DUP1 DUP4 SLOAD DIV MUL DUP4 MSTORE SWAP2 PUSH1 0x20 ADD SWAP2 PUSH2 0x73D JUMP JUMPDEST DUP3 ADD SWAP2 SWAP1 PUSH1 0x0 MSTORE PUSH1 0x20 PUSH1 0x0 KECCAK256 SWAP1 JUMPDEST DUP2 SLOAD DUP2 MSTORE SWAP1 PUSH1 0x1 ADD SWAP1 PUSH1 0x20 ADD DUP1 DUP4 GT PUSH2 0x720 JUMPI DUP3 SWAP1 SUB PUSH1 0x1F AND DUP3 ADD SWAP2 JUMPDEST POP POP POP POP POP SWAP1 DUP1 PUSH1 0x3 ADD DUP1 SLOAD PUSH2 0x752 SWAP1 PUSH2 0x5BCB JUMP JUMPDEST DUP1 PUSH1 0x1F ADD PUSH1 0x20 DUP1 SWAP2 DIV MUL PUSH1 0x20 ADD PUSH1 0x40 MLOAD SWAP1 DUP2 ADD PUSH1 0x40 MSTORE DUP1 SWAP3 SWAP2 SWAP1 DUP2 DUP2 MSTORE PUSH1 0x20 ADD DUP3 DUP1 SLOAD PUSH2 0x77E SWAP1 PUSH2 0x5BCB JUMP JUMPDEST DUP1 ISZERO PUSH2 0x7CB JUMPI DUP1 PUSH1 0x1F LT PUSH2 0x7A0 JUMPI PUSH2 0x100 DUP1 DUP4 SLOAD DIV MUL DUP4 MSTORE SWAP2 PUSH1 0x20 ADD SWAP2 PUSH2 0x7CB JUMP JUMPDEST DUP3 ADD SWAP2 SWAP1 PUSH1 0x0 MSTORE PUSH1 0x20 PUSH1 0x0 KECCAK256 SWAP1 JUMPDEST DUP2 SLOAD DUP2 MSTORE SWAP1 PUSH1 0x1 ADD SWAP1 PUSH1 0x20 ADD DUP1 DUP4 GT PUSH2 0x7AE JUMPI DUP3 SWAP1 SUB PUSH1 0x1F AND DUP3 ADD SWAP2 JUMPDEST POP POP POP POP POP SWAP1 POP DUP5 JUMP JUMPDEST PUSH1 0x0 DUP1 SLOAD SWAP1 PUSH2 0x100 EXP SWAP1 DIV PUSH20 0xFFFFFFFFFFFFFFFFFFFFFFFFFFFFFFFFFFFFFFFF AND DUP2 JUMP JUMPDEST PUSH1 0x6 DUP2 DUP2 SLOAD DUP2 LT PUSH2 0x809 JUMPI PUSH1 0x0 DUP1 REVERT JUMPDEST SWAP1 PUSH1 0x0 MSTORE PUSH1 0x20 PUSH1 0x0 KECCAK256 SWAP1 PUSH1 0xB MUL ADD PUSH1 0x0 SWAP2 POP SWAP1 POP DUP1 PUSH1 0x0 ADD DUP1 SLOAD PUSH2 0x82C SWAP1 PUSH2 0x5BCB JUMP JUMPDEST DUP1 PUSH1 0x1F ADD PUSH1 0x20 DUP1 SWAP2 DIV MUL PUSH1 0x20 ADD PUSH1 0x40 MLOAD SWAP1 DUP2 ADD PUSH1 0x40 MSTORE DUP1 SWAP3 SWAP2 SWAP1 DUP2 DUP2 MSTORE PUSH1 0x20 ADD DUP3 DUP1 SLOAD PUSH2 0x858 SWAP1 PUSH2 0x5BCB JUMP JUMPDEST DUP1 ISZERO PUSH2 0x8A5 JUMPI DUP1 PUSH1 0x1F LT PUSH2 0x87A JUMPI PUSH2 0x100 DUP1 DUP4 SLOAD DIV MUL DUP4 MSTORE SWAP2 PUSH1 0x20 ADD SWAP2 PUSH2 0x8A5 JUMP JUMPDEST DUP3 ADD SWAP2 SWAP1 PUSH1 0x0 MSTORE PUSH1 0x20 PUSH1 0x0 KECCAK256 SWAP1 JUMPDEST DUP2 SLOAD DUP2 MSTORE SWAP1 PUSH1 0x1 ADD SWAP1 PUSH1 0x20 ADD DUP1 DUP4 GT PUSH2 0x888 JUMPI DUP3 SWAP1 SUB PUSH1 0x1F AND DUP3 ADD SWAP2 JUMPDEST POP POP POP POP POP SWAP1 DUP1 PUSH1 0x1 ADD DUP1 SLOAD PUSH2 0x8BA SWAP1 PUSH2 0x5BCB JUMP JUMPDEST DUP1 PUSH1 0x1F ADD PUSH1 0x20 DUP1 SWAP2 DIV MUL PUSH1 0x20 ADD PUSH1 0x40 MLOAD SWAP1 DUP2 ADD PUSH1 0x40 MSTORE DUP1 SWAP3 SWAP2 SWAP1 DUP2 DUP2 MSTORE PUSH1 0x20 ADD DUP3 DUP1 SLOAD PUSH2 0x8E6 SWAP1 PUSH2 0x5BCB JUMP JUMPDEST DUP1 ISZERO PUSH2 0x933 JUMPI DUP1 PUSH1 0x1F LT PUSH2 0x908 JUMPI PUSH2 0x100 DUP1 DUP4 SLOAD DIV MUL DUP4 MSTORE SWAP2 PUSH1 0x20 ADD SWAP2 PUSH2 0x933 JUMP JUMPDEST DUP3 ADD SWAP2 SWAP1 PUSH1 0x0 MSTORE PUSH1 0x20 PUSH1 0x0 KECCAK256 SWAP1 JUMPDEST DUP2 SLOAD DUP2 MSTORE SWAP1 PUSH1 0x1 ADD SWAP1 PUSH1 0x20 ADD DUP1 DUP4 GT PUSH2 0x916 JUMPI DUP3 SWAP1 SUB PUSH1 0x1F AND DUP3 ADD SWAP2 JUMPDEST POP POP POP POP POP SWAP1 DUP1 PUSH1 0x2 ADD DUP1 SLOAD PUSH2 0x948 SWAP1 PUSH2 0x5BCB JUMP JUMPDEST DUP1 PUSH1 0x1F ADD PUSH1 0x20 DUP1 SWAP2 DIV MUL PUSH1 0x20 ADD PUSH1 0x40 MLOAD SWAP1 DUP2 ADD PUSH1 0x40 MSTORE DUP1 SWAP3 SWAP2 SWAP1 DUP2 DUP2 MSTORE PUSH1 0x20 ADD DUP3 DUP1 SLOAD PUSH2 0x974 SWAP1 PUSH2 0x5BCB JUMP JUMPDEST DUP1 ISZERO PUSH2 0x9C1 JUMPI DUP1 PUSH1 0x1F LT PUSH2 0x996 JUMPI PUSH2 0x100 DUP1 DUP4 SLOAD DIV MUL DUP4 MSTORE SWAP2 PUSH1 0x20 ADD SWAP2 PUSH2 0x9C1 JUMP JUMPDEST DUP3 ADD SWAP2 SWAP1 PUSH1 0x0 MSTORE PUSH1 0x20 PUSH1 0x0 KECCAK256 SWAP1 JUMPDEST DUP2 SLOAD DUP2 MSTORE SWAP1 PUSH1 0x1 ADD SWAP1 PUSH1 0x20 ADD DUP1 DUP4 GT PUSH2 0x9A4 JUMPI DUP3 SWAP1 SUB PUSH1 0x1F AND DUP3 ADD SWAP2 JUMPDEST POP POP POP POP POP SWAP1 DUP1 PUSH1 0x3 ADD DUP1 SLOAD PUSH2 0x9D6 SWAP1 PUSH2 0x5BCB JUMP JUMPDEST DUP1 PUSH1 0x1F ADD PUSH1 0x20 DUP1 SWAP2 DIV MUL PUSH1 0x20 ADD PUSH1 0x40 MLOAD SWAP1 DUP2 ADD PUSH1 0x40 MSTORE DUP1 SWAP3 SWAP2 SWAP1 DUP2 DUP2 MSTORE PUSH1 0x20 ADD DUP3 DUP1 SLOAD PUSH2 0xA02 SWAP1 PUSH2 0x5BCB JUMP JUMPDEST DUP1 ISZERO PUSH2 0xA4F JUMPI DUP1 PUSH1 0x1F LT PUSH2 0xA24 JUMPI PUSH2 0x100 DUP1 DUP4 SLOAD DIV MUL DUP4 MSTORE SWAP2 PUSH1 0x20 ADD SWAP2 PUSH2 0xA4F JUMP JUMPDEST DUP3 ADD SWAP2 SWAP1 PUSH1 0x0 MSTORE PUSH1 0x20 PUSH1 0x0 KECCAK256 SWAP1 JUMPDEST DUP2 SLOAD DUP2 MSTORE SWAP1 PUSH1 0x1 ADD SWAP1 PUSH1 0x20 ADD DUP1 DUP4 GT PUSH2 0xA32 JUMPI DUP3 SWAP1 SUB PUSH1 0x1F AND DUP3 ADD SWAP2 JUMPDEST POP POP POP POP POP SWAP1 DUP1 PUSH1 0x4 ADD SLOAD SWAP1 DUP1 PUSH1 0x5 ADD DUP1 SLOAD PUSH2 0xA6A SWAP1 PUSH2 0x5BCB JUMP JUMPDEST DUP1 PUSH1 0x1F ADD PUSH1 0x20 DUP1 SWAP2 DIV MUL PUSH1 0x20 ADD PUSH1 0x40 MLOAD SWAP1 DUP2 ADD PUSH1 0x40 MSTORE DUP1 SWAP3 SWAP2 SWAP1 DUP2 DUP2 MSTORE PUSH1 0x20 ADD DUP3 DUP1 SLOAD PUSH2 0xA96 SWAP1 PUSH2 0x5BCB JUMP JUMPDEST DUP1 ISZERO PUSH2 0xAE3 JUMPI DUP1 PUSH1 0x1F LT PUSH2 0xAB8 JUMPI PUSH2 0x100 DUP1 DUP4 SLOAD DIV MUL DUP4 MSTORE SWAP2 PUSH1 0x20 ADD SWAP2 PUSH2 0xAE3 JUMP JUMPDEST DUP3 ADD SWAP2 SWAP1 PUSH1 0x0 MSTORE PUSH1 0x20 PUSH1 0x0 KECCAK256 SWAP1 JUMPDEST DUP2 SLOAD DUP2 MSTORE SWAP1 PUSH1 0x1 ADD SWAP1 PUSH1 0x20 ADD DUP1 DUP4 GT PUSH2 0xAC6 JUMPI DUP3 SWAP1 SUB PUSH1 0x1F AND DUP3 ADD SWAP2 JUMPDEST POP POP POP POP POP SWAP1 DUP1 PUSH1 0x6 ADD PUSH1 0x0 SWAP1 SLOAD SWAP1 PUSH2 0x100 EXP SWAP1 DIV PUSH20 0xFFFFFFFFFFFFFFFFFFFFFFFFFFFFFFFFFFFFFFFF AND SWAP1 DUP1 PUSH1 0x7 ADD SLOAD SWAP1 DUP1 PUSH1 0x8 ADD DUP1 SLOAD PUSH2 0xB24 SWAP1 PUSH2 0x5BCB JUMP JUMPDEST DUP1 PUSH1 0x1F ADD PUSH1 0x20 DUP1 SWAP2 DIV MUL PUSH1 0x20 ADD PUSH1 0x40 MLOAD SWAP1 DUP2 ADD PUSH1 0x40 MSTORE DUP1 SWAP3 SWAP2 SWAP1 DUP2 DUP2 MSTORE PUSH1 0x20 ADD DUP3 DUP1 SLOAD PUSH2 0xB50 SWAP1 PUSH2 0x5BCB JUMP JUMPDEST DUP1 ISZERO PUSH2 0xB9D JUMPI DUP1 PUSH1 0x1F LT PUSH2 0xB72 JUMPI PUSH2 0x100 DUP1 DUP4 SLOAD DIV MUL DUP4 MSTORE SWAP2 PUSH1 0x20 ADD SWAP2 PUSH2 0xB9D JUMP JUMPDEST DUP3 ADD SWAP2 SWAP1 PUSH1 0x0 MSTORE PUSH1 0x20 PUSH1 0x0 KECCAK256 SWAP1 JUMPDEST DUP2 SLOAD DUP2 MSTORE SWAP1 PUSH1 0x1 ADD SWAP1 PUSH1 0x20 ADD DUP1 DUP4 GT PUSH2 0xB80 JUMPI DUP3 SWAP1 SUB PUSH1 0x1F AND DUP3 ADD SWAP2 JUMPDEST POP POP POP POP POP SWAP1 DUP1 PUSH1 0x9 ADD DUP1 SLOAD PUSH2 0xBB2 SWAP1 PUSH2 0x5BCB JUMP JUMPDEST DUP1 PUSH1 0x1F ADD PUSH1 0x20 DUP1 SWAP2 DIV MUL PUSH1 0x20 ADD PUSH1 0x40 MLOAD SWAP1 DUP2 ADD PUSH1 0x40 MSTORE DUP1 SWAP3 SWAP2 SWAP1 DUP2 DUP2 MSTORE PUSH1 0x20 ADD DUP3 DUP1 SLOAD PUSH2 0xBDE SWAP1 PUSH2 0x5BCB JUMP JUMPDEST DUP1 ISZERO PUSH2 0xC2B JUMPI DUP1 PUSH1 0x1F LT PUSH2 0xC00 JUMPI PUSH2 0x100 DUP1 DUP4 SLOAD DIV MUL DUP4 MSTORE SWAP2 PUSH1 0x20 ADD SWAP2 PUSH2 0xC2B JUMP JUMPDEST DUP3 ADD SWAP2 SWAP1 PUSH1 0x0 MSTORE PUSH1 0x20 PUSH1 0x0 KECCAK256 SWAP1 JUMPDEST DUP2 SLOAD DUP2 MSTORE SWAP1 PUSH1 0x1 ADD SWAP1 PUSH1 0x20 ADD DUP1 DUP4 GT PUSH2 0xC0E JUMPI DUP3 SWAP1 SUB PUSH1 0x1F AND DUP3 ADD SWAP2 JUMPDEST POP POP POP POP POP SWAP1 DUP1 PUSH1 0xA ADD SLOAD SWAP1 POP DUP12 JUMP JUMPDEST PUSH1 0xA DUP2 DUP1 MLOAD PUSH1 0x20 DUP2 ADD DUP3 ADD DUP1 MLOAD DUP5 DUP3 MSTORE PUSH1 0x20 DUP4 ADD PUSH1 0x20 DUP6 ADD KECCAK256 DUP2 DUP4 MSTORE DUP1 SWAP6 POP POP POP POP POP POP PUSH1 0x0 SWAP2 POP SWAP1 POP DUP1 PUSH1 0x0 ADD SLOAD SWAP1 DUP1 PUSH1 0x1 ADD DUP1 SLOAD PUSH2 0xC7A SWAP1 PUSH2 0x5BCB JUMP JUMPDEST DUP1 PUSH1 0x1F ADD PUSH1 0x20 DUP1 SWAP2 DIV MUL PUSH1 0x20 ADD PUSH1 0x40 MLOAD SWAP1 DUP2 ADD PUSH1 0x40 MSTORE DUP1 SWAP3 SWAP2 SWAP1 DUP2 DUP2 MSTORE PUSH1 0x20 ADD DUP3 DUP1 SLOAD PUSH2 0xCA6 SWAP1 PUSH2 0x5BCB JUMP JUMPDEST DUP1 ISZERO PUSH2 0xCF3 JUMPI DUP1 PUSH1 0x1F LT PUSH2 0xCC8 JUMPI PUSH2 0x100 DUP1 DUP4 SLOAD DIV MUL DUP4 MSTORE SWAP2 PUSH1 0x20 ADD SWAP2 PUSH2 0xCF3 JUMP JUMPDEST DUP3 ADD SWAP2 SWAP1 PUSH1 0x0 MSTORE PUSH1 0x20 PUSH1 0x0 KECCAK256 SWAP1 JUMPDEST DUP2 SLOAD DUP2 MSTORE SWAP1 PUSH1 0x1 ADD SWAP1 PUSH1 0x20 ADD DUP1 DUP4 GT PUSH2 0xCD6 JUMPI DUP3 SWAP1 SUB PUSH1 0x1F AND DUP3 ADD SWAP2 JUMPDEST POP POP POP POP POP SWAP1 DUP1 PUSH1 0x2 ADD DUP1 SLOAD PUSH2 0xD08 SWAP1 PUSH2 0x5BCB JUMP JUMPDEST DUP1 PUSH1 0x1F ADD PUSH1 0x20 DUP1 SWAP2 DIV MUL PUSH1 0x20 ADD PUSH1 0x40 MLOAD SWAP1 DUP2 ADD PUSH1 0x40 MSTORE DUP1 SWAP3 SWAP2 SWAP1 DUP2 DUP2 MSTORE PUSH1 0x20 ADD DUP3 DUP1 SLOAD PUSH2 0xD34 SWAP1 PUSH2 0x5BCB JUMP JUMPDEST DUP1 ISZERO PUSH2 0xD81 JUMPI DUP1 PUSH1 0x1F LT PUSH2 0xD56 JUMPI PUSH2 0x100 DUP1 DUP4 SLOAD DIV MUL DUP4 MSTORE SWAP2 PUSH1 0x20 ADD SWAP2 PUSH2 0xD81 JUMP JUMPDEST DUP3 ADD SWAP2 SWAP1 PUSH1 0x0 MSTORE PUSH1 0x20 PUSH1 0x0 KECCAK256 SWAP1 JUMPDEST DUP2 SLOAD DUP2 MSTORE SWAP1 PUSH1 0x1 ADD SWAP1 PUSH1 0x20 ADD DUP1 DUP4 GT PUSH2 0xD64 JUMPI DUP3 SWAP1 SUB PUSH1 0x1F AND DUP3 ADD SWAP2 JUMPDEST POP POP POP POP POP SWAP1 DUP1 PUSH1 0x3 ADD SLOAD SWAP1 DUP1 PUSH1 0x4 ADD SLOAD SWAP1 POP DUP6 JUMP JUMPDEST PUSH1 0x60 PUSH1 0x6 DUP1 SLOAD DUP1 PUSH1 0x20 MUL PUSH1 0x20 ADD PUSH1 0x40 MLOAD SWAP1 DUP2 ADD PUSH1 0x40 MSTORE DUP1 SWAP3 SWAP2 SWAP1 DUP2 DUP2 MSTORE PUSH1 0x20 ADD PUSH1 0x0 SWAP1 JUMPDEST DUP3 DUP3 LT ISZERO PUSH2 0x1260 JUMPI DUP4 DUP3 SWAP1 PUSH1 0x0 MSTORE PUSH1 0x20 PUSH1 0x0 KECCAK256 SWAP1 PUSH1 0xB MUL ADD PUSH1 0x40 MLOAD DUP1 PUSH2 0x160 ADD PUSH1 0x40 MSTORE SWAP1 DUP2 PUSH1 0x0 DUP3 ADD DUP1 SLOAD PUSH2 0xDEF SWAP1 PUSH2 0x5BCB JUMP JUMPDEST DUP1 PUSH1 0x1F ADD PUSH1 0x20 DUP1 SWAP2 DIV MUL PUSH1 0x20 ADD PUSH1 0x40 MLOAD SWAP1 DUP2 ADD PUSH1 0x40 MSTORE DUP1 SWAP3 SWAP2 SWAP1 DUP2 DUP2 MSTORE PUSH1 0x20 ADD DUP3 DUP1 SLOAD PUSH2 0xE1B SWAP1 PUSH2 0x5BCB JUMP JUMPDEST DUP1 ISZERO PUSH2 0xE68 JUMPI DUP1 PUSH1 0x1F LT PUSH2 0xE3D JUMPI PUSH2 0x100 DUP1 DUP4 SLOAD DIV MUL DUP4 MSTORE SWAP2 PUSH1 0x20 ADD SWAP2 PUSH2 0xE68 JUMP JUMPDEST DUP3 ADD SWAP2 SWAP1 PUSH1 0x0 MSTORE PUSH1 0x20 PUSH1 0x0 KECCAK256 SWAP1 JUMPDEST DUP2 SLOAD DUP2 MSTORE SWAP1 PUSH1 0x1 ADD SWAP1 PUSH1 0x20 ADD DUP1 DUP4 GT PUSH2 0xE4B JUMPI DUP3 SWAP1 SUB PUSH1 0x1F AND DUP3 ADD SWAP2 JUMPDEST POP POP POP POP POP DUP2 MSTORE PUSH1 0x20 ADD PUSH1 0x1 DUP3 ADD DUP1 SLOAD PUSH2 0xE81 SWAP1 PUSH2 0x5BCB JUMP JUMPDEST DUP1 PUSH1 0x1F ADD PUSH1 0x20 DUP1 SWAP2 DIV MUL PUSH1 0x20 ADD PUSH1 0x40 MLOAD SWAP1 DUP2 ADD PUSH1 0x40 MSTORE DUP1 SWAP3 SWAP2 SWAP1 DUP2 DUP2 MSTORE PUSH1 0x20 ADD DUP3 DUP1 SLOAD PUSH2 0xEAD SWAP1 PUSH2 0x5BCB JUMP JUMPDEST DUP1 ISZERO PUSH2 0xEFA JUMPI DUP1 PUSH1 0x1F LT PUSH2 0xECF JUMPI PUSH2 0x100 DUP1 DUP4 SLOAD DIV MUL DUP4 MSTORE SWAP2 PUSH1 0x20 ADD SWAP2 PUSH2 0xEFA JUMP JUMPDEST DUP3 ADD SWAP2 SWAP1 PUSH1 0x0 MSTORE PUSH1 0x20 PUSH1 0x0 KECCAK256 SWAP1 JUMPDEST DUP2 SLOAD DUP2 MSTORE SWAP1 PUSH1 0x1 ADD SWAP1 PUSH1 0x20 ADD DUP1 DUP4 GT PUSH2 0xEDD JUMPI DUP3 SWAP1 SUB PUSH1 0x1F AND DUP3 ADD SWAP2 JUMPDEST POP POP POP POP POP DUP2 MSTORE PUSH1 0x20 ADD PUSH1 0x2 DUP3 ADD DUP1 SLOAD PUSH2 0xF13 SWAP1 PUSH2 0x5BCB JUMP JUMPDEST DUP1 PUSH1 0x1F ADD PUSH1 0x20 DUP1 SWAP2 DIV MUL PUSH1 0x20 ADD PUSH1 0x40 MLOAD SWAP1 DUP2 ADD PUSH1 0x40 MSTORE DUP1 SWAP3 SWAP2 SWAP1 DUP2 DUP2 MSTORE PUSH1 0x20 ADD DUP3 DUP1 SLOAD PUSH2 0xF3F SWAP1 PUSH2 0x5BCB JUMP JUMPDEST DUP1 ISZERO PUSH2 0xF8C JUMPI DUP1 PUSH1 0x1F LT PUSH2 0xF61 JUMPI PUSH2 0x100 DUP1 DUP4 SLOAD DIV MUL DUP4 MSTORE SWAP2 PUSH1 0x20 ADD SWAP2 PUSH2 0xF8C JUMP JUMPDEST DUP3 ADD SWAP2 SWAP1 PUSH1 0x0 MSTORE PUSH1 0x20 PUSH1 0x0 KECCAK256 SWAP1 JUMPDEST DUP2 SLOAD DUP2 MSTORE SWAP1 PUSH1 0x1 ADD SWAP1 PUSH1 0x20 ADD DUP1 DUP4 GT PUSH2 0xF6F JUMPI DUP3 SWAP1 SUB PUSH1 0x1F AND DUP3 ADD SWAP2 JUMPDEST POP POP POP POP POP DUP2 MSTORE PUSH1 0x20 ADD PUSH1 0x3 DUP3 ADD DUP1 SLOAD PUSH2 0xFA5 SWAP1 PUSH2 0x5BCB JUMP JUMPDEST DUP1 PUSH1 0x1F ADD PUSH1 0x20 DUP1 SWAP2 DIV MUL PUSH1 0x20 ADD PUSH1 0x40 MLOAD SWAP1 DUP2 ADD PUSH1 0x40 MSTORE DUP1 SWAP3 SWAP2 SWAP1 DUP2 DUP2 MSTORE PUSH1 0x20 ADD DUP3 DUP1 SLOAD PUSH2 0xFD1 SWAP1 PUSH2 0x5BCB JUMP JUMPDEST DUP1 ISZERO PUSH2 0x101E JUMPI DUP1 PUSH1 0x1F LT PUSH2 0xFF3 JUMPI PUSH2 0x100 DUP1 DUP4 SLOAD DIV MUL DUP4 MSTORE SWAP2 PUSH1 0x20 ADD SWAP2 PUSH2 0x101E JUMP JUMPDEST DUP3 ADD SWAP2 SWAP1 PUSH1 0x0 MSTORE PUSH1 0x20 PUSH1 0x0 KECCAK256 SWAP1 JUMPDEST DUP2 SLOAD DUP2 MSTORE SWAP1 PUSH1 0x1 ADD SWAP1 PUSH1 0x20 ADD DUP1 DUP4 GT PUSH2 0x1001 JUMPI DUP3 SWAP1 SUB PUSH1 0x1F AND DUP3 ADD SWAP2 JUMPDEST POP POP POP POP POP DUP2 MSTORE PUSH1 0x20 ADD PUSH1 0x4 DUP3 ADD SLOAD DUP2 MSTORE PUSH1 0x20 ADD PUSH1 0x5 DUP3 ADD DUP1 SLOAD PUSH2 0x1041 SWAP1 PUSH2 0x5BCB JUMP JUMPDEST DUP1 PUSH1 0x1F ADD PUSH1 0x20 DUP1 SWAP2 DIV MUL PUSH1 0x20 ADD PUSH1 0x40 MLOAD SWAP1 DUP2 ADD PUSH1 0x40 MSTORE DUP1 SWAP3 SWAP2 SWAP1 DUP2 DUP2 MSTORE PUSH1 0x20 ADD DUP3 DUP1 SLOAD PUSH2 0x106D SWAP1 PUSH2 0x5BCB JUMP JUMPDEST DUP1 ISZERO PUSH2 0x10BA JUMPI DUP1 PUSH1 0x1F LT PUSH2 0x108F JUMPI PUSH2 0x100 DUP1 DUP4 SLOAD DIV MUL DUP4 MSTORE SWAP2 PUSH1 0x20 ADD SWAP2 PUSH2 0x10BA JUMP JUMPDEST DUP3 ADD SWAP2 SWAP1 PUSH1 0x0 MSTORE PUSH1 0x20 PUSH1 0x0 KECCAK256 SWAP1 JUMPDEST DUP2 SLOAD DUP2 MSTORE SWAP1 PUSH1 0x1 ADD SWAP1 PUSH1 0x20 ADD DUP1 DUP4 GT PUSH2 0x109D JUMPI DUP3 SWAP1 SUB PUSH1 0x1F AND DUP3 ADD SWAP2 JUMPDEST POP POP POP POP POP DUP2 MSTORE PUSH1 0x20 ADD PUSH1 0x6 DUP3 ADD PUSH1 0x0 SWAP1 SLOAD SWAP1 PUSH2 0x100 EXP SWAP1 DIV PUSH20 0xFFFFFFFFFFFFFFFFFFFFFFFFFFFFFFFFFFFFFFFF AND PUSH20 0xFFFFFFFFFFFFFFFFFFFFFFFFFFFFFFFFFFFFFFFF AND PUSH20 0xFFFFFFFFFFFFFFFFFFFFFFFFFFFFFFFFFFFFFFFF AND DUP2 MSTORE PUSH1 0x20 ADD PUSH1 0x7 DUP3 ADD SLOAD DUP2 MSTORE PUSH1 0x20 ADD PUSH1 0x8 DUP3 ADD DUP1 SLOAD PUSH2 0x1133 SWAP1 PUSH2 0x5BCB JUMP JUMPDEST DUP1 PUSH1 0x1F ADD PUSH1 0x20 DUP1 SWAP2 DIV MUL PUSH1 0x20 ADD PUSH1 0x40 MLOAD SWAP1 DUP2 ADD PUSH1 0x40 MSTORE DUP1 SWAP3 SWAP2 SWAP1 DUP2 DUP2 MSTORE PUSH1 0x20 ADD DUP3 DUP1 SLOAD PUSH2 0x115F SWAP1 PUSH2 0x5BCB JUMP JUMPDEST DUP1 ISZERO PUSH2 0x11AC JUMPI DUP1 PUSH1 0x1F LT PUSH2 0x1181 JUMPI PUSH2 0x100 DUP1 DUP4 SLOAD DIV MUL DUP4 MSTORE SWAP2 PUSH1 0x20 ADD SWAP2 PUSH2 0x11AC JUMP JUMPDEST DUP3 ADD SWAP2 SWAP1 PUSH1 0x0 MSTORE PUSH1 0x20 PUSH1 0x0 KECCAK256 SWAP1 JUMPDEST DUP2 SLOAD DUP2 MSTORE SWAP1 PUSH1 0x1 ADD SWAP1 PUSH1 0x20 ADD DUP1 DUP4 GT PUSH2 0x118F JUMPI DUP3 SWAP1 SUB PUSH1 0x1F AND DUP3 ADD SWAP2 JUMPDEST POP POP POP POP POP DUP2 MSTORE PUSH1 0x20 ADD PUSH1 0x9 DUP3 ADD DUP1 SLOAD PUSH2 0x11C5 SWAP1 PUSH2 0x5BCB JUMP JUMPDEST DUP1 PUSH1 0x1F ADD PUSH1 0x20 DUP1 SWAP2 DIV MUL PUSH1 0x20 ADD PUSH1 0x40 MLOAD SWAP1 DUP2 ADD PUSH1 0x40 MSTORE DUP1 SWAP3 SWAP2 SWAP1 DUP2 DUP2 MSTORE PUSH1 0x20 ADD DUP3 DUP1 SLOAD PUSH2 0x11F1 SWAP1 PUSH2 0x5BCB JUMP JUMPDEST DUP1 ISZERO PUSH2 0x123E JUMPI DUP1 PUSH1 0x1F LT PUSH2 0x1213 JUMPI PUSH2 0x100 DUP1 DUP4 SLOAD DIV MUL DUP4 MSTORE SWAP2 PUSH1 0x20 ADD SWAP2 PUSH2 0x123E JUMP JUMPDEST DUP3 ADD SWAP2 SWAP1 PUSH1 0x0 MSTORE PUSH1 0x20 PUSH1 0x0 KECCAK256 SWAP1 JUMPDEST DUP2 SLOAD DUP2 MSTORE SWAP1 PUSH1 0x1 ADD SWAP1 PUSH1 0x20 ADD DUP1 DUP4 GT PUSH2 0x1221 JUMPI DUP3 SWAP1 SUB PUSH1 0x1F AND DUP3 ADD SWAP2 JUMPDEST POP POP POP POP POP DUP2 MSTORE PUSH1 0x20 ADD PUSH1 0xA DUP3 ADD SLOAD DUP2 MSTORE POP POP DUP2 MSTORE PUSH1 0x20 ADD SWAP1 PUSH1 0x1 ADD SWAP1 PUSH2 0xDBB JUMP JUMPDEST POP POP POP POP SWAP1 POP SWAP1 JUMP JUMPDEST PUSH1 0xB PUSH1 0x20 MSTORE DUP1 PUSH1 0x0 MSTORE PUSH1 0x40 PUSH1 0x0 KECCAK256 PUSH1 0x0 SWAP2 POP SWAP1 POP DUP1 PUSH1 0x0 ADD DUP1 SLOAD PUSH2 0x128C SWAP1 PUSH2 0x5BCB JUMP JUMPDEST DUP1 PUSH1 0x1F ADD PUSH1 0x20 DUP1 SWAP2 DIV MUL PUSH1 0x20 ADD PUSH1 0x40 MLOAD SWAP1 DUP2 ADD PUSH1 0x40 MSTORE DUP1 SWAP3 SWAP2 SWAP1 DUP2 DUP2 MSTORE PUSH1 0x20 ADD DUP3 DUP1 SLOAD PUSH2 0x12B8 SWAP1 PUSH2 0x5BCB JUMP JUMPDEST DUP1 ISZERO PUSH2 0x1305 JUMPI DUP1 PUSH1 0x1F LT PUSH2 0x12DA JUMPI PUSH2 0x100 DUP1 DUP4 SLOAD DIV MUL DUP4 MSTORE SWAP2 PUSH1 0x20 ADD SWAP2 PUSH2 0x1305 JUMP JUMPDEST DUP3 ADD SWAP2 SWAP1 PUSH1 0x0 MSTORE PUSH1 0x20 PUSH1 0x0 KECCAK256 SWAP1 JUMPDEST DUP2 SLOAD DUP2 MSTORE SWAP1 PUSH1 0x1 ADD SWAP1 PUSH1 0x20 ADD DUP1 DUP4 GT PUSH2 0x12E8 JUMPI DUP3 SWAP1 SUB PUSH1 0x1F AND DUP3 ADD SWAP2 JUMPDEST POP POP POP POP POP SWAP1 DUP1 PUSH1 0x1 ADD DUP1 SLOAD PUSH2 0x131A SWAP1 PUSH2 0x5BCB JUMP JUMPDEST DUP1 PUSH1 0x1F ADD PUSH1 0x20 DUP1 SWAP2 DIV MUL PUSH1 0x20 ADD PUSH1 0x40 MLOAD SWAP1 DUP2 ADD PUSH1 0x40 MSTORE DUP1 SWAP3 SWAP2 SWAP1 DUP2 DUP2 MSTORE PUSH1 0x20 ADD DUP3 DUP1 SLOAD PUSH2 0x1346 SWAP1 PUSH2 0x5BCB JUMP JUMPDEST DUP1 ISZERO PUSH2 0x1393 JUMPI DUP1 PUSH1 0x1F LT PUSH2 0x1368 JUMPI PUSH2 0x100 DUP1 DUP4 SLOAD DIV MUL DUP4 MSTORE SWAP2 PUSH1 0x20 ADD SWAP2 PUSH2 0x1393 JUMP JUMPDEST DUP3 ADD SWAP2 SWAP1 PUSH1 0x0 MSTORE PUSH1 0x20 PUSH1 0x0 KECCAK256 SWAP1 JUMPDEST DUP2 SLOAD DUP2 MSTORE SWAP1 PUSH1 0x1 ADD SWAP1 PUSH1 0x20 ADD DUP1 DUP4 GT PUSH2 0x1376 JUMPI DUP3 SWAP1 SUB PUSH1 0x1F AND DUP3 ADD SWAP2 JUMPDEST POP POP POP POP POP SWAP1 DUP1 PUSH1 0x2 ADD PUSH1 0x0 SWAP1 SLOAD SWAP1 PUSH2 0x100 EXP SWAP1 DIV PUSH20 0xFFFFFFFFFFFFFFFFFFFFFFFFFFFFFFFFFFFFFFFF AND SWAP1 DUP1 PUSH1 0x3 ADD SLOAD SWAP1 DUP1 PUSH1 0x4 ADD SLOAD SWAP1 DUP1 PUSH1 0x5 ADD SLOAD SWAP1 DUP1 PUSH1 0x6 ADD SLOAD SWAP1 POP DUP8 JUMP JUMPDEST PUSH2 0x13E3 PUSH2 0x475A JUMP JUMPDEST PUSH1 0x0 PUSH1 0xE DUP4 PUSH1 0x40 MLOAD PUSH2 0x13F5 SWAP2 SWAP1 PUSH2 0x5445 JUMP JUMPDEST SWAP1 DUP2 MSTORE PUSH1 0x20 ADD PUSH1 0x40 MLOAD DUP1 SWAP2 SUB SWAP1 KECCAK256 SWAP1 POP DUP1 PUSH1 0x40 MLOAD DUP1 PUSH1 0x40 ADD PUSH1 0x40 MSTORE SWAP1 DUP2 PUSH1 0x0 DUP3 ADD DUP1 SLOAD PUSH2 0x1421 SWAP1 PUSH2 0x5BCB JUMP JUMPDEST DUP1 PUSH1 0x1F ADD PUSH1 0x20 DUP1 SWAP2 DIV MUL PUSH1 0x20 ADD PUSH1 0x40 MLOAD SWAP1 DUP2 ADD PUSH1 0x40 MSTORE DUP1 SWAP3 SWAP2 SWAP1 DUP2 DUP2 MSTORE PUSH1 0x20 ADD DUP3 DUP1 SLOAD PUSH2 0x144D SWAP1 PUSH2 0x5BCB JUMP JUMPDEST DUP1 ISZERO PUSH2 0x149A JUMPI DUP1 PUSH1 0x1F LT PUSH2 0x146F JUMPI PUSH2 0x100 DUP1 DUP4 SLOAD DIV MUL DUP4 MSTORE SWAP2 PUSH1 0x20 ADD SWAP2 PUSH2 0x149A JUMP JUMPDEST DUP3 ADD SWAP2 SWAP1 PUSH1 0x0 MSTORE PUSH1 0x20 PUSH1 0x0 KECCAK256 SWAP1 JUMPDEST DUP2 SLOAD DUP2 MSTORE SWAP1 PUSH1 0x1 ADD SWAP1 PUSH1 0x20 ADD DUP1 DUP4 GT PUSH2 0x147D JUMPI DUP3 SWAP1 SUB PUSH1 0x1F AND DUP3 ADD SWAP2 JUMPDEST POP POP POP POP POP DUP2 MSTORE PUSH1 0x20 ADD PUSH1 0x1 DUP3 ADD DUP1 SLOAD DUP1 PUSH1 0x20 MUL PUSH1 0x20 ADD PUSH1 0x40 MLOAD SWAP1 DUP2 ADD PUSH1 0x40 MSTORE DUP1 SWAP3 SWAP2 SWAP1 DUP2 DUP2 MSTORE PUSH1 0x20 ADD PUSH1 0x0 SWAP1 JUMPDEST DUP3 DUP3 LT ISZERO PUSH2 0x169C JUMPI DUP4 DUP3 SWAP1 PUSH1 0x0 MSTORE PUSH1 0x20 PUSH1 0x0 KECCAK256 SWAP1 PUSH1 0x7 MUL ADD PUSH1 0x40 MLOAD DUP1 PUSH1 0xE0 ADD PUSH1 0x40 MSTORE SWAP1 DUP2 PUSH1 0x0 DUP3 ADD DUP1 SLOAD PUSH2 0x14FB SWAP1 PUSH2 0x5BCB JUMP JUMPDEST DUP1 PUSH1 0x1F ADD PUSH1 0x20 DUP1 SWAP2 DIV MUL PUSH1 0x20 ADD PUSH1 0x40 MLOAD SWAP1 DUP2 ADD PUSH1 0x40 MSTORE DUP1 SWAP3 SWAP2 SWAP1 DUP2 DUP2 MSTORE PUSH1 0x20 ADD DUP3 DUP1 SLOAD PUSH2 0x1527 SWAP1 PUSH2 0x5BCB JUMP JUMPDEST DUP1 ISZERO PUSH2 0x1574 JUMPI DUP1 PUSH1 0x1F LT PUSH2 0x1549 JUMPI PUSH2 0x100 DUP1 DUP4 SLOAD DIV MUL DUP4 MSTORE SWAP2 PUSH1 0x20 ADD SWAP2 PUSH2 0x1574 JUMP JUMPDEST DUP3 ADD SWAP2 SWAP1 PUSH1 0x0 MSTORE PUSH1 0x20 PUSH1 0x0 KECCAK256 SWAP1 JUMPDEST DUP2 SLOAD DUP2 MSTORE SWAP1 PUSH1 0x1 ADD SWAP1 PUSH1 0x20 ADD DUP1 DUP4 GT PUSH2 0x1557 JUMPI DUP3 SWAP1 SUB PUSH1 0x1F AND DUP3 ADD SWAP2 JUMPDEST POP POP POP POP POP DUP2 MSTORE PUSH1 0x20 ADD PUSH1 0x1 DUP3 ADD DUP1 SLOAD PUSH2 0x158D SWAP1 PUSH2 0x5BCB JUMP JUMPDEST DUP1 PUSH1 0x1F ADD PUSH1 0x20 DUP1 SWAP2 DIV MUL PUSH1 0x20 ADD PUSH1 0x40 MLOAD SWAP1 DUP2 ADD PUSH1 0x40 MSTORE DUP1 SWAP3 SWAP2 SWAP1 DUP2 DUP2 MSTORE PUSH1 0x20 ADD DUP3 DUP1 SLOAD PUSH2 0x15B9 SWAP1 PUSH2 0x5BCB JUMP JUMPDEST DUP1 ISZERO PUSH2 0x1606 JUMPI DUP1 PUSH1 0x1F LT PUSH2 0x15DB JUMPI PUSH2 0x100 DUP1 DUP4 SLOAD DIV MUL DUP4 MSTORE SWAP2 PUSH1 0x20 ADD SWAP2 PUSH2 0x1606 JUMP JUMPDEST DUP3 ADD SWAP2 SWAP1 PUSH1 0x0 MSTORE PUSH1 0x20 PUSH1 0x0 KECCAK256 SWAP1 JUMPDEST DUP2 SLOAD DUP2 MSTORE SWAP1 PUSH1 0x1 ADD SWAP1 PUSH1 0x20 ADD DUP1 DUP4 GT PUSH2 0x15E9 JUMPI DUP3 SWAP1 SUB PUSH1 0x1F AND DUP3 ADD SWAP2 JUMPDEST POP POP POP POP POP DUP2 MSTORE PUSH1 0x20 ADD PUSH1 0x2 DUP3 ADD PUSH1 0x0 SWAP1 SLOAD SWAP1 PUSH2 0x100 EXP SWAP1 DIV PUSH20 0xFFFFFFFFFFFFFFFFFFFFFFFFFFFFFFFFFFFFFFFF AND PUSH20 0xFFFFFFFFFFFFFFFFFFFFFFFFFFFFFFFFFFFFFFFF AND PUSH20 0xFFFFFFFFFFFFFFFFFFFFFFFFFFFFFFFFFFFFFFFF AND DUP2 MSTORE PUSH1 0x20 ADD PUSH1 0x3 DUP3 ADD SLOAD DUP2 MSTORE PUSH1 0x20 ADD PUSH1 0x4 DUP3 ADD SLOAD DUP2 MSTORE PUSH1 0x20 ADD PUSH1 0x5 DUP3 ADD SLOAD DUP2 MSTORE PUSH1 0x20 ADD PUSH1 0x6 DUP3 ADD SLOAD DUP2 MSTORE POP POP DUP2 MSTORE PUSH1 0x20 ADD SWAP1 PUSH1 0x1 ADD SWAP1 PUSH2 0x14C8 JUMP JUMPDEST POP POP POP POP DUP2 MSTORE POP POP SWAP2 POP POP SWAP2 SWAP1 POP JUMP JUMPDEST PUSH1 0x0 DUP1 PUSH1 0x0 SWAP1 SLOAD SWAP1 PUSH2 0x100 EXP SWAP1 DIV PUSH20 0xFFFFFFFFFFFFFFFFFFFFFFFFFFFFFFFFFFFFFFFF AND PUSH20 0xFFFFFFFFFFFFFFFFFFFFFFFFFFFFFFFFFFFFFFFF AND CALLER PUSH20 0xFFFFFFFFFFFFFFFFFFFFFFFFFFFFFFFFFFFFFFFF AND EQ PUSH2 0x1707 JUMPI PUSH1 0x0 DUP1 REVERT JUMPDEST PUSH1 0x1 SWAP1 POP SWAP1 JUMP JUMPDEST PUSH1 0x0 DUP1 PUSH1 0xC DUP4 PUSH1 0x40 MLOAD PUSH2 0x1721 SWAP2 SWAP1 PUSH2 0x5445 JUMP JUMPDEST SWAP1 DUP2 MSTORE PUSH1 0x20 ADD PUSH1 0x40 MLOAD DUP1 SWAP2 SUB SWAP1 KECCAK256 SWAP1 POP PUSH1 0x0 DUP2 PUSH1 0x8 ADD SWAP1 POP PUSH1 0x0 DUP3 PUSH1 0x9 ADD SWAP1 POP PUSH1 0x0 PUSH2 0x174C DUP7 PUSH2 0x2DD0 JUMP JUMPDEST SWAP1 POP PUSH1 0x1 DUP2 EQ ISZERO PUSH2 0x1E88 JUMPI PUSH1 0x0 PUSH1 0xE DUP8 PUSH1 0x40 MLOAD PUSH2 0x1769 SWAP2 SWAP1 PUSH2 0x5445 JUMP JUMPDEST SWAP1 DUP2 MSTORE PUSH1 0x20 ADD PUSH1 0x40 MLOAD DUP1 SWAP2 SUB SWAP1 KECCAK256 SWAP1 POP PUSH1 0x0 PUSH1 0xB PUSH1 0x0 CALLER PUSH20 0xFFFFFFFFFFFFFFFFFFFFFFFFFFFFFFFFFFFFFFFF AND PUSH20 0xFFFFFFFFFFFFFFFFFFFFFFFFFFFFFFFFFFFFFFFF AND DUP2 MSTORE PUSH1 0x20 ADD SWAP1 DUP2 MSTORE PUSH1 0x20 ADD PUSH1 0x0 KECCAK256 SWAP1 POP DUP2 PUSH1 0x1 ADD DUP2 SWAP1 DUP1 PUSH1 0x1 DUP2 SLOAD ADD DUP1 DUP3 SSTORE DUP1 SWAP2 POP POP PUSH1 0x1 SWAP1 SUB SWAP1 PUSH1 0x0 MSTORE PUSH1 0x20 PUSH1 0x0 KECCAK256 SWAP1 PUSH1 0x7 MUL ADD PUSH1 0x0 SWAP1 SWAP2 SWAP1 SWAP2 SWAP1 SWAP2 POP PUSH1 0x0 DUP3 ADD DUP2 PUSH1 0x0 ADD SWAP1 DUP1 SLOAD PUSH2 0x17FE SWAP1 PUSH2 0x5BCB JUMP JUMPDEST PUSH2 0x1809 SWAP3 SWAP2 SWAP1 PUSH2 0x4774 JUMP JUMPDEST POP PUSH1 0x1 DUP3 ADD DUP2 PUSH1 0x1 ADD SWAP1 DUP1 SLOAD PUSH2 0x181E SWAP1 PUSH2 0x5BCB JUMP JUMPDEST PUSH2 0x1829 SWAP3 SWAP2 SWAP1 PUSH2 0x4774 JUMP JUMPDEST POP PUSH1 0x2 DUP3 ADD PUSH1 0x0 SWAP1 SLOAD SWAP1 PUSH2 0x100 EXP SWAP1 DIV PUSH20 0xFFFFFFFFFFFFFFFFFFFFFFFFFFFFFFFFFFFFFFFF AND DUP2 PUSH1 0x2 ADD PUSH1 0x0 PUSH2 0x100 EXP DUP2 SLOAD DUP2 PUSH20 0xFFFFFFFFFFFFFFFFFFFFFFFFFFFFFFFFFFFFFFFF MUL NOT AND SWAP1 DUP4 PUSH20 0xFFFFFFFFFFFFFFFFFFFFFFFFFFFFFFFFFFFFFFFF AND MUL OR SWAP1 SSTORE POP PUSH1 0x3 DUP3 ADD SLOAD DUP2 PUSH1 0x3 ADD SSTORE PUSH1 0x4 DUP3 ADD SLOAD DUP2 PUSH1 0x4 ADD SSTORE PUSH1 0x5 DUP3 ADD SLOAD DUP2 PUSH1 0x5 ADD SSTORE PUSH1 0x6 DUP3 ADD SLOAD DUP2 PUSH1 0x6 ADD SSTORE POP POP PUSH1 0x1 DUP2 PUSH1 0x4 ADD SLOAD PUSH2 0x18CC SWAP2 SWAP1 PUSH2 0x5A91 JUMP JUMPDEST DUP2 PUSH1 0x4 ADD DUP2 SWAP1 SSTORE POP PUSH1 0x0 PUSH1 0xD DUP10 PUSH1 0x40 MLOAD PUSH2 0x18E6 SWAP2 SWAP1 PUSH2 0x5445 JUMP JUMPDEST SWAP1 DUP2 MSTORE PUSH1 0x20 ADD PUSH1 0x40 MLOAD DUP1 SWAP2 SUB SWAP1 KECCAK256 SWAP1 POP PUSH2 0x1A12 DUP7 DUP1 SLOAD PUSH2 0x1905 SWAP1 PUSH2 0x5BCB JUMP JUMPDEST DUP1 PUSH1 0x1F ADD PUSH1 0x20 DUP1 SWAP2 DIV MUL PUSH1 0x20 ADD PUSH1 0x40 MLOAD SWAP1 DUP2 ADD PUSH1 0x40 MSTORE DUP1 SWAP3 SWAP2 SWAP1 DUP2 DUP2 MSTORE PUSH1 0x20 ADD DUP3 DUP1 SLOAD PUSH2 0x1931 SWAP1 PUSH2 0x5BCB JUMP JUMPDEST DUP1 ISZERO PUSH2 0x197E JUMPI DUP1 PUSH1 0x1F LT PUSH2 0x1953 JUMPI PUSH2 0x100 DUP1 DUP4 SLOAD DIV MUL DUP4 MSTORE SWAP2 PUSH1 0x20 ADD SWAP2 PUSH2 0x197E JUMP JUMPDEST DUP3 ADD SWAP2 SWAP1 PUSH1 0x0 MSTORE PUSH1 0x20 PUSH1 0x0 KECCAK256 SWAP1 JUMPDEST DUP2 SLOAD DUP2 MSTORE SWAP1 PUSH1 0x1 ADD SWAP1 PUSH1 0x20 ADD DUP1 DUP4 GT PUSH2 0x1961 JUMPI DUP3 SWAP1 SUB PUSH1 0x1F AND DUP3 ADD SWAP2 JUMPDEST POP POP POP POP POP DUP7 DUP1 SLOAD PUSH2 0x198F SWAP1 PUSH2 0x5BCB JUMP JUMPDEST DUP1 PUSH1 0x1F ADD PUSH1 0x20 DUP1 SWAP2 DIV MUL PUSH1 0x20 ADD PUSH1 0x40 MLOAD SWAP1 DUP2 ADD PUSH1 0x40 MSTORE DUP1 SWAP3 SWAP2 SWAP1 DUP2 DUP2 MSTORE PUSH1 0x20 ADD DUP3 DUP1 SLOAD PUSH2 0x19BB SWAP1 PUSH2 0x5BCB JUMP JUMPDEST DUP1 ISZERO PUSH2 0x1A08 JUMPI DUP1 PUSH1 0x1F LT PUSH2 0x19DD JUMPI PUSH2 0x100 DUP1 DUP4 SLOAD DIV MUL DUP4 MSTORE SWAP2 PUSH1 0x20 ADD SWAP2 PUSH2 0x1A08 JUMP JUMPDEST DUP3 ADD SWAP2 SWAP1 PUSH1 0x0 MSTORE PUSH1 0x20 PUSH1 0x0 KECCAK256 SWAP1 JUMPDEST DUP2 SLOAD DUP2 MSTORE SWAP1 PUSH1 0x1 ADD SWAP1 PUSH1 0x20 ADD DUP1 DUP4 GT PUSH2 0x19EB JUMPI DUP3 SWAP1 SUB PUSH1 0x1F AND DUP3 ADD SWAP2 JUMPDEST POP POP POP POP POP PUSH2 0x4176 JUMP JUMPDEST ISZERO PUSH2 0x1C05 JUMPI PUSH1 0x40 MLOAD DUP1 PUSH1 0x40 ADD PUSH1 0x40 MSTORE DUP1 PUSH1 0x8 DUP2 MSTORE PUSH1 0x20 ADD PUSH32 0x415050524F564544000000000000000000000000000000000000000000000000 DUP2 MSTORE POP DUP8 PUSH1 0x5 ADD SWAP1 DUP1 MLOAD SWAP1 PUSH1 0x20 ADD SWAP1 PUSH2 0x1A64 SWAP3 SWAP2 SWAP1 PUSH2 0x4801 JUMP JUMPDEST POP PUSH1 0x40 MLOAD DUP1 PUSH1 0x40 ADD PUSH1 0x40 MSTORE DUP1 PUSH1 0x15 DUP2 MSTORE PUSH1 0x20 ADD PUSH32 0x5472616E73616374696F6E20436F6D706C657465640000000000000000000000 DUP2 MSTORE POP DUP2 PUSH1 0x0 ADD SWAP1 DUP1 MLOAD SWAP1 PUSH1 0x20 ADD SWAP1 PUSH2 0x1AB2 SWAP3 SWAP2 SWAP1 PUSH2 0x4801 JUMP JUMPDEST POP DUP9 PUSH1 0x40 MLOAD PUSH1 0x20 ADD PUSH2 0x1AC4 SWAP2 SWAP1 PUSH2 0x54F2 JUMP JUMPDEST PUSH1 0x40 MLOAD PUSH1 0x20 DUP2 DUP4 SUB SUB DUP2 MSTORE SWAP1 PUSH1 0x40 MSTORE DUP2 PUSH1 0x1 ADD SWAP1 DUP1 MLOAD SWAP1 PUSH1 0x20 ADD SWAP1 PUSH2 0x1AEA SWAP3 SWAP2 SWAP1 PUSH2 0x4801 JUMP JUMPDEST POP DUP9 DUP2 PUSH1 0x2 ADD SWAP1 DUP1 MLOAD SWAP1 PUSH1 0x20 ADD SWAP1 PUSH2 0x1B03 SWAP3 SWAP2 SWAP1 PUSH2 0x4801 JUMP JUMPDEST POP PUSH1 0x40 MLOAD DUP1 PUSH1 0x40 ADD PUSH1 0x40 MSTORE DUP1 PUSH1 0x8 DUP2 MSTORE PUSH1 0x20 ADD PUSH32 0x415050524F564544000000000000000000000000000000000000000000000000 DUP2 MSTORE POP DUP2 PUSH1 0x3 ADD SWAP1 DUP1 MLOAD SWAP1 PUSH1 0x20 ADD SWAP1 PUSH2 0x1B51 SWAP3 SWAP2 SWAP1 PUSH2 0x4801 JUMP JUMPDEST POP PUSH1 0x7 DUP2 SWAP1 DUP1 PUSH1 0x1 DUP2 SLOAD ADD DUP1 DUP3 SSTORE DUP1 SWAP2 POP POP PUSH1 0x1 SWAP1 SUB SWAP1 PUSH1 0x0 MSTORE PUSH1 0x20 PUSH1 0x0 KECCAK256 SWAP1 PUSH1 0x4 MUL ADD PUSH1 0x0 SWAP1 SWAP2 SWAP1 SWAP2 SWAP1 SWAP2 POP PUSH1 0x0 DUP3 ADD DUP2 PUSH1 0x0 ADD SWAP1 DUP1 SLOAD PUSH2 0x1B92 SWAP1 PUSH2 0x5BCB JUMP JUMPDEST PUSH2 0x1B9D SWAP3 SWAP2 SWAP1 PUSH2 0x4774 JUMP JUMPDEST POP PUSH1 0x1 DUP3 ADD DUP2 PUSH1 0x1 ADD SWAP1 DUP1 SLOAD PUSH2 0x1BB2 SWAP1 PUSH2 0x5BCB JUMP JUMPDEST PUSH2 0x1BBD SWAP3 SWAP2 SWAP1 PUSH2 0x4774 JUMP JUMPDEST POP PUSH1 0x2 DUP3 ADD DUP2 PUSH1 0x2 ADD SWAP1 DUP1 SLOAD PUSH2 0x1BD2 SWAP1 PUSH2 0x5BCB JUMP JUMPDEST PUSH2 0x1BDD SWAP3 SWAP2 SWAP1 PUSH2 0x4774 JUMP JUMPDEST POP PUSH1 0x3 DUP3 ADD DUP2 PUSH1 0x3 ADD SWAP1 DUP1 SLOAD PUSH2 0x1BF2 SWAP1 PUSH2 0x5BCB JUMP JUMPDEST PUSH2 0x1BFD SWAP3 SWAP2 SWAP1 PUSH2 0x4774 JUMP JUMPDEST POP POP POP PUSH2 0x1E79 JUMP JUMPDEST PUSH1 0x0 PUSH1 0xA DUP8 PUSH1 0x40 MLOAD PUSH2 0x1C17 SWAP2 SWAP1 PUSH2 0x545C JUMP JUMPDEST SWAP1 DUP2 MSTORE PUSH1 0x20 ADD PUSH1 0x40 MLOAD DUP1 SWAP2 SUB SWAP1 KECCAK256 SWAP1 POP PUSH1 0x0 DUP2 PUSH1 0x2 ADD SWAP1 POP PUSH2 0x1CC1 DUP9 DUP1 SLOAD PUSH2 0x1C3E SWAP1 PUSH2 0x5BCB JUMP JUMPDEST DUP1 PUSH1 0x1F ADD PUSH1 0x20 DUP1 SWAP2 DIV MUL PUSH1 0x20 ADD PUSH1 0x40 MLOAD SWAP1 DUP2 ADD PUSH1 0x40 MSTORE DUP1 SWAP3 SWAP2 SWAP1 DUP2 DUP2 MSTORE PUSH1 0x20 ADD DUP3 DUP1 SLOAD PUSH2 0x1C6A SWAP1 PUSH2 0x5BCB JUMP JUMPDEST DUP1 ISZERO PUSH2 0x1CB7 JUMPI DUP1 PUSH1 0x1F LT PUSH2 0x1C8C JUMPI PUSH2 0x100 DUP1 DUP4 SLOAD DIV MUL DUP4 MSTORE SWAP2 PUSH1 0x20 ADD SWAP2 PUSH2 0x1CB7 JUMP JUMPDEST DUP3 ADD SWAP2 SWAP1 PUSH1 0x0 MSTORE PUSH1 0x20 PUSH1 0x0 KECCAK256 SWAP1 JUMPDEST DUP2 SLOAD DUP2 MSTORE SWAP1 PUSH1 0x1 ADD SWAP1 PUSH1 0x20 ADD DUP1 DUP4 GT PUSH2 0x1C9A JUMPI DUP3 SWAP1 SUB PUSH1 0x1F AND DUP3 ADD SWAP2 JUMPDEST POP POP POP POP POP PUSH2 0x41CF JUMP JUMPDEST DUP10 PUSH1 0x8 ADD SWAP1 DUP1 MLOAD SWAP1 PUSH1 0x20 ADD SWAP1 PUSH2 0x1CD8 SWAP3 SWAP2 SWAP1 PUSH2 0x4801 JUMP JUMPDEST POP PUSH1 0x40 MLOAD DUP1 PUSH1 0x40 ADD PUSH1 0x40 MSTORE DUP1 PUSH1 0x14 DUP2 MSTORE PUSH1 0x20 ADD PUSH32 0x5472616E73616374696F6E20417070726F766564000000000000000000000000 DUP2 MSTORE POP DUP4 PUSH1 0x0 ADD SWAP1 DUP1 MLOAD SWAP1 PUSH1 0x20 ADD SWAP1 PUSH2 0x1D26 SWAP3 SWAP2 SWAP1 PUSH2 0x4801 JUMP JUMPDEST POP DUP11 DUP2 PUSH1 0x40 MLOAD PUSH1 0x20 ADD PUSH2 0x1D3A SWAP3 SWAP2 SWAP1 PUSH2 0x54B8 JUMP JUMPDEST PUSH1 0x40 MLOAD PUSH1 0x20 DUP2 DUP4 SUB SUB DUP2 MSTORE SWAP1 PUSH1 0x40 MSTORE DUP4 PUSH1 0x1 ADD SWAP1 DUP1 MLOAD SWAP1 PUSH1 0x20 ADD SWAP1 PUSH2 0x1D60 SWAP3 SWAP2 SWAP1 PUSH2 0x4801 JUMP JUMPDEST POP DUP11 DUP4 PUSH1 0x2 ADD SWAP1 DUP1 MLOAD SWAP1 PUSH1 0x20 ADD SWAP1 PUSH2 0x1D79 SWAP3 SWAP2 SWAP1 PUSH2 0x4801 JUMP JUMPDEST POP PUSH1 0x40 MLOAD DUP1 PUSH1 0x40 ADD PUSH1 0x40 MSTORE DUP1 PUSH1 0x8 DUP2 MSTORE PUSH1 0x20 ADD PUSH32 0x415050524F564544000000000000000000000000000000000000000000000000 DUP2 MSTORE POP DUP4 PUSH1 0x3 ADD SWAP1 DUP1 MLOAD SWAP1 PUSH1 0x20 ADD SWAP1 PUSH2 0x1DC7 SWAP3 SWAP2 SWAP1 PUSH2 0x4801 JUMP JUMPDEST POP PUSH1 0x7 DUP4 SWAP1 DUP1 PUSH1 0x1 DUP2 SLOAD ADD DUP1 DUP3 SSTORE DUP1 SWAP2 POP POP PUSH1 0x1 SWAP1 SUB SWAP1 PUSH1 0x0 MSTORE PUSH1 0x20 PUSH1 0x0 KECCAK256 SWAP1 PUSH1 0x4 MUL ADD PUSH1 0x0 SWAP1 SWAP2 SWAP1 SWAP2 SWAP1 SWAP2 POP PUSH1 0x0 DUP3 ADD DUP2 PUSH1 0x0 ADD SWAP1 DUP1 SLOAD PUSH2 0x1E08 SWAP1 PUSH2 0x5BCB JUMP JUMPDEST PUSH2 0x1E13 SWAP3 SWAP2 SWAP1 PUSH2 0x4774 JUMP JUMPDEST POP PUSH1 0x1 DUP3 ADD DUP2 PUSH1 0x1 ADD SWAP1 DUP1 SLOAD PUSH2 0x1E28 SWAP1 PUSH2 0x5BCB JUMP JUMPDEST PUSH2 0x1E33 SWAP3 SWAP2 SWAP1 PUSH2 0x4774 JUMP JUMPDEST POP PUSH1 0x2 DUP3 ADD DUP2 PUSH1 0x2 ADD SWAP1 DUP1 SLOAD PUSH2 0x1E48 SWAP1 PUSH2 0x5BCB JUMP JUMPDEST PUSH2 0x1E53 SWAP3 SWAP2 SWAP1 PUSH2 0x4774 JUMP JUMPDEST POP PUSH1 0x3 DUP3 ADD DUP2 PUSH1 0x3 ADD SWAP1 DUP1 SLOAD PUSH2 0x1E68 SWAP1 PUSH2 0x5BCB JUMP JUMPDEST PUSH2 0x1E73 SWAP3 SWAP2 SWAP1 PUSH2 0x4774 JUMP JUMPDEST POP POP POP POP POP JUMPDEST DUP4 SWAP8 POP POP POP POP POP POP POP POP PUSH2 0x1E90 JUMP JUMPDEST DUP1 SWAP5 POP POP POP POP POP JUMPDEST SWAP2 SWAP1 POP JUMP JUMPDEST PUSH1 0x7 DUP2 DUP2 SLOAD DUP2 LT PUSH2 0x1EA5 JUMPI PUSH1 0x0 DUP1 REVERT JUMPDEST SWAP1 PUSH1 0x0 MSTORE PUSH1 0x20 PUSH1 0x0 KECCAK256 SWAP1 PUSH1 0x4 MUL ADD PUSH1 0x0 SWAP2 POP SWAP1 POP DUP1 PUSH1 0x0 ADD DUP1 SLOAD PUSH2 0x1EC8 SWAP1 PUSH2 0x5BCB JUMP JUMPDEST DUP1 PUSH1 0x1F ADD PUSH1 0x20 DUP1 SWAP2 DIV MUL PUSH1 0x20 ADD PUSH1 0x40 MLOAD SWAP1 DUP2 ADD PUSH1 0x40 MSTORE DUP1 SWAP3 SWAP2 SWAP1 DUP2 DUP2 MSTORE PUSH1 0x20 ADD DUP3 DUP1 SLOAD PUSH2 0x1EF4 SWAP1 PUSH2 0x5BCB JUMP JUMPDEST DUP1 ISZERO PUSH2 0x1F41 JUMPI DUP1 PUSH1 0x1F LT PUSH2 0x1F16 JUMPI PUSH2 0x100 DUP1 DUP4 SLOAD DIV MUL DUP4 MSTORE SWAP2 PUSH1 0x20 ADD SWAP2 PUSH2 0x1F41 JUMP JUMPDEST DUP3 ADD SWAP2 SWAP1 PUSH1 0x0 MSTORE PUSH1 0x20 PUSH1 0x0 KECCAK256 SWAP1 JUMPDEST DUP2 SLOAD DUP2 MSTORE SWAP1 PUSH1 0x1 ADD SWAP1 PUSH1 0x20 ADD DUP1 DUP4 GT PUSH2 0x1F24 JUMPI DUP3 SWAP1 SUB PUSH1 0x1F AND DUP3 ADD SWAP2 JUMPDEST POP POP POP POP POP SWAP1 DUP1 PUSH1 0x1 ADD DUP1 SLOAD PUSH2 0x1F56 SWAP1 PUSH2 0x5BCB JUMP JUMPDEST DUP1 PUSH1 0x1F ADD PUSH1 0x20 DUP1 SWAP2 DIV MUL PUSH1 0x20 ADD PUSH1 0x40 MLOAD SWAP1 DUP2 ADD PUSH1 0x40 MSTORE DUP1 SWAP3 SWAP2 SWAP1 DUP2 DUP2 MSTORE PUSH1 0x20 ADD DUP3 DUP1 SLOAD PUSH2 0x1F82 SWAP1 PUSH2 0x5BCB JUMP JUMPDEST DUP1 ISZERO PUSH2 0x1FCF JUMPI DUP1 PUSH1 0x1F LT PUSH2 0x1FA4 JUMPI PUSH2 0x100 DUP1 DUP4 SLOAD DIV MUL DUP4 MSTORE SWAP2 PUSH1 0x20 ADD SWAP2 PUSH2 0x1FCF JUMP JUMPDEST DUP3 ADD SWAP2 SWAP1 PUSH1 0x0 MSTORE PUSH1 0x20 PUSH1 0x0 KECCAK256 SWAP1 JUMPDEST DUP2 SLOAD DUP2 MSTORE SWAP1 PUSH1 0x1 ADD SWAP1 PUSH1 0x20 ADD DUP1 DUP4 GT PUSH2 0x1FB2 JUMPI DUP3 SWAP1 SUB PUSH1 0x1F AND DUP3 ADD SWAP2 JUMPDEST POP POP POP POP POP SWAP1 DUP1 PUSH1 0x2 ADD DUP1 SLOAD PUSH2 0x1FE4 SWAP1 PUSH2 0x5BCB JUMP JUMPDEST DUP1 PUSH1 0x1F ADD PUSH1 0x20 DUP1 SWAP2 DIV MUL PUSH1 0x20 ADD PUSH1 0x40 MLOAD SWAP1 DUP2 ADD PUSH1 0x40 MSTORE DUP1 SWAP3 SWAP2 SWAP1 DUP2 DUP2 MSTORE PUSH1 0x20 ADD DUP3 DUP1 SLOAD PUSH2 0x2010 SWAP1 PUSH2 0x5BCB JUMP JUMPDEST DUP1 ISZERO PUSH2 0x205D JUMPI DUP1 PUSH1 0x1F LT PUSH2 0x2032 JUMPI PUSH2 0x100 DUP1 DUP4 SLOAD DIV MUL DUP4 MSTORE SWAP2 PUSH1 0x20 ADD SWAP2 PUSH2 0x205D JUMP JUMPDEST DUP3 ADD SWAP2 SWAP1 PUSH1 0x0 MSTORE PUSH1 0x20 PUSH1 0x0 KECCAK256 SWAP1 JUMPDEST DUP2 SLOAD DUP2 MSTORE SWAP1 PUSH1 0x1 ADD SWAP1 PUSH1 0x20 ADD DUP1 DUP4 GT PUSH2 0x2040 JUMPI DUP3 SWAP1 SUB PUSH1 0x1F AND DUP3 ADD SWAP2 JUMPDEST POP POP POP POP POP SWAP1 DUP1 PUSH1 0x3 ADD DUP1 SLOAD PUSH2 0x2072 SWAP1 PUSH2 0x5BCB JUMP JUMPDEST DUP1 PUSH1 0x1F ADD PUSH1 0x20 DUP1 SWAP2 DIV MUL PUSH1 0x20 ADD PUSH1 0x40 MLOAD SWAP1 DUP2 ADD PUSH1 0x40 MSTORE DUP1 SWAP3 SWAP2 SWAP1 DUP2 DUP2 MSTORE PUSH1 0x20 ADD DUP3 DUP1 SLOAD PUSH2 0x209E SWAP1 PUSH2 0x5BCB JUMP JUMPDEST DUP1 ISZERO PUSH2 0x20EB JUMPI DUP1 PUSH1 0x1F LT PUSH2 0x20C0 JUMPI PUSH2 0x100 DUP1 DUP4 SLOAD DIV MUL DUP4 MSTORE SWAP2 PUSH1 0x20 ADD SWAP2 PUSH2 0x20EB JUMP JUMPDEST DUP3 ADD SWAP2 SWAP1 PUSH1 0x0 MSTORE PUSH1 0x20 PUSH1 0x0 KECCAK256 SWAP1 JUMPDEST DUP2 SLOAD DUP2 MSTORE SWAP1 PUSH1 0x1 ADD SWAP1 PUSH1 0x20 ADD DUP1 DUP4 GT PUSH2 0x20CE JUMPI DUP3 SWAP1 SUB PUSH1 0x1F AND DUP3 ADD SWAP2 JUMPDEST POP POP POP POP POP SWAP1 POP DUP5 JUMP JUMPDEST PUSH1 0x9 DUP2 DUP2 SLOAD DUP2 LT PUSH2 0x212F JUMPI PUSH32 0x4E487B7100000000000000000000000000000000000000000000000000000000 PUSH1 0x0 MSTORE PUSH1 0x32 PUSH1 0x4 MSTORE PUSH1 0x24 PUSH1 0x0 REVERT JUMPDEST SWAP1 PUSH1 0x0 MSTORE PUSH1 0x20 PUSH1 0x0 KECCAK256 ADD PUSH1 0x0 PUSH2 0x100 EXP DUP2 SLOAD SWAP1 PUSH20 0xFFFFFFFFFFFFFFFFFFFFFFFFFFFFFFFFFFFFFFFF MUL NOT AND SWAP1 SSTORE POP JUMP JUMPDEST PUSH1 0x0 DUP1 PUSH1 0xB PUSH1 0x0 CALLER PUSH20 0xFFFFFFFFFFFFFFFFFFFFFFFFFFFFFFFFFFFFFFFF AND PUSH20 0xFFFFFFFFFFFFFFFFFFFFFFFFFFFFFFFFFFFFFFFF AND DUP2 MSTORE PUSH1 0x20 ADD SWAP1 DUP2 MSTORE PUSH1 0x20 ADD PUSH1 0x0 KECCAK256 SWAP1 POP PUSH1 0x1 DUP2 PUSH1 0x5 ADD SLOAD PUSH2 0x21B4 SWAP2 SWAP1 PUSH2 0x5A91 JUMP JUMPDEST DUP2 PUSH1 0x5 ADD DUP2 SWAP1 SSTORE POP PUSH1 0x0 PUSH1 0xC DUP5 PUSH1 0x40 MLOAD PUSH2 0x21CE SWAP2 SWAP1 PUSH2 0x5445 JUMP JUMPDEST SWAP1 DUP2 MSTORE PUSH1 0x20 ADD PUSH1 0x40 MLOAD DUP1 SWAP2 SUB SWAP1 KECCAK256 SWAP1 POP PUSH1 0x40 MLOAD DUP1 PUSH1 0x40 ADD PUSH1 0x40 MSTORE DUP1 PUSH1 0x8 DUP2 MSTORE PUSH1 0x20 ADD PUSH32 0x4445434C494E4544000000000000000000000000000000000000000000000000 DUP2 MSTORE POP DUP2 PUSH1 0x5 ADD SWAP1 DUP1 MLOAD SWAP1 PUSH1 0x20 ADD SWAP1 PUSH2 0x222B SWAP3 SWAP2 SWAP1 PUSH2 0x4801 JUMP JUMPDEST POP PUSH1 0x1 SWAP3 POP POP POP SWAP2 SWAP1 POP JUMP JUMPDEST PUSH1 0x0 PUSH1 0xB PUSH1 0x0 CALLER PUSH20 0xFFFFFFFFFFFFFFFFFFFFFFFFFFFFFFFFFFFFFFFF AND PUSH20 0xFFFFFFFFFFFFFFFFFFFFFFFFFFFFFFFFFFFFFFFF AND DUP2 MSTORE PUSH1 0x20 ADD SWAP1 DUP2 MSTORE PUSH1 0x20 ADD PUSH1 0x0 KECCAK256 PUSH1 0x2 ADD PUSH1 0x0 SWAP1 SLOAD SWAP1 PUSH2 0x100 EXP SWAP1 DIV PUSH20 0xFFFFFFFFFFFFFFFFFFFFFFFFFFFFFFFFFFFFFFFF AND PUSH20 0xFFFFFFFFFFFFFFFFFFFFFFFFFFFFFFFFFFFFFFFF AND CALLER PUSH20 0xFFFFFFFFFFFFFFFFFFFFFFFFFFFFFFFFFFFFFFFF AND EQ PUSH2 0x22D3 JUMPI PUSH1 0x0 DUP1 REVERT JUMPDEST PUSH1 0x1 SWAP1 POP SWAP1 JUMP JUMPDEST PUSH1 0x60 PUSH1 0x9 DUP1 SLOAD DUP1 PUSH1 0x20 MUL PUSH1 0x20 ADD PUSH1 0x40 MLOAD SWAP1 DUP2 ADD PUSH1 0x40 MSTORE DUP1 SWAP3 SWAP2 SWAP1 DUP2 DUP2 MSTORE PUSH1 0x20 ADD DUP3 DUP1 SLOAD DUP1 ISZERO PUSH2 0x235E JUMPI PUSH1 0x20 MUL DUP3 ADD SWAP2 SWAP1 PUSH1 0x0 MSTORE PUSH1 0x20 PUSH1 0x0 KECCAK256 SWAP1 JUMPDEST DUP2 PUSH1 0x0 SWAP1 SLOAD SWAP1 PUSH2 0x100 EXP SWAP1 DIV PUSH20 0xFFFFFFFFFFFFFFFFFFFFFFFFFFFFFFFFFFFFFFFF AND PUSH20 0xFFFFFFFFFFFFFFFFFFFFFFFFFFFFFFFFFFFFFFFF AND DUP2 MSTORE PUSH1 0x20 ADD SWAP1 PUSH1 0x1 ADD SWAP1 DUP1 DUP4 GT PUSH2 0x2314 JUMPI JUMPDEST POP POP POP POP POP SWAP1 POP SWAP1 JUMP JUMPDEST PUSH1 0x9 DUP2 DUP2 SLOAD DUP2 LT PUSH2 0x2378 JUMPI PUSH1 0x0 DUP1 REVERT JUMPDEST SWAP1 PUSH1 0x0 MSTORE PUSH1 0x20 PUSH1 0x0 KECCAK256 ADD PUSH1 0x0 SWAP2 POP SLOAD SWAP1 PUSH2 0x100 EXP SWAP1 DIV PUSH20 0xFFFFFFFFFFFFFFFFFFFFFFFFFFFFFFFFFFFFFFFF AND DUP2 JUMP JUMPDEST PUSH1 0x0 PUSH1 0xA DUP6 PUSH1 0x40 MLOAD PUSH2 0x23B9 SWAP2 SWAP1 PUSH2 0x5445 JUMP JUMPDEST SWAP1 DUP2 MSTORE PUSH1 0x20 ADD PUSH1 0x40 MLOAD DUP1 SWAP2 SUB SWAP1 KECCAK256 SWAP1 POP PUSH1 0x4 PUSH1 0x0 DUP2 SLOAD DUP1 SWAP3 SWAP2 SWAP1 PUSH2 0x23DC SWAP1 PUSH2 0x5C2E JUMP JUMPDEST SWAP2 SWAP1 POP SSTORE DUP2 PUSH1 0x0 ADD DUP2 SWAP1 SSTORE POP DUP5 DUP2 PUSH1 0x1 ADD SWAP1 DUP1 MLOAD SWAP1 PUSH1 0x20 ADD SWAP1 PUSH2 0x2400 SWAP3 SWAP2 SWAP1 PUSH2 0x4801 JUMP JUMPDEST POP DUP4 DUP2 PUSH1 0x2 ADD SWAP1 DUP1 MLOAD SWAP1 PUSH1 0x20 ADD SWAP1 PUSH2 0x2419 SWAP3 SWAP2 SWAP1 PUSH2 0x4801 JUMP JUMPDEST POP DUP3 DUP2 PUSH1 0x3 ADD DUP2 SWAP1 SSTORE POP DUP2 DUP2 PUSH1 0x4 ADD DUP2 SWAP1 SSTORE POP PUSH1 0x8 DUP2 SWAP1 DUP1 PUSH1 0x1 DUP2 SLOAD ADD DUP1 DUP3 SSTORE DUP1 SWAP2 POP POP PUSH1 0x1 SWAP1 SUB SWAP1 PUSH1 0x0 MSTORE PUSH1 0x20 PUSH1 0x0 KECCAK256 SWAP1 PUSH1 0x5 MUL ADD PUSH1 0x0 SWAP1 SWAP2 SWAP1 SWAP2 SWAP1 SWAP2 POP PUSH1 0x0 DUP3 ADD SLOAD DUP2 PUSH1 0x0 ADD SSTORE PUSH1 0x1 DUP3 ADD DUP2 PUSH1 0x1 ADD SWAP1 DUP1 SLOAD PUSH2 0x2476 SWAP1 PUSH2 0x5BCB JUMP JUMPDEST PUSH2 0x2481 SWAP3 SWAP2 SWAP1 PUSH2 0x4774 JUMP JUMPDEST POP PUSH1 0x2 DUP3 ADD DUP2 PUSH1 0x2 ADD SWAP1 DUP1 SLOAD PUSH2 0x2496 SWAP1 PUSH2 0x5BCB JUMP JUMPDEST PUSH2 0x24A1 SWAP3 SWAP2 SWAP1 PUSH2 0x4774 JUMP JUMPDEST POP PUSH1 0x3 DUP3 ADD SLOAD DUP2 PUSH1 0x3 ADD SSTORE PUSH1 0x4 DUP3 ADD SLOAD DUP2 PUSH1 0x4 ADD SSTORE POP POP POP POP POP POP POP JUMP JUMPDEST PUSH1 0xE DUP2 DUP1 MLOAD PUSH1 0x20 DUP2 ADD DUP3 ADD DUP1 MLOAD DUP5 DUP3 MSTORE PUSH1 0x20 DUP4 ADD PUSH1 0x20 DUP6 ADD KECCAK256 DUP2 DUP4 MSTORE DUP1 SWAP6 POP POP POP POP POP POP PUSH1 0x0 SWAP2 POP SWAP1 POP DUP1 PUSH1 0x0 ADD DUP1 SLOAD PUSH2 0x24F8 SWAP1 PUSH2 0x5BCB JUMP JUMPDEST DUP1 PUSH1 0x1F ADD PUSH1 0x20 DUP1 SWAP2 DIV MUL PUSH1 0x20 ADD PUSH1 0x40 MLOAD SWAP1 DUP2 ADD PUSH1 0x40 MSTORE DUP1 SWAP3 SWAP2 SWAP1 DUP2 DUP2 MSTORE PUSH1 0x20 ADD DUP3 DUP1 SLOAD PUSH2 0x2524 SWAP1 PUSH2 0x5BCB JUMP JUMPDEST DUP1 ISZERO PUSH2 0x2571 JUMPI DUP1 PUSH1 0x1F LT PUSH2 0x2546 JUMPI PUSH2 0x100 DUP1 DUP4 SLOAD DIV MUL DUP4 MSTORE SWAP2 PUSH1 0x20 ADD SWAP2 PUSH2 0x2571 JUMP JUMPDEST DUP3 ADD SWAP2 SWAP1 PUSH1 0x0 MSTORE PUSH1 0x20 PUSH1 0x0 KECCAK256 SWAP1 JUMPDEST DUP2 SLOAD DUP2 MSTORE SWAP1 PUSH1 0x1 ADD SWAP1 PUSH1 0x20 ADD DUP1 DUP4 GT PUSH2 0x2554 JUMPI DUP3 SWAP1 SUB PUSH1 0x1F AND DUP3 ADD SWAP2 JUMPDEST POP POP POP POP POP SWAP1 POP DUP2 JUMP JUMPDEST PUSH1 0x0 PUSH1 0xB PUSH1 0x0 DUP5 PUSH20 0xFFFFFFFFFFFFFFFFFFFFFFFFFFFFFFFFFFFFFFFF AND PUSH20 0xFFFFFFFFFFFFFFFFFFFFFFFFFFFFFFFFFFFFFFFF AND DUP2 MSTORE PUSH1 0x20 ADD SWAP1 DUP2 MSTORE PUSH1 0x20 ADD PUSH1 0x0 KECCAK256 SWAP1 POP DUP4 DUP2 PUSH1 0x1 ADD SWAP1 DUP1 MLOAD SWAP1 PUSH1 0x20 ADD SWAP1 PUSH2 0x25D6 SWAP3 SWAP2 SWAP1 PUSH2 0x4801 JUMP JUMPDEST POP DUP3 DUP2 PUSH1 0x2 ADD PUSH1 0x0 PUSH2 0x100 EXP DUP2 SLOAD DUP2 PUSH20 0xFFFFFFFFFFFFFFFFFFFFFFFFFFFFFFFFFFFFFFFF MUL NOT AND SWAP1 DUP4 PUSH20 0xFFFFFFFFFFFFFFFFFFFFFFFFFFFFFFFFFFFFFFFF AND MUL OR SWAP1 SSTORE POP DUP2 DUP2 PUSH1 0x0 ADD SWAP1 DUP1 MLOAD SWAP1 PUSH1 0x20 ADD SWAP1 PUSH2 0x2632 SWAP3 SWAP2 SWAP1 PUSH2 0x4801 JUMP JUMPDEST POP PUSH1 0x2 PUSH1 0x0 DUP2 SLOAD DUP1 SWAP3 SWAP2 SWAP1 PUSH2 0x2646 SWAP1 PUSH2 0x5C2E JUMP JUMPDEST SWAP2 SWAP1 POP SSTORE DUP2 PUSH1 0x3 ADD DUP2 SWAP1 SSTORE POP PUSH1 0x9 DUP4 SWAP1 DUP1 PUSH1 0x1 DUP2 SLOAD ADD DUP1 DUP3 SSTORE DUP1 SWAP2 POP POP PUSH1 0x1 SWAP1 SUB SWAP1 PUSH1 0x0 MSTORE PUSH1 0x20 PUSH1 0x0 KECCAK256 ADD PUSH1 0x0 SWAP1 SWAP2 SWAP1 SWAP2 SWAP1 SWAP2 PUSH2 0x100 EXP DUP2 SLOAD DUP2 PUSH20 0xFFFFFFFFFFFFFFFFFFFFFFFFFFFFFFFFFFFFFFFF MUL NOT AND SWAP1 DUP4 PUSH20 0xFFFFFFFFFFFFFFFFFFFFFFFFFFFFFFFFFFFFFFFF AND MUL OR SWAP1 SSTORE POP POP POP POP POP JUMP JUMPDEST PUSH1 0x1 PUSH1 0x0 SWAP1 SLOAD SWAP1 PUSH2 0x100 EXP SWAP1 DIV PUSH20 0xFFFFFFFFFFFFFFFFFFFFFFFFFFFFFFFFFFFFFFFF AND DUP2 JUMP JUMPDEST PUSH1 0xC DUP2 DUP1 MLOAD PUSH1 0x20 DUP2 ADD DUP3 ADD DUP1 MLOAD DUP5 DUP3 MSTORE PUSH1 0x20 DUP4 ADD PUSH1 0x20 DUP6 ADD KECCAK256 DUP2 DUP4 MSTORE DUP1 SWAP6 POP POP POP POP POP POP PUSH1 0x0 SWAP2 POP SWAP1 POP DUP1 PUSH1 0x0 ADD DUP1 SLOAD PUSH2 0x271A SWAP1 PUSH2 0x5BCB JUMP JUMPDEST DUP1 PUSH1 0x1F ADD PUSH1 0x20 DUP1 SWAP2 DIV MUL PUSH1 0x20 ADD PUSH1 0x40 MLOAD SWAP1 DUP2 ADD PUSH1 0x40 MSTORE DUP1 SWAP3 SWAP2 SWAP1 DUP2 DUP2 MSTORE PUSH1 0x20 ADD DUP3 DUP1 SLOAD PUSH2 0x2746 SWAP1 PUSH2 0x5BCB JUMP JUMPDEST DUP1 ISZERO PUSH2 0x2793 JUMPI DUP1 PUSH1 0x1F LT PUSH2 0x2768 JUMPI PUSH2 0x100 DUP1 DUP4 SLOAD DIV MUL DUP4 MSTORE SWAP2 PUSH1 0x20 ADD SWAP2 PUSH2 0x2793 JUMP JUMPDEST DUP3 ADD SWAP2 SWAP1 PUSH1 0x0 MSTORE PUSH1 0x20 PUSH1 0x0 KECCAK256 SWAP1 JUMPDEST DUP2 SLOAD DUP2 MSTORE SWAP1 PUSH1 0x1 ADD SWAP1 PUSH1 0x20 ADD DUP1 DUP4 GT PUSH2 0x2776 JUMPI DUP3 SWAP1 SUB PUSH1 0x1F AND DUP3 ADD SWAP2 JUMPDEST POP POP POP POP POP SWAP1 DUP1 PUSH1 0x1 ADD DUP1 SLOAD PUSH2 0x27A8 SWAP1 PUSH2 0x5BCB JUMP JUMPDEST DUP1 PUSH1 0x1F ADD PUSH1 0x20 DUP1 SWAP2 DIV MUL PUSH1 0x20 ADD PUSH1 0x40 MLOAD SWAP1 DUP2 ADD PUSH1 0x40 MSTORE DUP1 SWAP3 SWAP2 SWAP1 DUP2 DUP2 MSTORE PUSH1 0x20 ADD DUP3 DUP1 SLOAD PUSH2 0x27D4 SWAP1 PUSH2 0x5BCB JUMP JUMPDEST DUP1 ISZERO PUSH2 0x2821 JUMPI DUP1 PUSH1 0x1F LT PUSH2 0x27F6 JUMPI PUSH2 0x100 DUP1 DUP4 SLOAD DIV MUL DUP4 MSTORE SWAP2 PUSH1 0x20 ADD SWAP2 PUSH2 0x2821 JUMP JUMPDEST DUP3 ADD SWAP2 SWAP1 PUSH1 0x0 MSTORE PUSH1 0x20 PUSH1 0x0 KECCAK256 SWAP1 JUMPDEST DUP2 SLOAD DUP2 MSTORE SWAP1 PUSH1 0x1 ADD SWAP1 PUSH1 0x20 ADD DUP1 DUP4 GT PUSH2 0x2804 JUMPI DUP3 SWAP1 SUB PUSH1 0x1F AND DUP3 ADD SWAP2 JUMPDEST POP POP POP POP POP SWAP1 DUP1 PUSH1 0x2 ADD DUP1 SLOAD PUSH2 0x2836 SWAP1 PUSH2 0x5BCB JUMP JUMPDEST DUP1 PUSH1 0x1F ADD PUSH1 0x20 DUP1 SWAP2 DIV MUL PUSH1 0x20 ADD PUSH1 0x40 MLOAD SWAP1 DUP2 ADD PUSH1 0x40 MSTORE DUP1 SWAP3 SWAP2 SWAP1 DUP2 DUP2 MSTORE PUSH1 0x20 ADD DUP3 DUP1 SLOAD PUSH2 0x2862 SWAP1 PUSH2 0x5BCB JUMP JUMPDEST DUP1 ISZERO PUSH2 0x28AF JUMPI DUP1 PUSH1 0x1F LT PUSH2 0x2884 JUMPI PUSH2 0x100 DUP1 DUP4 SLOAD DIV MUL DUP4 MSTORE SWAP2 PUSH1 0x20 ADD SWAP2 PUSH2 0x28AF JUMP JUMPDEST DUP3 ADD SWAP2 SWAP1 PUSH1 0x0 MSTORE PUSH1 0x20 PUSH1 0x0 KECCAK256 SWAP1 JUMPDEST DUP2 SLOAD DUP2 MSTORE SWAP1 PUSH1 0x1 ADD SWAP1 PUSH1 0x20 ADD DUP1 DUP4 GT PUSH2 0x2892 JUMPI DUP3 SWAP1 SUB PUSH1 0x1F AND DUP3 ADD SWAP2 JUMPDEST POP POP POP POP POP SWAP1 DUP1 PUSH1 0x3 ADD DUP1 SLOAD PUSH2 0x28C4 SWAP1 PUSH2 0x5BCB JUMP JUMPDEST DUP1 PUSH1 0x1F ADD PUSH1 0x20 DUP1 SWAP2 DIV MUL PUSH1 0x20 ADD PUSH1 0x40 MLOAD SWAP1 DUP2 ADD PUSH1 0x40 MSTORE DUP1 SWAP3 SWAP2 SWAP1 DUP2 DUP2 MSTORE PUSH1 0x20 ADD DUP3 DUP1 SLOAD PUSH2 0x28F0 SWAP1 PUSH2 0x5BCB JUMP JUMPDEST DUP1 ISZERO PUSH2 0x293D JUMPI DUP1 PUSH1 0x1F LT PUSH2 0x2912 JUMPI PUSH2 0x100 DUP1 DUP4 SLOAD DIV MUL DUP4 MSTORE SWAP2 PUSH1 0x20 ADD SWAP2 PUSH2 0x293D JUMP JUMPDEST DUP3 ADD SWAP2 SWAP1 PUSH1 0x0 MSTORE PUSH1 0x20 PUSH1 0x0 KECCAK256 SWAP1 JUMPDEST DUP2 SLOAD DUP2 MSTORE SWAP1 PUSH1 0x1 ADD SWAP1 PUSH1 0x20 ADD DUP1 DUP4 GT PUSH2 0x2920 JUMPI DUP3 SWAP1 SUB PUSH1 0x1F AND DUP3 ADD SWAP2 JUMPDEST POP POP POP POP POP SWAP1 DUP1 PUSH1 0x4 ADD SLOAD SWAP1 DUP1 PUSH1 0x5 ADD DUP1 SLOAD PUSH2 0x2958 SWAP1 PUSH2 0x5BCB JUMP JUMPDEST DUP1 PUSH1 0x1F ADD PUSH1 0x20 DUP1 SWAP2 DIV MUL PUSH1 0x20 ADD PUSH1 0x40 MLOAD SWAP1 DUP2 ADD PUSH1 0x40 MSTORE DUP1 SWAP3 SWAP2 SWAP1 DUP2 DUP2 MSTORE PUSH1 0x20 ADD DUP3 DUP1 SLOAD PUSH2 0x2984 SWAP1 PUSH2 0x5BCB JUMP JUMPDEST DUP1 ISZERO PUSH2 0x29D1 JUMPI DUP1 PUSH1 0x1F LT PUSH2 0x29A6 JUMPI PUSH2 0x100 DUP1 DUP4 SLOAD DIV MUL DUP4 MSTORE SWAP2 PUSH1 0x20 ADD SWAP2 PUSH2 0x29D1 JUMP JUMPDEST DUP3 ADD SWAP2 SWAP1 PUSH1 0x0 MSTORE PUSH1 0x20 PUSH1 0x0 KECCAK256 SWAP1 JUMPDEST DUP2 SLOAD DUP2 MSTORE SWAP1 PUSH1 0x1 ADD SWAP1 PUSH1 0x20 ADD DUP1 DUP4 GT PUSH2 0x29B4 JUMPI DUP3 SWAP1 SUB PUSH1 0x1F AND DUP3 ADD SWAP2 JUMPDEST POP POP POP POP POP SWAP1 DUP1 PUSH1 0x6 ADD PUSH1 0x0 SWAP1 SLOAD SWAP1 PUSH2 0x100 EXP SWAP1 DIV PUSH20 0xFFFFFFFFFFFFFFFFFFFFFFFFFFFFFFFFFFFFFFFF AND SWAP1 DUP1 PUSH1 0x7 ADD SLOAD SWAP1 DUP1 PUSH1 0x8 ADD DUP1 SLOAD PUSH2 0x2A12 SWAP1 PUSH2 0x5BCB JUMP JUMPDEST DUP1 PUSH1 0x1F ADD PUSH1 0x20 DUP1 SWAP2 DIV MUL PUSH1 0x20 ADD PUSH1 0x40 MLOAD SWAP1 DUP2 ADD PUSH1 0x40 MSTORE DUP1 SWAP3 SWAP2 SWAP1 DUP2 DUP2 MSTORE PUSH1 0x20 ADD DUP3 DUP1 SLOAD PUSH2 0x2A3E SWAP1 PUSH2 0x5BCB JUMP JUMPDEST DUP1 ISZERO PUSH2 0x2A8B JUMPI DUP1 PUSH1 0x1F LT PUSH2 0x2A60 JUMPI PUSH2 0x100 DUP1 DUP4 SLOAD DIV MUL DUP4 MSTORE SWAP2 PUSH1 0x20 ADD SWAP2 PUSH2 0x2A8B JUMP JUMPDEST DUP3 ADD SWAP2 SWAP1 PUSH1 0x0 MSTORE PUSH1 0x20 PUSH1 0x0 KECCAK256 SWAP1 JUMPDEST DUP2 SLOAD DUP2 MSTORE SWAP1 PUSH1 0x1 ADD SWAP1 PUSH1 0x20 ADD DUP1 DUP4 GT PUSH2 0x2A6E JUMPI DUP3 SWAP1 SUB PUSH1 0x1F AND DUP3 ADD SWAP2 JUMPDEST POP POP POP POP POP SWAP1 DUP1 PUSH1 0x9 ADD DUP1 SLOAD PUSH2 0x2AA0 SWAP1 PUSH2 0x5BCB JUMP JUMPDEST DUP1 PUSH1 0x1F ADD PUSH1 0x20 DUP1 SWAP2 DIV MUL PUSH1 0x20 ADD PUSH1 0x40 MLOAD SWAP1 DUP2 ADD PUSH1 0x40 MSTORE DUP1 SWAP3 SWAP2 SWAP1 DUP2 DUP2 MSTORE PUSH1 0x20 ADD DUP3 DUP1 SLOAD PUSH2 0x2ACC SWAP1 PUSH2 0x5BCB JUMP JUMPDEST DUP1 ISZERO PUSH2 0x2B19 JUMPI DUP1 PUSH1 0x1F LT PUSH2 0x2AEE JUMPI PUSH2 0x100 DUP1 DUP4 SLOAD DIV MUL DUP4 MSTORE SWAP2 PUSH1 0x20 ADD SWAP2 PUSH2 0x2B19 JUMP JUMPDEST DUP3 ADD SWAP2 SWAP1 PUSH1 0x0 MSTORE PUSH1 0x20 PUSH1 0x0 KECCAK256 SWAP1 JUMPDEST DUP2 SLOAD DUP2 MSTORE SWAP1 PUSH1 0x1 ADD SWAP1 PUSH1 0x20 ADD DUP1 DUP4 GT PUSH2 0x2AFC JUMPI DUP3 SWAP1 SUB PUSH1 0x1F AND DUP3 ADD SWAP2 JUMPDEST POP POP POP POP POP SWAP1 DUP1 PUSH1 0xA ADD SLOAD SWAP1 POP DUP12 JUMP JUMPDEST PUSH1 0x60 PUSH1 0x7 DUP1 SLOAD DUP1 PUSH1 0x20 MUL PUSH1 0x20 ADD PUSH1 0x40 MLOAD SWAP1 DUP2 ADD PUSH1 0x40 MSTORE DUP1 SWAP3 SWAP2 SWAP1 DUP2 DUP2 MSTORE PUSH1 0x20 ADD PUSH1 0x0 SWAP1 JUMPDEST DUP3 DUP3 LT ISZERO PUSH2 0x2DC7 JUMPI DUP4 DUP3 SWAP1 PUSH1 0x0 MSTORE PUSH1 0x20 PUSH1 0x0 KECCAK256 SWAP1 PUSH1 0x4 MUL ADD PUSH1 0x40 MLOAD DUP1 PUSH1 0x80 ADD PUSH1 0x40 MSTORE SWAP1 DUP2 PUSH1 0x0 DUP3 ADD DUP1 SLOAD PUSH2 0x2B80 SWAP1 PUSH2 0x5BCB JUMP JUMPDEST DUP1 PUSH1 0x1F ADD PUSH1 0x20 DUP1 SWAP2 DIV MUL PUSH1 0x20 ADD PUSH1 0x40 MLOAD SWAP1 DUP2 ADD PUSH1 0x40 MSTORE DUP1 SWAP3 SWAP2 SWAP1 DUP2 DUP2 MSTORE PUSH1 0x20 ADD DUP3 DUP1 SLOAD PUSH2 0x2BAC SWAP1 PUSH2 0x5BCB JUMP JUMPDEST DUP1 ISZERO PUSH2 0x2BF9 JUMPI DUP1 PUSH1 0x1F LT PUSH2 0x2BCE JUMPI PUSH2 0x100 DUP1 DUP4 SLOAD DIV MUL DUP4 MSTORE SWAP2 PUSH1 0x20 ADD SWAP2 PUSH2 0x2BF9 JUMP JUMPDEST DUP3 ADD SWAP2 SWAP1 PUSH1 0x0 MSTORE PUSH1 0x20 PUSH1 0x0 KECCAK256 SWAP1 JUMPDEST DUP2 SLOAD DUP2 MSTORE SWAP1 PUSH1 0x1 ADD SWAP1 PUSH1 0x20 ADD DUP1 DUP4 GT PUSH2 0x2BDC JUMPI DUP3 SWAP1 SUB PUSH1 0x1F AND DUP3 ADD SWAP2 JUMPDEST POP POP POP POP POP DUP2 MSTORE PUSH1 0x20 ADD PUSH1 0x1 DUP3 ADD DUP1 SLOAD PUSH2 0x2C12 SWAP1 PUSH2 0x5BCB JUMP JUMPDEST DUP1 PUSH1 0x1F ADD PUSH1 0x20 DUP1 SWAP2 DIV MUL PUSH1 0x20 ADD PUSH1 0x40 MLOAD SWAP1 DUP2 ADD PUSH1 0x40 MSTORE DUP1 SWAP3 SWAP2 SWAP1 DUP2 DUP2 MSTORE PUSH1 0x20 ADD DUP3 DUP1 SLOAD PUSH2 0x2C3E SWAP1 PUSH2 0x5BCB JUMP JUMPDEST DUP1 ISZERO PUSH2 0x2C8B JUMPI DUP1 PUSH1 0x1F LT PUSH2 0x2C60 JUMPI PUSH2 0x100 DUP1 DUP4 SLOAD DIV MUL DUP4 MSTORE SWAP2 PUSH1 0x20 ADD SWAP2 PUSH2 0x2C8B JUMP JUMPDEST DUP3 ADD SWAP2 SWAP1 PUSH1 0x0 MSTORE PUSH1 0x20 PUSH1 0x0 KECCAK256 SWAP1 JUMPDEST DUP2 SLOAD DUP2 MSTORE SWAP1 PUSH1 0x1 ADD SWAP1 PUSH1 0x20 ADD DUP1 DUP4 GT PUSH2 0x2C6E JUMPI DUP3 SWAP1 SUB PUSH1 0x1F AND DUP3 ADD SWAP2 JUMPDEST POP POP POP POP POP DUP2 MSTORE PUSH1 0x20 ADD PUSH1 0x2 DUP3 ADD DUP1 SLOAD PUSH2 0x2CA4 SWAP1 PUSH2 0x5BCB JUMP JUMPDEST DUP1 PUSH1 0x1F ADD PUSH1 0x20 DUP1 SWAP2 DIV MUL PUSH1 0x20 ADD PUSH1 0x40 MLOAD SWAP1 DUP2 ADD PUSH1 0x40 MSTORE DUP1 SWAP3 SWAP2 SWAP1 DUP2 DUP2 MSTORE PUSH1 0x20 ADD DUP3 DUP1 SLOAD PUSH2 0x2CD0 SWAP1 PUSH2 0x5BCB JUMP JUMPDEST DUP1 ISZERO PUSH2 0x2D1D JUMPI DUP1 PUSH1 0x1F LT PUSH2 0x2CF2 JUMPI PUSH2 0x100 DUP1 DUP4 SLOAD DIV MUL DUP4 MSTORE SWAP2 PUSH1 0x20 ADD SWAP2 PUSH2 0x2D1D JUMP JUMPDEST DUP3 ADD SWAP2 SWAP1 PUSH1 0x0 MSTORE PUSH1 0x20 PUSH1 0x0 KECCAK256 SWAP1 JUMPDEST DUP2 SLOAD DUP2 MSTORE SWAP1 PUSH1 0x1 ADD SWAP1 PUSH1 0x20 ADD DUP1 DUP4 GT PUSH2 0x2D00 JUMPI DUP3 SWAP1 SUB PUSH1 0x1F AND DUP3 ADD SWAP2 JUMPDEST POP POP POP POP POP DUP2 MSTORE PUSH1 0x20 ADD PUSH1 0x3 DUP3 ADD DUP1 SLOAD PUSH2 0x2D36 SWAP1 PUSH2 0x5BCB JUMP JUMPDEST DUP1 PUSH1 0x1F ADD PUSH1 0x20 DUP1 SWAP2 DIV MUL PUSH1 0x20 ADD PUSH1 0x40 MLOAD SWAP1 DUP2 ADD PUSH1 0x40 MSTORE DUP1 SWAP3 SWAP2 SWAP1 DUP2 DUP2 MSTORE PUSH1 0x20 ADD DUP3 DUP1 SLOAD PUSH2 0x2D62 SWAP1 PUSH2 0x5BCB JUMP JUMPDEST DUP1 ISZERO PUSH2 0x2DAF JUMPI DUP1 PUSH1 0x1F LT PUSH2 0x2D84 JUMPI PUSH2 0x100 DUP1 DUP4 SLOAD DIV MUL DUP4 MSTORE SWAP2 PUSH1 0x20 ADD SWAP2 PUSH2 0x2DAF JUMP JUMPDEST DUP3 ADD SWAP2 SWAP1 PUSH1 0x0 MSTORE PUSH1 0x20 PUSH1 0x0 KECCAK256 SWAP1 JUMPDEST DUP2 SLOAD DUP2 MSTORE SWAP1 PUSH1 0x1 ADD SWAP1 PUSH1 0x20 ADD DUP1 DUP4 GT PUSH2 0x2D92 JUMPI DUP3 SWAP1 SUB PUSH1 0x1F AND DUP3 ADD SWAP2 JUMPDEST POP POP POP POP POP DUP2 MSTORE POP POP DUP2 MSTORE PUSH1 0x20 ADD SWAP1 PUSH1 0x1 ADD SWAP1 PUSH2 0x2B4D JUMP JUMPDEST POP POP POP POP SWAP1 POP SWAP1 JUMP JUMPDEST PUSH1 0x0 DUP1 PUSH1 0xC DUP4 PUSH1 0x40 MLOAD PUSH2 0x2DE3 SWAP2 SWAP1 PUSH2 0x5445 JUMP JUMPDEST SWAP1 DUP2 MSTORE PUSH1 0x20 ADD PUSH1 0x40 MLOAD DUP1 SWAP2 SUB SWAP1 KECCAK256 SWAP1 POP PUSH1 0x0 DUP2 PUSH1 0xA ADD SLOAD SWAP1 POP PUSH1 0x0 DUP3 PUSH1 0x9 ADD DUP1 SLOAD PUSH2 0x2E0D SWAP1 PUSH2 0x5BCB JUMP JUMPDEST DUP1 PUSH1 0x1F ADD PUSH1 0x20 DUP1 SWAP2 DIV MUL PUSH1 0x20 ADD PUSH1 0x40 MLOAD SWAP1 DUP2 ADD PUSH1 0x40 MSTORE DUP1 SWAP3 SWAP2 SWAP1 DUP2 DUP2 MSTORE PUSH1 0x20 ADD DUP3 DUP1 SLOAD PUSH2 0x2E39 SWAP1 PUSH2 0x5BCB JUMP JUMPDEST DUP1 ISZERO PUSH2 0x2E86 JUMPI DUP1 PUSH1 0x1F LT PUSH2 0x2E5B JUMPI PUSH2 0x100 DUP1 DUP4 SLOAD DIV MUL DUP4 MSTORE SWAP2 PUSH1 0x20 ADD SWAP2 PUSH2 0x2E86 JUMP JUMPDEST DUP3 ADD SWAP2 SWAP1 PUSH1 0x0 MSTORE PUSH1 0x20 PUSH1 0x0 KECCAK256 SWAP1 JUMPDEST DUP2 SLOAD DUP2 MSTORE SWAP1 PUSH1 0x1 ADD SWAP1 PUSH1 0x20 ADD DUP1 DUP4 GT PUSH2 0x2E69 JUMPI DUP3 SWAP1 SUB PUSH1 0x1F AND DUP3 ADD SWAP2 JUMPDEST POP POP POP POP POP SWAP1 POP PUSH1 0x0 DUP4 PUSH1 0x8 ADD DUP1 SLOAD PUSH2 0x2E9E SWAP1 PUSH2 0x5BCB JUMP JUMPDEST DUP1 PUSH1 0x1F ADD PUSH1 0x20 DUP1 SWAP2 DIV MUL PUSH1 0x20 ADD PUSH1 0x40 MLOAD SWAP1 DUP2 ADD PUSH1 0x40 MSTORE DUP1 SWAP3 SWAP2 SWAP1 DUP2 DUP2 MSTORE PUSH1 0x20 ADD DUP3 DUP1 SLOAD PUSH2 0x2ECA SWAP1 PUSH2 0x5BCB JUMP JUMPDEST DUP1 ISZERO PUSH2 0x2F17 JUMPI DUP1 PUSH1 0x1F LT PUSH2 0x2EEC JUMPI PUSH2 0x100 DUP1 DUP4 SLOAD DIV MUL DUP4 MSTORE SWAP2 PUSH1 0x20 ADD SWAP2 PUSH2 0x2F17 JUMP JUMPDEST DUP3 ADD SWAP2 SWAP1 PUSH1 0x0 MSTORE PUSH1 0x20 PUSH1 0x0 KECCAK256 SWAP1 JUMPDEST DUP2 SLOAD DUP2 MSTORE SWAP1 PUSH1 0x1 ADD SWAP1 PUSH1 0x20 ADD DUP1 DUP4 GT PUSH2 0x2EFA JUMPI DUP3 SWAP1 SUB PUSH1 0x1F AND DUP3 ADD SWAP2 JUMPDEST POP POP POP POP POP SWAP1 POP PUSH1 0x0 PUSH2 0x2F2A DUP3 DUP6 PUSH2 0x4392 JUMP JUMPDEST SWAP1 POP DUP1 PUSH2 0x3741 JUMPI PUSH2 0x2F3B DUP3 DUP5 PUSH2 0x4176 JUMP JUMPDEST ISZERO PUSH2 0x33AB JUMPI PUSH2 0x300B DUP6 PUSH1 0x5 ADD DUP1 SLOAD PUSH2 0x2F52 SWAP1 PUSH2 0x5BCB JUMP JUMPDEST DUP1 PUSH1 0x1F ADD PUSH1 0x20 DUP1 SWAP2 DIV MUL PUSH1 0x20 ADD PUSH1 0x40 MLOAD SWAP1 DUP2 ADD PUSH1 0x40 MSTORE DUP1 SWAP3 SWAP2 SWAP1 DUP2 DUP2 MSTORE PUSH1 0x20 ADD DUP3 DUP1 SLOAD PUSH2 0x2F7E SWAP1 PUSH2 0x5BCB JUMP JUMPDEST DUP1 ISZERO PUSH2 0x2FCB JUMPI DUP1 PUSH1 0x1F LT PUSH2 0x2FA0 JUMPI PUSH2 0x100 DUP1 DUP4 SLOAD DIV MUL DUP4 MSTORE SWAP2 PUSH1 0x20 ADD SWAP2 PUSH2 0x2FCB JUMP JUMPDEST DUP3 ADD SWAP2 SWAP1 PUSH1 0x0 MSTORE PUSH1 0x20 PUSH1 0x0 KECCAK256 SWAP1 JUMPDEST DUP2 SLOAD DUP2 MSTORE SWAP1 PUSH1 0x1 ADD SWAP1 PUSH1 0x20 ADD DUP1 DUP4 GT PUSH2 0x2FAE JUMPI DUP3 SWAP1 SUB PUSH1 0x1F AND DUP3 ADD SWAP2 JUMPDEST POP POP POP POP POP PUSH1 0x40 MLOAD DUP1 PUSH1 0x40 ADD PUSH1 0x40 MSTORE DUP1 PUSH1 0x7 DUP2 MSTORE PUSH1 0x20 ADD PUSH32 0x4558504952454400000000000000000000000000000000000000000000000000 DUP2 MSTORE POP PUSH2 0x4176 JUMP JUMPDEST PUSH2 0x339D JUMPI PUSH1 0x40 MLOAD DUP1 PUSH1 0x40 ADD PUSH1 0x40 MSTORE DUP1 PUSH1 0x7 DUP2 MSTORE PUSH1 0x20 ADD PUSH32 0x4558504952454400000000000000000000000000000000000000000000000000 DUP2 MSTORE POP DUP6 PUSH1 0x5 ADD SWAP1 DUP1 MLOAD SWAP1 PUSH1 0x20 ADD SWAP1 PUSH2 0x305C SWAP3 SWAP2 SWAP1 PUSH2 0x4801 JUMP JUMPDEST POP PUSH1 0x0 JUMPDEST PUSH1 0x9 DUP1 SLOAD SWAP1 POP DUP2 LT ISZERO PUSH2 0x31DD JUMPI PUSH1 0x0 PUSH1 0xB PUSH1 0x0 PUSH1 0x9 DUP5 DUP2 SLOAD DUP2 LT PUSH2 0x30AD JUMPI PUSH32 0x4E487B7100000000000000000000000000000000000000000000000000000000 PUSH1 0x0 MSTORE PUSH1 0x32 PUSH1 0x4 MSTORE PUSH1 0x24 PUSH1 0x0 REVERT JUMPDEST SWAP1 PUSH1 0x0 MSTORE PUSH1 0x20 PUSH1 0x0 KECCAK256 ADD PUSH1 0x0 SWAP1 SLOAD SWAP1 PUSH2 0x100 EXP SWAP1 DIV PUSH20 0xFFFFFFFFFFFFFFFFFFFFFFFFFFFFFFFFFFFFFFFF AND PUSH20 0xFFFFFFFFFFFFFFFFFFFFFFFFFFFFFFFFFFFFFFFF AND PUSH20 0xFFFFFFFFFFFFFFFFFFFFFFFFFFFFFFFFFFFFFFFF AND DUP2 MSTORE PUSH1 0x20 ADD SWAP1 DUP2 MSTORE PUSH1 0x20 ADD PUSH1 0x0 KECCAK256 SWAP1 POP PUSH2 0x31AA DUP2 PUSH1 0x1 ADD DUP1 SLOAD PUSH2 0x3126 SWAP1 PUSH2 0x5BCB JUMP JUMPDEST DUP1 PUSH1 0x1F ADD PUSH1 0x20 DUP1 SWAP2 DIV MUL PUSH1 0x20 ADD PUSH1 0x40 MLOAD SWAP1 DUP2 ADD PUSH1 0x40 MSTORE DUP1 SWAP3 SWAP2 SWAP1 DUP2 DUP2 MSTORE PUSH1 0x20 ADD DUP3 DUP1 SLOAD PUSH2 0x3152 SWAP1 PUSH2 0x5BCB JUMP JUMPDEST DUP1 ISZERO PUSH2 0x319F JUMPI DUP1 PUSH1 0x1F LT PUSH2 0x3174 JUMPI PUSH2 0x100 DUP1 DUP4 SLOAD DIV MUL DUP4 MSTORE SWAP2 PUSH1 0x20 ADD SWAP2 PUSH2 0x319F JUMP JUMPDEST DUP3 ADD SWAP2 SWAP1 PUSH1 0x0 MSTORE PUSH1 0x20 PUSH1 0x0 KECCAK256 SWAP1 JUMPDEST DUP2 SLOAD DUP2 MSTORE SWAP1 PUSH1 0x1 ADD SWAP1 PUSH1 0x20 ADD DUP1 DUP4 GT PUSH2 0x3182 JUMPI DUP3 SWAP1 SUB PUSH1 0x1F AND DUP3 ADD SWAP2 JUMPDEST POP POP POP POP POP DUP6 PUSH2 0x4176 JUMP JUMPDEST ISZERO PUSH2 0x31C9 JUMPI PUSH1 0x1 DUP2 PUSH1 0x6 ADD SLOAD PUSH2 0x31C0 SWAP2 SWAP1 PUSH2 0x5A91 JUMP JUMPDEST DUP2 PUSH1 0x6 ADD DUP2 SWAP1 SSTORE POP JUMPDEST POP DUP1 DUP1 PUSH2 0x31D5 SWAP1 PUSH2 0x5C2E JUMP JUMPDEST SWAP2 POP POP PUSH2 0x3060 JUMP JUMPDEST POP PUSH1 0x0 PUSH1 0xD DUP9 PUSH1 0x40 MLOAD PUSH2 0x31F0 SWAP2 SWAP1 PUSH2 0x5445 JUMP JUMPDEST SWAP1 DUP2 MSTORE PUSH1 0x20 ADD PUSH1 0x40 MLOAD DUP1 SWAP2 SUB SWAP1 KECCAK256 SWAP1 POP PUSH1 0x40 MLOAD DUP1 PUSH1 0x40 ADD PUSH1 0x40 MSTORE DUP1 PUSH1 0x13 DUP2 MSTORE PUSH1 0x20 ADD PUSH32 0x5472616E73616374696F6E204578706972656400000000000000000000000000 DUP2 MSTORE POP DUP2 PUSH1 0x0 ADD SWAP1 DUP1 MLOAD SWAP1 PUSH1 0x20 ADD SWAP1 PUSH2 0x324D SWAP3 SWAP2 SWAP1 PUSH2 0x4801 JUMP JUMPDEST POP DUP8 PUSH1 0x40 MLOAD PUSH1 0x20 ADD PUSH2 0x325F SWAP2 SWAP1 PUSH2 0x5557 JUMP JUMPDEST PUSH1 0x40 MLOAD PUSH1 0x20 DUP2 DUP4 SUB SUB DUP2 MSTORE SWAP1 PUSH1 0x40 MSTORE DUP2 PUSH1 0x1 ADD SWAP1 DUP1 MLOAD SWAP1 PUSH1 0x20 ADD SWAP1 PUSH2 0x3285 SWAP3 SWAP2 SWAP1 PUSH2 0x4801 JUMP JUMPDEST POP DUP8 DUP2 PUSH1 0x2 ADD SWAP1 DUP1 MLOAD SWAP1 PUSH1 0x20 ADD SWAP1 PUSH2 0x329E SWAP3 SWAP2 SWAP1 PUSH2 0x4801 JUMP JUMPDEST POP PUSH1 0x40 MLOAD DUP1 PUSH1 0x40 ADD PUSH1 0x40 MSTORE DUP1 PUSH1 0x7 DUP2 MSTORE PUSH1 0x20 ADD PUSH32 0x4558504952454400000000000000000000000000000000000000000000000000 DUP2 MSTORE POP DUP2 PUSH1 0x3 ADD SWAP1 DUP1 MLOAD SWAP1 PUSH1 0x20 ADD SWAP1 PUSH2 0x32EC SWAP3 SWAP2 SWAP1 PUSH2 0x4801 JUMP JUMPDEST POP PUSH1 0x7 DUP2 SWAP1 DUP1 PUSH1 0x1 DUP2 SLOAD ADD DUP1 DUP3 SSTORE DUP1 SWAP2 POP POP PUSH1 0x1 SWAP1 SUB SWAP1 PUSH1 0x0 MSTORE PUSH1 0x20 PUSH1 0x0 KECCAK256 SWAP1 PUSH1 0x4 MUL ADD PUSH1 0x0 SWAP1 SWAP2 SWAP1 SWAP2 SWAP1 SWAP2 POP PUSH1 0x0 DUP3 ADD DUP2 PUSH1 0x0 ADD SWAP1 DUP1 SLOAD PUSH2 0x332D SWAP1 PUSH2 0x5BCB JUMP JUMPDEST PUSH2 0x3338 SWAP3 SWAP2 SWAP1 PUSH2 0x4774 JUMP JUMPDEST POP PUSH1 0x1 DUP3 ADD DUP2 PUSH1 0x1 ADD SWAP1 DUP1 SLOAD PUSH2 0x334D SWAP1 PUSH2 0x5BCB JUMP JUMPDEST PUSH2 0x3358 SWAP3 SWAP2 SWAP1 PUSH2 0x4774 JUMP JUMPDEST POP PUSH1 0x2 DUP3 ADD DUP2 PUSH1 0x2 ADD SWAP1 DUP1 SLOAD PUSH2 0x336D SWAP1 PUSH2 0x5BCB JUMP JUMPDEST PUSH2 0x3378 SWAP3 SWAP2 SWAP1 PUSH2 0x4774 JUMP JUMPDEST POP PUSH1 0x3 DUP3 ADD DUP2 PUSH1 0x3 ADD SWAP1 DUP1 SLOAD PUSH2 0x338D SWAP1 PUSH2 0x5BCB JUMP JUMPDEST PUSH2 0x3398 SWAP3 SWAP2 SWAP1 PUSH2 0x4774 JUMP JUMPDEST POP POP POP POP JUMPDEST PUSH1 0x0 SWAP6 POP POP POP POP POP POP PUSH2 0x374B JUMP JUMPDEST PUSH2 0x33B4 DUP3 PUSH2 0x41CF JUMP JUMPDEST DUP6 PUSH1 0x8 ADD SWAP1 DUP1 MLOAD SWAP1 PUSH1 0x20 ADD SWAP1 PUSH2 0x33CB SWAP3 SWAP2 SWAP1 PUSH2 0x4801 JUMP JUMPDEST POP PUSH1 0x0 JUMPDEST PUSH1 0x9 DUP1 SLOAD SWAP1 POP DUP2 LT ISZERO PUSH2 0x354C JUMPI PUSH1 0x0 PUSH1 0xB PUSH1 0x0 PUSH1 0x9 DUP5 DUP2 SLOAD DUP2 LT PUSH2 0x341C JUMPI PUSH32 0x4E487B7100000000000000000000000000000000000000000000000000000000 PUSH1 0x0 MSTORE PUSH1 0x32 PUSH1 0x4 MSTORE PUSH1 0x24 PUSH1 0x0 REVERT JUMPDEST SWAP1 PUSH1 0x0 MSTORE PUSH1 0x20 PUSH1 0x0 KECCAK256 ADD PUSH1 0x0 SWAP1 SLOAD SWAP1 PUSH2 0x100 EXP SWAP1 DIV PUSH20 0xFFFFFFFFFFFFFFFFFFFFFFFFFFFFFFFFFFFFFFFF AND PUSH20 0xFFFFFFFFFFFFFFFFFFFFFFFFFFFFFFFFFFFFFFFF AND PUSH20 0xFFFFFFFFFFFFFFFFFFFFFFFFFFFFFFFFFFFFFFFF AND DUP2 MSTORE PUSH1 0x20 ADD SWAP1 DUP2 MSTORE PUSH1 0x20 ADD PUSH1 0x0 KECCAK256 SWAP1 POP PUSH2 0x3519 DUP2 PUSH1 0x1 ADD DUP1 SLOAD PUSH2 0x3495 SWAP1 PUSH2 0x5BCB JUMP JUMPDEST DUP1 PUSH1 0x1F ADD PUSH1 0x20 DUP1 SWAP2 DIV MUL PUSH1 0x20 ADD PUSH1 0x40 MLOAD SWAP1 DUP2 ADD PUSH1 0x40 MSTORE DUP1 SWAP3 SWAP2 SWAP1 DUP2 DUP2 MSTORE PUSH1 0x20 ADD DUP3 DUP1 SLOAD PUSH2 0x34C1 SWAP1 PUSH2 0x5BCB JUMP JUMPDEST DUP1 ISZERO PUSH2 0x350E JUMPI DUP1 PUSH1 0x1F LT PUSH2 0x34E3 JUMPI PUSH2 0x100 DUP1 DUP4 SLOAD DIV MUL DUP4 MSTORE SWAP2 PUSH1 0x20 ADD SWAP2 PUSH2 0x350E JUMP JUMPDEST DUP3 ADD SWAP2 SWAP1 PUSH1 0x0 MSTORE PUSH1 0x20 PUSH1 0x0 KECCAK256 SWAP1 JUMPDEST DUP2 SLOAD DUP2 MSTORE SWAP1 PUSH1 0x1 ADD SWAP1 PUSH1 0x20 ADD DUP1 DUP4 GT PUSH2 0x34F1 JUMPI DUP3 SWAP1 SUB PUSH1 0x1F AND DUP3 ADD SWAP2 JUMPDEST POP POP POP POP POP DUP6 PUSH2 0x4176 JUMP JUMPDEST ISZERO PUSH2 0x3538 JUMPI PUSH1 0x1 DUP2 PUSH1 0x6 ADD SLOAD PUSH2 0x352F SWAP2 SWAP1 PUSH2 0x5A91 JUMP JUMPDEST DUP2 PUSH1 0x6 ADD DUP2 SWAP1 SSTORE POP JUMPDEST POP DUP1 DUP1 PUSH2 0x3544 SWAP1 PUSH2 0x5C2E JUMP JUMPDEST SWAP2 POP POP PUSH2 0x33CF JUMP JUMPDEST POP PUSH1 0x0 PUSH1 0xA DUP4 PUSH1 0x40 MLOAD PUSH2 0x355F SWAP2 SWAP1 PUSH2 0x5445 JUMP JUMPDEST SWAP1 DUP2 MSTORE PUSH1 0x20 ADD PUSH1 0x40 MLOAD DUP1 SWAP2 SUB SWAP1 KECCAK256 SWAP1 POP PUSH1 0x0 PUSH1 0xD DUP10 PUSH1 0x40 MLOAD PUSH2 0x3581 SWAP2 SWAP1 PUSH2 0x5445 JUMP JUMPDEST SWAP1 DUP2 MSTORE PUSH1 0x20 ADD PUSH1 0x40 MLOAD DUP1 SWAP2 SUB SWAP1 KECCAK256 SWAP1 POP PUSH1 0x40 MLOAD DUP1 PUSH1 0x40 ADD PUSH1 0x40 MSTORE DUP1 PUSH1 0x17 DUP2 MSTORE PUSH1 0x20 ADD PUSH32 0x5472616E73616374696F6E205472616E73666572726564000000000000000000 DUP2 MSTORE POP DUP2 PUSH1 0x0 ADD SWAP1 DUP1 MLOAD SWAP1 PUSH1 0x20 ADD SWAP1 PUSH2 0x35DE SWAP3 SWAP2 SWAP1 PUSH2 0x4801 JUMP JUMPDEST POP DUP9 DUP3 PUSH1 0x2 ADD PUSH1 0x40 MLOAD PUSH1 0x20 ADD PUSH2 0x35F5 SWAP3 SWAP2 SWAP1 PUSH2 0x5473 JUMP JUMPDEST PUSH1 0x40 MLOAD PUSH1 0x20 DUP2 DUP4 SUB SUB DUP2 MSTORE SWAP1 PUSH1 0x40 MSTORE DUP2 PUSH1 0x1 ADD SWAP1 DUP1 MLOAD SWAP1 PUSH1 0x20 ADD SWAP1 PUSH2 0x361B SWAP3 SWAP2 SWAP1 PUSH2 0x4801 JUMP JUMPDEST POP DUP9 DUP2 PUSH1 0x2 ADD SWAP1 DUP1 MLOAD SWAP1 PUSH1 0x20 ADD SWAP1 PUSH2 0x3634 SWAP3 SWAP2 SWAP1 PUSH2 0x4801 JUMP JUMPDEST POP PUSH1 0x40 MLOAD DUP1 PUSH1 0x40 ADD PUSH1 0x40 MSTORE DUP1 PUSH1 0x7 DUP2 MSTORE PUSH1 0x20 ADD PUSH32 0x50454E44494E4700000000000000000000000000000000000000000000000000 DUP2 MSTORE POP DUP2 PUSH1 0x3 ADD SWAP1 DUP1 MLOAD SWAP1 PUSH1 0x20 ADD SWAP1 PUSH2 0x3682 SWAP3 SWAP2 SWAP1 PUSH2 0x4801 JUMP JUMPDEST POP PUSH1 0x7 DUP2 SWAP1 DUP1 PUSH1 0x1 DUP2 SLOAD ADD DUP1 DUP3 SSTORE DUP1 SWAP2 POP POP PUSH1 0x1 SWAP1 SUB SWAP1 PUSH1 0x0 MSTORE PUSH1 0x20 PUSH1 0x0 KECCAK256 SWAP1 PUSH1 0x4 MUL ADD PUSH1 0x0 SWAP1 SWAP2 SWAP1 SWAP2 SWAP1 SWAP2 POP PUSH1 0x0 DUP3 ADD DUP2 PUSH1 0x0 ADD SWAP1 DUP1 SLOAD PUSH2 0x36C3 SWAP1 PUSH2 0x5BCB JUMP JUMPDEST PUSH2 0x36CE SWAP3 SWAP2 SWAP1 PUSH2 0x4774 JUMP JUMPDEST POP PUSH1 0x1 DUP3 ADD DUP2 PUSH1 0x1 ADD SWAP1 DUP1 SLOAD PUSH2 0x36E3 SWAP1 PUSH2 0x5BCB JUMP JUMPDEST PUSH2 0x36EE SWAP3 SWAP2 SWAP1 PUSH2 0x4774 JUMP JUMPDEST POP PUSH1 0x2 DUP3 ADD DUP2 PUSH1 0x2 ADD SWAP1 DUP1 SLOAD PUSH2 0x3703 SWAP1 PUSH2 0x5BCB JUMP JUMPDEST PUSH2 0x370E SWAP3 SWAP2 SWAP1 PUSH2 0x4774 JUMP JUMPDEST POP PUSH1 0x3 DUP3 ADD DUP2 PUSH1 0x3 ADD SWAP1 DUP1 SLOAD PUSH2 0x3723 SWAP1 PUSH2 0x5BCB JUMP JUMPDEST PUSH2 0x372E SWAP3 SWAP2 SWAP1 PUSH2 0x4774 JUMP JUMPDEST POP POP POP PUSH1 0x2 SWAP8 POP POP POP POP POP POP POP POP PUSH2 0x374B JUMP JUMPDEST PUSH1 0x1 SWAP6 POP POP POP POP POP POP JUMPDEST SWAP2 SWAP1 POP JUMP JUMPDEST PUSH1 0xB PUSH1 0x0 CALLER PUSH20 0xFFFFFFFFFFFFFFFFFFFFFFFFFFFFFFFFFFFFFFFF AND PUSH20 0xFFFFFFFFFFFFFFFFFFFFFFFFFFFFFFFFFFFFFFFF AND DUP2 MSTORE PUSH1 0x20 ADD SWAP1 DUP2 MSTORE PUSH1 0x20 ADD PUSH1 0x0 KECCAK256 PUSH1 0x2 ADD PUSH1 0x0 SWAP1 SLOAD SWAP1 PUSH2 0x100 EXP SWAP1 DIV PUSH20 0xFFFFFFFFFFFFFFFFFFFFFFFFFFFFFFFFFFFFFFFF AND PUSH20 0xFFFFFFFFFFFFFFFFFFFFFFFFFFFFFFFFFFFFFFFF AND CALLER PUSH20 0xFFFFFFFFFFFFFFFFFFFFFFFFFFFFFFFFFFFFFFFF AND EQ PUSH2 0x37EA JUMPI PUSH1 0x0 DUP1 REVERT JUMPDEST PUSH1 0x0 PUSH1 0xC DUP6 PUSH1 0x40 MLOAD PUSH2 0x37FC SWAP2 SWAP1 PUSH2 0x5445 JUMP JUMPDEST SWAP1 DUP2 MSTORE PUSH1 0x20 ADD PUSH1 0x40 MLOAD DUP1 SWAP2 SUB SWAP1 KECCAK256 SWAP1 POP DUP6 DUP2 PUSH1 0x0 ADD SWAP1 DUP1 MLOAD SWAP1 PUSH1 0x20 ADD SWAP1 PUSH2 0x3824 SWAP3 SWAP2 SWAP1 PUSH2 0x4801 JUMP JUMPDEST POP DUP5 DUP2 PUSH1 0x1 ADD SWAP1 DUP1 MLOAD SWAP1 PUSH1 0x20 ADD SWAP1 PUSH2 0x383D SWAP3 SWAP2 SWAP1 PUSH2 0x4801 JUMP JUMPDEST POP DUP4 DUP2 PUSH1 0x2 ADD SWAP1 DUP1 MLOAD SWAP1 PUSH1 0x20 ADD SWAP1 PUSH2 0x3856 SWAP3 SWAP2 SWAP1 PUSH2 0x4801 JUMP JUMPDEST POP DUP3 DUP2 PUSH1 0x3 ADD SWAP1 DUP1 MLOAD SWAP1 PUSH1 0x20 ADD SWAP1 PUSH2 0x386F SWAP3 SWAP2 SWAP1 PUSH2 0x4801 JUMP JUMPDEST POP PUSH1 0x3 PUSH1 0x0 DUP2 SLOAD DUP1 SWAP3 SWAP2 SWAP1 PUSH2 0x3883 SWAP1 PUSH2 0x5C2E JUMP JUMPDEST SWAP2 SWAP1 POP SSTORE DUP2 PUSH1 0x4 ADD DUP2 SWAP1 SSTORE POP PUSH1 0x40 MLOAD DUP1 PUSH1 0x40 ADD PUSH1 0x40 MSTORE DUP1 PUSH1 0x7 DUP2 MSTORE PUSH1 0x20 ADD PUSH32 0x50454E44494E4700000000000000000000000000000000000000000000000000 DUP2 MSTORE POP DUP2 PUSH1 0x5 ADD SWAP1 DUP1 MLOAD SWAP1 PUSH1 0x20 ADD SWAP1 PUSH2 0x38DC SWAP3 SWAP2 SWAP1 PUSH2 0x4801 JUMP JUMPDEST POP CALLER DUP2 PUSH1 0x6 ADD PUSH1 0x0 PUSH2 0x100 EXP DUP2 SLOAD DUP2 PUSH20 0xFFFFFFFFFFFFFFFFFFFFFFFFFFFFFFFFFFFFFFFF MUL NOT AND SWAP1 DUP4 PUSH20 0xFFFFFFFFFFFFFFFFFFFFFFFFFFFFFFFFFFFFFFFF AND MUL OR SWAP1 SSTORE POP DUP2 DUP2 PUSH1 0x7 ADD DUP2 SWAP1 SSTORE POP PUSH1 0x40 MLOAD DUP1 PUSH1 0x40 ADD PUSH1 0x40 MSTORE DUP1 PUSH1 0x3 DUP2 MSTORE PUSH1 0x20 ADD PUSH32 0x484F440000000000000000000000000000000000000000000000000000000000 DUP2 MSTORE POP DUP2 PUSH1 0x8 ADD SWAP1 DUP1 MLOAD SWAP1 PUSH1 0x20 ADD SWAP1 PUSH2 0x3976 SWAP3 SWAP2 SWAP1 PUSH2 0x4801 JUMP JUMPDEST POP PUSH1 0x0 PUSH2 0x3982 DUP4 PUSH2 0x45D2 JUMP JUMPDEST SWAP1 POP DUP1 DUP3 PUSH1 0x9 ADD SWAP1 DUP1 MLOAD SWAP1 PUSH1 0x20 ADD SWAP1 PUSH2 0x399C SWAP3 SWAP2 SWAP1 PUSH2 0x4801 JUMP JUMPDEST POP PUSH1 0x0 PUSH1 0xE DUP8 PUSH1 0x40 MLOAD PUSH2 0x39AF SWAP2 SWAP1 PUSH2 0x5445 JUMP JUMPDEST SWAP1 DUP2 MSTORE PUSH1 0x20 ADD PUSH1 0x40 MLOAD DUP1 SWAP2 SUB SWAP1 KECCAK256 SWAP1 POP DUP7 DUP2 PUSH1 0x0 ADD SWAP1 DUP1 MLOAD SWAP1 PUSH1 0x20 ADD SWAP1 PUSH2 0x39D7 SWAP3 SWAP2 SWAP1 PUSH2 0x4801 JUMP JUMPDEST POP PUSH1 0x0 PUSH1 0xB PUSH1 0x0 CALLER PUSH20 0xFFFFFFFFFFFFFFFFFFFFFFFFFFFFFFFFFFFFFFFF AND PUSH20 0xFFFFFFFFFFFFFFFFFFFFFFFFFFFFFFFFFFFFFFFF AND DUP2 MSTORE PUSH1 0x20 ADD SWAP1 DUP2 MSTORE PUSH1 0x20 ADD PUSH1 0x0 KECCAK256 SWAP1 POP DUP2 PUSH1 0x1 ADD DUP2 SWAP1 DUP1 PUSH1 0x1 DUP2 SLOAD ADD DUP1 DUP3 SSTORE DUP1 SWAP2 POP POP PUSH1 0x1 SWAP1 SUB SWAP1 PUSH1 0x0 MSTORE PUSH1 0x20 PUSH1 0x0 KECCAK256 SWAP1 PUSH1 0x7 MUL ADD PUSH1 0x0 SWAP1 SWAP2 SWAP1 SWAP2 SWAP1 SWAP2 POP PUSH1 0x0 DUP3 ADD DUP2 PUSH1 0x0 ADD SWAP1 DUP1 SLOAD PUSH2 0x3A5D SWAP1 PUSH2 0x5BCB JUMP JUMPDEST PUSH2 0x3A68 SWAP3 SWAP2 SWAP1 PUSH2 0x4774 JUMP JUMPDEST POP PUSH1 0x1 DUP3 ADD DUP2 PUSH1 0x1 ADD SWAP1 DUP1 SLOAD PUSH2 0x3A7D SWAP1 PUSH2 0x5BCB JUMP JUMPDEST PUSH2 0x3A88 SWAP3 SWAP2 SWAP1 PUSH2 0x4774 JUMP JUMPDEST POP PUSH1 0x2 DUP3 ADD PUSH1 0x0 SWAP1 SLOAD SWAP1 PUSH2 0x100 EXP SWAP1 DIV PUSH20 0xFFFFFFFFFFFFFFFFFFFFFFFFFFFFFFFFFFFFFFFF AND DUP2 PUSH1 0x2 ADD PUSH1 0x0 PUSH2 0x100 EXP DUP2 SLOAD DUP2 PUSH20 0xFFFFFFFFFFFFFFFFFFFFFFFFFFFFFFFFFFFFFFFF MUL NOT AND SWAP1 DUP4 PUSH20 0xFFFFFFFFFFFFFFFFFFFFFFFFFFFFFFFFFFFFFFFF AND MUL OR SWAP1 SSTORE POP PUSH1 0x3 DUP3 ADD SLOAD DUP2 PUSH1 0x3 ADD SSTORE PUSH1 0x4 DUP3 ADD SLOAD DUP2 PUSH1 0x4 ADD SSTORE PUSH1 0x5 DUP3 ADD SLOAD DUP2 PUSH1 0x5 ADD SSTORE PUSH1 0x6 DUP3 ADD SLOAD DUP2 PUSH1 0x6 ADD SSTORE POP POP TIMESTAMP DUP5 PUSH1 0xA ADD DUP2 SWAP1 SSTORE POP PUSH1 0x6 DUP5 SWAP1 DUP1 PUSH1 0x1 DUP2 SLOAD ADD DUP1 DUP3 SSTORE DUP1 SWAP2 POP POP PUSH1 0x1 SWAP1 SUB SWAP1 PUSH1 0x0 MSTORE PUSH1 0x20 PUSH1 0x0 KECCAK256 SWAP1 PUSH1 0xB MUL ADD PUSH1 0x0 SWAP1 SWAP2 SWAP1 SWAP2 SWAP1 SWAP2 POP PUSH1 0x0 DUP3 ADD DUP2 PUSH1 0x0 ADD SWAP1 DUP1 SLOAD PUSH2 0x3B63 SWAP1 PUSH2 0x5BCB JUMP JUMPDEST PUSH2 0x3B6E SWAP3 SWAP2 SWAP1 PUSH2 0x4774 JUMP JUMPDEST POP PUSH1 0x1 DUP3 ADD DUP2 PUSH1 0x1 ADD SWAP1 DUP1 SLOAD PUSH2 0x3B83 SWAP1 PUSH2 0x5BCB JUMP JUMPDEST PUSH2 0x3B8E SWAP3 SWAP2 SWAP1 PUSH2 0x4774 JUMP JUMPDEST POP PUSH1 0x2 DUP3 ADD DUP2 PUSH1 0x2 ADD SWAP1 DUP1 SLOAD PUSH2 0x3BA3 SWAP1 PUSH2 0x5BCB JUMP JUMPDEST PUSH2 0x3BAE SWAP3 SWAP2 SWAP1 PUSH2 0x4774 JUMP JUMPDEST POP PUSH1 0x3 DUP3 ADD DUP2 PUSH1 0x3 ADD SWAP1 DUP1 SLOAD PUSH2 0x3BC3 SWAP1 PUSH2 0x5BCB JUMP JUMPDEST PUSH2 0x3BCE SWAP3 SWAP2 SWAP1 PUSH2 0x4774 JUMP JUMPDEST POP PUSH1 0x4 DUP3 ADD SLOAD DUP2 PUSH1 0x4 ADD SSTORE PUSH1 0x5 DUP3 ADD DUP2 PUSH1 0x5 ADD SWAP1 DUP1 SLOAD PUSH2 0x3BED SWAP1 PUSH2 0x5BCB JUMP JUMPDEST PUSH2 0x3BF8 SWAP3 SWAP2 SWAP1 PUSH2 0x4774 JUMP JUMPDEST POP PUSH1 0x6 DUP3 ADD PUSH1 0x0 SWAP1 SLOAD SWAP1 PUSH2 0x100 EXP SWAP1 DIV PUSH20 0xFFFFFFFFFFFFFFFFFFFFFFFFFFFFFFFFFFFFFFFF AND DUP2 PUSH1 0x6 ADD PUSH1 0x0 PUSH2 0x100 EXP DUP2 SLOAD DUP2 PUSH20 0xFFFFFFFFFFFFFFFFFFFFFFFFFFFFFFFFFFFFFFFF MUL NOT AND SWAP1 DUP4 PUSH20 0xFFFFFFFFFFFFFFFFFFFFFFFFFFFFFFFFFFFFFFFF AND MUL OR SWAP1 SSTORE POP PUSH1 0x7 DUP3 ADD SLOAD DUP2 PUSH1 0x7 ADD SSTORE PUSH1 0x8 DUP3 ADD DUP2 PUSH1 0x8 ADD SWAP1 DUP1 SLOAD PUSH2 0x3C7E SWAP1 PUSH2 0x5BCB JUMP JUMPDEST PUSH2 0x3C89 SWAP3 SWAP2 SWAP1 PUSH2 0x4774 JUMP JUMPDEST POP PUSH1 0x9 DUP3 ADD DUP2 PUSH1 0x9 ADD SWAP1 DUP1 SLOAD PUSH2 0x3C9E SWAP1 PUSH2 0x5BCB JUMP JUMPDEST PUSH2 0x3CA9 SWAP3 SWAP2 SWAP1 PUSH2 0x4774 JUMP JUMPDEST POP PUSH1 0xA DUP3 ADD SLOAD DUP2 PUSH1 0xA ADD SSTORE POP POP PUSH1 0x0 PUSH1 0xD DUP10 PUSH1 0x40 MLOAD PUSH2 0x3CC8 SWAP2 SWAP1 PUSH2 0x5445 JUMP JUMPDEST SWAP1 DUP2 MSTORE PUSH1 0x20 ADD PUSH1 0x40 MLOAD DUP1 SWAP2 SUB SWAP1 KECCAK256 SWAP1 POP PUSH1 0x40 MLOAD DUP1 PUSH1 0x40 ADD PUSH1 0x40 MSTORE DUP1 PUSH1 0x13 DUP2 MSTORE PUSH1 0x20 ADD PUSH32 0x5472616E73616374696F6E204372656174656400000000000000000000000000 DUP2 MSTORE POP DUP2 PUSH1 0x0 ADD SWAP1 DUP1 MLOAD SWAP1 PUSH1 0x20 ADD SWAP1 PUSH2 0x3D25 SWAP3 SWAP2 SWAP1 PUSH2 0x4801 JUMP JUMPDEST POP DUP9 PUSH1 0x40 MLOAD PUSH1 0x20 ADD PUSH2 0x3D37 SWAP2 SWAP1 PUSH2 0x551F JUMP JUMPDEST PUSH1 0x40 MLOAD PUSH1 0x20 DUP2 DUP4 SUB SUB DUP2 MSTORE SWAP1 PUSH1 0x40 MSTORE DUP2 PUSH1 0x1 ADD SWAP1 DUP1 MLOAD SWAP1 PUSH1 0x20 ADD SWAP1 PUSH2 0x3D5D SWAP3 SWAP2 SWAP1 PUSH2 0x4801 JUMP JUMPDEST POP DUP9 DUP2 PUSH1 0x2 ADD SWAP1 DUP1 MLOAD SWAP1 PUSH1 0x20 ADD SWAP1 PUSH2 0x3D76 SWAP3 SWAP2 SWAP1 PUSH2 0x4801 JUMP JUMPDEST POP PUSH1 0x40 MLOAD DUP1 PUSH1 0x40 ADD PUSH1 0x40 MSTORE DUP1 PUSH1 0x6 DUP2 MSTORE PUSH1 0x20 ADD PUSH32 0x6372656174650000000000000000000000000000000000000000000000000000 DUP2 MSTORE POP DUP2 PUSH1 0x3 ADD SWAP1 DUP1 MLOAD SWAP1 PUSH1 0x20 ADD SWAP1 PUSH2 0x3DC4 SWAP3 SWAP2 SWAP1 PUSH2 0x4801 JUMP JUMPDEST POP PUSH1 0x7 DUP2 SWAP1 DUP1 PUSH1 0x1 DUP2 SLOAD ADD DUP1 DUP3 SSTORE DUP1 SWAP2 POP POP PUSH1 0x1 SWAP1 SUB SWAP1 PUSH1 0x0 MSTORE PUSH1 0x20 PUSH1 0x0 KECCAK256 SWAP1 PUSH1 0x4 MUL ADD PUSH1 0x0 SWAP1 SWAP2 SWAP1 SWAP2 SWAP1 SWAP2 POP PUSH1 0x0 DUP3 ADD DUP2 PUSH1 0x0 ADD SWAP1 DUP1 SLOAD PUSH2 0x3E05 SWAP1 PUSH2 0x5BCB JUMP JUMPDEST PUSH2 0x3E10 SWAP3 SWAP2 SWAP1 PUSH2 0x4774 JUMP JUMPDEST POP PUSH1 0x1 DUP3 ADD DUP2 PUSH1 0x1 ADD SWAP1 DUP1 SLOAD PUSH2 0x3E25 SWAP1 PUSH2 0x5BCB JUMP JUMPDEST PUSH2 0x3E30 SWAP3 SWAP2 SWAP1 PUSH2 0x4774 JUMP JUMPDEST POP PUSH1 0x2 DUP3 ADD DUP2 PUSH1 0x2 ADD SWAP1 DUP1 SLOAD PUSH2 0x3E45 SWAP1 PUSH2 0x5BCB JUMP JUMPDEST PUSH2 0x3E50 SWAP3 SWAP2 SWAP1 PUSH2 0x4774 JUMP JUMPDEST POP PUSH1 0x3 DUP3 ADD DUP2 PUSH1 0x3 ADD SWAP1 DUP1 SLOAD PUSH2 0x3E65 SWAP1 PUSH2 0x5BCB JUMP JUMPDEST PUSH2 0x3E70 SWAP3 SWAP2 SWAP1 PUSH2 0x4774 JUMP JUMPDEST POP POP POP POP POP POP POP POP POP POP POP POP POP JUMP JUMPDEST PUSH1 0x8 DUP2 DUP2 SLOAD DUP2 LT PUSH2 0x3E8F JUMPI PUSH1 0x0 DUP1 REVERT JUMPDEST SWAP1 PUSH1 0x0 MSTORE PUSH1 0x20 PUSH1 0x0 KECCAK256 SWAP1 PUSH1 0x5 MUL ADD PUSH1 0x0 SWAP2 POP SWAP1 POP DUP1 PUSH1 0x0 ADD SLOAD SWAP1 DUP1 PUSH1 0x1 ADD DUP1 SLOAD PUSH2 0x3EB8 SWAP1 PUSH2 0x5BCB JUMP JUMPDEST DUP1 PUSH1 0x1F ADD PUSH1 0x20 DUP1 SWAP2 DIV MUL PUSH1 0x20 ADD PUSH1 0x40 MLOAD SWAP1 DUP2 ADD PUSH1 0x40 MSTORE DUP1 SWAP3 SWAP2 SWAP1 DUP2 DUP2 MSTORE PUSH1 0x20 ADD DUP3 DUP1 SLOAD PUSH2 0x3EE4 SWAP1 PUSH2 0x5BCB JUMP JUMPDEST DUP1 ISZERO PUSH2 0x3F31 JUMPI DUP1 PUSH1 0x1F LT PUSH2 0x3F06 JUMPI PUSH2 0x100 DUP1 DUP4 SLOAD DIV MUL DUP4 MSTORE SWAP2 PUSH1 0x20 ADD SWAP2 PUSH2 0x3F31 JUMP JUMPDEST DUP3 ADD SWAP2 SWAP1 PUSH1 0x0 MSTORE PUSH1 0x20 PUSH1 0x0 KECCAK256 SWAP1 JUMPDEST DUP2 SLOAD DUP2 MSTORE SWAP1 PUSH1 0x1 ADD SWAP1 PUSH1 0x20 ADD DUP1 DUP4 GT PUSH2 0x3F14 JUMPI DUP3 SWAP1 SUB PUSH1 0x1F AND DUP3 ADD SWAP2 JUMPDEST POP POP POP POP POP SWAP1 DUP1 PUSH1 0x2 ADD DUP1 SLOAD PUSH2 0x3F46 SWAP1 PUSH2 0x5BCB JUMP JUMPDEST DUP1 PUSH1 0x1F ADD PUSH1 0x20 DUP1 SWAP2 DIV MUL PUSH1 0x20 ADD PUSH1 0x40 MLOAD SWAP1 DUP2 ADD PUSH1 0x40 MSTORE DUP1 SWAP3 SWAP2 SWAP1 DUP2 DUP2 MSTORE PUSH1 0x20 ADD DUP3 DUP1 SLOAD PUSH2 0x3F72 SWAP1 PUSH2 0x5BCB JUMP JUMPDEST DUP1 ISZERO PUSH2 0x3FBF JUMPI DUP1 PUSH1 0x1F LT PUSH2 0x3F94 JUMPI PUSH2 0x100 DUP1 DUP4 SLOAD DIV MUL DUP4 MSTORE SWAP2 PUSH1 0x20 ADD SWAP2 PUSH2 0x3FBF JUMP JUMPDEST DUP3 ADD SWAP2 SWAP1 PUSH1 0x0 MSTORE PUSH1 0x20 PUSH1 0x0 KECCAK256 SWAP1 JUMPDEST DUP2 SLOAD DUP2 MSTORE SWAP1 PUSH1 0x1 ADD SWAP1 PUSH1 0x20 ADD DUP1 DUP4 GT PUSH2 0x3FA2 JUMPI DUP3 SWAP1 SUB PUSH1 0x1F AND DUP3 ADD SWAP2 JUMPDEST POP POP POP POP POP SWAP1 DUP1 PUSH1 0x3 ADD SLOAD SWAP1 DUP1 PUSH1 0x4 ADD SLOAD SWAP1 POP DUP6 JUMP JUMPDEST PUSH1 0x60 PUSH1 0x8 DUP1 SLOAD DUP1 PUSH1 0x20 MUL PUSH1 0x20 ADD PUSH1 0x40 MLOAD SWAP1 DUP2 ADD PUSH1 0x40 MSTORE DUP1 SWAP3 SWAP2 SWAP1 DUP2 DUP2 MSTORE PUSH1 0x20 ADD PUSH1 0x0 SWAP1 JUMPDEST DUP3 DUP3 LT ISZERO PUSH2 0x416D JUMPI DUP4 DUP3 SWAP1 PUSH1 0x0 MSTORE PUSH1 0x20 PUSH1 0x0 KECCAK256 SWAP1 PUSH1 0x5 MUL ADD PUSH1 0x40 MLOAD DUP1 PUSH1 0xA0 ADD PUSH1 0x40 MSTORE SWAP1 DUP2 PUSH1 0x0 DUP3 ADD SLOAD DUP2 MSTORE PUSH1 0x20 ADD PUSH1 0x1 DUP3 ADD DUP1 SLOAD PUSH2 0x4036 SWAP1 PUSH2 0x5BCB JUMP JUMPDEST DUP1 PUSH1 0x1F ADD PUSH1 0x20 DUP1 SWAP2 DIV MUL PUSH1 0x20 ADD PUSH1 0x40 MLOAD SWAP1 DUP2 ADD PUSH1 0x40 MSTORE DUP1 SWAP3 SWAP2 SWAP1 DUP2 DUP2 MSTORE PUSH1 0x20 ADD DUP3 DUP1 SLOAD PUSH2 0x4062 SWAP1 PUSH2 0x5BCB JUMP JUMPDEST DUP1 ISZERO PUSH2 0x40AF JUMPI DUP1 PUSH1 0x1F LT PUSH2 0x4084 JUMPI PUSH2 0x100 DUP1 DUP4 SLOAD DIV MUL DUP4 MSTORE SWAP2 PUSH1 0x20 ADD SWAP2 PUSH2 0x40AF JUMP JUMPDEST DUP3 ADD SWAP2 SWAP1 PUSH1 0x0 MSTORE PUSH1 0x20 PUSH1 0x0 KECCAK256 SWAP1 JUMPDEST DUP2 SLOAD DUP2 MSTORE SWAP1 PUSH1 0x1 ADD SWAP1 PUSH1 0x20 ADD DUP1 DUP4 GT PUSH2 0x4092 JUMPI DUP3 SWAP1 SUB PUSH1 0x1F AND DUP3 ADD SWAP2 JUMPDEST POP POP POP POP POP DUP2 MSTORE PUSH1 0x20 ADD PUSH1 0x2 DUP3 ADD DUP1 SLOAD PUSH2 0x40C8 SWAP1 PUSH2 0x5BCB JUMP JUMPDEST DUP1 PUSH1 0x1F ADD PUSH1 0x20 DUP1 SWAP2 DIV MUL PUSH1 0x20 ADD PUSH1 0x40 MLOAD SWAP1 DUP2 ADD PUSH1 0x40 MSTORE DUP1 SWAP3 SWAP2 SWAP1 DUP2 DUP2 MSTORE PUSH1 0x20 ADD DUP3 DUP1 SLOAD PUSH2 0x40F4 SWAP1 PUSH2 0x5BCB JUMP JUMPDEST DUP1 ISZERO PUSH2 0x4141 JUMPI DUP1 PUSH1 0x1F LT PUSH2 0x4116 JUMPI PUSH2 0x100 DUP1 DUP4 SLOAD DIV MUL DUP4 MSTORE SWAP2 PUSH1 0x20 ADD SWAP2 PUSH2 0x4141 JUMP JUMPDEST DUP3 ADD SWAP2 SWAP1 PUSH1 0x0 MSTORE PUSH1 0x20 PUSH1 0x0 KECCAK256 SWAP1 JUMPDEST DUP2 SLOAD DUP2 MSTORE SWAP1 PUSH1 0x1 ADD SWAP1 PUSH1 0x20 ADD DUP1 DUP4 GT PUSH2 0x4124 JUMPI DUP3 SWAP1 SUB PUSH1 0x1F AND DUP3 ADD SWAP2 JUMPDEST POP POP POP POP POP DUP2 MSTORE PUSH1 0x20 ADD PUSH1 0x3 DUP3 ADD SLOAD DUP2 MSTORE PUSH1 0x20 ADD PUSH1 0x4 DUP3 ADD SLOAD DUP2 MSTORE POP POP DUP2 MSTORE PUSH1 0x20 ADD SWAP1 PUSH1 0x1 ADD SWAP1 PUSH2 0x3FF9 JUMP JUMPDEST POP POP POP POP SWAP1 POP SWAP1 JUMP JUMPDEST PUSH1 0x0 DUP2 PUSH1 0x40 MLOAD PUSH1 0x20 ADD PUSH2 0x4189 SWAP2 SWAP1 PUSH2 0x5445 JUMP JUMPDEST PUSH1 0x40 MLOAD PUSH1 0x20 DUP2 DUP4 SUB SUB DUP2 MSTORE SWAP1 PUSH1 0x40 MSTORE DUP1 MLOAD SWAP1 PUSH1 0x20 ADD KECCAK256 DUP4 PUSH1 0x40 MLOAD PUSH1 0x20 ADD PUSH2 0x41B0 SWAP2 SWAP1 PUSH2 0x5445 JUMP JUMPDEST PUSH1 0x40 MLOAD PUSH1 0x20 DUP2 DUP4 SUB SUB DUP2 MSTORE SWAP1 PUSH1 0x40 MSTORE DUP1 MLOAD SWAP1 PUSH1 0x20 ADD KECCAK256 EQ SWAP1 POP SWAP3 SWAP2 POP POP JUMP JUMPDEST PUSH1 0x60 PUSH2 0x4210 DUP3 PUSH1 0x40 MLOAD DUP1 PUSH1 0x40 ADD PUSH1 0x40 MSTORE DUP1 PUSH1 0x3 DUP2 MSTORE PUSH1 0x20 ADD PUSH32 0x484F440000000000000000000000000000000000000000000000000000000000 DUP2 MSTORE POP PUSH2 0x4176 JUMP JUMPDEST ISZERO PUSH2 0x4252 JUMPI PUSH1 0x40 MLOAD DUP1 PUSH1 0x40 ADD PUSH1 0x40 MSTORE DUP1 PUSH1 0x2 DUP2 MSTORE PUSH1 0x20 ADD PUSH32 0x464F000000000000000000000000000000000000000000000000000000000000 DUP2 MSTORE POP SWAP1 POP PUSH2 0x438D JUMP JUMPDEST PUSH2 0x4291 DUP3 PUSH1 0x40 MLOAD DUP1 PUSH1 0x40 ADD PUSH1 0x40 MSTORE DUP1 PUSH1 0x2 DUP2 MSTORE PUSH1 0x20 ADD PUSH32 0x464F000000000000000000000000000000000000000000000000000000000000 DUP2 MSTORE POP PUSH2 0x4176 JUMP JUMPDEST ISZERO PUSH2 0x42D3 JUMPI PUSH1 0x40 MLOAD DUP1 PUSH1 0x40 ADD PUSH1 0x40 MSTORE DUP1 PUSH1 0x3 DUP2 MSTORE PUSH1 0x20 ADD PUSH32 0x5245470000000000000000000000000000000000000000000000000000000000 DUP2 MSTORE POP SWAP1 POP PUSH2 0x438D JUMP JUMPDEST PUSH2 0x4312 DUP3 PUSH1 0x40 MLOAD DUP1 PUSH1 0x40 ADD PUSH1 0x40 MSTORE DUP1 PUSH1 0x3 DUP2 MSTORE PUSH1 0x20 ADD PUSH32 0x5245470000000000000000000000000000000000000000000000000000000000 DUP2 MSTORE POP PUSH2 0x4176 JUMP JUMPDEST ISZERO PUSH2 0x4354 JUMPI PUSH1 0x40 MLOAD DUP1 PUSH1 0x40 ADD PUSH1 0x40 MSTORE DUP1 PUSH1 0x2 DUP2 MSTORE PUSH1 0x20 ADD PUSH32 0x5643000000000000000000000000000000000000000000000000000000000000 DUP2 MSTORE POP SWAP1 POP PUSH2 0x438D JUMP JUMPDEST PUSH1 0x40 MLOAD DUP1 PUSH1 0x40 ADD PUSH1 0x40 MSTORE DUP1 PUSH1 0x2 DUP2 MSTORE PUSH1 0x20 ADD PUSH32 0x4343000000000000000000000000000000000000000000000000000000000000 DUP2 MSTORE POP SWAP1 POP JUMPDEST SWAP2 SWAP1 POP JUMP JUMPDEST PUSH1 0x0 DUP1 TIMESTAMP SWAP1 POP PUSH2 0x43D7 DUP5 PUSH1 0x40 MLOAD DUP1 PUSH1 0x40 ADD PUSH1 0x40 MSTORE DUP1 PUSH1 0x3 DUP2 MSTORE PUSH1 0x20 ADD PUSH32 0x484F440000000000000000000000000000000000000000000000000000000000 DUP2 MSTORE POP PUSH2 0x4176 JUMP JUMPDEST DUP1 ISZERO PUSH2 0x43EF JUMPI POP DUP1 PUSH1 0x5 SLOAD DUP5 PUSH2 0x43ED SWAP2 SWAP1 PUSH2 0x5A91 JUMP JUMPDEST GT JUMPDEST ISZERO PUSH2 0x43FE JUMPI PUSH1 0x1 SWAP2 POP POP PUSH2 0x45CC JUMP JUMPDEST PUSH2 0x443D DUP5 PUSH1 0x40 MLOAD DUP1 PUSH1 0x40 ADD PUSH1 0x40 MSTORE DUP1 PUSH1 0x2 DUP2 MSTORE PUSH1 0x20 ADD PUSH32 0x464F000000000000000000000000000000000000000000000000000000000000 DUP2 MSTORE POP PUSH2 0x4176 JUMP JUMPDEST DUP1 ISZERO PUSH2 0x4461 JUMPI POP DUP1 PUSH1 0x5 SLOAD PUSH1 0x3 PUSH2 0x4454 SWAP2 SWAP1 PUSH2 0x5AE7 JUMP JUMPDEST DUP5 PUSH2 0x445F SWAP2 SWAP1 PUSH2 0x5A91 JUMP JUMPDEST GT JUMPDEST ISZERO PUSH2 0x4470 JUMPI PUSH1 0x1 SWAP2 POP POP PUSH2 0x45CC JUMP JUMPDEST PUSH2 0x44AF DUP5 PUSH1 0x40 MLOAD DUP1 PUSH1 0x40 ADD PUSH1 0x40 MSTORE DUP1 PUSH1 0x3 DUP2 MSTORE PUSH1 0x20 ADD PUSH32 0x5245470000000000000000000000000000000000000000000000000000000000 DUP2 MSTORE POP PUSH2 0x4176 JUMP JUMPDEST DUP1 ISZERO PUSH2 0x44D3 JUMPI POP DUP1 PUSH1 0x5 SLOAD PUSH1 0x5 PUSH2 0x44C6 SWAP2 SWAP1 PUSH2 0x5AE7 JUMP JUMPDEST DUP5 PUSH2 0x44D1 SWAP2 SWAP1 PUSH2 0x5A91 JUMP JUMPDEST GT JUMPDEST ISZERO PUSH2 0x44E2 JUMPI PUSH1 0x1 SWAP2 POP POP PUSH2 0x45CC JUMP JUMPDEST PUSH2 0x4521 DUP5 PUSH1 0x40 MLOAD DUP1 PUSH1 0x40 ADD PUSH1 0x40 MSTORE DUP1 PUSH1 0x2 DUP2 MSTORE PUSH1 0x20 ADD PUSH32 0x5643000000000000000000000000000000000000000000000000000000000000 DUP2 MSTORE POP PUSH2 0x4176 JUMP JUMPDEST DUP1 ISZERO PUSH2 0x4545 JUMPI POP DUP1 PUSH1 0x5 SLOAD PUSH1 0x7 PUSH2 0x4538 SWAP2 SWAP1 PUSH2 0x5AE7 JUMP JUMPDEST DUP5 PUSH2 0x4543 SWAP2 SWAP1 PUSH2 0x5A91 JUMP JUMPDEST GT JUMPDEST ISZERO PUSH2 0x4554 JUMPI PUSH1 0x1 SWAP2 POP POP PUSH2 0x45CC JUMP JUMPDEST PUSH2 0x4593 DUP5 PUSH1 0x40 MLOAD DUP1 PUSH1 0x40 ADD PUSH1 0x40 MSTORE DUP1 PUSH1 0x2 DUP2 MSTORE PUSH1 0x20 ADD PUSH32 0x4343000000000000000000000000000000000000000000000000000000000000 DUP2 MSTORE POP PUSH2 0x4176 JUMP JUMPDEST DUP1 ISZERO PUSH2 0x45B7 JUMPI POP DUP1 PUSH1 0x5 SLOAD PUSH1 0xA PUSH2 0x45AA SWAP2 SWAP1 PUSH2 0x5AE7 JUMP JUMPDEST DUP5 PUSH2 0x45B5 SWAP2 SWAP1 PUSH2 0x5A91 JUMP JUMPDEST GT JUMPDEST ISZERO PUSH2 0x45C6 JUMPI PUSH1 0x1 SWAP2 POP POP PUSH2 0x45CC JUMP JUMPDEST PUSH1 0x0 SWAP2 POP POP JUMPDEST SWAP3 SWAP2 POP POP JUMP JUMPDEST PUSH1 0x60 PUSH2 0x1388 DUP3 GT PUSH2 0x461A JUMPI PUSH1 0x40 MLOAD DUP1 PUSH1 0x40 ADD PUSH1 0x40 MSTORE DUP1 PUSH1 0x3 DUP2 MSTORE PUSH1 0x20 ADD PUSH32 0x484F440000000000000000000000000000000000000000000000000000000000 DUP2 MSTORE POP SWAP1 POP PUSH2 0x4755 JUMP JUMPDEST PUSH2 0x1388 DUP3 GT DUP1 ISZERO PUSH2 0x462D JUMPI POP PUSH2 0x2710 DUP3 GT ISZERO JUMPDEST ISZERO PUSH2 0x466F JUMPI PUSH1 0x40 MLOAD DUP1 PUSH1 0x40 ADD PUSH1 0x40 MSTORE DUP1 PUSH1 0x2 DUP2 MSTORE PUSH1 0x20 ADD PUSH32 0x464F000000000000000000000000000000000000000000000000000000000000 DUP2 MSTORE POP SWAP1 POP PUSH2 0x4755 JUMP JUMPDEST PUSH2 0x2710 DUP3 GT DUP1 ISZERO PUSH2 0x4683 JUMPI POP PUSH3 0x124F8 DUP3 GT ISZERO JUMPDEST ISZERO PUSH2 0x46C5 JUMPI PUSH1 0x40 MLOAD DUP1 PUSH1 0x40 ADD PUSH1 0x40 MSTORE DUP1 PUSH1 0x3 DUP2 MSTORE PUSH1 0x20 ADD PUSH32 0x5245470000000000000000000000000000000000000000000000000000000000 DUP2 MSTORE POP SWAP1 POP PUSH2 0x4755 JUMP JUMPDEST PUSH3 0x124F8 DUP3 GT DUP1 ISZERO PUSH2 0x46DA JUMPI POP PUSH3 0x493E0 DUP3 GT ISZERO JUMPDEST ISZERO PUSH2 0x471C JUMPI PUSH1 0x40 MLOAD DUP1 PUSH1 0x40 ADD PUSH1 0x40 MSTORE DUP1 PUSH1 0x2 DUP2 MSTORE PUSH1 0x20 ADD PUSH32 0x5643000000000000000000000000000000000000000000000000000000000000 DUP2 MSTORE POP SWAP1 POP PUSH2 0x4755 JUMP JUMPDEST PUSH1 0x40 MLOAD DUP1 PUSH1 0x40 ADD PUSH1 0x40 MSTORE DUP1 PUSH1 0x2 DUP2 MSTORE PUSH1 0x20 ADD PUSH32 0x4343000000000000000000000000000000000000000000000000000000000000 DUP2 MSTORE POP SWAP1 POP JUMPDEST SWAP2 SWAP1 POP JUMP JUMPDEST PUSH1 0x40 MLOAD DUP1 PUSH1 0x40 ADD PUSH1 0x40 MSTORE DUP1 PUSH1 0x60 DUP2 MSTORE PUSH1 0x20 ADD PUSH1 0x60 DUP2 MSTORE POP SWAP1 JUMP JUMPDEST DUP3 DUP1 SLOAD PUSH2 0x4780 SWAP1 PUSH2 0x5BCB JUMP JUMPDEST SWAP1 PUSH1 0x0 MSTORE PUSH1 0x20 PUSH1 0x0 KECCAK256 SWAP1 PUSH1 0x1F ADD PUSH1 0x20 SWAP1 DIV DUP2 ADD SWAP3 DUP3 PUSH2 0x47A2 JUMPI PUSH1 0x0 DUP6 SSTORE PUSH2 0x47F0 JUMP JUMPDEST DUP3 PUSH1 0x1F LT PUSH2 0x47B3 JUMPI DUP1 SLOAD DUP6 SSTORE PUSH2 0x47F0 JUMP JUMPDEST DUP3 DUP1 ADD PUSH1 0x1 ADD DUP6 SSTORE DUP3 ISZERO PUSH2 0x47F0 JUMPI PUSH1 0x0 MSTORE PUSH1 0x20 PUSH1 0x0 KECCAK256 SWAP2 PUSH1 0x1F ADD PUSH1 0x20 SWAP1 DIV DUP3 ADD JUMPDEST DUP3 DUP2 GT ISZERO PUSH2 0x47EF JUMPI DUP3 SLOAD DUP3 SSTORE SWAP2 PUSH1 0x1 ADD SWAP2 SWAP1 PUSH1 0x1 ADD SWAP1 PUSH2 0x47D4 JUMP JUMPDEST JUMPDEST POP SWAP1 POP PUSH2 0x47FD SWAP2 SWAP1 PUSH2 0x4887 JUMP JUMPDEST POP SWAP1 JUMP JUMPDEST DUP3 DUP1 SLOAD PUSH2 0x480D SWAP1 PUSH2 0x5BCB JUMP JUMPDEST SWAP1 PUSH1 0x0 MSTORE PUSH1 0x20 PUSH1 0x0 KECCAK256 SWAP1 PUSH1 0x1F ADD PUSH1 0x20 SWAP1 DIV DUP2 ADD SWAP3 DUP3 PUSH2 0x482F JUMPI PUSH1 0x0 DUP6 SSTORE PUSH2 0x4876 JUMP JUMPDEST DUP3 PUSH1 0x1F LT PUSH2 0x4848 JUMPI DUP1 MLOAD PUSH1 0xFF NOT AND DUP4 DUP1 ADD OR DUP6 SSTORE PUSH2 0x4876 JUMP JUMPDEST DUP3 DUP1 ADD PUSH1 0x1 ADD DUP6 SSTORE DUP3 ISZERO PUSH2 0x4876 JUMPI SWAP2 DUP3 ADD JUMPDEST DUP3 DUP2 GT ISZERO PUSH2 0x4875 JUMPI DUP3 MLOAD DUP3 SSTORE SWAP2 PUSH1 0x20 ADD SWAP2 SWAP1 PUSH1 0x1 ADD SWAP1 PUSH2 0x485A JUMP JUMPDEST JUMPDEST POP SWAP1 POP PUSH2 0x4883 SWAP2 SWAP1 PUSH2 0x4887 JUMP JUMPDEST POP SWAP1 JUMP JUMPDEST JUMPDEST DUP1 DUP3 GT ISZERO PUSH2 0x48A0 JUMPI PUSH1 0x0 DUP2 PUSH1 0x0 SWAP1 SSTORE POP PUSH1 0x1 ADD PUSH2 0x4888 JUMP JUMPDEST POP SWAP1 JUMP JUMPDEST PUSH1 0x0 PUSH2 0x48B7 PUSH2 0x48B2 DUP5 PUSH2 0x58E1 JUMP JUMPDEST PUSH2 0x58BC JUMP JUMPDEST SWAP1 POP DUP3 DUP2 MSTORE PUSH1 0x20 DUP2 ADD DUP5 DUP5 DUP5 ADD GT ISZERO PUSH2 0x48CF JUMPI PUSH1 0x0 DUP1 REVERT JUMPDEST PUSH2 0x48DA DUP5 DUP3 DUP6 PUSH2 0x5B89 JUMP JUMPDEST POP SWAP4 SWAP3 POP POP POP JUMP JUMPDEST PUSH1 0x0 DUP2 CALLDATALOAD SWAP1 POP PUSH2 0x48F1 DUP2 PUSH2 0x5ECF JUMP JUMPDEST SWAP3 SWAP2 POP POP JUMP JUMPDEST PUSH1 0x0 DUP3 PUSH1 0x1F DUP4 ADD SLT PUSH2 0x4908 JUMPI PUSH1 0x0 DUP1 REVERT JUMPDEST DUP2 CALLDATALOAD PUSH2 0x4918 DUP5 DUP3 PUSH1 0x20 DUP7 ADD PUSH2 0x48A4 JUMP JUMPDEST SWAP2 POP POP SWAP3 SWAP2 POP POP JUMP JUMPDEST PUSH1 0x0 DUP2 CALLDATALOAD SWAP1 POP PUSH2 0x4930 DUP2 PUSH2 0x5EE6 JUMP JUMPDEST SWAP3 SWAP2 POP POP JUMP JUMPDEST PUSH1 0x0 PUSH1 0x20 DUP3 DUP5 SUB SLT ISZERO PUSH2 0x4948 JUMPI PUSH1 0x0 DUP1 REVERT JUMPDEST PUSH1 0x0 PUSH2 0x4956 DUP5 DUP3 DUP6 ADD PUSH2 0x48E2 JUMP JUMPDEST SWAP2 POP POP SWAP3 SWAP2 POP POP JUMP JUMPDEST PUSH1 0x0 PUSH1 0x20 DUP3 DUP5 SUB SLT ISZERO PUSH2 0x4971 JUMPI PUSH1 0x0 DUP1 REVERT JUMPDEST PUSH1 0x0 DUP3 ADD CALLDATALOAD PUSH8 0xFFFFFFFFFFFFFFFF DUP2 GT ISZERO PUSH2 0x498B JUMPI PUSH1 0x0 DUP1 REVERT JUMPDEST PUSH2 0x4997 DUP5 DUP3 DUP6 ADD PUSH2 0x48F7 JUMP JUMPDEST SWAP2 POP POP SWAP3 SWAP2 POP POP JUMP JUMPDEST PUSH1 0x0 DUP1 PUSH1 0x0 PUSH1 0x60 DUP5 DUP7 SUB SLT ISZERO PUSH2 0x49B5 JUMPI PUSH1 0x0 DUP1 REVERT JUMPDEST PUSH1 0x0 DUP5 ADD CALLDATALOAD PUSH8 0xFFFFFFFFFFFFFFFF DUP2 GT ISZERO PUSH2 0x49CF JUMPI PUSH1 0x0 DUP1 REVERT JUMPDEST PUSH2 0x49DB DUP7 DUP3 DUP8 ADD PUSH2 0x48F7 JUMP JUMPDEST SWAP4 POP POP PUSH1 0x20 PUSH2 0x49EC DUP7 DUP3 DUP8 ADD PUSH2 0x48E2 JUMP JUMPDEST SWAP3 POP POP PUSH1 0x40 DUP5 ADD CALLDATALOAD PUSH8 0xFFFFFFFFFFFFFFFF DUP2 GT ISZERO PUSH2 0x4A09 JUMPI PUSH1 0x0 DUP1 REVERT JUMPDEST PUSH2 0x4A15 DUP7 DUP3 DUP8 ADD PUSH2 0x48F7 JUMP JUMPDEST SWAP2 POP POP SWAP3 POP SWAP3 POP SWAP3 JUMP JUMPDEST PUSH1 0x0 DUP1 PUSH1 0x0 DUP1 PUSH1 0x0 PUSH1 0xA0 DUP7 DUP9 SUB SLT ISZERO PUSH2 0x4A37 JUMPI PUSH1 0x0 DUP1 REVERT JUMPDEST PUSH1 0x0 DUP7 ADD CALLDATALOAD PUSH8 0xFFFFFFFFFFFFFFFF DUP2 GT ISZERO PUSH2 0x4A51 JUMPI PUSH1 0x0 DUP1 REVERT JUMPDEST PUSH2 0x4A5D DUP9 DUP3 DUP10 ADD PUSH2 0x48F7 JUMP JUMPDEST SWAP6 POP POP PUSH1 0x20 DUP7 ADD CALLDATALOAD PUSH8 0xFFFFFFFFFFFFFFFF DUP2 GT ISZERO PUSH2 0x4A7A JUMPI PUSH1 0x0 DUP1 REVERT JUMPDEST PUSH2 0x4A86 DUP9 DUP3 DUP10 ADD PUSH2 0x48F7 JUMP JUMPDEST SWAP5 POP POP PUSH1 0x40 DUP7 ADD CALLDATALOAD PUSH8 0xFFFFFFFFFFFFFFFF DUP2 GT ISZERO PUSH2 0x4AA3 JUMPI PUSH1 0x0 DUP1 REVERT JUMPDEST PUSH2 0x4AAF DUP9 DUP3 DUP10 ADD PUSH2 0x48F7 JUMP JUMPDEST SWAP4 POP POP PUSH1 0x60 DUP7 ADD CALLDATALOAD PUSH8 0xFFFFFFFFFFFFFFFF DUP2 GT ISZERO PUSH2 0x4ACC JUMPI PUSH1 0x0 DUP1 REVERT JUMPDEST PUSH2 0x4AD8 DUP9 DUP3 DUP10 ADD PUSH2 0x48F7 JUMP JUMPDEST SWAP3 POP POP PUSH1 0x80 PUSH2 0x4AE9 DUP9 DUP3 DUP10 ADD PUSH2 0x4921 JUMP JUMPDEST SWAP2 POP POP SWAP3 SWAP6 POP SWAP3 SWAP6 SWAP1 SWAP4 POP JUMP JUMPDEST PUSH1 0x0 DUP1 PUSH1 0x0 DUP1 PUSH1 0x80 DUP6 DUP8 SUB SLT ISZERO PUSH2 0x4B0C JUMPI PUSH1 0x0 DUP1 REVERT JUMPDEST PUSH1 0x0 DUP6 ADD CALLDATALOAD PUSH8 0xFFFFFFFFFFFFFFFF DUP2 GT ISZERO PUSH2 0x4B26 JUMPI PUSH1 0x0 DUP1 REVERT JUMPDEST PUSH2 0x4B32 DUP8 DUP3 DUP9 ADD PUSH2 0x48F7 JUMP JUMPDEST SWAP5 POP POP PUSH1 0x20 DUP6 ADD CALLDATALOAD PUSH8 0xFFFFFFFFFFFFFFFF DUP2 GT ISZERO PUSH2 0x4B4F JUMPI PUSH1 0x0 DUP1 REVERT JUMPDEST PUSH2 0x4B5B DUP8 DUP3 DUP9 ADD PUSH2 0x48F7 JUMP JUMPDEST SWAP4 POP POP PUSH1 0x40 PUSH2 0x4B6C DUP8 DUP3 DUP9 ADD PUSH2 0x4921 JUMP JUMPDEST SWAP3 POP POP PUSH1 0x60 PUSH2 0x4B7D DUP8 DUP3 DUP9 ADD PUSH2 0x4921 JUMP JUMPDEST SWAP2 POP POP SWAP3 SWAP6 SWAP2 SWAP5 POP SWAP3 POP JUMP JUMPDEST PUSH1 0x0 PUSH1 0x20 DUP3 DUP5 SUB SLT ISZERO PUSH2 0x4B9B JUMPI PUSH1 0x0 DUP1 REVERT JUMPDEST PUSH1 0x0 PUSH2 0x4BA9 DUP5 DUP3 DUP6 ADD PUSH2 0x4921 JUMP JUMPDEST SWAP2 POP POP SWAP3 SWAP2 POP POP JUMP JUMPDEST PUSH1 0x0 PUSH2 0x4BBE DUP4 DUP4 PUSH2 0x4C1A JUMP JUMPDEST PUSH1 0x20 DUP4 ADD SWAP1 POP SWAP3 SWAP2 POP POP JUMP JUMPDEST PUSH1 0x0 PUSH2 0x4BD6 DUP4 DUP4 PUSH2 0x5176 JUMP JUMPDEST SWAP1 POP SWAP3 SWAP2 POP POP JUMP JUMPDEST PUSH1 0x0 PUSH2 0x4BEA DUP4 DUP4 PUSH2 0x51EE JUMP JUMPDEST SWAP1 POP SWAP3 SWAP2 POP POP JUMP JUMPDEST PUSH1 0x0 PUSH2 0x4BFE DUP4 DUP4 PUSH2 0x526B JUMP JUMPDEST SWAP1 POP SWAP3 SWAP2 POP POP JUMP JUMPDEST PUSH1 0x0 PUSH2 0x4C12 DUP4 DUP4 PUSH2 0x5384 JUMP JUMPDEST SWAP1 POP SWAP3 SWAP2 POP POP JUMP JUMPDEST PUSH2 0x4C23 DUP2 PUSH2 0x5B41 JUMP JUMPDEST DUP3 MSTORE POP POP JUMP JUMPDEST PUSH2 0x4C32 DUP2 PUSH2 0x5B41 JUMP JUMPDEST DUP3 MSTORE POP POP JUMP JUMPDEST PUSH1 0x0 PUSH2 0x4C43 DUP3 PUSH2 0x598C JUMP JUMPDEST PUSH2 0x4C4D DUP2 DUP6 PUSH2 0x5A0F JUMP JUMPDEST SWAP4 POP PUSH2 0x4C58 DUP4 PUSH2 0x5912 JUMP JUMPDEST DUP1 PUSH1 0x0 JUMPDEST DUP4 DUP2 LT ISZERO PUSH2 0x4C89 JUMPI DUP2 MLOAD PUSH2 0x4C70 DUP9 DUP3 PUSH2 0x4BB2 JUMP JUMPDEST SWAP8 POP PUSH2 0x4C7B DUP4 PUSH2 0x59CE JUMP JUMPDEST SWAP3 POP POP PUSH1 0x1 DUP2 ADD SWAP1 POP PUSH2 0x4C5C JUMP JUMPDEST POP DUP6 SWAP4 POP POP POP POP SWAP3 SWAP2 POP POP JUMP JUMPDEST PUSH1 0x0 PUSH2 0x4CA1 DUP3 PUSH2 0x5997 JUMP JUMPDEST PUSH2 0x4CAB DUP2 DUP6 PUSH2 0x5A20 JUMP JUMPDEST SWAP4 POP DUP4 PUSH1 0x20 DUP3 MUL DUP6 ADD PUSH2 0x4CBD DUP6 PUSH2 0x5922 JUMP JUMPDEST DUP1 PUSH1 0x0 JUMPDEST DUP6 DUP2 LT ISZERO PUSH2 0x4CF9 JUMPI DUP5 DUP5 SUB DUP10 MSTORE DUP2 MLOAD PUSH2 0x4CDA DUP6 DUP3 PUSH2 0x4BCA JUMP JUMPDEST SWAP5 POP PUSH2 0x4CE5 DUP4 PUSH2 0x59DB JUMP JUMPDEST SWAP3 POP PUSH1 0x20 DUP11 ADD SWAP10 POP POP PUSH1 0x1 DUP2 ADD SWAP1 POP PUSH2 0x4CC1 JUMP JUMPDEST POP DUP3 SWAP8 POP DUP8 SWAP6 POP POP POP POP POP POP SWAP3 SWAP2 POP POP JUMP JUMPDEST PUSH1 0x0 PUSH2 0x4D16 DUP3 PUSH2 0x59A2 JUMP JUMPDEST PUSH2 0x4D20 DUP2 DUP6 PUSH2 0x5A31 JUMP JUMPDEST SWAP4 POP DUP4 PUSH1 0x20 DUP3 MUL DUP6 ADD PUSH2 0x4D32 DUP6 PUSH2 0x5932 JUMP JUMPDEST DUP1 PUSH1 0x0 JUMPDEST DUP6 DUP2 LT ISZERO PUSH2 0x4D6E JUMPI DUP5 DUP5 SUB DUP10 MSTORE DUP2 MLOAD PUSH2 0x4D4F DUP6 DUP3 PUSH2 0x4BDE JUMP JUMPDEST SWAP5 POP PUSH2 0x4D5A DUP4 PUSH2 0x59E8 JUMP JUMPDEST SWAP3 POP PUSH1 0x20 DUP11 ADD SWAP10 POP POP PUSH1 0x1 DUP2 ADD SWAP1 POP PUSH2 0x4D36 JUMP JUMPDEST POP DUP3 SWAP8 POP DUP8 SWAP6 POP POP POP POP POP POP SWAP3 SWAP2 POP POP JUMP JUMPDEST PUSH1 0x0 PUSH2 0x4D8B DUP3 PUSH2 0x59AD JUMP JUMPDEST PUSH2 0x4D95 DUP2 DUP6 PUSH2 0x5A42 JUMP JUMPDEST SWAP4 POP DUP4 PUSH1 0x20 DUP3 MUL DUP6 ADD PUSH2 0x4DA7 DUP6 PUSH2 0x5942 JUMP JUMPDEST DUP1 PUSH1 0x0 JUMPDEST DUP6 DUP2 LT ISZERO PUSH2 0x4DE3 JUMPI DUP5 DUP5 SUB DUP10 MSTORE DUP2 MLOAD PUSH2 0x4DC4 DUP6 DUP3 PUSH2 0x4BF2 JUMP JUMPDEST SWAP5 POP PUSH2 0x4DCF DUP4 PUSH2 0x59F5 JUMP JUMPDEST SWAP3 POP PUSH1 0x20 DUP11 ADD SWAP10 POP POP PUSH1 0x1 DUP2 ADD SWAP1 POP PUSH2 0x4DAB JUMP JUMPDEST POP DUP3 SWAP8 POP DUP8 SWAP6 POP POP POP POP POP POP SWAP3 SWAP2 POP POP JUMP JUMPDEST PUSH1 0x0 PUSH2 0x4E00 DUP3 PUSH2 0x59B8 JUMP JUMPDEST PUSH2 0x4E0A DUP2 DUP6 PUSH2 0x5A53 JUMP JUMPDEST SWAP4 POP DUP4 PUSH1 0x20 DUP3 MUL DUP6 ADD PUSH2 0x4E1C DUP6 PUSH2 0x5952 JUMP JUMPDEST DUP1 PUSH1 0x0 JUMPDEST DUP6 DUP2 LT ISZERO PUSH2 0x4E58 JUMPI DUP5 DUP5 SUB DUP10 MSTORE DUP2 MLOAD PUSH2 0x4E39 DUP6 DUP3 PUSH2 0x4C06 JUMP JUMPDEST SWAP5 POP PUSH2 0x4E44 DUP4 PUSH2 0x5A02 JUMP JUMPDEST SWAP3 POP PUSH1 0x20 DUP11 ADD SWAP10 POP POP PUSH1 0x1 DUP2 ADD SWAP1 POP PUSH2 0x4E20 JUMP JUMPDEST POP DUP3 SWAP8 POP DUP8 SWAP6 POP POP POP POP POP POP SWAP3 SWAP2 POP POP JUMP JUMPDEST PUSH2 0x4E73 DUP2 PUSH2 0x5B53 JUMP JUMPDEST DUP3 MSTORE POP POP JUMP JUMPDEST PUSH1 0x0 PUSH2 0x4E84 DUP3 PUSH2 0x59C3 JUMP JUMPDEST PUSH2 0x4E8E DUP2 DUP6 PUSH2 0x5A64 JUMP JUMPDEST SWAP4 POP PUSH2 0x4E9E DUP2 DUP6 PUSH1 0x20 DUP7 ADD PUSH2 0x5B98 JUMP JUMPDEST PUSH2 0x4EA7 DUP2 PUSH2 0x5D04 JUMP JUMPDEST DUP5 ADD SWAP2 POP POP SWAP3 SWAP2 POP POP JUMP JUMPDEST PUSH1 0x0 PUSH2 0x4EBD DUP3 PUSH2 0x59C3 JUMP JUMPDEST PUSH2 0x4EC7 DUP2 DUP6 PUSH2 0x5A75 JUMP JUMPDEST SWAP4 POP PUSH2 0x4ED7 DUP2 DUP6 PUSH1 0x20 DUP7 ADD PUSH2 0x5B98 JUMP JUMPDEST PUSH2 0x4EE0 DUP2 PUSH2 0x5D04 JUMP JUMPDEST DUP5 ADD SWAP2 POP POP SWAP3 SWAP2 POP POP JUMP JUMPDEST PUSH1 0x0 PUSH2 0x4EF6 DUP3 PUSH2 0x59C3 JUMP JUMPDEST PUSH2 0x4F00 DUP2 DUP6 PUSH2 0x5A86 JUMP JUMPDEST SWAP4 POP PUSH2 0x4F10 DUP2 DUP6 PUSH1 0x20 DUP7 ADD PUSH2 0x5B98 JUMP JUMPDEST DUP1 DUP5 ADD SWAP2 POP POP SWAP3 SWAP2 POP POP JUMP JUMPDEST PUSH1 0x0 DUP2 SLOAD PUSH2 0x4F29 DUP2 PUSH2 0x5BCB JUMP JUMPDEST PUSH2 0x4F33 DUP2 DUP7 PUSH2 0x5A86 JUMP JUMPDEST SWAP5 POP PUSH1 0x1 DUP3 AND PUSH1 0x0 DUP2 EQ PUSH2 0x4F4E JUMPI PUSH1 0x1 DUP2 EQ PUSH2 0x4F5F JUMPI PUSH2 0x4F92 JUMP JUMPDEST PUSH1 0xFF NOT DUP4 AND DUP7 MSTORE DUP2 DUP7 ADD SWAP4 POP PUSH2 0x4F92 JUMP JUMPDEST PUSH2 0x4F68 DUP6 PUSH2 0x5977 JUMP JUMPDEST PUSH1 0x0 JUMPDEST DUP4 DUP2 LT ISZERO PUSH2 0x4F8A JUMPI DUP2 SLOAD DUP2 DUP10 ADD MSTORE PUSH1 0x1 DUP3 ADD SWAP2 POP PUSH1 0x20 DUP2 ADD SWAP1 POP PUSH2 0x4F6B JUMP JUMPDEST DUP4 DUP9 ADD SWAP6 POP POP POP JUMPDEST POP POP POP SWAP3 SWAP2 POP POP JUMP JUMPDEST PUSH1 0x0 DUP2 SLOAD PUSH2 0x4FA8 DUP2 PUSH2 0x5BCB JUMP JUMPDEST PUSH2 0x4FB2 DUP2 DUP7 PUSH2 0x5A86 JUMP JUMPDEST SWAP5 POP PUSH1 0x1 DUP3 AND PUSH1 0x0 DUP2 EQ PUSH2 0x4FCD JUMPI PUSH1 0x1 DUP2 EQ PUSH2 0x4FDE JUMPI PUSH2 0x5011 JUMP JUMPDEST PUSH1 0xFF NOT DUP4 AND DUP7 MSTORE DUP2 DUP7 ADD SWAP4 POP PUSH2 0x5011 JUMP JUMPDEST PUSH2 0x4FE7 DUP6 PUSH2 0x5962 JUMP JUMPDEST PUSH1 0x0 JUMPDEST DUP4 DUP2 LT ISZERO PUSH2 0x5009 JUMPI DUP2 SLOAD DUP2 DUP10 ADD MSTORE PUSH1 0x1 DUP3 ADD SWAP2 POP PUSH1 0x20 DUP2 ADD SWAP1 POP PUSH2 0x4FEA JUMP JUMPDEST DUP4 DUP9 ADD SWAP6 POP POP POP JUMPDEST POP POP POP SWAP3 SWAP2 POP POP JUMP JUMPDEST PUSH1 0x0 PUSH2 0x5027 PUSH1 0x10 DUP4 PUSH2 0x5A86 JUMP JUMPDEST SWAP2 POP PUSH2 0x5032 DUP3 PUSH2 0x5D15 JUMP JUMPDEST PUSH1 0x10 DUP3 ADD SWAP1 POP SWAP2 SWAP1 POP JUMP JUMPDEST PUSH1 0x0 PUSH2 0x504A PUSH1 0xB DUP4 PUSH2 0x5A86 JUMP JUMPDEST SWAP2 POP PUSH2 0x5055 DUP3 PUSH2 0x5D3E JUMP JUMPDEST PUSH1 0xB DUP3 ADD SWAP1 POP SWAP2 SWAP1 POP JUMP JUMPDEST PUSH1 0x0 PUSH2 0x506D PUSH1 0x22 DUP4 PUSH2 0x5A86 JUMP JUMPDEST SWAP2 POP PUSH2 0x5078 DUP3 PUSH2 0x5D67 JUMP JUMPDEST PUSH1 0x22 DUP3 ADD SWAP1 POP SWAP2 SWAP1 POP JUMP JUMPDEST PUSH1 0x0 PUSH2 0x5090 PUSH1 0x10 DUP4 PUSH2 0x5A86 JUMP JUMPDEST SWAP2 POP PUSH2 0x509B DUP3 PUSH2 0x5DB6 JUMP JUMPDEST PUSH1 0x10 DUP3 ADD SWAP1 POP SWAP2 SWAP1 POP JUMP JUMPDEST PUSH1 0x0 PUSH2 0x50B3 PUSH1 0x31 DUP4 PUSH2 0x5A86 JUMP JUMPDEST SWAP2 POP PUSH2 0x50BE DUP3 PUSH2 0x5DDF JUMP JUMPDEST PUSH1 0x31 DUP3 ADD SWAP1 POP SWAP2 SWAP1 POP JUMP JUMPDEST PUSH1 0x0 PUSH2 0x50D6 PUSH1 0x31 DUP4 PUSH2 0x5A86 JUMP JUMPDEST SWAP2 POP PUSH2 0x50E1 DUP3 PUSH2 0x5E2E JUMP JUMPDEST PUSH1 0x31 DUP3 ADD SWAP1 POP SWAP2 SWAP1 POP JUMP JUMPDEST PUSH1 0x0 PUSH2 0x50F9 PUSH1 0x1 DUP4 PUSH2 0x5A86 JUMP JUMPDEST SWAP2 POP PUSH2 0x5104 DUP3 PUSH2 0x5E7D JUMP JUMPDEST PUSH1 0x1 DUP3 ADD SWAP1 POP SWAP2 SWAP1 POP JUMP JUMPDEST PUSH1 0x0 PUSH2 0x511C PUSH1 0xB DUP4 PUSH2 0x5A86 JUMP JUMPDEST SWAP2 POP PUSH2 0x5127 DUP3 PUSH2 0x5EA6 JUMP JUMPDEST PUSH1 0xB DUP3 ADD SWAP1 POP SWAP2 SWAP1 POP JUMP JUMPDEST PUSH1 0x0 PUSH1 0x40 DUP4 ADD PUSH1 0x0 DUP4 ADD MLOAD DUP5 DUP3 SUB PUSH1 0x0 DUP7 ADD MSTORE PUSH2 0x514F DUP3 DUP3 PUSH2 0x4E79 JUMP JUMPDEST SWAP2 POP POP PUSH1 0x20 DUP4 ADD MLOAD DUP5 DUP3 SUB PUSH1 0x20 DUP7 ADD MSTORE PUSH2 0x5169 DUP3 DUP3 PUSH2 0x4DF5 JUMP JUMPDEST SWAP2 POP POP DUP1 SWAP2 POP POP SWAP3 SWAP2 POP POP JUMP JUMPDEST PUSH1 0x0 PUSH1 0x80 DUP4 ADD PUSH1 0x0 DUP4 ADD MLOAD DUP5 DUP3 SUB PUSH1 0x0 DUP7 ADD MSTORE PUSH2 0x5193 DUP3 DUP3 PUSH2 0x4E79 JUMP JUMPDEST SWAP2 POP POP PUSH1 0x20 DUP4 ADD MLOAD DUP5 DUP3 SUB PUSH1 0x20 DUP7 ADD MSTORE PUSH2 0x51AD DUP3 DUP3 PUSH2 0x4E79 JUMP JUMPDEST SWAP2 POP POP PUSH1 0x40 DUP4 ADD MLOAD DUP5 DUP3 SUB PUSH1 0x40 DUP7 ADD MSTORE PUSH2 0x51C7 DUP3 DUP3 PUSH2 0x4E79 JUMP JUMPDEST SWAP2 POP POP PUSH1 0x60 DUP4 ADD MLOAD DUP5 DUP3 SUB PUSH1 0x60 DUP7 ADD MSTORE PUSH2 0x51E1 DUP3 DUP3 PUSH2 0x4E79 JUMP JUMPDEST SWAP2 POP POP DUP1 SWAP2 POP POP SWAP3 SWAP2 POP POP JUMP JUMPDEST PUSH1 0x0 PUSH1 0xA0 DUP4 ADD PUSH1 0x0 DUP4 ADD MLOAD PUSH2 0x5206 PUSH1 0x0 DUP7 ADD DUP3 PUSH2 0x5427 JUMP JUMPDEST POP PUSH1 0x20 DUP4 ADD MLOAD DUP5 DUP3 SUB PUSH1 0x20 DUP7 ADD MSTORE PUSH2 0x521E DUP3 DUP3 PUSH2 0x4E79 JUMP JUMPDEST SWAP2 POP POP PUSH1 0x40 DUP4 ADD MLOAD DUP5 DUP3 SUB PUSH1 0x40 DUP7 ADD MSTORE PUSH2 0x5238 DUP3 DUP3 PUSH2 0x4E79 JUMP JUMPDEST SWAP2 POP POP PUSH1 0x60 DUP4 ADD MLOAD PUSH2 0x524D PUSH1 0x60 DUP7 ADD DUP3 PUSH2 0x5427 JUMP JUMPDEST POP PUSH1 0x80 DUP4 ADD MLOAD PUSH2 0x5260 PUSH1 0x80 DUP7 ADD DUP3 PUSH2 0x5427 JUMP JUMPDEST POP DUP1 SWAP2 POP POP SWAP3 SWAP2 POP POP JUMP JUMPDEST PUSH1 0x0 PUSH2 0x160 DUP4 ADD PUSH1 0x0 DUP4 ADD MLOAD DUP5 DUP3 SUB PUSH1 0x0 DUP7 ADD MSTORE PUSH2 0x5289 DUP3 DUP3 PUSH2 0x4E79 JUMP JUMPDEST SWAP2 POP POP PUSH1 0x20 DUP4 ADD MLOAD DUP5 DUP3 SUB PUSH1 0x20 DUP7 ADD MSTORE PUSH2 0x52A3 DUP3 DUP3 PUSH2 0x4E79 JUMP JUMPDEST SWAP2 POP POP PUSH1 0x40 DUP4 ADD MLOAD DUP5 DUP3 SUB PUSH1 0x40 DUP7 ADD MSTORE PUSH2 0x52BD DUP3 DUP3 PUSH2 0x4E79 JUMP JUMPDEST SWAP2 POP POP PUSH1 0x60 DUP4 ADD MLOAD DUP5 DUP3 SUB PUSH1 0x60 DUP7 ADD MSTORE PUSH2 0x52D7 DUP3 DUP3 PUSH2 0x4E79 JUMP JUMPDEST SWAP2 POP POP PUSH1 0x80 DUP4 ADD MLOAD PUSH2 0x52EC PUSH1 0x80 DUP7 ADD DUP3 PUSH2 0x5427 JUMP JUMPDEST POP PUSH1 0xA0 DUP4 ADD MLOAD DUP5 DUP3 SUB PUSH1 0xA0 DUP7 ADD MSTORE PUSH2 0x5304 DUP3 DUP3 PUSH2 0x4E79 JUMP JUMPDEST SWAP2 POP POP PUSH1 0xC0 DUP4 ADD MLOAD PUSH2 0x5319 PUSH1 0xC0 DUP7 ADD DUP3 PUSH2 0x4C1A JUMP JUMPDEST POP PUSH1 0xE0 DUP4 ADD MLOAD PUSH2 0x532C PUSH1 0xE0 DUP7 ADD DUP3 PUSH2 0x5427 JUMP JUMPDEST POP PUSH2 0x100 DUP4 ADD MLOAD DUP5 DUP3 SUB PUSH2 0x100 DUP7 ADD MSTORE PUSH2 0x5346 DUP3 DUP3 PUSH2 0x4E79 JUMP JUMPDEST SWAP2 POP POP PUSH2 0x120 DUP4 ADD MLOAD DUP5 DUP3 SUB PUSH2 0x120 DUP7 ADD MSTORE PUSH2 0x5362 DUP3 DUP3 PUSH2 0x4E79 JUMP JUMPDEST SWAP2 POP POP PUSH2 0x140 DUP4 ADD MLOAD PUSH2 0x5379 PUSH2 0x140 DUP7 ADD DUP3 PUSH2 0x5427 JUMP JUMPDEST POP DUP1 SWAP2 POP POP SWAP3 SWAP2 POP POP JUMP JUMPDEST PUSH1 0x0 PUSH1 0xE0 DUP4 ADD PUSH1 0x0 DUP4 ADD MLOAD DUP5 DUP3 SUB PUSH1 0x0 DUP7 ADD MSTORE PUSH2 0x53A1 DUP3 DUP3 PUSH2 0x4E79 JUMP JUMPDEST SWAP2 POP POP PUSH1 0x20 DUP4 ADD MLOAD DUP5 DUP3 SUB PUSH1 0x20 DUP7 ADD MSTORE PUSH2 0x53BB DUP3 DUP3 PUSH2 0x4E79 JUMP JUMPDEST SWAP2 POP POP PUSH1 0x40 DUP4 ADD MLOAD PUSH2 0x53D0 PUSH1 0x40 DUP7 ADD DUP3 PUSH2 0x4C1A JUMP JUMPDEST POP PUSH1 0x60 DUP4 ADD MLOAD PUSH2 0x53E3 PUSH1 0x60 DUP7 ADD DUP3 PUSH2 0x5427 JUMP JUMPDEST POP PUSH1 0x80 DUP4 ADD MLOAD PUSH2 0x53F6 PUSH1 0x80 DUP7 ADD DUP3 PUSH2 0x5427 JUMP JUMPDEST POP PUSH1 0xA0 DUP4 ADD MLOAD PUSH2 0x5409 PUSH1 0xA0 DUP7 ADD DUP3 PUSH2 0x5427 JUMP JUMPDEST POP PUSH1 0xC0 DUP4 ADD MLOAD PUSH2 0x541C PUSH1 0xC0 DUP7 ADD DUP3 PUSH2 0x5427 JUMP JUMPDEST POP DUP1 SWAP2 POP POP SWAP3 SWAP2 POP POP JUMP JUMPDEST PUSH2 0x5430 DUP2 PUSH2 0x5B7F JUMP JUMPDEST DUP3 MSTORE POP POP JUMP JUMPDEST PUSH2 0x543F DUP2 PUSH2 0x5B7F JUMP JUMPDEST DUP3 MSTORE POP POP JUMP JUMPDEST PUSH1 0x0 PUSH2 0x5451 DUP3 DUP5 PUSH2 0x4EEB JUMP JUMPDEST SWAP2 POP DUP2 SWAP1 POP SWAP3 SWAP2 POP POP JUMP JUMPDEST PUSH1 0x0 PUSH2 0x5468 DUP3 DUP5 PUSH2 0x4F1C JUMP JUMPDEST SWAP2 POP DUP2 SWAP1 POP SWAP3 SWAP2 POP POP JUMP JUMPDEST PUSH1 0x0 PUSH2 0x547E DUP3 PUSH2 0x5060 JUMP JUMPDEST SWAP2 POP PUSH2 0x548A DUP3 DUP6 PUSH2 0x4EEB JUMP JUMPDEST SWAP2 POP PUSH2 0x5495 DUP3 PUSH2 0x501A JUMP JUMPDEST SWAP2 POP PUSH2 0x54A1 DUP3 DUP5 PUSH2 0x4F9B JUMP JUMPDEST SWAP2 POP PUSH2 0x54AC DUP3 PUSH2 0x50A6 JUMP JUMPDEST SWAP2 POP DUP2 SWAP1 POP SWAP4 SWAP3 POP POP POP JUMP JUMPDEST PUSH1 0x0 PUSH2 0x54C3 DUP3 PUSH2 0x5060 JUMP JUMPDEST SWAP2 POP PUSH2 0x54CF DUP3 DUP6 PUSH2 0x4EEB JUMP JUMPDEST SWAP2 POP PUSH2 0x54DA DUP3 PUSH2 0x5083 JUMP JUMPDEST SWAP2 POP PUSH2 0x54E6 DUP3 DUP5 PUSH2 0x4F1C JUMP JUMPDEST SWAP2 POP DUP2 SWAP1 POP SWAP4 SWAP3 POP POP POP JUMP JUMPDEST PUSH1 0x0 PUSH2 0x54FD DUP3 PUSH2 0x5060 JUMP JUMPDEST SWAP2 POP PUSH2 0x5509 DUP3 DUP5 PUSH2 0x4EEB JUMP JUMPDEST SWAP2 POP PUSH2 0x5514 DUP3 PUSH2 0x50C9 JUMP JUMPDEST SWAP2 POP DUP2 SWAP1 POP SWAP3 SWAP2 POP POP JUMP JUMPDEST PUSH1 0x0 PUSH2 0x552A DUP3 PUSH2 0x5060 JUMP JUMPDEST SWAP2 POP PUSH2 0x5536 DUP3 DUP5 PUSH2 0x4EEB JUMP JUMPDEST SWAP2 POP PUSH2 0x5541 DUP3 PUSH2 0x50EC JUMP JUMPDEST SWAP2 POP PUSH2 0x554C DUP3 PUSH2 0x503D JUMP JUMPDEST SWAP2 POP DUP2 SWAP1 POP SWAP3 SWAP2 POP POP JUMP JUMPDEST PUSH1 0x0 PUSH2 0x5562 DUP3 PUSH2 0x5060 JUMP JUMPDEST SWAP2 POP PUSH2 0x556E DUP3 DUP5 PUSH2 0x4EEB JUMP JUMPDEST SWAP2 POP PUSH2 0x5579 DUP3 PUSH2 0x510F JUMP JUMPDEST SWAP2 POP DUP2 SWAP1 POP SWAP3 SWAP2 POP POP JUMP JUMPDEST PUSH1 0x0 PUSH1 0x20 DUP3 ADD SWAP1 POP PUSH2 0x5599 PUSH1 0x0 DUP4 ADD DUP5 PUSH2 0x4C29 JUMP JUMPDEST SWAP3 SWAP2 POP POP JUMP JUMPDEST PUSH1 0x0 PUSH1 0x20 DUP3 ADD SWAP1 POP DUP2 DUP2 SUB PUSH1 0x0 DUP4 ADD MSTORE PUSH2 0x55B9 DUP2 DUP5 PUSH2 0x4C38 JUMP JUMPDEST SWAP1 POP SWAP3 SWAP2 POP POP JUMP JUMPDEST PUSH1 0x0 PUSH1 0x20 DUP3 ADD SWAP1 POP DUP2 DUP2 SUB PUSH1 0x0 DUP4 ADD MSTORE PUSH2 0x55DB DUP2 DUP5 PUSH2 0x4C96 JUMP JUMPDEST SWAP1 POP SWAP3 SWAP2 POP POP JUMP JUMPDEST PUSH1 0x0 PUSH1 0x20 DUP3 ADD SWAP1 POP DUP2 DUP2 SUB PUSH1 0x0 DUP4 ADD MSTORE PUSH2 0x55FD DUP2 DUP5 PUSH2 0x4D0B JUMP JUMPDEST SWAP1 POP SWAP3 SWAP2 POP POP JUMP JUMPDEST PUSH1 0x0 PUSH1 0x20 DUP3 ADD SWAP1 POP DUP2 DUP2 SUB PUSH1 0x0 DUP4 ADD MSTORE PUSH2 0x561F DUP2 DUP5 PUSH2 0x4D80 JUMP JUMPDEST SWAP1 POP SWAP3 SWAP2 POP POP JUMP JUMPDEST PUSH1 0x0 PUSH1 0x20 DUP3 ADD SWAP1 POP PUSH2 0x563C PUSH1 0x0 DUP4 ADD DUP5 PUSH2 0x4E6A JUMP JUMPDEST SWAP3 SWAP2 POP POP JUMP JUMPDEST PUSH1 0x0 PUSH1 0x20 DUP3 ADD SWAP1 POP DUP2 DUP2 SUB PUSH1 0x0 DUP4 ADD MSTORE PUSH2 0x565C DUP2 DUP5 PUSH2 0x4EB2 JUMP JUMPDEST SWAP1 POP SWAP3 SWAP2 POP POP JUMP JUMPDEST PUSH1 0x0 PUSH1 0xE0 DUP3 ADD SWAP1 POP DUP2 DUP2 SUB PUSH1 0x0 DUP4 ADD MSTORE PUSH2 0x567E DUP2 DUP11 PUSH2 0x4EB2 JUMP JUMPDEST SWAP1 POP DUP2 DUP2 SUB PUSH1 0x20 DUP4 ADD MSTORE PUSH2 0x5692 DUP2 DUP10 PUSH2 0x4EB2 JUMP JUMPDEST SWAP1 POP PUSH2 0x56A1 PUSH1 0x40 DUP4 ADD DUP9 PUSH2 0x4C29 JUMP JUMPDEST PUSH2 0x56AE PUSH1 0x60 DUP4 ADD DUP8 PUSH2 0x5436 JUMP JUMPDEST PUSH2 0x56BB PUSH1 0x80 DUP4 ADD DUP7 PUSH2 0x5436 JUMP JUMPDEST PUSH2 0x56C8 PUSH1 0xA0 DUP4 ADD DUP6 PUSH2 0x5436 JUMP JUMPDEST PUSH2 0x56D5 PUSH1 0xC0 DUP4 ADD DUP5 PUSH2 0x5436 JUMP JUMPDEST SWAP9 SWAP8 POP POP POP POP POP POP POP POP JUMP JUMPDEST PUSH1 0x0 PUSH1 0x80 DUP3 ADD SWAP1 POP DUP2 DUP2 SUB PUSH1 0x0 DUP4 ADD MSTORE PUSH2 0x56FB DUP2 DUP8 PUSH2 0x4EB2 JUMP JUMPDEST SWAP1 POP DUP2 DUP2 SUB PUSH1 0x20 DUP4 ADD MSTORE PUSH2 0x570F DUP2 DUP7 PUSH2 0x4EB2 JUMP JUMPDEST SWAP1 POP DUP2 DUP2 SUB PUSH1 0x40 DUP4 ADD MSTORE PUSH2 0x5723 DUP2 DUP6 PUSH2 0x4EB2 JUMP JUMPDEST SWAP1 POP DUP2 DUP2 SUB PUSH1 0x60 DUP4 ADD MSTORE PUSH2 0x5737 DUP2 DUP5 PUSH2 0x4EB2 JUMP JUMPDEST SWAP1 POP SWAP6 SWAP5 POP POP POP POP POP JUMP JUMPDEST PUSH1 0x0 PUSH2 0x160 DUP3 ADD SWAP1 POP DUP2 DUP2 SUB PUSH1 0x0 DUP4 ADD MSTORE PUSH2 0x575D DUP2 DUP15 PUSH2 0x4EB2 JUMP JUMPDEST SWAP1 POP DUP2 DUP2 SUB PUSH1 0x20 DUP4 ADD MSTORE PUSH2 0x5771 DUP2 DUP14 PUSH2 0x4EB2 JUMP JUMPDEST SWAP1 POP DUP2 DUP2 SUB PUSH1 0x40 DUP4 ADD MSTORE PUSH2 0x5785 DUP2 DUP13 PUSH2 0x4EB2 JUMP JUMPDEST SWAP1 POP DUP2 DUP2 SUB PUSH1 0x60 DUP4 ADD MSTORE PUSH2 0x5799 DUP2 DUP12 PUSH2 0x4EB2 JUMP JUMPDEST SWAP1 POP PUSH2 0x57A8 PUSH1 0x80 DUP4 ADD DUP11 PUSH2 0x5436 JUMP JUMPDEST DUP2 DUP2 SUB PUSH1 0xA0 DUP4 ADD MSTORE PUSH2 0x57BA DUP2 DUP10 PUSH2 0x4EB2 JUMP JUMPDEST SWAP1 POP PUSH2 0x57C9 PUSH1 0xC0 DUP4 ADD DUP9 PUSH2 0x4C29 JUMP JUMPDEST PUSH2 0x57D6 PUSH1 0xE0 DUP4 ADD DUP8 PUSH2 0x5436 JUMP JUMPDEST DUP2 DUP2 SUB PUSH2 0x100 DUP4 ADD MSTORE PUSH2 0x57E9 DUP2 DUP7 PUSH2 0x4EB2 JUMP JUMPDEST SWAP1 POP DUP2 DUP2 SUB PUSH2 0x120 DUP4 ADD MSTORE PUSH2 0x57FE DUP2 DUP6 PUSH2 0x4EB2 JUMP JUMPDEST SWAP1 POP PUSH2 0x580E PUSH2 0x140 DUP4 ADD DUP5 PUSH2 0x5436 JUMP JUMPDEST SWAP13 SWAP12 POP POP POP POP POP POP POP POP POP POP POP POP JUMP JUMPDEST PUSH1 0x0 PUSH1 0x20 DUP3 ADD SWAP1 POP DUP2 DUP2 SUB PUSH1 0x0 DUP4 ADD MSTORE PUSH2 0x5838 DUP2 DUP5 PUSH2 0x5132 JUMP JUMPDEST SWAP1 POP SWAP3 SWAP2 POP POP JUMP JUMPDEST PUSH1 0x0 PUSH1 0x20 DUP3 ADD SWAP1 POP PUSH2 0x5855 PUSH1 0x0 DUP4 ADD DUP5 PUSH2 0x5436 JUMP JUMPDEST SWAP3 SWAP2 POP POP JUMP JUMPDEST PUSH1 0x0 PUSH1 0xA0 DUP3 ADD SWAP1 POP PUSH2 0x5870 PUSH1 0x0 DUP4 ADD DUP9 PUSH2 0x5436 JUMP JUMPDEST DUP2 DUP2 SUB PUSH1 0x20 DUP4 ADD MSTORE PUSH2 0x5882 DUP2 DUP8 PUSH2 0x4EB2 JUMP JUMPDEST SWAP1 POP DUP2 DUP2 SUB PUSH1 0x40 DUP4 ADD MSTORE PUSH2 0x5896 DUP2 DUP7 PUSH2 0x4EB2 JUMP JUMPDEST SWAP1 POP PUSH2 0x58A5 PUSH1 0x60 DUP4 ADD DUP6 PUSH2 0x5436 JUMP JUMPDEST PUSH2 0x58B2 PUSH1 0x80 DUP4 ADD DUP5 PUSH2 0x5436 JUMP JUMPDEST SWAP7 SWAP6 POP POP POP POP POP POP JUMP JUMPDEST PUSH1 0x0 PUSH2 0x58C6 PUSH2 0x58D7 JUMP JUMPDEST SWAP1 POP PUSH2 0x58D2 DUP3 DUP3 PUSH2 0x5BFD JUMP JUMPDEST SWAP2 SWAP1 POP JUMP JUMPDEST PUSH1 0x0 PUSH1 0x40 MLOAD SWAP1 POP SWAP1 JUMP JUMPDEST PUSH1 0x0 PUSH8 0xFFFFFFFFFFFFFFFF DUP3 GT ISZERO PUSH2 0x58FC JUMPI PUSH2 0x58FB PUSH2 0x5CD5 JUMP JUMPDEST JUMPDEST PUSH2 0x5905 DUP3 PUSH2 0x5D04 JUMP JUMPDEST SWAP1 POP PUSH1 0x20 DUP2 ADD SWAP1 POP SWAP2 SWAP1 POP JUMP JUMPDEST PUSH1 0x0 DUP2 SWAP1 POP PUSH1 0x20 DUP3 ADD SWAP1 POP SWAP2 SWAP1 POP JUMP JUMPDEST PUSH1 0x0 DUP2 SWAP1 POP PUSH1 0x20 DUP3 ADD SWAP1 POP SWAP2 SWAP1 POP JUMP JUMPDEST PUSH1 0x0 DUP2 SWAP1 POP PUSH1 0x20 DUP3 ADD SWAP1 POP SWAP2 SWAP1 POP JUMP JUMPDEST PUSH1 0x0 DUP2 SWAP1 POP PUSH1 0x20 DUP3 ADD SWAP1 POP SWAP2 SWAP1 POP JUMP JUMPDEST PUSH1 0x0 DUP2 SWAP1 POP PUSH1 0x20 DUP3 ADD SWAP1 POP SWAP2 SWAP1 POP JUMP JUMPDEST PUSH1 0x0 DUP2 SWAP1 POP DUP2 PUSH1 0x0 MSTORE PUSH1 0x20 PUSH1 0x0 KECCAK256 SWAP1 POP SWAP2 SWAP1 POP JUMP JUMPDEST PUSH1 0x0 DUP2 SWAP1 POP DUP2 PUSH1 0x0 MSTORE PUSH1 0x20 PUSH1 0x0 KECCAK256 SWAP1 POP SWAP2 SWAP1 POP JUMP JUMPDEST PUSH1 0x0 DUP2 MLOAD SWAP1 POP SWAP2 SWAP1 POP JUMP JUMPDEST PUSH1 0x0 DUP2 MLOAD SWAP1 POP SWAP2 SWAP1 POP JUMP JUMPDEST PUSH1 0x0 DUP2 MLOAD SWAP1 POP SWAP2 SWAP1 POP JUMP JUMPDEST PUSH1 0x0 DUP2 MLOAD SWAP1 POP SWAP2 SWAP1 POP JUMP JUMPDEST PUSH1 0x0 DUP2 MLOAD SWAP1 POP SWAP2 SWAP1 POP JUMP JUMPDEST PUSH1 0x0 DUP2 MLOAD SWAP1 POP SWAP2 SWAP1 POP JUMP JUMPDEST PUSH1 0x0 PUSH1 0x20 DUP3 ADD SWAP1 POP SWAP2 SWAP1 POP JUMP JUMPDEST PUSH1 0x0 PUSH1 0x20 DUP3 ADD SWAP1 POP SWAP2 SWAP1 POP JUMP JUMPDEST PUSH1 0x0 PUSH1 0x20 DUP3 ADD SWAP1 POP SWAP2 SWAP1 POP JUMP JUMPDEST PUSH1 0x0 PUSH1 0x20 DUP3 ADD SWAP1 POP SWAP2 SWAP1 POP JUMP JUMPDEST PUSH1 0x0 PUSH1 0x20 DUP3 ADD SWAP1 POP SWAP2 SWAP1 POP JUMP JUMPDEST PUSH1 0x0 DUP3 DUP3 MSTORE PUSH1 0x20 DUP3 ADD SWAP1 POP SWAP3 SWAP2 POP POP JUMP JUMPDEST PUSH1 0x0 DUP3 DUP3 MSTORE PUSH1 0x20 DUP3 ADD SWAP1 POP SWAP3 SWAP2 POP POP JUMP JUMPDEST PUSH1 0x0 DUP3 DUP3 MSTORE PUSH1 0x20 DUP3 ADD SWAP1 POP SWAP3 SWAP2 POP POP JUMP JUMPDEST PUSH1 0x0 DUP3 DUP3 MSTORE PUSH1 0x20 DUP3 ADD SWAP1 POP SWAP3 SWAP2 POP POP JUMP JUMPDEST PUSH1 0x0 DUP3 DUP3 MSTORE PUSH1 0x20 DUP3 ADD SWAP1 POP SWAP3 SWAP2 POP POP JUMP JUMPDEST PUSH1 0x0 DUP3 DUP3 MSTORE PUSH1 0x20 DUP3 ADD SWAP1 POP SWAP3 SWAP2 POP POP JUMP JUMPDEST PUSH1 0x0 DUP3 DUP3 MSTORE PUSH1 0x20 DUP3 ADD SWAP1 POP SWAP3 SWAP2 POP POP JUMP JUMPDEST PUSH1 0x0 DUP2 SWAP1 POP SWAP3 SWAP2 POP POP JUMP JUMPDEST PUSH1 0x0 PUSH2 0x5A9C DUP3 PUSH2 0x5B7F JUMP JUMPDEST SWAP2 POP PUSH2 0x5AA7 DUP4 PUSH2 0x5B7F JUMP JUMPDEST SWAP3 POP DUP3 PUSH32 0xFFFFFFFFFFFFFFFFFFFFFFFFFFFFFFFFFFFFFFFFFFFFFFFFFFFFFFFFFFFFFFFF SUB DUP3 GT ISZERO PUSH2 0x5ADC JUMPI PUSH2 0x5ADB PUSH2 0x5C77 JUMP JUMPDEST JUMPDEST DUP3 DUP3 ADD SWAP1 POP SWAP3 SWAP2 POP POP JUMP JUMPDEST PUSH1 0x0 PUSH2 0x5AF2 DUP3 PUSH2 0x5B7F JUMP JUMPDEST SWAP2 POP PUSH2 0x5AFD DUP4 PUSH2 0x5B7F JUMP JUMPDEST SWAP3 POP DUP2 PUSH32 0xFFFFFFFFFFFFFFFFFFFFFFFFFFFFFFFFFFFFFFFFFFFFFFFFFFFFFFFFFFFFFFFF DIV DUP4 GT DUP3 ISZERO ISZERO AND ISZERO PUSH2 0x5B36 JUMPI PUSH2 0x5B35 PUSH2 0x5C77 JUMP JUMPDEST JUMPDEST DUP3 DUP3 MUL SWAP1 POP SWAP3 SWAP2 POP POP JUMP JUMPDEST PUSH1 0x0 PUSH2 0x5B4C DUP3 PUSH2 0x5B5F JUMP JUMPDEST SWAP1 POP SWAP2 SWAP1 POP JUMP JUMPDEST PUSH1 0x0 DUP2 ISZERO ISZERO SWAP1 POP SWAP2 SWAP1 POP JUMP JUMPDEST PUSH1 0x0 PUSH20 0xFFFFFFFFFFFFFFFFFFFFFFFFFFFFFFFFFFFFFFFF DUP3 AND SWAP1 POP SWAP2 SWAP1 POP JUMP JUMPDEST PUSH1 0x0 DUP2 SWAP1 POP SWAP2 SWAP1 POP JUMP JUMPDEST DUP3 DUP2 DUP4 CALLDATACOPY PUSH1 0x0 DUP4 DUP4 ADD MSTORE POP POP POP JUMP JUMPDEST PUSH1 0x0 JUMPDEST DUP4 DUP2 LT ISZERO PUSH2 0x5BB6 JUMPI DUP1 DUP3 ADD MLOAD DUP2 DUP5 ADD MSTORE PUSH1 0x20 DUP2 ADD SWAP1 POP PUSH2 0x5B9B JUMP JUMPDEST DUP4 DUP2 GT ISZERO PUSH2 0x5BC5 JUMPI PUSH1 0x0 DUP5 DUP5 ADD MSTORE JUMPDEST POP POP POP POP JUMP JUMPDEST PUSH1 0x0 PUSH1 0x2 DUP3 DIV SWAP1 POP PUSH1 0x1 DUP3 AND DUP1 PUSH2 0x5BE3 JUMPI PUSH1 0x7F DUP3 AND SWAP2 POP JUMPDEST PUSH1 0x20 DUP3 LT DUP2 EQ ISZERO PUSH2 0x5BF7 JUMPI PUSH2 0x5BF6 PUSH2 0x5CA6 JUMP JUMPDEST JUMPDEST POP SWAP2 SWAP1 POP JUMP JUMPDEST PUSH2 0x5C06 DUP3 PUSH2 0x5D04 JUMP JUMPDEST DUP2 ADD DUP2 DUP2 LT PUSH8 0xFFFFFFFFFFFFFFFF DUP3 GT OR ISZERO PUSH2 0x5C25 JUMPI PUSH2 0x5C24 PUSH2 0x5CD5 JUMP JUMPDEST JUMPDEST DUP1 PUSH1 0x40 MSTORE POP POP POP JUMP JUMPDEST PUSH1 0x0 PUSH2 0x5C39 DUP3 PUSH2 0x5B7F JUMP JUMPDEST SWAP2 POP PUSH32 0xFFFFFFFFFFFFFFFFFFFFFFFFFFFFFFFFFFFFFFFFFFFFFFFFFFFFFFFFFFFFFFFF DUP3 EQ ISZERO PUSH2 0x5C6C JUMPI PUSH2 0x5C6B PUSH2 0x5C77 JUMP JUMPDEST JUMPDEST PUSH1 0x1 DUP3 ADD SWAP1 POP SWAP2 SWAP1 POP JUMP JUMPDEST PUSH32 0x4E487B7100000000000000000000000000000000000000000000000000000000 PUSH1 0x0 MSTORE PUSH1 0x11 PUSH1 0x4 MSTORE PUSH1 0x24 PUSH1 0x0 REVERT JUMPDEST PUSH32 0x4E487B7100000000000000000000000000000000000000000000000000000000 PUSH1 0x0 MSTORE PUSH1 0x22 PUSH1 0x4 MSTORE PUSH1 0x24 PUSH1 0x0 REVERT JUMPDEST PUSH32 0x4E487B7100000000000000000000000000000000000000000000000000000000 PUSH1 0x0 MSTORE PUSH1 0x41 PUSH1 0x4 MSTORE PUSH1 0x24 PUSH1 0x0 REVERT JUMPDEST PUSH1 0x0 PUSH1 0x1F NOT PUSH1 0x1F DUP4 ADD AND SWAP1 POP SWAP2 SWAP1 POP JUMP JUMPDEST PUSH32 0x206973206578706972656420666F722000000000000000000000000000000000 PUSH1 0x0 DUP3 ADD MSTORE POP JUMP JUMPDEST PUSH32 0x2069732063726561746564000000000000000000000000000000000000000000 PUSH1 0x0 DUP3 ADD MSTORE POP JUMP JUMPDEST PUSH32 0x5472616E73616374696F6E2077697468207472616E73616374696F6E20686173 PUSH1 0x0 DUP3 ADD MSTORE PUSH32 0x6820000000000000000000000000000000000000000000000000000000000000 PUSH1 0x20 DUP3 ADD MSTORE POP JUMP JUMPDEST PUSH32 0x20697320617070726F7665642062792000000000000000000000000000000000 PUSH1 0x0 DUP3 ADD MSTORE POP JUMP JUMPDEST PUSH32 0x20616E6420686173206265656E207472616E7366657272656420746F20746865 PUSH1 0x0 DUP3 ADD MSTORE PUSH32 0x2068696768657220617574686F72697479000000000000000000000000000000 PUSH1 0x20 DUP3 ADD MSTORE POP JUMP JUMPDEST PUSH32 0x20697320636F6D706C6574656420616E6420617070726F76656420627920616C PUSH1 0x0 DUP3 ADD MSTORE PUSH32 0x6C2074686520617574686F726974696573000000000000000000000000000000 PUSH1 0x20 DUP3 ADD MSTORE POP JUMP JUMPDEST PUSH32 0x2000000000000000000000000000000000000000000000000000000000000000 PUSH1 0x0 DUP3 ADD MSTORE POP JUMP JUMPDEST PUSH32 0x2069732065787069726564000000000000000000000000000000000000000000 PUSH1 0x0 DUP3 ADD MSTORE POP JUMP JUMPDEST PUSH2 0x5ED8 DUP2 PUSH2 0x5B41 JUMP JUMPDEST DUP2 EQ PUSH2 0x5EE3 JUMPI PUSH1 0x0 DUP1 REVERT JUMPDEST POP JUMP JUMPDEST PUSH2 0x5EEF DUP2 PUSH2 0x5B7F JUMP JUMPDEST DUP2 EQ PUSH2 0x5EFA JUMPI PUSH1 0x0 DUP1 REVERT JUMPDEST POP JUMP INVALID LOG2 PUSH5 0x6970667358 0x22 SLT KECCAK256 SWAP11 SAR JUMP SIGNEXTEND GASLIMIT SWAP10 0x1F 0xBE 0xEB DUP12 0xAE DUP13 CODESIZE EXTCODEHASH 0xB0 XOR SSTORE 0xC7 0xD4 DUP8 0xEF 0xB5 0xD5 DUP3 0xD1 0xA8 0xD7 COINBASE JUMPDEST 0xEE DUP12 EXP PUSH5 0x736F6C6343 STOP ADDMOD DIV STOP CALLER "},"gasEstimates":{"creation":{"codeDepositCost":"4874200","executionCost":"infinite","totalCost":"infinite"},"external":{"approvalMap(string)":"infinite","approveTransaction(string)":"infinite","authCreator()":"1258","authMember()":"1331","createRole(string,string,uint256,uint256)":"infinite","createTransaction(string,string,string,string,uint256)":"infinite","createUser(string,address,string)":"infinite","creator()":"1257","declineTransaction(string)":"infinite","deleteUser(uint256)":"22239","listApprovals(string)":"infinite","listNotification()":"infinite","listRoles()":"infinite","listTransaction()":"infinite","listUsers()":"infinite","notificationList(uint256)":"infinite","notificationMap(string)":"infinite","roleList(uint256)":"infinite","roleMap(string)":"infinite","transaction()":"1259","transactionList(uint256)":"infinite","transactionMap(string)":"infinite","userList(uint256)":"2423","userMap(address)":"infinite","validateTxDuration(string)":"infinite"},"internal":{"compareStrings(string memory,string memory)":"infinite","getNextRole(string memory)":"infinite","getUptoApprovalRole(uint256)":"infinite","isTimeWindowOverForRole(string memory,uint256)":"infinite"}},"methodIdentifiers":{"approvalMap(string)":"a848bf8b","approveTransaction(string)":"2e69619c","authCreator()":"2cddaa86","authMember()":"89d7c784","createRole(string,string,uint256,uint256)":"a1cb091f","createTransaction(string,string,string,string,uint256)":"f2cf5ec7","createUser(string,address,string)":"b17e8964","creator()":"02d05d3f","declineTransaction(string)":"8406830a","deleteUser(uint256)":"38f14845","listApprovals(string)":"2c040681","listNotification()":"e0528b7c","listRoles()":"f59badad","listTransaction()":"220fd618","listUsers()":"8ad257b7","notificationList(uint256)":"35b9ea5b","notificationMap(string)":"00a032f0","roleList(uint256)":"f4558ef9","roleMap(string)":"0f44f0b8","transaction()":"c99de57e","transactionList(uint256)":"04ef5b21","transactionMap(string)":"ccc590f2","userList(uint256)":"9f4216e8","userMap(address)":"2bcc23f8","validateTxDuration(string)":"e08491cd"}}}